{
	"contracts/ContributorRegistry.sol": {
		"ContributorRegistry": {
			"abi": [
				{
					"inputs": [
						{
							"internalType": "address",
							"name": "_defaultAdmin",
							"type": "address"
						},
						{
							"internalType": "address",
							"name": "_roleAdmin",
							"type": "address"
						},
						{
							"internalType": "address",
							"name": "_pauser",
							"type": "address"
						}
					],
					"stateMutability": "nonpayable",
					"type": "constructor"
				},
				{
					"inputs": [],
					"name": "AccessControlBadConfirmation",
					"type": "error"
				},
				{
					"inputs": [
						{
							"internalType": "address",
							"name": "account",
							"type": "address"
						},
						{
							"internalType": "bytes32",
							"name": "neededRole",
							"type": "bytes32"
						}
					],
					"name": "AccessControlUnauthorizedAccount",
					"type": "error"
				},
				{
					"anonymous": false,
					"inputs": [
						{
							"indexed": false,
							"internalType": "address",
							"name": "account",
							"type": "address"
						}
					],
					"name": "Paused",
					"type": "event"
				},
				{
					"anonymous": false,
					"inputs": [
						{
							"indexed": true,
							"internalType": "address",
							"name": "contributor",
							"type": "address"
						},
						{
							"indexed": false,
							"internalType": "string",
							"name": "newMetadataURI",
							"type": "string"
						}
					],
					"name": "ProfileUpdated",
					"type": "event"
				},
				{
					"anonymous": false,
					"inputs": [
						{
							"indexed": true,
							"internalType": "bytes32",
							"name": "role",
							"type": "bytes32"
						},
						{
							"indexed": true,
							"internalType": "bytes32",
							"name": "previousAdminRole",
							"type": "bytes32"
						},
						{
							"indexed": true,
							"internalType": "bytes32",
							"name": "newAdminRole",
							"type": "bytes32"
						}
					],
					"name": "RoleAdminChanged",
					"type": "event"
				},
				{
					"anonymous": false,
					"inputs": [
						{
							"indexed": true,
							"internalType": "bytes32",
							"name": "role",
							"type": "bytes32"
						},
						{
							"indexed": true,
							"internalType": "address",
							"name": "account",
							"type": "address"
						},
						{
							"indexed": true,
							"internalType": "address",
							"name": "sender",
							"type": "address"
						}
					],
					"name": "RoleGranted",
					"type": "event"
				},
				{
					"anonymous": false,
					"inputs": [
						{
							"indexed": true,
							"internalType": "bytes32",
							"name": "role",
							"type": "bytes32"
						},
						{
							"indexed": true,
							"internalType": "address",
							"name": "contributor",
							"type": "address"
						},
						{
							"indexed": true,
							"internalType": "address",
							"name": "grantedBy",
							"type": "address"
						}
					],
					"name": "RoleGrantedOnChain",
					"type": "event"
				},
				{
					"anonymous": false,
					"inputs": [
						{
							"indexed": true,
							"internalType": "bytes32",
							"name": "role",
							"type": "bytes32"
						},
						{
							"indexed": true,
							"internalType": "address",
							"name": "account",
							"type": "address"
						},
						{
							"indexed": true,
							"internalType": "address",
							"name": "sender",
							"type": "address"
						}
					],
					"name": "RoleRevoked",
					"type": "event"
				},
				{
					"anonymous": false,
					"inputs": [
						{
							"indexed": true,
							"internalType": "bytes32",
							"name": "role",
							"type": "bytes32"
						},
						{
							"indexed": true,
							"internalType": "address",
							"name": "contributor",
							"type": "address"
						},
						{
							"indexed": true,
							"internalType": "address",
							"name": "revokedBy",
							"type": "address"
						}
					],
					"name": "RoleRevokedOnChain",
					"type": "event"
				},
				{
					"anonymous": false,
					"inputs": [
						{
							"indexed": false,
							"internalType": "address",
							"name": "account",
							"type": "address"
						}
					],
					"name": "Unpaused",
					"type": "event"
				},
				{
					"inputs": [],
					"name": "DEFAULT_ADMIN_ROLE",
					"outputs": [
						{
							"internalType": "bytes32",
							"name": "",
							"type": "bytes32"
						}
					],
					"stateMutability": "view",
					"type": "function"
				},
				{
					"inputs": [],
					"name": "PAUSER_ROLE",
					"outputs": [
						{
							"internalType": "bytes32",
							"name": "",
							"type": "bytes32"
						}
					],
					"stateMutability": "view",
					"type": "function"
				},
				{
					"inputs": [],
					"name": "ROLE_ADMIN",
					"outputs": [
						{
							"internalType": "bytes32",
							"name": "",
							"type": "bytes32"
						}
					],
					"stateMutability": "view",
					"type": "function"
				},
				{
					"inputs": [
						{
							"internalType": "address",
							"name": "_contributor",
							"type": "address"
						}
					],
					"name": "getProfile",
					"outputs": [
						{
							"components": [
								{
									"internalType": "string",
									"name": "metadataURI",
									"type": "string"
								},
								{
									"internalType": "bool",
									"name": "isRegistered",
									"type": "bool"
								}
							],
							"internalType": "struct ContributorRegistry.Profile",
							"name": "",
							"type": "tuple"
						}
					],
					"stateMutability": "view",
					"type": "function"
				},
				{
					"inputs": [
						{
							"internalType": "bytes32",
							"name": "role",
							"type": "bytes32"
						}
					],
					"name": "getRoleAdmin",
					"outputs": [
						{
							"internalType": "bytes32",
							"name": "",
							"type": "bytes32"
						}
					],
					"stateMutability": "view",
					"type": "function"
				},
				{
					"inputs": [
						{
							"internalType": "bytes32",
							"name": "_role",
							"type": "bytes32"
						},
						{
							"internalType": "address",
							"name": "_contributor",
							"type": "address"
						}
					],
					"name": "grantRole",
					"outputs": [],
					"stateMutability": "nonpayable",
					"type": "function"
				},
				{
					"inputs": [
						{
							"internalType": "bytes32",
							"name": "_role",
							"type": "bytes32"
						},
						{
							"internalType": "address",
							"name": "_contributor",
							"type": "address"
						}
					],
					"name": "hasRole",
					"outputs": [
						{
							"internalType": "bool",
							"name": "",
							"type": "bool"
						}
					],
					"stateMutability": "view",
					"type": "function"
				},
				{
					"inputs": [],
					"name": "pause",
					"outputs": [],
					"stateMutability": "nonpayable",
					"type": "function"
				},
				{
					"inputs": [],
					"name": "paused",
					"outputs": [
						{
							"internalType": "bool",
							"name": "",
							"type": "bool"
						}
					],
					"stateMutability": "view",
					"type": "function"
				},
				{
					"inputs": [
						{
							"internalType": "bytes32",
							"name": "role",
							"type": "bytes32"
						},
						{
							"internalType": "address",
							"name": "callerConfirmation",
							"type": "address"
						}
					],
					"name": "renounceRole",
					"outputs": [],
					"stateMutability": "nonpayable",
					"type": "function"
				},
				{
					"inputs": [
						{
							"internalType": "bytes32",
							"name": "_role",
							"type": "bytes32"
						},
						{
							"internalType": "address",
							"name": "_contributor",
							"type": "address"
						}
					],
					"name": "revokeRole",
					"outputs": [],
					"stateMutability": "nonpayable",
					"type": "function"
				},
				{
					"inputs": [
						{
							"internalType": "string",
							"name": "_metadataURI",
							"type": "string"
						}
					],
					"name": "setProfileURI",
					"outputs": [],
					"stateMutability": "nonpayable",
					"type": "function"
				},
				{
					"inputs": [
						{
							"internalType": "bytes4",
							"name": "interfaceId",
							"type": "bytes4"
						}
					],
					"name": "supportsInterface",
					"outputs": [
						{
							"internalType": "bool",
							"name": "",
							"type": "bool"
						}
					],
					"stateMutability": "view",
					"type": "function"
				},
				{
					"inputs": [],
					"name": "unpause",
					"outputs": [],
					"stateMutability": "nonpayable",
					"type": "function"
				}
			],
			"devdoc": {
				"author": "Your Name/Company",
				"details": "This contract uses AccessControl for administrative functions and is Pausable. - DEFAULT_ADMIN_ROLE: The ultimate authority, can grant/revoke other admin roles. - ROLE_ADMIN: Can grant/revoke ecosystem roles (e.g., ANNOTATOR) to contributors. - PAUSER_ROLE: Can pause and unpause the contract's state-changing functions.",
				"errors": {
					"AccessControlBadConfirmation()": [
						{
							"details": "The caller of a function is not the expected one. NOTE: Don't confuse with {AccessControlUnauthorizedAccount}."
						}
					],
					"AccessControlUnauthorizedAccount(address,bytes32)": [
						{
							"details": "The `account` is missing a role."
						}
					]
				},
				"events": {
					"Paused(address)": {
						"details": "Emitted when the pause is triggered by `account`."
					},
					"RoleAdminChanged(bytes32,bytes32,bytes32)": {
						"details": "Emitted when `newAdminRole` is set as ``role``'s admin role, replacing `previousAdminRole` `DEFAULT_ADMIN_ROLE` is the starting admin for all roles, despite {RoleAdminChanged} not being emitted to signal this."
					},
					"RoleGranted(bytes32,address,address)": {
						"details": "Emitted when `account` is granted `role`. `sender` is the account that originated the contract call. This account bears the admin role (for the granted role). Expected in cases where the role was granted using the internal {AccessControl-_grantRole}."
					},
					"RoleRevoked(bytes32,address,address)": {
						"details": "Emitted when `account` is revoked `role`. `sender` is the account that originated the contract call:   - if using `revokeRole`, it is the admin role bearer   - if using `renounceRole`, it is the role bearer (i.e. `account`)"
					},
					"Unpaused(address)": {
						"details": "Emitted when the pause is lifted by `account`."
					}
				},
				"kind": "dev",
				"methods": {
					"constructor": {
						"params": {
							"_defaultAdmin": "The address to receive the DEFAULT_ADMIN_ROLE.",
							"_pauser": "The address for the initial PAUSER_ROLE.",
							"_roleAdmin": "The address for the initial ROLE_ADMIN."
						}
					},
					"getProfile(address)": {
						"params": {
							"_contributor": "The address of the contributor."
						},
						"returns": {
							"_0": "The Profile struct containing the metadataURI and registration status."
						}
					},
					"getRoleAdmin(bytes32)": {
						"details": "Returns the admin role that controls `role`. See {grantRole} and {revokeRole}. To change a role's admin, use {_setRoleAdmin}."
					},
					"grantRole(bytes32,address)": {
						"details": "Only callable by accounts with ROLE_ADMIN.",
						"params": {
							"_contributor": "The address of the contributor to receive the role.",
							"_role": "The role to grant (e.g., keccak256(\"ANNOTATOR_ROLE\"))."
						}
					},
					"hasRole(bytes32,address)": {
						"params": {
							"_contributor": "The address of the contributor.",
							"_role": "The role to check."
						},
						"returns": {
							"_0": "True if the contributor has the role, false otherwise."
						}
					},
					"pause()": {
						"details": "Only callable by accounts with PAUSER_ROLE."
					},
					"paused()": {
						"details": "Returns true if the contract is paused, and false otherwise."
					},
					"renounceRole(bytes32,address)": {
						"details": "Revokes `role` from the calling account. Roles are often managed via {grantRole} and {revokeRole}: this function's purpose is to provide a mechanism for accounts to lose their privileges if they are compromised (such as when a trusted device is misplaced). If the calling account had been revoked `role`, emits a {RoleRevoked} event. Requirements: - the caller must be `callerConfirmation`. May emit a {RoleRevoked} event."
					},
					"revokeRole(bytes32,address)": {
						"details": "Only callable by accounts with ROLE_ADMIN.",
						"params": {
							"_contributor": "The address of the contributor losing the role.",
							"_role": "The role to revoke."
						}
					},
					"setProfileURI(string)": {
						"params": {
							"_metadataURI": "The URI pointing to the contributor's off-chain metadata."
						}
					},
					"supportsInterface(bytes4)": {
						"details": "See {IERC165-supportsInterface}."
					},
					"unpause()": {
						"details": "Only callable by accounts with PAUSER_ROLE."
					}
				},
				"title": "ContributorRegistry",
				"version": 1
			},
			"evm": {
				"assembly": "    /* \"contracts/ContributorRegistry.sol\":724:5815  contract ContributorRegistry is Context, AccessControl, Pausable {... */\n  mstore(0x40, 0x80)\n    /* \"contracts/ContributorRegistry.sol\":2175:2433  constructor(... */\n  callvalue\n  dup1\n  iszero\n  tag_1\n  jumpi\n  0x00\n  dup1\n  revert\ntag_1:\n  pop\n  mload(0x40)\n  sub(codesize, bytecodeSize)\n  dup1\n  bytecodeSize\n  dup4\n  codecopy\n  dup2\n  dup2\n  add\n  0x40\n  mstore\n  dup2\n  add\n  swap1\n  tag_2\n  swap2\n  swap1\n  tag_3\n  jump\t// in\ntag_2:\n    /* \"@openzeppelin/contracts/security/Pausable.sol\":1006:1011  false */\n  0x00\n    /* \"@openzeppelin/contracts/security/Pausable.sol\":996:1003  _paused */\n  0x01\n  0x00\n    /* \"@openzeppelin/contracts/security/Pausable.sol\":996:1011  _paused = false */\n  0x0100\n  exp\n  dup2\n  sload\n  dup2\n  0xff\n  mul\n  not\n  and\n  swap1\n  dup4\n  iszero\n  iszero\n  mul\n  or\n  swap1\n  sstore\n  pop\n    /* \"contracts/ContributorRegistry.sol\":2292:2337  _grantRole(DEFAULT_ADMIN_ROLE, _defaultAdmin) */\n  tag_8\n    /* \"@openzeppelin/contracts/access/AccessControl.sol\":2241:2245  0x00 */\n  0x00\n    /* \"contracts/ContributorRegistry.sol\":2303:2321  DEFAULT_ADMIN_ROLE */\n  dup1\n  shl\n    /* \"contracts/ContributorRegistry.sol\":2323:2336  _defaultAdmin */\n  dup5\n    /* \"contracts/ContributorRegistry.sol\":2292:2302  _grantRole */\n  shl(0x20, tag_9)\n    /* \"contracts/ContributorRegistry.sol\":2292:2337  _grantRole(DEFAULT_ADMIN_ROLE, _defaultAdmin) */\n  0x20\n  shr\n  jump\t// in\ntag_8:\n  pop\n    /* \"contracts/ContributorRegistry.sol\":2348:2382  _grantRole(ROLE_ADMIN, _roleAdmin) */\n  tag_10\n    /* \"contracts/ContributorRegistry.sol\":857:880  keccak256(\"ROLE_ADMIN\") */\n  0x2172861495e7b85edac73e3cd5fbb42dd675baadf627720e687bcfdaca025096\n    /* \"contracts/ContributorRegistry.sol\":2371:2381  _roleAdmin */\n  dup4\n    /* \"contracts/ContributorRegistry.sol\":2348:2358  _grantRole */\n  shl(0x20, tag_9)\n    /* \"contracts/ContributorRegistry.sol\":2348:2382  _grantRole(ROLE_ADMIN, _roleAdmin) */\n  0x20\n  shr\n  jump\t// in\ntag_10:\n  pop\n    /* \"contracts/ContributorRegistry.sol\":2393:2425  _grantRole(PAUSER_ROLE, _pauser) */\n  tag_11\n    /* \"contracts/ContributorRegistry.sol\":925:949  keccak256(\"PAUSER_ROLE\") */\n  0x65d7a28e3265b37a6474929f336521b332c1681b933f6cb9f3376673440d862a\n    /* \"contracts/ContributorRegistry.sol\":2417:2424  _pauser */\n  dup3\n    /* \"contracts/ContributorRegistry.sol\":2393:2403  _grantRole */\n  shl(0x20, tag_9)\n    /* \"contracts/ContributorRegistry.sol\":2393:2425  _grantRole(PAUSER_ROLE, _pauser) */\n  0x20\n  shr\n  jump\t// in\ntag_11:\n  pop\n    /* \"contracts/ContributorRegistry.sol\":2175:2433  constructor(... */\n  pop\n  pop\n  pop\n    /* \"contracts/ContributorRegistry.sol\":724:5815  contract ContributorRegistry is Context, AccessControl, Pausable {... */\n  jump(tag_12)\n    /* \"@openzeppelin/contracts/access/AccessControl.sol\":6155:6471  function _grantRole(bytes32 role, address account) internal virtual returns (bool) {... */\ntag_9:\n    /* \"@openzeppelin/contracts/access/AccessControl.sol\":6232:6236  bool */\n  0x00\n    /* \"@openzeppelin/contracts/access/AccessControl.sol\":6253:6275  hasRole(role, account) */\n  tag_14\n    /* \"@openzeppelin/contracts/access/AccessControl.sol\":6261:6265  role */\n  dup4\n    /* \"@openzeppelin/contracts/access/AccessControl.sol\":6267:6274  account */\n  dup4\n    /* \"@openzeppelin/contracts/access/AccessControl.sol\":6253:6260  hasRole */\n  shl(0x20, tag_15)\n    /* \"@openzeppelin/contracts/access/AccessControl.sol\":6253:6275  hasRole(role, account) */\n  0x20\n  shr\n  jump\t// in\ntag_14:\n    /* \"@openzeppelin/contracts/access/AccessControl.sol\":6248:6465  if (!hasRole(role, account)) {... */\n  tag_16\n  jumpi\n    /* \"@openzeppelin/contracts/access/AccessControl.sol\":6323:6327  true */\n  0x01\n    /* \"@openzeppelin/contracts/access/AccessControl.sol\":6291:6297  _roles */\n  0x00\n    /* \"@openzeppelin/contracts/access/AccessControl.sol\":6291:6303  _roles[role] */\n  dup1\n    /* \"@openzeppelin/contracts/access/AccessControl.sol\":6298:6302  role */\n  dup6\n    /* \"@openzeppelin/contracts/access/AccessControl.sol\":6291:6303  _roles[role] */\n  dup2\n  mstore\n  0x20\n  add\n  swap1\n  dup2\n  mstore\n  0x20\n  add\n  0x00\n  keccak256\n    /* \"@openzeppelin/contracts/access/AccessControl.sol\":6291:6311  _roles[role].hasRole */\n  0x00\n  add\n    /* \"@openzeppelin/contracts/access/AccessControl.sol\":6291:6320  _roles[role].hasRole[account] */\n  0x00\n    /* \"@openzeppelin/contracts/access/AccessControl.sol\":6312:6319  account */\n  dup5\n    /* \"@openzeppelin/contracts/access/AccessControl.sol\":6291:6320  _roles[role].hasRole[account] */\n  0xffffffffffffffffffffffffffffffffffffffff\n  and\n  0xffffffffffffffffffffffffffffffffffffffff\n  and\n  dup2\n  mstore\n  0x20\n  add\n  swap1\n  dup2\n  mstore\n  0x20\n  add\n  0x00\n  keccak256\n  0x00\n    /* \"@openzeppelin/contracts/access/AccessControl.sol\":6291:6327  _roles[role].hasRole[account] = true */\n  0x0100\n  exp\n  dup2\n  sload\n  dup2\n  0xff\n  mul\n  not\n  and\n  swap1\n  dup4\n  iszero\n  iszero\n  mul\n  or\n  swap1\n  sstore\n  pop\n    /* \"@openzeppelin/contracts/access/AccessControl.sol\":6373:6385  _msgSender() */\n  tag_17\n    /* \"@openzeppelin/contracts/access/AccessControl.sol\":6373:6383  _msgSender */\n  shl(0x20, tag_18)\n    /* \"@openzeppelin/contracts/access/AccessControl.sol\":6373:6385  _msgSender() */\n  0x20\n  shr\n  jump\t// in\ntag_17:\n    /* \"@openzeppelin/contracts/access/AccessControl.sol\":6346:6386  RoleGranted(role, account, _msgSender()) */\n  0xffffffffffffffffffffffffffffffffffffffff\n  and\n    /* \"@openzeppelin/contracts/access/AccessControl.sol\":6364:6371  account */\n  dup3\n    /* \"@openzeppelin/contracts/access/AccessControl.sol\":6346:6386  RoleGranted(role, account, _msgSender()) */\n  0xffffffffffffffffffffffffffffffffffffffff\n  and\n    /* \"@openzeppelin/contracts/access/AccessControl.sol\":6358:6362  role */\n  dup5\n    /* \"@openzeppelin/contracts/access/AccessControl.sol\":6346:6386  RoleGranted(role, account, _msgSender()) */\n  0x2f8788117e7eff1d82e926ec794901d17c78024a50270940304540a733656f0d\n  mload(0x40)\n  mload(0x40)\n  dup1\n  swap2\n  sub\n  swap1\n  log4\n    /* \"@openzeppelin/contracts/access/AccessControl.sol\":6407:6411  true */\n  0x01\n    /* \"@openzeppelin/contracts/access/AccessControl.sol\":6400:6411  return true */\n  swap1\n  pop\n  jump(tag_13)\n    /* \"@openzeppelin/contracts/access/AccessControl.sol\":6248:6465  if (!hasRole(role, account)) {... */\ntag_16:\n    /* \"@openzeppelin/contracts/access/AccessControl.sol\":6449:6454  false */\n  0x00\n    /* \"@openzeppelin/contracts/access/AccessControl.sol\":6442:6454  return false */\n  swap1\n  pop\n    /* \"@openzeppelin/contracts/access/AccessControl.sol\":6155:6471  function _grantRole(bytes32 role, address account) internal virtual returns (bool) {... */\ntag_13:\n  swap3\n  swap2\n  pop\n  pop\n  jump\t// out\n    /* \"contracts/ContributorRegistry.sol\":5393:5544  function hasRole(bytes32 _role, address _contributor) public view virtual override returns (bool) {... */\ntag_15:\n    /* \"contracts/ContributorRegistry.sol\":5485:5489  bool */\n  0x00\n    /* \"contracts/ContributorRegistry.sol\":5509:5515  _roles */\n  0x03\n    /* \"contracts/ContributorRegistry.sol\":5509:5522  _roles[_role] */\n  0x00\n    /* \"contracts/ContributorRegistry.sol\":5516:5521  _role */\n  dup5\n    /* \"contracts/ContributorRegistry.sol\":5509:5522  _roles[_role] */\n  dup2\n  mstore\n  0x20\n  add\n  swap1\n  dup2\n  mstore\n  0x20\n  add\n  0x00\n  keccak256\n    /* \"contracts/ContributorRegistry.sol\":5509:5536  _roles[_role][_contributor] */\n  0x00\n    /* \"contracts/ContributorRegistry.sol\":5523:5535  _contributor */\n  dup4\n    /* \"contracts/ContributorRegistry.sol\":5509:5536  _roles[_role][_contributor] */\n  0xffffffffffffffffffffffffffffffffffffffff\n  and\n  0xffffffffffffffffffffffffffffffffffffffff\n  and\n  dup2\n  mstore\n  0x20\n  add\n  swap1\n  dup2\n  mstore\n  0x20\n  add\n  0x00\n  keccak256\n  0x00\n  swap1\n  sload\n  swap1\n  0x0100\n  exp\n  swap1\n  div\n  0xff\n  and\n    /* \"contracts/ContributorRegistry.sol\":5502:5536  return _roles[_role][_contributor] */\n  swap1\n  pop\n    /* \"contracts/ContributorRegistry.sol\":5393:5544  function hasRole(bytes32 _role, address _contributor) public view virtual override returns (bool) {... */\n  swap3\n  swap2\n  pop\n  pop\n  jump\t// out\n    /* \"@openzeppelin/contracts/utils/Context.sol\":656:752  function _msgSender() internal view virtual returns (address) {... */\ntag_18:\n    /* \"@openzeppelin/contracts/utils/Context.sol\":709:716  address */\n  0x00\n    /* \"@openzeppelin/contracts/utils/Context.sol\":735:745  msg.sender */\n  caller\n    /* \"@openzeppelin/contracts/utils/Context.sol\":728:745  return msg.sender */\n  swap1\n  pop\n    /* \"@openzeppelin/contracts/utils/Context.sol\":656:752  function _msgSender() internal view virtual returns (address) {... */\n  swap1\n  jump\t// out\n    /* \"#utility.yul\":88:205   */\ntag_23:\n    /* \"#utility.yul\":197:198   */\n  0x00\n    /* \"#utility.yul\":194:195   */\n  dup1\n    /* \"#utility.yul\":187:199   */\n  revert\n    /* \"#utility.yul\":334:460   */\ntag_25:\n    /* \"#utility.yul\":371:378   */\n  0x00\n    /* \"#utility.yul\":411:453   */\n  0xffffffffffffffffffffffffffffffffffffffff\n    /* \"#utility.yul\":404:409   */\n  dup3\n    /* \"#utility.yul\":400:454   */\n  and\n    /* \"#utility.yul\":389:454   */\n  swap1\n  pop\n    /* \"#utility.yul\":334:460   */\n  swap2\n  swap1\n  pop\n  jump\t// out\n    /* \"#utility.yul\":466:562   */\ntag_26:\n    /* \"#utility.yul\":503:510   */\n  0x00\n    /* \"#utility.yul\":532:556   */\n  tag_35\n    /* \"#utility.yul\":550:555   */\n  dup3\n    /* \"#utility.yul\":532:556   */\n  tag_25\n  jump\t// in\ntag_35:\n    /* \"#utility.yul\":521:556   */\n  swap1\n  pop\n    /* \"#utility.yul\":466:562   */\n  swap2\n  swap1\n  pop\n  jump\t// out\n    /* \"#utility.yul\":568:690   */\ntag_27:\n    /* \"#utility.yul\":641:665   */\n  tag_37\n    /* \"#utility.yul\":659:664   */\n  dup2\n    /* \"#utility.yul\":641:665   */\n  tag_26\n  jump\t// in\ntag_37:\n    /* \"#utility.yul\":634:639   */\n  dup2\n    /* \"#utility.yul\":631:666   */\n  eq\n    /* \"#utility.yul\":621:684   */\n  tag_38\n  jumpi\n    /* \"#utility.yul\":680:681   */\n  0x00\n    /* \"#utility.yul\":677:678   */\n  dup1\n    /* \"#utility.yul\":670:682   */\n  revert\n    /* \"#utility.yul\":621:684   */\ntag_38:\n    /* \"#utility.yul\":568:690   */\n  pop\n  jump\t// out\n    /* \"#utility.yul\":696:839   */\ntag_28:\n    /* \"#utility.yul\":753:758   */\n  0x00\n    /* \"#utility.yul\":784:790   */\n  dup2\n    /* \"#utility.yul\":778:791   */\n  mload\n    /* \"#utility.yul\":769:791   */\n  swap1\n  pop\n    /* \"#utility.yul\":800:833   */\n  tag_40\n    /* \"#utility.yul\":827:832   */\n  dup2\n    /* \"#utility.yul\":800:833   */\n  tag_27\n  jump\t// in\ntag_40:\n    /* \"#utility.yul\":696:839   */\n  swap3\n  swap2\n  pop\n  pop\n  jump\t// out\n    /* \"#utility.yul\":845:1508   */\ntag_3:\n    /* \"#utility.yul\":933:939   */\n  0x00\n    /* \"#utility.yul\":941:947   */\n  dup1\n    /* \"#utility.yul\":949:955   */\n  0x00\n    /* \"#utility.yul\":998:1000   */\n  0x60\n    /* \"#utility.yul\":986:995   */\n  dup5\n    /* \"#utility.yul\":977:984   */\n  dup7\n    /* \"#utility.yul\":973:996   */\n  sub\n    /* \"#utility.yul\":969:1001   */\n  slt\n    /* \"#utility.yul\":966:1085   */\n  iszero\n  tag_42\n  jumpi\n    /* \"#utility.yul\":1004:1083   */\n  tag_43\n  tag_23\n  jump\t// in\ntag_43:\n    /* \"#utility.yul\":966:1085   */\ntag_42:\n    /* \"#utility.yul\":1124:1125   */\n  0x00\n    /* \"#utility.yul\":1149:1213   */\n  tag_44\n    /* \"#utility.yul\":1205:1212   */\n  dup7\n    /* \"#utility.yul\":1196:1202   */\n  dup3\n    /* \"#utility.yul\":1185:1194   */\n  dup8\n    /* \"#utility.yul\":1181:1203   */\n  add\n    /* \"#utility.yul\":1149:1213   */\n  tag_28\n  jump\t// in\ntag_44:\n    /* \"#utility.yul\":1139:1213   */\n  swap4\n  pop\n    /* \"#utility.yul\":1095:1223   */\n  pop\n    /* \"#utility.yul\":1262:1264   */\n  0x20\n    /* \"#utility.yul\":1288:1352   */\n  tag_45\n    /* \"#utility.yul\":1344:1351   */\n  dup7\n    /* \"#utility.yul\":1335:1341   */\n  dup3\n    /* \"#utility.yul\":1324:1333   */\n  dup8\n    /* \"#utility.yul\":1320:1342   */\n  add\n    /* \"#utility.yul\":1288:1352   */\n  tag_28\n  jump\t// in\ntag_45:\n    /* \"#utility.yul\":1278:1352   */\n  swap3\n  pop\n    /* \"#utility.yul\":1233:1362   */\n  pop\n    /* \"#utility.yul\":1401:1403   */\n  0x40\n    /* \"#utility.yul\":1427:1491   */\n  tag_46\n    /* \"#utility.yul\":1483:1490   */\n  dup7\n    /* \"#utility.yul\":1474:1480   */\n  dup3\n    /* \"#utility.yul\":1463:1472   */\n  dup8\n    /* \"#utility.yul\":1459:1481   */\n  add\n    /* \"#utility.yul\":1427:1491   */\n  tag_28\n  jump\t// in\ntag_46:\n    /* \"#utility.yul\":1417:1491   */\n  swap2\n  pop\n    /* \"#utility.yul\":1372:1501   */\n  pop\n    /* \"#utility.yul\":845:1508   */\n  swap3\n  pop\n  swap3\n  pop\n  swap3\n  jump\t// out\n    /* \"contracts/ContributorRegistry.sol\":724:5815  contract ContributorRegistry is Context, AccessControl, Pausable {... */\ntag_12:\n  dataSize(sub_0)\n  dup1\n  dataOffset(sub_0)\n  0x00\n  codecopy\n  0x00\n  return\nstop\n\nsub_0: assembly {\n        /* \"contracts/ContributorRegistry.sol\":724:5815  contract ContributorRegistry is Context, AccessControl, Pausable {... */\n      mstore(0x40, 0x80)\n      callvalue\n      dup1\n      iszero\n      tag_1\n      jumpi\n      0x00\n      dup1\n      revert\n    tag_1:\n      pop\n      jumpi(tag_2, lt(calldatasize, 0x04))\n      shr(0xe0, calldataload(0x00))\n      dup1\n      0x786d6b97\n      gt\n      tag_17\n      jumpi\n      dup1\n      0xa217fddf\n      gt\n      tag_18\n      jumpi\n      dup1\n      0xa217fddf\n      eq\n      tag_13\n      jumpi\n      dup1\n      0xd391014b\n      eq\n      tag_14\n      jumpi\n      dup1\n      0xd547741f\n      eq\n      tag_15\n      jumpi\n      dup1\n      0xe63ab1e9\n      eq\n      tag_16\n      jumpi\n      jump(tag_2)\n    tag_18:\n      dup1\n      0x786d6b97\n      eq\n      tag_10\n      jumpi\n      dup1\n      0x8456cb59\n      eq\n      tag_11\n      jumpi\n      dup1\n      0x91d14854\n      eq\n      tag_12\n      jumpi\n      jump(tag_2)\n    tag_17:\n      dup1\n      0x2f2ff15d\n      gt\n      tag_19\n      jumpi\n      dup1\n      0x2f2ff15d\n      eq\n      tag_6\n      jumpi\n      dup1\n      0x36568abe\n      eq\n      tag_7\n      jumpi\n      dup1\n      0x3f4ba83a\n      eq\n      tag_8\n      jumpi\n      dup1\n      0x5c975abb\n      eq\n      tag_9\n      jumpi\n      jump(tag_2)\n    tag_19:\n      dup1\n      0x01ffc9a7\n      eq\n      tag_3\n      jumpi\n      dup1\n      0x0f53a470\n      eq\n      tag_4\n      jumpi\n      dup1\n      0x248a9ca3\n      eq\n      tag_5\n      jumpi\n    tag_2:\n      0x00\n      dup1\n      revert\n        /* \"contracts/ContributorRegistry.sol\":5644:5812  function supportsInterface(bytes4 interfaceId) public view virtual override(AccessControl) returns (bool) {... */\n    tag_3:\n      tag_20\n      0x04\n      dup1\n      calldatasize\n      sub\n      dup2\n      add\n      swap1\n      tag_21\n      swap2\n      swap1\n      tag_22\n      jump\t// in\n    tag_21:\n      tag_23\n      jump\t// in\n    tag_20:\n      mload(0x40)\n      tag_24\n      swap2\n      swap1\n      tag_25\n      jump\t// in\n    tag_24:\n      mload(0x40)\n      dup1\n      swap2\n      sub\n      swap1\n      return\n        /* \"contracts/ContributorRegistry.sol\":4989:5125  function getProfile(address _contributor) public view virtual returns (Profile memory) {... */\n    tag_4:\n      tag_26\n      0x04\n      dup1\n      calldatasize\n      sub\n      dup2\n      add\n      swap1\n      tag_27\n      swap2\n      swap1\n      tag_28\n      jump\t// in\n    tag_27:\n      tag_29\n      jump\t// in\n    tag_26:\n      mload(0x40)\n      tag_30\n      swap2\n      swap1\n      tag_31\n      jump\t// in\n    tag_30:\n      mload(0x40)\n      dup1\n      swap2\n      sub\n      swap1\n      return\n        /* \"@openzeppelin/contracts/access/AccessControl.sol\":3786:3906  function getRoleAdmin(bytes32 role) public view virtual returns (bytes32) {... */\n    tag_5:\n      tag_32\n      0x04\n      dup1\n      calldatasize\n      sub\n      dup2\n      add\n      swap1\n      tag_33\n      swap2\n      swap1\n      tag_34\n      jump\t// in\n    tag_33:\n      tag_35\n      jump\t// in\n    tag_32:\n      mload(0x40)\n      tag_36\n      swap2\n      swap1\n      tag_37\n      jump\t// in\n    tag_36:\n      mload(0x40)\n      dup1\n      swap2\n      sub\n      swap1\n      return\n        /* \"contracts/ContributorRegistry.sol\":3309:3647  function grantRole(bytes32 _role, address _contributor) public virtual override onlyRole(ROLE_ADMIN) whenNotPaused {... */\n    tag_6:\n      tag_38\n      0x04\n      dup1\n      calldatasize\n      sub\n      dup2\n      add\n      swap1\n      tag_39\n      swap2\n      swap1\n      tag_40\n      jump\t// in\n    tag_39:\n      tag_41\n      jump\t// in\n    tag_38:\n      stop\n        /* \"@openzeppelin/contracts/access/AccessControl.sol\":5304:5549  function renounceRole(bytes32 role, address callerConfirmation) public virtual {... */\n    tag_7:\n      tag_42\n      0x04\n      dup1\n      calldatasize\n      sub\n      dup2\n      add\n      swap1\n      tag_43\n      swap2\n      swap1\n      tag_40\n      jump\t// in\n    tag_43:\n      tag_44\n      jump\t// in\n    tag_42:\n      stop\n        /* \"contracts/ContributorRegistry.sol\":4627:4712  function unpause() public virtual onlyRole(PAUSER_ROLE) {... */\n    tag_8:\n      tag_45\n      tag_46\n      jump\t// in\n    tag_45:\n      stop\n        /* \"@openzeppelin/contracts/security/Pausable.sol\":1615:1699  function paused() public view virtual returns (bool) {... */\n    tag_9:\n      tag_47\n      tag_48\n      jump\t// in\n    tag_47:\n      mload(0x40)\n      tag_49\n      swap2\n      swap1\n      tag_25\n      jump\t// in\n    tag_49:\n      mload(0x40)\n      dup1\n      swap2\n      sub\n      swap1\n      return\n        /* \"contracts/ContributorRegistry.sol\":2659:2978  function setProfileURI(string memory _metadataURI) public virtual whenNotPaused {... */\n    tag_10:\n      tag_50\n      0x04\n      dup1\n      calldatasize\n      sub\n      dup2\n      add\n      swap1\n      tag_51\n      swap2\n      swap1\n      tag_52\n      jump\t// in\n    tag_51:\n      tag_53\n      jump\t// in\n    tag_50:\n      stop\n        /* \"contracts/ContributorRegistry.sol\":4424:4505  function pause() public virtual onlyRole(PAUSER_ROLE) {... */\n    tag_11:\n      tag_54\n      tag_55\n      jump\t// in\n    tag_54:\n      stop\n        /* \"contracts/ContributorRegistry.sol\":5393:5544  function hasRole(bytes32 _role, address _contributor) public view virtual override returns (bool) {... */\n    tag_12:\n      tag_56\n      0x04\n      dup1\n      calldatasize\n      sub\n      dup2\n      add\n      swap1\n      tag_57\n      swap2\n      swap1\n      tag_40\n      jump\t// in\n    tag_57:\n      tag_58\n      jump\t// in\n    tag_56:\n      mload(0x40)\n      tag_59\n      swap2\n      swap1\n      tag_25\n      jump\t// in\n    tag_59:\n      mload(0x40)\n      dup1\n      swap2\n      sub\n      swap1\n      return\n        /* \"@openzeppelin/contracts/access/AccessControl.sol\":2196:2245  bytes32 public constant DEFAULT_ADMIN_ROLE = 0x00 */\n    tag_13:\n      tag_60\n      tag_61\n      jump\t// in\n    tag_60:\n      mload(0x40)\n      tag_62\n      swap2\n      swap1\n      tag_37\n      jump\t// in\n    tag_62:\n      mload(0x40)\n      dup1\n      swap2\n      sub\n      swap1\n      return\n        /* \"contracts/ContributorRegistry.sol\":820:880  bytes32 public constant ROLE_ADMIN = keccak256(\"ROLE_ADMIN\") */\n    tag_14:\n      tag_63\n      tag_64\n      jump\t// in\n    tag_63:\n      mload(0x40)\n      tag_65\n      swap2\n      swap1\n      tag_37\n      jump\t// in\n    tag_65:\n      mload(0x40)\n      dup1\n      swap2\n      sub\n      swap1\n      return\n        /* \"contracts/ContributorRegistry.sol\":3908:4251  function revokeRole(bytes32 _role, address _contributor) public virtual override onlyRole(ROLE_ADMIN) whenNotPaused {... */\n    tag_15:\n      tag_66\n      0x04\n      dup1\n      calldatasize\n      sub\n      dup2\n      add\n      swap1\n      tag_67\n      swap2\n      swap1\n      tag_40\n      jump\t// in\n    tag_67:\n      tag_68\n      jump\t// in\n    tag_66:\n      stop\n        /* \"contracts/ContributorRegistry.sol\":887:949  bytes32 public constant PAUSER_ROLE = keccak256(\"PAUSER_ROLE\") */\n    tag_16:\n      tag_69\n      tag_70\n      jump\t// in\n    tag_69:\n      mload(0x40)\n      tag_71\n      swap2\n      swap1\n      tag_37\n      jump\t// in\n    tag_71:\n      mload(0x40)\n      dup1\n      swap2\n      sub\n      swap1\n      return\n        /* \"contracts/ContributorRegistry.sol\":5644:5812  function supportsInterface(bytes4 interfaceId) public view virtual override(AccessControl) returns (bool) {... */\n    tag_23:\n        /* \"contracts/ContributorRegistry.sol\":5744:5748  bool */\n      0x00\n        /* \"contracts/ContributorRegistry.sol\":5768:5804  super.supportsInterface(interfaceId) */\n      tag_73\n        /* \"contracts/ContributorRegistry.sol\":5792:5803  interfaceId */\n      dup3\n        /* \"contracts/ContributorRegistry.sol\":5768:5791  super.supportsInterface */\n      tag_74\n        /* \"contracts/ContributorRegistry.sol\":5768:5804  super.supportsInterface(interfaceId) */\n      jump\t// in\n    tag_73:\n        /* \"contracts/ContributorRegistry.sol\":5761:5804  return super.supportsInterface(interfaceId) */\n      swap1\n      pop\n        /* \"contracts/ContributorRegistry.sol\":5644:5812  function supportsInterface(bytes4 interfaceId) public view virtual override(AccessControl) returns (bool) {... */\n      swap2\n      swap1\n      pop\n      jump\t// out\n        /* \"contracts/ContributorRegistry.sol\":4989:5125  function getProfile(address _contributor) public view virtual returns (Profile memory) {... */\n    tag_29:\n        /* \"contracts/ContributorRegistry.sol\":5060:5074  Profile memory */\n      tag_75\n      tag_76\n      jump\t// in\n    tag_75:\n        /* \"contracts/ContributorRegistry.sol\":5094:5103  _profiles */\n      0x02\n        /* \"contracts/ContributorRegistry.sol\":5094:5117  _profiles[_contributor] */\n      0x00\n        /* \"contracts/ContributorRegistry.sol\":5104:5116  _contributor */\n      dup4\n        /* \"contracts/ContributorRegistry.sol\":5094:5117  _profiles[_contributor] */\n      0xffffffffffffffffffffffffffffffffffffffff\n      and\n      0xffffffffffffffffffffffffffffffffffffffff\n      and\n      dup2\n      mstore\n      0x20\n      add\n      swap1\n      dup2\n      mstore\n      0x20\n      add\n      0x00\n      keccak256\n        /* \"contracts/ContributorRegistry.sol\":5087:5117  return _profiles[_contributor] */\n      mload(0x40)\n      dup1\n      0x40\n      add\n      0x40\n      mstore\n      swap1\n      dup2\n      0x00\n      dup3\n      add\n      dup1\n      sload\n      tag_78\n      swap1\n      tag_79\n      jump\t// in\n    tag_78:\n      dup1\n      0x1f\n      add\n      0x20\n      dup1\n      swap2\n      div\n      mul\n      0x20\n      add\n      mload(0x40)\n      swap1\n      dup2\n      add\n      0x40\n      mstore\n      dup1\n      swap3\n      swap2\n      swap1\n      dup2\n      dup2\n      mstore\n      0x20\n      add\n      dup3\n      dup1\n      sload\n      tag_80\n      swap1\n      tag_79\n      jump\t// in\n    tag_80:\n      dup1\n      iszero\n      tag_81\n      jumpi\n      dup1\n      0x1f\n      lt\n      tag_82\n      jumpi\n      0x0100\n      dup1\n      dup4\n      sload\n      div\n      mul\n      dup4\n      mstore\n      swap2\n      0x20\n      add\n      swap2\n      jump(tag_81)\n    tag_82:\n      dup3\n      add\n      swap2\n      swap1\n      0x00\n      mstore\n      keccak256(0x00, 0x20)\n      swap1\n    tag_83:\n      dup2\n      sload\n      dup2\n      mstore\n      swap1\n      0x01\n      add\n      swap1\n      0x20\n      add\n      dup1\n      dup4\n      gt\n      tag_83\n      jumpi\n      dup3\n      swap1\n      sub\n      0x1f\n      and\n      dup3\n      add\n      swap2\n    tag_81:\n      pop\n      pop\n      pop\n      pop\n      pop\n      dup2\n      mstore\n      0x20\n      add\n      0x01\n      dup3\n      add\n      0x00\n      swap1\n      sload\n      swap1\n      0x0100\n      exp\n      swap1\n      div\n      0xff\n      and\n      iszero\n      iszero\n      iszero\n      iszero\n      dup2\n      mstore\n      pop\n      pop\n      swap1\n      pop\n        /* \"contracts/ContributorRegistry.sol\":4989:5125  function getProfile(address _contributor) public view virtual returns (Profile memory) {... */\n      swap2\n      swap1\n      pop\n      jump\t// out\n        /* \"@openzeppelin/contracts/access/AccessControl.sol\":3786:3906  function getRoleAdmin(bytes32 role) public view virtual returns (bytes32) {... */\n    tag_35:\n        /* \"@openzeppelin/contracts/access/AccessControl.sol\":3851:3858  bytes32 */\n      0x00\n        /* \"@openzeppelin/contracts/access/AccessControl.sol\":3877:3883  _roles */\n      dup1\n        /* \"@openzeppelin/contracts/access/AccessControl.sol\":3877:3889  _roles[role] */\n      0x00\n        /* \"@openzeppelin/contracts/access/AccessControl.sol\":3884:3888  role */\n      dup4\n        /* \"@openzeppelin/contracts/access/AccessControl.sol\":3877:3889  _roles[role] */\n      dup2\n      mstore\n      0x20\n      add\n      swap1\n      dup2\n      mstore\n      0x20\n      add\n      0x00\n      keccak256\n        /* \"@openzeppelin/contracts/access/AccessControl.sol\":3877:3899  _roles[role].adminRole */\n      0x01\n      add\n      sload\n        /* \"@openzeppelin/contracts/access/AccessControl.sol\":3870:3899  return _roles[role].adminRole */\n      swap1\n      pop\n        /* \"@openzeppelin/contracts/access/AccessControl.sol\":3786:3906  function getRoleAdmin(bytes32 role) public view virtual returns (bytes32) {... */\n      swap2\n      swap1\n      pop\n      jump\t// out\n        /* \"contracts/ContributorRegistry.sol\":3309:3647  function grantRole(bytes32 _role, address _contributor) public virtual override onlyRole(ROLE_ADMIN) whenNotPaused {... */\n    tag_41:\n        /* \"contracts/ContributorRegistry.sol\":857:880  keccak256(\"ROLE_ADMIN\") */\n      0x2172861495e7b85edac73e3cd5fbb42dd675baadf627720e687bcfdaca025096\n        /* \"@openzeppelin/contracts/access/AccessControl.sol\":2473:2489  _checkRole(role) */\n      tag_86\n        /* \"@openzeppelin/contracts/access/AccessControl.sol\":2484:2488  role */\n      dup2\n        /* \"@openzeppelin/contracts/access/AccessControl.sol\":2473:2483  _checkRole */\n      tag_87\n        /* \"@openzeppelin/contracts/access/AccessControl.sol\":2473:2489  _checkRole(role) */\n      jump\t// in\n    tag_86:\n        /* \"@openzeppelin/contracts/security/Pausable.sol\":1239:1258  _requireNotPaused() */\n      tag_89\n        /* \"@openzeppelin/contracts/security/Pausable.sol\":1239:1256  _requireNotPaused */\n      tag_90\n        /* \"@openzeppelin/contracts/security/Pausable.sol\":1239:1258  _requireNotPaused() */\n      jump\t// in\n    tag_89:\n        /* \"contracts/ContributorRegistry.sol\":3467:3468  0 */\n      0x00\n        /* \"contracts/ContributorRegistry.sol\":3443:3469  _contributor != address(0) */\n      0xffffffffffffffffffffffffffffffffffffffff\n      and\n        /* \"contracts/ContributorRegistry.sol\":3443:3455  _contributor */\n      dup3\n        /* \"contracts/ContributorRegistry.sol\":3443:3469  _contributor != address(0) */\n      0xffffffffffffffffffffffffffffffffffffffff\n      and\n      sub\n        /* \"contracts/ContributorRegistry.sol\":3435:3525  require(_contributor != address(0), \"ContributorRegistry: Grant role to the zero address\") */\n      tag_92\n      jumpi\n      mload(0x40)\n      0x08c379a000000000000000000000000000000000000000000000000000000000\n      dup2\n      mstore\n      0x04\n      add\n      tag_93\n      swap1\n      tag_94\n      jump\t// in\n    tag_93:\n      mload(0x40)\n      dup1\n      swap2\n      sub\n      swap1\n      revert\n    tag_92:\n        /* \"contracts/ContributorRegistry.sol\":3566:3570  true */\n      0x01\n        /* \"contracts/ContributorRegistry.sol\":3536:3542  _roles */\n      0x03\n        /* \"contracts/ContributorRegistry.sol\":3536:3549  _roles[_role] */\n      0x00\n        /* \"contracts/ContributorRegistry.sol\":3543:3548  _role */\n      dup6\n        /* \"contracts/ContributorRegistry.sol\":3536:3549  _roles[_role] */\n      dup2\n      mstore\n      0x20\n      add\n      swap1\n      dup2\n      mstore\n      0x20\n      add\n      0x00\n      keccak256\n        /* \"contracts/ContributorRegistry.sol\":3536:3563  _roles[_role][_contributor] */\n      0x00\n        /* \"contracts/ContributorRegistry.sol\":3550:3562  _contributor */\n      dup5\n        /* \"contracts/ContributorRegistry.sol\":3536:3563  _roles[_role][_contributor] */\n      0xffffffffffffffffffffffffffffffffffffffff\n      and\n      0xffffffffffffffffffffffffffffffffffffffff\n      and\n      dup2\n      mstore\n      0x20\n      add\n      swap1\n      dup2\n      mstore\n      0x20\n      add\n      0x00\n      keccak256\n      0x00\n        /* \"contracts/ContributorRegistry.sol\":3536:3570  _roles[_role][_contributor] = true */\n      0x0100\n      exp\n      dup2\n      sload\n      dup2\n      0xff\n      mul\n      not\n      and\n      swap1\n      dup4\n      iszero\n      iszero\n      mul\n      or\n      swap1\n      sstore\n      pop\n        /* \"contracts/ContributorRegistry.sol\":3626:3638  _msgSender() */\n      tag_95\n        /* \"contracts/ContributorRegistry.sol\":3626:3636  _msgSender */\n      tag_96\n        /* \"contracts/ContributorRegistry.sol\":3626:3638  _msgSender() */\n      jump\t// in\n    tag_95:\n        /* \"contracts/ContributorRegistry.sol\":3586:3639  RoleGrantedOnChain(_role, _contributor, _msgSender()) */\n      0xffffffffffffffffffffffffffffffffffffffff\n      and\n        /* \"contracts/ContributorRegistry.sol\":3612:3624  _contributor */\n      dup3\n        /* \"contracts/ContributorRegistry.sol\":3586:3639  RoleGrantedOnChain(_role, _contributor, _msgSender()) */\n      0xffffffffffffffffffffffffffffffffffffffff\n      and\n        /* \"contracts/ContributorRegistry.sol\":3605:3610  _role */\n      dup5\n        /* \"contracts/ContributorRegistry.sol\":3586:3639  RoleGrantedOnChain(_role, _contributor, _msgSender()) */\n      0x2eaa2f58f6ddc257d2d884fe86dac4f0ba0574682e081893bbdded663a45ebe0\n      mload(0x40)\n      mload(0x40)\n      dup1\n      swap2\n      sub\n      swap1\n      log4\n        /* \"contracts/ContributorRegistry.sol\":3309:3647  function grantRole(bytes32 _role, address _contributor) public virtual override onlyRole(ROLE_ADMIN) whenNotPaused {... */\n      pop\n      pop\n      pop\n      jump\t// out\n        /* \"@openzeppelin/contracts/access/AccessControl.sol\":5304:5549  function renounceRole(bytes32 role, address callerConfirmation) public virtual {... */\n    tag_44:\n        /* \"@openzeppelin/contracts/access/AccessControl.sol\":5419:5431  _msgSender() */\n      tag_98\n        /* \"@openzeppelin/contracts/access/AccessControl.sol\":5419:5429  _msgSender */\n      tag_96\n        /* \"@openzeppelin/contracts/access/AccessControl.sol\":5419:5431  _msgSender() */\n      jump\t// in\n    tag_98:\n        /* \"@openzeppelin/contracts/access/AccessControl.sol\":5397:5431  callerConfirmation != _msgSender() */\n      0xffffffffffffffffffffffffffffffffffffffff\n      and\n        /* \"@openzeppelin/contracts/access/AccessControl.sol\":5397:5415  callerConfirmation */\n      dup2\n        /* \"@openzeppelin/contracts/access/AccessControl.sol\":5397:5431  callerConfirmation != _msgSender() */\n      0xffffffffffffffffffffffffffffffffffffffff\n      and\n      eq\n        /* \"@openzeppelin/contracts/access/AccessControl.sol\":5393:5495  if (callerConfirmation != _msgSender()) {... */\n      tag_99\n      jumpi\n        /* \"@openzeppelin/contracts/access/AccessControl.sol\":5454:5484  AccessControlBadConfirmation() */\n      mload(0x40)\n      0x6697b23200000000000000000000000000000000000000000000000000000000\n      dup2\n      mstore\n      0x04\n      add\n      mload(0x40)\n      dup1\n      swap2\n      sub\n      swap1\n      revert\n        /* \"@openzeppelin/contracts/access/AccessControl.sol\":5393:5495  if (callerConfirmation != _msgSender()) {... */\n    tag_99:\n        /* \"@openzeppelin/contracts/access/AccessControl.sol\":5505:5542  _revokeRole(role, callerConfirmation) */\n      tag_100\n        /* \"@openzeppelin/contracts/access/AccessControl.sol\":5517:5521  role */\n      dup3\n        /* \"@openzeppelin/contracts/access/AccessControl.sol\":5523:5541  callerConfirmation */\n      dup3\n        /* \"@openzeppelin/contracts/access/AccessControl.sol\":5505:5516  _revokeRole */\n      tag_101\n        /* \"@openzeppelin/contracts/access/AccessControl.sol\":5505:5542  _revokeRole(role, callerConfirmation) */\n      jump\t// in\n    tag_100:\n      pop\n        /* \"@openzeppelin/contracts/access/AccessControl.sol\":5304:5549  function renounceRole(bytes32 role, address callerConfirmation) public virtual {... */\n      pop\n      pop\n      jump\t// out\n        /* \"contracts/ContributorRegistry.sol\":4627:4712  function unpause() public virtual onlyRole(PAUSER_ROLE) {... */\n    tag_46:\n        /* \"contracts/ContributorRegistry.sol\":925:949  keccak256(\"PAUSER_ROLE\") */\n      0x65d7a28e3265b37a6474929f336521b332c1681b933f6cb9f3376673440d862a\n        /* \"@openzeppelin/contracts/access/AccessControl.sol\":2473:2489  _checkRole(role) */\n      tag_103\n        /* \"@openzeppelin/contracts/access/AccessControl.sol\":2484:2488  role */\n      dup2\n        /* \"@openzeppelin/contracts/access/AccessControl.sol\":2473:2483  _checkRole */\n      tag_87\n        /* \"@openzeppelin/contracts/access/AccessControl.sol\":2473:2489  _checkRole(role) */\n      jump\t// in\n    tag_103:\n        /* \"contracts/ContributorRegistry.sol\":4694:4704  _unpause() */\n      tag_105\n        /* \"contracts/ContributorRegistry.sol\":4694:4702  _unpause */\n      tag_106\n        /* \"contracts/ContributorRegistry.sol\":4694:4704  _unpause() */\n      jump\t// in\n    tag_105:\n        /* \"contracts/ContributorRegistry.sol\":4627:4712  function unpause() public virtual onlyRole(PAUSER_ROLE) {... */\n      pop\n      jump\t// out\n        /* \"@openzeppelin/contracts/security/Pausable.sol\":1615:1699  function paused() public view virtual returns (bool) {... */\n    tag_48:\n        /* \"@openzeppelin/contracts/security/Pausable.sol\":1662:1666  bool */\n      0x00\n        /* \"@openzeppelin/contracts/security/Pausable.sol\":1685:1692  _paused */\n      0x01\n      0x00\n      swap1\n      sload\n      swap1\n      0x0100\n      exp\n      swap1\n      div\n      0xff\n      and\n        /* \"@openzeppelin/contracts/security/Pausable.sol\":1678:1692  return _paused */\n      swap1\n      pop\n        /* \"@openzeppelin/contracts/security/Pausable.sol\":1615:1699  function paused() public view virtual returns (bool) {... */\n      swap1\n      jump\t// out\n        /* \"contracts/ContributorRegistry.sol\":2659:2978  function setProfileURI(string memory _metadataURI) public virtual whenNotPaused {... */\n    tag_53:\n        /* \"@openzeppelin/contracts/security/Pausable.sol\":1239:1258  _requireNotPaused() */\n      tag_109\n        /* \"@openzeppelin/contracts/security/Pausable.sol\":1239:1256  _requireNotPaused */\n      tag_90\n        /* \"@openzeppelin/contracts/security/Pausable.sol\":1239:1258  _requireNotPaused() */\n      jump\t// in\n    tag_109:\n        /* \"contracts/ContributorRegistry.sol\":2750:2769  address contributor */\n      0x00\n        /* \"contracts/ContributorRegistry.sol\":2772:2784  _msgSender() */\n      tag_111\n        /* \"contracts/ContributorRegistry.sol\":2772:2782  _msgSender */\n      tag_96\n        /* \"contracts/ContributorRegistry.sol\":2772:2784  _msgSender() */\n      jump\t// in\n    tag_111:\n        /* \"contracts/ContributorRegistry.sol\":2750:2784  address contributor = _msgSender() */\n      swap1\n      pop\n        /* \"contracts/ContributorRegistry.sol\":2820:2913  Profile({... */\n      mload(0x40)\n      dup1\n      0x40\n      add\n      0x40\n      mstore\n      dup1\n        /* \"contracts/ContributorRegistry.sol\":2856:2868  _metadataURI */\n      dup4\n        /* \"contracts/ContributorRegistry.sol\":2820:2913  Profile({... */\n      dup2\n      mstore\n      0x20\n      add\n        /* \"contracts/ContributorRegistry.sol\":2897:2901  true */\n      0x01\n        /* \"contracts/ContributorRegistry.sol\":2820:2913  Profile({... */\n      iszero\n      iszero\n      dup2\n      mstore\n      pop\n        /* \"contracts/ContributorRegistry.sol\":2795:2804  _profiles */\n      0x02\n        /* \"contracts/ContributorRegistry.sol\":2795:2817  _profiles[contributor] */\n      0x00\n        /* \"contracts/ContributorRegistry.sol\":2805:2816  contributor */\n      dup4\n        /* \"contracts/ContributorRegistry.sol\":2795:2817  _profiles[contributor] */\n      0xffffffffffffffffffffffffffffffffffffffff\n      and\n      0xffffffffffffffffffffffffffffffffffffffff\n      and\n      dup2\n      mstore\n      0x20\n      add\n      swap1\n      dup2\n      mstore\n      0x20\n      add\n      0x00\n      keccak256\n        /* \"contracts/ContributorRegistry.sol\":2795:2913  _profiles[contributor] = Profile({... */\n      0x00\n      dup3\n      add\n      mload\n      dup2\n      0x00\n      add\n      swap1\n      dup2\n      tag_112\n      swap2\n      swap1\n      tag_113\n      jump\t// in\n    tag_112:\n      pop\n      0x20\n      dup3\n      add\n      mload\n      dup2\n      0x01\n      add\n      exp(0x0100, 0x00)\n      dup2\n      sload\n      dup2\n      0xff\n      mul\n      not\n      and\n      swap1\n      dup4\n      iszero\n      iszero\n      mul\n      or\n      swap1\n      sstore\n      pop\n      swap1\n      pop\n      pop\n        /* \"contracts/ContributorRegistry.sol\":2944:2955  contributor */\n      dup1\n        /* \"contracts/ContributorRegistry.sol\":2929:2970  ProfileUpdated(contributor, _metadataURI) */\n      0xffffffffffffffffffffffffffffffffffffffff\n      and\n      0xdd635a4cd84864e37e4479dbfc2ec667acfa473c83c8422a8ac9d9d07599b01c\n        /* \"contracts/ContributorRegistry.sol\":2957:2969  _metadataURI */\n      dup4\n        /* \"contracts/ContributorRegistry.sol\":2929:2970  ProfileUpdated(contributor, _metadataURI) */\n      mload(0x40)\n      tag_114\n      swap2\n      swap1\n      tag_115\n      jump\t// in\n    tag_114:\n      mload(0x40)\n      dup1\n      swap2\n      sub\n      swap1\n      log2\n        /* \"contracts/ContributorRegistry.sol\":2739:2978  {... */\n      pop\n        /* \"contracts/ContributorRegistry.sol\":2659:2978  function setProfileURI(string memory _metadataURI) public virtual whenNotPaused {... */\n      pop\n      jump\t// out\n        /* \"contracts/ContributorRegistry.sol\":4424:4505  function pause() public virtual onlyRole(PAUSER_ROLE) {... */\n    tag_55:\n        /* \"contracts/ContributorRegistry.sol\":925:949  keccak256(\"PAUSER_ROLE\") */\n      0x65d7a28e3265b37a6474929f336521b332c1681b933f6cb9f3376673440d862a\n        /* \"@openzeppelin/contracts/access/AccessControl.sol\":2473:2489  _checkRole(role) */\n      tag_117\n        /* \"@openzeppelin/contracts/access/AccessControl.sol\":2484:2488  role */\n      dup2\n        /* \"@openzeppelin/contracts/access/AccessControl.sol\":2473:2483  _checkRole */\n      tag_87\n        /* \"@openzeppelin/contracts/access/AccessControl.sol\":2473:2489  _checkRole(role) */\n      jump\t// in\n    tag_117:\n        /* \"contracts/ContributorRegistry.sol\":4489:4497  _pause() */\n      tag_119\n        /* \"contracts/ContributorRegistry.sol\":4489:4495  _pause */\n      tag_120\n        /* \"contracts/ContributorRegistry.sol\":4489:4497  _pause() */\n      jump\t// in\n    tag_119:\n        /* \"contracts/ContributorRegistry.sol\":4424:4505  function pause() public virtual onlyRole(PAUSER_ROLE) {... */\n      pop\n      jump\t// out\n        /* \"contracts/ContributorRegistry.sol\":5393:5544  function hasRole(bytes32 _role, address _contributor) public view virtual override returns (bool) {... */\n    tag_58:\n        /* \"contracts/ContributorRegistry.sol\":5485:5489  bool */\n      0x00\n        /* \"contracts/ContributorRegistry.sol\":5509:5515  _roles */\n      0x03\n        /* \"contracts/ContributorRegistry.sol\":5509:5522  _roles[_role] */\n      0x00\n        /* \"contracts/ContributorRegistry.sol\":5516:5521  _role */\n      dup5\n        /* \"contracts/ContributorRegistry.sol\":5509:5522  _roles[_role] */\n      dup2\n      mstore\n      0x20\n      add\n      swap1\n      dup2\n      mstore\n      0x20\n      add\n      0x00\n      keccak256\n        /* \"contracts/ContributorRegistry.sol\":5509:5536  _roles[_role][_contributor] */\n      0x00\n        /* \"contracts/ContributorRegistry.sol\":5523:5535  _contributor */\n      dup4\n        /* \"contracts/ContributorRegistry.sol\":5509:5536  _roles[_role][_contributor] */\n      0xffffffffffffffffffffffffffffffffffffffff\n      and\n      0xffffffffffffffffffffffffffffffffffffffff\n      and\n      dup2\n      mstore\n      0x20\n      add\n      swap1\n      dup2\n      mstore\n      0x20\n      add\n      0x00\n      keccak256\n      0x00\n      swap1\n      sload\n      swap1\n      0x0100\n      exp\n      swap1\n      div\n      0xff\n      and\n        /* \"contracts/ContributorRegistry.sol\":5502:5536  return _roles[_role][_contributor] */\n      swap1\n      pop\n        /* \"contracts/ContributorRegistry.sol\":5393:5544  function hasRole(bytes32 _role, address _contributor) public view virtual override returns (bool) {... */\n      swap3\n      swap2\n      pop\n      pop\n      jump\t// out\n        /* \"@openzeppelin/contracts/access/AccessControl.sol\":2196:2245  bytes32 public constant DEFAULT_ADMIN_ROLE = 0x00 */\n    tag_61:\n        /* \"@openzeppelin/contracts/access/AccessControl.sol\":2241:2245  0x00 */\n      0x00\n        /* \"@openzeppelin/contracts/access/AccessControl.sol\":2196:2245  bytes32 public constant DEFAULT_ADMIN_ROLE = 0x00 */\n      dup1\n      shl\n      dup2\n      jump\t// out\n        /* \"contracts/ContributorRegistry.sol\":820:880  bytes32 public constant ROLE_ADMIN = keccak256(\"ROLE_ADMIN\") */\n    tag_64:\n        /* \"contracts/ContributorRegistry.sol\":857:880  keccak256(\"ROLE_ADMIN\") */\n      0x2172861495e7b85edac73e3cd5fbb42dd675baadf627720e687bcfdaca025096\n        /* \"contracts/ContributorRegistry.sol\":820:880  bytes32 public constant ROLE_ADMIN = keccak256(\"ROLE_ADMIN\") */\n      dup2\n      jump\t// out\n        /* \"contracts/ContributorRegistry.sol\":3908:4251  function revokeRole(bytes32 _role, address _contributor) public virtual override onlyRole(ROLE_ADMIN) whenNotPaused {... */\n    tag_68:\n        /* \"contracts/ContributorRegistry.sol\":857:880  keccak256(\"ROLE_ADMIN\") */\n      0x2172861495e7b85edac73e3cd5fbb42dd675baadf627720e687bcfdaca025096\n        /* \"@openzeppelin/contracts/access/AccessControl.sol\":2473:2489  _checkRole(role) */\n      tag_123\n        /* \"@openzeppelin/contracts/access/AccessControl.sol\":2484:2488  role */\n      dup2\n        /* \"@openzeppelin/contracts/access/AccessControl.sol\":2473:2483  _checkRole */\n      tag_87\n        /* \"@openzeppelin/contracts/access/AccessControl.sol\":2473:2489  _checkRole(role) */\n      jump\t// in\n    tag_123:\n        /* \"@openzeppelin/contracts/security/Pausable.sol\":1239:1258  _requireNotPaused() */\n      tag_125\n        /* \"@openzeppelin/contracts/security/Pausable.sol\":1239:1256  _requireNotPaused */\n      tag_90\n        /* \"@openzeppelin/contracts/security/Pausable.sol\":1239:1258  _requireNotPaused() */\n      jump\t// in\n    tag_125:\n        /* \"contracts/ContributorRegistry.sol\":4067:4068  0 */\n      0x00\n        /* \"contracts/ContributorRegistry.sol\":4043:4069  _contributor != address(0) */\n      0xffffffffffffffffffffffffffffffffffffffff\n      and\n        /* \"contracts/ContributorRegistry.sol\":4043:4055  _contributor */\n      dup3\n        /* \"contracts/ContributorRegistry.sol\":4043:4069  _contributor != address(0) */\n      0xffffffffffffffffffffffffffffffffffffffff\n      and\n      sub\n        /* \"contracts/ContributorRegistry.sol\":4035:4128  require(_contributor != address(0), \"ContributorRegistry: Revoke role from the zero address\") */\n      tag_127\n      jumpi\n      mload(0x40)\n      0x08c379a000000000000000000000000000000000000000000000000000000000\n      dup2\n      mstore\n      0x04\n      add\n      tag_128\n      swap1\n      tag_129\n      jump\t// in\n    tag_128:\n      mload(0x40)\n      dup1\n      swap2\n      sub\n      swap1\n      revert\n    tag_127:\n        /* \"contracts/ContributorRegistry.sol\":4169:4174  false */\n      0x00\n        /* \"contracts/ContributorRegistry.sol\":4139:4145  _roles */\n      0x03\n        /* \"contracts/ContributorRegistry.sol\":4139:4152  _roles[_role] */\n      0x00\n        /* \"contracts/ContributorRegistry.sol\":4146:4151  _role */\n      dup6\n        /* \"contracts/ContributorRegistry.sol\":4139:4152  _roles[_role] */\n      dup2\n      mstore\n      0x20\n      add\n      swap1\n      dup2\n      mstore\n      0x20\n      add\n      0x00\n      keccak256\n        /* \"contracts/ContributorRegistry.sol\":4139:4166  _roles[_role][_contributor] */\n      0x00\n        /* \"contracts/ContributorRegistry.sol\":4153:4165  _contributor */\n      dup5\n        /* \"contracts/ContributorRegistry.sol\":4139:4166  _roles[_role][_contributor] */\n      0xffffffffffffffffffffffffffffffffffffffff\n      and\n      0xffffffffffffffffffffffffffffffffffffffff\n      and\n      dup2\n      mstore\n      0x20\n      add\n      swap1\n      dup2\n      mstore\n      0x20\n      add\n      0x00\n      keccak256\n      0x00\n        /* \"contracts/ContributorRegistry.sol\":4139:4174  _roles[_role][_contributor] = false */\n      0x0100\n      exp\n      dup2\n      sload\n      dup2\n      0xff\n      mul\n      not\n      and\n      swap1\n      dup4\n      iszero\n      iszero\n      mul\n      or\n      swap1\n      sstore\n      pop\n        /* \"contracts/ContributorRegistry.sol\":4230:4242  _msgSender() */\n      tag_130\n        /* \"contracts/ContributorRegistry.sol\":4230:4240  _msgSender */\n      tag_96\n        /* \"contracts/ContributorRegistry.sol\":4230:4242  _msgSender() */\n      jump\t// in\n    tag_130:\n        /* \"contracts/ContributorRegistry.sol\":4190:4243  RoleRevokedOnChain(_role, _contributor, _msgSender()) */\n      0xffffffffffffffffffffffffffffffffffffffff\n      and\n        /* \"contracts/ContributorRegistry.sol\":4216:4228  _contributor */\n      dup3\n        /* \"contracts/ContributorRegistry.sol\":4190:4243  RoleRevokedOnChain(_role, _contributor, _msgSender()) */\n      0xffffffffffffffffffffffffffffffffffffffff\n      and\n        /* \"contracts/ContributorRegistry.sol\":4209:4214  _role */\n      dup5\n        /* \"contracts/ContributorRegistry.sol\":4190:4243  RoleRevokedOnChain(_role, _contributor, _msgSender()) */\n      0xd0fb715514aa4df838df8ea7036edd7f5f92bea1560d56c7cfff5a1060982821\n      mload(0x40)\n      mload(0x40)\n      dup1\n      swap2\n      sub\n      swap1\n      log4\n        /* \"contracts/ContributorRegistry.sol\":3908:4251  function revokeRole(bytes32 _role, address _contributor) public virtual override onlyRole(ROLE_ADMIN) whenNotPaused {... */\n      pop\n      pop\n      pop\n      jump\t// out\n        /* \"contracts/ContributorRegistry.sol\":887:949  bytes32 public constant PAUSER_ROLE = keccak256(\"PAUSER_ROLE\") */\n    tag_70:\n        /* \"contracts/ContributorRegistry.sol\":925:949  keccak256(\"PAUSER_ROLE\") */\n      0x65d7a28e3265b37a6474929f336521b332c1681b933f6cb9f3376673440d862a\n        /* \"contracts/ContributorRegistry.sol\":887:949  bytes32 public constant PAUSER_ROLE = keccak256(\"PAUSER_ROLE\") */\n      dup2\n      jump\t// out\n        /* \"@openzeppelin/contracts/access/AccessControl.sol\":2541:2743  function supportsInterface(bytes4 interfaceId) public view virtual override returns (bool) {... */\n    tag_74:\n        /* \"@openzeppelin/contracts/access/AccessControl.sol\":2626:2630  bool */\n      0x00\n        /* \"@openzeppelin/contracts/access/AccessControl.sol\":2664:2696  type(IAccessControl).interfaceId */\n      0x7965db0b00000000000000000000000000000000000000000000000000000000\n        /* \"@openzeppelin/contracts/access/AccessControl.sol\":2649:2696  interfaceId == type(IAccessControl).interfaceId */\n      not(0xffffffffffffffffffffffffffffffffffffffffffffffffffffffff)\n      and\n        /* \"@openzeppelin/contracts/access/AccessControl.sol\":2649:2660  interfaceId */\n      dup3\n        /* \"@openzeppelin/contracts/access/AccessControl.sol\":2649:2696  interfaceId == type(IAccessControl).interfaceId */\n      not(0xffffffffffffffffffffffffffffffffffffffffffffffffffffffff)\n      and\n      eq\n        /* \"@openzeppelin/contracts/access/AccessControl.sol\":2649:2736  interfaceId == type(IAccessControl).interfaceId || super.supportsInterface(interfaceId) */\n      dup1\n      tag_132\n      jumpi\n      pop\n        /* \"@openzeppelin/contracts/access/AccessControl.sol\":2700:2736  super.supportsInterface(interfaceId) */\n      tag_133\n        /* \"@openzeppelin/contracts/access/AccessControl.sol\":2724:2735  interfaceId */\n      dup3\n        /* \"@openzeppelin/contracts/access/AccessControl.sol\":2700:2723  super.supportsInterface */\n      tag_134\n        /* \"@openzeppelin/contracts/access/AccessControl.sol\":2700:2736  super.supportsInterface(interfaceId) */\n      jump\t// in\n    tag_133:\n        /* \"@openzeppelin/contracts/access/AccessControl.sol\":2649:2736  interfaceId == type(IAccessControl).interfaceId || super.supportsInterface(interfaceId) */\n    tag_132:\n        /* \"@openzeppelin/contracts/access/AccessControl.sol\":2642:2736  return interfaceId == type(IAccessControl).interfaceId || super.supportsInterface(interfaceId) */\n      swap1\n      pop\n        /* \"@openzeppelin/contracts/access/AccessControl.sol\":2541:2743  function supportsInterface(bytes4 interfaceId) public view virtual override returns (bool) {... */\n      swap2\n      swap1\n      pop\n      jump\t// out\n        /* \"@openzeppelin/contracts/access/AccessControl.sol\":3175:3278  function _checkRole(bytes32 role) internal view virtual {... */\n    tag_87:\n        /* \"@openzeppelin/contracts/access/AccessControl.sol\":3241:3271  _checkRole(role, _msgSender()) */\n      tag_136\n        /* \"@openzeppelin/contracts/access/AccessControl.sol\":3252:3256  role */\n      dup2\n        /* \"@openzeppelin/contracts/access/AccessControl.sol\":3258:3270  _msgSender() */\n      tag_137\n        /* \"@openzeppelin/contracts/access/AccessControl.sol\":3258:3268  _msgSender */\n      tag_96\n        /* \"@openzeppelin/contracts/access/AccessControl.sol\":3258:3270  _msgSender() */\n      jump\t// in\n    tag_137:\n        /* \"@openzeppelin/contracts/access/AccessControl.sol\":3241:3251  _checkRole */\n      tag_138\n        /* \"@openzeppelin/contracts/access/AccessControl.sol\":3241:3271  _checkRole(role, _msgSender()) */\n      jump\t// in\n    tag_136:\n        /* \"@openzeppelin/contracts/access/AccessControl.sol\":3175:3278  function _checkRole(bytes32 role) internal view virtual {... */\n      pop\n      jump\t// out\n        /* \"@openzeppelin/contracts/security/Pausable.sol\":1767:1873  function _requireNotPaused() internal view virtual {... */\n    tag_90:\n        /* \"@openzeppelin/contracts/security/Pausable.sol\":1837:1845  paused() */\n      tag_140\n        /* \"@openzeppelin/contracts/security/Pausable.sol\":1837:1843  paused */\n      tag_48\n        /* \"@openzeppelin/contracts/security/Pausable.sol\":1837:1845  paused() */\n      jump\t// in\n    tag_140:\n        /* \"@openzeppelin/contracts/security/Pausable.sol\":1836:1845  !paused() */\n      iszero\n        /* \"@openzeppelin/contracts/security/Pausable.sol\":1828:1866  require(!paused(), \"Pausable: paused\") */\n      tag_141\n      jumpi\n      mload(0x40)\n      0x08c379a000000000000000000000000000000000000000000000000000000000\n      dup2\n      mstore\n      0x04\n      add\n      tag_142\n      swap1\n      tag_143\n      jump\t// in\n    tag_142:\n      mload(0x40)\n      dup1\n      swap2\n      sub\n      swap1\n      revert\n    tag_141:\n        /* \"@openzeppelin/contracts/security/Pausable.sol\":1767:1873  function _requireNotPaused() internal view virtual {... */\n      jump\t// out\n        /* \"@openzeppelin/contracts/utils/Context.sol\":656:752  function _msgSender() internal view virtual returns (address) {... */\n    tag_96:\n        /* \"@openzeppelin/contracts/utils/Context.sol\":709:716  address */\n      0x00\n        /* \"@openzeppelin/contracts/utils/Context.sol\":735:745  msg.sender */\n      caller\n        /* \"@openzeppelin/contracts/utils/Context.sol\":728:745  return msg.sender */\n      swap1\n      pop\n        /* \"@openzeppelin/contracts/utils/Context.sol\":656:752  function _msgSender() internal view virtual returns (address) {... */\n      swap1\n      jump\t// out\n        /* \"@openzeppelin/contracts/access/AccessControl.sol\":6708:7025  function _revokeRole(bytes32 role, address account) internal virtual returns (bool) {... */\n    tag_101:\n        /* \"@openzeppelin/contracts/access/AccessControl.sol\":6786:6790  bool */\n      0x00\n        /* \"@openzeppelin/contracts/access/AccessControl.sol\":6806:6828  hasRole(role, account) */\n      tag_146\n        /* \"@openzeppelin/contracts/access/AccessControl.sol\":6814:6818  role */\n      dup4\n        /* \"@openzeppelin/contracts/access/AccessControl.sol\":6820:6827  account */\n      dup4\n        /* \"@openzeppelin/contracts/access/AccessControl.sol\":6806:6813  hasRole */\n      tag_58\n        /* \"@openzeppelin/contracts/access/AccessControl.sol\":6806:6828  hasRole(role, account) */\n      jump\t// in\n    tag_146:\n        /* \"@openzeppelin/contracts/access/AccessControl.sol\":6802:7019  if (hasRole(role, account)) {... */\n      iszero\n      tag_147\n      jumpi\n        /* \"@openzeppelin/contracts/access/AccessControl.sol\":6876:6881  false */\n      0x00\n        /* \"@openzeppelin/contracts/access/AccessControl.sol\":6844:6850  _roles */\n      dup1\n        /* \"@openzeppelin/contracts/access/AccessControl.sol\":6844:6856  _roles[role] */\n      0x00\n        /* \"@openzeppelin/contracts/access/AccessControl.sol\":6851:6855  role */\n      dup6\n        /* \"@openzeppelin/contracts/access/AccessControl.sol\":6844:6856  _roles[role] */\n      dup2\n      mstore\n      0x20\n      add\n      swap1\n      dup2\n      mstore\n      0x20\n      add\n      0x00\n      keccak256\n        /* \"@openzeppelin/contracts/access/AccessControl.sol\":6844:6864  _roles[role].hasRole */\n      0x00\n      add\n        /* \"@openzeppelin/contracts/access/AccessControl.sol\":6844:6873  _roles[role].hasRole[account] */\n      0x00\n        /* \"@openzeppelin/contracts/access/AccessControl.sol\":6865:6872  account */\n      dup5\n        /* \"@openzeppelin/contracts/access/AccessControl.sol\":6844:6873  _roles[role].hasRole[account] */\n      0xffffffffffffffffffffffffffffffffffffffff\n      and\n      0xffffffffffffffffffffffffffffffffffffffff\n      and\n      dup2\n      mstore\n      0x20\n      add\n      swap1\n      dup2\n      mstore\n      0x20\n      add\n      0x00\n      keccak256\n      0x00\n        /* \"@openzeppelin/contracts/access/AccessControl.sol\":6844:6881  _roles[role].hasRole[account] = false */\n      0x0100\n      exp\n      dup2\n      sload\n      dup2\n      0xff\n      mul\n      not\n      and\n      swap1\n      dup4\n      iszero\n      iszero\n      mul\n      or\n      swap1\n      sstore\n      pop\n        /* \"@openzeppelin/contracts/access/AccessControl.sol\":6927:6939  _msgSender() */\n      tag_148\n        /* \"@openzeppelin/contracts/access/AccessControl.sol\":6927:6937  _msgSender */\n      tag_96\n        /* \"@openzeppelin/contracts/access/AccessControl.sol\":6927:6939  _msgSender() */\n      jump\t// in\n    tag_148:\n        /* \"@openzeppelin/contracts/access/AccessControl.sol\":6900:6940  RoleRevoked(role, account, _msgSender()) */\n      0xffffffffffffffffffffffffffffffffffffffff\n      and\n        /* \"@openzeppelin/contracts/access/AccessControl.sol\":6918:6925  account */\n      dup3\n        /* \"@openzeppelin/contracts/access/AccessControl.sol\":6900:6940  RoleRevoked(role, account, _msgSender()) */\n      0xffffffffffffffffffffffffffffffffffffffff\n      and\n        /* \"@openzeppelin/contracts/access/AccessControl.sol\":6912:6916  role */\n      dup5\n        /* \"@openzeppelin/contracts/access/AccessControl.sol\":6900:6940  RoleRevoked(role, account, _msgSender()) */\n      0xf6391f5c32d9c69d2a47ea670b442974b53935d1edc7fd64eb21e047a839171b\n      mload(0x40)\n      mload(0x40)\n      dup1\n      swap2\n      sub\n      swap1\n      log4\n        /* \"@openzeppelin/contracts/access/AccessControl.sol\":6961:6965  true */\n      0x01\n        /* \"@openzeppelin/contracts/access/AccessControl.sol\":6954:6965  return true */\n      swap1\n      pop\n      jump(tag_145)\n        /* \"@openzeppelin/contracts/access/AccessControl.sol\":6802:7019  if (hasRole(role, account)) {... */\n    tag_147:\n        /* \"@openzeppelin/contracts/access/AccessControl.sol\":7003:7008  false */\n      0x00\n        /* \"@openzeppelin/contracts/access/AccessControl.sol\":6996:7008  return false */\n      swap1\n      pop\n        /* \"@openzeppelin/contracts/access/AccessControl.sol\":6708:7025  function _revokeRole(bytes32 role, address account) internal virtual returns (bool) {... */\n    tag_145:\n      swap3\n      swap2\n      pop\n      pop\n      jump\t// out\n        /* \"@openzeppelin/contracts/security/Pausable.sol\":2433:2550  function _unpause() internal virtual whenPaused {... */\n    tag_106:\n        /* \"@openzeppelin/contracts/security/Pausable.sol\":1486:1502  _requirePaused() */\n      tag_151\n        /* \"@openzeppelin/contracts/security/Pausable.sol\":1486:1500  _requirePaused */\n      tag_152\n        /* \"@openzeppelin/contracts/security/Pausable.sol\":1486:1502  _requirePaused() */\n      jump\t// in\n    tag_151:\n        /* \"@openzeppelin/contracts/security/Pausable.sol\":2501:2506  false */\n      0x00\n        /* \"@openzeppelin/contracts/security/Pausable.sol\":2491:2498  _paused */\n      0x01\n      0x00\n        /* \"@openzeppelin/contracts/security/Pausable.sol\":2491:2506  _paused = false */\n      0x0100\n      exp\n      dup2\n      sload\n      dup2\n      0xff\n      mul\n      not\n      and\n      swap1\n      dup4\n      iszero\n      iszero\n      mul\n      or\n      swap1\n      sstore\n      pop\n        /* \"@openzeppelin/contracts/security/Pausable.sol\":2521:2543  Unpaused(_msgSender()) */\n      0x5db9ee0a495bf2e6ff9c91a7834c1ba4fdd244a5e8aa4e537bd38aeae4b073aa\n        /* \"@openzeppelin/contracts/security/Pausable.sol\":2530:2542  _msgSender() */\n      tag_154\n        /* \"@openzeppelin/contracts/security/Pausable.sol\":2530:2540  _msgSender */\n      tag_96\n        /* \"@openzeppelin/contracts/security/Pausable.sol\":2530:2542  _msgSender() */\n      jump\t// in\n    tag_154:\n        /* \"@openzeppelin/contracts/security/Pausable.sol\":2521:2543  Unpaused(_msgSender()) */\n      mload(0x40)\n      tag_155\n      swap2\n      swap1\n      tag_156\n      jump\t// in\n    tag_155:\n      mload(0x40)\n      dup1\n      swap2\n      sub\n      swap1\n      log1\n        /* \"@openzeppelin/contracts/security/Pausable.sol\":2433:2550  function _unpause() internal virtual whenPaused {... */\n      jump\t// out\n        /* \"@openzeppelin/contracts/security/Pausable.sol\":2186:2301  function _pause() internal virtual whenNotPaused {... */\n    tag_120:\n        /* \"@openzeppelin/contracts/security/Pausable.sol\":1239:1258  _requireNotPaused() */\n      tag_158\n        /* \"@openzeppelin/contracts/security/Pausable.sol\":1239:1256  _requireNotPaused */\n      tag_90\n        /* \"@openzeppelin/contracts/security/Pausable.sol\":1239:1258  _requireNotPaused() */\n      jump\t// in\n    tag_158:\n        /* \"@openzeppelin/contracts/security/Pausable.sol\":2255:2259  true */\n      0x01\n        /* \"@openzeppelin/contracts/security/Pausable.sol\":2245:2252  _paused */\n      dup1\n      0x00\n        /* \"@openzeppelin/contracts/security/Pausable.sol\":2245:2259  _paused = true */\n      0x0100\n      exp\n      dup2\n      sload\n      dup2\n      0xff\n      mul\n      not\n      and\n      swap1\n      dup4\n      iszero\n      iszero\n      mul\n      or\n      swap1\n      sstore\n      pop\n        /* \"@openzeppelin/contracts/security/Pausable.sol\":2274:2294  Paused(_msgSender()) */\n      0x62e78cea01bee320cd4e420270b5ea74000d11b0c9f74754ebdbfc544b05a258\n        /* \"@openzeppelin/contracts/security/Pausable.sol\":2281:2293  _msgSender() */\n      tag_160\n        /* \"@openzeppelin/contracts/security/Pausable.sol\":2281:2291  _msgSender */\n      tag_96\n        /* \"@openzeppelin/contracts/security/Pausable.sol\":2281:2293  _msgSender() */\n      jump\t// in\n    tag_160:\n        /* \"@openzeppelin/contracts/security/Pausable.sol\":2274:2294  Paused(_msgSender()) */\n      mload(0x40)\n      tag_161\n      swap2\n      swap1\n      tag_156\n      jump\t// in\n    tag_161:\n      mload(0x40)\n      dup1\n      swap2\n      sub\n      swap1\n      log1\n        /* \"@openzeppelin/contracts/security/Pausable.sol\":2186:2301  function _pause() internal virtual whenNotPaused {... */\n      jump\t// out\n        /* \"@openzeppelin/contracts/utils/introspection/ERC165.sol\":730:876  function supportsInterface(bytes4 interfaceId) public view virtual returns (bool) {... */\n    tag_134:\n        /* \"@openzeppelin/contracts/utils/introspection/ERC165.sol\":806:810  bool */\n      0x00\n        /* \"@openzeppelin/contracts/utils/introspection/ERC165.sol\":844:869  type(IERC165).interfaceId */\n      0x01ffc9a700000000000000000000000000000000000000000000000000000000\n        /* \"@openzeppelin/contracts/utils/introspection/ERC165.sol\":829:869  interfaceId == type(IERC165).interfaceId */\n      not(0xffffffffffffffffffffffffffffffffffffffffffffffffffffffff)\n      and\n        /* \"@openzeppelin/contracts/utils/introspection/ERC165.sol\":829:840  interfaceId */\n      dup3\n        /* \"@openzeppelin/contracts/utils/introspection/ERC165.sol\":829:869  interfaceId == type(IERC165).interfaceId */\n      not(0xffffffffffffffffffffffffffffffffffffffffffffffffffffffff)\n      and\n      eq\n        /* \"@openzeppelin/contracts/utils/introspection/ERC165.sol\":822:869  return interfaceId == type(IERC165).interfaceId */\n      swap1\n      pop\n        /* \"@openzeppelin/contracts/utils/introspection/ERC165.sol\":730:876  function supportsInterface(bytes4 interfaceId) public view virtual returns (bool) {... */\n      swap2\n      swap1\n      pop\n      jump\t// out\n        /* \"@openzeppelin/contracts/access/AccessControl.sol\":3408:3605  function _checkRole(bytes32 role, address account) internal view virtual {... */\n    tag_138:\n        /* \"@openzeppelin/contracts/access/AccessControl.sol\":3496:3518  hasRole(role, account) */\n      tag_164\n        /* \"@openzeppelin/contracts/access/AccessControl.sol\":3504:3508  role */\n      dup3\n        /* \"@openzeppelin/contracts/access/AccessControl.sol\":3510:3517  account */\n      dup3\n        /* \"@openzeppelin/contracts/access/AccessControl.sol\":3496:3503  hasRole */\n      tag_58\n        /* \"@openzeppelin/contracts/access/AccessControl.sol\":3496:3518  hasRole(role, account) */\n      jump\t// in\n    tag_164:\n        /* \"@openzeppelin/contracts/access/AccessControl.sol\":3491:3599  if (!hasRole(role, account)) {... */\n      tag_165\n      jumpi\n        /* \"@openzeppelin/contracts/access/AccessControl.sol\":3574:3581  account */\n      dup1\n        /* \"@openzeppelin/contracts/access/AccessControl.sol\":3583:3587  role */\n      dup3\n        /* \"@openzeppelin/contracts/access/AccessControl.sol\":3541:3588  AccessControlUnauthorizedAccount(account, role) */\n      mload(0x40)\n      0xe2517d3f00000000000000000000000000000000000000000000000000000000\n      dup2\n      mstore\n      0x04\n      add\n      tag_166\n      swap3\n      swap2\n      swap1\n      tag_167\n      jump\t// in\n    tag_166:\n      mload(0x40)\n      dup1\n      swap2\n      sub\n      swap1\n      revert\n        /* \"@openzeppelin/contracts/access/AccessControl.sol\":3491:3599  if (!hasRole(role, account)) {... */\n    tag_165:\n        /* \"@openzeppelin/contracts/access/AccessControl.sol\":3408:3605  function _checkRole(bytes32 role, address account) internal view virtual {... */\n      pop\n      pop\n      jump\t// out\n        /* \"@openzeppelin/contracts/security/Pausable.sol\":1945:2051  function _requirePaused() internal view virtual {... */\n    tag_152:\n        /* \"@openzeppelin/contracts/security/Pausable.sol\":2011:2019  paused() */\n      tag_169\n        /* \"@openzeppelin/contracts/security/Pausable.sol\":2011:2017  paused */\n      tag_48\n        /* \"@openzeppelin/contracts/security/Pausable.sol\":2011:2019  paused() */\n      jump\t// in\n    tag_169:\n        /* \"@openzeppelin/contracts/security/Pausable.sol\":2003:2044  require(paused(), \"Pausable: not paused\") */\n      tag_170\n      jumpi\n      mload(0x40)\n      0x08c379a000000000000000000000000000000000000000000000000000000000\n      dup2\n      mstore\n      0x04\n      add\n      tag_171\n      swap1\n      tag_172\n      jump\t// in\n    tag_171:\n      mload(0x40)\n      dup1\n      swap2\n      sub\n      swap1\n      revert\n    tag_170:\n        /* \"@openzeppelin/contracts/security/Pausable.sol\":1945:2051  function _requirePaused() internal view virtual {... */\n      jump\t// out\n    tag_76:\n      mload(0x40)\n      dup1\n      0x40\n      add\n      0x40\n      mstore\n      dup1\n      0x60\n      dup2\n      mstore\n      0x20\n      add\n      iszero(iszero(0x00))\n      dup2\n      mstore\n      pop\n      swap1\n      jump\t// out\n        /* \"#utility.yul\":7:82   */\n    tag_173:\n        /* \"#utility.yul\":40:46   */\n      0x00\n        /* \"#utility.yul\":73:75   */\n      0x40\n        /* \"#utility.yul\":67:76   */\n      mload\n        /* \"#utility.yul\":57:76   */\n      swap1\n      pop\n        /* \"#utility.yul\":7:82   */\n      swap1\n      jump\t// out\n        /* \"#utility.yul\":88:205   */\n    tag_174:\n        /* \"#utility.yul\":197:198   */\n      0x00\n        /* \"#utility.yul\":194:195   */\n      dup1\n        /* \"#utility.yul\":187:199   */\n      revert\n        /* \"#utility.yul\":211:328   */\n    tag_175:\n        /* \"#utility.yul\":320:321   */\n      0x00\n        /* \"#utility.yul\":317:318   */\n      dup1\n        /* \"#utility.yul\":310:322   */\n      revert\n        /* \"#utility.yul\":334:483   */\n    tag_176:\n        /* \"#utility.yul\":370:377   */\n      0x00\n        /* \"#utility.yul\":410:476   */\n      0xffffffff00000000000000000000000000000000000000000000000000000000\n        /* \"#utility.yul\":403:408   */\n      dup3\n        /* \"#utility.yul\":399:477   */\n      and\n        /* \"#utility.yul\":388:477   */\n      swap1\n      pop\n        /* \"#utility.yul\":334:483   */\n      swap2\n      swap1\n      pop\n      jump\t// out\n        /* \"#utility.yul\":489:609   */\n    tag_177:\n        /* \"#utility.yul\":561:584   */\n      tag_239\n        /* \"#utility.yul\":578:583   */\n      dup2\n        /* \"#utility.yul\":561:584   */\n      tag_176\n      jump\t// in\n    tag_239:\n        /* \"#utility.yul\":554:559   */\n      dup2\n        /* \"#utility.yul\":551:585   */\n      eq\n        /* \"#utility.yul\":541:603   */\n      tag_240\n      jumpi\n        /* \"#utility.yul\":599:600   */\n      0x00\n        /* \"#utility.yul\":596:597   */\n      dup1\n        /* \"#utility.yul\":589:601   */\n      revert\n        /* \"#utility.yul\":541:603   */\n    tag_240:\n        /* \"#utility.yul\":489:609   */\n      pop\n      jump\t// out\n        /* \"#utility.yul\":615:752   */\n    tag_178:\n        /* \"#utility.yul\":660:665   */\n      0x00\n        /* \"#utility.yul\":698:704   */\n      dup2\n        /* \"#utility.yul\":685:705   */\n      calldataload\n        /* \"#utility.yul\":676:705   */\n      swap1\n      pop\n        /* \"#utility.yul\":714:746   */\n      tag_242\n        /* \"#utility.yul\":740:745   */\n      dup2\n        /* \"#utility.yul\":714:746   */\n      tag_177\n      jump\t// in\n    tag_242:\n        /* \"#utility.yul\":615:752   */\n      swap3\n      swap2\n      pop\n      pop\n      jump\t// out\n        /* \"#utility.yul\":758:1085   */\n    tag_22:\n        /* \"#utility.yul\":816:822   */\n      0x00\n        /* \"#utility.yul\":865:867   */\n      0x20\n        /* \"#utility.yul\":853:862   */\n      dup3\n        /* \"#utility.yul\":844:851   */\n      dup5\n        /* \"#utility.yul\":840:863   */\n      sub\n        /* \"#utility.yul\":836:868   */\n      slt\n        /* \"#utility.yul\":833:952   */\n      iszero\n      tag_244\n      jumpi\n        /* \"#utility.yul\":871:950   */\n      tag_245\n      tag_174\n      jump\t// in\n    tag_245:\n        /* \"#utility.yul\":833:952   */\n    tag_244:\n        /* \"#utility.yul\":991:992   */\n      0x00\n        /* \"#utility.yul\":1016:1068   */\n      tag_246\n        /* \"#utility.yul\":1060:1067   */\n      dup5\n        /* \"#utility.yul\":1051:1057   */\n      dup3\n        /* \"#utility.yul\":1040:1049   */\n      dup6\n        /* \"#utility.yul\":1036:1058   */\n      add\n        /* \"#utility.yul\":1016:1068   */\n      tag_178\n      jump\t// in\n    tag_246:\n        /* \"#utility.yul\":1006:1068   */\n      swap2\n      pop\n        /* \"#utility.yul\":962:1078   */\n      pop\n        /* \"#utility.yul\":758:1085   */\n      swap3\n      swap2\n      pop\n      pop\n      jump\t// out\n        /* \"#utility.yul\":1091:1181   */\n    tag_179:\n        /* \"#utility.yul\":1125:1132   */\n      0x00\n        /* \"#utility.yul\":1168:1173   */\n      dup2\n        /* \"#utility.yul\":1161:1174   */\n      iszero\n        /* \"#utility.yul\":1154:1175   */\n      iszero\n        /* \"#utility.yul\":1143:1175   */\n      swap1\n      pop\n        /* \"#utility.yul\":1091:1181   */\n      swap2\n      swap1\n      pop\n      jump\t// out\n        /* \"#utility.yul\":1187:1296   */\n    tag_180:\n        /* \"#utility.yul\":1268:1289   */\n      tag_249\n        /* \"#utility.yul\":1283:1288   */\n      dup2\n        /* \"#utility.yul\":1268:1289   */\n      tag_179\n      jump\t// in\n    tag_249:\n        /* \"#utility.yul\":1263:1266   */\n      dup3\n        /* \"#utility.yul\":1256:1290   */\n      mstore\n        /* \"#utility.yul\":1187:1296   */\n      pop\n      pop\n      jump\t// out\n        /* \"#utility.yul\":1302:1512   */\n    tag_25:\n        /* \"#utility.yul\":1389:1393   */\n      0x00\n        /* \"#utility.yul\":1427:1429   */\n      0x20\n        /* \"#utility.yul\":1416:1425   */\n      dup3\n        /* \"#utility.yul\":1412:1430   */\n      add\n        /* \"#utility.yul\":1404:1430   */\n      swap1\n      pop\n        /* \"#utility.yul\":1440:1505   */\n      tag_251\n        /* \"#utility.yul\":1502:1503   */\n      0x00\n        /* \"#utility.yul\":1491:1500   */\n      dup4\n        /* \"#utility.yul\":1487:1504   */\n      add\n        /* \"#utility.yul\":1478:1484   */\n      dup5\n        /* \"#utility.yul\":1440:1505   */\n      tag_180\n      jump\t// in\n    tag_251:\n        /* \"#utility.yul\":1302:1512   */\n      swap3\n      swap2\n      pop\n      pop\n      jump\t// out\n        /* \"#utility.yul\":1518:1644   */\n    tag_181:\n        /* \"#utility.yul\":1555:1562   */\n      0x00\n        /* \"#utility.yul\":1595:1637   */\n      0xffffffffffffffffffffffffffffffffffffffff\n        /* \"#utility.yul\":1588:1593   */\n      dup3\n        /* \"#utility.yul\":1584:1638   */\n      and\n        /* \"#utility.yul\":1573:1638   */\n      swap1\n      pop\n        /* \"#utility.yul\":1518:1644   */\n      swap2\n      swap1\n      pop\n      jump\t// out\n        /* \"#utility.yul\":1650:1746   */\n    tag_182:\n        /* \"#utility.yul\":1687:1694   */\n      0x00\n        /* \"#utility.yul\":1716:1740   */\n      tag_254\n        /* \"#utility.yul\":1734:1739   */\n      dup3\n        /* \"#utility.yul\":1716:1740   */\n      tag_181\n      jump\t// in\n    tag_254:\n        /* \"#utility.yul\":1705:1740   */\n      swap1\n      pop\n        /* \"#utility.yul\":1650:1746   */\n      swap2\n      swap1\n      pop\n      jump\t// out\n        /* \"#utility.yul\":1752:1874   */\n    tag_183:\n        /* \"#utility.yul\":1825:1849   */\n      tag_256\n        /* \"#utility.yul\":1843:1848   */\n      dup2\n        /* \"#utility.yul\":1825:1849   */\n      tag_182\n      jump\t// in\n    tag_256:\n        /* \"#utility.yul\":1818:1823   */\n      dup2\n        /* \"#utility.yul\":1815:1850   */\n      eq\n        /* \"#utility.yul\":1805:1868   */\n      tag_257\n      jumpi\n        /* \"#utility.yul\":1864:1865   */\n      0x00\n        /* \"#utility.yul\":1861:1862   */\n      dup1\n        /* \"#utility.yul\":1854:1866   */\n      revert\n        /* \"#utility.yul\":1805:1868   */\n    tag_257:\n        /* \"#utility.yul\":1752:1874   */\n      pop\n      jump\t// out\n        /* \"#utility.yul\":1880:2019   */\n    tag_184:\n        /* \"#utility.yul\":1926:1931   */\n      0x00\n        /* \"#utility.yul\":1964:1970   */\n      dup2\n        /* \"#utility.yul\":1951:1971   */\n      calldataload\n        /* \"#utility.yul\":1942:1971   */\n      swap1\n      pop\n        /* \"#utility.yul\":1980:2013   */\n      tag_259\n        /* \"#utility.yul\":2007:2012   */\n      dup2\n        /* \"#utility.yul\":1980:2013   */\n      tag_183\n      jump\t// in\n    tag_259:\n        /* \"#utility.yul\":1880:2019   */\n      swap3\n      swap2\n      pop\n      pop\n      jump\t// out\n        /* \"#utility.yul\":2025:2354   */\n    tag_28:\n        /* \"#utility.yul\":2084:2090   */\n      0x00\n        /* \"#utility.yul\":2133:2135   */\n      0x20\n        /* \"#utility.yul\":2121:2130   */\n      dup3\n        /* \"#utility.yul\":2112:2119   */\n      dup5\n        /* \"#utility.yul\":2108:2131   */\n      sub\n        /* \"#utility.yul\":2104:2136   */\n      slt\n        /* \"#utility.yul\":2101:2220   */\n      iszero\n      tag_261\n      jumpi\n        /* \"#utility.yul\":2139:2218   */\n      tag_262\n      tag_174\n      jump\t// in\n    tag_262:\n        /* \"#utility.yul\":2101:2220   */\n    tag_261:\n        /* \"#utility.yul\":2259:2260   */\n      0x00\n        /* \"#utility.yul\":2284:2337   */\n      tag_263\n        /* \"#utility.yul\":2329:2336   */\n      dup5\n        /* \"#utility.yul\":2320:2326   */\n      dup3\n        /* \"#utility.yul\":2309:2318   */\n      dup6\n        /* \"#utility.yul\":2305:2327   */\n      add\n        /* \"#utility.yul\":2284:2337   */\n      tag_184\n      jump\t// in\n    tag_263:\n        /* \"#utility.yul\":2274:2337   */\n      swap2\n      pop\n        /* \"#utility.yul\":2230:2347   */\n      pop\n        /* \"#utility.yul\":2025:2354   */\n      swap3\n      swap2\n      pop\n      pop\n      jump\t// out\n        /* \"#utility.yul\":2360:2459   */\n    tag_185:\n        /* \"#utility.yul\":2412:2418   */\n      0x00\n        /* \"#utility.yul\":2446:2451   */\n      dup2\n        /* \"#utility.yul\":2440:2452   */\n      mload\n        /* \"#utility.yul\":2430:2452   */\n      swap1\n      pop\n        /* \"#utility.yul\":2360:2459   */\n      swap2\n      swap1\n      pop\n      jump\t// out\n        /* \"#utility.yul\":2465:2624   */\n    tag_186:\n        /* \"#utility.yul\":2539:2550   */\n      0x00\n        /* \"#utility.yul\":2573:2579   */\n      dup3\n        /* \"#utility.yul\":2568:2571   */\n      dup3\n        /* \"#utility.yul\":2561:2580   */\n      mstore\n        /* \"#utility.yul\":2613:2617   */\n      0x20\n        /* \"#utility.yul\":2608:2611   */\n      dup3\n        /* \"#utility.yul\":2604:2618   */\n      add\n        /* \"#utility.yul\":2589:2618   */\n      swap1\n      pop\n        /* \"#utility.yul\":2465:2624   */\n      swap3\n      swap2\n      pop\n      pop\n      jump\t// out\n        /* \"#utility.yul\":2630:2876   */\n    tag_187:\n        /* \"#utility.yul\":2711:2712   */\n      0x00\n        /* \"#utility.yul\":2721:2834   */\n    tag_267:\n        /* \"#utility.yul\":2735:2741   */\n      dup4\n        /* \"#utility.yul\":2732:2733   */\n      dup2\n        /* \"#utility.yul\":2729:2742   */\n      lt\n        /* \"#utility.yul\":2721:2834   */\n      iszero\n      tag_269\n      jumpi\n        /* \"#utility.yul\":2820:2821   */\n      dup1\n        /* \"#utility.yul\":2815:2818   */\n      dup3\n        /* \"#utility.yul\":2811:2822   */\n      add\n        /* \"#utility.yul\":2805:2823   */\n      mload\n        /* \"#utility.yul\":2801:2802   */\n      dup2\n        /* \"#utility.yul\":2796:2799   */\n      dup5\n        /* \"#utility.yul\":2792:2803   */\n      add\n        /* \"#utility.yul\":2785:2824   */\n      mstore\n        /* \"#utility.yul\":2757:2759   */\n      0x20\n        /* \"#utility.yul\":2754:2755   */\n      dup2\n        /* \"#utility.yul\":2750:2760   */\n      add\n        /* \"#utility.yul\":2745:2760   */\n      swap1\n      pop\n        /* \"#utility.yul\":2721:2834   */\n      jump(tag_267)\n    tag_269:\n        /* \"#utility.yul\":2868:2869   */\n      0x00\n        /* \"#utility.yul\":2859:2865   */\n      dup5\n        /* \"#utility.yul\":2854:2857   */\n      dup5\n        /* \"#utility.yul\":2850:2866   */\n      add\n        /* \"#utility.yul\":2843:2870   */\n      mstore\n        /* \"#utility.yul\":2692:2876   */\n      pop\n        /* \"#utility.yul\":2630:2876   */\n      pop\n      pop\n      pop\n      jump\t// out\n        /* \"#utility.yul\":2882:2984   */\n    tag_188:\n        /* \"#utility.yul\":2923:2929   */\n      0x00\n        /* \"#utility.yul\":2974:2976   */\n      0x1f\n        /* \"#utility.yul\":2970:2977   */\n      not\n        /* \"#utility.yul\":2965:2967   */\n      0x1f\n        /* \"#utility.yul\":2958:2963   */\n      dup4\n        /* \"#utility.yul\":2954:2968   */\n      add\n        /* \"#utility.yul\":2950:2978   */\n      and\n        /* \"#utility.yul\":2940:2978   */\n      swap1\n      pop\n        /* \"#utility.yul\":2882:2984   */\n      swap2\n      swap1\n      pop\n      jump\t// out\n        /* \"#utility.yul\":2990:3347   */\n    tag_189:\n        /* \"#utility.yul\":3068:3071   */\n      0x00\n        /* \"#utility.yul\":3096:3135   */\n      tag_272\n        /* \"#utility.yul\":3129:3134   */\n      dup3\n        /* \"#utility.yul\":3096:3135   */\n      tag_185\n      jump\t// in\n    tag_272:\n        /* \"#utility.yul\":3151:3212   */\n      tag_273\n        /* \"#utility.yul\":3205:3211   */\n      dup2\n        /* \"#utility.yul\":3200:3203   */\n      dup6\n        /* \"#utility.yul\":3151:3212   */\n      tag_186\n      jump\t// in\n    tag_273:\n        /* \"#utility.yul\":3144:3212   */\n      swap4\n      pop\n        /* \"#utility.yul\":3221:3286   */\n      tag_274\n        /* \"#utility.yul\":3279:3285   */\n      dup2\n        /* \"#utility.yul\":3274:3277   */\n      dup6\n        /* \"#utility.yul\":3267:3271   */\n      0x20\n        /* \"#utility.yul\":3260:3265   */\n      dup7\n        /* \"#utility.yul\":3256:3272   */\n      add\n        /* \"#utility.yul\":3221:3286   */\n      tag_187\n      jump\t// in\n    tag_274:\n        /* \"#utility.yul\":3311:3340   */\n      tag_275\n        /* \"#utility.yul\":3333:3339   */\n      dup2\n        /* \"#utility.yul\":3311:3340   */\n      tag_188\n      jump\t// in\n    tag_275:\n        /* \"#utility.yul\":3306:3309   */\n      dup5\n        /* \"#utility.yul\":3302:3341   */\n      add\n        /* \"#utility.yul\":3295:3341   */\n      swap2\n      pop\n        /* \"#utility.yul\":3072:3347   */\n      pop\n        /* \"#utility.yul\":2990:3347   */\n      swap3\n      swap2\n      pop\n      pop\n      jump\t// out\n        /* \"#utility.yul\":3353:3452   */\n    tag_190:\n        /* \"#utility.yul\":3424:3445   */\n      tag_277\n        /* \"#utility.yul\":3439:3444   */\n      dup2\n        /* \"#utility.yul\":3424:3445   */\n      tag_179\n      jump\t// in\n    tag_277:\n        /* \"#utility.yul\":3419:3422   */\n      dup3\n        /* \"#utility.yul\":3412:3446   */\n      mstore\n        /* \"#utility.yul\":3353:3452   */\n      pop\n      pop\n      jump\t// out\n        /* \"#utility.yul\":3538:4151   */\n    tag_191:\n        /* \"#utility.yul\":3655:3658   */\n      0x00\n        /* \"#utility.yul\":3691:3695   */\n      0x40\n        /* \"#utility.yul\":3686:3689   */\n      dup4\n        /* \"#utility.yul\":3682:3696   */\n      add\n        /* \"#utility.yul\":3785:3789   */\n      0x00\n        /* \"#utility.yul\":3778:3783   */\n      dup4\n        /* \"#utility.yul\":3774:3790   */\n      add\n        /* \"#utility.yul\":3768:3791   */\n      mload\n        /* \"#utility.yul\":3838:3841   */\n      dup5\n        /* \"#utility.yul\":3832:3836   */\n      dup3\n        /* \"#utility.yul\":3828:3842   */\n      sub\n        /* \"#utility.yul\":3821:3825   */\n      0x00\n        /* \"#utility.yul\":3816:3819   */\n      dup7\n        /* \"#utility.yul\":3812:3826   */\n      add\n        /* \"#utility.yul\":3805:3843   */\n      mstore\n        /* \"#utility.yul\":3864:3937   */\n      tag_279\n        /* \"#utility.yul\":3932:3936   */\n      dup3\n        /* \"#utility.yul\":3918:3930   */\n      dup3\n        /* \"#utility.yul\":3864:3937   */\n      tag_189\n      jump\t// in\n    tag_279:\n        /* \"#utility.yul\":3856:3937   */\n      swap2\n      pop\n        /* \"#utility.yul\":3706:3948   */\n      pop\n        /* \"#utility.yul\":4038:4042   */\n      0x20\n        /* \"#utility.yul\":4031:4036   */\n      dup4\n        /* \"#utility.yul\":4027:4043   */\n      add\n        /* \"#utility.yul\":4021:4044   */\n      mload\n        /* \"#utility.yul\":4057:4114   */\n      tag_280\n        /* \"#utility.yul\":4108:4112   */\n      0x20\n        /* \"#utility.yul\":4103:4106   */\n      dup7\n        /* \"#utility.yul\":4099:4113   */\n      add\n        /* \"#utility.yul\":4085:4097   */\n      dup3\n        /* \"#utility.yul\":4057:4114   */\n      tag_190\n      jump\t// in\n    tag_280:\n        /* \"#utility.yul\":3958:4124   */\n      pop\n        /* \"#utility.yul\":4141:4145   */\n      dup1\n        /* \"#utility.yul\":4134:4145   */\n      swap2\n      pop\n        /* \"#utility.yul\":3660:4151   */\n      pop\n        /* \"#utility.yul\":3538:4151   */\n      swap3\n      swap2\n      pop\n      pop\n      jump\t// out\n        /* \"#utility.yul\":4157:4526   */\n    tag_31:\n        /* \"#utility.yul\":4298:4302   */\n      0x00\n        /* \"#utility.yul\":4336:4338   */\n      0x20\n        /* \"#utility.yul\":4325:4334   */\n      dup3\n        /* \"#utility.yul\":4321:4339   */\n      add\n        /* \"#utility.yul\":4313:4339   */\n      swap1\n      pop\n        /* \"#utility.yul\":4385:4394   */\n      dup2\n        /* \"#utility.yul\":4379:4383   */\n      dup2\n        /* \"#utility.yul\":4375:4395   */\n      sub\n        /* \"#utility.yul\":4371:4372   */\n      0x00\n        /* \"#utility.yul\":4360:4369   */\n      dup4\n        /* \"#utility.yul\":4356:4373   */\n      add\n        /* \"#utility.yul\":4349:4396   */\n      mstore\n        /* \"#utility.yul\":4413:4519   */\n      tag_282\n        /* \"#utility.yul\":4514:4518   */\n      dup2\n        /* \"#utility.yul\":4505:4511   */\n      dup5\n        /* \"#utility.yul\":4413:4519   */\n      tag_191\n      jump\t// in\n    tag_282:\n        /* \"#utility.yul\":4405:4519   */\n      swap1\n      pop\n        /* \"#utility.yul\":4157:4526   */\n      swap3\n      swap2\n      pop\n      pop\n      jump\t// out\n        /* \"#utility.yul\":4532:4609   */\n    tag_192:\n        /* \"#utility.yul\":4569:4576   */\n      0x00\n        /* \"#utility.yul\":4598:4603   */\n      dup2\n        /* \"#utility.yul\":4587:4603   */\n      swap1\n      pop\n        /* \"#utility.yul\":4532:4609   */\n      swap2\n      swap1\n      pop\n      jump\t// out\n        /* \"#utility.yul\":4615:4737   */\n    tag_193:\n        /* \"#utility.yul\":4688:4712   */\n      tag_285\n        /* \"#utility.yul\":4706:4711   */\n      dup2\n        /* \"#utility.yul\":4688:4712   */\n      tag_192\n      jump\t// in\n    tag_285:\n        /* \"#utility.yul\":4681:4686   */\n      dup2\n        /* \"#utility.yul\":4678:4713   */\n      eq\n        /* \"#utility.yul\":4668:4731   */\n      tag_286\n      jumpi\n        /* \"#utility.yul\":4727:4728   */\n      0x00\n        /* \"#utility.yul\":4724:4725   */\n      dup1\n        /* \"#utility.yul\":4717:4729   */\n      revert\n        /* \"#utility.yul\":4668:4731   */\n    tag_286:\n        /* \"#utility.yul\":4615:4737   */\n      pop\n      jump\t// out\n        /* \"#utility.yul\":4743:4882   */\n    tag_194:\n        /* \"#utility.yul\":4789:4794   */\n      0x00\n        /* \"#utility.yul\":4827:4833   */\n      dup2\n        /* \"#utility.yul\":4814:4834   */\n      calldataload\n        /* \"#utility.yul\":4805:4834   */\n      swap1\n      pop\n        /* \"#utility.yul\":4843:4876   */\n      tag_288\n        /* \"#utility.yul\":4870:4875   */\n      dup2\n        /* \"#utility.yul\":4843:4876   */\n      tag_193\n      jump\t// in\n    tag_288:\n        /* \"#utility.yul\":4743:4882   */\n      swap3\n      swap2\n      pop\n      pop\n      jump\t// out\n        /* \"#utility.yul\":4888:5217   */\n    tag_34:\n        /* \"#utility.yul\":4947:4953   */\n      0x00\n        /* \"#utility.yul\":4996:4998   */\n      0x20\n        /* \"#utility.yul\":4984:4993   */\n      dup3\n        /* \"#utility.yul\":4975:4982   */\n      dup5\n        /* \"#utility.yul\":4971:4994   */\n      sub\n        /* \"#utility.yul\":4967:4999   */\n      slt\n        /* \"#utility.yul\":4964:5083   */\n      iszero\n      tag_290\n      jumpi\n        /* \"#utility.yul\":5002:5081   */\n      tag_291\n      tag_174\n      jump\t// in\n    tag_291:\n        /* \"#utility.yul\":4964:5083   */\n    tag_290:\n        /* \"#utility.yul\":5122:5123   */\n      0x00\n        /* \"#utility.yul\":5147:5200   */\n      tag_292\n        /* \"#utility.yul\":5192:5199   */\n      dup5\n        /* \"#utility.yul\":5183:5189   */\n      dup3\n        /* \"#utility.yul\":5172:5181   */\n      dup6\n        /* \"#utility.yul\":5168:5190   */\n      add\n        /* \"#utility.yul\":5147:5200   */\n      tag_194\n      jump\t// in\n    tag_292:\n        /* \"#utility.yul\":5137:5200   */\n      swap2\n      pop\n        /* \"#utility.yul\":5093:5210   */\n      pop\n        /* \"#utility.yul\":4888:5217   */\n      swap3\n      swap2\n      pop\n      pop\n      jump\t// out\n        /* \"#utility.yul\":5223:5341   */\n    tag_195:\n        /* \"#utility.yul\":5310:5334   */\n      tag_294\n        /* \"#utility.yul\":5328:5333   */\n      dup2\n        /* \"#utility.yul\":5310:5334   */\n      tag_192\n      jump\t// in\n    tag_294:\n        /* \"#utility.yul\":5305:5308   */\n      dup3\n        /* \"#utility.yul\":5298:5335   */\n      mstore\n        /* \"#utility.yul\":5223:5341   */\n      pop\n      pop\n      jump\t// out\n        /* \"#utility.yul\":5347:5569   */\n    tag_37:\n        /* \"#utility.yul\":5440:5444   */\n      0x00\n        /* \"#utility.yul\":5478:5480   */\n      0x20\n        /* \"#utility.yul\":5467:5476   */\n      dup3\n        /* \"#utility.yul\":5463:5481   */\n      add\n        /* \"#utility.yul\":5455:5481   */\n      swap1\n      pop\n        /* \"#utility.yul\":5491:5562   */\n      tag_296\n        /* \"#utility.yul\":5559:5560   */\n      0x00\n        /* \"#utility.yul\":5548:5557   */\n      dup4\n        /* \"#utility.yul\":5544:5561   */\n      add\n        /* \"#utility.yul\":5535:5541   */\n      dup5\n        /* \"#utility.yul\":5491:5562   */\n      tag_195\n      jump\t// in\n    tag_296:\n        /* \"#utility.yul\":5347:5569   */\n      swap3\n      swap2\n      pop\n      pop\n      jump\t// out\n        /* \"#utility.yul\":5575:6049   */\n    tag_40:\n        /* \"#utility.yul\":5643:5649   */\n      0x00\n        /* \"#utility.yul\":5651:5657   */\n      dup1\n        /* \"#utility.yul\":5700:5702   */\n      0x40\n        /* \"#utility.yul\":5688:5697   */\n      dup4\n        /* \"#utility.yul\":5679:5686   */\n      dup6\n        /* \"#utility.yul\":5675:5698   */\n      sub\n        /* \"#utility.yul\":5671:5703   */\n      slt\n        /* \"#utility.yul\":5668:5787   */\n      iszero\n      tag_298\n      jumpi\n        /* \"#utility.yul\":5706:5785   */\n      tag_299\n      tag_174\n      jump\t// in\n    tag_299:\n        /* \"#utility.yul\":5668:5787   */\n    tag_298:\n        /* \"#utility.yul\":5826:5827   */\n      0x00\n        /* \"#utility.yul\":5851:5904   */\n      tag_300\n        /* \"#utility.yul\":5896:5903   */\n      dup6\n        /* \"#utility.yul\":5887:5893   */\n      dup3\n        /* \"#utility.yul\":5876:5885   */\n      dup7\n        /* \"#utility.yul\":5872:5894   */\n      add\n        /* \"#utility.yul\":5851:5904   */\n      tag_194\n      jump\t// in\n    tag_300:\n        /* \"#utility.yul\":5841:5904   */\n      swap3\n      pop\n        /* \"#utility.yul\":5797:5914   */\n      pop\n        /* \"#utility.yul\":5953:5955   */\n      0x20\n        /* \"#utility.yul\":5979:6032   */\n      tag_301\n        /* \"#utility.yul\":6024:6031   */\n      dup6\n        /* \"#utility.yul\":6015:6021   */\n      dup3\n        /* \"#utility.yul\":6004:6013   */\n      dup7\n        /* \"#utility.yul\":6000:6022   */\n      add\n        /* \"#utility.yul\":5979:6032   */\n      tag_184\n      jump\t// in\n    tag_301:\n        /* \"#utility.yul\":5969:6032   */\n      swap2\n      pop\n        /* \"#utility.yul\":5924:6042   */\n      pop\n        /* \"#utility.yul\":5575:6049   */\n      swap3\n      pop\n      swap3\n      swap1\n      pop\n      jump\t// out\n        /* \"#utility.yul\":6055:6172   */\n    tag_196:\n        /* \"#utility.yul\":6164:6165   */\n      0x00\n        /* \"#utility.yul\":6161:6162   */\n      dup1\n        /* \"#utility.yul\":6154:6166   */\n      revert\n        /* \"#utility.yul\":6178:6295   */\n    tag_197:\n        /* \"#utility.yul\":6287:6288   */\n      0x00\n        /* \"#utility.yul\":6284:6285   */\n      dup1\n        /* \"#utility.yul\":6277:6289   */\n      revert\n        /* \"#utility.yul\":6301:6481   */\n    tag_198:\n        /* \"#utility.yul\":6349:6426   */\n      0x4e487b7100000000000000000000000000000000000000000000000000000000\n        /* \"#utility.yul\":6346:6347   */\n      0x00\n        /* \"#utility.yul\":6339:6427   */\n      mstore\n        /* \"#utility.yul\":6446:6450   */\n      0x41\n        /* \"#utility.yul\":6443:6444   */\n      0x04\n        /* \"#utility.yul\":6436:6451   */\n      mstore\n        /* \"#utility.yul\":6470:6474   */\n      0x24\n        /* \"#utility.yul\":6467:6468   */\n      0x00\n        /* \"#utility.yul\":6460:6475   */\n      revert\n        /* \"#utility.yul\":6487:6768   */\n    tag_199:\n        /* \"#utility.yul\":6570:6597   */\n      tag_306\n        /* \"#utility.yul\":6592:6596   */\n      dup3\n        /* \"#utility.yul\":6570:6597   */\n      tag_188\n      jump\t// in\n    tag_306:\n        /* \"#utility.yul\":6562:6568   */\n      dup2\n        /* \"#utility.yul\":6558:6598   */\n      add\n        /* \"#utility.yul\":6700:6706   */\n      dup2\n        /* \"#utility.yul\":6688:6698   */\n      dup2\n        /* \"#utility.yul\":6685:6707   */\n      lt\n        /* \"#utility.yul\":6664:6682   */\n      0xffffffffffffffff\n        /* \"#utility.yul\":6652:6662   */\n      dup3\n        /* \"#utility.yul\":6649:6683   */\n      gt\n        /* \"#utility.yul\":6646:6708   */\n      or\n        /* \"#utility.yul\":6643:6731   */\n      iszero\n      tag_307\n      jumpi\n        /* \"#utility.yul\":6711:6729   */\n      tag_308\n      tag_198\n      jump\t// in\n    tag_308:\n        /* \"#utility.yul\":6643:6731   */\n    tag_307:\n        /* \"#utility.yul\":6751:6761   */\n      dup1\n        /* \"#utility.yul\":6747:6749   */\n      0x40\n        /* \"#utility.yul\":6740:6762   */\n      mstore\n        /* \"#utility.yul\":6530:6768   */\n      pop\n        /* \"#utility.yul\":6487:6768   */\n      pop\n      pop\n      jump\t// out\n        /* \"#utility.yul\":6774:6903   */\n    tag_200:\n        /* \"#utility.yul\":6808:6814   */\n      0x00\n        /* \"#utility.yul\":6835:6855   */\n      tag_310\n      tag_173\n      jump\t// in\n    tag_310:\n        /* \"#utility.yul\":6825:6855   */\n      swap1\n      pop\n        /* \"#utility.yul\":6864:6897   */\n      tag_311\n        /* \"#utility.yul\":6892:6896   */\n      dup3\n        /* \"#utility.yul\":6884:6890   */\n      dup3\n        /* \"#utility.yul\":6864:6897   */\n      tag_199\n      jump\t// in\n    tag_311:\n        /* \"#utility.yul\":6774:6903   */\n      swap2\n      swap1\n      pop\n      jump\t// out\n        /* \"#utility.yul\":6909:7217   */\n    tag_201:\n        /* \"#utility.yul\":6971:6975   */\n      0x00\n        /* \"#utility.yul\":7061:7079   */\n      0xffffffffffffffff\n        /* \"#utility.yul\":7053:7059   */\n      dup3\n        /* \"#utility.yul\":7050:7080   */\n      gt\n        /* \"#utility.yul\":7047:7103   */\n      iszero\n      tag_313\n      jumpi\n        /* \"#utility.yul\":7083:7101   */\n      tag_314\n      tag_198\n      jump\t// in\n    tag_314:\n        /* \"#utility.yul\":7047:7103   */\n    tag_313:\n        /* \"#utility.yul\":7121:7150   */\n      tag_315\n        /* \"#utility.yul\":7143:7149   */\n      dup3\n        /* \"#utility.yul\":7121:7150   */\n      tag_188\n      jump\t// in\n    tag_315:\n        /* \"#utility.yul\":7113:7150   */\n      swap1\n      pop\n        /* \"#utility.yul\":7205:7209   */\n      0x20\n        /* \"#utility.yul\":7199:7203   */\n      dup2\n        /* \"#utility.yul\":7195:7210   */\n      add\n        /* \"#utility.yul\":7187:7210   */\n      swap1\n      pop\n        /* \"#utility.yul\":6909:7217   */\n      swap2\n      swap1\n      pop\n      jump\t// out\n        /* \"#utility.yul\":7223:7369   */\n    tag_202:\n        /* \"#utility.yul\":7320:7326   */\n      dup3\n        /* \"#utility.yul\":7315:7318   */\n      dup2\n        /* \"#utility.yul\":7310:7313   */\n      dup4\n        /* \"#utility.yul\":7297:7327   */\n      calldatacopy\n        /* \"#utility.yul\":7361:7362   */\n      0x00\n        /* \"#utility.yul\":7352:7358   */\n      dup4\n        /* \"#utility.yul\":7347:7350   */\n      dup4\n        /* \"#utility.yul\":7343:7359   */\n      add\n        /* \"#utility.yul\":7336:7363   */\n      mstore\n        /* \"#utility.yul\":7223:7369   */\n      pop\n      pop\n      pop\n      jump\t// out\n        /* \"#utility.yul\":7375:7800   */\n    tag_203:\n        /* \"#utility.yul\":7453:7458   */\n      0x00\n        /* \"#utility.yul\":7478:7544   */\n      tag_318\n        /* \"#utility.yul\":7494:7543   */\n      tag_319\n        /* \"#utility.yul\":7536:7542   */\n      dup5\n        /* \"#utility.yul\":7494:7543   */\n      tag_201\n      jump\t// in\n    tag_319:\n        /* \"#utility.yul\":7478:7544   */\n      tag_200\n      jump\t// in\n    tag_318:\n        /* \"#utility.yul\":7469:7544   */\n      swap1\n      pop\n        /* \"#utility.yul\":7567:7573   */\n      dup3\n        /* \"#utility.yul\":7560:7565   */\n      dup2\n        /* \"#utility.yul\":7553:7574   */\n      mstore\n        /* \"#utility.yul\":7605:7609   */\n      0x20\n        /* \"#utility.yul\":7598:7603   */\n      dup2\n        /* \"#utility.yul\":7594:7610   */\n      add\n        /* \"#utility.yul\":7643:7646   */\n      dup5\n        /* \"#utility.yul\":7634:7640   */\n      dup5\n        /* \"#utility.yul\":7629:7632   */\n      dup5\n        /* \"#utility.yul\":7625:7641   */\n      add\n        /* \"#utility.yul\":7622:7647   */\n      gt\n        /* \"#utility.yul\":7619:7731   */\n      iszero\n      tag_320\n      jumpi\n        /* \"#utility.yul\":7650:7729   */\n      tag_321\n      tag_197\n      jump\t// in\n    tag_321:\n        /* \"#utility.yul\":7619:7731   */\n    tag_320:\n        /* \"#utility.yul\":7740:7794   */\n      tag_322\n        /* \"#utility.yul\":7787:7793   */\n      dup5\n        /* \"#utility.yul\":7782:7785   */\n      dup3\n        /* \"#utility.yul\":7777:7780   */\n      dup6\n        /* \"#utility.yul\":7740:7794   */\n      tag_202\n      jump\t// in\n    tag_322:\n        /* \"#utility.yul\":7459:7800   */\n      pop\n        /* \"#utility.yul\":7375:7800   */\n      swap4\n      swap3\n      pop\n      pop\n      pop\n      jump\t// out\n        /* \"#utility.yul\":7820:8160   */\n    tag_204:\n        /* \"#utility.yul\":7876:7881   */\n      0x00\n        /* \"#utility.yul\":7925:7928   */\n      dup3\n        /* \"#utility.yul\":7918:7922   */\n      0x1f\n        /* \"#utility.yul\":7910:7916   */\n      dup4\n        /* \"#utility.yul\":7906:7923   */\n      add\n        /* \"#utility.yul\":7902:7929   */\n      slt\n        /* \"#utility.yul\":7892:8014   */\n      tag_324\n      jumpi\n        /* \"#utility.yul\":7933:8012   */\n      tag_325\n      tag_196\n      jump\t// in\n    tag_325:\n        /* \"#utility.yul\":7892:8014   */\n    tag_324:\n        /* \"#utility.yul\":8050:8056   */\n      dup2\n        /* \"#utility.yul\":8037:8057   */\n      calldataload\n        /* \"#utility.yul\":8075:8154   */\n      tag_326\n        /* \"#utility.yul\":8150:8153   */\n      dup5\n        /* \"#utility.yul\":8142:8148   */\n      dup3\n        /* \"#utility.yul\":8135:8139   */\n      0x20\n        /* \"#utility.yul\":8127:8133   */\n      dup7\n        /* \"#utility.yul\":8123:8140   */\n      add\n        /* \"#utility.yul\":8075:8154   */\n      tag_203\n      jump\t// in\n    tag_326:\n        /* \"#utility.yul\":8066:8154   */\n      swap2\n      pop\n        /* \"#utility.yul\":7882:8160   */\n      pop\n        /* \"#utility.yul\":7820:8160   */\n      swap3\n      swap2\n      pop\n      pop\n      jump\t// out\n        /* \"#utility.yul\":8166:8675   */\n    tag_52:\n        /* \"#utility.yul\":8235:8241   */\n      0x00\n        /* \"#utility.yul\":8284:8286   */\n      0x20\n        /* \"#utility.yul\":8272:8281   */\n      dup3\n        /* \"#utility.yul\":8263:8270   */\n      dup5\n        /* \"#utility.yul\":8259:8282   */\n      sub\n        /* \"#utility.yul\":8255:8287   */\n      slt\n        /* \"#utility.yul\":8252:8371   */\n      iszero\n      tag_328\n      jumpi\n        /* \"#utility.yul\":8290:8369   */\n      tag_329\n      tag_174\n      jump\t// in\n    tag_329:\n        /* \"#utility.yul\":8252:8371   */\n    tag_328:\n        /* \"#utility.yul\":8438:8439   */\n      0x00\n        /* \"#utility.yul\":8427:8436   */\n      dup3\n        /* \"#utility.yul\":8423:8440   */\n      add\n        /* \"#utility.yul\":8410:8441   */\n      calldataload\n        /* \"#utility.yul\":8468:8486   */\n      0xffffffffffffffff\n        /* \"#utility.yul\":8460:8466   */\n      dup2\n        /* \"#utility.yul\":8457:8487   */\n      gt\n        /* \"#utility.yul\":8454:8571   */\n      iszero\n      tag_330\n      jumpi\n        /* \"#utility.yul\":8490:8569   */\n      tag_331\n      tag_175\n      jump\t// in\n    tag_331:\n        /* \"#utility.yul\":8454:8571   */\n    tag_330:\n        /* \"#utility.yul\":8595:8658   */\n      tag_332\n        /* \"#utility.yul\":8650:8657   */\n      dup5\n        /* \"#utility.yul\":8641:8647   */\n      dup3\n        /* \"#utility.yul\":8630:8639   */\n      dup6\n        /* \"#utility.yul\":8626:8648   */\n      add\n        /* \"#utility.yul\":8595:8658   */\n      tag_204\n      jump\t// in\n    tag_332:\n        /* \"#utility.yul\":8585:8658   */\n      swap2\n      pop\n        /* \"#utility.yul\":8381:8668   */\n      pop\n        /* \"#utility.yul\":8166:8675   */\n      swap3\n      swap2\n      pop\n      pop\n      jump\t// out\n        /* \"#utility.yul\":8681:8861   */\n    tag_205:\n        /* \"#utility.yul\":8729:8806   */\n      0x4e487b7100000000000000000000000000000000000000000000000000000000\n        /* \"#utility.yul\":8726:8727   */\n      0x00\n        /* \"#utility.yul\":8719:8807   */\n      mstore\n        /* \"#utility.yul\":8826:8830   */\n      0x22\n        /* \"#utility.yul\":8823:8824   */\n      0x04\n        /* \"#utility.yul\":8816:8831   */\n      mstore\n        /* \"#utility.yul\":8850:8854   */\n      0x24\n        /* \"#utility.yul\":8847:8848   */\n      0x00\n        /* \"#utility.yul\":8840:8855   */\n      revert\n        /* \"#utility.yul\":8867:9187   */\n    tag_79:\n        /* \"#utility.yul\":8911:8917   */\n      0x00\n        /* \"#utility.yul\":8948:8949   */\n      0x02\n        /* \"#utility.yul\":8942:8946   */\n      dup3\n        /* \"#utility.yul\":8938:8950   */\n      div\n        /* \"#utility.yul\":8928:8950   */\n      swap1\n      pop\n        /* \"#utility.yul\":8995:8996   */\n      0x01\n        /* \"#utility.yul\":8989:8993   */\n      dup3\n        /* \"#utility.yul\":8985:8997   */\n      and\n        /* \"#utility.yul\":9016:9034   */\n      dup1\n        /* \"#utility.yul\":9006:9087   */\n      tag_335\n      jumpi\n        /* \"#utility.yul\":9072:9076   */\n      0x7f\n        /* \"#utility.yul\":9064:9070   */\n      dup3\n        /* \"#utility.yul\":9060:9077   */\n      and\n        /* \"#utility.yul\":9050:9077   */\n      swap2\n      pop\n        /* \"#utility.yul\":9006:9087   */\n    tag_335:\n        /* \"#utility.yul\":9134:9136   */\n      0x20\n        /* \"#utility.yul\":9126:9132   */\n      dup3\n        /* \"#utility.yul\":9123:9137   */\n      lt\n        /* \"#utility.yul\":9103:9121   */\n      dup2\n        /* \"#utility.yul\":9100:9138   */\n      sub\n        /* \"#utility.yul\":9097:9181   */\n      tag_336\n      jumpi\n        /* \"#utility.yul\":9153:9171   */\n      tag_337\n      tag_205\n      jump\t// in\n    tag_337:\n        /* \"#utility.yul\":9097:9181   */\n    tag_336:\n        /* \"#utility.yul\":8918:9187   */\n      pop\n        /* \"#utility.yul\":8867:9187   */\n      swap2\n      swap1\n      pop\n      jump\t// out\n        /* \"#utility.yul\":9193:9362   */\n    tag_206:\n        /* \"#utility.yul\":9277:9288   */\n      0x00\n        /* \"#utility.yul\":9311:9317   */\n      dup3\n        /* \"#utility.yul\":9306:9309   */\n      dup3\n        /* \"#utility.yul\":9299:9318   */\n      mstore\n        /* \"#utility.yul\":9351:9355   */\n      0x20\n        /* \"#utility.yul\":9346:9349   */\n      dup3\n        /* \"#utility.yul\":9342:9356   */\n      add\n        /* \"#utility.yul\":9327:9356   */\n      swap1\n      pop\n        /* \"#utility.yul\":9193:9362   */\n      swap3\n      swap2\n      pop\n      pop\n      jump\t// out\n        /* \"#utility.yul\":9368:9606   */\n    tag_207:\n        /* \"#utility.yul\":9508:9542   */\n      0x436f6e7472696275746f7252656769737472793a204772616e7420726f6c6520\n        /* \"#utility.yul\":9504:9505   */\n      0x00\n        /* \"#utility.yul\":9496:9502   */\n      dup3\n        /* \"#utility.yul\":9492:9506   */\n      add\n        /* \"#utility.yul\":9485:9543   */\n      mstore\n        /* \"#utility.yul\":9577:9598   */\n      0x746f20746865207a65726f206164647265737300000000000000000000000000\n        /* \"#utility.yul\":9572:9574   */\n      0x20\n        /* \"#utility.yul\":9564:9570   */\n      dup3\n        /* \"#utility.yul\":9560:9575   */\n      add\n        /* \"#utility.yul\":9553:9599   */\n      mstore\n        /* \"#utility.yul\":9368:9606   */\n      pop\n      jump\t// out\n        /* \"#utility.yul\":9612:9978   */\n    tag_208:\n        /* \"#utility.yul\":9754:9757   */\n      0x00\n        /* \"#utility.yul\":9775:9842   */\n      tag_341\n        /* \"#utility.yul\":9839:9841   */\n      0x33\n        /* \"#utility.yul\":9834:9837   */\n      dup4\n        /* \"#utility.yul\":9775:9842   */\n      tag_206\n      jump\t// in\n    tag_341:\n        /* \"#utility.yul\":9768:9842   */\n      swap2\n      pop\n        /* \"#utility.yul\":9851:9944   */\n      tag_342\n        /* \"#utility.yul\":9940:9943   */\n      dup3\n        /* \"#utility.yul\":9851:9944   */\n      tag_207\n      jump\t// in\n    tag_342:\n        /* \"#utility.yul\":9969:9971   */\n      0x40\n        /* \"#utility.yul\":9964:9967   */\n      dup3\n        /* \"#utility.yul\":9960:9972   */\n      add\n        /* \"#utility.yul\":9953:9972   */\n      swap1\n      pop\n        /* \"#utility.yul\":9612:9978   */\n      swap2\n      swap1\n      pop\n      jump\t// out\n        /* \"#utility.yul\":9984:10403   */\n    tag_94:\n        /* \"#utility.yul\":10150:10154   */\n      0x00\n        /* \"#utility.yul\":10188:10190   */\n      0x20\n        /* \"#utility.yul\":10177:10186   */\n      dup3\n        /* \"#utility.yul\":10173:10191   */\n      add\n        /* \"#utility.yul\":10165:10191   */\n      swap1\n      pop\n        /* \"#utility.yul\":10237:10246   */\n      dup2\n        /* \"#utility.yul\":10231:10235   */\n      dup2\n        /* \"#utility.yul\":10227:10247   */\n      sub\n        /* \"#utility.yul\":10223:10224   */\n      0x00\n        /* \"#utility.yul\":10212:10221   */\n      dup4\n        /* \"#utility.yul\":10208:10225   */\n      add\n        /* \"#utility.yul\":10201:10248   */\n      mstore\n        /* \"#utility.yul\":10265:10396   */\n      tag_344\n        /* \"#utility.yul\":10391:10395   */\n      dup2\n        /* \"#utility.yul\":10265:10396   */\n      tag_208\n      jump\t// in\n    tag_344:\n        /* \"#utility.yul\":10257:10396   */\n      swap1\n      pop\n        /* \"#utility.yul\":9984:10403   */\n      swap2\n      swap1\n      pop\n      jump\t// out\n        /* \"#utility.yul\":10409:10550   */\n    tag_209:\n        /* \"#utility.yul\":10458:10462   */\n      0x00\n        /* \"#utility.yul\":10481:10484   */\n      dup2\n        /* \"#utility.yul\":10473:10484   */\n      swap1\n      pop\n        /* \"#utility.yul\":10504:10507   */\n      dup2\n        /* \"#utility.yul\":10501:10502   */\n      0x00\n        /* \"#utility.yul\":10494:10508   */\n      mstore\n        /* \"#utility.yul\":10538:10542   */\n      0x20\n        /* \"#utility.yul\":10535:10536   */\n      0x00\n        /* \"#utility.yul\":10525:10543   */\n      keccak256\n        /* \"#utility.yul\":10517:10543   */\n      swap1\n      pop\n        /* \"#utility.yul\":10409:10550   */\n      swap2\n      swap1\n      pop\n      jump\t// out\n        /* \"#utility.yul\":10556:10649   */\n    tag_210:\n        /* \"#utility.yul\":10593:10599   */\n      0x00\n        /* \"#utility.yul\":10640:10642   */\n      0x20\n        /* \"#utility.yul\":10635:10637   */\n      0x1f\n        /* \"#utility.yul\":10628:10633   */\n      dup4\n        /* \"#utility.yul\":10624:10638   */\n      add\n        /* \"#utility.yul\":10620:10643   */\n      div\n        /* \"#utility.yul\":10610:10643   */\n      swap1\n      pop\n        /* \"#utility.yul\":10556:10649   */\n      swap2\n      swap1\n      pop\n      jump\t// out\n        /* \"#utility.yul\":10655:10762   */\n    tag_211:\n        /* \"#utility.yul\":10699:10707   */\n      0x00\n        /* \"#utility.yul\":10749:10754   */\n      dup3\n        /* \"#utility.yul\":10743:10747   */\n      dup3\n        /* \"#utility.yul\":10739:10755   */\n      shl\n        /* \"#utility.yul\":10718:10755   */\n      swap1\n      pop\n        /* \"#utility.yul\":10655:10762   */\n      swap3\n      swap2\n      pop\n      pop\n      jump\t// out\n        /* \"#utility.yul\":10768:11161   */\n    tag_212:\n        /* \"#utility.yul\":10837:10843   */\n      0x00\n        /* \"#utility.yul\":10887:10888   */\n      0x08\n        /* \"#utility.yul\":10875:10885   */\n      dup4\n        /* \"#utility.yul\":10871:10889   */\n      mul\n        /* \"#utility.yul\":10910:11007   */\n      tag_349\n        /* \"#utility.yul\":10940:11006   */\n      0xffffffffffffffffffffffffffffffffffffffffffffffffffffffffffffffff\n        /* \"#utility.yul\":10929:10938   */\n      dup3\n        /* \"#utility.yul\":10910:11007   */\n      tag_211\n      jump\t// in\n    tag_349:\n        /* \"#utility.yul\":11028:11067   */\n      tag_350\n        /* \"#utility.yul\":11058:11066   */\n      dup7\n        /* \"#utility.yul\":11047:11056   */\n      dup4\n        /* \"#utility.yul\":11028:11067   */\n      tag_211\n      jump\t// in\n    tag_350:\n        /* \"#utility.yul\":11016:11067   */\n      swap6\n      pop\n        /* \"#utility.yul\":11100:11104   */\n      dup1\n        /* \"#utility.yul\":11096:11105   */\n      not\n        /* \"#utility.yul\":11089:11094   */\n      dup5\n        /* \"#utility.yul\":11085:11106   */\n      and\n        /* \"#utility.yul\":11076:11106   */\n      swap4\n      pop\n        /* \"#utility.yul\":11149:11153   */\n      dup1\n        /* \"#utility.yul\":11139:11147   */\n      dup7\n        /* \"#utility.yul\":11135:11154   */\n      and\n        /* \"#utility.yul\":11128:11133   */\n      dup5\n        /* \"#utility.yul\":11125:11155   */\n      or\n        /* \"#utility.yul\":11115:11155   */\n      swap3\n      pop\n        /* \"#utility.yul\":10844:11161   */\n      pop\n      pop\n        /* \"#utility.yul\":10768:11161   */\n      swap4\n      swap3\n      pop\n      pop\n      pop\n      jump\t// out\n        /* \"#utility.yul\":11167:11244   */\n    tag_213:\n        /* \"#utility.yul\":11204:11211   */\n      0x00\n        /* \"#utility.yul\":11233:11238   */\n      dup2\n        /* \"#utility.yul\":11222:11238   */\n      swap1\n      pop\n        /* \"#utility.yul\":11167:11244   */\n      swap2\n      swap1\n      pop\n      jump\t// out\n        /* \"#utility.yul\":11250:11310   */\n    tag_214:\n        /* \"#utility.yul\":11278:11281   */\n      0x00\n        /* \"#utility.yul\":11299:11304   */\n      dup2\n        /* \"#utility.yul\":11292:11304   */\n      swap1\n      pop\n        /* \"#utility.yul\":11250:11310   */\n      swap2\n      swap1\n      pop\n      jump\t// out\n        /* \"#utility.yul\":11316:11458   */\n    tag_215:\n        /* \"#utility.yul\":11366:11375   */\n      0x00\n        /* \"#utility.yul\":11399:11452   */\n      tag_354\n        /* \"#utility.yul\":11417:11451   */\n      tag_355\n        /* \"#utility.yul\":11426:11450   */\n      tag_356\n        /* \"#utility.yul\":11444:11449   */\n      dup5\n        /* \"#utility.yul\":11426:11450   */\n      tag_213\n      jump\t// in\n    tag_356:\n        /* \"#utility.yul\":11417:11451   */\n      tag_214\n      jump\t// in\n    tag_355:\n        /* \"#utility.yul\":11399:11452   */\n      tag_213\n      jump\t// in\n    tag_354:\n        /* \"#utility.yul\":11386:11452   */\n      swap1\n      pop\n        /* \"#utility.yul\":11316:11458   */\n      swap2\n      swap1\n      pop\n      jump\t// out\n        /* \"#utility.yul\":11464:11539   */\n    tag_216:\n        /* \"#utility.yul\":11507:11510   */\n      0x00\n        /* \"#utility.yul\":11528:11533   */\n      dup2\n        /* \"#utility.yul\":11521:11533   */\n      swap1\n      pop\n        /* \"#utility.yul\":11464:11539   */\n      swap2\n      swap1\n      pop\n      jump\t// out\n        /* \"#utility.yul\":11545:11814   */\n    tag_217:\n        /* \"#utility.yul\":11655:11694   */\n      tag_359\n        /* \"#utility.yul\":11686:11693   */\n      dup4\n        /* \"#utility.yul\":11655:11694   */\n      tag_215\n      jump\t// in\n    tag_359:\n        /* \"#utility.yul\":11716:11807   */\n      tag_360\n        /* \"#utility.yul\":11765:11806   */\n      tag_361\n        /* \"#utility.yul\":11789:11805   */\n      dup3\n        /* \"#utility.yul\":11765:11806   */\n      tag_216\n      jump\t// in\n    tag_361:\n        /* \"#utility.yul\":11757:11763   */\n      dup5\n        /* \"#utility.yul\":11750:11754   */\n      dup5\n        /* \"#utility.yul\":11744:11755   */\n      sload\n        /* \"#utility.yul\":11716:11807   */\n      tag_212\n      jump\t// in\n    tag_360:\n        /* \"#utility.yul\":11710:11714   */\n      dup3\n        /* \"#utility.yul\":11703:11808   */\n      sstore\n        /* \"#utility.yul\":11621:11814   */\n      pop\n        /* \"#utility.yul\":11545:11814   */\n      pop\n      pop\n      pop\n      jump\t// out\n        /* \"#utility.yul\":11820:11893   */\n    tag_218:\n        /* \"#utility.yul\":11865:11868   */\n      0x00\n        /* \"#utility.yul\":11820:11893   */\n      swap1\n      jump\t// out\n        /* \"#utility.yul\":11899:12088   */\n    tag_219:\n        /* \"#utility.yul\":11976:12008   */\n      tag_364\n      tag_218\n      jump\t// in\n    tag_364:\n        /* \"#utility.yul\":12017:12082   */\n      tag_365\n        /* \"#utility.yul\":12075:12081   */\n      dup2\n        /* \"#utility.yul\":12067:12073   */\n      dup5\n        /* \"#utility.yul\":12061:12065   */\n      dup5\n        /* \"#utility.yul\":12017:12082   */\n      tag_217\n      jump\t// in\n    tag_365:\n        /* \"#utility.yul\":11952:12088   */\n      pop\n        /* \"#utility.yul\":11899:12088   */\n      pop\n      pop\n      jump\t// out\n        /* \"#utility.yul\":12094:12280   */\n    tag_220:\n        /* \"#utility.yul\":12154:12274   */\n    tag_367:\n        /* \"#utility.yul\":12171:12174   */\n      dup2\n        /* \"#utility.yul\":12164:12169   */\n      dup2\n        /* \"#utility.yul\":12161:12175   */\n      lt\n        /* \"#utility.yul\":12154:12274   */\n      iszero\n      tag_369\n      jumpi\n        /* \"#utility.yul\":12225:12264   */\n      tag_370\n        /* \"#utility.yul\":12262:12263   */\n      0x00\n        /* \"#utility.yul\":12255:12260   */\n      dup3\n        /* \"#utility.yul\":12225:12264   */\n      tag_219\n      jump\t// in\n    tag_370:\n        /* \"#utility.yul\":12198:12199   */\n      0x01\n        /* \"#utility.yul\":12191:12196   */\n      dup2\n        /* \"#utility.yul\":12187:12200   */\n      add\n        /* \"#utility.yul\":12178:12200   */\n      swap1\n      pop\n        /* \"#utility.yul\":12154:12274   */\n      jump(tag_367)\n    tag_369:\n        /* \"#utility.yul\":12094:12280   */\n      pop\n      pop\n      jump\t// out\n        /* \"#utility.yul\":12286:12829   */\n    tag_221:\n        /* \"#utility.yul\":12387:12389   */\n      0x1f\n        /* \"#utility.yul\":12382:12385   */\n      dup3\n        /* \"#utility.yul\":12379:12390   */\n      gt\n        /* \"#utility.yul\":12376:12822   */\n      iszero\n      tag_372\n      jumpi\n        /* \"#utility.yul\":12421:12459   */\n      tag_373\n        /* \"#utility.yul\":12453:12458   */\n      dup2\n        /* \"#utility.yul\":12421:12459   */\n      tag_209\n      jump\t// in\n    tag_373:\n        /* \"#utility.yul\":12505:12534   */\n      tag_374\n        /* \"#utility.yul\":12523:12533   */\n      dup5\n        /* \"#utility.yul\":12505:12534   */\n      tag_210\n      jump\t// in\n    tag_374:\n        /* \"#utility.yul\":12495:12503   */\n      dup2\n        /* \"#utility.yul\":12491:12535   */\n      add\n        /* \"#utility.yul\":12688:12690   */\n      0x20\n        /* \"#utility.yul\":12676:12686   */\n      dup6\n        /* \"#utility.yul\":12673:12691   */\n      lt\n        /* \"#utility.yul\":12670:12719   */\n      iszero\n      tag_375\n      jumpi\n        /* \"#utility.yul\":12709:12717   */\n      dup2\n        /* \"#utility.yul\":12694:12717   */\n      swap1\n      pop\n        /* \"#utility.yul\":12670:12719   */\n    tag_375:\n        /* \"#utility.yul\":12732:12812   */\n      tag_376\n        /* \"#utility.yul\":12788:12810   */\n      tag_377\n        /* \"#utility.yul\":12806:12809   */\n      dup6\n        /* \"#utility.yul\":12788:12810   */\n      tag_210\n      jump\t// in\n    tag_377:\n        /* \"#utility.yul\":12778:12786   */\n      dup4\n        /* \"#utility.yul\":12774:12811   */\n      add\n        /* \"#utility.yul\":12761:12772   */\n      dup3\n        /* \"#utility.yul\":12732:12812   */\n      tag_220\n      jump\t// in\n    tag_376:\n        /* \"#utility.yul\":12391:12822   */\n      pop\n      pop\n        /* \"#utility.yul\":12376:12822   */\n    tag_372:\n        /* \"#utility.yul\":12286:12829   */\n      pop\n      pop\n      pop\n      jump\t// out\n        /* \"#utility.yul\":12835:12952   */\n    tag_222:\n        /* \"#utility.yul\":12889:12897   */\n      0x00\n        /* \"#utility.yul\":12939:12944   */\n      dup3\n        /* \"#utility.yul\":12933:12937   */\n      dup3\n        /* \"#utility.yul\":12929:12945   */\n      shr\n        /* \"#utility.yul\":12908:12945   */\n      swap1\n      pop\n        /* \"#utility.yul\":12835:12952   */\n      swap3\n      swap2\n      pop\n      pop\n      jump\t// out\n        /* \"#utility.yul\":12958:13127   */\n    tag_223:\n        /* \"#utility.yul\":13002:13008   */\n      0x00\n        /* \"#utility.yul\":13035:13086   */\n      tag_380\n        /* \"#utility.yul\":13083:13084   */\n      0x00\n        /* \"#utility.yul\":13079:13085   */\n      not\n        /* \"#utility.yul\":13071:13076   */\n      dup5\n        /* \"#utility.yul\":13068:13069   */\n      0x08\n        /* \"#utility.yul\":13064:13077   */\n      mul\n        /* \"#utility.yul\":13035:13086   */\n      tag_222\n      jump\t// in\n    tag_380:\n        /* \"#utility.yul\":13031:13087   */\n      not\n        /* \"#utility.yul\":13116:13120   */\n      dup1\n        /* \"#utility.yul\":13110:13114   */\n      dup4\n        /* \"#utility.yul\":13106:13121   */\n      and\n        /* \"#utility.yul\":13096:13121   */\n      swap2\n      pop\n        /* \"#utility.yul\":13009:13127   */\n      pop\n        /* \"#utility.yul\":12958:13127   */\n      swap3\n      swap2\n      pop\n      pop\n      jump\t// out\n        /* \"#utility.yul\":13132:13427   */\n    tag_224:\n        /* \"#utility.yul\":13208:13212   */\n      0x00\n        /* \"#utility.yul\":13354:13383   */\n      tag_382\n        /* \"#utility.yul\":13379:13382   */\n      dup4\n        /* \"#utility.yul\":13373:13377   */\n      dup4\n        /* \"#utility.yul\":13354:13383   */\n      tag_223\n      jump\t// in\n    tag_382:\n        /* \"#utility.yul\":13346:13383   */\n      swap2\n      pop\n        /* \"#utility.yul\":13416:13419   */\n      dup3\n        /* \"#utility.yul\":13413:13414   */\n      0x02\n        /* \"#utility.yul\":13409:13420   */\n      mul\n        /* \"#utility.yul\":13403:13407   */\n      dup3\n        /* \"#utility.yul\":13400:13421   */\n      or\n        /* \"#utility.yul\":13392:13421   */\n      swap1\n      pop\n        /* \"#utility.yul\":13132:13427   */\n      swap3\n      swap2\n      pop\n      pop\n      jump\t// out\n        /* \"#utility.yul\":13432:14827   */\n    tag_113:\n        /* \"#utility.yul\":13549:13586   */\n      tag_384\n        /* \"#utility.yul\":13582:13585   */\n      dup3\n        /* \"#utility.yul\":13549:13586   */\n      tag_185\n      jump\t// in\n    tag_384:\n        /* \"#utility.yul\":13651:13669   */\n      0xffffffffffffffff\n        /* \"#utility.yul\":13643:13649   */\n      dup2\n        /* \"#utility.yul\":13640:13670   */\n      gt\n        /* \"#utility.yul\":13637:13693   */\n      iszero\n      tag_385\n      jumpi\n        /* \"#utility.yul\":13673:13691   */\n      tag_386\n      tag_198\n      jump\t// in\n    tag_386:\n        /* \"#utility.yul\":13637:13693   */\n    tag_385:\n        /* \"#utility.yul\":13717:13755   */\n      tag_387\n        /* \"#utility.yul\":13749:13753   */\n      dup3\n        /* \"#utility.yul\":13743:13754   */\n      sload\n        /* \"#utility.yul\":13717:13755   */\n      tag_79\n      jump\t// in\n    tag_387:\n        /* \"#utility.yul\":13802:13869   */\n      tag_388\n        /* \"#utility.yul\":13862:13868   */\n      dup3\n        /* \"#utility.yul\":13854:13860   */\n      dup3\n        /* \"#utility.yul\":13848:13852   */\n      dup6\n        /* \"#utility.yul\":13802:13869   */\n      tag_221\n      jump\t// in\n    tag_388:\n        /* \"#utility.yul\":13896:13897   */\n      0x00\n        /* \"#utility.yul\":13920:13924   */\n      0x20\n        /* \"#utility.yul\":13907:13924   */\n      swap1\n      pop\n        /* \"#utility.yul\":13952:13954   */\n      0x1f\n        /* \"#utility.yul\":13944:13950   */\n      dup4\n        /* \"#utility.yul\":13941:13955   */\n      gt\n        /* \"#utility.yul\":13969:13970   */\n      0x01\n        /* \"#utility.yul\":13964:14582   */\n      dup2\n      eq\n      tag_390\n      jumpi\n        /* \"#utility.yul\":14626:14627   */\n      0x00\n        /* \"#utility.yul\":14643:14649   */\n      dup5\n        /* \"#utility.yul\":14640:14717   */\n      iszero\n      tag_391\n      jumpi\n        /* \"#utility.yul\":14692:14701   */\n      dup3\n        /* \"#utility.yul\":14687:14690   */\n      dup8\n        /* \"#utility.yul\":14683:14702   */\n      add\n        /* \"#utility.yul\":14677:14703   */\n      mload\n        /* \"#utility.yul\":14668:14703   */\n      swap1\n      pop\n        /* \"#utility.yul\":14640:14717   */\n    tag_391:\n        /* \"#utility.yul\":14743:14810   */\n      tag_392\n        /* \"#utility.yul\":14803:14809   */\n      dup6\n        /* \"#utility.yul\":14796:14801   */\n      dup3\n        /* \"#utility.yul\":14743:14810   */\n      tag_224\n      jump\t// in\n    tag_392:\n        /* \"#utility.yul\":14737:14741   */\n      dup7\n        /* \"#utility.yul\":14730:14811   */\n      sstore\n        /* \"#utility.yul\":14599:14821   */\n      pop\n        /* \"#utility.yul\":13934:14821   */\n      jump(tag_389)\n        /* \"#utility.yul\":13964:14582   */\n    tag_390:\n        /* \"#utility.yul\":14016:14020   */\n      0x1f\n        /* \"#utility.yul\":14012:14021   */\n      not\n        /* \"#utility.yul\":14004:14010   */\n      dup5\n        /* \"#utility.yul\":14000:14022   */\n      and\n        /* \"#utility.yul\":14050:14087   */\n      tag_393\n        /* \"#utility.yul\":14082:14086   */\n      dup7\n        /* \"#utility.yul\":14050:14087   */\n      tag_209\n      jump\t// in\n    tag_393:\n        /* \"#utility.yul\":14109:14110   */\n      0x00\n        /* \"#utility.yul\":14123:14331   */\n    tag_394:\n        /* \"#utility.yul\":14137:14144   */\n      dup3\n        /* \"#utility.yul\":14134:14135   */\n      dup2\n        /* \"#utility.yul\":14131:14145   */\n      lt\n        /* \"#utility.yul\":14123:14331   */\n      iszero\n      tag_396\n      jumpi\n        /* \"#utility.yul\":14216:14225   */\n      dup5\n        /* \"#utility.yul\":14211:14214   */\n      dup10\n        /* \"#utility.yul\":14207:14226   */\n      add\n        /* \"#utility.yul\":14201:14227   */\n      mload\n        /* \"#utility.yul\":14193:14199   */\n      dup3\n        /* \"#utility.yul\":14186:14228   */\n      sstore\n        /* \"#utility.yul\":14267:14268   */\n      0x01\n        /* \"#utility.yul\":14259:14265   */\n      dup3\n        /* \"#utility.yul\":14255:14269   */\n      add\n        /* \"#utility.yul\":14245:14269   */\n      swap2\n      pop\n        /* \"#utility.yul\":14314:14316   */\n      0x20\n        /* \"#utility.yul\":14303:14312   */\n      dup6\n        /* \"#utility.yul\":14299:14317   */\n      add\n        /* \"#utility.yul\":14286:14317   */\n      swap5\n      pop\n        /* \"#utility.yul\":14160:14164   */\n      0x20\n        /* \"#utility.yul\":14157:14158   */\n      dup2\n        /* \"#utility.yul\":14153:14165   */\n      add\n        /* \"#utility.yul\":14148:14165   */\n      swap1\n      pop\n        /* \"#utility.yul\":14123:14331   */\n      jump(tag_394)\n    tag_396:\n        /* \"#utility.yul\":14359:14365   */\n      dup7\n        /* \"#utility.yul\":14350:14357   */\n      dup4\n        /* \"#utility.yul\":14347:14366   */\n      lt\n        /* \"#utility.yul\":14344:14523   */\n      iszero\n      tag_397\n      jumpi\n        /* \"#utility.yul\":14417:14426   */\n      dup5\n        /* \"#utility.yul\":14412:14415   */\n      dup10\n        /* \"#utility.yul\":14408:14427   */\n      add\n        /* \"#utility.yul\":14402:14428   */\n      mload\n        /* \"#utility.yul\":14460:14508   */\n      tag_398\n        /* \"#utility.yul\":14502:14506   */\n      0x1f\n        /* \"#utility.yul\":14494:14500   */\n      dup10\n        /* \"#utility.yul\":14490:14507   */\n      and\n        /* \"#utility.yul\":14479:14488   */\n      dup3\n        /* \"#utility.yul\":14460:14508   */\n      tag_223\n      jump\t// in\n    tag_398:\n        /* \"#utility.yul\":14452:14458   */\n      dup4\n        /* \"#utility.yul\":14445:14509   */\n      sstore\n        /* \"#utility.yul\":14367:14523   */\n      pop\n        /* \"#utility.yul\":14344:14523   */\n    tag_397:\n        /* \"#utility.yul\":14569:14570   */\n      0x01\n        /* \"#utility.yul\":14565:14566   */\n      0x02\n        /* \"#utility.yul\":14557:14563   */\n      dup9\n        /* \"#utility.yul\":14553:14567   */\n      mul\n        /* \"#utility.yul\":14549:14571   */\n      add\n        /* \"#utility.yul\":14543:14547   */\n      dup9\n        /* \"#utility.yul\":14536:14572   */\n      sstore\n        /* \"#utility.yul\":13971:14582   */\n      pop\n      pop\n      pop\n        /* \"#utility.yul\":13934:14821   */\n    tag_389:\n      pop\n        /* \"#utility.yul\":13524:14827   */\n      pop\n      pop\n      pop\n        /* \"#utility.yul\":13432:14827   */\n      pop\n      pop\n      jump\t// out\n        /* \"#utility.yul\":14833:15210   */\n    tag_225:\n        /* \"#utility.yul\":14921:14924   */\n      0x00\n        /* \"#utility.yul\":14949:14988   */\n      tag_400\n        /* \"#utility.yul\":14982:14987   */\n      dup3\n        /* \"#utility.yul\":14949:14988   */\n      tag_185\n      jump\t// in\n    tag_400:\n        /* \"#utility.yul\":15004:15075   */\n      tag_401\n        /* \"#utility.yul\":15068:15074   */\n      dup2\n        /* \"#utility.yul\":15063:15066   */\n      dup6\n        /* \"#utility.yul\":15004:15075   */\n      tag_206\n      jump\t// in\n    tag_401:\n        /* \"#utility.yul\":14997:15075   */\n      swap4\n      pop\n        /* \"#utility.yul\":15084:15149   */\n      tag_402\n        /* \"#utility.yul\":15142:15148   */\n      dup2\n        /* \"#utility.yul\":15137:15140   */\n      dup6\n        /* \"#utility.yul\":15130:15134   */\n      0x20\n        /* \"#utility.yul\":15123:15128   */\n      dup7\n        /* \"#utility.yul\":15119:15135   */\n      add\n        /* \"#utility.yul\":15084:15149   */\n      tag_187\n      jump\t// in\n    tag_402:\n        /* \"#utility.yul\":15174:15203   */\n      tag_403\n        /* \"#utility.yul\":15196:15202   */\n      dup2\n        /* \"#utility.yul\":15174:15203   */\n      tag_188\n      jump\t// in\n    tag_403:\n        /* \"#utility.yul\":15169:15172   */\n      dup5\n        /* \"#utility.yul\":15165:15204   */\n      add\n        /* \"#utility.yul\":15158:15204   */\n      swap2\n      pop\n        /* \"#utility.yul\":14925:15210   */\n      pop\n        /* \"#utility.yul\":14833:15210   */\n      swap3\n      swap2\n      pop\n      pop\n      jump\t// out\n        /* \"#utility.yul\":15216:15529   */\n    tag_115:\n        /* \"#utility.yul\":15329:15333   */\n      0x00\n        /* \"#utility.yul\":15367:15369   */\n      0x20\n        /* \"#utility.yul\":15356:15365   */\n      dup3\n        /* \"#utility.yul\":15352:15370   */\n      add\n        /* \"#utility.yul\":15344:15370   */\n      swap1\n      pop\n        /* \"#utility.yul\":15416:15425   */\n      dup2\n        /* \"#utility.yul\":15410:15414   */\n      dup2\n        /* \"#utility.yul\":15406:15426   */\n      sub\n        /* \"#utility.yul\":15402:15403   */\n      0x00\n        /* \"#utility.yul\":15391:15400   */\n      dup4\n        /* \"#utility.yul\":15387:15404   */\n      add\n        /* \"#utility.yul\":15380:15427   */\n      mstore\n        /* \"#utility.yul\":15444:15522   */\n      tag_405\n        /* \"#utility.yul\":15517:15521   */\n      dup2\n        /* \"#utility.yul\":15508:15514   */\n      dup5\n        /* \"#utility.yul\":15444:15522   */\n      tag_225\n      jump\t// in\n    tag_405:\n        /* \"#utility.yul\":15436:15522   */\n      swap1\n      pop\n        /* \"#utility.yul\":15216:15529   */\n      swap3\n      swap2\n      pop\n      pop\n      jump\t// out\n        /* \"#utility.yul\":15535:15776   */\n    tag_226:\n        /* \"#utility.yul\":15675:15709   */\n      0x436f6e7472696275746f7252656769737472793a205265766f6b6520726f6c65\n        /* \"#utility.yul\":15671:15672   */\n      0x00\n        /* \"#utility.yul\":15663:15669   */\n      dup3\n        /* \"#utility.yul\":15659:15673   */\n      add\n        /* \"#utility.yul\":15652:15710   */\n      mstore\n        /* \"#utility.yul\":15744:15768   */\n      0x2066726f6d20746865207a65726f206164647265737300000000000000000000\n        /* \"#utility.yul\":15739:15741   */\n      0x20\n        /* \"#utility.yul\":15731:15737   */\n      dup3\n        /* \"#utility.yul\":15727:15742   */\n      add\n        /* \"#utility.yul\":15720:15769   */\n      mstore\n        /* \"#utility.yul\":15535:15776   */\n      pop\n      jump\t// out\n        /* \"#utility.yul\":15782:16148   */\n    tag_227:\n        /* \"#utility.yul\":15924:15927   */\n      0x00\n        /* \"#utility.yul\":15945:16012   */\n      tag_408\n        /* \"#utility.yul\":16009:16011   */\n      0x36\n        /* \"#utility.yul\":16004:16007   */\n      dup4\n        /* \"#utility.yul\":15945:16012   */\n      tag_206\n      jump\t// in\n    tag_408:\n        /* \"#utility.yul\":15938:16012   */\n      swap2\n      pop\n        /* \"#utility.yul\":16021:16114   */\n      tag_409\n        /* \"#utility.yul\":16110:16113   */\n      dup3\n        /* \"#utility.yul\":16021:16114   */\n      tag_226\n      jump\t// in\n    tag_409:\n        /* \"#utility.yul\":16139:16141   */\n      0x40\n        /* \"#utility.yul\":16134:16137   */\n      dup3\n        /* \"#utility.yul\":16130:16142   */\n      add\n        /* \"#utility.yul\":16123:16142   */\n      swap1\n      pop\n        /* \"#utility.yul\":15782:16148   */\n      swap2\n      swap1\n      pop\n      jump\t// out\n        /* \"#utility.yul\":16154:16573   */\n    tag_129:\n        /* \"#utility.yul\":16320:16324   */\n      0x00\n        /* \"#utility.yul\":16358:16360   */\n      0x20\n        /* \"#utility.yul\":16347:16356   */\n      dup3\n        /* \"#utility.yul\":16343:16361   */\n      add\n        /* \"#utility.yul\":16335:16361   */\n      swap1\n      pop\n        /* \"#utility.yul\":16407:16416   */\n      dup2\n        /* \"#utility.yul\":16401:16405   */\n      dup2\n        /* \"#utility.yul\":16397:16417   */\n      sub\n        /* \"#utility.yul\":16393:16394   */\n      0x00\n        /* \"#utility.yul\":16382:16391   */\n      dup4\n        /* \"#utility.yul\":16378:16395   */\n      add\n        /* \"#utility.yul\":16371:16418   */\n      mstore\n        /* \"#utility.yul\":16435:16566   */\n      tag_411\n        /* \"#utility.yul\":16561:16565   */\n      dup2\n        /* \"#utility.yul\":16435:16566   */\n      tag_227\n      jump\t// in\n    tag_411:\n        /* \"#utility.yul\":16427:16566   */\n      swap1\n      pop\n        /* \"#utility.yul\":16154:16573   */\n      swap2\n      swap1\n      pop\n      jump\t// out\n        /* \"#utility.yul\":16579:16745   */\n    tag_228:\n        /* \"#utility.yul\":16719:16737   */\n      0x5061757361626c653a2070617573656400000000000000000000000000000000\n        /* \"#utility.yul\":16715:16716   */\n      0x00\n        /* \"#utility.yul\":16707:16713   */\n      dup3\n        /* \"#utility.yul\":16703:16717   */\n      add\n        /* \"#utility.yul\":16696:16738   */\n      mstore\n        /* \"#utility.yul\":16579:16745   */\n      pop\n      jump\t// out\n        /* \"#utility.yul\":16751:17117   */\n    tag_229:\n        /* \"#utility.yul\":16893:16896   */\n      0x00\n        /* \"#utility.yul\":16914:16981   */\n      tag_414\n        /* \"#utility.yul\":16978:16980   */\n      0x10\n        /* \"#utility.yul\":16973:16976   */\n      dup4\n        /* \"#utility.yul\":16914:16981   */\n      tag_206\n      jump\t// in\n    tag_414:\n        /* \"#utility.yul\":16907:16981   */\n      swap2\n      pop\n        /* \"#utility.yul\":16990:17083   */\n      tag_415\n        /* \"#utility.yul\":17079:17082   */\n      dup3\n        /* \"#utility.yul\":16990:17083   */\n      tag_228\n      jump\t// in\n    tag_415:\n        /* \"#utility.yul\":17108:17110   */\n      0x20\n        /* \"#utility.yul\":17103:17106   */\n      dup3\n        /* \"#utility.yul\":17099:17111   */\n      add\n        /* \"#utility.yul\":17092:17111   */\n      swap1\n      pop\n        /* \"#utility.yul\":16751:17117   */\n      swap2\n      swap1\n      pop\n      jump\t// out\n        /* \"#utility.yul\":17123:17542   */\n    tag_143:\n        /* \"#utility.yul\":17289:17293   */\n      0x00\n        /* \"#utility.yul\":17327:17329   */\n      0x20\n        /* \"#utility.yul\":17316:17325   */\n      dup3\n        /* \"#utility.yul\":17312:17330   */\n      add\n        /* \"#utility.yul\":17304:17330   */\n      swap1\n      pop\n        /* \"#utility.yul\":17376:17385   */\n      dup2\n        /* \"#utility.yul\":17370:17374   */\n      dup2\n        /* \"#utility.yul\":17366:17386   */\n      sub\n        /* \"#utility.yul\":17362:17363   */\n      0x00\n        /* \"#utility.yul\":17351:17360   */\n      dup4\n        /* \"#utility.yul\":17347:17364   */\n      add\n        /* \"#utility.yul\":17340:17387   */\n      mstore\n        /* \"#utility.yul\":17404:17535   */\n      tag_417\n        /* \"#utility.yul\":17530:17534   */\n      dup2\n        /* \"#utility.yul\":17404:17535   */\n      tag_229\n      jump\t// in\n    tag_417:\n        /* \"#utility.yul\":17396:17535   */\n      swap1\n      pop\n        /* \"#utility.yul\":17123:17542   */\n      swap2\n      swap1\n      pop\n      jump\t// out\n        /* \"#utility.yul\":17548:17666   */\n    tag_230:\n        /* \"#utility.yul\":17635:17659   */\n      tag_419\n        /* \"#utility.yul\":17653:17658   */\n      dup2\n        /* \"#utility.yul\":17635:17659   */\n      tag_182\n      jump\t// in\n    tag_419:\n        /* \"#utility.yul\":17630:17633   */\n      dup3\n        /* \"#utility.yul\":17623:17660   */\n      mstore\n        /* \"#utility.yul\":17548:17666   */\n      pop\n      pop\n      jump\t// out\n        /* \"#utility.yul\":17672:17894   */\n    tag_156:\n        /* \"#utility.yul\":17765:17769   */\n      0x00\n        /* \"#utility.yul\":17803:17805   */\n      0x20\n        /* \"#utility.yul\":17792:17801   */\n      dup3\n        /* \"#utility.yul\":17788:17806   */\n      add\n        /* \"#utility.yul\":17780:17806   */\n      swap1\n      pop\n        /* \"#utility.yul\":17816:17887   */\n      tag_421\n        /* \"#utility.yul\":17884:17885   */\n      0x00\n        /* \"#utility.yul\":17873:17882   */\n      dup4\n        /* \"#utility.yul\":17869:17886   */\n      add\n        /* \"#utility.yul\":17860:17866   */\n      dup5\n        /* \"#utility.yul\":17816:17887   */\n      tag_230\n      jump\t// in\n    tag_421:\n        /* \"#utility.yul\":17672:17894   */\n      swap3\n      swap2\n      pop\n      pop\n      jump\t// out\n        /* \"#utility.yul\":17900:18232   */\n    tag_167:\n        /* \"#utility.yul\":18021:18025   */\n      0x00\n        /* \"#utility.yul\":18059:18061   */\n      0x40\n        /* \"#utility.yul\":18048:18057   */\n      dup3\n        /* \"#utility.yul\":18044:18062   */\n      add\n        /* \"#utility.yul\":18036:18062   */\n      swap1\n      pop\n        /* \"#utility.yul\":18072:18143   */\n      tag_423\n        /* \"#utility.yul\":18140:18141   */\n      0x00\n        /* \"#utility.yul\":18129:18138   */\n      dup4\n        /* \"#utility.yul\":18125:18142   */\n      add\n        /* \"#utility.yul\":18116:18122   */\n      dup6\n        /* \"#utility.yul\":18072:18143   */\n      tag_230\n      jump\t// in\n    tag_423:\n        /* \"#utility.yul\":18153:18225   */\n      tag_424\n        /* \"#utility.yul\":18221:18223   */\n      0x20\n        /* \"#utility.yul\":18210:18219   */\n      dup4\n        /* \"#utility.yul\":18206:18224   */\n      add\n        /* \"#utility.yul\":18197:18203   */\n      dup5\n        /* \"#utility.yul\":18153:18225   */\n      tag_195\n      jump\t// in\n    tag_424:\n        /* \"#utility.yul\":17900:18232   */\n      swap4\n      swap3\n      pop\n      pop\n      pop\n      jump\t// out\n        /* \"#utility.yul\":18238:18408   */\n    tag_231:\n        /* \"#utility.yul\":18378:18400   */\n      0x5061757361626c653a206e6f7420706175736564000000000000000000000000\n        /* \"#utility.yul\":18374:18375   */\n      0x00\n        /* \"#utility.yul\":18366:18372   */\n      dup3\n        /* \"#utility.yul\":18362:18376   */\n      add\n        /* \"#utility.yul\":18355:18401   */\n      mstore\n        /* \"#utility.yul\":18238:18408   */\n      pop\n      jump\t// out\n        /* \"#utility.yul\":18414:18780   */\n    tag_232:\n        /* \"#utility.yul\":18556:18559   */\n      0x00\n        /* \"#utility.yul\":18577:18644   */\n      tag_427\n        /* \"#utility.yul\":18641:18643   */\n      0x14\n        /* \"#utility.yul\":18636:18639   */\n      dup4\n        /* \"#utility.yul\":18577:18644   */\n      tag_206\n      jump\t// in\n    tag_427:\n        /* \"#utility.yul\":18570:18644   */\n      swap2\n      pop\n        /* \"#utility.yul\":18653:18746   */\n      tag_428\n        /* \"#utility.yul\":18742:18745   */\n      dup3\n        /* \"#utility.yul\":18653:18746   */\n      tag_231\n      jump\t// in\n    tag_428:\n        /* \"#utility.yul\":18771:18773   */\n      0x20\n        /* \"#utility.yul\":18766:18769   */\n      dup3\n        /* \"#utility.yul\":18762:18774   */\n      add\n        /* \"#utility.yul\":18755:18774   */\n      swap1\n      pop\n        /* \"#utility.yul\":18414:18780   */\n      swap2\n      swap1\n      pop\n      jump\t// out\n        /* \"#utility.yul\":18786:19205   */\n    tag_172:\n        /* \"#utility.yul\":18952:18956   */\n      0x00\n        /* \"#utility.yul\":18990:18992   */\n      0x20\n        /* \"#utility.yul\":18979:18988   */\n      dup3\n        /* \"#utility.yul\":18975:18993   */\n      add\n        /* \"#utility.yul\":18967:18993   */\n      swap1\n      pop\n        /* \"#utility.yul\":19039:19048   */\n      dup2\n        /* \"#utility.yul\":19033:19037   */\n      dup2\n        /* \"#utility.yul\":19029:19049   */\n      sub\n        /* \"#utility.yul\":19025:19026   */\n      0x00\n        /* \"#utility.yul\":19014:19023   */\n      dup4\n        /* \"#utility.yul\":19010:19027   */\n      add\n        /* \"#utility.yul\":19003:19050   */\n      mstore\n        /* \"#utility.yul\":19067:19198   */\n      tag_430\n        /* \"#utility.yul\":19193:19197   */\n      dup2\n        /* \"#utility.yul\":19067:19198   */\n      tag_232\n      jump\t// in\n    tag_430:\n        /* \"#utility.yul\":19059:19198   */\n      swap1\n      pop\n        /* \"#utility.yul\":18786:19205   */\n      swap2\n      swap1\n      pop\n      jump\t// out\n\n    auxdata: 0xa26469706673582212203df7c3b5ee7956cb9b6bd93b12eae2e8d581058e33190905f0df5b0acb790f5264736f6c63430008140033\n}\n",
				"bytecode": {
					"linkReferences": {},
					"object": "608060405234801562000010575f80fd5b5060405162001a0c38038062001a0c83398181016040528101906200003691906200029c565b5f60015f6101000a81548160ff021916908315150217905550620000635f801b84620000d360201b60201c565b50620000967f2172861495e7b85edac73e3cd5fbb42dd675baadf627720e687bcfdaca02509683620000d360201b60201c565b50620000c97f65d7a28e3265b37a6474929f336521b332c1681b933f6cb9f3376673440d862a82620000d360201b60201c565b50505050620002f5565b5f620000e68383620001ce60201b60201c565b620001c45760015f808581526020019081526020015f205f015f8473ffffffffffffffffffffffffffffffffffffffff1673ffffffffffffffffffffffffffffffffffffffff1681526020019081526020015f205f6101000a81548160ff021916908315150217905550620001606200023060201b60201c565b73ffffffffffffffffffffffffffffffffffffffff168273ffffffffffffffffffffffffffffffffffffffff16847f2f8788117e7eff1d82e926ec794901d17c78024a50270940304540a733656f0d60405160405180910390a460019050620001c8565b5f90505b92915050565b5f60035f8481526020019081526020015f205f8373ffffffffffffffffffffffffffffffffffffffff1673ffffffffffffffffffffffffffffffffffffffff1681526020019081526020015f205f9054906101000a900460ff16905092915050565b5f33905090565b5f80fd5b5f73ffffffffffffffffffffffffffffffffffffffff82169050919050565b5f62000266826200023b565b9050919050565b62000278816200025a565b811462000283575f80fd5b50565b5f8151905062000296816200026d565b92915050565b5f805f60608486031215620002b657620002b562000237565b5b5f620002c58682870162000286565b9350506020620002d88682870162000286565b9250506040620002eb8682870162000286565b9150509250925092565b61170980620003035f395ff3fe608060405234801561000f575f80fd5b50600436106100e8575f3560e01c8063786d6b971161008a578063a217fddf11610064578063a217fddf14610232578063d391014b14610250578063d547741f1461026e578063e63ab1e91461028a576100e8565b8063786d6b97146101dc5780638456cb59146101f857806391d1485414610202576100e8565b80632f2ff15d116100c65780632f2ff15d1461017c57806336568abe146101985780633f4ba83a146101b45780635c975abb146101be576100e8565b806301ffc9a7146100ec5780630f53a4701461011c578063248a9ca31461014c575b5f80fd5b61010660048036038101906101019190610d51565b6102a8565b6040516101139190610d96565b60405180910390f35b61013660048036038101906101319190610e09565b6102b9565b6040516101439190610f07565b60405180910390f35b61016660048036038101906101619190610f5a565b6103b9565b6040516101739190610f94565b60405180910390f35b61019660048036038101906101919190610fad565b6103d5565b005b6101b260048036038101906101ad9190610fad565b610540565b005b6101bc6105bb565b005b6101c66105f0565b6040516101d39190610d96565b60405180910390f35b6101f660048036038101906101f19190611117565b610605565b005b6102006106f5565b005b61021c60048036038101906102179190610fad565b61072a565b6040516102299190610d96565b60405180910390f35b61023a61078c565b6040516102479190610f94565b60405180910390f35b610258610792565b6040516102659190610f94565b60405180910390f35b61028860048036038101906102839190610fad565b6107b6565b005b610292610920565b60405161029f9190610f94565b60405180910390f35b5f6102b282610944565b9050919050565b6102c1610cd0565b60025f8373ffffffffffffffffffffffffffffffffffffffff1673ffffffffffffffffffffffffffffffffffffffff1681526020019081526020015f206040518060400160405290815f820180546103189061118b565b80601f01602080910402602001604051908101604052809291908181526020018280546103449061118b565b801561038f5780601f106103665761010080835404028352916020019161038f565b820191905f5260205f20905b81548152906001019060200180831161037257829003601f168201915b50505050508152602001600182015f9054906101000a900460ff1615151515815250509050919050565b5f805f8381526020019081526020015f20600101549050919050565b7f2172861495e7b85edac73e3cd5fbb42dd675baadf627720e687bcfdaca0250966103ff816109bd565b6104076109d1565b5f73ffffffffffffffffffffffffffffffffffffffff168273ffffffffffffffffffffffffffffffffffffffff1603610475576040517f08c379a000000000000000000000000000000000000000000000000000000000815260040161046c9061123b565b60405180910390fd5b600160035f8581526020019081526020015f205f8473ffffffffffffffffffffffffffffffffffffffff1673ffffffffffffffffffffffffffffffffffffffff1681526020019081526020015f205f6101000a81548160ff0219169083151502179055506104e1610a1b565b73ffffffffffffffffffffffffffffffffffffffff168273ffffffffffffffffffffffffffffffffffffffff16847f2eaa2f58f6ddc257d2d884fe86dac4f0ba0574682e081893bbdded663a45ebe060405160405180910390a4505050565b610548610a1b565b73ffffffffffffffffffffffffffffffffffffffff168173ffffffffffffffffffffffffffffffffffffffff16146105ac576040517f6697b23200000000000000000000000000000000000000000000000000000000815260040160405180910390fd5b6105b68282610a22565b505050565b7f65d7a28e3265b37a6474929f336521b332c1681b933f6cb9f3376673440d862a6105e5816109bd565b6105ed610b0b565b50565b5f60015f9054906101000a900460ff16905090565b61060d6109d1565b5f610616610a1b565b905060405180604001604052808381526020016001151581525060025f8373ffffffffffffffffffffffffffffffffffffffff1673ffffffffffffffffffffffffffffffffffffffff1681526020019081526020015f205f820151815f01908161068091906113ff565b506020820151816001015f6101000a81548160ff0219169083151502179055509050508073ffffffffffffffffffffffffffffffffffffffff167fdd635a4cd84864e37e4479dbfc2ec667acfa473c83c8422a8ac9d9d07599b01c836040516106e99190611506565b60405180910390a25050565b7f65d7a28e3265b37a6474929f336521b332c1681b933f6cb9f3376673440d862a61071f816109bd565b610727610b6c565b50565b5f60035f8481526020019081526020015f205f8373ffffffffffffffffffffffffffffffffffffffff1673ffffffffffffffffffffffffffffffffffffffff1681526020019081526020015f205f9054906101000a900460ff16905092915050565b5f801b81565b7f2172861495e7b85edac73e3cd5fbb42dd675baadf627720e687bcfdaca02509681565b7f2172861495e7b85edac73e3cd5fbb42dd675baadf627720e687bcfdaca0250966107e0816109bd565b6107e86109d1565b5f73ffffffffffffffffffffffffffffffffffffffff168273ffffffffffffffffffffffffffffffffffffffff1603610856576040517f08c379a000000000000000000000000000000000000000000000000000000000815260040161084d90611596565b60405180910390fd5b5f60035f8581526020019081526020015f205f8473ffffffffffffffffffffffffffffffffffffffff1673ffffffffffffffffffffffffffffffffffffffff1681526020019081526020015f205f6101000a81548160ff0219169083151502179055506108c1610a1b565b73ffffffffffffffffffffffffffffffffffffffff168273ffffffffffffffffffffffffffffffffffffffff16847fd0fb715514aa4df838df8ea7036edd7f5f92bea1560d56c7cfff5a106098282160405160405180910390a4505050565b7f65d7a28e3265b37a6474929f336521b332c1681b933f6cb9f3376673440d862a81565b5f7f7965db0b000000000000000000000000000000000000000000000000000000007bffffffffffffffffffffffffffffffffffffffffffffffffffffffff1916827bffffffffffffffffffffffffffffffffffffffffffffffffffffffff191614806109b657506109b582610bcd565b5b9050919050565b6109ce816109c9610a1b565b610c36565b50565b6109d96105f0565b15610a19576040517f08c379a0000000000000000000000000000000000000000000000000000000008152600401610a10906115fe565b60405180910390fd5b565b5f33905090565b5f610a2d838361072a565b15610b01575f805f8581526020019081526020015f205f015f8473ffffffffffffffffffffffffffffffffffffffff1673ffffffffffffffffffffffffffffffffffffffff1681526020019081526020015f205f6101000a81548160ff021916908315150217905550610a9e610a1b565b73ffffffffffffffffffffffffffffffffffffffff168273ffffffffffffffffffffffffffffffffffffffff16847ff6391f5c32d9c69d2a47ea670b442974b53935d1edc7fd64eb21e047a839171b60405160405180910390a460019050610b05565b5f90505b92915050565b610b13610c87565b5f60015f6101000a81548160ff0219169083151502179055507f5db9ee0a495bf2e6ff9c91a7834c1ba4fdd244a5e8aa4e537bd38aeae4b073aa610b55610a1b565b604051610b62919061162b565b60405180910390a1565b610b746109d1565b6001805f6101000a81548160ff0219169083151502179055507f62e78cea01bee320cd4e420270b5ea74000d11b0c9f74754ebdbfc544b05a258610bb6610a1b565b604051610bc3919061162b565b60405180910390a1565b5f7f01ffc9a7000000000000000000000000000000000000000000000000000000007bffffffffffffffffffffffffffffffffffffffffffffffffffffffff1916827bffffffffffffffffffffffffffffffffffffffffffffffffffffffff1916149050919050565b610c40828261072a565b610c835780826040517fe2517d3f000000000000000000000000000000000000000000000000000000008152600401610c7a929190611644565b60405180910390fd5b5050565b610c8f6105f0565b610cce576040517f08c379a0000000000000000000000000000000000000000000000000000000008152600401610cc5906116b5565b60405180910390fd5b565b6040518060400160405280606081526020015f151581525090565b5f604051905090565b5f80fd5b5f80fd5b5f7fffffffff0000000000000000000000000000000000000000000000000000000082169050919050565b610d3081610cfc565b8114610d3a575f80fd5b50565b5f81359050610d4b81610d27565b92915050565b5f60208284031215610d6657610d65610cf4565b5b5f610d7384828501610d3d565b91505092915050565b5f8115159050919050565b610d9081610d7c565b82525050565b5f602082019050610da95f830184610d87565b92915050565b5f73ffffffffffffffffffffffffffffffffffffffff82169050919050565b5f610dd882610daf565b9050919050565b610de881610dce565b8114610df2575f80fd5b50565b5f81359050610e0381610ddf565b92915050565b5f60208284031215610e1e57610e1d610cf4565b5b5f610e2b84828501610df5565b91505092915050565b5f81519050919050565b5f82825260208201905092915050565b5f5b83811015610e6b578082015181840152602081019050610e50565b5f8484015250505050565b5f601f19601f8301169050919050565b5f610e9082610e34565b610e9a8185610e3e565b9350610eaa818560208601610e4e565b610eb381610e76565b840191505092915050565b610ec781610d7c565b82525050565b5f604083015f8301518482035f860152610ee78282610e86565b9150506020830151610efc6020860182610ebe565b508091505092915050565b5f6020820190508181035f830152610f1f8184610ecd565b905092915050565b5f819050919050565b610f3981610f27565b8114610f43575f80fd5b50565b5f81359050610f5481610f30565b92915050565b5f60208284031215610f6f57610f6e610cf4565b5b5f610f7c84828501610f46565b91505092915050565b610f8e81610f27565b82525050565b5f602082019050610fa75f830184610f85565b92915050565b5f8060408385031215610fc357610fc2610cf4565b5b5f610fd085828601610f46565b9250506020610fe185828601610df5565b9150509250929050565b5f80fd5b5f80fd5b7f4e487b71000000000000000000000000000000000000000000000000000000005f52604160045260245ffd5b61102982610e76565b810181811067ffffffffffffffff8211171561104857611047610ff3565b5b80604052505050565b5f61105a610ceb565b90506110668282611020565b919050565b5f67ffffffffffffffff82111561108557611084610ff3565b5b61108e82610e76565b9050602081019050919050565b828183375f83830152505050565b5f6110bb6110b68461106b565b611051565b9050828152602081018484840111156110d7576110d6610fef565b5b6110e284828561109b565b509392505050565b5f82601f8301126110fe576110fd610feb565b5b813561110e8482602086016110a9565b91505092915050565b5f6020828403121561112c5761112b610cf4565b5b5f82013567ffffffffffffffff81111561114957611148610cf8565b5b611155848285016110ea565b91505092915050565b7f4e487b71000000000000000000000000000000000000000000000000000000005f52602260045260245ffd5b5f60028204905060018216806111a257607f821691505b6020821081036111b5576111b461115e565b5b50919050565b5f82825260208201905092915050565b7f436f6e7472696275746f7252656769737472793a204772616e7420726f6c65205f8201527f746f20746865207a65726f206164647265737300000000000000000000000000602082015250565b5f6112256033836111bb565b9150611230826111cb565b604082019050919050565b5f6020820190508181035f83015261125281611219565b9050919050565b5f819050815f5260205f209050919050565b5f6020601f8301049050919050565b5f82821b905092915050565b5f600883026112b57fffffffffffffffffffffffffffffffffffffffffffffffffffffffffffffffff8261127a565b6112bf868361127a565b95508019841693508086168417925050509392505050565b5f819050919050565b5f819050919050565b5f6113036112fe6112f9846112d7565b6112e0565b6112d7565b9050919050565b5f819050919050565b61131c836112e9565b6113306113288261130a565b848454611286565b825550505050565b5f90565b611344611338565b61134f818484611313565b505050565b5b81811015611372576113675f8261133c565b600181019050611355565b5050565b601f8211156113b75761138881611259565b6113918461126b565b810160208510156113a0578190505b6113b46113ac8561126b565b830182611354565b50505b505050565b5f82821c905092915050565b5f6113d75f19846008026113bc565b1980831691505092915050565b5f6113ef83836113c8565b9150826002028217905092915050565b61140882610e34565b67ffffffffffffffff81111561142157611420610ff3565b5b61142b825461118b565b611436828285611376565b5f60209050601f831160018114611467575f8415611455578287015190505b61145f85826113e4565b8655506114c6565b601f19841661147586611259565b5f5b8281101561149c57848901518255600182019150602085019450602081019050611477565b868310156114b957848901516114b5601f8916826113c8565b8355505b6001600288020188555050505b505050505050565b5f6114d882610e34565b6114e281856111bb565b93506114f2818560208601610e4e565b6114fb81610e76565b840191505092915050565b5f6020820190508181035f83015261151e81846114ce565b905092915050565b7f436f6e7472696275746f7252656769737472793a205265766f6b6520726f6c655f8201527f2066726f6d20746865207a65726f206164647265737300000000000000000000602082015250565b5f6115806036836111bb565b915061158b82611526565b604082019050919050565b5f6020820190508181035f8301526115ad81611574565b9050919050565b7f5061757361626c653a20706175736564000000000000000000000000000000005f82015250565b5f6115e86010836111bb565b91506115f3826115b4565b602082019050919050565b5f6020820190508181035f830152611615816115dc565b9050919050565b61162581610dce565b82525050565b5f60208201905061163e5f83018461161c565b92915050565b5f6040820190506116575f83018561161c565b6116646020830184610f85565b9392505050565b7f5061757361626c653a206e6f74207061757365640000000000000000000000005f82015250565b5f61169f6014836111bb565b91506116aa8261166b565b602082019050919050565b5f6020820190508181035f8301526116cc81611693565b905091905056fea26469706673582212203df7c3b5ee7956cb9b6bd93b12eae2e8d581058e33190905f0df5b0acb790f5264736f6c63430008140033",
					"opcodes": "PUSH1 0x80 PUSH1 0x40 MSTORE CALLVALUE DUP1 ISZERO PUSH3 0x10 JUMPI PUSH0 DUP1 REVERT JUMPDEST POP PUSH1 0x40 MLOAD PUSH3 0x1A0C CODESIZE SUB DUP1 PUSH3 0x1A0C DUP4 CODECOPY DUP2 DUP2 ADD PUSH1 0x40 MSTORE DUP2 ADD SWAP1 PUSH3 0x36 SWAP2 SWAP1 PUSH3 0x29C JUMP JUMPDEST PUSH0 PUSH1 0x1 PUSH0 PUSH2 0x100 EXP DUP2 SLOAD DUP2 PUSH1 0xFF MUL NOT AND SWAP1 DUP4 ISZERO ISZERO MUL OR SWAP1 SSTORE POP PUSH3 0x63 PUSH0 DUP1 SHL DUP5 PUSH3 0xD3 PUSH1 0x20 SHL PUSH1 0x20 SHR JUMP JUMPDEST POP PUSH3 0x96 PUSH32 0x2172861495E7B85EDAC73E3CD5FBB42DD675BAADF627720E687BCFDACA025096 DUP4 PUSH3 0xD3 PUSH1 0x20 SHL PUSH1 0x20 SHR JUMP JUMPDEST POP PUSH3 0xC9 PUSH32 0x65D7A28E3265B37A6474929F336521B332C1681B933F6CB9F3376673440D862A DUP3 PUSH3 0xD3 PUSH1 0x20 SHL PUSH1 0x20 SHR JUMP JUMPDEST POP POP POP POP PUSH3 0x2F5 JUMP JUMPDEST PUSH0 PUSH3 0xE6 DUP4 DUP4 PUSH3 0x1CE PUSH1 0x20 SHL PUSH1 0x20 SHR JUMP JUMPDEST PUSH3 0x1C4 JUMPI PUSH1 0x1 PUSH0 DUP1 DUP6 DUP2 MSTORE PUSH1 0x20 ADD SWAP1 DUP2 MSTORE PUSH1 0x20 ADD PUSH0 KECCAK256 PUSH0 ADD PUSH0 DUP5 PUSH20 0xFFFFFFFFFFFFFFFFFFFFFFFFFFFFFFFFFFFFFFFF AND PUSH20 0xFFFFFFFFFFFFFFFFFFFFFFFFFFFFFFFFFFFFFFFF AND DUP2 MSTORE PUSH1 0x20 ADD SWAP1 DUP2 MSTORE PUSH1 0x20 ADD PUSH0 KECCAK256 PUSH0 PUSH2 0x100 EXP DUP2 SLOAD DUP2 PUSH1 0xFF MUL NOT AND SWAP1 DUP4 ISZERO ISZERO MUL OR SWAP1 SSTORE POP PUSH3 0x160 PUSH3 0x230 PUSH1 0x20 SHL PUSH1 0x20 SHR JUMP JUMPDEST PUSH20 0xFFFFFFFFFFFFFFFFFFFFFFFFFFFFFFFFFFFFFFFF AND DUP3 PUSH20 0xFFFFFFFFFFFFFFFFFFFFFFFFFFFFFFFFFFFFFFFF AND DUP5 PUSH32 0x2F8788117E7EFF1D82E926EC794901D17C78024A50270940304540A733656F0D PUSH1 0x40 MLOAD PUSH1 0x40 MLOAD DUP1 SWAP2 SUB SWAP1 LOG4 PUSH1 0x1 SWAP1 POP PUSH3 0x1C8 JUMP JUMPDEST PUSH0 SWAP1 POP JUMPDEST SWAP3 SWAP2 POP POP JUMP JUMPDEST PUSH0 PUSH1 0x3 PUSH0 DUP5 DUP2 MSTORE PUSH1 0x20 ADD SWAP1 DUP2 MSTORE PUSH1 0x20 ADD PUSH0 KECCAK256 PUSH0 DUP4 PUSH20 0xFFFFFFFFFFFFFFFFFFFFFFFFFFFFFFFFFFFFFFFF AND PUSH20 0xFFFFFFFFFFFFFFFFFFFFFFFFFFFFFFFFFFFFFFFF AND DUP2 MSTORE PUSH1 0x20 ADD SWAP1 DUP2 MSTORE PUSH1 0x20 ADD PUSH0 KECCAK256 PUSH0 SWAP1 SLOAD SWAP1 PUSH2 0x100 EXP SWAP1 DIV PUSH1 0xFF AND SWAP1 POP SWAP3 SWAP2 POP POP JUMP JUMPDEST PUSH0 CALLER SWAP1 POP SWAP1 JUMP JUMPDEST PUSH0 DUP1 REVERT JUMPDEST PUSH0 PUSH20 0xFFFFFFFFFFFFFFFFFFFFFFFFFFFFFFFFFFFFFFFF DUP3 AND SWAP1 POP SWAP2 SWAP1 POP JUMP JUMPDEST PUSH0 PUSH3 0x266 DUP3 PUSH3 0x23B JUMP JUMPDEST SWAP1 POP SWAP2 SWAP1 POP JUMP JUMPDEST PUSH3 0x278 DUP2 PUSH3 0x25A JUMP JUMPDEST DUP2 EQ PUSH3 0x283 JUMPI PUSH0 DUP1 REVERT JUMPDEST POP JUMP JUMPDEST PUSH0 DUP2 MLOAD SWAP1 POP PUSH3 0x296 DUP2 PUSH3 0x26D JUMP JUMPDEST SWAP3 SWAP2 POP POP JUMP JUMPDEST PUSH0 DUP1 PUSH0 PUSH1 0x60 DUP5 DUP7 SUB SLT ISZERO PUSH3 0x2B6 JUMPI PUSH3 0x2B5 PUSH3 0x237 JUMP JUMPDEST JUMPDEST PUSH0 PUSH3 0x2C5 DUP7 DUP3 DUP8 ADD PUSH3 0x286 JUMP JUMPDEST SWAP4 POP POP PUSH1 0x20 PUSH3 0x2D8 DUP7 DUP3 DUP8 ADD PUSH3 0x286 JUMP JUMPDEST SWAP3 POP POP PUSH1 0x40 PUSH3 0x2EB DUP7 DUP3 DUP8 ADD PUSH3 0x286 JUMP JUMPDEST SWAP2 POP POP SWAP3 POP SWAP3 POP SWAP3 JUMP JUMPDEST PUSH2 0x1709 DUP1 PUSH3 0x303 PUSH0 CODECOPY PUSH0 RETURN INVALID PUSH1 0x80 PUSH1 0x40 MSTORE CALLVALUE DUP1 ISZERO PUSH2 0xF JUMPI PUSH0 DUP1 REVERT JUMPDEST POP PUSH1 0x4 CALLDATASIZE LT PUSH2 0xE8 JUMPI PUSH0 CALLDATALOAD PUSH1 0xE0 SHR DUP1 PUSH4 0x786D6B97 GT PUSH2 0x8A JUMPI DUP1 PUSH4 0xA217FDDF GT PUSH2 0x64 JUMPI DUP1 PUSH4 0xA217FDDF EQ PUSH2 0x232 JUMPI DUP1 PUSH4 0xD391014B EQ PUSH2 0x250 JUMPI DUP1 PUSH4 0xD547741F EQ PUSH2 0x26E JUMPI DUP1 PUSH4 0xE63AB1E9 EQ PUSH2 0x28A JUMPI PUSH2 0xE8 JUMP JUMPDEST DUP1 PUSH4 0x786D6B97 EQ PUSH2 0x1DC JUMPI DUP1 PUSH4 0x8456CB59 EQ PUSH2 0x1F8 JUMPI DUP1 PUSH4 0x91D14854 EQ PUSH2 0x202 JUMPI PUSH2 0xE8 JUMP JUMPDEST DUP1 PUSH4 0x2F2FF15D GT PUSH2 0xC6 JUMPI DUP1 PUSH4 0x2F2FF15D EQ PUSH2 0x17C JUMPI DUP1 PUSH4 0x36568ABE EQ PUSH2 0x198 JUMPI DUP1 PUSH4 0x3F4BA83A EQ PUSH2 0x1B4 JUMPI DUP1 PUSH4 0x5C975ABB EQ PUSH2 0x1BE JUMPI PUSH2 0xE8 JUMP JUMPDEST DUP1 PUSH4 0x1FFC9A7 EQ PUSH2 0xEC JUMPI DUP1 PUSH4 0xF53A470 EQ PUSH2 0x11C JUMPI DUP1 PUSH4 0x248A9CA3 EQ PUSH2 0x14C JUMPI JUMPDEST PUSH0 DUP1 REVERT JUMPDEST PUSH2 0x106 PUSH1 0x4 DUP1 CALLDATASIZE SUB DUP2 ADD SWAP1 PUSH2 0x101 SWAP2 SWAP1 PUSH2 0xD51 JUMP JUMPDEST PUSH2 0x2A8 JUMP JUMPDEST PUSH1 0x40 MLOAD PUSH2 0x113 SWAP2 SWAP1 PUSH2 0xD96 JUMP JUMPDEST PUSH1 0x40 MLOAD DUP1 SWAP2 SUB SWAP1 RETURN JUMPDEST PUSH2 0x136 PUSH1 0x4 DUP1 CALLDATASIZE SUB DUP2 ADD SWAP1 PUSH2 0x131 SWAP2 SWAP1 PUSH2 0xE09 JUMP JUMPDEST PUSH2 0x2B9 JUMP JUMPDEST PUSH1 0x40 MLOAD PUSH2 0x143 SWAP2 SWAP1 PUSH2 0xF07 JUMP JUMPDEST PUSH1 0x40 MLOAD DUP1 SWAP2 SUB SWAP1 RETURN JUMPDEST PUSH2 0x166 PUSH1 0x4 DUP1 CALLDATASIZE SUB DUP2 ADD SWAP1 PUSH2 0x161 SWAP2 SWAP1 PUSH2 0xF5A JUMP JUMPDEST PUSH2 0x3B9 JUMP JUMPDEST PUSH1 0x40 MLOAD PUSH2 0x173 SWAP2 SWAP1 PUSH2 0xF94 JUMP JUMPDEST PUSH1 0x40 MLOAD DUP1 SWAP2 SUB SWAP1 RETURN JUMPDEST PUSH2 0x196 PUSH1 0x4 DUP1 CALLDATASIZE SUB DUP2 ADD SWAP1 PUSH2 0x191 SWAP2 SWAP1 PUSH2 0xFAD JUMP JUMPDEST PUSH2 0x3D5 JUMP JUMPDEST STOP JUMPDEST PUSH2 0x1B2 PUSH1 0x4 DUP1 CALLDATASIZE SUB DUP2 ADD SWAP1 PUSH2 0x1AD SWAP2 SWAP1 PUSH2 0xFAD JUMP JUMPDEST PUSH2 0x540 JUMP JUMPDEST STOP JUMPDEST PUSH2 0x1BC PUSH2 0x5BB JUMP JUMPDEST STOP JUMPDEST PUSH2 0x1C6 PUSH2 0x5F0 JUMP JUMPDEST PUSH1 0x40 MLOAD PUSH2 0x1D3 SWAP2 SWAP1 PUSH2 0xD96 JUMP JUMPDEST PUSH1 0x40 MLOAD DUP1 SWAP2 SUB SWAP1 RETURN JUMPDEST PUSH2 0x1F6 PUSH1 0x4 DUP1 CALLDATASIZE SUB DUP2 ADD SWAP1 PUSH2 0x1F1 SWAP2 SWAP1 PUSH2 0x1117 JUMP JUMPDEST PUSH2 0x605 JUMP JUMPDEST STOP JUMPDEST PUSH2 0x200 PUSH2 0x6F5 JUMP JUMPDEST STOP JUMPDEST PUSH2 0x21C PUSH1 0x4 DUP1 CALLDATASIZE SUB DUP2 ADD SWAP1 PUSH2 0x217 SWAP2 SWAP1 PUSH2 0xFAD JUMP JUMPDEST PUSH2 0x72A JUMP JUMPDEST PUSH1 0x40 MLOAD PUSH2 0x229 SWAP2 SWAP1 PUSH2 0xD96 JUMP JUMPDEST PUSH1 0x40 MLOAD DUP1 SWAP2 SUB SWAP1 RETURN JUMPDEST PUSH2 0x23A PUSH2 0x78C JUMP JUMPDEST PUSH1 0x40 MLOAD PUSH2 0x247 SWAP2 SWAP1 PUSH2 0xF94 JUMP JUMPDEST PUSH1 0x40 MLOAD DUP1 SWAP2 SUB SWAP1 RETURN JUMPDEST PUSH2 0x258 PUSH2 0x792 JUMP JUMPDEST PUSH1 0x40 MLOAD PUSH2 0x265 SWAP2 SWAP1 PUSH2 0xF94 JUMP JUMPDEST PUSH1 0x40 MLOAD DUP1 SWAP2 SUB SWAP1 RETURN JUMPDEST PUSH2 0x288 PUSH1 0x4 DUP1 CALLDATASIZE SUB DUP2 ADD SWAP1 PUSH2 0x283 SWAP2 SWAP1 PUSH2 0xFAD JUMP JUMPDEST PUSH2 0x7B6 JUMP JUMPDEST STOP JUMPDEST PUSH2 0x292 PUSH2 0x920 JUMP JUMPDEST PUSH1 0x40 MLOAD PUSH2 0x29F SWAP2 SWAP1 PUSH2 0xF94 JUMP JUMPDEST PUSH1 0x40 MLOAD DUP1 SWAP2 SUB SWAP1 RETURN JUMPDEST PUSH0 PUSH2 0x2B2 DUP3 PUSH2 0x944 JUMP JUMPDEST SWAP1 POP SWAP2 SWAP1 POP JUMP JUMPDEST PUSH2 0x2C1 PUSH2 0xCD0 JUMP JUMPDEST PUSH1 0x2 PUSH0 DUP4 PUSH20 0xFFFFFFFFFFFFFFFFFFFFFFFFFFFFFFFFFFFFFFFF AND PUSH20 0xFFFFFFFFFFFFFFFFFFFFFFFFFFFFFFFFFFFFFFFF AND DUP2 MSTORE PUSH1 0x20 ADD SWAP1 DUP2 MSTORE PUSH1 0x20 ADD PUSH0 KECCAK256 PUSH1 0x40 MLOAD DUP1 PUSH1 0x40 ADD PUSH1 0x40 MSTORE SWAP1 DUP2 PUSH0 DUP3 ADD DUP1 SLOAD PUSH2 0x318 SWAP1 PUSH2 0x118B JUMP JUMPDEST DUP1 PUSH1 0x1F ADD PUSH1 0x20 DUP1 SWAP2 DIV MUL PUSH1 0x20 ADD PUSH1 0x40 MLOAD SWAP1 DUP2 ADD PUSH1 0x40 MSTORE DUP1 SWAP3 SWAP2 SWAP1 DUP2 DUP2 MSTORE PUSH1 0x20 ADD DUP3 DUP1 SLOAD PUSH2 0x344 SWAP1 PUSH2 0x118B JUMP JUMPDEST DUP1 ISZERO PUSH2 0x38F JUMPI DUP1 PUSH1 0x1F LT PUSH2 0x366 JUMPI PUSH2 0x100 DUP1 DUP4 SLOAD DIV MUL DUP4 MSTORE SWAP2 PUSH1 0x20 ADD SWAP2 PUSH2 0x38F JUMP JUMPDEST DUP3 ADD SWAP2 SWAP1 PUSH0 MSTORE PUSH1 0x20 PUSH0 KECCAK256 SWAP1 JUMPDEST DUP2 SLOAD DUP2 MSTORE SWAP1 PUSH1 0x1 ADD SWAP1 PUSH1 0x20 ADD DUP1 DUP4 GT PUSH2 0x372 JUMPI DUP3 SWAP1 SUB PUSH1 0x1F AND DUP3 ADD SWAP2 JUMPDEST POP POP POP POP POP DUP2 MSTORE PUSH1 0x20 ADD PUSH1 0x1 DUP3 ADD PUSH0 SWAP1 SLOAD SWAP1 PUSH2 0x100 EXP SWAP1 DIV PUSH1 0xFF AND ISZERO ISZERO ISZERO ISZERO DUP2 MSTORE POP POP SWAP1 POP SWAP2 SWAP1 POP JUMP JUMPDEST PUSH0 DUP1 PUSH0 DUP4 DUP2 MSTORE PUSH1 0x20 ADD SWAP1 DUP2 MSTORE PUSH1 0x20 ADD PUSH0 KECCAK256 PUSH1 0x1 ADD SLOAD SWAP1 POP SWAP2 SWAP1 POP JUMP JUMPDEST PUSH32 0x2172861495E7B85EDAC73E3CD5FBB42DD675BAADF627720E687BCFDACA025096 PUSH2 0x3FF DUP2 PUSH2 0x9BD JUMP JUMPDEST PUSH2 0x407 PUSH2 0x9D1 JUMP JUMPDEST PUSH0 PUSH20 0xFFFFFFFFFFFFFFFFFFFFFFFFFFFFFFFFFFFFFFFF AND DUP3 PUSH20 0xFFFFFFFFFFFFFFFFFFFFFFFFFFFFFFFFFFFFFFFF AND SUB PUSH2 0x475 JUMPI PUSH1 0x40 MLOAD PUSH32 0x8C379A000000000000000000000000000000000000000000000000000000000 DUP2 MSTORE PUSH1 0x4 ADD PUSH2 0x46C SWAP1 PUSH2 0x123B JUMP JUMPDEST PUSH1 0x40 MLOAD DUP1 SWAP2 SUB SWAP1 REVERT JUMPDEST PUSH1 0x1 PUSH1 0x3 PUSH0 DUP6 DUP2 MSTORE PUSH1 0x20 ADD SWAP1 DUP2 MSTORE PUSH1 0x20 ADD PUSH0 KECCAK256 PUSH0 DUP5 PUSH20 0xFFFFFFFFFFFFFFFFFFFFFFFFFFFFFFFFFFFFFFFF AND PUSH20 0xFFFFFFFFFFFFFFFFFFFFFFFFFFFFFFFFFFFFFFFF AND DUP2 MSTORE PUSH1 0x20 ADD SWAP1 DUP2 MSTORE PUSH1 0x20 ADD PUSH0 KECCAK256 PUSH0 PUSH2 0x100 EXP DUP2 SLOAD DUP2 PUSH1 0xFF MUL NOT AND SWAP1 DUP4 ISZERO ISZERO MUL OR SWAP1 SSTORE POP PUSH2 0x4E1 PUSH2 0xA1B JUMP JUMPDEST PUSH20 0xFFFFFFFFFFFFFFFFFFFFFFFFFFFFFFFFFFFFFFFF AND DUP3 PUSH20 0xFFFFFFFFFFFFFFFFFFFFFFFFFFFFFFFFFFFFFFFF AND DUP5 PUSH32 0x2EAA2F58F6DDC257D2D884FE86DAC4F0BA0574682E081893BBDDED663A45EBE0 PUSH1 0x40 MLOAD PUSH1 0x40 MLOAD DUP1 SWAP2 SUB SWAP1 LOG4 POP POP POP JUMP JUMPDEST PUSH2 0x548 PUSH2 0xA1B JUMP JUMPDEST PUSH20 0xFFFFFFFFFFFFFFFFFFFFFFFFFFFFFFFFFFFFFFFF AND DUP2 PUSH20 0xFFFFFFFFFFFFFFFFFFFFFFFFFFFFFFFFFFFFFFFF AND EQ PUSH2 0x5AC JUMPI PUSH1 0x40 MLOAD PUSH32 0x6697B23200000000000000000000000000000000000000000000000000000000 DUP2 MSTORE PUSH1 0x4 ADD PUSH1 0x40 MLOAD DUP1 SWAP2 SUB SWAP1 REVERT JUMPDEST PUSH2 0x5B6 DUP3 DUP3 PUSH2 0xA22 JUMP JUMPDEST POP POP POP JUMP JUMPDEST PUSH32 0x65D7A28E3265B37A6474929F336521B332C1681B933F6CB9F3376673440D862A PUSH2 0x5E5 DUP2 PUSH2 0x9BD JUMP JUMPDEST PUSH2 0x5ED PUSH2 0xB0B JUMP JUMPDEST POP JUMP JUMPDEST PUSH0 PUSH1 0x1 PUSH0 SWAP1 SLOAD SWAP1 PUSH2 0x100 EXP SWAP1 DIV PUSH1 0xFF AND SWAP1 POP SWAP1 JUMP JUMPDEST PUSH2 0x60D PUSH2 0x9D1 JUMP JUMPDEST PUSH0 PUSH2 0x616 PUSH2 0xA1B JUMP JUMPDEST SWAP1 POP PUSH1 0x40 MLOAD DUP1 PUSH1 0x40 ADD PUSH1 0x40 MSTORE DUP1 DUP4 DUP2 MSTORE PUSH1 0x20 ADD PUSH1 0x1 ISZERO ISZERO DUP2 MSTORE POP PUSH1 0x2 PUSH0 DUP4 PUSH20 0xFFFFFFFFFFFFFFFFFFFFFFFFFFFFFFFFFFFFFFFF AND PUSH20 0xFFFFFFFFFFFFFFFFFFFFFFFFFFFFFFFFFFFFFFFF AND DUP2 MSTORE PUSH1 0x20 ADD SWAP1 DUP2 MSTORE PUSH1 0x20 ADD PUSH0 KECCAK256 PUSH0 DUP3 ADD MLOAD DUP2 PUSH0 ADD SWAP1 DUP2 PUSH2 0x680 SWAP2 SWAP1 PUSH2 0x13FF JUMP JUMPDEST POP PUSH1 0x20 DUP3 ADD MLOAD DUP2 PUSH1 0x1 ADD PUSH0 PUSH2 0x100 EXP DUP2 SLOAD DUP2 PUSH1 0xFF MUL NOT AND SWAP1 DUP4 ISZERO ISZERO MUL OR SWAP1 SSTORE POP SWAP1 POP POP DUP1 PUSH20 0xFFFFFFFFFFFFFFFFFFFFFFFFFFFFFFFFFFFFFFFF AND PUSH32 0xDD635A4CD84864E37E4479DBFC2EC667ACFA473C83C8422A8AC9D9D07599B01C DUP4 PUSH1 0x40 MLOAD PUSH2 0x6E9 SWAP2 SWAP1 PUSH2 0x1506 JUMP JUMPDEST PUSH1 0x40 MLOAD DUP1 SWAP2 SUB SWAP1 LOG2 POP POP JUMP JUMPDEST PUSH32 0x65D7A28E3265B37A6474929F336521B332C1681B933F6CB9F3376673440D862A PUSH2 0x71F DUP2 PUSH2 0x9BD JUMP JUMPDEST PUSH2 0x727 PUSH2 0xB6C JUMP JUMPDEST POP JUMP JUMPDEST PUSH0 PUSH1 0x3 PUSH0 DUP5 DUP2 MSTORE PUSH1 0x20 ADD SWAP1 DUP2 MSTORE PUSH1 0x20 ADD PUSH0 KECCAK256 PUSH0 DUP4 PUSH20 0xFFFFFFFFFFFFFFFFFFFFFFFFFFFFFFFFFFFFFFFF AND PUSH20 0xFFFFFFFFFFFFFFFFFFFFFFFFFFFFFFFFFFFFFFFF AND DUP2 MSTORE PUSH1 0x20 ADD SWAP1 DUP2 MSTORE PUSH1 0x20 ADD PUSH0 KECCAK256 PUSH0 SWAP1 SLOAD SWAP1 PUSH2 0x100 EXP SWAP1 DIV PUSH1 0xFF AND SWAP1 POP SWAP3 SWAP2 POP POP JUMP JUMPDEST PUSH0 DUP1 SHL DUP2 JUMP JUMPDEST PUSH32 0x2172861495E7B85EDAC73E3CD5FBB42DD675BAADF627720E687BCFDACA025096 DUP2 JUMP JUMPDEST PUSH32 0x2172861495E7B85EDAC73E3CD5FBB42DD675BAADF627720E687BCFDACA025096 PUSH2 0x7E0 DUP2 PUSH2 0x9BD JUMP JUMPDEST PUSH2 0x7E8 PUSH2 0x9D1 JUMP JUMPDEST PUSH0 PUSH20 0xFFFFFFFFFFFFFFFFFFFFFFFFFFFFFFFFFFFFFFFF AND DUP3 PUSH20 0xFFFFFFFFFFFFFFFFFFFFFFFFFFFFFFFFFFFFFFFF AND SUB PUSH2 0x856 JUMPI PUSH1 0x40 MLOAD PUSH32 0x8C379A000000000000000000000000000000000000000000000000000000000 DUP2 MSTORE PUSH1 0x4 ADD PUSH2 0x84D SWAP1 PUSH2 0x1596 JUMP JUMPDEST PUSH1 0x40 MLOAD DUP1 SWAP2 SUB SWAP1 REVERT JUMPDEST PUSH0 PUSH1 0x3 PUSH0 DUP6 DUP2 MSTORE PUSH1 0x20 ADD SWAP1 DUP2 MSTORE PUSH1 0x20 ADD PUSH0 KECCAK256 PUSH0 DUP5 PUSH20 0xFFFFFFFFFFFFFFFFFFFFFFFFFFFFFFFFFFFFFFFF AND PUSH20 0xFFFFFFFFFFFFFFFFFFFFFFFFFFFFFFFFFFFFFFFF AND DUP2 MSTORE PUSH1 0x20 ADD SWAP1 DUP2 MSTORE PUSH1 0x20 ADD PUSH0 KECCAK256 PUSH0 PUSH2 0x100 EXP DUP2 SLOAD DUP2 PUSH1 0xFF MUL NOT AND SWAP1 DUP4 ISZERO ISZERO MUL OR SWAP1 SSTORE POP PUSH2 0x8C1 PUSH2 0xA1B JUMP JUMPDEST PUSH20 0xFFFFFFFFFFFFFFFFFFFFFFFFFFFFFFFFFFFFFFFF AND DUP3 PUSH20 0xFFFFFFFFFFFFFFFFFFFFFFFFFFFFFFFFFFFFFFFF AND DUP5 PUSH32 0xD0FB715514AA4DF838DF8EA7036EDD7F5F92BEA1560D56C7CFFF5A1060982821 PUSH1 0x40 MLOAD PUSH1 0x40 MLOAD DUP1 SWAP2 SUB SWAP1 LOG4 POP POP POP JUMP JUMPDEST PUSH32 0x65D7A28E3265B37A6474929F336521B332C1681B933F6CB9F3376673440D862A DUP2 JUMP JUMPDEST PUSH0 PUSH32 0x7965DB0B00000000000000000000000000000000000000000000000000000000 PUSH28 0xFFFFFFFFFFFFFFFFFFFFFFFFFFFFFFFFFFFFFFFFFFFFFFFFFFFFFFFF NOT AND DUP3 PUSH28 0xFFFFFFFFFFFFFFFFFFFFFFFFFFFFFFFFFFFFFFFFFFFFFFFFFFFFFFFF NOT AND EQ DUP1 PUSH2 0x9B6 JUMPI POP PUSH2 0x9B5 DUP3 PUSH2 0xBCD JUMP JUMPDEST JUMPDEST SWAP1 POP SWAP2 SWAP1 POP JUMP JUMPDEST PUSH2 0x9CE DUP2 PUSH2 0x9C9 PUSH2 0xA1B JUMP JUMPDEST PUSH2 0xC36 JUMP JUMPDEST POP JUMP JUMPDEST PUSH2 0x9D9 PUSH2 0x5F0 JUMP JUMPDEST ISZERO PUSH2 0xA19 JUMPI PUSH1 0x40 MLOAD PUSH32 0x8C379A000000000000000000000000000000000000000000000000000000000 DUP2 MSTORE PUSH1 0x4 ADD PUSH2 0xA10 SWAP1 PUSH2 0x15FE JUMP JUMPDEST PUSH1 0x40 MLOAD DUP1 SWAP2 SUB SWAP1 REVERT JUMPDEST JUMP JUMPDEST PUSH0 CALLER SWAP1 POP SWAP1 JUMP JUMPDEST PUSH0 PUSH2 0xA2D DUP4 DUP4 PUSH2 0x72A JUMP JUMPDEST ISZERO PUSH2 0xB01 JUMPI PUSH0 DUP1 PUSH0 DUP6 DUP2 MSTORE PUSH1 0x20 ADD SWAP1 DUP2 MSTORE PUSH1 0x20 ADD PUSH0 KECCAK256 PUSH0 ADD PUSH0 DUP5 PUSH20 0xFFFFFFFFFFFFFFFFFFFFFFFFFFFFFFFFFFFFFFFF AND PUSH20 0xFFFFFFFFFFFFFFFFFFFFFFFFFFFFFFFFFFFFFFFF AND DUP2 MSTORE PUSH1 0x20 ADD SWAP1 DUP2 MSTORE PUSH1 0x20 ADD PUSH0 KECCAK256 PUSH0 PUSH2 0x100 EXP DUP2 SLOAD DUP2 PUSH1 0xFF MUL NOT AND SWAP1 DUP4 ISZERO ISZERO MUL OR SWAP1 SSTORE POP PUSH2 0xA9E PUSH2 0xA1B JUMP JUMPDEST PUSH20 0xFFFFFFFFFFFFFFFFFFFFFFFFFFFFFFFFFFFFFFFF AND DUP3 PUSH20 0xFFFFFFFFFFFFFFFFFFFFFFFFFFFFFFFFFFFFFFFF AND DUP5 PUSH32 0xF6391F5C32D9C69D2A47EA670B442974B53935D1EDC7FD64EB21E047A839171B PUSH1 0x40 MLOAD PUSH1 0x40 MLOAD DUP1 SWAP2 SUB SWAP1 LOG4 PUSH1 0x1 SWAP1 POP PUSH2 0xB05 JUMP JUMPDEST PUSH0 SWAP1 POP JUMPDEST SWAP3 SWAP2 POP POP JUMP JUMPDEST PUSH2 0xB13 PUSH2 0xC87 JUMP JUMPDEST PUSH0 PUSH1 0x1 PUSH0 PUSH2 0x100 EXP DUP2 SLOAD DUP2 PUSH1 0xFF MUL NOT AND SWAP1 DUP4 ISZERO ISZERO MUL OR SWAP1 SSTORE POP PUSH32 0x5DB9EE0A495BF2E6FF9C91A7834C1BA4FDD244A5E8AA4E537BD38AEAE4B073AA PUSH2 0xB55 PUSH2 0xA1B JUMP JUMPDEST PUSH1 0x40 MLOAD PUSH2 0xB62 SWAP2 SWAP1 PUSH2 0x162B JUMP JUMPDEST PUSH1 0x40 MLOAD DUP1 SWAP2 SUB SWAP1 LOG1 JUMP JUMPDEST PUSH2 0xB74 PUSH2 0x9D1 JUMP JUMPDEST PUSH1 0x1 DUP1 PUSH0 PUSH2 0x100 EXP DUP2 SLOAD DUP2 PUSH1 0xFF MUL NOT AND SWAP1 DUP4 ISZERO ISZERO MUL OR SWAP1 SSTORE POP PUSH32 0x62E78CEA01BEE320CD4E420270B5EA74000D11B0C9F74754EBDBFC544B05A258 PUSH2 0xBB6 PUSH2 0xA1B JUMP JUMPDEST PUSH1 0x40 MLOAD PUSH2 0xBC3 SWAP2 SWAP1 PUSH2 0x162B JUMP JUMPDEST PUSH1 0x40 MLOAD DUP1 SWAP2 SUB SWAP1 LOG1 JUMP JUMPDEST PUSH0 PUSH32 0x1FFC9A700000000000000000000000000000000000000000000000000000000 PUSH28 0xFFFFFFFFFFFFFFFFFFFFFFFFFFFFFFFFFFFFFFFFFFFFFFFFFFFFFFFF NOT AND DUP3 PUSH28 0xFFFFFFFFFFFFFFFFFFFFFFFFFFFFFFFFFFFFFFFFFFFFFFFFFFFFFFFF NOT AND EQ SWAP1 POP SWAP2 SWAP1 POP JUMP JUMPDEST PUSH2 0xC40 DUP3 DUP3 PUSH2 0x72A JUMP JUMPDEST PUSH2 0xC83 JUMPI DUP1 DUP3 PUSH1 0x40 MLOAD PUSH32 0xE2517D3F00000000000000000000000000000000000000000000000000000000 DUP2 MSTORE PUSH1 0x4 ADD PUSH2 0xC7A SWAP3 SWAP2 SWAP1 PUSH2 0x1644 JUMP JUMPDEST PUSH1 0x40 MLOAD DUP1 SWAP2 SUB SWAP1 REVERT JUMPDEST POP POP JUMP JUMPDEST PUSH2 0xC8F PUSH2 0x5F0 JUMP JUMPDEST PUSH2 0xCCE JUMPI PUSH1 0x40 MLOAD PUSH32 0x8C379A000000000000000000000000000000000000000000000000000000000 DUP2 MSTORE PUSH1 0x4 ADD PUSH2 0xCC5 SWAP1 PUSH2 0x16B5 JUMP JUMPDEST PUSH1 0x40 MLOAD DUP1 SWAP2 SUB SWAP1 REVERT JUMPDEST JUMP JUMPDEST PUSH1 0x40 MLOAD DUP1 PUSH1 0x40 ADD PUSH1 0x40 MSTORE DUP1 PUSH1 0x60 DUP2 MSTORE PUSH1 0x20 ADD PUSH0 ISZERO ISZERO DUP2 MSTORE POP SWAP1 JUMP JUMPDEST PUSH0 PUSH1 0x40 MLOAD SWAP1 POP SWAP1 JUMP JUMPDEST PUSH0 DUP1 REVERT JUMPDEST PUSH0 DUP1 REVERT JUMPDEST PUSH0 PUSH32 0xFFFFFFFF00000000000000000000000000000000000000000000000000000000 DUP3 AND SWAP1 POP SWAP2 SWAP1 POP JUMP JUMPDEST PUSH2 0xD30 DUP2 PUSH2 0xCFC JUMP JUMPDEST DUP2 EQ PUSH2 0xD3A JUMPI PUSH0 DUP1 REVERT JUMPDEST POP JUMP JUMPDEST PUSH0 DUP2 CALLDATALOAD SWAP1 POP PUSH2 0xD4B DUP2 PUSH2 0xD27 JUMP JUMPDEST SWAP3 SWAP2 POP POP JUMP JUMPDEST PUSH0 PUSH1 0x20 DUP3 DUP5 SUB SLT ISZERO PUSH2 0xD66 JUMPI PUSH2 0xD65 PUSH2 0xCF4 JUMP JUMPDEST JUMPDEST PUSH0 PUSH2 0xD73 DUP5 DUP3 DUP6 ADD PUSH2 0xD3D JUMP JUMPDEST SWAP2 POP POP SWAP3 SWAP2 POP POP JUMP JUMPDEST PUSH0 DUP2 ISZERO ISZERO SWAP1 POP SWAP2 SWAP1 POP JUMP JUMPDEST PUSH2 0xD90 DUP2 PUSH2 0xD7C JUMP JUMPDEST DUP3 MSTORE POP POP JUMP JUMPDEST PUSH0 PUSH1 0x20 DUP3 ADD SWAP1 POP PUSH2 0xDA9 PUSH0 DUP4 ADD DUP5 PUSH2 0xD87 JUMP JUMPDEST SWAP3 SWAP2 POP POP JUMP JUMPDEST PUSH0 PUSH20 0xFFFFFFFFFFFFFFFFFFFFFFFFFFFFFFFFFFFFFFFF DUP3 AND SWAP1 POP SWAP2 SWAP1 POP JUMP JUMPDEST PUSH0 PUSH2 0xDD8 DUP3 PUSH2 0xDAF JUMP JUMPDEST SWAP1 POP SWAP2 SWAP1 POP JUMP JUMPDEST PUSH2 0xDE8 DUP2 PUSH2 0xDCE JUMP JUMPDEST DUP2 EQ PUSH2 0xDF2 JUMPI PUSH0 DUP1 REVERT JUMPDEST POP JUMP JUMPDEST PUSH0 DUP2 CALLDATALOAD SWAP1 POP PUSH2 0xE03 DUP2 PUSH2 0xDDF JUMP JUMPDEST SWAP3 SWAP2 POP POP JUMP JUMPDEST PUSH0 PUSH1 0x20 DUP3 DUP5 SUB SLT ISZERO PUSH2 0xE1E JUMPI PUSH2 0xE1D PUSH2 0xCF4 JUMP JUMPDEST JUMPDEST PUSH0 PUSH2 0xE2B DUP5 DUP3 DUP6 ADD PUSH2 0xDF5 JUMP JUMPDEST SWAP2 POP POP SWAP3 SWAP2 POP POP JUMP JUMPDEST PUSH0 DUP2 MLOAD SWAP1 POP SWAP2 SWAP1 POP JUMP JUMPDEST PUSH0 DUP3 DUP3 MSTORE PUSH1 0x20 DUP3 ADD SWAP1 POP SWAP3 SWAP2 POP POP JUMP JUMPDEST PUSH0 JUMPDEST DUP4 DUP2 LT ISZERO PUSH2 0xE6B JUMPI DUP1 DUP3 ADD MLOAD DUP2 DUP5 ADD MSTORE PUSH1 0x20 DUP2 ADD SWAP1 POP PUSH2 0xE50 JUMP JUMPDEST PUSH0 DUP5 DUP5 ADD MSTORE POP POP POP POP JUMP JUMPDEST PUSH0 PUSH1 0x1F NOT PUSH1 0x1F DUP4 ADD AND SWAP1 POP SWAP2 SWAP1 POP JUMP JUMPDEST PUSH0 PUSH2 0xE90 DUP3 PUSH2 0xE34 JUMP JUMPDEST PUSH2 0xE9A DUP2 DUP6 PUSH2 0xE3E JUMP JUMPDEST SWAP4 POP PUSH2 0xEAA DUP2 DUP6 PUSH1 0x20 DUP7 ADD PUSH2 0xE4E JUMP JUMPDEST PUSH2 0xEB3 DUP2 PUSH2 0xE76 JUMP JUMPDEST DUP5 ADD SWAP2 POP POP SWAP3 SWAP2 POP POP JUMP JUMPDEST PUSH2 0xEC7 DUP2 PUSH2 0xD7C JUMP JUMPDEST DUP3 MSTORE POP POP JUMP JUMPDEST PUSH0 PUSH1 0x40 DUP4 ADD PUSH0 DUP4 ADD MLOAD DUP5 DUP3 SUB PUSH0 DUP7 ADD MSTORE PUSH2 0xEE7 DUP3 DUP3 PUSH2 0xE86 JUMP JUMPDEST SWAP2 POP POP PUSH1 0x20 DUP4 ADD MLOAD PUSH2 0xEFC PUSH1 0x20 DUP7 ADD DUP3 PUSH2 0xEBE JUMP JUMPDEST POP DUP1 SWAP2 POP POP SWAP3 SWAP2 POP POP JUMP JUMPDEST PUSH0 PUSH1 0x20 DUP3 ADD SWAP1 POP DUP2 DUP2 SUB PUSH0 DUP4 ADD MSTORE PUSH2 0xF1F DUP2 DUP5 PUSH2 0xECD JUMP JUMPDEST SWAP1 POP SWAP3 SWAP2 POP POP JUMP JUMPDEST PUSH0 DUP2 SWAP1 POP SWAP2 SWAP1 POP JUMP JUMPDEST PUSH2 0xF39 DUP2 PUSH2 0xF27 JUMP JUMPDEST DUP2 EQ PUSH2 0xF43 JUMPI PUSH0 DUP1 REVERT JUMPDEST POP JUMP JUMPDEST PUSH0 DUP2 CALLDATALOAD SWAP1 POP PUSH2 0xF54 DUP2 PUSH2 0xF30 JUMP JUMPDEST SWAP3 SWAP2 POP POP JUMP JUMPDEST PUSH0 PUSH1 0x20 DUP3 DUP5 SUB SLT ISZERO PUSH2 0xF6F JUMPI PUSH2 0xF6E PUSH2 0xCF4 JUMP JUMPDEST JUMPDEST PUSH0 PUSH2 0xF7C DUP5 DUP3 DUP6 ADD PUSH2 0xF46 JUMP JUMPDEST SWAP2 POP POP SWAP3 SWAP2 POP POP JUMP JUMPDEST PUSH2 0xF8E DUP2 PUSH2 0xF27 JUMP JUMPDEST DUP3 MSTORE POP POP JUMP JUMPDEST PUSH0 PUSH1 0x20 DUP3 ADD SWAP1 POP PUSH2 0xFA7 PUSH0 DUP4 ADD DUP5 PUSH2 0xF85 JUMP JUMPDEST SWAP3 SWAP2 POP POP JUMP JUMPDEST PUSH0 DUP1 PUSH1 0x40 DUP4 DUP6 SUB SLT ISZERO PUSH2 0xFC3 JUMPI PUSH2 0xFC2 PUSH2 0xCF4 JUMP JUMPDEST JUMPDEST PUSH0 PUSH2 0xFD0 DUP6 DUP3 DUP7 ADD PUSH2 0xF46 JUMP JUMPDEST SWAP3 POP POP PUSH1 0x20 PUSH2 0xFE1 DUP6 DUP3 DUP7 ADD PUSH2 0xDF5 JUMP JUMPDEST SWAP2 POP POP SWAP3 POP SWAP3 SWAP1 POP JUMP JUMPDEST PUSH0 DUP1 REVERT JUMPDEST PUSH0 DUP1 REVERT JUMPDEST PUSH32 0x4E487B7100000000000000000000000000000000000000000000000000000000 PUSH0 MSTORE PUSH1 0x41 PUSH1 0x4 MSTORE PUSH1 0x24 PUSH0 REVERT JUMPDEST PUSH2 0x1029 DUP3 PUSH2 0xE76 JUMP JUMPDEST DUP2 ADD DUP2 DUP2 LT PUSH8 0xFFFFFFFFFFFFFFFF DUP3 GT OR ISZERO PUSH2 0x1048 JUMPI PUSH2 0x1047 PUSH2 0xFF3 JUMP JUMPDEST JUMPDEST DUP1 PUSH1 0x40 MSTORE POP POP POP JUMP JUMPDEST PUSH0 PUSH2 0x105A PUSH2 0xCEB JUMP JUMPDEST SWAP1 POP PUSH2 0x1066 DUP3 DUP3 PUSH2 0x1020 JUMP JUMPDEST SWAP2 SWAP1 POP JUMP JUMPDEST PUSH0 PUSH8 0xFFFFFFFFFFFFFFFF DUP3 GT ISZERO PUSH2 0x1085 JUMPI PUSH2 0x1084 PUSH2 0xFF3 JUMP JUMPDEST JUMPDEST PUSH2 0x108E DUP3 PUSH2 0xE76 JUMP JUMPDEST SWAP1 POP PUSH1 0x20 DUP2 ADD SWAP1 POP SWAP2 SWAP1 POP JUMP JUMPDEST DUP3 DUP2 DUP4 CALLDATACOPY PUSH0 DUP4 DUP4 ADD MSTORE POP POP POP JUMP JUMPDEST PUSH0 PUSH2 0x10BB PUSH2 0x10B6 DUP5 PUSH2 0x106B JUMP JUMPDEST PUSH2 0x1051 JUMP JUMPDEST SWAP1 POP DUP3 DUP2 MSTORE PUSH1 0x20 DUP2 ADD DUP5 DUP5 DUP5 ADD GT ISZERO PUSH2 0x10D7 JUMPI PUSH2 0x10D6 PUSH2 0xFEF JUMP JUMPDEST JUMPDEST PUSH2 0x10E2 DUP5 DUP3 DUP6 PUSH2 0x109B JUMP JUMPDEST POP SWAP4 SWAP3 POP POP POP JUMP JUMPDEST PUSH0 DUP3 PUSH1 0x1F DUP4 ADD SLT PUSH2 0x10FE JUMPI PUSH2 0x10FD PUSH2 0xFEB JUMP JUMPDEST JUMPDEST DUP2 CALLDATALOAD PUSH2 0x110E DUP5 DUP3 PUSH1 0x20 DUP7 ADD PUSH2 0x10A9 JUMP JUMPDEST SWAP2 POP POP SWAP3 SWAP2 POP POP JUMP JUMPDEST PUSH0 PUSH1 0x20 DUP3 DUP5 SUB SLT ISZERO PUSH2 0x112C JUMPI PUSH2 0x112B PUSH2 0xCF4 JUMP JUMPDEST JUMPDEST PUSH0 DUP3 ADD CALLDATALOAD PUSH8 0xFFFFFFFFFFFFFFFF DUP2 GT ISZERO PUSH2 0x1149 JUMPI PUSH2 0x1148 PUSH2 0xCF8 JUMP JUMPDEST JUMPDEST PUSH2 0x1155 DUP5 DUP3 DUP6 ADD PUSH2 0x10EA JUMP JUMPDEST SWAP2 POP POP SWAP3 SWAP2 POP POP JUMP JUMPDEST PUSH32 0x4E487B7100000000000000000000000000000000000000000000000000000000 PUSH0 MSTORE PUSH1 0x22 PUSH1 0x4 MSTORE PUSH1 0x24 PUSH0 REVERT JUMPDEST PUSH0 PUSH1 0x2 DUP3 DIV SWAP1 POP PUSH1 0x1 DUP3 AND DUP1 PUSH2 0x11A2 JUMPI PUSH1 0x7F DUP3 AND SWAP2 POP JUMPDEST PUSH1 0x20 DUP3 LT DUP2 SUB PUSH2 0x11B5 JUMPI PUSH2 0x11B4 PUSH2 0x115E JUMP JUMPDEST JUMPDEST POP SWAP2 SWAP1 POP JUMP JUMPDEST PUSH0 DUP3 DUP3 MSTORE PUSH1 0x20 DUP3 ADD SWAP1 POP SWAP3 SWAP2 POP POP JUMP JUMPDEST PUSH32 0x436F6E7472696275746F7252656769737472793A204772616E7420726F6C6520 PUSH0 DUP3 ADD MSTORE PUSH32 0x746F20746865207A65726F206164647265737300000000000000000000000000 PUSH1 0x20 DUP3 ADD MSTORE POP JUMP JUMPDEST PUSH0 PUSH2 0x1225 PUSH1 0x33 DUP4 PUSH2 0x11BB JUMP JUMPDEST SWAP2 POP PUSH2 0x1230 DUP3 PUSH2 0x11CB JUMP JUMPDEST PUSH1 0x40 DUP3 ADD SWAP1 POP SWAP2 SWAP1 POP JUMP JUMPDEST PUSH0 PUSH1 0x20 DUP3 ADD SWAP1 POP DUP2 DUP2 SUB PUSH0 DUP4 ADD MSTORE PUSH2 0x1252 DUP2 PUSH2 0x1219 JUMP JUMPDEST SWAP1 POP SWAP2 SWAP1 POP JUMP JUMPDEST PUSH0 DUP2 SWAP1 POP DUP2 PUSH0 MSTORE PUSH1 0x20 PUSH0 KECCAK256 SWAP1 POP SWAP2 SWAP1 POP JUMP JUMPDEST PUSH0 PUSH1 0x20 PUSH1 0x1F DUP4 ADD DIV SWAP1 POP SWAP2 SWAP1 POP JUMP JUMPDEST PUSH0 DUP3 DUP3 SHL SWAP1 POP SWAP3 SWAP2 POP POP JUMP JUMPDEST PUSH0 PUSH1 0x8 DUP4 MUL PUSH2 0x12B5 PUSH32 0xFFFFFFFFFFFFFFFFFFFFFFFFFFFFFFFFFFFFFFFFFFFFFFFFFFFFFFFFFFFFFFFF DUP3 PUSH2 0x127A JUMP JUMPDEST PUSH2 0x12BF DUP7 DUP4 PUSH2 0x127A JUMP JUMPDEST SWAP6 POP DUP1 NOT DUP5 AND SWAP4 POP DUP1 DUP7 AND DUP5 OR SWAP3 POP POP POP SWAP4 SWAP3 POP POP POP JUMP JUMPDEST PUSH0 DUP2 SWAP1 POP SWAP2 SWAP1 POP JUMP JUMPDEST PUSH0 DUP2 SWAP1 POP SWAP2 SWAP1 POP JUMP JUMPDEST PUSH0 PUSH2 0x1303 PUSH2 0x12FE PUSH2 0x12F9 DUP5 PUSH2 0x12D7 JUMP JUMPDEST PUSH2 0x12E0 JUMP JUMPDEST PUSH2 0x12D7 JUMP JUMPDEST SWAP1 POP SWAP2 SWAP1 POP JUMP JUMPDEST PUSH0 DUP2 SWAP1 POP SWAP2 SWAP1 POP JUMP JUMPDEST PUSH2 0x131C DUP4 PUSH2 0x12E9 JUMP JUMPDEST PUSH2 0x1330 PUSH2 0x1328 DUP3 PUSH2 0x130A JUMP JUMPDEST DUP5 DUP5 SLOAD PUSH2 0x1286 JUMP JUMPDEST DUP3 SSTORE POP POP POP POP JUMP JUMPDEST PUSH0 SWAP1 JUMP JUMPDEST PUSH2 0x1344 PUSH2 0x1338 JUMP JUMPDEST PUSH2 0x134F DUP2 DUP5 DUP5 PUSH2 0x1313 JUMP JUMPDEST POP POP POP JUMP JUMPDEST JUMPDEST DUP2 DUP2 LT ISZERO PUSH2 0x1372 JUMPI PUSH2 0x1367 PUSH0 DUP3 PUSH2 0x133C JUMP JUMPDEST PUSH1 0x1 DUP2 ADD SWAP1 POP PUSH2 0x1355 JUMP JUMPDEST POP POP JUMP JUMPDEST PUSH1 0x1F DUP3 GT ISZERO PUSH2 0x13B7 JUMPI PUSH2 0x1388 DUP2 PUSH2 0x1259 JUMP JUMPDEST PUSH2 0x1391 DUP5 PUSH2 0x126B JUMP JUMPDEST DUP2 ADD PUSH1 0x20 DUP6 LT ISZERO PUSH2 0x13A0 JUMPI DUP2 SWAP1 POP JUMPDEST PUSH2 0x13B4 PUSH2 0x13AC DUP6 PUSH2 0x126B JUMP JUMPDEST DUP4 ADD DUP3 PUSH2 0x1354 JUMP JUMPDEST POP POP JUMPDEST POP POP POP JUMP JUMPDEST PUSH0 DUP3 DUP3 SHR SWAP1 POP SWAP3 SWAP2 POP POP JUMP JUMPDEST PUSH0 PUSH2 0x13D7 PUSH0 NOT DUP5 PUSH1 0x8 MUL PUSH2 0x13BC JUMP JUMPDEST NOT DUP1 DUP4 AND SWAP2 POP POP SWAP3 SWAP2 POP POP JUMP JUMPDEST PUSH0 PUSH2 0x13EF DUP4 DUP4 PUSH2 0x13C8 JUMP JUMPDEST SWAP2 POP DUP3 PUSH1 0x2 MUL DUP3 OR SWAP1 POP SWAP3 SWAP2 POP POP JUMP JUMPDEST PUSH2 0x1408 DUP3 PUSH2 0xE34 JUMP JUMPDEST PUSH8 0xFFFFFFFFFFFFFFFF DUP2 GT ISZERO PUSH2 0x1421 JUMPI PUSH2 0x1420 PUSH2 0xFF3 JUMP JUMPDEST JUMPDEST PUSH2 0x142B DUP3 SLOAD PUSH2 0x118B JUMP JUMPDEST PUSH2 0x1436 DUP3 DUP3 DUP6 PUSH2 0x1376 JUMP JUMPDEST PUSH0 PUSH1 0x20 SWAP1 POP PUSH1 0x1F DUP4 GT PUSH1 0x1 DUP2 EQ PUSH2 0x1467 JUMPI PUSH0 DUP5 ISZERO PUSH2 0x1455 JUMPI DUP3 DUP8 ADD MLOAD SWAP1 POP JUMPDEST PUSH2 0x145F DUP6 DUP3 PUSH2 0x13E4 JUMP JUMPDEST DUP7 SSTORE POP PUSH2 0x14C6 JUMP JUMPDEST PUSH1 0x1F NOT DUP5 AND PUSH2 0x1475 DUP7 PUSH2 0x1259 JUMP JUMPDEST PUSH0 JUMPDEST DUP3 DUP2 LT ISZERO PUSH2 0x149C JUMPI DUP5 DUP10 ADD MLOAD DUP3 SSTORE PUSH1 0x1 DUP3 ADD SWAP2 POP PUSH1 0x20 DUP6 ADD SWAP5 POP PUSH1 0x20 DUP2 ADD SWAP1 POP PUSH2 0x1477 JUMP JUMPDEST DUP7 DUP4 LT ISZERO PUSH2 0x14B9 JUMPI DUP5 DUP10 ADD MLOAD PUSH2 0x14B5 PUSH1 0x1F DUP10 AND DUP3 PUSH2 0x13C8 JUMP JUMPDEST DUP4 SSTORE POP JUMPDEST PUSH1 0x1 PUSH1 0x2 DUP9 MUL ADD DUP9 SSTORE POP POP POP JUMPDEST POP POP POP POP POP POP JUMP JUMPDEST PUSH0 PUSH2 0x14D8 DUP3 PUSH2 0xE34 JUMP JUMPDEST PUSH2 0x14E2 DUP2 DUP6 PUSH2 0x11BB JUMP JUMPDEST SWAP4 POP PUSH2 0x14F2 DUP2 DUP6 PUSH1 0x20 DUP7 ADD PUSH2 0xE4E JUMP JUMPDEST PUSH2 0x14FB DUP2 PUSH2 0xE76 JUMP JUMPDEST DUP5 ADD SWAP2 POP POP SWAP3 SWAP2 POP POP JUMP JUMPDEST PUSH0 PUSH1 0x20 DUP3 ADD SWAP1 POP DUP2 DUP2 SUB PUSH0 DUP4 ADD MSTORE PUSH2 0x151E DUP2 DUP5 PUSH2 0x14CE JUMP JUMPDEST SWAP1 POP SWAP3 SWAP2 POP POP JUMP JUMPDEST PUSH32 0x436F6E7472696275746F7252656769737472793A205265766F6B6520726F6C65 PUSH0 DUP3 ADD MSTORE PUSH32 0x2066726F6D20746865207A65726F206164647265737300000000000000000000 PUSH1 0x20 DUP3 ADD MSTORE POP JUMP JUMPDEST PUSH0 PUSH2 0x1580 PUSH1 0x36 DUP4 PUSH2 0x11BB JUMP JUMPDEST SWAP2 POP PUSH2 0x158B DUP3 PUSH2 0x1526 JUMP JUMPDEST PUSH1 0x40 DUP3 ADD SWAP1 POP SWAP2 SWAP1 POP JUMP JUMPDEST PUSH0 PUSH1 0x20 DUP3 ADD SWAP1 POP DUP2 DUP2 SUB PUSH0 DUP4 ADD MSTORE PUSH2 0x15AD DUP2 PUSH2 0x1574 JUMP JUMPDEST SWAP1 POP SWAP2 SWAP1 POP JUMP JUMPDEST PUSH32 0x5061757361626C653A2070617573656400000000000000000000000000000000 PUSH0 DUP3 ADD MSTORE POP JUMP JUMPDEST PUSH0 PUSH2 0x15E8 PUSH1 0x10 DUP4 PUSH2 0x11BB JUMP JUMPDEST SWAP2 POP PUSH2 0x15F3 DUP3 PUSH2 0x15B4 JUMP JUMPDEST PUSH1 0x20 DUP3 ADD SWAP1 POP SWAP2 SWAP1 POP JUMP JUMPDEST PUSH0 PUSH1 0x20 DUP3 ADD SWAP1 POP DUP2 DUP2 SUB PUSH0 DUP4 ADD MSTORE PUSH2 0x1615 DUP2 PUSH2 0x15DC JUMP JUMPDEST SWAP1 POP SWAP2 SWAP1 POP JUMP JUMPDEST PUSH2 0x1625 DUP2 PUSH2 0xDCE JUMP JUMPDEST DUP3 MSTORE POP POP JUMP JUMPDEST PUSH0 PUSH1 0x20 DUP3 ADD SWAP1 POP PUSH2 0x163E PUSH0 DUP4 ADD DUP5 PUSH2 0x161C JUMP JUMPDEST SWAP3 SWAP2 POP POP JUMP JUMPDEST PUSH0 PUSH1 0x40 DUP3 ADD SWAP1 POP PUSH2 0x1657 PUSH0 DUP4 ADD DUP6 PUSH2 0x161C JUMP JUMPDEST PUSH2 0x1664 PUSH1 0x20 DUP4 ADD DUP5 PUSH2 0xF85 JUMP JUMPDEST SWAP4 SWAP3 POP POP POP JUMP JUMPDEST PUSH32 0x5061757361626C653A206E6F7420706175736564000000000000000000000000 PUSH0 DUP3 ADD MSTORE POP JUMP JUMPDEST PUSH0 PUSH2 0x169F PUSH1 0x14 DUP4 PUSH2 0x11BB JUMP JUMPDEST SWAP2 POP PUSH2 0x16AA DUP3 PUSH2 0x166B JUMP JUMPDEST PUSH1 0x20 DUP3 ADD SWAP1 POP SWAP2 SWAP1 POP JUMP JUMPDEST PUSH0 PUSH1 0x20 DUP3 ADD SWAP1 POP DUP2 DUP2 SUB PUSH0 DUP4 ADD MSTORE PUSH2 0x16CC DUP2 PUSH2 0x1693 JUMP JUMPDEST SWAP1 POP SWAP2 SWAP1 POP JUMP INVALID LOG2 PUSH5 0x6970667358 0x22 SLT KECCAK256 RETURNDATASIZE 0xF7 0xC3 0xB5 0xEE PUSH26 0x56CB9B6BD93B12EAE2E8D581058E33190905F0DF5B0ACB790F52 PUSH5 0x736F6C6343 STOP ADDMOD EQ STOP CALLER "
				},
				"gasEstimates": {
					"creation": {
						"codeDepositCost": "1179400",
						"executionCost": "infinite",
						"totalCost": "infinite"
					},
					"external": {
						"DEFAULT_ADMIN_ROLE()": "352",
						"PAUSER_ROLE()": "413",
						"ROLE_ADMIN()": "369",
						"getProfile(address)": "infinite",
						"getRoleAdmin(bytes32)": "infinite",
						"grantRole(bytes32,address)": "infinite",
						"hasRole(bytes32,address)": "3184",
						"pause()": "infinite",
						"paused()": "2562",
						"renounceRole(bytes32,address)": "infinite",
						"revokeRole(bytes32,address)": "infinite",
						"setProfileURI(string)": "infinite",
						"supportsInterface(bytes4)": "783",
						"unpause()": "infinite"
					}
				},
				"methodIdentifiers": {
					"DEFAULT_ADMIN_ROLE()": "a217fddf",
					"PAUSER_ROLE()": "e63ab1e9",
					"ROLE_ADMIN()": "d391014b",
					"getProfile(address)": "0f53a470",
					"getRoleAdmin(bytes32)": "248a9ca3",
					"grantRole(bytes32,address)": "2f2ff15d",
					"hasRole(bytes32,address)": "91d14854",
					"pause()": "8456cb59",
					"paused()": "5c975abb",
					"renounceRole(bytes32,address)": "36568abe",
					"revokeRole(bytes32,address)": "d547741f",
					"setProfileURI(string)": "786d6b97",
					"supportsInterface(bytes4)": "01ffc9a7",
					"unpause()": "3f4ba83a"
				}
			},
			"storageLayout": {
				"storage": [
					{
						"astId": 27,
						"contract": "contracts/ContributorRegistry.sol:ContributorRegistry",
						"label": "_roles",
						"offset": 0,
						"slot": "0",
						"type": "t_mapping(t_bytes32,t_struct(RoleData)22_storage)"
					},
					{
						"astId": 397,
						"contract": "contracts/ContributorRegistry.sol:ContributorRegistry",
						"label": "_paused",
						"offset": 0,
						"slot": "1",
						"type": "t_bool"
					},
					{
						"astId": 585,
						"contract": "contracts/ContributorRegistry.sol:ContributorRegistry",
						"label": "_profiles",
						"offset": 0,
						"slot": "2",
						"type": "t_mapping(t_address,t_struct(Profile)580_storage)"
					},
					{
						"astId": 591,
						"contract": "contracts/ContributorRegistry.sol:ContributorRegistry",
						"label": "_roles",
						"offset": 0,
						"slot": "3",
						"type": "t_mapping(t_bytes32,t_mapping(t_address,t_bool))"
					}
				],
				"types": {
					"t_address": {
						"encoding": "inplace",
						"label": "address",
						"numberOfBytes": "20"
					},
					"t_bool": {
						"encoding": "inplace",
						"label": "bool",
						"numberOfBytes": "1"
					},
					"t_bytes32": {
						"encoding": "inplace",
						"label": "bytes32",
						"numberOfBytes": "32"
					},
					"t_mapping(t_address,t_bool)": {
						"encoding": "mapping",
						"key": "t_address",
						"label": "mapping(address => bool)",
						"numberOfBytes": "32",
						"value": "t_bool"
					},
					"t_mapping(t_address,t_struct(Profile)580_storage)": {
						"encoding": "mapping",
						"key": "t_address",
						"label": "mapping(address => struct ContributorRegistry.Profile)",
						"numberOfBytes": "32",
						"value": "t_struct(Profile)580_storage"
					},
					"t_mapping(t_bytes32,t_mapping(t_address,t_bool))": {
						"encoding": "mapping",
						"key": "t_bytes32",
						"label": "mapping(bytes32 => mapping(address => bool))",
						"numberOfBytes": "32",
						"value": "t_mapping(t_address,t_bool)"
					},
					"t_mapping(t_bytes32,t_struct(RoleData)22_storage)": {
						"encoding": "mapping",
						"key": "t_bytes32",
						"label": "mapping(bytes32 => struct AccessControl.RoleData)",
						"numberOfBytes": "32",
						"value": "t_struct(RoleData)22_storage"
					},
					"t_string_storage": {
						"encoding": "bytes",
						"label": "string",
						"numberOfBytes": "32"
					},
					"t_struct(Profile)580_storage": {
						"encoding": "inplace",
						"label": "struct ContributorRegistry.Profile",
						"members": [
							{
								"astId": 577,
								"contract": "contracts/ContributorRegistry.sol:ContributorRegistry",
								"label": "metadataURI",
								"offset": 0,
								"slot": "0",
								"type": "t_string_storage"
							},
							{
								"astId": 579,
								"contract": "contracts/ContributorRegistry.sol:ContributorRegistry",
								"label": "isRegistered",
								"offset": 0,
								"slot": "1",
								"type": "t_bool"
							}
						],
						"numberOfBytes": "64"
					},
					"t_struct(RoleData)22_storage": {
						"encoding": "inplace",
						"label": "struct AccessControl.RoleData",
						"members": [
							{
								"astId": 19,
								"contract": "contracts/ContributorRegistry.sol:ContributorRegistry",
								"label": "hasRole",
								"offset": 0,
								"slot": "0",
								"type": "t_mapping(t_address,t_bool)"
							},
							{
								"astId": 21,
								"contract": "contracts/ContributorRegistry.sol:ContributorRegistry",
								"label": "adminRole",
								"offset": 0,
								"slot": "1",
								"type": "t_bytes32"
							}
						],
						"numberOfBytes": "64"
					}
				}
			},
			"userdoc": {
				"kind": "user",
				"methods": {
					"constructor": {
						"notice": "Sets up the contract and initial administrative roles."
					},
					"getProfile(address)": {
						"notice": "Retrieves the profile details for a given contributor."
					},
					"grantRole(bytes32,address)": {
						"notice": "Grants an ecosystem role to a contributor."
					},
					"hasRole(bytes32,address)": {
						"notice": "Checks if a contributor has a specific ecosystem role."
					},
					"pause()": {
						"notice": "Pauses all state-changing functions."
					},
					"revokeRole(bytes32,address)": {
						"notice": "Revokes an ecosystem role from a contributor."
					},
					"setProfileURI(string)": {
						"notice": "Allows a contributor to set or update their own profile URI."
					},
					"unpause()": {
						"notice": "Unpauses the contract."
					}
				},
				"notice": "Manages contributor profiles (wallet ↔ profile) and their roles.",
				"version": 1
			}
		}
	}
}