{
	"contracts/BuyStakeContract.sol": {
		"INTBuyStake": {
			"abi": [
				{
					"inputs": [],
					"stateMutability": "nonpayable",
					"type": "constructor"
				},
				{
					"inputs": [
						{
							"internalType": "address",
							"name": "owner",
							"type": "address"
						}
					],
					"name": "OwnableInvalidOwner",
					"type": "error"
				},
				{
					"inputs": [
						{
							"internalType": "address",
							"name": "account",
							"type": "address"
						}
					],
					"name": "OwnableUnauthorizedAccount",
					"type": "error"
				},
				{
					"inputs": [
						{
							"internalType": "address",
							"name": "token",
							"type": "address"
						}
					],
					"name": "SafeERC20FailedOperation",
					"type": "error"
				},
				{
					"anonymous": false,
					"inputs": [
						{
							"indexed": true,
							"internalType": "address",
							"name": "previousOwner",
							"type": "address"
						},
						{
							"indexed": true,
							"internalType": "address",
							"name": "newOwner",
							"type": "address"
						}
					],
					"name": "OwnershipTransferred",
					"type": "event"
				},
				{
					"inputs": [
						{
							"internalType": "address[]",
							"name": "_tokens",
							"type": "address[]"
						},
						{
							"internalType": "uint256[]",
							"name": "_prices",
							"type": "uint256[]"
						}
					],
					"name": "addPayableTokens",
					"outputs": [],
					"stateMutability": "nonpayable",
					"type": "function"
				},
				{
					"inputs": [
						{
							"internalType": "address",
							"name": "_token",
							"type": "address"
						},
						{
							"internalType": "uint256",
							"name": "_amount",
							"type": "uint256"
						}
					],
					"name": "buyToken",
					"outputs": [],
					"stateMutability": "payable",
					"type": "function"
				},
				{
					"inputs": [
						{
							"internalType": "uint256",
							"name": "",
							"type": "uint256"
						}
					],
					"name": "buyers",
					"outputs": [
						{
							"internalType": "address",
							"name": "",
							"type": "address"
						}
					],
					"stateMutability": "view",
					"type": "function"
				},
				{
					"inputs": [
						{
							"internalType": "address",
							"name": "",
							"type": "address"
						}
					],
					"name": "buyersDetails",
					"outputs": [
						{
							"internalType": "uint256",
							"name": "amount",
							"type": "uint256"
						},
						{
							"internalType": "bool",
							"name": "exists",
							"type": "bool"
						},
						{
							"internalType": "bool",
							"name": "isClaimed",
							"type": "bool"
						},
						{
							"internalType": "uint256",
							"name": "reward",
							"type": "uint256"
						},
						{
							"internalType": "uint256",
							"name": "lastCalculatedTime",
							"type": "uint256"
						}
					],
					"stateMutability": "view",
					"type": "function"
				},
				{
					"inputs": [
						{
							"internalType": "address",
							"name": "buyer",
							"type": "address"
						}
					],
					"name": "getBuyerReward",
					"outputs": [
						{
							"internalType": "uint256",
							"name": "",
							"type": "uint256"
						}
					],
					"stateMutability": "view",
					"type": "function"
				},
				{
					"inputs": [
						{
							"internalType": "address",
							"name": "token",
							"type": "address"
						},
						{
							"internalType": "uint256",
							"name": "amount",
							"type": "uint256"
						}
					],
					"name": "getTokenAmount",
					"outputs": [
						{
							"internalType": "uint256",
							"name": "",
							"type": "uint256"
						}
					],
					"stateMutability": "view",
					"type": "function"
				},
				{
					"inputs": [
						{
							"internalType": "uint256",
							"name": "_totalTokensforSale",
							"type": "uint256"
						}
					],
					"name": "increaseTotalTokensforSale",
					"outputs": [],
					"stateMutability": "nonpayable",
					"type": "function"
				},
				{
					"inputs": [],
					"name": "multiplier",
					"outputs": [
						{
							"internalType": "uint256",
							"name": "",
							"type": "uint256"
						}
					],
					"stateMutability": "view",
					"type": "function"
				},
				{
					"inputs": [],
					"name": "owner",
					"outputs": [
						{
							"internalType": "address",
							"name": "",
							"type": "address"
						}
					],
					"stateMutability": "view",
					"type": "function"
				},
				{
					"inputs": [
						{
							"internalType": "address",
							"name": "_token",
							"type": "address"
						},
						{
							"internalType": "bool",
							"name": "_status",
							"type": "bool"
						}
					],
					"name": "payableTokenStatus",
					"outputs": [],
					"stateMutability": "nonpayable",
					"type": "function"
				},
				{
					"inputs": [
						{
							"internalType": "address",
							"name": "",
							"type": "address"
						}
					],
					"name": "payableTokens",
					"outputs": [
						{
							"internalType": "bool",
							"name": "",
							"type": "bool"
						}
					],
					"stateMutability": "view",
					"type": "function"
				},
				{
					"inputs": [],
					"name": "rate",
					"outputs": [
						{
							"internalType": "uint256",
							"name": "",
							"type": "uint256"
						}
					],
					"stateMutability": "view",
					"type": "function"
				},
				{
					"inputs": [],
					"name": "renounceOwnership",
					"outputs": [],
					"stateMutability": "nonpayable",
					"type": "function"
				},
				{
					"inputs": [],
					"name": "resumeSale",
					"outputs": [],
					"stateMutability": "nonpayable",
					"type": "function"
				},
				{
					"inputs": [],
					"name": "saleStatus",
					"outputs": [
						{
							"internalType": "bool",
							"name": "",
							"type": "bool"
						}
					],
					"stateMutability": "view",
					"type": "function"
				},
				{
					"inputs": [],
					"name": "saleToken",
					"outputs": [
						{
							"internalType": "address",
							"name": "",
							"type": "address"
						}
					],
					"stateMutability": "view",
					"type": "function"
				},
				{
					"inputs": [],
					"name": "saleTokenDec",
					"outputs": [
						{
							"internalType": "uint256",
							"name": "",
							"type": "uint256"
						}
					],
					"stateMutability": "view",
					"type": "function"
				},
				{
					"inputs": [
						{
							"internalType": "uint256",
							"name": "_multiplier",
							"type": "uint256"
						}
					],
					"name": "setMultiplier",
					"outputs": [],
					"stateMutability": "nonpayable",
					"type": "function"
				},
				{
					"inputs": [
						{
							"internalType": "address",
							"name": "_saleToken",
							"type": "address"
						},
						{
							"internalType": "uint256",
							"name": "_totalTokensforSale",
							"type": "uint256"
						},
						{
							"internalType": "uint256",
							"name": "_rate",
							"type": "uint256"
						},
						{
							"internalType": "uint256",
							"name": "_multiplier",
							"type": "uint256"
						},
						{
							"internalType": "bool",
							"name": "_saleStatus",
							"type": "bool"
						}
					],
					"name": "setParams",
					"outputs": [],
					"stateMutability": "nonpayable",
					"type": "function"
				},
				{
					"inputs": [],
					"name": "stopSale",
					"outputs": [],
					"stateMutability": "nonpayable",
					"type": "function"
				},
				{
					"inputs": [
						{
							"internalType": "address",
							"name": "",
							"type": "address"
						}
					],
					"name": "tokenPrices",
					"outputs": [
						{
							"internalType": "uint256",
							"name": "",
							"type": "uint256"
						}
					],
					"stateMutability": "view",
					"type": "function"
				},
				{
					"inputs": [],
					"name": "totalTokensSold",
					"outputs": [
						{
							"internalType": "uint256",
							"name": "",
							"type": "uint256"
						}
					],
					"stateMutability": "view",
					"type": "function"
				},
				{
					"inputs": [],
					"name": "totalTokensforSale",
					"outputs": [
						{
							"internalType": "uint256",
							"name": "",
							"type": "uint256"
						}
					],
					"stateMutability": "view",
					"type": "function"
				},
				{
					"inputs": [
						{
							"internalType": "address",
							"name": "newOwner",
							"type": "address"
						}
					],
					"name": "transferOwnership",
					"outputs": [],
					"stateMutability": "nonpayable",
					"type": "function"
				},
				{
					"inputs": [],
					"name": "unlockAllTokens",
					"outputs": [],
					"stateMutability": "nonpayable",
					"type": "function"
				},
				{
					"inputs": [],
					"name": "unlockToken",
					"outputs": [],
					"stateMutability": "nonpayable",
					"type": "function"
				},
				{
					"inputs": [
						{
							"internalType": "address[]",
							"name": "_tokens",
							"type": "address[]"
						},
						{
							"internalType": "uint256[]",
							"name": "_prices",
							"type": "uint256[]"
						},
						{
							"internalType": "uint256",
							"name": "_rate",
							"type": "uint256"
						}
					],
					"name": "updateTokenRate",
					"outputs": [],
					"stateMutability": "nonpayable",
					"type": "function"
				},
				{
					"inputs": [
						{
							"internalType": "address",
							"name": "token",
							"type": "address"
						},
						{
							"internalType": "uint256",
							"name": "amt",
							"type": "uint256"
						}
					],
					"name": "withdraw",
					"outputs": [],
					"stateMutability": "nonpayable",
					"type": "function"
				},
				{
					"inputs": [
						{
							"internalType": "address",
							"name": "token",
							"type": "address"
						}
					],
					"name": "withdrawAll",
					"outputs": [],
					"stateMutability": "nonpayable",
					"type": "function"
				},
				{
					"inputs": [],
					"name": "withdrawAllSaleTokens",
					"outputs": [],
					"stateMutability": "nonpayable",
					"type": "function"
				},
				{
					"inputs": [
						{
							"internalType": "uint256",
							"name": "amt",
							"type": "uint256"
						}
					],
					"name": "withdrawCurrency",
					"outputs": [],
					"stateMutability": "nonpayable",
					"type": "function"
				}
			],
			"devdoc": {
				"details": "A contract for a token presale with staking reward features. Users can buy a specific sale token using either native currency (like ETH) or other approved ERC20 tokens. It also includes a mechanism for buyers to earn rewards over time based on their purchased amount.",
				"errors": {
					"OwnableInvalidOwner(address)": [
						{
							"details": "The owner is not a valid owner account. (eg. `address(0)`)"
						}
					],
					"OwnableUnauthorizedAccount(address)": [
						{
							"details": "The caller account is not authorized to perform an operation."
						}
					],
					"SafeERC20FailedOperation(address)": [
						{
							"details": "An operation with an ERC-20 token failed."
						}
					]
				},
				"kind": "dev",
				"methods": {
					"addPayableTokens(address[],uint256[])": {
						"details": "Adds new ERC20 tokens that can be used for purchase and sets their prices."
					},
					"buyToken(address,uint256)": {
						"details": "Allows a user to buy saleToken using native currency (msg.value) or an approved ERC20 token."
					},
					"getBuyerReward(address)": {
						"details": "Calculates the pending reward for a buyer."
					},
					"getTokenAmount(address,uint256)": {
						"details": "Calculates the amount of saleToken a user will receive for a given amount of payment token.",
						"params": {
							"amount": "The amount of the payment token.",
							"token": "The address of the payment token (address(0) for native currency)."
						},
						"returns": {
							"_0": "The amount of saleToken to be received."
						}
					},
					"increaseTotalTokensforSale(uint256)": {
						"details": "Increases the total number of tokens available for sale."
					},
					"owner()": {
						"details": "Returns the address of the current owner."
					},
					"payableTokenStatus(address,bool)": {
						"details": "Enables or disables an ERC20 token for payment."
					},
					"renounceOwnership()": {
						"details": "Leaves the contract without owner. It will not be possible to call `onlyOwner` functions. Can only be called by the current owner. NOTE: Renouncing ownership will leave the contract without an owner, thereby disabling any functionality that is only available to the owner."
					},
					"setMultiplier(uint256)": {
						"details": "Sets the reward multiplier. It updates all existing rewards before changing the multiplier."
					},
					"setParams(address,uint256,uint256,uint256,bool)": {
						"details": "Sets the initial parameters for the presale. This function transfers the total sale tokens from the owner to the contract."
					},
					"transferOwnership(address)": {
						"details": "Transfers ownership of the contract to a new account (`newOwner`). Can only be called by the current owner."
					},
					"unlockAllTokens()": {
						"details": "Unlocks and sends tokens for all buyers. Can only be called by the owner when the sale is stopped."
					},
					"unlockToken()": {
						"details": "Allows a buyer to claim their purchased tokens and accrued rewards after the sale has stopped."
					},
					"updateTokenRate(address[],uint256[],uint256)": {
						"details": "Updates the prices of allowed ERC20 tokens and optionally the native currency rate."
					},
					"withdrawAllSaleTokens()": {
						"details": "Allows the owner to withdraw all remaining sale tokens from the contract."
					}
				},
				"title": "INTBuyStake Contract",
				"version": 1
			},
			"evm": {
				"assembly": "    /* \"contracts/BuyStakeContract.sol\":672:11036  contract INTBuyStake is Ownable {... */\n  mstore(0x40, 0x80)\n    /* \"contracts/BuyStakeContract.sol\":2459:2562  constructor() Ownable(msg.sender){... */\n  callvalue\n  dup1\n  iszero\n  tag_1\n  jumpi\n  0x00\n  dup1\n  revert\ntag_1:\n  pop\n    /* \"contracts/BuyStakeContract.sol\":2481:2491  msg.sender */\n  caller\n    /* \"@openzeppelin/contracts/access/Ownable.sol\":1297:1298  0 */\n  0x00\n    /* \"@openzeppelin/contracts/access/Ownable.sol\":1273:1299  initialOwner == address(0) */\n  0xffffffffffffffffffffffffffffffffffffffff\n  and\n    /* \"@openzeppelin/contracts/access/Ownable.sol\":1273:1285  initialOwner */\n  dup2\n    /* \"@openzeppelin/contracts/access/Ownable.sol\":1273:1299  initialOwner == address(0) */\n  0xffffffffffffffffffffffffffffffffffffffff\n  and\n  sub\n    /* \"@openzeppelin/contracts/access/Ownable.sol\":1269:1364  if (initialOwner == address(0)) {... */\n  tag_5\n  jumpi\n    /* \"@openzeppelin/contracts/access/Ownable.sol\":1350:1351  0 */\n  0x00\n    /* \"@openzeppelin/contracts/access/Ownable.sol\":1322:1353  OwnableInvalidOwner(address(0)) */\n  mload(0x40)\n  0x1e4fbdf700000000000000000000000000000000000000000000000000000000\n  dup2\n  mstore\n  0x04\n  add\n  tag_6\n  swap2\n  swap1\n  tag_7\n  jump\t// in\ntag_6:\n  mload(0x40)\n  dup1\n  swap2\n  sub\n  swap1\n  revert\n    /* \"@openzeppelin/contracts/access/Ownable.sol\":1269:1364  if (initialOwner == address(0)) {... */\ntag_5:\n    /* \"@openzeppelin/contracts/access/Ownable.sol\":1373:1405  _transferOwnership(initialOwner) */\n  tag_8\n    /* \"@openzeppelin/contracts/access/Ownable.sol\":1392:1404  initialOwner */\n  dup2\n    /* \"@openzeppelin/contracts/access/Ownable.sol\":1373:1391  _transferOwnership */\n  shl(0x20, tag_9)\n    /* \"@openzeppelin/contracts/access/Ownable.sol\":1373:1405  _transferOwnership(initialOwner) */\n  0x20\n  shr\n  jump\t// in\ntag_8:\n    /* \"@openzeppelin/contracts/access/Ownable.sol\":1225:1412  constructor(address initialOwner) {... */\n  pop\n    /* \"contracts/BuyStakeContract.sol\":2515:2520  false */\n  0x00\n    /* \"contracts/BuyStakeContract.sol\":2502:2512  saleStatus */\n  0x06\n  0x00\n    /* \"contracts/BuyStakeContract.sol\":2502:2520  saleStatus = false */\n  0x0100\n  exp\n  dup2\n  sload\n  dup2\n  0xff\n  mul\n  not\n  and\n  swap1\n  dup4\n  iszero\n  iszero\n  mul\n  or\n  swap1\n  sstore\n  pop\n    /* \"contracts/BuyStakeContract.sol\":672:11036  contract INTBuyStake is Ownable {... */\n  jump(tag_11)\n    /* \"@openzeppelin/contracts/access/Ownable.sol\":2912:3099  function _transferOwnership(address newOwner) internal virtual {... */\ntag_9:\n    /* \"@openzeppelin/contracts/access/Ownable.sol\":2985:3001  address oldOwner */\n  0x00\n    /* \"@openzeppelin/contracts/access/Ownable.sol\":3004:3010  _owner */\n  dup1\n  0x00\n  swap1\n  sload\n  swap1\n  0x0100\n  exp\n  swap1\n  div\n  0xffffffffffffffffffffffffffffffffffffffff\n  and\n    /* \"@openzeppelin/contracts/access/Ownable.sol\":2985:3010  address oldOwner = _owner */\n  swap1\n  pop\n    /* \"@openzeppelin/contracts/access/Ownable.sol\":3029:3037  newOwner */\n  dup2\n    /* \"@openzeppelin/contracts/access/Ownable.sol\":3020:3026  _owner */\n  0x00\n  dup1\n    /* \"@openzeppelin/contracts/access/Ownable.sol\":3020:3037  _owner = newOwner */\n  0x0100\n  exp\n  dup2\n  sload\n  dup2\n  0xffffffffffffffffffffffffffffffffffffffff\n  mul\n  not\n  and\n  swap1\n  dup4\n  0xffffffffffffffffffffffffffffffffffffffff\n  and\n  mul\n  or\n  swap1\n  sstore\n  pop\n    /* \"@openzeppelin/contracts/access/Ownable.sol\":3083:3091  newOwner */\n  dup2\n    /* \"@openzeppelin/contracts/access/Ownable.sol\":3052:3092  OwnershipTransferred(oldOwner, newOwner) */\n  0xffffffffffffffffffffffffffffffffffffffff\n  and\n    /* \"@openzeppelin/contracts/access/Ownable.sol\":3073:3081  oldOwner */\n  dup2\n    /* \"@openzeppelin/contracts/access/Ownable.sol\":3052:3092  OwnershipTransferred(oldOwner, newOwner) */\n  0xffffffffffffffffffffffffffffffffffffffff\n  and\n  0x8be0079c531659141344cd1fd0a4f28419497f9722a3daafe3b4186f6b6457e0\n  mload(0x40)\n  mload(0x40)\n  dup1\n  swap2\n  sub\n  swap1\n  log3\n    /* \"@openzeppelin/contracts/access/Ownable.sol\":2975:3099  {... */\n  pop\n    /* \"@openzeppelin/contracts/access/Ownable.sol\":2912:3099  function _transferOwnership(address newOwner) internal virtual {... */\n  pop\n  jump\t// out\n    /* \"#utility.yul\":7:133   */\ntag_13:\n    /* \"#utility.yul\":44:51   */\n  0x00\n    /* \"#utility.yul\":84:126   */\n  0xffffffffffffffffffffffffffffffffffffffff\n    /* \"#utility.yul\":77:82   */\n  dup3\n    /* \"#utility.yul\":73:127   */\n  and\n    /* \"#utility.yul\":62:127   */\n  swap1\n  pop\n    /* \"#utility.yul\":7:133   */\n  swap2\n  swap1\n  pop\n  jump\t// out\n    /* \"#utility.yul\":139:235   */\ntag_14:\n    /* \"#utility.yul\":176:183   */\n  0x00\n    /* \"#utility.yul\":205:229   */\n  tag_19\n    /* \"#utility.yul\":223:228   */\n  dup3\n    /* \"#utility.yul\":205:229   */\n  tag_13\n  jump\t// in\ntag_19:\n    /* \"#utility.yul\":194:229   */\n  swap1\n  pop\n    /* \"#utility.yul\":139:235   */\n  swap2\n  swap1\n  pop\n  jump\t// out\n    /* \"#utility.yul\":241:359   */\ntag_15:\n    /* \"#utility.yul\":328:352   */\n  tag_21\n    /* \"#utility.yul\":346:351   */\n  dup2\n    /* \"#utility.yul\":328:352   */\n  tag_14\n  jump\t// in\ntag_21:\n    /* \"#utility.yul\":323:326   */\n  dup3\n    /* \"#utility.yul\":316:353   */\n  mstore\n    /* \"#utility.yul\":241:359   */\n  pop\n  pop\n  jump\t// out\n    /* \"#utility.yul\":365:587   */\ntag_7:\n    /* \"#utility.yul\":458:462   */\n  0x00\n    /* \"#utility.yul\":496:498   */\n  0x20\n    /* \"#utility.yul\":485:494   */\n  dup3\n    /* \"#utility.yul\":481:499   */\n  add\n    /* \"#utility.yul\":473:499   */\n  swap1\n  pop\n    /* \"#utility.yul\":509:580   */\n  tag_23\n    /* \"#utility.yul\":577:578   */\n  0x00\n    /* \"#utility.yul\":566:575   */\n  dup4\n    /* \"#utility.yul\":562:579   */\n  add\n    /* \"#utility.yul\":553:559   */\n  dup5\n    /* \"#utility.yul\":509:580   */\n  tag_15\n  jump\t// in\ntag_23:\n    /* \"#utility.yul\":365:587   */\n  swap3\n  swap2\n  pop\n  pop\n  jump\t// out\n    /* \"contracts/BuyStakeContract.sol\":672:11036  contract INTBuyStake is Ownable {... */\ntag_11:\n  dataSize(sub_0)\n  dup1\n  dataOffset(sub_0)\n  0x00\n  codecopy\n  0x00\n  return\nstop\n\nsub_0: assembly {\n        /* \"contracts/BuyStakeContract.sol\":672:11036  contract INTBuyStake is Ownable {... */\n      mstore(0x40, 0x80)\n      jumpi(tag_1, lt(calldatasize, 0x04))\n      shr(0xe0, calldataload(0x00))\n      dup1\n      0x715018a6\n      gt\n      tag_33\n      jumpi\n      dup1\n      0xe36b0b37\n      gt\n      tag_34\n      jumpi\n      dup1\n      0xf3fef3a3\n      gt\n      tag_35\n      jumpi\n      dup1\n      0xf3fef3a3\n      eq\n      tag_29\n      jumpi\n      dup1\n      0xf4739ee3\n      eq\n      tag_30\n      jumpi\n      dup1\n      0xf9020e33\n      eq\n      tag_31\n      jumpi\n      dup1\n      0xfa09e630\n      eq\n      tag_32\n      jumpi\n      jump(tag_1)\n    tag_35:\n      dup1\n      0xe36b0b37\n      eq\n      tag_25\n      jumpi\n      dup1\n      0xe985e367\n      eq\n      tag_26\n      jumpi\n      dup1\n      0xf2aa8218\n      eq\n      tag_27\n      jumpi\n      dup1\n      0xf2fde38b\n      eq\n      tag_28\n      jumpi\n      jump(tag_1)\n    tag_34:\n      dup1\n      0x9ae2fd34\n      gt\n      tag_36\n      jumpi\n      dup1\n      0x9ae2fd34\n      eq\n      tag_21\n      jumpi\n      dup1\n      0xa01bd50c\n      eq\n      tag_22\n      jumpi\n      dup1\n      0xa2826373\n      eq\n      tag_23\n      jumpi\n      dup1\n      0xace1741c\n      eq\n      tag_24\n      jumpi\n      jump(tag_1)\n    tag_36:\n      dup1\n      0x715018a6\n      eq\n      tag_17\n      jumpi\n      dup1\n      0x80655eef\n      eq\n      tag_18\n      jumpi\n      dup1\n      0x828b7953\n      eq\n      tag_19\n      jumpi\n      dup1\n      0x8da5cb5b\n      eq\n      tag_20\n      jumpi\n      jump(tag_1)\n    tag_33:\n      dup1\n      0x33e364cb\n      gt\n      tag_37\n      jumpi\n      dup1\n      0x63b20117\n      gt\n      tag_38\n      jumpi\n      dup1\n      0x63b20117\n      eq\n      tag_13\n      jumpi\n      dup1\n      0x641579a6\n      eq\n      tag_14\n      jumpi\n      dup1\n      0x68f8fc10\n      eq\n      tag_15\n      jumpi\n      dup1\n      0x6bcedf9c\n      eq\n      tag_16\n      jumpi\n      jump(tag_1)\n    tag_38:\n      dup1\n      0x33e364cb\n      eq\n      tag_9\n      jumpi\n      dup1\n      0x3c00a36c\n      eq\n      tag_10\n      jumpi\n      dup1\n      0x5413c1c8\n      eq\n      tag_11\n      jumpi\n      dup1\n      0x5e0be607\n      eq\n      tag_12\n      jumpi\n      jump(tag_1)\n    tag_37:\n      dup1\n      0x204120bc\n      gt\n      tag_39\n      jumpi\n      dup1\n      0x204120bc\n      eq\n      tag_5\n      jumpi\n      dup1\n      0x29d429a8\n      eq\n      tag_6\n      jumpi\n      dup1\n      0x2c4e722e\n      eq\n      tag_7\n      jumpi\n      dup1\n      0x3115329e\n      eq\n      tag_8\n      jumpi\n      jump(tag_1)\n    tag_39:\n      dup1\n      0x115ece4c\n      eq\n      tag_2\n      jumpi\n      dup1\n      0x18a24b5b\n      eq\n      tag_3\n      jumpi\n      dup1\n      0x1b3ed722\n      eq\n      tag_4\n      jumpi\n    tag_1:\n      0x00\n      dup1\n      revert\n        /* \"contracts/BuyStakeContract.sol\":8954:9433  function getTokenAmount(... */\n    tag_2:\n      callvalue\n      dup1\n      iszero\n      tag_40\n      jumpi\n      0x00\n      dup1\n      revert\n    tag_40:\n      pop\n      tag_41\n      0x04\n      dup1\n      calldatasize\n      sub\n      dup2\n      add\n      swap1\n      tag_42\n      swap2\n      swap1\n      tag_43\n      jump\t// in\n    tag_42:\n      tag_44\n      jump\t// in\n    tag_41:\n      mload(0x40)\n      tag_45\n      swap2\n      swap1\n      tag_46\n      jump\t// in\n    tag_45:\n      mload(0x40)\n      dup1\n      swap2\n      sub\n      swap1\n      return\n        /* \"contracts/BuyStakeContract.sol\":8390:8596  function unlockToken() external saleStoped {... */\n    tag_3:\n      callvalue\n      dup1\n      iszero\n      tag_47\n      jumpi\n      0x00\n      dup1\n      revert\n    tag_47:\n      pop\n      tag_48\n      tag_49\n      jump\t// in\n    tag_48:\n      stop\n        /* \"contracts/BuyStakeContract.sol\":1232:1257  uint256 public multiplier */\n    tag_4:\n      callvalue\n      dup1\n      iszero\n      tag_50\n      jumpi\n      0x00\n      dup1\n      revert\n    tag_50:\n      pop\n      tag_51\n      tag_52\n      jump\t// in\n    tag_51:\n      mload(0x40)\n      tag_53\n      swap2\n      swap1\n      tag_46\n      jump\t// in\n    tag_53:\n      mload(0x40)\n      dup1\n      swap2\n      sub\n      swap1\n      return\n        /* \"contracts/BuyStakeContract.sol\":2085:2131  mapping(address => uint256) public tokenPrices */\n    tag_5:\n      callvalue\n      dup1\n      iszero\n      tag_54\n      jumpi\n      0x00\n      dup1\n      revert\n    tag_54:\n      pop\n      tag_55\n      0x04\n      dup1\n      calldatasize\n      sub\n      dup2\n      add\n      swap1\n      tag_56\n      swap2\n      swap1\n      tag_57\n      jump\t// in\n    tag_56:\n      tag_58\n      jump\t// in\n    tag_55:\n      mload(0x40)\n      tag_59\n      swap2\n      swap1\n      tag_46\n      jump\t// in\n    tag_59:\n      mload(0x40)\n      dup1\n      swap2\n      sub\n      swap1\n      return\n        /* \"contracts/BuyStakeContract.sol\":4871:5124  function payableTokenStatus(... */\n    tag_6:\n      callvalue\n      dup1\n      iszero\n      tag_60\n      jumpi\n      0x00\n      dup1\n      revert\n    tag_60:\n      pop\n      tag_61\n      0x04\n      dup1\n      calldatasize\n      sub\n      dup2\n      add\n      swap1\n      tag_62\n      swap2\n      swap1\n      tag_63\n      jump\t// in\n    tag_62:\n      tag_64\n      jump\t// in\n    tag_61:\n      stop\n        /* \"contracts/BuyStakeContract.sol\":1322:1341  uint256 public rate */\n    tag_7:\n      callvalue\n      dup1\n      iszero\n      tag_65\n      jumpi\n      0x00\n      dup1\n      revert\n    tag_65:\n      pop\n      tag_66\n      tag_67\n      jump\t// in\n    tag_66:\n      mload(0x40)\n      tag_68\n      swap2\n      swap1\n      tag_46\n      jump\t// in\n    tag_68:\n      mload(0x40)\n      dup1\n      swap2\n      sub\n      swap1\n      return\n        /* \"contracts/BuyStakeContract.sol\":5242:5874  function updateTokenRate(... */\n    tag_8:\n      callvalue\n      dup1\n      iszero\n      tag_69\n      jumpi\n      0x00\n      dup1\n      revert\n    tag_69:\n      pop\n      tag_70\n      0x04\n      dup1\n      calldatasize\n      sub\n      dup2\n      add\n      swap1\n      tag_71\n      swap2\n      swap1\n      tag_72\n      jump\t// in\n    tag_71:\n      tag_73\n      jump\t// in\n    tag_70:\n      stop\n        /* \"contracts/BuyStakeContract.sol\":4111:4186  function resumeSale() external onlyOwner {... */\n    tag_9:\n      callvalue\n      dup1\n      iszero\n      tag_74\n      jumpi\n      0x00\n      dup1\n      revert\n    tag_74:\n      pop\n      tag_75\n      tag_76\n      jump\t// in\n    tag_75:\n      stop\n        /* \"contracts/BuyStakeContract.sol\":6796:6902  function withdrawCurrency(uint256 amt) public onlyOwner {... */\n    tag_10:\n      callvalue\n      dup1\n      iszero\n      tag_77\n      jumpi\n      0x00\n      dup1\n      revert\n    tag_77:\n      pop\n      tag_78\n      0x04\n      dup1\n      calldatasize\n      sub\n      dup2\n      add\n      swap1\n      tag_79\n      swap2\n      swap1\n      tag_80\n      jump\t// in\n    tag_79:\n      tag_81\n      jump\t// in\n    tag_78:\n      stop\n        /* \"contracts/BuyStakeContract.sol\":4295:4789  function addPayableTokens(... */\n    tag_11:\n      callvalue\n      dup1\n      iszero\n      tag_82\n      jumpi\n      0x00\n      dup1\n      revert\n    tag_82:\n      pop\n      tag_83\n      0x04\n      dup1\n      calldatasize\n      sub\n      dup2\n      add\n      swap1\n      tag_84\n      swap2\n      swap1\n      tag_85\n      jump\t// in\n    tag_84:\n      tag_86\n      jump\t// in\n    tag_83:\n      stop\n        /* \"contracts/BuyStakeContract.sol\":6007:6174  function unlockAllTokens() external onlyOwner saleStoped {... */\n    tag_12:\n      callvalue\n      dup1\n      iszero\n      tag_87\n      jumpi\n      0x00\n      dup1\n      revert\n    tag_87:\n      pop\n      tag_88\n      tag_89\n      jump\t// in\n    tag_88:\n      stop\n        /* \"contracts/BuyStakeContract.sol\":1781:1811  uint256 public totalTokensSold */\n    tag_13:\n      callvalue\n      dup1\n      iszero\n      tag_90\n      jumpi\n      0x00\n      dup1\n      revert\n    tag_90:\n      pop\n      tag_91\n      tag_92\n      jump\t// in\n    tag_91:\n      mload(0x40)\n      tag_93\n      swap2\n      swap1\n      tag_46\n      jump\t// in\n    tag_93:\n      mload(0x40)\n      dup1\n      swap2\n      sub\n      swap1\n      return\n        /* \"contracts/BuyStakeContract.sol\":3513:3640  function setMultiplier(uint256 _multiplier) public onlyOwner {... */\n    tag_14:\n      callvalue\n      dup1\n      iszero\n      tag_94\n      jumpi\n      0x00\n      dup1\n      revert\n    tag_94:\n      pop\n      tag_95\n      0x04\n      dup1\n      calldatasize\n      sub\n      dup2\n      add\n      swap1\n      tag_96\n      swap2\n      swap1\n      tag_80\n      jump\t// in\n    tag_96:\n      tag_97\n      jump\t// in\n    tag_95:\n      stop\n        /* \"contracts/BuyStakeContract.sol\":7072:8261  function buyToken(... */\n    tag_15:\n      tag_98\n      0x04\n      dup1\n      calldatasize\n      sub\n      dup2\n      add\n      swap1\n      tag_99\n      swap2\n      swap1\n      tag_43\n      jump\t// in\n    tag_99:\n      tag_100\n      jump\t// in\n    tag_98:\n      stop\n        /* \"contracts/BuyStakeContract.sol\":1545:1578  uint256 public totalTokensforSale */\n    tag_16:\n      callvalue\n      dup1\n      iszero\n      tag_101\n      jumpi\n      0x00\n      dup1\n      revert\n    tag_101:\n      pop\n      tag_102\n      tag_103\n      jump\t// in\n    tag_102:\n      mload(0x40)\n      tag_104\n      swap2\n      swap1\n      tag_46\n      jump\t// in\n    tag_104:\n      mload(0x40)\n      dup1\n      swap2\n      sub\n      swap1\n      return\n        /* \"@openzeppelin/contracts/access/Ownable.sol\":2293:2394  function renounceOwnership() public virtual onlyOwner {... */\n    tag_17:\n      callvalue\n      dup1\n      iszero\n      tag_105\n      jumpi\n      0x00\n      dup1\n      revert\n    tag_105:\n      pop\n      tag_106\n      tag_107\n      jump\t// in\n    tag_106:\n      stop\n        /* \"contracts/BuyStakeContract.sol\":1876:1921  mapping(address => bool) public payableTokens */\n    tag_18:\n      callvalue\n      dup1\n      iszero\n      tag_108\n      jumpi\n      0x00\n      dup1\n      revert\n    tag_108:\n      pop\n      tag_109\n      0x04\n      dup1\n      calldatasize\n      sub\n      dup2\n      add\n      swap1\n      tag_110\n      swap2\n      swap1\n      tag_57\n      jump\t// in\n    tag_110:\n      tag_111\n      jump\t// in\n    tag_109:\n      mload(0x40)\n      tag_112\n      swap2\n      swap1\n      tag_113\n      jump\t// in\n    tag_112:\n      mload(0x40)\n      dup1\n      swap2\n      sub\n      swap1\n      return\n        /* \"contracts/BuyStakeContract.sol\":9510:9888  function getBuyerReward(address buyer) public view returns (uint256) {... */\n    tag_19:\n      callvalue\n      dup1\n      iszero\n      tag_114\n      jumpi\n      0x00\n      dup1\n      revert\n    tag_114:\n      pop\n      tag_115\n      0x04\n      dup1\n      calldatasize\n      sub\n      dup2\n      add\n      swap1\n      tag_116\n      swap2\n      swap1\n      tag_57\n      jump\t// in\n    tag_116:\n      tag_117\n      jump\t// in\n    tag_115:\n      mload(0x40)\n      tag_118\n      swap2\n      swap1\n      tag_46\n      jump\t// in\n    tag_118:\n      mload(0x40)\n      dup1\n      swap2\n      sub\n      swap1\n      return\n        /* \"@openzeppelin/contracts/access/Ownable.sol\":1638:1723  function owner() public view virtual returns (address) {... */\n    tag_20:\n      callvalue\n      dup1\n      iszero\n      tag_119\n      jumpi\n      0x00\n      dup1\n      revert\n    tag_119:\n      pop\n      tag_120\n      tag_121\n      jump\t// in\n    tag_120:\n      mload(0x40)\n      tag_122\n      swap2\n      swap1\n      tag_123\n      jump\t// in\n    tag_122:\n      mload(0x40)\n      dup1\n      swap2\n      sub\n      swap1\n      return\n        /* \"contracts/BuyStakeContract.sol\":6282:6503  function withdrawAllSaleTokens() external onlyOwner saleStoped {... */\n    tag_21:\n      callvalue\n      dup1\n      iszero\n      tag_124\n      jumpi\n      0x00\n      dup1\n      revert\n    tag_124:\n      pop\n      tag_125\n      tag_126\n      jump\t// in\n    tag_125:\n      stop\n        /* \"contracts/BuyStakeContract.sol\":2758:3380  function setParams(... */\n    tag_22:\n      callvalue\n      dup1\n      iszero\n      tag_127\n      jumpi\n      0x00\n      dup1\n      revert\n    tag_127:\n      pop\n      tag_128\n      0x04\n      dup1\n      calldatasize\n      sub\n      dup2\n      add\n      swap1\n      tag_129\n      swap2\n      swap1\n      tag_130\n      jump\t// in\n    tag_129:\n      tag_131\n      jump\t// in\n    tag_128:\n      stop\n        /* \"contracts/BuyStakeContract.sol\":3731:4025  function increaseTotalTokensforSale(... */\n    tag_23:\n      callvalue\n      dup1\n      iszero\n      tag_132\n      jumpi\n      0x00\n      dup1\n      revert\n    tag_132:\n      pop\n      tag_133\n      0x04\n      dup1\n      calldatasize\n      sub\n      dup2\n      add\n      swap1\n      tag_134\n      swap2\n      swap1\n      tag_80\n      jump\t// in\n    tag_134:\n      tag_135\n      jump\t// in\n    tag_133:\n      stop\n        /* \"contracts/BuyStakeContract.sol\":1484:1508  uint public saleTokenDec */\n    tag_24:\n      callvalue\n      dup1\n      iszero\n      tag_136\n      jumpi\n      0x00\n      dup1\n      revert\n    tag_136:\n      pop\n      tag_137\n      tag_138\n      jump\t// in\n    tag_137:\n      mload(0x40)\n      tag_139\n      swap2\n      swap1\n      tag_46\n      jump\t// in\n    tag_139:\n      mload(0x40)\n      dup1\n      swap2\n      sub\n      swap1\n      return\n        /* \"contracts/BuyStakeContract.sol\":4031:4105  function stopSale() external onlyOwner {... */\n    tag_25:\n      callvalue\n      dup1\n      iszero\n      tag_140\n      jumpi\n      0x00\n      dup1\n      revert\n    tag_140:\n      pop\n      tag_141\n      tag_142\n      jump\t// in\n    tag_141:\n      stop\n        /* \"contracts/BuyStakeContract.sol\":1423:1447  address public saleToken */\n    tag_26:\n      callvalue\n      dup1\n      iszero\n      tag_143\n      jumpi\n      0x00\n      dup1\n      revert\n    tag_143:\n      pop\n      tag_144\n      tag_145\n      jump\t// in\n    tag_144:\n      mload(0x40)\n      tag_146\n      swap2\n      swap1\n      tag_123\n      jump\t// in\n    tag_146:\n      mload(0x40)\n      dup1\n      swap2\n      sub\n      swap1\n      return\n        /* \"contracts/BuyStakeContract.sol\":1716:1739  address[] public buyers */\n    tag_27:\n      callvalue\n      dup1\n      iszero\n      tag_147\n      jumpi\n      0x00\n      dup1\n      revert\n    tag_147:\n      pop\n      tag_148\n      0x04\n      dup1\n      calldatasize\n      sub\n      dup2\n      add\n      swap1\n      tag_149\n      swap2\n      swap1\n      tag_80\n      jump\t// in\n    tag_149:\n      tag_150\n      jump\t// in\n    tag_148:\n      mload(0x40)\n      tag_151\n      swap2\n      swap1\n      tag_123\n      jump\t// in\n    tag_151:\n      mload(0x40)\n      dup1\n      swap2\n      sub\n      swap1\n      return\n        /* \"@openzeppelin/contracts/access/Ownable.sol\":2543:2758  function transferOwnership(address newOwner) public virtual onlyOwner {... */\n    tag_28:\n      callvalue\n      dup1\n      iszero\n      tag_152\n      jumpi\n      0x00\n      dup1\n      revert\n    tag_152:\n      pop\n      tag_153\n      0x04\n      dup1\n      calldatasize\n      sub\n      dup2\n      add\n      swap1\n      tag_154\n      swap2\n      swap1\n      tag_57\n      jump\t// in\n    tag_154:\n      tag_155\n      jump\t// in\n    tag_153:\n      stop\n        /* \"contracts/BuyStakeContract.sol\":6509:6632  function withdraw(address token, uint256 amt) public onlyOwner {... */\n    tag_29:\n      callvalue\n      dup1\n      iszero\n      tag_156\n      jumpi\n      0x00\n      dup1\n      revert\n    tag_156:\n      pop\n      tag_157\n      0x04\n      dup1\n      calldatasize\n      sub\n      dup2\n      add\n      swap1\n      tag_158\n      swap2\n      swap1\n      tag_43\n      jump\t// in\n    tag_158:\n      tag_159\n      jump\t// in\n    tag_157:\n      stop\n        /* \"contracts/BuyStakeContract.sol\":1977:2035  mapping(address => BuyerTokenDetails) public buyersDetails */\n    tag_30:\n      callvalue\n      dup1\n      iszero\n      tag_160\n      jumpi\n      0x00\n      dup1\n      revert\n    tag_160:\n      pop\n      tag_161\n      0x04\n      dup1\n      calldatasize\n      sub\n      dup2\n      add\n      swap1\n      tag_162\n      swap2\n      swap1\n      tag_57\n      jump\t// in\n    tag_162:\n      tag_163\n      jump\t// in\n    tag_161:\n      mload(0x40)\n      tag_164\n      swap6\n      swap5\n      swap4\n      swap3\n      swap2\n      swap1\n      tag_165\n      jump\t// in\n    tag_164:\n      mload(0x40)\n      dup1\n      swap2\n      sub\n      swap1\n      return\n        /* \"contracts/BuyStakeContract.sol\":1640:1662  bool public saleStatus */\n    tag_31:\n      callvalue\n      dup1\n      iszero\n      tag_166\n      jumpi\n      0x00\n      dup1\n      revert\n    tag_166:\n      pop\n      tag_167\n      tag_168\n      jump\t// in\n    tag_167:\n      mload(0x40)\n      tag_169\n      swap2\n      swap1\n      tag_113\n      jump\t// in\n    tag_169:\n      mload(0x40)\n      dup1\n      swap2\n      sub\n      swap1\n      return\n        /* \"contracts/BuyStakeContract.sol\":6638:6790  function withdrawAll(address token) public onlyOwner {... */\n    tag_32:\n      callvalue\n      dup1\n      iszero\n      tag_170\n      jumpi\n      0x00\n      dup1\n      revert\n    tag_170:\n      pop\n      tag_171\n      0x04\n      dup1\n      calldatasize\n      sub\n      dup2\n      add\n      swap1\n      tag_172\n      swap2\n      swap1\n      tag_57\n      jump\t// in\n    tag_172:\n      tag_173\n      jump\t// in\n    tag_171:\n      stop\n        /* \"contracts/BuyStakeContract.sol\":8954:9433  function getTokenAmount(... */\n    tag_44:\n        /* \"contracts/BuyStakeContract.sol\":9052:9059  uint256 */\n      0x00\n        /* \"contracts/BuyStakeContract.sol\":9071:9085  uint256 amtOut */\n      dup1\n        /* \"contracts/BuyStakeContract.sol\":9116:9117  0 */\n      0x00\n        /* \"contracts/BuyStakeContract.sol\":9099:9118  token != address(0) */\n      0xffffffffffffffffffffffffffffffffffffffff\n      and\n        /* \"contracts/BuyStakeContract.sol\":9099:9104  token */\n      dup5\n        /* \"contracts/BuyStakeContract.sol\":9099:9118  token != address(0) */\n      0xffffffffffffffffffffffffffffffffffffffff\n      and\n      eq\n        /* \"contracts/BuyStakeContract.sol\":9095:9404  if (token != address(0)) {... */\n      tag_175\n      jumpi\n        /* \"contracts/BuyStakeContract.sol\":9166:9170  true */\n      0x01\n        /* \"contracts/BuyStakeContract.sol\":9142:9170  payableTokens[token] == true */\n      iszero\n      iszero\n        /* \"contracts/BuyStakeContract.sol\":9142:9155  payableTokens */\n      0x09\n        /* \"contracts/BuyStakeContract.sol\":9142:9162  payableTokens[token] */\n      0x00\n        /* \"contracts/BuyStakeContract.sol\":9156:9161  token */\n      dup7\n        /* \"contracts/BuyStakeContract.sol\":9142:9162  payableTokens[token] */\n      0xffffffffffffffffffffffffffffffffffffffff\n      and\n      0xffffffffffffffffffffffffffffffffffffffff\n      and\n      dup2\n      mstore\n      0x20\n      add\n      swap1\n      dup2\n      mstore\n      0x20\n      add\n      0x00\n      keccak256\n      0x00\n      swap1\n      sload\n      swap1\n      0x0100\n      exp\n      swap1\n      div\n      0xff\n      and\n        /* \"contracts/BuyStakeContract.sol\":9142:9170  payableTokens[token] == true */\n      iszero\n      iszero\n      eq\n        /* \"contracts/BuyStakeContract.sol\":9134:9201  require(payableTokens[token] == true, \"Presale: Token not allowed\") */\n      tag_176\n      jumpi\n      mload(0x40)\n      0x08c379a000000000000000000000000000000000000000000000000000000000\n      dup2\n      mstore\n      0x04\n      add\n      tag_177\n      swap1\n      tag_178\n      jump\t// in\n    tag_177:\n      mload(0x40)\n      dup1\n      swap2\n      sub\n      swap1\n      revert\n    tag_176:\n        /* \"contracts/BuyStakeContract.sol\":9215:9228  uint256 price */\n      0x00\n        /* \"contracts/BuyStakeContract.sol\":9231:9242  tokenPrices */\n      0x0b\n        /* \"contracts/BuyStakeContract.sol\":9231:9249  tokenPrices[token] */\n      0x00\n        /* \"contracts/BuyStakeContract.sol\":9243:9248  token */\n      dup7\n        /* \"contracts/BuyStakeContract.sol\":9231:9249  tokenPrices[token] */\n      0xffffffffffffffffffffffffffffffffffffffff\n      and\n      0xffffffffffffffffffffffffffffffffffffffff\n      and\n      dup2\n      mstore\n      0x20\n      add\n      swap1\n      dup2\n      mstore\n      0x20\n      add\n      0x00\n      keccak256\n      sload\n        /* \"contracts/BuyStakeContract.sol\":9215:9249  uint256 price = tokenPrices[token] */\n      swap1\n      pop\n        /* \"contracts/BuyStakeContract.sol\":9307:9312  price */\n      dup1\n        /* \"contracts/BuyStakeContract.sol\":9289:9301  saleTokenDec */\n      sload(0x04)\n        /* \"contracts/BuyStakeContract.sol\":9283:9285  10 */\n      0x0a\n        /* \"contracts/BuyStakeContract.sol\":9283:9301  10 ** saleTokenDec */\n      tag_179\n      swap2\n      swap1\n      tag_180\n      jump\t// in\n    tag_179:\n        /* \"contracts/BuyStakeContract.sol\":9273:9279  amount */\n      dup6\n        /* \"contracts/BuyStakeContract.sol\":9273:9302  amount * (10 ** saleTokenDec) */\n      tag_181\n      swap2\n      swap1\n      tag_182\n      jump\t// in\n    tag_181:\n        /* \"contracts/BuyStakeContract.sol\":9272:9313  (amount * (10 ** saleTokenDec)) / (price) */\n      tag_183\n      swap2\n      swap1\n      tag_184\n      jump\t// in\n    tag_183:\n        /* \"contracts/BuyStakeContract.sol\":9263:9313  amtOut = (amount * (10 ** saleTokenDec)) / (price) */\n      swap2\n      pop\n        /* \"contracts/BuyStakeContract.sol\":9120:9324  {... */\n      pop\n        /* \"contracts/BuyStakeContract.sol\":9095:9404  if (token != address(0)) {... */\n      jump(tag_185)\n    tag_175:\n        /* \"contracts/BuyStakeContract.sol\":9388:9392  rate */\n      sload(0x02)\n        /* \"contracts/BuyStakeContract.sol\":9370:9382  saleTokenDec */\n      sload(0x04)\n        /* \"contracts/BuyStakeContract.sol\":9364:9366  10 */\n      0x0a\n        /* \"contracts/BuyStakeContract.sol\":9364:9382  10 ** saleTokenDec */\n      tag_186\n      swap2\n      swap1\n      tag_180\n      jump\t// in\n    tag_186:\n        /* \"contracts/BuyStakeContract.sol\":9354:9360  amount */\n      dup5\n        /* \"contracts/BuyStakeContract.sol\":9354:9383  amount * (10 ** saleTokenDec) */\n      tag_187\n      swap2\n      swap1\n      tag_182\n      jump\t// in\n    tag_187:\n        /* \"contracts/BuyStakeContract.sol\":9353:9393  (amount * (10 ** saleTokenDec)) / (rate) */\n      tag_188\n      swap2\n      swap1\n      tag_184\n      jump\t// in\n    tag_188:\n        /* \"contracts/BuyStakeContract.sol\":9344:9393  amtOut = (amount * (10 ** saleTokenDec)) / (rate) */\n      swap1\n      pop\n        /* \"contracts/BuyStakeContract.sol\":9095:9404  if (token != address(0)) {... */\n    tag_185:\n        /* \"contracts/BuyStakeContract.sol\":9420:9426  amtOut */\n      dup1\n        /* \"contracts/BuyStakeContract.sol\":9413:9426  return amtOut */\n      swap2\n      pop\n      pop\n        /* \"contracts/BuyStakeContract.sol\":8954:9433  function getTokenAmount(... */\n      swap3\n      swap2\n      pop\n      pop\n      jump\t// out\n        /* \"contracts/BuyStakeContract.sol\":8390:8596  function unlockToken() external saleStoped {... */\n    tag_49:\n        /* \"contracts/BuyStakeContract.sol\":2374:2379  false */\n      0x00\n        /* \"contracts/BuyStakeContract.sol\":2360:2379  saleStatus == false */\n      iszero\n      iszero\n        /* \"contracts/BuyStakeContract.sol\":2360:2370  saleStatus */\n      0x06\n      0x00\n      swap1\n      sload\n      swap1\n      0x0100\n      exp\n      swap1\n      div\n      0xff\n      and\n        /* \"contracts/BuyStakeContract.sol\":2360:2379  saleStatus == false */\n      iszero\n      iszero\n      eq\n        /* \"contracts/BuyStakeContract.sol\":2352:2407  require(saleStatus == false, \"Presale: is not stopped\") */\n      tag_190\n      jumpi\n      mload(0x40)\n      0x08c379a000000000000000000000000000000000000000000000000000000000\n      dup2\n      mstore\n      0x04\n      add\n      tag_191\n      swap1\n      tag_192\n      jump\t// in\n    tag_191:\n      mload(0x40)\n      dup1\n      swap2\n      sub\n      swap1\n      revert\n    tag_190:\n        /* \"contracts/BuyStakeContract.sol\":8499:8500  0 */\n      0x00\n        /* \"contracts/BuyStakeContract.sol\":8464:8477  buyersDetails */\n      0x0a\n        /* \"contracts/BuyStakeContract.sol\":8464:8489  buyersDetails[msg.sender] */\n      0x00\n        /* \"contracts/BuyStakeContract.sol\":8478:8488  msg.sender */\n      caller\n        /* \"contracts/BuyStakeContract.sol\":8464:8489  buyersDetails[msg.sender] */\n      0xffffffffffffffffffffffffffffffffffffffff\n      and\n      0xffffffffffffffffffffffffffffffffffffffff\n      and\n      dup2\n      mstore\n      0x20\n      add\n      swap1\n      dup2\n      mstore\n      0x20\n      add\n      0x00\n      keccak256\n        /* \"contracts/BuyStakeContract.sol\":8464:8496  buyersDetails[msg.sender].amount */\n      0x00\n      add\n      sload\n        /* \"contracts/BuyStakeContract.sol\":8464:8500  buyersDetails[msg.sender].amount > 0 */\n      gt\n        /* \"contracts/BuyStakeContract.sol\":8443:8553  require(... */\n      tag_194\n      jumpi\n      mload(0x40)\n      0x08c379a000000000000000000000000000000000000000000000000000000000\n      dup2\n      mstore\n      0x04\n      add\n      tag_195\n      swap1\n      tag_196\n      jump\t// in\n    tag_195:\n      mload(0x40)\n      dup1\n      swap2\n      sub\n      swap1\n      revert\n    tag_194:\n        /* \"contracts/BuyStakeContract.sol\":8563:8589  unlockTokenFor(msg.sender) */\n      tag_197\n        /* \"contracts/BuyStakeContract.sol\":8578:8588  msg.sender */\n      caller\n        /* \"contracts/BuyStakeContract.sol\":8563:8577  unlockTokenFor */\n      tag_198\n        /* \"contracts/BuyStakeContract.sol\":8563:8589  unlockTokenFor(msg.sender) */\n      jump\t// in\n    tag_197:\n        /* \"contracts/BuyStakeContract.sol\":8390:8596  function unlockToken() external saleStoped {... */\n      jump\t// out\n        /* \"contracts/BuyStakeContract.sol\":1232:1257  uint256 public multiplier */\n    tag_52:\n      sload(0x01)\n      dup2\n      jump\t// out\n        /* \"contracts/BuyStakeContract.sol\":2085:2131  mapping(address => uint256) public tokenPrices */\n    tag_58:\n      mstore(0x20, 0x0b)\n      dup1\n      0x00\n      mstore\n      keccak256(0x00, 0x40)\n      0x00\n      swap2\n      pop\n      swap1\n      pop\n      sload\n      dup2\n      jump\t// out\n        /* \"contracts/BuyStakeContract.sol\":4871:5124  function payableTokenStatus(... */\n    tag_64:\n        /* \"@openzeppelin/contracts/access/Ownable.sol\":1531:1544  _checkOwner() */\n      tag_200\n        /* \"@openzeppelin/contracts/access/Ownable.sol\":1531:1542  _checkOwner */\n      tag_201\n        /* \"@openzeppelin/contracts/access/Ownable.sol\":1531:1544  _checkOwner() */\n      jump\t// in\n    tag_200:\n        /* \"contracts/BuyStakeContract.sol\":5013:5020  _status */\n      dup1\n        /* \"contracts/BuyStakeContract.sol\":4988:5020  payableTokens[_token] != _status */\n      iszero\n      iszero\n        /* \"contracts/BuyStakeContract.sol\":4988:5001  payableTokens */\n      0x09\n        /* \"contracts/BuyStakeContract.sol\":4988:5009  payableTokens[_token] */\n      0x00\n        /* \"contracts/BuyStakeContract.sol\":5002:5008  _token */\n      dup5\n        /* \"contracts/BuyStakeContract.sol\":4988:5009  payableTokens[_token] */\n      0xffffffffffffffffffffffffffffffffffffffff\n      and\n      0xffffffffffffffffffffffffffffffffffffffff\n      and\n      dup2\n      mstore\n      0x20\n      add\n      swap1\n      dup2\n      mstore\n      0x20\n      add\n      0x00\n      keccak256\n      0x00\n      swap1\n      sload\n      swap1\n      0x0100\n      exp\n      swap1\n      div\n      0xff\n      and\n        /* \"contracts/BuyStakeContract.sol\":4988:5020  payableTokens[_token] != _status */\n      iszero\n      iszero\n      sub\n        /* \"contracts/BuyStakeContract.sol\":4980:5076  require(payableTokens[_token] != _status, \"Presale: Status is already set to the desired value\") */\n      tag_203\n      jumpi\n      mload(0x40)\n      0x08c379a000000000000000000000000000000000000000000000000000000000\n      dup2\n      mstore\n      0x04\n      add\n      tag_204\n      swap1\n      tag_205\n      jump\t// in\n    tag_204:\n      mload(0x40)\n      dup1\n      swap2\n      sub\n      swap1\n      revert\n    tag_203:\n        /* \"contracts/BuyStakeContract.sol\":5110:5117  _status */\n      dup1\n        /* \"contracts/BuyStakeContract.sol\":5086:5099  payableTokens */\n      0x09\n        /* \"contracts/BuyStakeContract.sol\":5086:5107  payableTokens[_token] */\n      0x00\n        /* \"contracts/BuyStakeContract.sol\":5100:5106  _token */\n      dup5\n        /* \"contracts/BuyStakeContract.sol\":5086:5107  payableTokens[_token] */\n      0xffffffffffffffffffffffffffffffffffffffff\n      and\n      0xffffffffffffffffffffffffffffffffffffffff\n      and\n      dup2\n      mstore\n      0x20\n      add\n      swap1\n      dup2\n      mstore\n      0x20\n      add\n      0x00\n      keccak256\n      0x00\n        /* \"contracts/BuyStakeContract.sol\":5086:5117  payableTokens[_token] = _status */\n      0x0100\n      exp\n      dup2\n      sload\n      dup2\n      0xff\n      mul\n      not\n      and\n      swap1\n      dup4\n      iszero\n      iszero\n      mul\n      or\n      swap1\n      sstore\n      pop\n        /* \"contracts/BuyStakeContract.sol\":4871:5124  function payableTokenStatus(... */\n      pop\n      pop\n      jump\t// out\n        /* \"contracts/BuyStakeContract.sol\":1322:1341  uint256 public rate */\n    tag_67:\n      sload(0x02)\n      dup2\n      jump\t// out\n        /* \"contracts/BuyStakeContract.sol\":5242:5874  function updateTokenRate(... */\n    tag_73:\n        /* \"@openzeppelin/contracts/access/Ownable.sol\":1531:1544  _checkOwner() */\n      tag_207\n        /* \"@openzeppelin/contracts/access/Ownable.sol\":1531:1542  _checkOwner */\n      tag_201\n        /* \"@openzeppelin/contracts/access/Ownable.sol\":1531:1544  _checkOwner() */\n      jump\t// in\n    tag_207:\n        /* \"contracts/BuyStakeContract.sol\":5432:5439  _prices */\n      dup2\n        /* \"contracts/BuyStakeContract.sol\":5432:5446  _prices.length */\n      mload\n        /* \"contracts/BuyStakeContract.sol\":5414:5421  _tokens */\n      dup4\n        /* \"contracts/BuyStakeContract.sol\":5414:5428  _tokens.length */\n      mload\n        /* \"contracts/BuyStakeContract.sol\":5414:5446  _tokens.length == _prices.length */\n      eq\n        /* \"contracts/BuyStakeContract.sol\":5393:5519  require(... */\n      tag_209\n      jumpi\n      mload(0x40)\n      0x08c379a000000000000000000000000000000000000000000000000000000000\n      dup2\n      mstore\n      0x04\n      add\n      tag_210\n      swap1\n      tag_211\n      jump\t// in\n    tag_210:\n      mload(0x40)\n      dup1\n      swap2\n      sub\n      swap1\n      revert\n    tag_209:\n        /* \"contracts/BuyStakeContract.sol\":5542:5543  0 */\n      0x00\n        /* \"contracts/BuyStakeContract.sol\":5533:5538  _rate */\n      dup2\n        /* \"contracts/BuyStakeContract.sol\":5533:5543  _rate != 0 */\n      eq\n        /* \"contracts/BuyStakeContract.sol\":5529:5582  if (_rate != 0) {... */\n      tag_212\n      jumpi\n        /* \"contracts/BuyStakeContract.sol\":5566:5571  _rate */\n      dup1\n        /* \"contracts/BuyStakeContract.sol\":5559:5563  rate */\n      0x02\n        /* \"contracts/BuyStakeContract.sol\":5559:5571  rate = _rate */\n      dup2\n      swap1\n      sstore\n      pop\n        /* \"contracts/BuyStakeContract.sol\":5529:5582  if (_rate != 0) {... */\n    tag_212:\n        /* \"contracts/BuyStakeContract.sol\":5596:5605  uint256 i */\n      0x00\n        /* \"contracts/BuyStakeContract.sol\":5591:5868  for (uint256 i = 0; i < _tokens.length; i += 1) {... */\n    tag_213:\n        /* \"contracts/BuyStakeContract.sol\":5615:5622  _tokens */\n      dup4\n        /* \"contracts/BuyStakeContract.sol\":5615:5629  _tokens.length */\n      mload\n        /* \"contracts/BuyStakeContract.sol\":5611:5612  i */\n      dup2\n        /* \"contracts/BuyStakeContract.sol\":5611:5629  i < _tokens.length */\n      lt\n        /* \"contracts/BuyStakeContract.sol\":5591:5868  for (uint256 i = 0; i < _tokens.length; i += 1) {... */\n      iszero\n      tag_214\n      jumpi\n        /* \"contracts/BuyStakeContract.sol\":5690:5694  true */\n      0x01\n        /* \"contracts/BuyStakeContract.sol\":5661:5694  payableTokens[_tokens[i]] == true */\n      iszero\n      iszero\n        /* \"contracts/BuyStakeContract.sol\":5661:5674  payableTokens */\n      0x09\n        /* \"contracts/BuyStakeContract.sol\":5661:5686  payableTokens[_tokens[i]] */\n      0x00\n        /* \"contracts/BuyStakeContract.sol\":5675:5682  _tokens */\n      dup7\n        /* \"contracts/BuyStakeContract.sol\":5683:5684  i */\n      dup5\n        /* \"contracts/BuyStakeContract.sol\":5675:5685  _tokens[i] */\n      dup2\n      mload\n      dup2\n      lt\n      tag_216\n      jumpi\n      tag_217\n      tag_218\n      jump\t// in\n    tag_217:\n    tag_216:\n      0x20\n      mul\n      0x20\n      add\n      add\n      mload\n        /* \"contracts/BuyStakeContract.sol\":5661:5686  payableTokens[_tokens[i]] */\n      0xffffffffffffffffffffffffffffffffffffffff\n      and\n      0xffffffffffffffffffffffffffffffffffffffff\n      and\n      dup2\n      mstore\n      0x20\n      add\n      swap1\n      dup2\n      mstore\n      0x20\n      add\n      0x00\n      keccak256\n      0x00\n      swap1\n      sload\n      swap1\n      0x0100\n      exp\n      swap1\n      div\n      0xff\n      and\n        /* \"contracts/BuyStakeContract.sol\":5661:5694  payableTokens[_tokens[i]] == true */\n      iszero\n      iszero\n      eq\n        /* \"contracts/BuyStakeContract.sol\":5653:5736  require(payableTokens[_tokens[i]] == true, \"Presale: Token is not a payable token\") */\n      tag_219\n      jumpi\n      mload(0x40)\n      0x08c379a000000000000000000000000000000000000000000000000000000000\n      dup2\n      mstore\n      0x04\n      add\n      tag_220\n      swap1\n      tag_221\n      jump\t// in\n    tag_220:\n      mload(0x40)\n      dup1\n      swap2\n      sub\n      swap1\n      revert\n    tag_219:\n        /* \"contracts/BuyStakeContract.sol\":5772:5773  0 */\n      0x00\n        /* \"contracts/BuyStakeContract.sol\":5758:5765  _prices */\n      dup4\n        /* \"contracts/BuyStakeContract.sol\":5766:5767  i */\n      dup3\n        /* \"contracts/BuyStakeContract.sol\":5758:5768  _prices[i] */\n      dup2\n      mload\n      dup2\n      lt\n      tag_222\n      jumpi\n      tag_223\n      tag_218\n      jump\t// in\n    tag_223:\n    tag_222:\n      0x20\n      mul\n      0x20\n      add\n      add\n      mload\n        /* \"contracts/BuyStakeContract.sol\":5758:5773  _prices[i] != 0 */\n      sub\n        /* \"contracts/BuyStakeContract.sol\":5750:5807  require(_prices[i] != 0, \"Presale: Price cannot be zero\") */\n      tag_224\n      jumpi\n      mload(0x40)\n      0x08c379a000000000000000000000000000000000000000000000000000000000\n      dup2\n      mstore\n      0x04\n      add\n      tag_225\n      swap1\n      tag_226\n      jump\t// in\n    tag_225:\n      mload(0x40)\n      dup1\n      swap2\n      sub\n      swap1\n      revert\n    tag_224:\n        /* \"contracts/BuyStakeContract.sol\":5847:5854  _prices */\n      dup3\n        /* \"contracts/BuyStakeContract.sol\":5855:5856  i */\n      dup2\n        /* \"contracts/BuyStakeContract.sol\":5847:5857  _prices[i] */\n      dup2\n      mload\n      dup2\n      lt\n      tag_227\n      jumpi\n      tag_228\n      tag_218\n      jump\t// in\n    tag_228:\n    tag_227:\n      0x20\n      mul\n      0x20\n      add\n      add\n      mload\n        /* \"contracts/BuyStakeContract.sol\":5821:5832  tokenPrices */\n      0x0b\n        /* \"contracts/BuyStakeContract.sol\":5821:5844  tokenPrices[_tokens[i]] */\n      0x00\n        /* \"contracts/BuyStakeContract.sol\":5833:5840  _tokens */\n      dup7\n        /* \"contracts/BuyStakeContract.sol\":5841:5842  i */\n      dup5\n        /* \"contracts/BuyStakeContract.sol\":5833:5843  _tokens[i] */\n      dup2\n      mload\n      dup2\n      lt\n      tag_229\n      jumpi\n      tag_230\n      tag_218\n      jump\t// in\n    tag_230:\n    tag_229:\n      0x20\n      mul\n      0x20\n      add\n      add\n      mload\n        /* \"contracts/BuyStakeContract.sol\":5821:5844  tokenPrices[_tokens[i]] */\n      0xffffffffffffffffffffffffffffffffffffffff\n      and\n      0xffffffffffffffffffffffffffffffffffffffff\n      and\n      dup2\n      mstore\n      0x20\n      add\n      swap1\n      dup2\n      mstore\n      0x20\n      add\n      0x00\n      keccak256\n        /* \"contracts/BuyStakeContract.sol\":5821:5857  tokenPrices[_tokens[i]] = _prices[i] */\n      dup2\n      swap1\n      sstore\n      pop\n        /* \"contracts/BuyStakeContract.sol\":5636:5637  1 */\n      0x01\n        /* \"contracts/BuyStakeContract.sol\":5631:5637  i += 1 */\n      dup2\n      tag_231\n      swap2\n      swap1\n      tag_232\n      jump\t// in\n    tag_231:\n      swap1\n      pop\n        /* \"contracts/BuyStakeContract.sol\":5591:5868  for (uint256 i = 0; i < _tokens.length; i += 1) {... */\n      jump(tag_213)\n    tag_214:\n      pop\n        /* \"contracts/BuyStakeContract.sol\":5242:5874  function updateTokenRate(... */\n      pop\n      pop\n      pop\n      jump\t// out\n        /* \"contracts/BuyStakeContract.sol\":4111:4186  function resumeSale() external onlyOwner {... */\n    tag_76:\n        /* \"@openzeppelin/contracts/access/Ownable.sol\":1531:1544  _checkOwner() */\n      tag_234\n        /* \"@openzeppelin/contracts/access/Ownable.sol\":1531:1542  _checkOwner */\n      tag_201\n        /* \"@openzeppelin/contracts/access/Ownable.sol\":1531:1544  _checkOwner() */\n      jump\t// in\n    tag_234:\n        /* \"contracts/BuyStakeContract.sol\":4175:4179  true */\n      0x01\n        /* \"contracts/BuyStakeContract.sol\":4162:4172  saleStatus */\n      0x06\n      0x00\n        /* \"contracts/BuyStakeContract.sol\":4162:4179  saleStatus = true */\n      0x0100\n      exp\n      dup2\n      sload\n      dup2\n      0xff\n      mul\n      not\n      and\n      swap1\n      dup4\n      iszero\n      iszero\n      mul\n      or\n      swap1\n      sstore\n      pop\n        /* \"contracts/BuyStakeContract.sol\":4111:4186  function resumeSale() external onlyOwner {... */\n      jump\t// out\n        /* \"contracts/BuyStakeContract.sol\":6796:6902  function withdrawCurrency(uint256 amt) public onlyOwner {... */\n    tag_81:\n        /* \"@openzeppelin/contracts/access/Ownable.sol\":1531:1544  _checkOwner() */\n      tag_237\n        /* \"@openzeppelin/contracts/access/Ownable.sol\":1531:1542  _checkOwner */\n      tag_201\n        /* \"@openzeppelin/contracts/access/Ownable.sol\":1531:1544  _checkOwner() */\n      jump\t// in\n    tag_237:\n        /* \"contracts/BuyStakeContract.sol\":6870:6880  msg.sender */\n      caller\n        /* \"contracts/BuyStakeContract.sol\":6862:6890  payable(msg.sender).transfer */\n      0xffffffffffffffffffffffffffffffffffffffff\n      and\n        /* \"contracts/BuyStakeContract.sol\":6862:6895  payable(msg.sender).transfer(amt) */\n      0x08fc\n        /* \"contracts/BuyStakeContract.sol\":6891:6894  amt */\n      dup3\n        /* \"contracts/BuyStakeContract.sol\":6862:6895  payable(msg.sender).transfer(amt) */\n      swap1\n      dup2\n      iszero\n      mul\n      swap1\n      mload(0x40)\n      0x00\n      mload(0x40)\n      dup1\n      dup4\n      sub\n      dup2\n      dup6\n      dup9\n      dup9\n      call\n      swap4\n      pop\n      pop\n      pop\n      pop\n      iszero\n      dup1\n      iszero\n      tag_240\n      jumpi\n      returndatasize\n      0x00\n      dup1\n      returndatacopy\n      revert(0x00, returndatasize)\n    tag_240:\n      pop\n        /* \"contracts/BuyStakeContract.sol\":6796:6902  function withdrawCurrency(uint256 amt) public onlyOwner {... */\n      pop\n      jump\t// out\n        /* \"contracts/BuyStakeContract.sol\":4295:4789  function addPayableTokens(... */\n    tag_86:\n        /* \"@openzeppelin/contracts/access/Ownable.sol\":1531:1544  _checkOwner() */\n      tag_242\n        /* \"@openzeppelin/contracts/access/Ownable.sol\":1531:1542  _checkOwner */\n      tag_201\n        /* \"@openzeppelin/contracts/access/Ownable.sol\":1531:1544  _checkOwner() */\n      jump\t// in\n    tag_242:\n        /* \"contracts/BuyStakeContract.sol\":4463:4470  _prices */\n      dup1\n        /* \"contracts/BuyStakeContract.sol\":4463:4477  _prices.length */\n      mload\n        /* \"contracts/BuyStakeContract.sol\":4445:4452  _tokens */\n      dup3\n        /* \"contracts/BuyStakeContract.sol\":4445:4459  _tokens.length */\n      mload\n        /* \"contracts/BuyStakeContract.sol\":4445:4477  _tokens.length == _prices.length */\n      eq\n        /* \"contracts/BuyStakeContract.sol\":4424:4550  require(... */\n      tag_244\n      jumpi\n      mload(0x40)\n      0x08c379a000000000000000000000000000000000000000000000000000000000\n      dup2\n      mstore\n      0x04\n      add\n      tag_245\n      swap1\n      tag_211\n      jump\t// in\n    tag_245:\n      mload(0x40)\n      dup1\n      swap2\n      sub\n      swap1\n      revert\n    tag_244:\n        /* \"contracts/BuyStakeContract.sol\":4565:4574  uint256 i */\n      0x00\n        /* \"contracts/BuyStakeContract.sol\":4560:4783  for (uint256 i = 0; i < _tokens.length; i++) {... */\n    tag_246:\n        /* \"contracts/BuyStakeContract.sol\":4584:4591  _tokens */\n      dup3\n        /* \"contracts/BuyStakeContract.sol\":4584:4598  _tokens.length */\n      mload\n        /* \"contracts/BuyStakeContract.sol\":4580:4581  i */\n      dup2\n        /* \"contracts/BuyStakeContract.sol\":4580:4598  i < _tokens.length */\n      lt\n        /* \"contracts/BuyStakeContract.sol\":4560:4783  for (uint256 i = 0; i < _tokens.length; i++) {... */\n      iszero\n      tag_247\n      jumpi\n        /* \"contracts/BuyStakeContract.sol\":4641:4642  0 */\n      0x00\n        /* \"contracts/BuyStakeContract.sol\":4627:4634  _prices */\n      dup3\n        /* \"contracts/BuyStakeContract.sol\":4635:4636  i */\n      dup3\n        /* \"contracts/BuyStakeContract.sol\":4627:4637  _prices[i] */\n      dup2\n      mload\n      dup2\n      lt\n      tag_249\n      jumpi\n      tag_250\n      tag_218\n      jump\t// in\n    tag_250:\n    tag_249:\n      0x20\n      mul\n      0x20\n      add\n      add\n      mload\n        /* \"contracts/BuyStakeContract.sol\":4627:4642  _prices[i] != 0 */\n      sub\n        /* \"contracts/BuyStakeContract.sol\":4619:4676  require(_prices[i] != 0, \"Presale: Price cannot be zero\") */\n      tag_251\n      jumpi\n      mload(0x40)\n      0x08c379a000000000000000000000000000000000000000000000000000000000\n      dup2\n      mstore\n      0x04\n      add\n      tag_252\n      swap1\n      tag_226\n      jump\t// in\n    tag_252:\n      mload(0x40)\n      dup1\n      swap2\n      sub\n      swap1\n      revert\n    tag_251:\n        /* \"contracts/BuyStakeContract.sol\":4718:4722  true */\n      0x01\n        /* \"contracts/BuyStakeContract.sol\":4690:4703  payableTokens */\n      0x09\n        /* \"contracts/BuyStakeContract.sol\":4690:4715  payableTokens[_tokens[i]] */\n      0x00\n        /* \"contracts/BuyStakeContract.sol\":4704:4711  _tokens */\n      dup6\n        /* \"contracts/BuyStakeContract.sol\":4712:4713  i */\n      dup5\n        /* \"contracts/BuyStakeContract.sol\":4704:4714  _tokens[i] */\n      dup2\n      mload\n      dup2\n      lt\n      tag_253\n      jumpi\n      tag_254\n      tag_218\n      jump\t// in\n    tag_254:\n    tag_253:\n      0x20\n      mul\n      0x20\n      add\n      add\n      mload\n        /* \"contracts/BuyStakeContract.sol\":4690:4715  payableTokens[_tokens[i]] */\n      0xffffffffffffffffffffffffffffffffffffffff\n      and\n      0xffffffffffffffffffffffffffffffffffffffff\n      and\n      dup2\n      mstore\n      0x20\n      add\n      swap1\n      dup2\n      mstore\n      0x20\n      add\n      0x00\n      keccak256\n      0x00\n        /* \"contracts/BuyStakeContract.sol\":4690:4722  payableTokens[_tokens[i]] = true */\n      0x0100\n      exp\n      dup2\n      sload\n      dup2\n      0xff\n      mul\n      not\n      and\n      swap1\n      dup4\n      iszero\n      iszero\n      mul\n      or\n      swap1\n      sstore\n      pop\n        /* \"contracts/BuyStakeContract.sol\":4762:4769  _prices */\n      dup2\n        /* \"contracts/BuyStakeContract.sol\":4770:4771  i */\n      dup2\n        /* \"contracts/BuyStakeContract.sol\":4762:4772  _prices[i] */\n      dup2\n      mload\n      dup2\n      lt\n      tag_255\n      jumpi\n      tag_256\n      tag_218\n      jump\t// in\n    tag_256:\n    tag_255:\n      0x20\n      mul\n      0x20\n      add\n      add\n      mload\n        /* \"contracts/BuyStakeContract.sol\":4736:4747  tokenPrices */\n      0x0b\n        /* \"contracts/BuyStakeContract.sol\":4736:4759  tokenPrices[_tokens[i]] */\n      0x00\n        /* \"contracts/BuyStakeContract.sol\":4748:4755  _tokens */\n      dup6\n        /* \"contracts/BuyStakeContract.sol\":4756:4757  i */\n      dup5\n        /* \"contracts/BuyStakeContract.sol\":4748:4758  _tokens[i] */\n      dup2\n      mload\n      dup2\n      lt\n      tag_257\n      jumpi\n      tag_258\n      tag_218\n      jump\t// in\n    tag_258:\n    tag_257:\n      0x20\n      mul\n      0x20\n      add\n      add\n      mload\n        /* \"contracts/BuyStakeContract.sol\":4736:4759  tokenPrices[_tokens[i]] */\n      0xffffffffffffffffffffffffffffffffffffffff\n      and\n      0xffffffffffffffffffffffffffffffffffffffff\n      and\n      dup2\n      mstore\n      0x20\n      add\n      swap1\n      dup2\n      mstore\n      0x20\n      add\n      0x00\n      keccak256\n        /* \"contracts/BuyStakeContract.sol\":4736:4772  tokenPrices[_tokens[i]] = _prices[i] */\n      dup2\n      swap1\n      sstore\n      pop\n        /* \"contracts/BuyStakeContract.sol\":4600:4603  i++ */\n      dup1\n      dup1\n      tag_259\n      swap1\n      tag_260\n      jump\t// in\n    tag_259:\n      swap2\n      pop\n      pop\n        /* \"contracts/BuyStakeContract.sol\":4560:4783  for (uint256 i = 0; i < _tokens.length; i++) {... */\n      jump(tag_246)\n    tag_247:\n      pop\n        /* \"contracts/BuyStakeContract.sol\":4295:4789  function addPayableTokens(... */\n      pop\n      pop\n      jump\t// out\n        /* \"contracts/BuyStakeContract.sol\":6007:6174  function unlockAllTokens() external onlyOwner saleStoped {... */\n    tag_89:\n        /* \"@openzeppelin/contracts/access/Ownable.sol\":1531:1544  _checkOwner() */\n      tag_262\n        /* \"@openzeppelin/contracts/access/Ownable.sol\":1531:1542  _checkOwner */\n      tag_201\n        /* \"@openzeppelin/contracts/access/Ownable.sol\":1531:1544  _checkOwner() */\n      jump\t// in\n    tag_262:\n        /* \"contracts/BuyStakeContract.sol\":2374:2379  false */\n      0x00\n        /* \"contracts/BuyStakeContract.sol\":2360:2379  saleStatus == false */\n      iszero\n      iszero\n        /* \"contracts/BuyStakeContract.sol\":2360:2370  saleStatus */\n      0x06\n      0x00\n      swap1\n      sload\n      swap1\n      0x0100\n      exp\n      swap1\n      div\n      0xff\n      and\n        /* \"contracts/BuyStakeContract.sol\":2360:2379  saleStatus == false */\n      iszero\n      iszero\n      eq\n        /* \"contracts/BuyStakeContract.sol\":2352:2407  require(saleStatus == false, \"Presale: is not stopped\") */\n      tag_264\n      jumpi\n      mload(0x40)\n      0x08c379a000000000000000000000000000000000000000000000000000000000\n      dup2\n      mstore\n      0x04\n      add\n      tag_265\n      swap1\n      tag_192\n      jump\t// in\n    tag_265:\n      mload(0x40)\n      dup1\n      swap2\n      sub\n      swap1\n      revert\n    tag_264:\n        /* \"contracts/BuyStakeContract.sol\":6079:6088  uint256 i */\n      0x00\n        /* \"contracts/BuyStakeContract.sol\":6074:6168  for (uint256 i = 0; i < buyers.length; i++) {... */\n    tag_267:\n        /* \"contracts/BuyStakeContract.sol\":6098:6104  buyers */\n      0x07\n        /* \"contracts/BuyStakeContract.sol\":6098:6111  buyers.length */\n      dup1\n      sload\n      swap1\n      pop\n        /* \"contracts/BuyStakeContract.sol\":6094:6095  i */\n      dup2\n        /* \"contracts/BuyStakeContract.sol\":6094:6111  i < buyers.length */\n      lt\n        /* \"contracts/BuyStakeContract.sol\":6074:6168  for (uint256 i = 0; i < buyers.length; i++) {... */\n      iszero\n      tag_268\n      jumpi\n        /* \"contracts/BuyStakeContract.sol\":6132:6157  unlockTokenFor(buyers[i]) */\n      tag_270\n        /* \"contracts/BuyStakeContract.sol\":6147:6153  buyers */\n      0x07\n        /* \"contracts/BuyStakeContract.sol\":6154:6155  i */\n      dup3\n        /* \"contracts/BuyStakeContract.sol\":6147:6156  buyers[i] */\n      dup2\n      sload\n      dup2\n      lt\n      tag_271\n      jumpi\n      tag_272\n      tag_218\n      jump\t// in\n    tag_272:\n    tag_271:\n      swap1\n      0x00\n      mstore\n      keccak256(0x00, 0x20)\n      add\n      0x00\n      swap1\n      sload\n      swap1\n      0x0100\n      exp\n      swap1\n      div\n      0xffffffffffffffffffffffffffffffffffffffff\n      and\n        /* \"contracts/BuyStakeContract.sol\":6132:6146  unlockTokenFor */\n      tag_198\n        /* \"contracts/BuyStakeContract.sol\":6132:6157  unlockTokenFor(buyers[i]) */\n      jump\t// in\n    tag_270:\n        /* \"contracts/BuyStakeContract.sol\":6113:6116  i++ */\n      dup1\n      dup1\n      tag_274\n      swap1\n      tag_260\n      jump\t// in\n    tag_274:\n      swap2\n      pop\n      pop\n        /* \"contracts/BuyStakeContract.sol\":6074:6168  for (uint256 i = 0; i < buyers.length; i++) {... */\n      jump(tag_267)\n    tag_268:\n      pop\n        /* \"contracts/BuyStakeContract.sol\":6007:6174  function unlockAllTokens() external onlyOwner saleStoped {... */\n      jump\t// out\n        /* \"contracts/BuyStakeContract.sol\":1781:1811  uint256 public totalTokensSold */\n    tag_92:\n      sload(0x08)\n      dup2\n      jump\t// out\n        /* \"contracts/BuyStakeContract.sol\":3513:3640  function setMultiplier(uint256 _multiplier) public onlyOwner {... */\n    tag_97:\n        /* \"@openzeppelin/contracts/access/Ownable.sol\":1531:1544  _checkOwner() */\n      tag_276\n        /* \"@openzeppelin/contracts/access/Ownable.sol\":1531:1542  _checkOwner */\n      tag_201\n        /* \"@openzeppelin/contracts/access/Ownable.sol\":1531:1544  _checkOwner() */\n      jump\t// in\n    tag_276:\n        /* \"contracts/BuyStakeContract.sol\":3584:3599  updateRewards() */\n      tag_278\n        /* \"contracts/BuyStakeContract.sol\":3584:3597  updateRewards */\n      tag_279\n        /* \"contracts/BuyStakeContract.sol\":3584:3599  updateRewards() */\n      jump\t// in\n    tag_278:\n        /* \"contracts/BuyStakeContract.sol\":3622:3633  _multiplier */\n      dup1\n        /* \"contracts/BuyStakeContract.sol\":3609:3619  multiplier */\n      0x01\n        /* \"contracts/BuyStakeContract.sol\":3609:3633  multiplier = _multiplier */\n      dup2\n      swap1\n      sstore\n      pop\n        /* \"contracts/BuyStakeContract.sol\":3513:3640  function setMultiplier(uint256 _multiplier) public onlyOwner {... */\n      pop\n      jump\t// out\n        /* \"contracts/BuyStakeContract.sol\":7072:8261  function buyToken(... */\n    tag_100:\n        /* \"contracts/BuyStakeContract.sol\":2264:2268  true */\n      0x01\n        /* \"contracts/BuyStakeContract.sol\":2250:2268  saleStatus == true */\n      iszero\n      iszero\n        /* \"contracts/BuyStakeContract.sol\":2250:2260  saleStatus */\n      0x06\n      0x00\n      swap1\n      sload\n      swap1\n      0x0100\n      exp\n      swap1\n      div\n      0xff\n      and\n        /* \"contracts/BuyStakeContract.sol\":2250:2268  saleStatus == true */\n      iszero\n      iszero\n      eq\n        /* \"contracts/BuyStakeContract.sol\":2242:2296  require(saleStatus == true, \"Presale: is not enabled\") */\n      tag_281\n      jumpi\n      mload(0x40)\n      0x08c379a000000000000000000000000000000000000000000000000000000000\n      dup2\n      mstore\n      0x04\n      add\n      tag_282\n      swap1\n      tag_283\n      jump\t// in\n    tag_282:\n      mload(0x40)\n      dup1\n      swap2\n      sub\n      swap1\n      revert\n    tag_281:\n        /* \"contracts/BuyStakeContract.sol\":7184:7204  uint256 saleTokenAmt */\n      0x00\n        /* \"contracts/BuyStakeContract.sol\":7225:7226  0 */\n      dup1\n        /* \"contracts/BuyStakeContract.sol\":7207:7227  _token != address(0) */\n      0xffffffffffffffffffffffffffffffffffffffff\n      and\n        /* \"contracts/BuyStakeContract.sol\":7207:7213  _token */\n      dup4\n        /* \"contracts/BuyStakeContract.sol\":7207:7227  _token != address(0) */\n      0xffffffffffffffffffffffffffffffffffffffff\n      and\n      sub\n        /* \"contracts/BuyStakeContract.sol\":7207:7317  _token != address(0)... */\n      tag_285\n      jumpi\n        /* \"contracts/BuyStakeContract.sol\":7280:7317  getTokenAmount(address(0), msg.value) */\n      tag_286\n        /* \"contracts/BuyStakeContract.sol\":7303:7304  0 */\n      0x00\n        /* \"contracts/BuyStakeContract.sol\":7307:7316  msg.value */\n      callvalue\n        /* \"contracts/BuyStakeContract.sol\":7280:7294  getTokenAmount */\n      tag_44\n        /* \"contracts/BuyStakeContract.sol\":7280:7317  getTokenAmount(address(0), msg.value) */\n      jump\t// in\n    tag_286:\n        /* \"contracts/BuyStakeContract.sol\":7207:7317  _token != address(0)... */\n      jump(tag_287)\n    tag_285:\n        /* \"contracts/BuyStakeContract.sol\":7238:7269  getTokenAmount(_token, _amount) */\n      tag_288\n        /* \"contracts/BuyStakeContract.sol\":7253:7259  _token */\n      dup4\n        /* \"contracts/BuyStakeContract.sol\":7261:7268  _amount */\n      dup4\n        /* \"contracts/BuyStakeContract.sol\":7238:7252  getTokenAmount */\n      tag_44\n        /* \"contracts/BuyStakeContract.sol\":7238:7269  getTokenAmount(_token, _amount) */\n      jump\t// in\n    tag_288:\n        /* \"contracts/BuyStakeContract.sol\":7207:7317  _token != address(0)... */\n    tag_287:\n        /* \"contracts/BuyStakeContract.sol\":7184:7317  uint256 saleTokenAmt = _token != address(0)... */\n      swap1\n      pop\n        /* \"contracts/BuyStakeContract.sol\":7392:7410  totalTokensforSale */\n      sload(0x05)\n        /* \"contracts/BuyStakeContract.sol\":7376:7388  saleTokenAmt */\n      dup2\n        /* \"contracts/BuyStakeContract.sol\":7358:7373  totalTokensSold */\n      sload(0x08)\n        /* \"contracts/BuyStakeContract.sol\":7358:7388  totalTokensSold + saleTokenAmt */\n      tag_289\n      swap2\n      swap1\n      tag_232\n      jump\t// in\n    tag_289:\n        /* \"contracts/BuyStakeContract.sol\":7357:7410  (totalTokensSold + saleTokenAmt) < totalTokensforSale */\n      lt\n        /* \"contracts/BuyStakeContract.sol\":7336:7473  require(... */\n      tag_290\n      jumpi\n      mload(0x40)\n      0x08c379a000000000000000000000000000000000000000000000000000000000\n      dup2\n      mstore\n      0x04\n      add\n      tag_291\n      swap1\n      tag_292\n      jump\t// in\n    tag_291:\n      mload(0x40)\n      dup1\n      swap2\n      sub\n      swap1\n      revert\n    tag_290:\n        /* \"contracts/BuyStakeContract.sol\":7506:7507  0 */\n      0x00\n        /* \"contracts/BuyStakeContract.sol\":7488:7508  _token != address(0) */\n      0xffffffffffffffffffffffffffffffffffffffff\n      and\n        /* \"contracts/BuyStakeContract.sol\":7488:7494  _token */\n      dup4\n        /* \"contracts/BuyStakeContract.sol\":7488:7508  _token != address(0) */\n      0xffffffffffffffffffffffffffffffffffffffff\n      and\n      eq\n        /* \"contracts/BuyStakeContract.sol\":7484:7739  if (_token != address(0)) {... */\n      tag_293\n      jumpi\n        /* \"contracts/BuyStakeContract.sol\":7542:7543  0 */\n      0x00\n        /* \"contracts/BuyStakeContract.sol\":7532:7539  _amount */\n      dup3\n        /* \"contracts/BuyStakeContract.sol\":7532:7543  _amount > 0 */\n      gt\n        /* \"contracts/BuyStakeContract.sol\":7524:7586  require(_amount > 0, \"Presale: Amount must be greater than 0\") */\n      tag_294\n      jumpi\n      mload(0x40)\n      0x08c379a000000000000000000000000000000000000000000000000000000000\n      dup2\n      mstore\n      0x04\n      add\n      tag_295\n      swap1\n      tag_296\n      jump\t// in\n    tag_295:\n      mload(0x40)\n      dup1\n      swap2\n      sub\n      swap1\n      revert\n    tag_294:\n        /* \"contracts/BuyStakeContract.sol\":7600:7661  IERC20(_token).safeTransferFrom(msg.sender, owner(), _amount) */\n      tag_297\n        /* \"contracts/BuyStakeContract.sol\":7632:7642  msg.sender */\n      caller\n        /* \"contracts/BuyStakeContract.sol\":7644:7651  owner() */\n      tag_298\n        /* \"contracts/BuyStakeContract.sol\":7644:7649  owner */\n      tag_121\n        /* \"contracts/BuyStakeContract.sol\":7644:7651  owner() */\n      jump\t// in\n    tag_298:\n        /* \"contracts/BuyStakeContract.sol\":7653:7660  _amount */\n      dup5\n        /* \"contracts/BuyStakeContract.sol\":7607:7613  _token */\n      dup7\n        /* \"contracts/BuyStakeContract.sol\":7600:7631  IERC20(_token).safeTransferFrom */\n      0xffffffffffffffffffffffffffffffffffffffff\n      and\n      tag_299\n      swap1\n        /* \"contracts/BuyStakeContract.sol\":7600:7661  IERC20(_token).safeTransferFrom(msg.sender, owner(), _amount) */\n      swap4\n      swap3\n      swap2\n      swap1\n      0xffffffff\n      and\n      jump\t// in\n    tag_297:\n        /* \"contracts/BuyStakeContract.sol\":7484:7739  if (_token != address(0)) {... */\n      jump(tag_300)\n    tag_293:\n        /* \"contracts/BuyStakeContract.sol\":7700:7707  owner() */\n      tag_301\n        /* \"contracts/BuyStakeContract.sol\":7700:7705  owner */\n      tag_121\n        /* \"contracts/BuyStakeContract.sol\":7700:7707  owner() */\n      jump\t// in\n    tag_301:\n        /* \"contracts/BuyStakeContract.sol\":7692:7717  payable(owner()).transfer */\n      0xffffffffffffffffffffffffffffffffffffffff\n      and\n        /* \"contracts/BuyStakeContract.sol\":7692:7728  payable(owner()).transfer(msg.value) */\n      0x08fc\n        /* \"contracts/BuyStakeContract.sol\":7718:7727  msg.value */\n      callvalue\n        /* \"contracts/BuyStakeContract.sol\":7692:7728  payable(owner()).transfer(msg.value) */\n      swap1\n      dup2\n      iszero\n      mul\n      swap1\n      mload(0x40)\n      0x00\n      mload(0x40)\n      dup1\n      dup4\n      sub\n      dup2\n      dup6\n      dup9\n      dup9\n      call\n      swap4\n      pop\n      pop\n      pop\n      pop\n      iszero\n      dup1\n      iszero\n      tag_303\n      jumpi\n      returndatasize\n      0x00\n      dup1\n      returndatacopy\n      revert(0x00, returndatasize)\n    tag_303:\n      pop\n        /* \"contracts/BuyStakeContract.sol\":7484:7739  if (_token != address(0)) {... */\n    tag_300:\n        /* \"contracts/BuyStakeContract.sol\":7768:7780  saleTokenAmt */\n      dup1\n        /* \"contracts/BuyStakeContract.sol\":7749:7764  totalTokensSold */\n      0x08\n      0x00\n        /* \"contracts/BuyStakeContract.sol\":7749:7780  totalTokensSold += saleTokenAmt */\n      dup3\n      dup3\n      sload\n      tag_304\n      swap2\n      swap1\n      tag_232\n      jump\t// in\n    tag_304:\n      swap3\n      pop\n      pop\n      dup2\n      swap1\n      sstore\n      pop\n        /* \"contracts/BuyStakeContract.sol\":7790:7828  BuyerTokenDetails storage buyerDetails */\n      0x00\n        /* \"contracts/BuyStakeContract.sol\":7831:7844  buyersDetails */\n      0x0a\n        /* \"contracts/BuyStakeContract.sol\":7831:7856  buyersDetails[msg.sender] */\n      0x00\n        /* \"contracts/BuyStakeContract.sol\":7845:7855  msg.sender */\n      caller\n        /* \"contracts/BuyStakeContract.sol\":7831:7856  buyersDetails[msg.sender] */\n      0xffffffffffffffffffffffffffffffffffffffff\n      and\n      0xffffffffffffffffffffffffffffffffffffffff\n      and\n      dup2\n      mstore\n      0x20\n      add\n      swap1\n      dup2\n      mstore\n      0x20\n      add\n      0x00\n      keccak256\n        /* \"contracts/BuyStakeContract.sol\":7790:7856  BuyerTokenDetails storage buyerDetails = buyersDetails[msg.sender] */\n      swap1\n      pop\n        /* \"contracts/BuyStakeContract.sol\":7872:7884  buyerDetails */\n      dup1\n        /* \"contracts/BuyStakeContract.sol\":7872:7891  buyerDetails.exists */\n      0x01\n      add\n      0x00\n      swap1\n      sload\n      swap1\n      0x0100\n      exp\n      swap1\n      div\n      0xff\n      and\n        /* \"contracts/BuyStakeContract.sol\":7867:8151  if (!buyerDetails.exists) {... */\n      tag_305\n      jumpi\n        /* \"contracts/BuyStakeContract.sol\":7907:7913  buyers */\n      0x07\n        /* \"contracts/BuyStakeContract.sol\":7919:7929  msg.sender */\n      caller\n        /* \"contracts/BuyStakeContract.sol\":7907:7930  buyers.push(msg.sender) */\n      swap1\n      dup1\n      0x01\n      dup2\n      sload\n      add\n      dup1\n      dup3\n      sstore\n      dup1\n      swap2\n      pop\n      pop\n      0x01\n      swap1\n      sub\n      swap1\n      0x00\n      mstore\n      keccak256(0x00, 0x20)\n      add\n      0x00\n      swap1\n      swap2\n      swap1\n      swap2\n      swap1\n      swap2\n      0x0100\n      exp\n      dup2\n      sload\n      dup2\n      0xffffffffffffffffffffffffffffffffffffffff\n      mul\n      not\n      and\n      swap1\n      dup4\n      0xffffffffffffffffffffffffffffffffffffffff\n      and\n      mul\n      or\n      swap1\n      sstore\n      pop\n        /* \"contracts/BuyStakeContract.sol\":7966:7970  true */\n      0x01\n        /* \"contracts/BuyStakeContract.sol\":7944:7956  buyerDetails */\n      dup2\n        /* \"contracts/BuyStakeContract.sol\":7944:7963  buyerDetails.exists */\n      0x01\n      add\n      0x00\n        /* \"contracts/BuyStakeContract.sol\":7944:7970  buyerDetails.exists = true */\n      0x0100\n      exp\n      dup2\n      sload\n      dup2\n      0xff\n      mul\n      not\n      and\n      swap1\n      dup4\n      iszero\n      iszero\n      mul\n      or\n      swap1\n      sstore\n      pop\n        /* \"contracts/BuyStakeContract.sol\":7867:8151  if (!buyerDetails.exists) {... */\n      jump(tag_307)\n    tag_305:\n        /* \"contracts/BuyStakeContract.sol\":8013:8014  0 */\n      0x00\n        /* \"contracts/BuyStakeContract.sol\":7991:8003  buyerDetails */\n      dup2\n        /* \"contracts/BuyStakeContract.sol\":7991:8010  buyerDetails.amount */\n      0x00\n      add\n      sload\n        /* \"contracts/BuyStakeContract.sol\":7991:8014  buyerDetails.amount > 0 */\n      gt\n        /* \"contracts/BuyStakeContract.sol\":7987:8151  if (buyerDetails.amount > 0) {... */\n      iszero\n      tag_308\n      jumpi\n        /* \"contracts/BuyStakeContract.sol\":8114:8140  getBuyerReward(msg.sender) */\n      tag_309\n        /* \"contracts/BuyStakeContract.sol\":8129:8139  msg.sender */\n      caller\n        /* \"contracts/BuyStakeContract.sol\":8114:8128  getBuyerReward */\n      tag_117\n        /* \"contracts/BuyStakeContract.sol\":8114:8140  getBuyerReward(msg.sender) */\n      jump\t// in\n    tag_309:\n        /* \"contracts/BuyStakeContract.sol\":8091:8103  buyerDetails */\n      dup2\n        /* \"contracts/BuyStakeContract.sol\":8091:8110  buyerDetails.reward */\n      0x02\n      add\n      0x00\n        /* \"contracts/BuyStakeContract.sol\":8091:8140  buyerDetails.reward += getBuyerReward(msg.sender) */\n      dup3\n      dup3\n      sload\n      tag_310\n      swap2\n      swap1\n      tag_232\n      jump\t// in\n    tag_310:\n      swap3\n      pop\n      pop\n      dup2\n      swap1\n      sstore\n      pop\n        /* \"contracts/BuyStakeContract.sol\":7987:8151  if (buyerDetails.amount > 0) {... */\n    tag_308:\n        /* \"contracts/BuyStakeContract.sol\":7867:8151  if (!buyerDetails.exists) {... */\n    tag_307:\n        /* \"contracts/BuyStakeContract.sol\":8183:8195  saleTokenAmt */\n      dup2\n        /* \"contracts/BuyStakeContract.sol\":8160:8172  buyerDetails */\n      dup2\n        /* \"contracts/BuyStakeContract.sol\":8160:8179  buyerDetails.amount */\n      0x00\n      add\n      0x00\n        /* \"contracts/BuyStakeContract.sol\":8160:8195  buyerDetails.amount += saleTokenAmt */\n      dup3\n      dup3\n      sload\n      tag_311\n      swap2\n      swap1\n      tag_232\n      jump\t// in\n    tag_311:\n      swap3\n      pop\n      pop\n      dup2\n      swap1\n      sstore\n      pop\n        /* \"contracts/BuyStakeContract.sol\":8239:8254  block.timestamp */\n      timestamp\n        /* \"contracts/BuyStakeContract.sol\":8205:8217  buyerDetails */\n      dup2\n        /* \"contracts/BuyStakeContract.sol\":8205:8236  buyerDetails.lastCalculatedTime */\n      0x03\n      add\n        /* \"contracts/BuyStakeContract.sol\":8205:8254  buyerDetails.lastCalculatedTime = block.timestamp */\n      dup2\n      swap1\n      sstore\n      pop\n        /* \"contracts/BuyStakeContract.sol\":7174:8261  {... */\n      pop\n      pop\n        /* \"contracts/BuyStakeContract.sol\":7072:8261  function buyToken(... */\n      pop\n      pop\n      jump\t// out\n        /* \"contracts/BuyStakeContract.sol\":1545:1578  uint256 public totalTokensforSale */\n    tag_103:\n      sload(0x05)\n      dup2\n      jump\t// out\n        /* \"@openzeppelin/contracts/access/Ownable.sol\":2293:2394  function renounceOwnership() public virtual onlyOwner {... */\n    tag_107:\n        /* \"@openzeppelin/contracts/access/Ownable.sol\":1531:1544  _checkOwner() */\n      tag_313\n        /* \"@openzeppelin/contracts/access/Ownable.sol\":1531:1542  _checkOwner */\n      tag_201\n        /* \"@openzeppelin/contracts/access/Ownable.sol\":1531:1544  _checkOwner() */\n      jump\t// in\n    tag_313:\n        /* \"@openzeppelin/contracts/access/Ownable.sol\":2357:2387  _transferOwnership(address(0)) */\n      tag_315\n        /* \"@openzeppelin/contracts/access/Ownable.sol\":2384:2385  0 */\n      0x00\n        /* \"@openzeppelin/contracts/access/Ownable.sol\":2357:2375  _transferOwnership */\n      tag_316\n        /* \"@openzeppelin/contracts/access/Ownable.sol\":2357:2387  _transferOwnership(address(0)) */\n      jump\t// in\n    tag_315:\n        /* \"@openzeppelin/contracts/access/Ownable.sol\":2293:2394  function renounceOwnership() public virtual onlyOwner {... */\n      jump\t// out\n        /* \"contracts/BuyStakeContract.sol\":1876:1921  mapping(address => bool) public payableTokens */\n    tag_111:\n      mstore(0x20, 0x09)\n      dup1\n      0x00\n      mstore\n      keccak256(0x00, 0x40)\n      0x00\n      swap2\n      pop\n      sload\n      swap1\n      0x0100\n      exp\n      swap1\n      div\n      0xff\n      and\n      dup2\n      jump\t// out\n        /* \"contracts/BuyStakeContract.sol\":9510:9888  function getBuyerReward(address buyer) public view returns (uint256) {... */\n    tag_117:\n        /* \"contracts/BuyStakeContract.sol\":9570:9577  uint256 */\n      0x00\n        /* \"contracts/BuyStakeContract.sol\":9624:9625  0 */\n      dup1\n        /* \"contracts/BuyStakeContract.sol\":9593:9606  buyersDetails */\n      0x0a\n        /* \"contracts/BuyStakeContract.sol\":9593:9613  buyersDetails[buyer] */\n      0x00\n        /* \"contracts/BuyStakeContract.sol\":9607:9612  buyer */\n      dup5\n        /* \"contracts/BuyStakeContract.sol\":9593:9613  buyersDetails[buyer] */\n      0xffffffffffffffffffffffffffffffffffffffff\n      and\n      0xffffffffffffffffffffffffffffffffffffffff\n      and\n      dup2\n      mstore\n      0x20\n      add\n      swap1\n      dup2\n      mstore\n      0x20\n      add\n      0x00\n      keccak256\n        /* \"contracts/BuyStakeContract.sol\":9593:9620  buyersDetails[buyer].amount */\n      0x00\n      add\n      sload\n        /* \"contracts/BuyStakeContract.sol\":9593:9625  buyersDetails[buyer].amount == 0 */\n      sub\n        /* \"contracts/BuyStakeContract.sol\":9589:9635  if (buyersDetails[buyer].amount == 0) return 0 */\n      tag_318\n      jumpi\n        /* \"contracts/BuyStakeContract.sol\":9634:9635  0 */\n      0x00\n        /* \"contracts/BuyStakeContract.sol\":9627:9635  return 0 */\n      swap1\n      pop\n      jump(tag_317)\n        /* \"contracts/BuyStakeContract.sol\":9589:9635  if (buyersDetails[buyer].amount == 0) return 0 */\n    tag_318:\n        /* \"contracts/BuyStakeContract.sol\":9646:9661  uint daysPassed */\n      0x00\n        /* \"contracts/BuyStakeContract.sol\":9738:9743  86400 */\n      0x015180\n        /* \"contracts/BuyStakeContract.sol\":9695:9708  buyersDetails */\n      0x0a\n        /* \"contracts/BuyStakeContract.sol\":9695:9715  buyersDetails[buyer] */\n      0x00\n        /* \"contracts/BuyStakeContract.sol\":9709:9714  buyer */\n      dup6\n        /* \"contracts/BuyStakeContract.sol\":9695:9715  buyersDetails[buyer] */\n      0xffffffffffffffffffffffffffffffffffffffff\n      and\n      0xffffffffffffffffffffffffffffffffffffffff\n      and\n      dup2\n      mstore\n      0x20\n      add\n      swap1\n      dup2\n      mstore\n      0x20\n      add\n      0x00\n      keccak256\n        /* \"contracts/BuyStakeContract.sol\":9695:9734  buyersDetails[buyer].lastCalculatedTime */\n      0x03\n      add\n      sload\n        /* \"contracts/BuyStakeContract.sol\":9665:9680  block.timestamp */\n      timestamp\n        /* \"contracts/BuyStakeContract.sol\":9665:9734  block.timestamp -... */\n      tag_319\n      swap2\n      swap1\n      tag_320\n      jump\t// in\n    tag_319:\n        /* \"contracts/BuyStakeContract.sol\":9664:9743  (block.timestamp -... */\n      tag_321\n      swap2\n      swap1\n      tag_184\n      jump\t// in\n    tag_321:\n        /* \"contracts/BuyStakeContract.sol\":9646:9743  uint daysPassed = (block.timestamp -... */\n      swap1\n      pop\n        /* \"contracts/BuyStakeContract.sol\":9754:9768  uint256 reward */\n      0x00\n        /* \"contracts/BuyStakeContract.sol\":9853:9858  10000 */\n      0x2710\n        /* \"contracts/BuyStakeContract.sol\":9839:9849  daysPassed */\n      dup3\n        /* \"contracts/BuyStakeContract.sol\":9814:9824  multiplier */\n      sload(0x01)\n        /* \"contracts/BuyStakeContract.sol\":9772:9785  buyersDetails */\n      0x0a\n        /* \"contracts/BuyStakeContract.sol\":9772:9792  buyersDetails[buyer] */\n      0x00\n        /* \"contracts/BuyStakeContract.sol\":9786:9791  buyer */\n      dup9\n        /* \"contracts/BuyStakeContract.sol\":9772:9792  buyersDetails[buyer] */\n      0xffffffffffffffffffffffffffffffffffffffff\n      and\n      0xffffffffffffffffffffffffffffffffffffffff\n      and\n      dup2\n      mstore\n      0x20\n      add\n      swap1\n      dup2\n      mstore\n      0x20\n      add\n      0x00\n      keccak256\n        /* \"contracts/BuyStakeContract.sol\":9772:9799  buyersDetails[buyer].amount */\n      0x00\n      add\n      sload\n        /* \"contracts/BuyStakeContract.sol\":9772:9824  buyersDetails[buyer].amount *... */\n      tag_322\n      swap2\n      swap1\n      tag_182\n      jump\t// in\n    tag_322:\n        /* \"contracts/BuyStakeContract.sol\":9772:9849  buyersDetails[buyer].amount *... */\n      tag_323\n      swap2\n      swap1\n      tag_182\n      jump\t// in\n    tag_323:\n        /* \"contracts/BuyStakeContract.sol\":9771:9858  (buyersDetails[buyer].amount *... */\n      tag_324\n      swap2\n      swap1\n      tag_184\n      jump\t// in\n    tag_324:\n        /* \"contracts/BuyStakeContract.sol\":9754:9858  uint256 reward = (buyersDetails[buyer].amount *... */\n      swap1\n      pop\n        /* \"contracts/BuyStakeContract.sol\":9875:9881  reward */\n      dup1\n        /* \"contracts/BuyStakeContract.sol\":9868:9881  return reward */\n      swap3\n      pop\n      pop\n      pop\n        /* \"contracts/BuyStakeContract.sol\":9510:9888  function getBuyerReward(address buyer) public view returns (uint256) {... */\n    tag_317:\n      swap2\n      swap1\n      pop\n      jump\t// out\n        /* \"@openzeppelin/contracts/access/Ownable.sol\":1638:1723  function owner() public view virtual returns (address) {... */\n    tag_121:\n        /* \"@openzeppelin/contracts/access/Ownable.sol\":1684:1691  address */\n      0x00\n        /* \"@openzeppelin/contracts/access/Ownable.sol\":1710:1716  _owner */\n      dup1\n      0x00\n      swap1\n      sload\n      swap1\n      0x0100\n      exp\n      swap1\n      div\n      0xffffffffffffffffffffffffffffffffffffffff\n      and\n        /* \"@openzeppelin/contracts/access/Ownable.sol\":1703:1716  return _owner */\n      swap1\n      pop\n        /* \"@openzeppelin/contracts/access/Ownable.sol\":1638:1723  function owner() public view virtual returns (address) {... */\n      swap1\n      jump\t// out\n        /* \"contracts/BuyStakeContract.sol\":6282:6503  function withdrawAllSaleTokens() external onlyOwner saleStoped {... */\n    tag_126:\n        /* \"@openzeppelin/contracts/access/Ownable.sol\":1531:1544  _checkOwner() */\n      tag_327\n        /* \"@openzeppelin/contracts/access/Ownable.sol\":1531:1542  _checkOwner */\n      tag_201\n        /* \"@openzeppelin/contracts/access/Ownable.sol\":1531:1544  _checkOwner() */\n      jump\t// in\n    tag_327:\n        /* \"contracts/BuyStakeContract.sol\":2374:2379  false */\n      0x00\n        /* \"contracts/BuyStakeContract.sol\":2360:2379  saleStatus == false */\n      iszero\n      iszero\n        /* \"contracts/BuyStakeContract.sol\":2360:2370  saleStatus */\n      0x06\n      0x00\n      swap1\n      sload\n      swap1\n      0x0100\n      exp\n      swap1\n      div\n      0xff\n      and\n        /* \"contracts/BuyStakeContract.sol\":2360:2379  saleStatus == false */\n      iszero\n      iszero\n      eq\n        /* \"contracts/BuyStakeContract.sol\":2352:2407  require(saleStatus == false, \"Presale: is not stopped\") */\n      tag_329\n      jumpi\n      mload(0x40)\n      0x08c379a000000000000000000000000000000000000000000000000000000000\n      dup2\n      mstore\n      0x04\n      add\n      tag_330\n      swap1\n      tag_192\n      jump\t// in\n    tag_330:\n      mload(0x40)\n      dup1\n      swap2\n      sub\n      swap1\n      revert\n    tag_329:\n        /* \"contracts/BuyStakeContract.sol\":6355:6366  uint256 amt */\n      0x00\n        /* \"contracts/BuyStakeContract.sol\":6376:6385  saleToken */\n      0x03\n      0x00\n      swap1\n      sload\n      swap1\n      0x0100\n      exp\n      swap1\n      div\n      0xffffffffffffffffffffffffffffffffffffffff\n      and\n        /* \"contracts/BuyStakeContract.sol\":6369:6396  IERC20(saleToken).balanceOf */\n      0xffffffffffffffffffffffffffffffffffffffff\n      and\n      0x70a08231\n        /* \"contracts/BuyStakeContract.sol\":6405:6409  this */\n      address\n        /* \"contracts/BuyStakeContract.sol\":6369:6411  IERC20(saleToken).balanceOf(address(this)) */\n      mload(0x40)\n      dup3\n      0xffffffff\n      and\n      0xe0\n      shl\n      dup2\n      mstore\n      0x04\n      add\n      tag_332\n      swap2\n      swap1\n      tag_123\n      jump\t// in\n    tag_332:\n      0x20\n      mload(0x40)\n      dup1\n      dup4\n      sub\n      dup2\n      dup7\n      gas\n      staticcall\n      iszero\n      dup1\n      iszero\n      tag_334\n      jumpi\n      returndatasize\n      0x00\n      dup1\n      returndatacopy\n      revert(0x00, returndatasize)\n    tag_334:\n      pop\n      pop\n      pop\n      pop\n      mload(0x40)\n      returndatasize\n      not(0x1f)\n      0x1f\n      dup3\n      add\n      and\n      dup3\n      add\n      dup1\n      0x40\n      mstore\n      pop\n      dup2\n      add\n      swap1\n      tag_335\n      swap2\n      swap1\n      tag_336\n      jump\t// in\n    tag_335:\n        /* \"contracts/BuyStakeContract.sol\":6355:6411  uint256 amt = IERC20(saleToken).balanceOf(address(this)) */\n      swap1\n      pop\n        /* \"contracts/BuyStakeContract.sol\":6428:6437  saleToken */\n      0x03\n      0x00\n      swap1\n      sload\n      swap1\n      0x0100\n      exp\n      swap1\n      div\n      0xffffffffffffffffffffffffffffffffffffffff\n      and\n        /* \"contracts/BuyStakeContract.sol\":6421:6447  IERC20(saleToken).transfer */\n      0xffffffffffffffffffffffffffffffffffffffff\n      and\n      0xa9059cbb\n        /* \"contracts/BuyStakeContract.sol\":6448:6458  msg.sender */\n      caller\n        /* \"contracts/BuyStakeContract.sol\":6460:6463  amt */\n      dup4\n        /* \"contracts/BuyStakeContract.sol\":6421:6464  IERC20(saleToken).transfer(msg.sender, amt) */\n      mload(0x40)\n      dup4\n      0xffffffff\n      and\n      0xe0\n      shl\n      dup2\n      mstore\n      0x04\n      add\n      tag_337\n      swap3\n      swap2\n      swap1\n      tag_338\n      jump\t// in\n    tag_337:\n      0x20\n      mload(0x40)\n      dup1\n      dup4\n      sub\n      dup2\n      0x00\n      dup8\n      gas\n      call\n      iszero\n      dup1\n      iszero\n      tag_340\n      jumpi\n      returndatasize\n      0x00\n      dup1\n      returndatacopy\n      revert(0x00, returndatasize)\n    tag_340:\n      pop\n      pop\n      pop\n      pop\n      mload(0x40)\n      returndatasize\n      not(0x1f)\n      0x1f\n      dup3\n      add\n      and\n      dup3\n      add\n      dup1\n      0x40\n      mstore\n      pop\n      dup2\n      add\n      swap1\n      tag_341\n      swap2\n      swap1\n      tag_342\n      jump\t// in\n    tag_341:\n      pop\n        /* \"contracts/BuyStakeContract.sol\":6495:6496  0 */\n      0x00\n        /* \"contracts/BuyStakeContract.sol\":6474:6492  totalTokensforSale */\n      0x05\n        /* \"contracts/BuyStakeContract.sol\":6474:6496  totalTokensforSale = 0 */\n      dup2\n      swap1\n      sstore\n      pop\n        /* \"contracts/BuyStakeContract.sol\":6345:6503  {... */\n      pop\n        /* \"contracts/BuyStakeContract.sol\":6282:6503  function withdrawAllSaleTokens() external onlyOwner saleStoped {... */\n      jump\t// out\n        /* \"contracts/BuyStakeContract.sol\":2758:3380  function setParams(... */\n    tag_131:\n        /* \"@openzeppelin/contracts/access/Ownable.sol\":1531:1544  _checkOwner() */\n      tag_344\n        /* \"@openzeppelin/contracts/access/Ownable.sol\":1531:1542  _checkOwner */\n      tag_201\n        /* \"@openzeppelin/contracts/access/Ownable.sol\":1531:1544  _checkOwner() */\n      jump\t// in\n    tag_344:\n        /* \"contracts/BuyStakeContract.sol\":2969:2970  0 */\n      0x00\n        /* \"contracts/BuyStakeContract.sol\":2960:2965  _rate */\n      dup4\n        /* \"contracts/BuyStakeContract.sol\":2960:2970  _rate != 0 */\n      sub\n        /* \"contracts/BuyStakeContract.sol\":2952:3003  require(_rate != 0, \"Presale: Rate cannot be zero\") */\n      tag_346\n      jumpi\n      mload(0x40)\n      0x08c379a000000000000000000000000000000000000000000000000000000000\n      dup2\n      mstore\n      0x04\n      add\n      tag_347\n      swap1\n      tag_348\n      jump\t// in\n    tag_347:\n      mload(0x40)\n      dup1\n      swap2\n      sub\n      swap1\n      revert\n    tag_346:\n        /* \"contracts/BuyStakeContract.sol\":3020:3025  _rate */\n      dup3\n        /* \"contracts/BuyStakeContract.sol\":3013:3017  rate */\n      0x02\n        /* \"contracts/BuyStakeContract.sol\":3013:3025  rate = _rate */\n      dup2\n      swap1\n      sstore\n      pop\n        /* \"contracts/BuyStakeContract.sol\":3047:3057  _saleToken */\n      dup5\n        /* \"contracts/BuyStakeContract.sol\":3035:3044  saleToken */\n      0x03\n      0x00\n        /* \"contracts/BuyStakeContract.sol\":3035:3057  saleToken = _saleToken */\n      0x0100\n      exp\n      dup2\n      sload\n      dup2\n      0xffffffffffffffffffffffffffffffffffffffff\n      mul\n      not\n      and\n      swap1\n      dup4\n      0xffffffffffffffffffffffffffffffffffffffff\n      and\n      mul\n      or\n      swap1\n      sstore\n      pop\n        /* \"contracts/BuyStakeContract.sol\":3080:3091  _saleStatus */\n      dup1\n        /* \"contracts/BuyStakeContract.sol\":3067:3077  saleStatus */\n      0x06\n      0x00\n        /* \"contracts/BuyStakeContract.sol\":3067:3091  saleStatus = _saleStatus */\n      0x0100\n      exp\n      dup2\n      sload\n      dup2\n      0xff\n      mul\n      not\n      and\n      swap1\n      dup4\n      iszero\n      iszero\n      mul\n      or\n      swap1\n      sstore\n      pop\n        /* \"contracts/BuyStakeContract.sol\":3131:3140  saleToken */\n      0x03\n      0x00\n      swap1\n      sload\n      swap1\n      0x0100\n      exp\n      swap1\n      div\n      0xffffffffffffffffffffffffffffffffffffffff\n      and\n        /* \"contracts/BuyStakeContract.sol\":3116:3150  IERC20Metadata(saleToken).decimals */\n      0xffffffffffffffffffffffffffffffffffffffff\n      and\n      0x313ce567\n        /* \"contracts/BuyStakeContract.sol\":3116:3152  IERC20Metadata(saleToken).decimals() */\n      mload(0x40)\n      dup2\n      0xffffffff\n      and\n      0xe0\n      shl\n      dup2\n      mstore\n      0x04\n      add\n      0x20\n      mload(0x40)\n      dup1\n      dup4\n      sub\n      dup2\n      dup7\n      gas\n      staticcall\n      iszero\n      dup1\n      iszero\n      tag_350\n      jumpi\n      returndatasize\n      0x00\n      dup1\n      returndatacopy\n      revert(0x00, returndatasize)\n    tag_350:\n      pop\n      pop\n      pop\n      pop\n      mload(0x40)\n      returndatasize\n      not(0x1f)\n      0x1f\n      dup3\n      add\n      and\n      dup3\n      add\n      dup1\n      0x40\n      mstore\n      pop\n      dup2\n      add\n      swap1\n      tag_351\n      swap2\n      swap1\n      tag_352\n      jump\t// in\n    tag_351:\n        /* \"contracts/BuyStakeContract.sol\":3101:3152  saleTokenDec = IERC20Metadata(saleToken).decimals() */\n      0xff\n      and\n        /* \"contracts/BuyStakeContract.sol\":3101:3113  saleTokenDec */\n      0x04\n        /* \"contracts/BuyStakeContract.sol\":3101:3152  saleTokenDec = IERC20Metadata(saleToken).decimals() */\n      dup2\n      swap1\n      sstore\n      pop\n        /* \"contracts/BuyStakeContract.sol\":3183:3202  _totalTokensforSale */\n      dup4\n        /* \"contracts/BuyStakeContract.sol\":3162:3180  totalTokensforSale */\n      0x05\n        /* \"contracts/BuyStakeContract.sol\":3162:3202  totalTokensforSale = _totalTokensforSale */\n      dup2\n      swap1\n      sstore\n      pop\n        /* \"contracts/BuyStakeContract.sol\":3225:3236  _multiplier */\n      dup2\n        /* \"contracts/BuyStakeContract.sol\":3212:3222  multiplier */\n      0x01\n        /* \"contracts/BuyStakeContract.sol\":3212:3236  multiplier = _multiplier */\n      dup2\n      swap1\n      sstore\n      pop\n        /* \"contracts/BuyStakeContract.sol\":3246:3373  IERC20(saleToken).safeTransferFrom(... */\n      tag_353\n        /* \"contracts/BuyStakeContract.sol\":3294:3304  msg.sender */\n      caller\n        /* \"contracts/BuyStakeContract.sol\":3326:3330  this */\n      address\n        /* \"contracts/BuyStakeContract.sol\":3345:3363  totalTokensforSale */\n      sload(0x05)\n        /* \"contracts/BuyStakeContract.sol\":3253:3262  saleToken */\n      0x03\n      0x00\n      swap1\n      sload\n      swap1\n      0x0100\n      exp\n      swap1\n      div\n      0xffffffffffffffffffffffffffffffffffffffff\n      and\n        /* \"contracts/BuyStakeContract.sol\":3246:3280  IERC20(saleToken).safeTransferFrom */\n      0xffffffffffffffffffffffffffffffffffffffff\n      and\n      tag_299\n      swap1\n        /* \"contracts/BuyStakeContract.sol\":3246:3373  IERC20(saleToken).safeTransferFrom(... */\n      swap4\n      swap3\n      swap2\n      swap1\n      0xffffffff\n      and\n      jump\t// in\n    tag_353:\n        /* \"contracts/BuyStakeContract.sol\":2758:3380  function setParams(... */\n      pop\n      pop\n      pop\n      pop\n      pop\n      jump\t// out\n        /* \"contracts/BuyStakeContract.sol\":3731:4025  function increaseTotalTokensforSale(... */\n    tag_135:\n        /* \"@openzeppelin/contracts/access/Ownable.sol\":1531:1544  _checkOwner() */\n      tag_355\n        /* \"@openzeppelin/contracts/access/Ownable.sol\":1531:1542  _checkOwner */\n      tag_201\n        /* \"@openzeppelin/contracts/access/Ownable.sol\":1531:1544  _checkOwner() */\n      jump\t// in\n    tag_355:\n        /* \"contracts/BuyStakeContract.sol\":3861:3880  _totalTokensforSale */\n      dup1\n        /* \"contracts/BuyStakeContract.sol\":3839:3857  totalTokensforSale */\n      0x05\n      0x00\n        /* \"contracts/BuyStakeContract.sol\":3839:3880  totalTokensforSale += _totalTokensforSale */\n      dup3\n      dup3\n      sload\n      tag_357\n      swap2\n      swap1\n      tag_232\n      jump\t// in\n    tag_357:\n      swap3\n      pop\n      pop\n      dup2\n      swap1\n      sstore\n      pop\n        /* \"contracts/BuyStakeContract.sol\":3890:4018  IERC20(saleToken).safeTransferFrom(... */\n      tag_358\n        /* \"contracts/BuyStakeContract.sol\":3938:3948  msg.sender */\n      caller\n        /* \"contracts/BuyStakeContract.sol\":3970:3974  this */\n      address\n        /* \"contracts/BuyStakeContract.sol\":3989:4008  _totalTokensforSale */\n      dup4\n        /* \"contracts/BuyStakeContract.sol\":3897:3906  saleToken */\n      0x03\n      0x00\n      swap1\n      sload\n      swap1\n      0x0100\n      exp\n      swap1\n      div\n      0xffffffffffffffffffffffffffffffffffffffff\n      and\n        /* \"contracts/BuyStakeContract.sol\":3890:3924  IERC20(saleToken).safeTransferFrom */\n      0xffffffffffffffffffffffffffffffffffffffff\n      and\n      tag_299\n      swap1\n        /* \"contracts/BuyStakeContract.sol\":3890:4018  IERC20(saleToken).safeTransferFrom(... */\n      swap4\n      swap3\n      swap2\n      swap1\n      0xffffffff\n      and\n      jump\t// in\n    tag_358:\n        /* \"contracts/BuyStakeContract.sol\":3731:4025  function increaseTotalTokensforSale(... */\n      pop\n      jump\t// out\n        /* \"contracts/BuyStakeContract.sol\":1484:1508  uint public saleTokenDec */\n    tag_138:\n      sload(0x04)\n      dup2\n      jump\t// out\n        /* \"contracts/BuyStakeContract.sol\":4031:4105  function stopSale() external onlyOwner {... */\n    tag_142:\n        /* \"@openzeppelin/contracts/access/Ownable.sol\":1531:1544  _checkOwner() */\n      tag_360\n        /* \"@openzeppelin/contracts/access/Ownable.sol\":1531:1542  _checkOwner */\n      tag_201\n        /* \"@openzeppelin/contracts/access/Ownable.sol\":1531:1544  _checkOwner() */\n      jump\t// in\n    tag_360:\n        /* \"contracts/BuyStakeContract.sol\":4093:4098  false */\n      0x00\n        /* \"contracts/BuyStakeContract.sol\":4080:4090  saleStatus */\n      0x06\n      0x00\n        /* \"contracts/BuyStakeContract.sol\":4080:4098  saleStatus = false */\n      0x0100\n      exp\n      dup2\n      sload\n      dup2\n      0xff\n      mul\n      not\n      and\n      swap1\n      dup4\n      iszero\n      iszero\n      mul\n      or\n      swap1\n      sstore\n      pop\n        /* \"contracts/BuyStakeContract.sol\":4031:4105  function stopSale() external onlyOwner {... */\n      jump\t// out\n        /* \"contracts/BuyStakeContract.sol\":1423:1447  address public saleToken */\n    tag_145:\n      0x03\n      0x00\n      swap1\n      sload\n      swap1\n      0x0100\n      exp\n      swap1\n      div\n      0xffffffffffffffffffffffffffffffffffffffff\n      and\n      dup2\n      jump\t// out\n        /* \"contracts/BuyStakeContract.sol\":1716:1739  address[] public buyers */\n    tag_150:\n      0x07\n      dup2\n      dup2\n      sload\n      dup2\n      lt\n      tag_362\n      jumpi\n      0x00\n      dup1\n      revert\n    tag_362:\n      swap1\n      0x00\n      mstore\n      keccak256(0x00, 0x20)\n      add\n      0x00\n      swap2\n      pop\n      sload\n      swap1\n      0x0100\n      exp\n      swap1\n      div\n      0xffffffffffffffffffffffffffffffffffffffff\n      and\n      dup2\n      jump\t// out\n        /* \"@openzeppelin/contracts/access/Ownable.sol\":2543:2758  function transferOwnership(address newOwner) public virtual onlyOwner {... */\n    tag_155:\n        /* \"@openzeppelin/contracts/access/Ownable.sol\":1531:1544  _checkOwner() */\n      tag_365\n        /* \"@openzeppelin/contracts/access/Ownable.sol\":1531:1542  _checkOwner */\n      tag_201\n        /* \"@openzeppelin/contracts/access/Ownable.sol\":1531:1544  _checkOwner() */\n      jump\t// in\n    tag_365:\n        /* \"@openzeppelin/contracts/access/Ownable.sol\":2647:2648  0 */\n      0x00\n        /* \"@openzeppelin/contracts/access/Ownable.sol\":2627:2649  newOwner == address(0) */\n      0xffffffffffffffffffffffffffffffffffffffff\n      and\n        /* \"@openzeppelin/contracts/access/Ownable.sol\":2627:2635  newOwner */\n      dup2\n        /* \"@openzeppelin/contracts/access/Ownable.sol\":2627:2649  newOwner == address(0) */\n      0xffffffffffffffffffffffffffffffffffffffff\n      and\n      sub\n        /* \"@openzeppelin/contracts/access/Ownable.sol\":2623:2714  if (newOwner == address(0)) {... */\n      tag_367\n      jumpi\n        /* \"@openzeppelin/contracts/access/Ownable.sol\":2700:2701  0 */\n      0x00\n        /* \"@openzeppelin/contracts/access/Ownable.sol\":2672:2703  OwnableInvalidOwner(address(0)) */\n      mload(0x40)\n      0x1e4fbdf700000000000000000000000000000000000000000000000000000000\n      dup2\n      mstore\n      0x04\n      add\n      tag_368\n      swap2\n      swap1\n      tag_123\n      jump\t// in\n    tag_368:\n      mload(0x40)\n      dup1\n      swap2\n      sub\n      swap1\n      revert\n        /* \"@openzeppelin/contracts/access/Ownable.sol\":2623:2714  if (newOwner == address(0)) {... */\n    tag_367:\n        /* \"@openzeppelin/contracts/access/Ownable.sol\":2723:2751  _transferOwnership(newOwner) */\n      tag_369\n        /* \"@openzeppelin/contracts/access/Ownable.sol\":2742:2750  newOwner */\n      dup2\n        /* \"@openzeppelin/contracts/access/Ownable.sol\":2723:2741  _transferOwnership */\n      tag_316\n        /* \"@openzeppelin/contracts/access/Ownable.sol\":2723:2751  _transferOwnership(newOwner) */\n      jump\t// in\n    tag_369:\n        /* \"@openzeppelin/contracts/access/Ownable.sol\":2543:2758  function transferOwnership(address newOwner) public virtual onlyOwner {... */\n      pop\n      jump\t// out\n        /* \"contracts/BuyStakeContract.sol\":6509:6632  function withdraw(address token, uint256 amt) public onlyOwner {... */\n    tag_159:\n        /* \"@openzeppelin/contracts/access/Ownable.sol\":1531:1544  _checkOwner() */\n      tag_371\n        /* \"@openzeppelin/contracts/access/Ownable.sol\":1531:1542  _checkOwner */\n      tag_201\n        /* \"@openzeppelin/contracts/access/Ownable.sol\":1531:1544  _checkOwner() */\n      jump\t// in\n    tag_371:\n        /* \"contracts/BuyStakeContract.sol\":6582:6625  IERC20(token).safeTransfer(msg.sender, amt) */\n      tag_373\n        /* \"contracts/BuyStakeContract.sol\":6609:6619  msg.sender */\n      caller\n        /* \"contracts/BuyStakeContract.sol\":6621:6624  amt */\n      dup3\n        /* \"contracts/BuyStakeContract.sol\":6589:6594  token */\n      dup5\n        /* \"contracts/BuyStakeContract.sol\":6582:6608  IERC20(token).safeTransfer */\n      0xffffffffffffffffffffffffffffffffffffffff\n      and\n      tag_374\n      swap1\n        /* \"contracts/BuyStakeContract.sol\":6582:6625  IERC20(token).safeTransfer(msg.sender, amt) */\n      swap3\n      swap2\n      swap1\n      0xffffffff\n      and\n      jump\t// in\n    tag_373:\n        /* \"contracts/BuyStakeContract.sol\":6509:6632  function withdraw(address token, uint256 amt) public onlyOwner {... */\n      pop\n      pop\n      jump\t// out\n        /* \"contracts/BuyStakeContract.sol\":1977:2035  mapping(address => BuyerTokenDetails) public buyersDetails */\n    tag_163:\n      mstore(0x20, 0x0a)\n      dup1\n      0x00\n      mstore\n      keccak256(0x00, 0x40)\n      0x00\n      swap2\n      pop\n      swap1\n      pop\n      dup1\n      0x00\n      add\n      sload\n      swap1\n      dup1\n      0x01\n      add\n      0x00\n      swap1\n      sload\n      swap1\n      0x0100\n      exp\n      swap1\n      div\n      0xff\n      and\n      swap1\n      dup1\n      0x01\n      add\n      0x01\n      swap1\n      sload\n      swap1\n      0x0100\n      exp\n      swap1\n      div\n      0xff\n      and\n      swap1\n      dup1\n      0x02\n      add\n      sload\n      swap1\n      dup1\n      0x03\n      add\n      sload\n      swap1\n      pop\n      dup6\n      jump\t// out\n        /* \"contracts/BuyStakeContract.sol\":1640:1662  bool public saleStatus */\n    tag_168:\n      0x06\n      0x00\n      swap1\n      sload\n      swap1\n      0x0100\n      exp\n      swap1\n      div\n      0xff\n      and\n      dup2\n      jump\t// out\n        /* \"contracts/BuyStakeContract.sol\":6638:6790  function withdrawAll(address token) public onlyOwner {... */\n    tag_173:\n        /* \"@openzeppelin/contracts/access/Ownable.sol\":1531:1544  _checkOwner() */\n      tag_376\n        /* \"@openzeppelin/contracts/access/Ownable.sol\":1531:1542  _checkOwner */\n      tag_201\n        /* \"@openzeppelin/contracts/access/Ownable.sol\":1531:1544  _checkOwner() */\n      jump\t// in\n    tag_376:\n        /* \"contracts/BuyStakeContract.sol\":6701:6712  uint256 amt */\n      0x00\n        /* \"contracts/BuyStakeContract.sol\":6722:6727  token */\n      dup2\n        /* \"contracts/BuyStakeContract.sol\":6715:6738  IERC20(token).balanceOf */\n      0xffffffffffffffffffffffffffffffffffffffff\n      and\n      0x70a08231\n        /* \"contracts/BuyStakeContract.sol\":6747:6751  this */\n      address\n        /* \"contracts/BuyStakeContract.sol\":6715:6753  IERC20(token).balanceOf(address(this)) */\n      mload(0x40)\n      dup3\n      0xffffffff\n      and\n      0xe0\n      shl\n      dup2\n      mstore\n      0x04\n      add\n      tag_378\n      swap2\n      swap1\n      tag_123\n      jump\t// in\n    tag_378:\n      0x20\n      mload(0x40)\n      dup1\n      dup4\n      sub\n      dup2\n      dup7\n      gas\n      staticcall\n      iszero\n      dup1\n      iszero\n      tag_380\n      jumpi\n      returndatasize\n      0x00\n      dup1\n      returndatacopy\n      revert(0x00, returndatasize)\n    tag_380:\n      pop\n      pop\n      pop\n      pop\n      mload(0x40)\n      returndatasize\n      not(0x1f)\n      0x1f\n      dup3\n      add\n      and\n      dup3\n      add\n      dup1\n      0x40\n      mstore\n      pop\n      dup2\n      add\n      swap1\n      tag_381\n      swap2\n      swap1\n      tag_336\n      jump\t// in\n    tag_381:\n        /* \"contracts/BuyStakeContract.sol\":6701:6753  uint256 amt = IERC20(token).balanceOf(address(this)) */\n      swap1\n      pop\n        /* \"contracts/BuyStakeContract.sol\":6763:6783  withdraw(token, amt) */\n      tag_382\n        /* \"contracts/BuyStakeContract.sol\":6772:6777  token */\n      dup3\n        /* \"contracts/BuyStakeContract.sol\":6779:6782  amt */\n      dup3\n        /* \"contracts/BuyStakeContract.sol\":6763:6771  withdraw */\n      tag_159\n        /* \"contracts/BuyStakeContract.sol\":6763:6783  withdraw(token, amt) */\n      jump\t// in\n    tag_382:\n        /* \"contracts/BuyStakeContract.sol\":6691:6790  {... */\n      pop\n        /* \"contracts/BuyStakeContract.sol\":6638:6790  function withdrawAll(address token) public onlyOwner {... */\n      pop\n      jump\t// out\n        /* \"contracts/BuyStakeContract.sol\":10589:11034  function unlockTokenFor(address buyer) internal {... */\n    tag_198:\n        /* \"contracts/BuyStakeContract.sol\":10681:10682  0 */\n      0x00\n        /* \"contracts/BuyStakeContract.sol\":10651:10664  buyersDetails */\n      0x0a\n        /* \"contracts/BuyStakeContract.sol\":10651:10671  buyersDetails[buyer] */\n      0x00\n        /* \"contracts/BuyStakeContract.sol\":10665:10670  buyer */\n      dup4\n        /* \"contracts/BuyStakeContract.sol\":10651:10671  buyersDetails[buyer] */\n      0xffffffffffffffffffffffffffffffffffffffff\n      and\n      0xffffffffffffffffffffffffffffffffffffffff\n      and\n      dup2\n      mstore\n      0x20\n      add\n      swap1\n      dup2\n      mstore\n      0x20\n      add\n      0x00\n      keccak256\n        /* \"contracts/BuyStakeContract.sol\":10651:10678  buyersDetails[buyer].amount */\n      0x00\n      add\n      sload\n        /* \"contracts/BuyStakeContract.sol\":10651:10682  buyersDetails[buyer].amount > 0 */\n      gt\n        /* \"contracts/BuyStakeContract.sol\":10647:11028  if (buyersDetails[buyer].amount > 0) {... */\n      iszero\n      tag_384\n      jumpi\n        /* \"contracts/BuyStakeContract.sol\":10698:10723  uint256 tokensforWithdraw */\n      0x00\n        /* \"contracts/BuyStakeContract.sol\":10810:10831  getBuyerReward(buyer) */\n      tag_385\n        /* \"contracts/BuyStakeContract.sol\":10825:10830  buyer */\n      dup3\n        /* \"contracts/BuyStakeContract.sol\":10810:10824  getBuyerReward */\n      tag_117\n        /* \"contracts/BuyStakeContract.sol\":10810:10831  getBuyerReward(buyer) */\n      jump\t// in\n    tag_385:\n        /* \"contracts/BuyStakeContract.sol\":10768:10781  buyersDetails */\n      0x0a\n        /* \"contracts/BuyStakeContract.sol\":10768:10788  buyersDetails[buyer] */\n      0x00\n        /* \"contracts/BuyStakeContract.sol\":10782:10787  buyer */\n      dup5\n        /* \"contracts/BuyStakeContract.sol\":10768:10788  buyersDetails[buyer] */\n      0xffffffffffffffffffffffffffffffffffffffff\n      and\n      0xffffffffffffffffffffffffffffffffffffffff\n      and\n      dup2\n      mstore\n      0x20\n      add\n      swap1\n      dup2\n      mstore\n      0x20\n      add\n      0x00\n      keccak256\n        /* \"contracts/BuyStakeContract.sol\":10768:10795  buyersDetails[buyer].reward */\n      0x02\n      add\n      sload\n        /* \"contracts/BuyStakeContract.sol\":10726:10739  buyersDetails */\n      0x0a\n        /* \"contracts/BuyStakeContract.sol\":10726:10746  buyersDetails[buyer] */\n      0x00\n        /* \"contracts/BuyStakeContract.sol\":10740:10745  buyer */\n      dup6\n        /* \"contracts/BuyStakeContract.sol\":10726:10746  buyersDetails[buyer] */\n      0xffffffffffffffffffffffffffffffffffffffff\n      and\n      0xffffffffffffffffffffffffffffffffffffffff\n      and\n      dup2\n      mstore\n      0x20\n      add\n      swap1\n      dup2\n      mstore\n      0x20\n      add\n      0x00\n      keccak256\n        /* \"contracts/BuyStakeContract.sol\":10726:10753  buyersDetails[buyer].amount */\n      0x00\n      add\n      sload\n        /* \"contracts/BuyStakeContract.sol\":10726:10795  buyersDetails[buyer].amount +... */\n      tag_386\n      swap2\n      swap1\n      tag_232\n      jump\t// in\n    tag_386:\n        /* \"contracts/BuyStakeContract.sol\":10726:10831  buyersDetails[buyer].amount +... */\n      tag_387\n      swap2\n      swap1\n      tag_232\n      jump\t// in\n    tag_387:\n        /* \"contracts/BuyStakeContract.sol\":10698:10831  uint256 tokensforWithdraw = buyersDetails[buyer].amount +... */\n      swap1\n      pop\n        /* \"contracts/BuyStakeContract.sol\":10888:10889  0 */\n      0x00\n        /* \"contracts/BuyStakeContract.sol\":10858:10871  buyersDetails */\n      0x0a\n        /* \"contracts/BuyStakeContract.sol\":10858:10878  buyersDetails[buyer] */\n      0x00\n        /* \"contracts/BuyStakeContract.sol\":10872:10877  buyer */\n      dup5\n        /* \"contracts/BuyStakeContract.sol\":10858:10878  buyersDetails[buyer] */\n      0xffffffffffffffffffffffffffffffffffffffff\n      and\n      0xffffffffffffffffffffffffffffffffffffffff\n      and\n      dup2\n      mstore\n      0x20\n      add\n      swap1\n      dup2\n      mstore\n      0x20\n      add\n      0x00\n      keccak256\n        /* \"contracts/BuyStakeContract.sol\":10858:10885  buyersDetails[buyer].amount */\n      0x00\n      add\n        /* \"contracts/BuyStakeContract.sol\":10858:10889  buyersDetails[buyer].amount = 0 */\n      dup2\n      swap1\n      sstore\n      pop\n        /* \"contracts/BuyStakeContract.sol\":10933:10934  0 */\n      0x00\n        /* \"contracts/BuyStakeContract.sol\":10903:10916  buyersDetails */\n      0x0a\n        /* \"contracts/BuyStakeContract.sol\":10903:10923  buyersDetails[buyer] */\n      0x00\n        /* \"contracts/BuyStakeContract.sol\":10917:10922  buyer */\n      dup5\n        /* \"contracts/BuyStakeContract.sol\":10903:10923  buyersDetails[buyer] */\n      0xffffffffffffffffffffffffffffffffffffffff\n      and\n      0xffffffffffffffffffffffffffffffffffffffff\n      and\n      dup2\n      mstore\n      0x20\n      add\n      swap1\n      dup2\n      mstore\n      0x20\n      add\n      0x00\n      keccak256\n        /* \"contracts/BuyStakeContract.sol\":10903:10930  buyersDetails[buyer].reward */\n      0x02\n      add\n        /* \"contracts/BuyStakeContract.sol\":10903:10934  buyersDetails[buyer].reward = 0 */\n      dup2\n      swap1\n      sstore\n      pop\n        /* \"contracts/BuyStakeContract.sol\":10961:11017  IERC20(saleToken).safeTransfer(buyer, tokensforWithdraw) */\n      tag_388\n        /* \"contracts/BuyStakeContract.sol\":10992:10997  buyer */\n      dup3\n        /* \"contracts/BuyStakeContract.sol\":10999:11016  tokensforWithdraw */\n      dup3\n        /* \"contracts/BuyStakeContract.sol\":10968:10977  saleToken */\n      0x03\n      0x00\n      swap1\n      sload\n      swap1\n      0x0100\n      exp\n      swap1\n      div\n      0xffffffffffffffffffffffffffffffffffffffff\n      and\n        /* \"contracts/BuyStakeContract.sol\":10961:10991  IERC20(saleToken).safeTransfer */\n      0xffffffffffffffffffffffffffffffffffffffff\n      and\n      tag_374\n      swap1\n        /* \"contracts/BuyStakeContract.sol\":10961:11017  IERC20(saleToken).safeTransfer(buyer, tokensforWithdraw) */\n      swap3\n      swap2\n      swap1\n      0xffffffff\n      and\n      jump\t// in\n    tag_388:\n        /* \"contracts/BuyStakeContract.sol\":10684:11028  {... */\n      pop\n        /* \"contracts/BuyStakeContract.sol\":10647:11028  if (buyersDetails[buyer].amount > 0) {... */\n    tag_384:\n        /* \"contracts/BuyStakeContract.sol\":10589:11034  function unlockTokenFor(address buyer) internal {... */\n      pop\n      jump\t// out\n        /* \"@openzeppelin/contracts/access/Ownable.sol\":1796:1958  function _checkOwner() internal view virtual {... */\n    tag_201:\n        /* \"@openzeppelin/contracts/access/Ownable.sol\":1866:1878  _msgSender() */\n      tag_390\n        /* \"@openzeppelin/contracts/access/Ownable.sol\":1866:1876  _msgSender */\n      tag_391\n        /* \"@openzeppelin/contracts/access/Ownable.sol\":1866:1878  _msgSender() */\n      jump\t// in\n    tag_390:\n        /* \"@openzeppelin/contracts/access/Ownable.sol\":1855:1878  owner() != _msgSender() */\n      0xffffffffffffffffffffffffffffffffffffffff\n      and\n        /* \"@openzeppelin/contracts/access/Ownable.sol\":1855:1862  owner() */\n      tag_392\n        /* \"@openzeppelin/contracts/access/Ownable.sol\":1855:1860  owner */\n      tag_121\n        /* \"@openzeppelin/contracts/access/Ownable.sol\":1855:1862  owner() */\n      jump\t// in\n    tag_392:\n        /* \"@openzeppelin/contracts/access/Ownable.sol\":1855:1878  owner() != _msgSender() */\n      0xffffffffffffffffffffffffffffffffffffffff\n      and\n      eq\n        /* \"@openzeppelin/contracts/access/Ownable.sol\":1851:1952  if (owner() != _msgSender()) {... */\n      tag_393\n      jumpi\n        /* \"@openzeppelin/contracts/access/Ownable.sol\":1928:1940  _msgSender() */\n      tag_394\n        /* \"@openzeppelin/contracts/access/Ownable.sol\":1928:1938  _msgSender */\n      tag_391\n        /* \"@openzeppelin/contracts/access/Ownable.sol\":1928:1940  _msgSender() */\n      jump\t// in\n    tag_394:\n        /* \"@openzeppelin/contracts/access/Ownable.sol\":1901:1941  OwnableUnauthorizedAccount(_msgSender()) */\n      mload(0x40)\n      0x118cdaa700000000000000000000000000000000000000000000000000000000\n      dup2\n      mstore\n      0x04\n      add\n      tag_395\n      swap2\n      swap1\n      tag_123\n      jump\t// in\n    tag_395:\n      mload(0x40)\n      dup1\n      swap2\n      sub\n      swap1\n      revert\n        /* \"@openzeppelin/contracts/access/Ownable.sol\":1851:1952  if (owner() != _msgSender()) {... */\n    tag_393:\n        /* \"@openzeppelin/contracts/access/Ownable.sol\":1796:1958  function _checkOwner() internal view virtual {... */\n      jump\t// out\n        /* \"contracts/BuyStakeContract.sol\":10065:10395  function updateRewards() internal {... */\n    tag_279:\n        /* \"contracts/BuyStakeContract.sol\":10114:10123  uint256 i */\n      0x00\n        /* \"contracts/BuyStakeContract.sol\":10109:10389  for (uint256 i = 0; i < buyers.length; i++) {... */\n    tag_397:\n        /* \"contracts/BuyStakeContract.sol\":10133:10139  buyers */\n      0x07\n        /* \"contracts/BuyStakeContract.sol\":10133:10146  buyers.length */\n      dup1\n      sload\n      swap1\n      pop\n        /* \"contracts/BuyStakeContract.sol\":10129:10130  i */\n      dup2\n        /* \"contracts/BuyStakeContract.sol\":10129:10146  i < buyers.length */\n      lt\n        /* \"contracts/BuyStakeContract.sol\":10109:10389  for (uint256 i = 0; i < buyers.length; i++) {... */\n      iszero\n      tag_398\n      jumpi\n        /* \"contracts/BuyStakeContract.sol\":10205:10206  0 */\n      0x00\n        /* \"contracts/BuyStakeContract.sol\":10171:10184  buyersDetails */\n      0x0a\n        /* \"contracts/BuyStakeContract.sol\":10171:10195  buyersDetails[buyers[i]] */\n      0x00\n        /* \"contracts/BuyStakeContract.sol\":10185:10191  buyers */\n      0x07\n        /* \"contracts/BuyStakeContract.sol\":10192:10193  i */\n      dup5\n        /* \"contracts/BuyStakeContract.sol\":10185:10194  buyers[i] */\n      dup2\n      sload\n      dup2\n      lt\n      tag_400\n      jumpi\n      tag_401\n      tag_218\n      jump\t// in\n    tag_401:\n    tag_400:\n      swap1\n      0x00\n      mstore\n      keccak256(0x00, 0x20)\n      add\n      0x00\n      swap1\n      sload\n      swap1\n      0x0100\n      exp\n      swap1\n      div\n      0xffffffffffffffffffffffffffffffffffffffff\n      and\n        /* \"contracts/BuyStakeContract.sol\":10171:10195  buyersDetails[buyers[i]] */\n      0xffffffffffffffffffffffffffffffffffffffff\n      and\n      0xffffffffffffffffffffffffffffffffffffffff\n      and\n      dup2\n      mstore\n      0x20\n      add\n      swap1\n      dup2\n      mstore\n      0x20\n      add\n      0x00\n      keccak256\n        /* \"contracts/BuyStakeContract.sol\":10171:10202  buyersDetails[buyers[i]].amount */\n      0x00\n      add\n      sload\n        /* \"contracts/BuyStakeContract.sol\":10171:10206  buyersDetails[buyers[i]].amount > 0 */\n      gt\n        /* \"contracts/BuyStakeContract.sol\":10167:10379  if (buyersDetails[buyers[i]].amount > 0) {... */\n      iszero\n      tag_403\n      jumpi\n        /* \"contracts/BuyStakeContract.sol\":10260:10285  getBuyerReward(buyers[i]) */\n      tag_404\n        /* \"contracts/BuyStakeContract.sol\":10275:10281  buyers */\n      0x07\n        /* \"contracts/BuyStakeContract.sol\":10282:10283  i */\n      dup3\n        /* \"contracts/BuyStakeContract.sol\":10275:10284  buyers[i] */\n      dup2\n      sload\n      dup2\n      lt\n      tag_405\n      jumpi\n      tag_406\n      tag_218\n      jump\t// in\n    tag_406:\n    tag_405:\n      swap1\n      0x00\n      mstore\n      keccak256(0x00, 0x20)\n      add\n      0x00\n      swap1\n      sload\n      swap1\n      0x0100\n      exp\n      swap1\n      div\n      0xffffffffffffffffffffffffffffffffffffffff\n      and\n        /* \"contracts/BuyStakeContract.sol\":10260:10274  getBuyerReward */\n      tag_117\n        /* \"contracts/BuyStakeContract.sol\":10260:10285  getBuyerReward(buyers[i]) */\n      jump\t// in\n    tag_404:\n        /* \"contracts/BuyStakeContract.sol\":10226:10239  buyersDetails */\n      0x0a\n        /* \"contracts/BuyStakeContract.sol\":10226:10250  buyersDetails[buyers[i]] */\n      0x00\n        /* \"contracts/BuyStakeContract.sol\":10240:10246  buyers */\n      0x07\n        /* \"contracts/BuyStakeContract.sol\":10247:10248  i */\n      dup5\n        /* \"contracts/BuyStakeContract.sol\":10240:10249  buyers[i] */\n      dup2\n      sload\n      dup2\n      lt\n      tag_408\n      jumpi\n      tag_409\n      tag_218\n      jump\t// in\n    tag_409:\n    tag_408:\n      swap1\n      0x00\n      mstore\n      keccak256(0x00, 0x20)\n      add\n      0x00\n      swap1\n      sload\n      swap1\n      0x0100\n      exp\n      swap1\n      div\n      0xffffffffffffffffffffffffffffffffffffffff\n      and\n        /* \"contracts/BuyStakeContract.sol\":10226:10250  buyersDetails[buyers[i]] */\n      0xffffffffffffffffffffffffffffffffffffffff\n      and\n      0xffffffffffffffffffffffffffffffffffffffff\n      and\n      dup2\n      mstore\n      0x20\n      add\n      swap1\n      dup2\n      mstore\n      0x20\n      add\n      0x00\n      keccak256\n        /* \"contracts/BuyStakeContract.sol\":10226:10257  buyersDetails[buyers[i]].reward */\n      0x02\n      add\n        /* \"contracts/BuyStakeContract.sol\":10226:10285  buyersDetails[buyers[i]].reward = getBuyerReward(buyers[i]) */\n      dup2\n      swap1\n      sstore\n      pop\n        /* \"contracts/BuyStakeContract.sol\":10349:10364  block.timestamp */\n      timestamp\n        /* \"contracts/BuyStakeContract.sol\":10303:10316  buyersDetails */\n      0x0a\n        /* \"contracts/BuyStakeContract.sol\":10303:10327  buyersDetails[buyers[i]] */\n      0x00\n        /* \"contracts/BuyStakeContract.sol\":10317:10323  buyers */\n      0x07\n        /* \"contracts/BuyStakeContract.sol\":10324:10325  i */\n      dup5\n        /* \"contracts/BuyStakeContract.sol\":10317:10326  buyers[i] */\n      dup2\n      sload\n      dup2\n      lt\n      tag_411\n      jumpi\n      tag_412\n      tag_218\n      jump\t// in\n    tag_412:\n    tag_411:\n      swap1\n      0x00\n      mstore\n      keccak256(0x00, 0x20)\n      add\n      0x00\n      swap1\n      sload\n      swap1\n      0x0100\n      exp\n      swap1\n      div\n      0xffffffffffffffffffffffffffffffffffffffff\n      and\n        /* \"contracts/BuyStakeContract.sol\":10303:10327  buyersDetails[buyers[i]] */\n      0xffffffffffffffffffffffffffffffffffffffff\n      and\n      0xffffffffffffffffffffffffffffffffffffffff\n      and\n      dup2\n      mstore\n      0x20\n      add\n      swap1\n      dup2\n      mstore\n      0x20\n      add\n      0x00\n      keccak256\n        /* \"contracts/BuyStakeContract.sol\":10303:10346  buyersDetails[buyers[i]].lastCalculatedTime */\n      0x03\n      add\n        /* \"contracts/BuyStakeContract.sol\":10303:10364  buyersDetails[buyers[i]].lastCalculatedTime = block.timestamp */\n      dup2\n      swap1\n      sstore\n      pop\n        /* \"contracts/BuyStakeContract.sol\":10167:10379  if (buyersDetails[buyers[i]].amount > 0) {... */\n    tag_403:\n        /* \"contracts/BuyStakeContract.sol\":10148:10151  i++ */\n      dup1\n      dup1\n      tag_414\n      swap1\n      tag_260\n      jump\t// in\n    tag_414:\n      swap2\n      pop\n      pop\n        /* \"contracts/BuyStakeContract.sol\":10109:10389  for (uint256 i = 0; i < buyers.length; i++) {... */\n      jump(tag_397)\n    tag_398:\n      pop\n        /* \"contracts/BuyStakeContract.sol\":10065:10395  function updateRewards() internal {... */\n      jump\t// out\n        /* \"@openzeppelin/contracts/token/ERC20/utils/SafeERC20.sol\":1618:1806  function safeTransferFrom(IERC20 token, address from, address to, uint256 value) internal {... */\n    tag_299:\n        /* \"@openzeppelin/contracts/token/ERC20/utils/SafeERC20.sol\":1718:1799  _callOptionalReturn(token, abi.encodeCall(token.transferFrom, (from, to, value))) */\n      tag_416\n        /* \"@openzeppelin/contracts/token/ERC20/utils/SafeERC20.sol\":1738:1743  token */\n      dup5\n        /* \"@openzeppelin/contracts/token/ERC20/utils/SafeERC20.sol\":1760:1765  token */\n      dup6\n        /* \"@openzeppelin/contracts/token/ERC20/utils/SafeERC20.sol\":1760:1778  token.transferFrom */\n      0xffffffffffffffffffffffffffffffffffffffff\n      and\n      0x23b872dd\n        /* \"@openzeppelin/contracts/token/ERC20/utils/SafeERC20.sol\":1781:1785  from */\n      dup7\n        /* \"@openzeppelin/contracts/token/ERC20/utils/SafeERC20.sol\":1787:1789  to */\n      dup7\n        /* \"@openzeppelin/contracts/token/ERC20/utils/SafeERC20.sol\":1791:1796  value */\n      dup7\n        /* \"@openzeppelin/contracts/token/ERC20/utils/SafeERC20.sol\":1745:1798  abi.encodeCall(token.transferFrom, (from, to, value)) */\n      add(0x24, mload(0x40))\n      tag_417\n      swap4\n      swap3\n      swap2\n      swap1\n      tag_418\n      jump\t// in\n    tag_417:\n      mload(0x40)\n      0x20\n      dup2\n      dup4\n      sub\n      sub\n      dup2\n      mstore\n      swap1\n      0x40\n      mstore\n      swap2\n      pop\n      0xe0\n      shl\n      0x20\n      dup3\n      add\n      dup1\n      mload\n      0xffffffffffffffffffffffffffffffffffffffffffffffffffffffff\n      dup4\n      dup2\n      dup4\n      and\n      or\n      dup4\n      mstore\n      pop\n      pop\n      pop\n      pop\n        /* \"@openzeppelin/contracts/token/ERC20/utils/SafeERC20.sol\":1718:1737  _callOptionalReturn */\n      tag_419\n        /* \"@openzeppelin/contracts/token/ERC20/utils/SafeERC20.sol\":1718:1799  _callOptionalReturn(token, abi.encodeCall(token.transferFrom, (from, to, value))) */\n      jump\t// in\n    tag_416:\n        /* \"@openzeppelin/contracts/token/ERC20/utils/SafeERC20.sol\":1618:1806  function safeTransferFrom(IERC20 token, address from, address to, uint256 value) internal {... */\n      pop\n      pop\n      pop\n      pop\n      jump\t// out\n        /* \"@openzeppelin/contracts/access/Ownable.sol\":2912:3099  function _transferOwnership(address newOwner) internal virtual {... */\n    tag_316:\n        /* \"@openzeppelin/contracts/access/Ownable.sol\":2985:3001  address oldOwner */\n      0x00\n        /* \"@openzeppelin/contracts/access/Ownable.sol\":3004:3010  _owner */\n      dup1\n      0x00\n      swap1\n      sload\n      swap1\n      0x0100\n      exp\n      swap1\n      div\n      0xffffffffffffffffffffffffffffffffffffffff\n      and\n        /* \"@openzeppelin/contracts/access/Ownable.sol\":2985:3010  address oldOwner = _owner */\n      swap1\n      pop\n        /* \"@openzeppelin/contracts/access/Ownable.sol\":3029:3037  newOwner */\n      dup2\n        /* \"@openzeppelin/contracts/access/Ownable.sol\":3020:3026  _owner */\n      0x00\n      dup1\n        /* \"@openzeppelin/contracts/access/Ownable.sol\":3020:3037  _owner = newOwner */\n      0x0100\n      exp\n      dup2\n      sload\n      dup2\n      0xffffffffffffffffffffffffffffffffffffffff\n      mul\n      not\n      and\n      swap1\n      dup4\n      0xffffffffffffffffffffffffffffffffffffffff\n      and\n      mul\n      or\n      swap1\n      sstore\n      pop\n        /* \"@openzeppelin/contracts/access/Ownable.sol\":3083:3091  newOwner */\n      dup2\n        /* \"@openzeppelin/contracts/access/Ownable.sol\":3052:3092  OwnershipTransferred(oldOwner, newOwner) */\n      0xffffffffffffffffffffffffffffffffffffffff\n      and\n        /* \"@openzeppelin/contracts/access/Ownable.sol\":3073:3081  oldOwner */\n      dup2\n        /* \"@openzeppelin/contracts/access/Ownable.sol\":3052:3092  OwnershipTransferred(oldOwner, newOwner) */\n      0xffffffffffffffffffffffffffffffffffffffff\n      and\n      0x8be0079c531659141344cd1fd0a4f28419497f9722a3daafe3b4186f6b6457e0\n      mload(0x40)\n      mload(0x40)\n      dup1\n      swap2\n      sub\n      swap1\n      log3\n        /* \"@openzeppelin/contracts/access/Ownable.sol\":2975:3099  {... */\n      pop\n        /* \"@openzeppelin/contracts/access/Ownable.sol\":2912:3099  function _transferOwnership(address newOwner) internal virtual {... */\n      pop\n      jump\t// out\n        /* \"@openzeppelin/contracts/token/ERC20/utils/SafeERC20.sol\":1219:1379  function safeTransfer(IERC20 token, address to, uint256 value) internal {... */\n    tag_374:\n        /* \"@openzeppelin/contracts/token/ERC20/utils/SafeERC20.sol\":1301:1372  _callOptionalReturn(token, abi.encodeCall(token.transfer, (to, value))) */\n      tag_422\n        /* \"@openzeppelin/contracts/token/ERC20/utils/SafeERC20.sol\":1321:1326  token */\n      dup4\n        /* \"@openzeppelin/contracts/token/ERC20/utils/SafeERC20.sol\":1343:1348  token */\n      dup5\n        /* \"@openzeppelin/contracts/token/ERC20/utils/SafeERC20.sol\":1343:1357  token.transfer */\n      0xffffffffffffffffffffffffffffffffffffffff\n      and\n      0xa9059cbb\n        /* \"@openzeppelin/contracts/token/ERC20/utils/SafeERC20.sol\":1360:1362  to */\n      dup6\n        /* \"@openzeppelin/contracts/token/ERC20/utils/SafeERC20.sol\":1364:1369  value */\n      dup6\n        /* \"@openzeppelin/contracts/token/ERC20/utils/SafeERC20.sol\":1328:1371  abi.encodeCall(token.transfer, (to, value)) */\n      add(0x24, mload(0x40))\n      tag_423\n      swap3\n      swap2\n      swap1\n      tag_338\n      jump\t// in\n    tag_423:\n      mload(0x40)\n      0x20\n      dup2\n      dup4\n      sub\n      sub\n      dup2\n      mstore\n      swap1\n      0x40\n      mstore\n      swap2\n      pop\n      0xe0\n      shl\n      0x20\n      dup3\n      add\n      dup1\n      mload\n      0xffffffffffffffffffffffffffffffffffffffffffffffffffffffff\n      dup4\n      dup2\n      dup4\n      and\n      or\n      dup4\n      mstore\n      pop\n      pop\n      pop\n      pop\n        /* \"@openzeppelin/contracts/token/ERC20/utils/SafeERC20.sol\":1301:1320  _callOptionalReturn */\n      tag_419\n        /* \"@openzeppelin/contracts/token/ERC20/utils/SafeERC20.sol\":1301:1372  _callOptionalReturn(token, abi.encodeCall(token.transfer, (to, value))) */\n      jump\t// in\n    tag_422:\n        /* \"@openzeppelin/contracts/token/ERC20/utils/SafeERC20.sol\":1219:1379  function safeTransfer(IERC20 token, address to, uint256 value) internal {... */\n      pop\n      pop\n      pop\n      jump\t// out\n        /* \"@openzeppelin/contracts/utils/Context.sol\":656:752  function _msgSender() internal view virtual returns (address) {... */\n    tag_391:\n        /* \"@openzeppelin/contracts/utils/Context.sol\":709:716  address */\n      0x00\n        /* \"@openzeppelin/contracts/utils/Context.sol\":735:745  msg.sender */\n      caller\n        /* \"@openzeppelin/contracts/utils/Context.sol\":728:745  return msg.sender */\n      swap1\n      pop\n        /* \"@openzeppelin/contracts/utils/Context.sol\":656:752  function _msgSender() internal view virtual returns (address) {... */\n      swap1\n      jump\t// out\n        /* \"@openzeppelin/contracts/token/ERC20/utils/SafeERC20.sol\":8370:9090  function _callOptionalReturn(IERC20 token, bytes memory data) private {... */\n    tag_419:\n        /* \"@openzeppelin/contracts/token/ERC20/utils/SafeERC20.sol\":8450:8468  uint256 returnSize */\n      0x00\n        /* \"@openzeppelin/contracts/token/ERC20/utils/SafeERC20.sol\":8478:8497  uint256 returnValue */\n      dup1\n        /* \"@openzeppelin/contracts/token/ERC20/utils/SafeERC20.sol\":8616:8620  0x20 */\n      0x20\n        /* \"@openzeppelin/contracts/token/ERC20/utils/SafeERC20.sol\":8613:8614  0 */\n      0x00\n        /* \"@openzeppelin/contracts/token/ERC20/utils/SafeERC20.sol\":8606:8610  data */\n      dup5\n        /* \"@openzeppelin/contracts/token/ERC20/utils/SafeERC20.sol\":8600:8611  mload(data) */\n      mload\n        /* \"@openzeppelin/contracts/token/ERC20/utils/SafeERC20.sol\":8593:8597  0x20 */\n      0x20\n        /* \"@openzeppelin/contracts/token/ERC20/utils/SafeERC20.sol\":8587:8591  data */\n      dup7\n        /* \"@openzeppelin/contracts/token/ERC20/utils/SafeERC20.sol\":8583:8598  add(data, 0x20) */\n      add\n        /* \"@openzeppelin/contracts/token/ERC20/utils/SafeERC20.sol\":8580:8581  0 */\n      0x00\n        /* \"@openzeppelin/contracts/token/ERC20/utils/SafeERC20.sol\":8573:8578  token */\n      dup9\n        /* \"@openzeppelin/contracts/token/ERC20/utils/SafeERC20.sol\":8566:8571  gas() */\n      gas\n        /* \"@openzeppelin/contracts/token/ERC20/utils/SafeERC20.sol\":8561:8621  call(gas(), token, 0, add(data, 0x20), mload(data), 0, 0x20) */\n      call\n        /* \"@openzeppelin/contracts/token/ERC20/utils/SafeERC20.sol\":8673:8680  success */\n      dup1\n        /* \"@openzeppelin/contracts/token/ERC20/utils/SafeERC20.sol\":8663:8839  if iszero(success) {... */\n      tag_426\n      jumpi\n        /* \"@openzeppelin/contracts/token/ERC20/utils/SafeERC20.sol\":8717:8721  0x40 */\n      0x40\n        /* \"@openzeppelin/contracts/token/ERC20/utils/SafeERC20.sol\":8711:8722  mload(0x40) */\n      mload\n        /* \"@openzeppelin/contracts/token/ERC20/utils/SafeERC20.sol\":8762:8778  returndatasize() */\n      returndatasize\n        /* \"@openzeppelin/contracts/token/ERC20/utils/SafeERC20.sol\":8759:8760  0 */\n      0x00\n        /* \"@openzeppelin/contracts/token/ERC20/utils/SafeERC20.sol\":8754:8757  ptr */\n      dup3\n        /* \"@openzeppelin/contracts/token/ERC20/utils/SafeERC20.sol\":8739:8779  returndatacopy(ptr, 0, returndatasize()) */\n      returndatacopy\n        /* \"@openzeppelin/contracts/token/ERC20/utils/SafeERC20.sol\":8808:8824  returndatasize() */\n      returndatasize\n        /* \"@openzeppelin/contracts/token/ERC20/utils/SafeERC20.sol\":8803:8806  ptr */\n      dup2\n        /* \"@openzeppelin/contracts/token/ERC20/utils/SafeERC20.sol\":8796:8825  revert(ptr, returndatasize()) */\n      revert\n        /* \"@openzeppelin/contracts/token/ERC20/utils/SafeERC20.sol\":8663:8839  if iszero(success) {... */\n    tag_426:\n        /* \"@openzeppelin/contracts/token/ERC20/utils/SafeERC20.sol\":8866:8882  returndatasize() */\n      returndatasize\n        /* \"@openzeppelin/contracts/token/ERC20/utils/SafeERC20.sol\":8852:8882  returnSize := returndatasize() */\n      swap3\n      pop\n        /* \"@openzeppelin/contracts/token/ERC20/utils/SafeERC20.sol\":8916:8917  0 */\n      0x00\n        /* \"@openzeppelin/contracts/token/ERC20/utils/SafeERC20.sol\":8910:8918  mload(0) */\n      mload\n        /* \"@openzeppelin/contracts/token/ERC20/utils/SafeERC20.sol\":8895:8918  returnValue := mload(0) */\n      swap2\n      pop\n        /* \"@openzeppelin/contracts/token/ERC20/utils/SafeERC20.sol\":8532:8928  {... */\n      pop\n        /* \"@openzeppelin/contracts/token/ERC20/utils/SafeERC20.sol\":8956:8957  0 */\n      0x00\n        /* \"@openzeppelin/contracts/token/ERC20/utils/SafeERC20.sol\":8942:8952  returnSize */\n      dup3\n        /* \"@openzeppelin/contracts/token/ERC20/utils/SafeERC20.sol\":8942:8957  returnSize == 0 */\n      eq\n        /* \"@openzeppelin/contracts/token/ERC20/utils/SafeERC20.sol\":8942:9010  returnSize == 0 ? address(token).code.length == 0 : returnValue != 1 */\n      tag_427\n      jumpi\n        /* \"@openzeppelin/contracts/token/ERC20/utils/SafeERC20.sol\":9009:9010  1 */\n      0x01\n        /* \"@openzeppelin/contracts/token/ERC20/utils/SafeERC20.sol\":8994:9005  returnValue */\n      dup2\n        /* \"@openzeppelin/contracts/token/ERC20/utils/SafeERC20.sol\":8994:9010  returnValue != 1 */\n      eq\n      iszero\n        /* \"@openzeppelin/contracts/token/ERC20/utils/SafeERC20.sol\":8942:9010  returnSize == 0 ? address(token).code.length == 0 : returnValue != 1 */\n      jump(tag_428)\n    tag_427:\n        /* \"@openzeppelin/contracts/token/ERC20/utils/SafeERC20.sol\":8990:8991  0 */\n      0x00\n        /* \"@openzeppelin/contracts/token/ERC20/utils/SafeERC20.sol\":8968:8973  token */\n      dup5\n        /* \"@openzeppelin/contracts/token/ERC20/utils/SafeERC20.sol\":8960:8986  address(token).code.length */\n      0xffffffffffffffffffffffffffffffffffffffff\n      and\n      extcodesize\n        /* \"@openzeppelin/contracts/token/ERC20/utils/SafeERC20.sol\":8960:8991  address(token).code.length == 0 */\n      eq\n        /* \"@openzeppelin/contracts/token/ERC20/utils/SafeERC20.sol\":8942:9010  returnSize == 0 ? address(token).code.length == 0 : returnValue != 1 */\n    tag_428:\n        /* \"@openzeppelin/contracts/token/ERC20/utils/SafeERC20.sol\":8938:9084  if (returnSize == 0 ? address(token).code.length == 0 : returnValue != 1) {... */\n      iszero\n      tag_429\n      jumpi\n        /* \"@openzeppelin/contracts/token/ERC20/utils/SafeERC20.sol\":9066:9071  token */\n      dup4\n        /* \"@openzeppelin/contracts/token/ERC20/utils/SafeERC20.sol\":9033:9073  SafeERC20FailedOperation(address(token)) */\n      mload(0x40)\n      0x5274afe700000000000000000000000000000000000000000000000000000000\n      dup2\n      mstore\n      0x04\n      add\n      tag_430\n      swap2\n      swap1\n      tag_123\n      jump\t// in\n    tag_430:\n      mload(0x40)\n      dup1\n      swap2\n      sub\n      swap1\n      revert\n        /* \"@openzeppelin/contracts/token/ERC20/utils/SafeERC20.sol\":8938:9084  if (returnSize == 0 ? address(token).code.length == 0 : returnValue != 1) {... */\n    tag_429:\n        /* \"@openzeppelin/contracts/token/ERC20/utils/SafeERC20.sol\":8440:9090  {... */\n      pop\n      pop\n        /* \"@openzeppelin/contracts/token/ERC20/utils/SafeERC20.sol\":8370:9090  function _callOptionalReturn(IERC20 token, bytes memory data) private {... */\n      pop\n      pop\n      jump\t// out\n        /* \"#utility.yul\":7:82   */\n    tag_431:\n        /* \"#utility.yul\":40:46   */\n      0x00\n        /* \"#utility.yul\":73:75   */\n      0x40\n        /* \"#utility.yul\":67:76   */\n      mload\n        /* \"#utility.yul\":57:76   */\n      swap1\n      pop\n        /* \"#utility.yul\":7:82   */\n      swap1\n      jump\t// out\n        /* \"#utility.yul\":88:205   */\n    tag_432:\n        /* \"#utility.yul\":197:198   */\n      0x00\n        /* \"#utility.yul\":194:195   */\n      dup1\n        /* \"#utility.yul\":187:199   */\n      revert\n        /* \"#utility.yul\":211:328   */\n    tag_433:\n        /* \"#utility.yul\":320:321   */\n      0x00\n        /* \"#utility.yul\":317:318   */\n      dup1\n        /* \"#utility.yul\":310:322   */\n      revert\n        /* \"#utility.yul\":334:460   */\n    tag_434:\n        /* \"#utility.yul\":371:378   */\n      0x00\n        /* \"#utility.yul\":411:453   */\n      0xffffffffffffffffffffffffffffffffffffffff\n        /* \"#utility.yul\":404:409   */\n      dup3\n        /* \"#utility.yul\":400:454   */\n      and\n        /* \"#utility.yul\":389:454   */\n      swap1\n      pop\n        /* \"#utility.yul\":334:460   */\n      swap2\n      swap1\n      pop\n      jump\t// out\n        /* \"#utility.yul\":466:562   */\n    tag_435:\n        /* \"#utility.yul\":503:510   */\n      0x00\n        /* \"#utility.yul\":532:556   */\n      tag_498\n        /* \"#utility.yul\":550:555   */\n      dup3\n        /* \"#utility.yul\":532:556   */\n      tag_434\n      jump\t// in\n    tag_498:\n        /* \"#utility.yul\":521:556   */\n      swap1\n      pop\n        /* \"#utility.yul\":466:562   */\n      swap2\n      swap1\n      pop\n      jump\t// out\n        /* \"#utility.yul\":568:690   */\n    tag_436:\n        /* \"#utility.yul\":641:665   */\n      tag_500\n        /* \"#utility.yul\":659:664   */\n      dup2\n        /* \"#utility.yul\":641:665   */\n      tag_435\n      jump\t// in\n    tag_500:\n        /* \"#utility.yul\":634:639   */\n      dup2\n        /* \"#utility.yul\":631:666   */\n      eq\n        /* \"#utility.yul\":621:684   */\n      tag_501\n      jumpi\n        /* \"#utility.yul\":680:681   */\n      0x00\n        /* \"#utility.yul\":677:678   */\n      dup1\n        /* \"#utility.yul\":670:682   */\n      revert\n        /* \"#utility.yul\":621:684   */\n    tag_501:\n        /* \"#utility.yul\":568:690   */\n      pop\n      jump\t// out\n        /* \"#utility.yul\":696:835   */\n    tag_437:\n        /* \"#utility.yul\":742:747   */\n      0x00\n        /* \"#utility.yul\":780:786   */\n      dup2\n        /* \"#utility.yul\":767:787   */\n      calldataload\n        /* \"#utility.yul\":758:787   */\n      swap1\n      pop\n        /* \"#utility.yul\":796:829   */\n      tag_503\n        /* \"#utility.yul\":823:828   */\n      dup2\n        /* \"#utility.yul\":796:829   */\n      tag_436\n      jump\t// in\n    tag_503:\n        /* \"#utility.yul\":696:835   */\n      swap3\n      swap2\n      pop\n      pop\n      jump\t// out\n        /* \"#utility.yul\":841:918   */\n    tag_438:\n        /* \"#utility.yul\":878:885   */\n      0x00\n        /* \"#utility.yul\":907:912   */\n      dup2\n        /* \"#utility.yul\":896:912   */\n      swap1\n      pop\n        /* \"#utility.yul\":841:918   */\n      swap2\n      swap1\n      pop\n      jump\t// out\n        /* \"#utility.yul\":924:1046   */\n    tag_439:\n        /* \"#utility.yul\":997:1021   */\n      tag_506\n        /* \"#utility.yul\":1015:1020   */\n      dup2\n        /* \"#utility.yul\":997:1021   */\n      tag_438\n      jump\t// in\n    tag_506:\n        /* \"#utility.yul\":990:995   */\n      dup2\n        /* \"#utility.yul\":987:1022   */\n      eq\n        /* \"#utility.yul\":977:1040   */\n      tag_507\n      jumpi\n        /* \"#utility.yul\":1036:1037   */\n      0x00\n        /* \"#utility.yul\":1033:1034   */\n      dup1\n        /* \"#utility.yul\":1026:1038   */\n      revert\n        /* \"#utility.yul\":977:1040   */\n    tag_507:\n        /* \"#utility.yul\":924:1046   */\n      pop\n      jump\t// out\n        /* \"#utility.yul\":1052:1191   */\n    tag_440:\n        /* \"#utility.yul\":1098:1103   */\n      0x00\n        /* \"#utility.yul\":1136:1142   */\n      dup2\n        /* \"#utility.yul\":1123:1143   */\n      calldataload\n        /* \"#utility.yul\":1114:1143   */\n      swap1\n      pop\n        /* \"#utility.yul\":1152:1185   */\n      tag_509\n        /* \"#utility.yul\":1179:1184   */\n      dup2\n        /* \"#utility.yul\":1152:1185   */\n      tag_439\n      jump\t// in\n    tag_509:\n        /* \"#utility.yul\":1052:1191   */\n      swap3\n      swap2\n      pop\n      pop\n      jump\t// out\n        /* \"#utility.yul\":1197:1671   */\n    tag_43:\n        /* \"#utility.yul\":1265:1271   */\n      0x00\n        /* \"#utility.yul\":1273:1279   */\n      dup1\n        /* \"#utility.yul\":1322:1324   */\n      0x40\n        /* \"#utility.yul\":1310:1319   */\n      dup4\n        /* \"#utility.yul\":1301:1308   */\n      dup6\n        /* \"#utility.yul\":1297:1320   */\n      sub\n        /* \"#utility.yul\":1293:1325   */\n      slt\n        /* \"#utility.yul\":1290:1409   */\n      iszero\n      tag_511\n      jumpi\n        /* \"#utility.yul\":1328:1407   */\n      tag_512\n      tag_432\n      jump\t// in\n    tag_512:\n        /* \"#utility.yul\":1290:1409   */\n    tag_511:\n        /* \"#utility.yul\":1448:1449   */\n      0x00\n        /* \"#utility.yul\":1473:1526   */\n      tag_513\n        /* \"#utility.yul\":1518:1525   */\n      dup6\n        /* \"#utility.yul\":1509:1515   */\n      dup3\n        /* \"#utility.yul\":1498:1507   */\n      dup7\n        /* \"#utility.yul\":1494:1516   */\n      add\n        /* \"#utility.yul\":1473:1526   */\n      tag_437\n      jump\t// in\n    tag_513:\n        /* \"#utility.yul\":1463:1526   */\n      swap3\n      pop\n        /* \"#utility.yul\":1419:1536   */\n      pop\n        /* \"#utility.yul\":1575:1577   */\n      0x20\n        /* \"#utility.yul\":1601:1654   */\n      tag_514\n        /* \"#utility.yul\":1646:1653   */\n      dup6\n        /* \"#utility.yul\":1637:1643   */\n      dup3\n        /* \"#utility.yul\":1626:1635   */\n      dup7\n        /* \"#utility.yul\":1622:1644   */\n      add\n        /* \"#utility.yul\":1601:1654   */\n      tag_440\n      jump\t// in\n    tag_514:\n        /* \"#utility.yul\":1591:1654   */\n      swap2\n      pop\n        /* \"#utility.yul\":1546:1664   */\n      pop\n        /* \"#utility.yul\":1197:1671   */\n      swap3\n      pop\n      swap3\n      swap1\n      pop\n      jump\t// out\n        /* \"#utility.yul\":1677:1795   */\n    tag_441:\n        /* \"#utility.yul\":1764:1788   */\n      tag_516\n        /* \"#utility.yul\":1782:1787   */\n      dup2\n        /* \"#utility.yul\":1764:1788   */\n      tag_438\n      jump\t// in\n    tag_516:\n        /* \"#utility.yul\":1759:1762   */\n      dup3\n        /* \"#utility.yul\":1752:1789   */\n      mstore\n        /* \"#utility.yul\":1677:1795   */\n      pop\n      pop\n      jump\t// out\n        /* \"#utility.yul\":1801:2023   */\n    tag_46:\n        /* \"#utility.yul\":1894:1898   */\n      0x00\n        /* \"#utility.yul\":1932:1934   */\n      0x20\n        /* \"#utility.yul\":1921:1930   */\n      dup3\n        /* \"#utility.yul\":1917:1935   */\n      add\n        /* \"#utility.yul\":1909:1935   */\n      swap1\n      pop\n        /* \"#utility.yul\":1945:2016   */\n      tag_518\n        /* \"#utility.yul\":2013:2014   */\n      0x00\n        /* \"#utility.yul\":2002:2011   */\n      dup4\n        /* \"#utility.yul\":1998:2015   */\n      add\n        /* \"#utility.yul\":1989:1995   */\n      dup5\n        /* \"#utility.yul\":1945:2016   */\n      tag_441\n      jump\t// in\n    tag_518:\n        /* \"#utility.yul\":1801:2023   */\n      swap3\n      swap2\n      pop\n      pop\n      jump\t// out\n        /* \"#utility.yul\":2029:2358   */\n    tag_57:\n        /* \"#utility.yul\":2088:2094   */\n      0x00\n        /* \"#utility.yul\":2137:2139   */\n      0x20\n        /* \"#utility.yul\":2125:2134   */\n      dup3\n        /* \"#utility.yul\":2116:2123   */\n      dup5\n        /* \"#utility.yul\":2112:2135   */\n      sub\n        /* \"#utility.yul\":2108:2140   */\n      slt\n        /* \"#utility.yul\":2105:2224   */\n      iszero\n      tag_520\n      jumpi\n        /* \"#utility.yul\":2143:2222   */\n      tag_521\n      tag_432\n      jump\t// in\n    tag_521:\n        /* \"#utility.yul\":2105:2224   */\n    tag_520:\n        /* \"#utility.yul\":2263:2264   */\n      0x00\n        /* \"#utility.yul\":2288:2341   */\n      tag_522\n        /* \"#utility.yul\":2333:2340   */\n      dup5\n        /* \"#utility.yul\":2324:2330   */\n      dup3\n        /* \"#utility.yul\":2313:2322   */\n      dup6\n        /* \"#utility.yul\":2309:2331   */\n      add\n        /* \"#utility.yul\":2288:2341   */\n      tag_437\n      jump\t// in\n    tag_522:\n        /* \"#utility.yul\":2278:2341   */\n      swap2\n      pop\n        /* \"#utility.yul\":2234:2351   */\n      pop\n        /* \"#utility.yul\":2029:2358   */\n      swap3\n      swap2\n      pop\n      pop\n      jump\t// out\n        /* \"#utility.yul\":2364:2454   */\n    tag_442:\n        /* \"#utility.yul\":2398:2405   */\n      0x00\n        /* \"#utility.yul\":2441:2446   */\n      dup2\n        /* \"#utility.yul\":2434:2447   */\n      iszero\n        /* \"#utility.yul\":2427:2448   */\n      iszero\n        /* \"#utility.yul\":2416:2448   */\n      swap1\n      pop\n        /* \"#utility.yul\":2364:2454   */\n      swap2\n      swap1\n      pop\n      jump\t// out\n        /* \"#utility.yul\":2460:2576   */\n    tag_443:\n        /* \"#utility.yul\":2530:2551   */\n      tag_525\n        /* \"#utility.yul\":2545:2550   */\n      dup2\n        /* \"#utility.yul\":2530:2551   */\n      tag_442\n      jump\t// in\n    tag_525:\n        /* \"#utility.yul\":2523:2528   */\n      dup2\n        /* \"#utility.yul\":2520:2552   */\n      eq\n        /* \"#utility.yul\":2510:2570   */\n      tag_526\n      jumpi\n        /* \"#utility.yul\":2566:2567   */\n      0x00\n        /* \"#utility.yul\":2563:2564   */\n      dup1\n        /* \"#utility.yul\":2556:2568   */\n      revert\n        /* \"#utility.yul\":2510:2570   */\n    tag_526:\n        /* \"#utility.yul\":2460:2576   */\n      pop\n      jump\t// out\n        /* \"#utility.yul\":2582:2715   */\n    tag_444:\n        /* \"#utility.yul\":2625:2630   */\n      0x00\n        /* \"#utility.yul\":2663:2669   */\n      dup2\n        /* \"#utility.yul\":2650:2670   */\n      calldataload\n        /* \"#utility.yul\":2641:2670   */\n      swap1\n      pop\n        /* \"#utility.yul\":2679:2709   */\n      tag_528\n        /* \"#utility.yul\":2703:2708   */\n      dup2\n        /* \"#utility.yul\":2679:2709   */\n      tag_443\n      jump\t// in\n    tag_528:\n        /* \"#utility.yul\":2582:2715   */\n      swap3\n      swap2\n      pop\n      pop\n      jump\t// out\n        /* \"#utility.yul\":2721:3189   */\n    tag_63:\n        /* \"#utility.yul\":2786:2792   */\n      0x00\n        /* \"#utility.yul\":2794:2800   */\n      dup1\n        /* \"#utility.yul\":2843:2845   */\n      0x40\n        /* \"#utility.yul\":2831:2840   */\n      dup4\n        /* \"#utility.yul\":2822:2829   */\n      dup6\n        /* \"#utility.yul\":2818:2841   */\n      sub\n        /* \"#utility.yul\":2814:2846   */\n      slt\n        /* \"#utility.yul\":2811:2930   */\n      iszero\n      tag_530\n      jumpi\n        /* \"#utility.yul\":2849:2928   */\n      tag_531\n      tag_432\n      jump\t// in\n    tag_531:\n        /* \"#utility.yul\":2811:2930   */\n    tag_530:\n        /* \"#utility.yul\":2969:2970   */\n      0x00\n        /* \"#utility.yul\":2994:3047   */\n      tag_532\n        /* \"#utility.yul\":3039:3046   */\n      dup6\n        /* \"#utility.yul\":3030:3036   */\n      dup3\n        /* \"#utility.yul\":3019:3028   */\n      dup7\n        /* \"#utility.yul\":3015:3037   */\n      add\n        /* \"#utility.yul\":2994:3047   */\n      tag_437\n      jump\t// in\n    tag_532:\n        /* \"#utility.yul\":2984:3047   */\n      swap3\n      pop\n        /* \"#utility.yul\":2940:3057   */\n      pop\n        /* \"#utility.yul\":3096:3098   */\n      0x20\n        /* \"#utility.yul\":3122:3172   */\n      tag_533\n        /* \"#utility.yul\":3164:3171   */\n      dup6\n        /* \"#utility.yul\":3155:3161   */\n      dup3\n        /* \"#utility.yul\":3144:3153   */\n      dup7\n        /* \"#utility.yul\":3140:3162   */\n      add\n        /* \"#utility.yul\":3122:3172   */\n      tag_444\n      jump\t// in\n    tag_533:\n        /* \"#utility.yul\":3112:3172   */\n      swap2\n      pop\n        /* \"#utility.yul\":3067:3182   */\n      pop\n        /* \"#utility.yul\":2721:3189   */\n      swap3\n      pop\n      swap3\n      swap1\n      pop\n      jump\t// out\n        /* \"#utility.yul\":3195:3312   */\n    tag_445:\n        /* \"#utility.yul\":3304:3305   */\n      0x00\n        /* \"#utility.yul\":3301:3302   */\n      dup1\n        /* \"#utility.yul\":3294:3306   */\n      revert\n        /* \"#utility.yul\":3318:3420   */\n    tag_446:\n        /* \"#utility.yul\":3359:3365   */\n      0x00\n        /* \"#utility.yul\":3410:3412   */\n      0x1f\n        /* \"#utility.yul\":3406:3413   */\n      not\n        /* \"#utility.yul\":3401:3403   */\n      0x1f\n        /* \"#utility.yul\":3394:3399   */\n      dup4\n        /* \"#utility.yul\":3390:3404   */\n      add\n        /* \"#utility.yul\":3386:3414   */\n      and\n        /* \"#utility.yul\":3376:3414   */\n      swap1\n      pop\n        /* \"#utility.yul\":3318:3420   */\n      swap2\n      swap1\n      pop\n      jump\t// out\n        /* \"#utility.yul\":3426:3606   */\n    tag_447:\n        /* \"#utility.yul\":3474:3551   */\n      0x4e487b7100000000000000000000000000000000000000000000000000000000\n        /* \"#utility.yul\":3471:3472   */\n      0x00\n        /* \"#utility.yul\":3464:3552   */\n      mstore\n        /* \"#utility.yul\":3571:3575   */\n      0x41\n        /* \"#utility.yul\":3568:3569   */\n      0x04\n        /* \"#utility.yul\":3561:3576   */\n      mstore\n        /* \"#utility.yul\":3595:3599   */\n      0x24\n        /* \"#utility.yul\":3592:3593   */\n      0x00\n        /* \"#utility.yul\":3585:3600   */\n      revert\n        /* \"#utility.yul\":3612:3893   */\n    tag_448:\n        /* \"#utility.yul\":3695:3722   */\n      tag_538\n        /* \"#utility.yul\":3717:3721   */\n      dup3\n        /* \"#utility.yul\":3695:3722   */\n      tag_446\n      jump\t// in\n    tag_538:\n        /* \"#utility.yul\":3687:3693   */\n      dup2\n        /* \"#utility.yul\":3683:3723   */\n      add\n        /* \"#utility.yul\":3825:3831   */\n      dup2\n        /* \"#utility.yul\":3813:3823   */\n      dup2\n        /* \"#utility.yul\":3810:3832   */\n      lt\n        /* \"#utility.yul\":3789:3807   */\n      0xffffffffffffffff\n        /* \"#utility.yul\":3777:3787   */\n      dup3\n        /* \"#utility.yul\":3774:3808   */\n      gt\n        /* \"#utility.yul\":3771:3833   */\n      or\n        /* \"#utility.yul\":3768:3856   */\n      iszero\n      tag_539\n      jumpi\n        /* \"#utility.yul\":3836:3854   */\n      tag_540\n      tag_447\n      jump\t// in\n    tag_540:\n        /* \"#utility.yul\":3768:3856   */\n    tag_539:\n        /* \"#utility.yul\":3876:3886   */\n      dup1\n        /* \"#utility.yul\":3872:3874   */\n      0x40\n        /* \"#utility.yul\":3865:3887   */\n      mstore\n        /* \"#utility.yul\":3655:3893   */\n      pop\n        /* \"#utility.yul\":3612:3893   */\n      pop\n      pop\n      jump\t// out\n        /* \"#utility.yul\":3899:4028   */\n    tag_449:\n        /* \"#utility.yul\":3933:3939   */\n      0x00\n        /* \"#utility.yul\":3960:3980   */\n      tag_542\n      tag_431\n      jump\t// in\n    tag_542:\n        /* \"#utility.yul\":3950:3980   */\n      swap1\n      pop\n        /* \"#utility.yul\":3989:4022   */\n      tag_543\n        /* \"#utility.yul\":4017:4021   */\n      dup3\n        /* \"#utility.yul\":4009:4015   */\n      dup3\n        /* \"#utility.yul\":3989:4022   */\n      tag_448\n      jump\t// in\n    tag_543:\n        /* \"#utility.yul\":3899:4028   */\n      swap2\n      swap1\n      pop\n      jump\t// out\n        /* \"#utility.yul\":4034:4345   */\n    tag_450:\n        /* \"#utility.yul\":4111:4115   */\n      0x00\n        /* \"#utility.yul\":4201:4219   */\n      0xffffffffffffffff\n        /* \"#utility.yul\":4193:4199   */\n      dup3\n        /* \"#utility.yul\":4190:4220   */\n      gt\n        /* \"#utility.yul\":4187:4243   */\n      iszero\n      tag_545\n      jumpi\n        /* \"#utility.yul\":4223:4241   */\n      tag_546\n      tag_447\n      jump\t// in\n    tag_546:\n        /* \"#utility.yul\":4187:4243   */\n    tag_545:\n        /* \"#utility.yul\":4273:4277   */\n      0x20\n        /* \"#utility.yul\":4265:4271   */\n      dup3\n        /* \"#utility.yul\":4261:4278   */\n      mul\n        /* \"#utility.yul\":4253:4278   */\n      swap1\n      pop\n        /* \"#utility.yul\":4333:4337   */\n      0x20\n        /* \"#utility.yul\":4327:4331   */\n      dup2\n        /* \"#utility.yul\":4323:4338   */\n      add\n        /* \"#utility.yul\":4315:4338   */\n      swap1\n      pop\n        /* \"#utility.yul\":4034:4345   */\n      swap2\n      swap1\n      pop\n      jump\t// out\n        /* \"#utility.yul\":4351:4468   */\n    tag_451:\n        /* \"#utility.yul\":4460:4461   */\n      0x00\n        /* \"#utility.yul\":4457:4458   */\n      dup1\n        /* \"#utility.yul\":4450:4462   */\n      revert\n        /* \"#utility.yul\":4491:5201   */\n    tag_452:\n        /* \"#utility.yul\":4587:4592   */\n      0x00\n        /* \"#utility.yul\":4612:4693   */\n      tag_549\n        /* \"#utility.yul\":4628:4692   */\n      tag_550\n        /* \"#utility.yul\":4685:4691   */\n      dup5\n        /* \"#utility.yul\":4628:4692   */\n      tag_450\n      jump\t// in\n    tag_550:\n        /* \"#utility.yul\":4612:4693   */\n      tag_449\n      jump\t// in\n    tag_549:\n        /* \"#utility.yul\":4603:4693   */\n      swap1\n      pop\n        /* \"#utility.yul\":4713:4718   */\n      dup1\n        /* \"#utility.yul\":4742:4748   */\n      dup4\n        /* \"#utility.yul\":4735:4740   */\n      dup3\n        /* \"#utility.yul\":4728:4749   */\n      mstore\n        /* \"#utility.yul\":4776:4780   */\n      0x20\n        /* \"#utility.yul\":4769:4774   */\n      dup3\n        /* \"#utility.yul\":4765:4781   */\n      add\n        /* \"#utility.yul\":4758:4781   */\n      swap1\n      pop\n        /* \"#utility.yul\":4829:4833   */\n      0x20\n        /* \"#utility.yul\":4821:4827   */\n      dup5\n        /* \"#utility.yul\":4817:4834   */\n      mul\n        /* \"#utility.yul\":4809:4815   */\n      dup4\n        /* \"#utility.yul\":4805:4835   */\n      add\n        /* \"#utility.yul\":4858:4861   */\n      dup6\n        /* \"#utility.yul\":4850:4856   */\n      dup2\n        /* \"#utility.yul\":4847:4862   */\n      gt\n        /* \"#utility.yul\":4844:4966   */\n      iszero\n      tag_551\n      jumpi\n        /* \"#utility.yul\":4877:4956   */\n      tag_552\n      tag_451\n      jump\t// in\n    tag_552:\n        /* \"#utility.yul\":4844:4966   */\n    tag_551:\n        /* \"#utility.yul\":4992:4998   */\n      dup4\n        /* \"#utility.yul\":4975:5195   */\n    tag_553:\n        /* \"#utility.yul\":5009:5015   */\n      dup2\n        /* \"#utility.yul\":5004:5007   */\n      dup2\n        /* \"#utility.yul\":5001:5016   */\n      lt\n        /* \"#utility.yul\":4975:5195   */\n      iszero\n      tag_555\n      jumpi\n        /* \"#utility.yul\":5084:5087   */\n      dup1\n        /* \"#utility.yul\":5113:5150   */\n      tag_556\n        /* \"#utility.yul\":5146:5149   */\n      dup9\n        /* \"#utility.yul\":5134:5144   */\n      dup3\n        /* \"#utility.yul\":5113:5150   */\n      tag_437\n      jump\t// in\n    tag_556:\n        /* \"#utility.yul\":5108:5111   */\n      dup5\n        /* \"#utility.yul\":5101:5151   */\n      mstore\n        /* \"#utility.yul\":5180:5184   */\n      0x20\n        /* \"#utility.yul\":5175:5178   */\n      dup5\n        /* \"#utility.yul\":5171:5185   */\n      add\n        /* \"#utility.yul\":5164:5185   */\n      swap4\n      pop\n        /* \"#utility.yul\":5051:5195   */\n      pop\n        /* \"#utility.yul\":5035:5039   */\n      0x20\n        /* \"#utility.yul\":5030:5033   */\n      dup2\n        /* \"#utility.yul\":5026:5040   */\n      add\n        /* \"#utility.yul\":5019:5040   */\n      swap1\n      pop\n        /* \"#utility.yul\":4975:5195   */\n      jump(tag_553)\n    tag_555:\n        /* \"#utility.yul\":4979:5000   */\n      pop\n        /* \"#utility.yul\":4593:5201   */\n      pop\n      pop\n        /* \"#utility.yul\":4491:5201   */\n      swap4\n      swap3\n      pop\n      pop\n      pop\n      jump\t// out\n        /* \"#utility.yul\":5224:5594   */\n    tag_453:\n        /* \"#utility.yul\":5295:5300   */\n      0x00\n        /* \"#utility.yul\":5344:5347   */\n      dup3\n        /* \"#utility.yul\":5337:5341   */\n      0x1f\n        /* \"#utility.yul\":5329:5335   */\n      dup4\n        /* \"#utility.yul\":5325:5342   */\n      add\n        /* \"#utility.yul\":5321:5348   */\n      slt\n        /* \"#utility.yul\":5311:5433   */\n      tag_558\n      jumpi\n        /* \"#utility.yul\":5352:5431   */\n      tag_559\n      tag_445\n      jump\t// in\n    tag_559:\n        /* \"#utility.yul\":5311:5433   */\n    tag_558:\n        /* \"#utility.yul\":5469:5475   */\n      dup2\n        /* \"#utility.yul\":5456:5476   */\n      calldataload\n        /* \"#utility.yul\":5494:5588   */\n      tag_560\n        /* \"#utility.yul\":5584:5587   */\n      dup5\n        /* \"#utility.yul\":5576:5582   */\n      dup3\n        /* \"#utility.yul\":5569:5573   */\n      0x20\n        /* \"#utility.yul\":5561:5567   */\n      dup7\n        /* \"#utility.yul\":5557:5574   */\n      add\n        /* \"#utility.yul\":5494:5588   */\n      tag_452\n      jump\t// in\n    tag_560:\n        /* \"#utility.yul\":5485:5588   */\n      swap2\n      pop\n        /* \"#utility.yul\":5301:5594   */\n      pop\n        /* \"#utility.yul\":5224:5594   */\n      swap3\n      swap2\n      pop\n      pop\n      jump\t// out\n        /* \"#utility.yul\":5600:5911   */\n    tag_454:\n        /* \"#utility.yul\":5677:5681   */\n      0x00\n        /* \"#utility.yul\":5767:5785   */\n      0xffffffffffffffff\n        /* \"#utility.yul\":5759:5765   */\n      dup3\n        /* \"#utility.yul\":5756:5786   */\n      gt\n        /* \"#utility.yul\":5753:5809   */\n      iszero\n      tag_562\n      jumpi\n        /* \"#utility.yul\":5789:5807   */\n      tag_563\n      tag_447\n      jump\t// in\n    tag_563:\n        /* \"#utility.yul\":5753:5809   */\n    tag_562:\n        /* \"#utility.yul\":5839:5843   */\n      0x20\n        /* \"#utility.yul\":5831:5837   */\n      dup3\n        /* \"#utility.yul\":5827:5844   */\n      mul\n        /* \"#utility.yul\":5819:5844   */\n      swap1\n      pop\n        /* \"#utility.yul\":5899:5903   */\n      0x20\n        /* \"#utility.yul\":5893:5897   */\n      dup2\n        /* \"#utility.yul\":5889:5904   */\n      add\n        /* \"#utility.yul\":5881:5904   */\n      swap1\n      pop\n        /* \"#utility.yul\":5600:5911   */\n      swap2\n      swap1\n      pop\n      jump\t// out\n        /* \"#utility.yul\":5934:6644   */\n    tag_455:\n        /* \"#utility.yul\":6030:6035   */\n      0x00\n        /* \"#utility.yul\":6055:6136   */\n      tag_565\n        /* \"#utility.yul\":6071:6135   */\n      tag_566\n        /* \"#utility.yul\":6128:6134   */\n      dup5\n        /* \"#utility.yul\":6071:6135   */\n      tag_454\n      jump\t// in\n    tag_566:\n        /* \"#utility.yul\":6055:6136   */\n      tag_449\n      jump\t// in\n    tag_565:\n        /* \"#utility.yul\":6046:6136   */\n      swap1\n      pop\n        /* \"#utility.yul\":6156:6161   */\n      dup1\n        /* \"#utility.yul\":6185:6191   */\n      dup4\n        /* \"#utility.yul\":6178:6183   */\n      dup3\n        /* \"#utility.yul\":6171:6192   */\n      mstore\n        /* \"#utility.yul\":6219:6223   */\n      0x20\n        /* \"#utility.yul\":6212:6217   */\n      dup3\n        /* \"#utility.yul\":6208:6224   */\n      add\n        /* \"#utility.yul\":6201:6224   */\n      swap1\n      pop\n        /* \"#utility.yul\":6272:6276   */\n      0x20\n        /* \"#utility.yul\":6264:6270   */\n      dup5\n        /* \"#utility.yul\":6260:6277   */\n      mul\n        /* \"#utility.yul\":6252:6258   */\n      dup4\n        /* \"#utility.yul\":6248:6278   */\n      add\n        /* \"#utility.yul\":6301:6304   */\n      dup6\n        /* \"#utility.yul\":6293:6299   */\n      dup2\n        /* \"#utility.yul\":6290:6305   */\n      gt\n        /* \"#utility.yul\":6287:6409   */\n      iszero\n      tag_567\n      jumpi\n        /* \"#utility.yul\":6320:6399   */\n      tag_568\n      tag_451\n      jump\t// in\n    tag_568:\n        /* \"#utility.yul\":6287:6409   */\n    tag_567:\n        /* \"#utility.yul\":6435:6441   */\n      dup4\n        /* \"#utility.yul\":6418:6638   */\n    tag_569:\n        /* \"#utility.yul\":6452:6458   */\n      dup2\n        /* \"#utility.yul\":6447:6450   */\n      dup2\n        /* \"#utility.yul\":6444:6459   */\n      lt\n        /* \"#utility.yul\":6418:6638   */\n      iszero\n      tag_571\n      jumpi\n        /* \"#utility.yul\":6527:6530   */\n      dup1\n        /* \"#utility.yul\":6556:6593   */\n      tag_572\n        /* \"#utility.yul\":6589:6592   */\n      dup9\n        /* \"#utility.yul\":6577:6587   */\n      dup3\n        /* \"#utility.yul\":6556:6593   */\n      tag_440\n      jump\t// in\n    tag_572:\n        /* \"#utility.yul\":6551:6554   */\n      dup5\n        /* \"#utility.yul\":6544:6594   */\n      mstore\n        /* \"#utility.yul\":6623:6627   */\n      0x20\n        /* \"#utility.yul\":6618:6621   */\n      dup5\n        /* \"#utility.yul\":6614:6628   */\n      add\n        /* \"#utility.yul\":6607:6628   */\n      swap4\n      pop\n        /* \"#utility.yul\":6494:6638   */\n      pop\n        /* \"#utility.yul\":6478:6482   */\n      0x20\n        /* \"#utility.yul\":6473:6476   */\n      dup2\n        /* \"#utility.yul\":6469:6483   */\n      add\n        /* \"#utility.yul\":6462:6483   */\n      swap1\n      pop\n        /* \"#utility.yul\":6418:6638   */\n      jump(tag_569)\n    tag_571:\n        /* \"#utility.yul\":6422:6443   */\n      pop\n        /* \"#utility.yul\":6036:6644   */\n      pop\n      pop\n        /* \"#utility.yul\":5934:6644   */\n      swap4\n      swap3\n      pop\n      pop\n      pop\n      jump\t// out\n        /* \"#utility.yul\":6667:7037   */\n    tag_456:\n        /* \"#utility.yul\":6738:6743   */\n      0x00\n        /* \"#utility.yul\":6787:6790   */\n      dup3\n        /* \"#utility.yul\":6780:6784   */\n      0x1f\n        /* \"#utility.yul\":6772:6778   */\n      dup4\n        /* \"#utility.yul\":6768:6785   */\n      add\n        /* \"#utility.yul\":6764:6791   */\n      slt\n        /* \"#utility.yul\":6754:6876   */\n      tag_574\n      jumpi\n        /* \"#utility.yul\":6795:6874   */\n      tag_575\n      tag_445\n      jump\t// in\n    tag_575:\n        /* \"#utility.yul\":6754:6876   */\n    tag_574:\n        /* \"#utility.yul\":6912:6918   */\n      dup2\n        /* \"#utility.yul\":6899:6919   */\n      calldataload\n        /* \"#utility.yul\":6937:7031   */\n      tag_576\n        /* \"#utility.yul\":7027:7030   */\n      dup5\n        /* \"#utility.yul\":7019:7025   */\n      dup3\n        /* \"#utility.yul\":7012:7016   */\n      0x20\n        /* \"#utility.yul\":7004:7010   */\n      dup7\n        /* \"#utility.yul\":7000:7017   */\n      add\n        /* \"#utility.yul\":6937:7031   */\n      tag_455\n      jump\t// in\n    tag_576:\n        /* \"#utility.yul\":6928:7031   */\n      swap2\n      pop\n        /* \"#utility.yul\":6744:7037   */\n      pop\n        /* \"#utility.yul\":6667:7037   */\n      swap3\n      swap2\n      pop\n      pop\n      jump\t// out\n        /* \"#utility.yul\":7043:8082   */\n    tag_72:\n        /* \"#utility.yul\":7170:7176   */\n      0x00\n        /* \"#utility.yul\":7178:7184   */\n      dup1\n        /* \"#utility.yul\":7186:7192   */\n      0x00\n        /* \"#utility.yul\":7235:7237   */\n      0x60\n        /* \"#utility.yul\":7223:7232   */\n      dup5\n        /* \"#utility.yul\":7214:7221   */\n      dup7\n        /* \"#utility.yul\":7210:7233   */\n      sub\n        /* \"#utility.yul\":7206:7238   */\n      slt\n        /* \"#utility.yul\":7203:7322   */\n      iszero\n      tag_578\n      jumpi\n        /* \"#utility.yul\":7241:7320   */\n      tag_579\n      tag_432\n      jump\t// in\n    tag_579:\n        /* \"#utility.yul\":7203:7322   */\n    tag_578:\n        /* \"#utility.yul\":7389:7390   */\n      0x00\n        /* \"#utility.yul\":7378:7387   */\n      dup5\n        /* \"#utility.yul\":7374:7391   */\n      add\n        /* \"#utility.yul\":7361:7392   */\n      calldataload\n        /* \"#utility.yul\":7419:7437   */\n      0xffffffffffffffff\n        /* \"#utility.yul\":7411:7417   */\n      dup2\n        /* \"#utility.yul\":7408:7438   */\n      gt\n        /* \"#utility.yul\":7405:7522   */\n      iszero\n      tag_580\n      jumpi\n        /* \"#utility.yul\":7441:7520   */\n      tag_581\n      tag_433\n      jump\t// in\n    tag_581:\n        /* \"#utility.yul\":7405:7522   */\n    tag_580:\n        /* \"#utility.yul\":7546:7624   */\n      tag_582\n        /* \"#utility.yul\":7616:7623   */\n      dup7\n        /* \"#utility.yul\":7607:7613   */\n      dup3\n        /* \"#utility.yul\":7596:7605   */\n      dup8\n        /* \"#utility.yul\":7592:7614   */\n      add\n        /* \"#utility.yul\":7546:7624   */\n      tag_453\n      jump\t// in\n    tag_582:\n        /* \"#utility.yul\":7536:7624   */\n      swap4\n      pop\n        /* \"#utility.yul\":7332:7634   */\n      pop\n        /* \"#utility.yul\":7701:7703   */\n      0x20\n        /* \"#utility.yul\":7690:7699   */\n      dup5\n        /* \"#utility.yul\":7686:7704   */\n      add\n        /* \"#utility.yul\":7673:7705   */\n      calldataload\n        /* \"#utility.yul\":7732:7750   */\n      0xffffffffffffffff\n        /* \"#utility.yul\":7724:7730   */\n      dup2\n        /* \"#utility.yul\":7721:7751   */\n      gt\n        /* \"#utility.yul\":7718:7835   */\n      iszero\n      tag_583\n      jumpi\n        /* \"#utility.yul\":7754:7833   */\n      tag_584\n      tag_433\n      jump\t// in\n    tag_584:\n        /* \"#utility.yul\":7718:7835   */\n    tag_583:\n        /* \"#utility.yul\":7859:7937   */\n      tag_585\n        /* \"#utility.yul\":7929:7936   */\n      dup7\n        /* \"#utility.yul\":7920:7926   */\n      dup3\n        /* \"#utility.yul\":7909:7918   */\n      dup8\n        /* \"#utility.yul\":7905:7927   */\n      add\n        /* \"#utility.yul\":7859:7937   */\n      tag_456\n      jump\t// in\n    tag_585:\n        /* \"#utility.yul\":7849:7937   */\n      swap3\n      pop\n        /* \"#utility.yul\":7644:7947   */\n      pop\n        /* \"#utility.yul\":7986:7988   */\n      0x40\n        /* \"#utility.yul\":8012:8065   */\n      tag_586\n        /* \"#utility.yul\":8057:8064   */\n      dup7\n        /* \"#utility.yul\":8048:8054   */\n      dup3\n        /* \"#utility.yul\":8037:8046   */\n      dup8\n        /* \"#utility.yul\":8033:8055   */\n      add\n        /* \"#utility.yul\":8012:8065   */\n      tag_440\n      jump\t// in\n    tag_586:\n        /* \"#utility.yul\":8002:8065   */\n      swap2\n      pop\n        /* \"#utility.yul\":7957:8075   */\n      pop\n        /* \"#utility.yul\":7043:8082   */\n      swap3\n      pop\n      swap3\n      pop\n      swap3\n      jump\t// out\n        /* \"#utility.yul\":8088:8417   */\n    tag_80:\n        /* \"#utility.yul\":8147:8153   */\n      0x00\n        /* \"#utility.yul\":8196:8198   */\n      0x20\n        /* \"#utility.yul\":8184:8193   */\n      dup3\n        /* \"#utility.yul\":8175:8182   */\n      dup5\n        /* \"#utility.yul\":8171:8194   */\n      sub\n        /* \"#utility.yul\":8167:8199   */\n      slt\n        /* \"#utility.yul\":8164:8283   */\n      iszero\n      tag_588\n      jumpi\n        /* \"#utility.yul\":8202:8281   */\n      tag_589\n      tag_432\n      jump\t// in\n    tag_589:\n        /* \"#utility.yul\":8164:8283   */\n    tag_588:\n        /* \"#utility.yul\":8322:8323   */\n      0x00\n        /* \"#utility.yul\":8347:8400   */\n      tag_590\n        /* \"#utility.yul\":8392:8399   */\n      dup5\n        /* \"#utility.yul\":8383:8389   */\n      dup3\n        /* \"#utility.yul\":8372:8381   */\n      dup6\n        /* \"#utility.yul\":8368:8390   */\n      add\n        /* \"#utility.yul\":8347:8400   */\n      tag_440\n      jump\t// in\n    tag_590:\n        /* \"#utility.yul\":8337:8400   */\n      swap2\n      pop\n        /* \"#utility.yul\":8293:8410   */\n      pop\n        /* \"#utility.yul\":8088:8417   */\n      swap3\n      swap2\n      pop\n      pop\n      jump\t// out\n        /* \"#utility.yul\":8423:9317   */\n    tag_85:\n        /* \"#utility.yul\":8541:8547   */\n      0x00\n        /* \"#utility.yul\":8549:8555   */\n      dup1\n        /* \"#utility.yul\":8598:8600   */\n      0x40\n        /* \"#utility.yul\":8586:8595   */\n      dup4\n        /* \"#utility.yul\":8577:8584   */\n      dup6\n        /* \"#utility.yul\":8573:8596   */\n      sub\n        /* \"#utility.yul\":8569:8601   */\n      slt\n        /* \"#utility.yul\":8566:8685   */\n      iszero\n      tag_592\n      jumpi\n        /* \"#utility.yul\":8604:8683   */\n      tag_593\n      tag_432\n      jump\t// in\n    tag_593:\n        /* \"#utility.yul\":8566:8685   */\n    tag_592:\n        /* \"#utility.yul\":8752:8753   */\n      0x00\n        /* \"#utility.yul\":8741:8750   */\n      dup4\n        /* \"#utility.yul\":8737:8754   */\n      add\n        /* \"#utility.yul\":8724:8755   */\n      calldataload\n        /* \"#utility.yul\":8782:8800   */\n      0xffffffffffffffff\n        /* \"#utility.yul\":8774:8780   */\n      dup2\n        /* \"#utility.yul\":8771:8801   */\n      gt\n        /* \"#utility.yul\":8768:8885   */\n      iszero\n      tag_594\n      jumpi\n        /* \"#utility.yul\":8804:8883   */\n      tag_595\n      tag_433\n      jump\t// in\n    tag_595:\n        /* \"#utility.yul\":8768:8885   */\n    tag_594:\n        /* \"#utility.yul\":8909:8987   */\n      tag_596\n        /* \"#utility.yul\":8979:8986   */\n      dup6\n        /* \"#utility.yul\":8970:8976   */\n      dup3\n        /* \"#utility.yul\":8959:8968   */\n      dup7\n        /* \"#utility.yul\":8955:8977   */\n      add\n        /* \"#utility.yul\":8909:8987   */\n      tag_453\n      jump\t// in\n    tag_596:\n        /* \"#utility.yul\":8899:8987   */\n      swap3\n      pop\n        /* \"#utility.yul\":8695:8997   */\n      pop\n        /* \"#utility.yul\":9064:9066   */\n      0x20\n        /* \"#utility.yul\":9053:9062   */\n      dup4\n        /* \"#utility.yul\":9049:9067   */\n      add\n        /* \"#utility.yul\":9036:9068   */\n      calldataload\n        /* \"#utility.yul\":9095:9113   */\n      0xffffffffffffffff\n        /* \"#utility.yul\":9087:9093   */\n      dup2\n        /* \"#utility.yul\":9084:9114   */\n      gt\n        /* \"#utility.yul\":9081:9198   */\n      iszero\n      tag_597\n      jumpi\n        /* \"#utility.yul\":9117:9196   */\n      tag_598\n      tag_433\n      jump\t// in\n    tag_598:\n        /* \"#utility.yul\":9081:9198   */\n    tag_597:\n        /* \"#utility.yul\":9222:9300   */\n      tag_599\n        /* \"#utility.yul\":9292:9299   */\n      dup6\n        /* \"#utility.yul\":9283:9289   */\n      dup3\n        /* \"#utility.yul\":9272:9281   */\n      dup7\n        /* \"#utility.yul\":9268:9290   */\n      add\n        /* \"#utility.yul\":9222:9300   */\n      tag_456\n      jump\t// in\n    tag_599:\n        /* \"#utility.yul\":9212:9300   */\n      swap2\n      pop\n        /* \"#utility.yul\":9007:9310   */\n      pop\n        /* \"#utility.yul\":8423:9317   */\n      swap3\n      pop\n      swap3\n      swap1\n      pop\n      jump\t// out\n        /* \"#utility.yul\":9323:9432   */\n    tag_457:\n        /* \"#utility.yul\":9404:9425   */\n      tag_601\n        /* \"#utility.yul\":9419:9424   */\n      dup2\n        /* \"#utility.yul\":9404:9425   */\n      tag_442\n      jump\t// in\n    tag_601:\n        /* \"#utility.yul\":9399:9402   */\n      dup3\n        /* \"#utility.yul\":9392:9426   */\n      mstore\n        /* \"#utility.yul\":9323:9432   */\n      pop\n      pop\n      jump\t// out\n        /* \"#utility.yul\":9438:9648   */\n    tag_113:\n        /* \"#utility.yul\":9525:9529   */\n      0x00\n        /* \"#utility.yul\":9563:9565   */\n      0x20\n        /* \"#utility.yul\":9552:9561   */\n      dup3\n        /* \"#utility.yul\":9548:9566   */\n      add\n        /* \"#utility.yul\":9540:9566   */\n      swap1\n      pop\n        /* \"#utility.yul\":9576:9641   */\n      tag_603\n        /* \"#utility.yul\":9638:9639   */\n      0x00\n        /* \"#utility.yul\":9627:9636   */\n      dup4\n        /* \"#utility.yul\":9623:9640   */\n      add\n        /* \"#utility.yul\":9614:9620   */\n      dup5\n        /* \"#utility.yul\":9576:9641   */\n      tag_457\n      jump\t// in\n    tag_603:\n        /* \"#utility.yul\":9438:9648   */\n      swap3\n      swap2\n      pop\n      pop\n      jump\t// out\n        /* \"#utility.yul\":9654:9772   */\n    tag_458:\n        /* \"#utility.yul\":9741:9765   */\n      tag_605\n        /* \"#utility.yul\":9759:9764   */\n      dup2\n        /* \"#utility.yul\":9741:9765   */\n      tag_435\n      jump\t// in\n    tag_605:\n        /* \"#utility.yul\":9736:9739   */\n      dup3\n        /* \"#utility.yul\":9729:9766   */\n      mstore\n        /* \"#utility.yul\":9654:9772   */\n      pop\n      pop\n      jump\t// out\n        /* \"#utility.yul\":9778:10000   */\n    tag_123:\n        /* \"#utility.yul\":9871:9875   */\n      0x00\n        /* \"#utility.yul\":9909:9911   */\n      0x20\n        /* \"#utility.yul\":9898:9907   */\n      dup3\n        /* \"#utility.yul\":9894:9912   */\n      add\n        /* \"#utility.yul\":9886:9912   */\n      swap1\n      pop\n        /* \"#utility.yul\":9922:9993   */\n      tag_607\n        /* \"#utility.yul\":9990:9991   */\n      0x00\n        /* \"#utility.yul\":9979:9988   */\n      dup4\n        /* \"#utility.yul\":9975:9992   */\n      add\n        /* \"#utility.yul\":9966:9972   */\n      dup5\n        /* \"#utility.yul\":9922:9993   */\n      tag_458\n      jump\t// in\n    tag_607:\n        /* \"#utility.yul\":9778:10000   */\n      swap3\n      swap2\n      pop\n      pop\n      jump\t// out\n        /* \"#utility.yul\":10006:10911   */\n    tag_130:\n        /* \"#utility.yul\":10098:10104   */\n      0x00\n        /* \"#utility.yul\":10106:10112   */\n      dup1\n        /* \"#utility.yul\":10114:10120   */\n      0x00\n        /* \"#utility.yul\":10122:10128   */\n      dup1\n        /* \"#utility.yul\":10130:10136   */\n      0x00\n        /* \"#utility.yul\":10179:10182   */\n      0xa0\n        /* \"#utility.yul\":10167:10176   */\n      dup7\n        /* \"#utility.yul\":10158:10165   */\n      dup9\n        /* \"#utility.yul\":10154:10177   */\n      sub\n        /* \"#utility.yul\":10150:10183   */\n      slt\n        /* \"#utility.yul\":10147:10267   */\n      iszero\n      tag_609\n      jumpi\n        /* \"#utility.yul\":10186:10265   */\n      tag_610\n      tag_432\n      jump\t// in\n    tag_610:\n        /* \"#utility.yul\":10147:10267   */\n    tag_609:\n        /* \"#utility.yul\":10306:10307   */\n      0x00\n        /* \"#utility.yul\":10331:10384   */\n      tag_611\n        /* \"#utility.yul\":10376:10383   */\n      dup9\n        /* \"#utility.yul\":10367:10373   */\n      dup3\n        /* \"#utility.yul\":10356:10365   */\n      dup10\n        /* \"#utility.yul\":10352:10374   */\n      add\n        /* \"#utility.yul\":10331:10384   */\n      tag_437\n      jump\t// in\n    tag_611:\n        /* \"#utility.yul\":10321:10384   */\n      swap6\n      pop\n        /* \"#utility.yul\":10277:10394   */\n      pop\n        /* \"#utility.yul\":10433:10435   */\n      0x20\n        /* \"#utility.yul\":10459:10512   */\n      tag_612\n        /* \"#utility.yul\":10504:10511   */\n      dup9\n        /* \"#utility.yul\":10495:10501   */\n      dup3\n        /* \"#utility.yul\":10484:10493   */\n      dup10\n        /* \"#utility.yul\":10480:10502   */\n      add\n        /* \"#utility.yul\":10459:10512   */\n      tag_440\n      jump\t// in\n    tag_612:\n        /* \"#utility.yul\":10449:10512   */\n      swap5\n      pop\n        /* \"#utility.yul\":10404:10522   */\n      pop\n        /* \"#utility.yul\":10561:10563   */\n      0x40\n        /* \"#utility.yul\":10587:10640   */\n      tag_613\n        /* \"#utility.yul\":10632:10639   */\n      dup9\n        /* \"#utility.yul\":10623:10629   */\n      dup3\n        /* \"#utility.yul\":10612:10621   */\n      dup10\n        /* \"#utility.yul\":10608:10630   */\n      add\n        /* \"#utility.yul\":10587:10640   */\n      tag_440\n      jump\t// in\n    tag_613:\n        /* \"#utility.yul\":10577:10640   */\n      swap4\n      pop\n        /* \"#utility.yul\":10532:10650   */\n      pop\n        /* \"#utility.yul\":10689:10691   */\n      0x60\n        /* \"#utility.yul\":10715:10768   */\n      tag_614\n        /* \"#utility.yul\":10760:10767   */\n      dup9\n        /* \"#utility.yul\":10751:10757   */\n      dup3\n        /* \"#utility.yul\":10740:10749   */\n      dup10\n        /* \"#utility.yul\":10736:10758   */\n      add\n        /* \"#utility.yul\":10715:10768   */\n      tag_440\n      jump\t// in\n    tag_614:\n        /* \"#utility.yul\":10705:10768   */\n      swap3\n      pop\n        /* \"#utility.yul\":10660:10778   */\n      pop\n        /* \"#utility.yul\":10817:10820   */\n      0x80\n        /* \"#utility.yul\":10844:10894   */\n      tag_615\n        /* \"#utility.yul\":10886:10893   */\n      dup9\n        /* \"#utility.yul\":10877:10883   */\n      dup3\n        /* \"#utility.yul\":10866:10875   */\n      dup10\n        /* \"#utility.yul\":10862:10884   */\n      add\n        /* \"#utility.yul\":10844:10894   */\n      tag_444\n      jump\t// in\n    tag_615:\n        /* \"#utility.yul\":10834:10894   */\n      swap2\n      pop\n        /* \"#utility.yul\":10788:10904   */\n      pop\n        /* \"#utility.yul\":10006:10911   */\n      swap3\n      swap6\n      pop\n      swap3\n      swap6\n      swap1\n      swap4\n      pop\n      jump\t// out\n        /* \"#utility.yul\":10917:11557   */\n    tag_165:\n        /* \"#utility.yul\":11110:11114   */\n      0x00\n        /* \"#utility.yul\":11148:11151   */\n      0xa0\n        /* \"#utility.yul\":11137:11146   */\n      dup3\n        /* \"#utility.yul\":11133:11152   */\n      add\n        /* \"#utility.yul\":11125:11152   */\n      swap1\n      pop\n        /* \"#utility.yul\":11162:11233   */\n      tag_617\n        /* \"#utility.yul\":11230:11231   */\n      0x00\n        /* \"#utility.yul\":11219:11228   */\n      dup4\n        /* \"#utility.yul\":11215:11232   */\n      add\n        /* \"#utility.yul\":11206:11212   */\n      dup9\n        /* \"#utility.yul\":11162:11233   */\n      tag_441\n      jump\t// in\n    tag_617:\n        /* \"#utility.yul\":11243:11309   */\n      tag_618\n        /* \"#utility.yul\":11305:11307   */\n      0x20\n        /* \"#utility.yul\":11294:11303   */\n      dup4\n        /* \"#utility.yul\":11290:11308   */\n      add\n        /* \"#utility.yul\":11281:11287   */\n      dup8\n        /* \"#utility.yul\":11243:11309   */\n      tag_457\n      jump\t// in\n    tag_618:\n        /* \"#utility.yul\":11319:11385   */\n      tag_619\n        /* \"#utility.yul\":11381:11383   */\n      0x40\n        /* \"#utility.yul\":11370:11379   */\n      dup4\n        /* \"#utility.yul\":11366:11384   */\n      add\n        /* \"#utility.yul\":11357:11363   */\n      dup7\n        /* \"#utility.yul\":11319:11385   */\n      tag_457\n      jump\t// in\n    tag_619:\n        /* \"#utility.yul\":11395:11467   */\n      tag_620\n        /* \"#utility.yul\":11463:11465   */\n      0x60\n        /* \"#utility.yul\":11452:11461   */\n      dup4\n        /* \"#utility.yul\":11448:11466   */\n      add\n        /* \"#utility.yul\":11439:11445   */\n      dup6\n        /* \"#utility.yul\":11395:11467   */\n      tag_441\n      jump\t// in\n    tag_620:\n        /* \"#utility.yul\":11477:11550   */\n      tag_621\n        /* \"#utility.yul\":11545:11548   */\n      0x80\n        /* \"#utility.yul\":11534:11543   */\n      dup4\n        /* \"#utility.yul\":11530:11549   */\n      add\n        /* \"#utility.yul\":11521:11527   */\n      dup5\n        /* \"#utility.yul\":11477:11550   */\n      tag_441\n      jump\t// in\n    tag_621:\n        /* \"#utility.yul\":10917:11557   */\n      swap7\n      swap6\n      pop\n      pop\n      pop\n      pop\n      pop\n      pop\n      jump\t// out\n        /* \"#utility.yul\":11563:11732   */\n    tag_459:\n        /* \"#utility.yul\":11647:11658   */\n      0x00\n        /* \"#utility.yul\":11681:11687   */\n      dup3\n        /* \"#utility.yul\":11676:11679   */\n      dup3\n        /* \"#utility.yul\":11669:11688   */\n      mstore\n        /* \"#utility.yul\":11721:11725   */\n      0x20\n        /* \"#utility.yul\":11716:11719   */\n      dup3\n        /* \"#utility.yul\":11712:11726   */\n      add\n        /* \"#utility.yul\":11697:11726   */\n      swap1\n      pop\n        /* \"#utility.yul\":11563:11732   */\n      swap3\n      swap2\n      pop\n      pop\n      jump\t// out\n        /* \"#utility.yul\":11738:11914   */\n    tag_460:\n        /* \"#utility.yul\":11878:11906   */\n      0x50726573616c653a20546f6b656e206e6f7420616c6c6f776564000000000000\n        /* \"#utility.yul\":11874:11875   */\n      0x00\n        /* \"#utility.yul\":11866:11872   */\n      dup3\n        /* \"#utility.yul\":11862:11876   */\n      add\n        /* \"#utility.yul\":11855:11907   */\n      mstore\n        /* \"#utility.yul\":11738:11914   */\n      pop\n      jump\t// out\n        /* \"#utility.yul\":11920:12286   */\n    tag_461:\n        /* \"#utility.yul\":12062:12065   */\n      0x00\n        /* \"#utility.yul\":12083:12150   */\n      tag_625\n        /* \"#utility.yul\":12147:12149   */\n      0x1a\n        /* \"#utility.yul\":12142:12145   */\n      dup4\n        /* \"#utility.yul\":12083:12150   */\n      tag_459\n      jump\t// in\n    tag_625:\n        /* \"#utility.yul\":12076:12150   */\n      swap2\n      pop\n        /* \"#utility.yul\":12159:12252   */\n      tag_626\n        /* \"#utility.yul\":12248:12251   */\n      dup3\n        /* \"#utility.yul\":12159:12252   */\n      tag_460\n      jump\t// in\n    tag_626:\n        /* \"#utility.yul\":12277:12279   */\n      0x20\n        /* \"#utility.yul\":12272:12275   */\n      dup3\n        /* \"#utility.yul\":12268:12280   */\n      add\n        /* \"#utility.yul\":12261:12280   */\n      swap1\n      pop\n        /* \"#utility.yul\":11920:12286   */\n      swap2\n      swap1\n      pop\n      jump\t// out\n        /* \"#utility.yul\":12292:12711   */\n    tag_178:\n        /* \"#utility.yul\":12458:12462   */\n      0x00\n        /* \"#utility.yul\":12496:12498   */\n      0x20\n        /* \"#utility.yul\":12485:12494   */\n      dup3\n        /* \"#utility.yul\":12481:12499   */\n      add\n        /* \"#utility.yul\":12473:12499   */\n      swap1\n      pop\n        /* \"#utility.yul\":12545:12554   */\n      dup2\n        /* \"#utility.yul\":12539:12543   */\n      dup2\n        /* \"#utility.yul\":12535:12555   */\n      sub\n        /* \"#utility.yul\":12531:12532   */\n      0x00\n        /* \"#utility.yul\":12520:12529   */\n      dup4\n        /* \"#utility.yul\":12516:12533   */\n      add\n        /* \"#utility.yul\":12509:12556   */\n      mstore\n        /* \"#utility.yul\":12573:12704   */\n      tag_628\n        /* \"#utility.yul\":12699:12703   */\n      dup2\n        /* \"#utility.yul\":12573:12704   */\n      tag_461\n      jump\t// in\n    tag_628:\n        /* \"#utility.yul\":12565:12704   */\n      swap1\n      pop\n        /* \"#utility.yul\":12292:12711   */\n      swap2\n      swap1\n      pop\n      jump\t// out\n        /* \"#utility.yul\":12717:12897   */\n    tag_462:\n        /* \"#utility.yul\":12765:12842   */\n      0x4e487b7100000000000000000000000000000000000000000000000000000000\n        /* \"#utility.yul\":12762:12763   */\n      0x00\n        /* \"#utility.yul\":12755:12843   */\n      mstore\n        /* \"#utility.yul\":12862:12866   */\n      0x11\n        /* \"#utility.yul\":12859:12860   */\n      0x04\n        /* \"#utility.yul\":12852:12867   */\n      mstore\n        /* \"#utility.yul\":12886:12890   */\n      0x24\n        /* \"#utility.yul\":12883:12884   */\n      0x00\n        /* \"#utility.yul\":12876:12891   */\n      revert\n        /* \"#utility.yul\":12903:13005   */\n    tag_463:\n        /* \"#utility.yul\":12945:12953   */\n      0x00\n        /* \"#utility.yul\":12992:12997   */\n      dup2\n        /* \"#utility.yul\":12989:12990   */\n      0x01\n        /* \"#utility.yul\":12985:12998   */\n      shr\n        /* \"#utility.yul\":12964:12998   */\n      swap1\n      pop\n        /* \"#utility.yul\":12903:13005   */\n      swap2\n      swap1\n      pop\n      jump\t// out\n        /* \"#utility.yul\":13011:13859   */\n    tag_464:\n        /* \"#utility.yul\":13072:13077   */\n      0x00\n        /* \"#utility.yul\":13079:13083   */\n      dup1\n        /* \"#utility.yul\":13103:13109   */\n      dup3\n        /* \"#utility.yul\":13094:13109   */\n      swap2\n      pop\n        /* \"#utility.yul\":13127:13132   */\n      dup4\n        /* \"#utility.yul\":13118:13132   */\n      swap1\n      pop\n        /* \"#utility.yul\":13141:13853   */\n    tag_632:\n        /* \"#utility.yul\":13162:13163   */\n      0x01\n        /* \"#utility.yul\":13152:13160   */\n      dup6\n        /* \"#utility.yul\":13149:13164   */\n      gt\n        /* \"#utility.yul\":13141:13853   */\n      iszero\n      tag_634\n      jumpi\n        /* \"#utility.yul\":13257:13261   */\n      dup1\n        /* \"#utility.yul\":13252:13255   */\n      dup7\n        /* \"#utility.yul\":13248:13262   */\n      div\n        /* \"#utility.yul\":13242:13246   */\n      dup2\n        /* \"#utility.yul\":13239:13263   */\n      gt\n        /* \"#utility.yul\":13236:13286   */\n      iszero\n      tag_635\n      jumpi\n        /* \"#utility.yul\":13266:13284   */\n      tag_636\n      tag_462\n      jump\t// in\n    tag_636:\n        /* \"#utility.yul\":13236:13286   */\n    tag_635:\n        /* \"#utility.yul\":13316:13317   */\n      0x01\n        /* \"#utility.yul\":13306:13314   */\n      dup6\n        /* \"#utility.yul\":13302:13318   */\n      and\n        /* \"#utility.yul\":13299:13750   */\n      iszero\n      tag_637\n      jumpi\n        /* \"#utility.yul\":13731:13735   */\n      dup1\n        /* \"#utility.yul\":13724:13729   */\n      dup3\n        /* \"#utility.yul\":13720:13736   */\n      mul\n        /* \"#utility.yul\":13711:13736   */\n      swap2\n      pop\n        /* \"#utility.yul\":13299:13750   */\n    tag_637:\n        /* \"#utility.yul\":13781:13785   */\n      dup1\n        /* \"#utility.yul\":13775:13779   */\n      dup2\n        /* \"#utility.yul\":13771:13786   */\n      mul\n        /* \"#utility.yul\":13763:13786   */\n      swap1\n      pop\n        /* \"#utility.yul\":13811:13843   */\n      tag_638\n        /* \"#utility.yul\":13834:13842   */\n      dup6\n        /* \"#utility.yul\":13811:13843   */\n      tag_463\n      jump\t// in\n    tag_638:\n        /* \"#utility.yul\":13799:13843   */\n      swap5\n      pop\n        /* \"#utility.yul\":13141:13853   */\n      jump(tag_632)\n    tag_634:\n        /* \"#utility.yul\":13011:13859   */\n      swap5\n      pop\n      swap5\n      swap3\n      pop\n      pop\n      pop\n      jump\t// out\n        /* \"#utility.yul\":13865:14938   */\n    tag_465:\n        /* \"#utility.yul\":13919:13924   */\n      0x00\n        /* \"#utility.yul\":14110:14118   */\n      dup3\n        /* \"#utility.yul\":14100:14140   */\n      tag_640\n      jumpi\n        /* \"#utility.yul\":14131:14132   */\n      0x01\n        /* \"#utility.yul\":14122:14132   */\n      swap1\n      pop\n        /* \"#utility.yul\":14133:14138   */\n      jump(tag_639)\n        /* \"#utility.yul\":14100:14140   */\n    tag_640:\n        /* \"#utility.yul\":14159:14163   */\n      dup2\n        /* \"#utility.yul\":14149:14185   */\n      tag_641\n      jumpi\n        /* \"#utility.yul\":14176:14177   */\n      0x00\n        /* \"#utility.yul\":14167:14177   */\n      swap1\n      pop\n        /* \"#utility.yul\":14178:14183   */\n      jump(tag_639)\n        /* \"#utility.yul\":14149:14185   */\n    tag_641:\n        /* \"#utility.yul\":14245:14249   */\n      dup2\n        /* \"#utility.yul\":14293:14294   */\n      0x01\n        /* \"#utility.yul\":14288:14315   */\n      dup2\n      eq\n      tag_643\n      jumpi\n        /* \"#utility.yul\":14329:14330   */\n      0x02\n        /* \"#utility.yul\":14324:14515   */\n      dup2\n      eq\n      tag_644\n      jumpi\n        /* \"#utility.yul\":14238:14515   */\n      jump(tag_642)\n        /* \"#utility.yul\":14288:14315   */\n    tag_643:\n        /* \"#utility.yul\":14306:14307   */\n      0x01\n        /* \"#utility.yul\":14297:14307   */\n      swap2\n      pop\n        /* \"#utility.yul\":14308:14313   */\n      pop\n      jump(tag_639)\n        /* \"#utility.yul\":14324:14515   */\n    tag_644:\n        /* \"#utility.yul\":14369:14372   */\n      0xff\n        /* \"#utility.yul\":14359:14367   */\n      dup5\n        /* \"#utility.yul\":14356:14373   */\n      gt\n        /* \"#utility.yul\":14353:14396   */\n      iszero\n      tag_645\n      jumpi\n        /* \"#utility.yul\":14376:14394   */\n      tag_646\n      tag_462\n      jump\t// in\n    tag_646:\n        /* \"#utility.yul\":14353:14396   */\n    tag_645:\n        /* \"#utility.yul\":14425:14433   */\n      dup4\n        /* \"#utility.yul\":14422:14423   */\n      0x02\n        /* \"#utility.yul\":14418:14434   */\n      exp\n        /* \"#utility.yul\":14409:14434   */\n      swap2\n      pop\n        /* \"#utility.yul\":14460:14463   */\n      dup5\n        /* \"#utility.yul\":14453:14458   */\n      dup3\n        /* \"#utility.yul\":14450:14464   */\n      gt\n        /* \"#utility.yul\":14447:14487   */\n      iszero\n      tag_647\n      jumpi\n        /* \"#utility.yul\":14467:14485   */\n      tag_648\n      tag_462\n      jump\t// in\n    tag_648:\n        /* \"#utility.yul\":14447:14487   */\n    tag_647:\n        /* \"#utility.yul\":14500:14505   */\n      pop\n      jump(tag_639)\n        /* \"#utility.yul\":14238:14515   */\n    tag_642:\n      pop\n        /* \"#utility.yul\":14624:14626   */\n      0x20\n        /* \"#utility.yul\":14614:14622   */\n      dup4\n        /* \"#utility.yul\":14611:14627   */\n      lt\n        /* \"#utility.yul\":14605:14608   */\n      0x0133\n        /* \"#utility.yul\":14599:14603   */\n      dup4\n        /* \"#utility.yul\":14596:14609   */\n      lt\n        /* \"#utility.yul\":14592:14628   */\n      and\n        /* \"#utility.yul\":14574:14576   */\n      0x4e\n        /* \"#utility.yul\":14564:14572   */\n      dup5\n        /* \"#utility.yul\":14561:14577   */\n      lt\n        /* \"#utility.yul\":14556:14558   */\n      0x0b\n        /* \"#utility.yul\":14550:14554   */\n      dup5\n        /* \"#utility.yul\":14547:14559   */\n      lt\n        /* \"#utility.yul\":14543:14578   */\n      and\n        /* \"#utility.yul\":14527:14638   */\n      or\n        /* \"#utility.yul\":14524:14770   */\n      iszero\n      tag_649\n      jumpi\n        /* \"#utility.yul\":14680:14688   */\n      dup3\n        /* \"#utility.yul\":14674:14678   */\n      dup3\n        /* \"#utility.yul\":14670:14689   */\n      exp\n        /* \"#utility.yul\":14661:14689   */\n      swap1\n      pop\n        /* \"#utility.yul\":14715:14718   */\n      dup4\n        /* \"#utility.yul\":14708:14713   */\n      dup2\n        /* \"#utility.yul\":14705:14719   */\n      gt\n        /* \"#utility.yul\":14702:14742   */\n      iszero\n      tag_650\n      jumpi\n        /* \"#utility.yul\":14722:14740   */\n      tag_651\n      tag_462\n      jump\t// in\n    tag_651:\n        /* \"#utility.yul\":14702:14742   */\n    tag_650:\n        /* \"#utility.yul\":14755:14760   */\n      jump(tag_639)\n        /* \"#utility.yul\":14524:14770   */\n    tag_649:\n        /* \"#utility.yul\":14795:14837   */\n      tag_652\n        /* \"#utility.yul\":14833:14836   */\n      dup5\n        /* \"#utility.yul\":14823:14831   */\n      dup5\n        /* \"#utility.yul\":14817:14821   */\n      dup5\n        /* \"#utility.yul\":14814:14815   */\n      0x01\n        /* \"#utility.yul\":14795:14837   */\n      tag_464\n      jump\t// in\n    tag_652:\n        /* \"#utility.yul\":14780:14837   */\n      swap3\n      pop\n      swap1\n      pop\n        /* \"#utility.yul\":14869:14873   */\n      dup2\n        /* \"#utility.yul\":14864:14867   */\n      dup5\n        /* \"#utility.yul\":14860:14874   */\n      div\n        /* \"#utility.yul\":14853:14858   */\n      dup2\n        /* \"#utility.yul\":14850:14875   */\n      gt\n        /* \"#utility.yul\":14847:14898   */\n      iszero\n      tag_653\n      jumpi\n        /* \"#utility.yul\":14878:14896   */\n      tag_654\n      tag_462\n      jump\t// in\n    tag_654:\n        /* \"#utility.yul\":14847:14898   */\n    tag_653:\n        /* \"#utility.yul\":14927:14931   */\n      dup2\n        /* \"#utility.yul\":14920:14925   */\n      dup2\n        /* \"#utility.yul\":14916:14932   */\n      mul\n        /* \"#utility.yul\":14907:14932   */\n      swap1\n      pop\n        /* \"#utility.yul\":13865:14938   */\n    tag_639:\n      swap4\n      swap3\n      pop\n      pop\n      pop\n      jump\t// out\n        /* \"#utility.yul\":14944:15229   */\n    tag_180:\n        /* \"#utility.yul\":15004:15009   */\n      0x00\n        /* \"#utility.yul\":15028:15051   */\n      tag_656\n        /* \"#utility.yul\":15046:15050   */\n      dup3\n        /* \"#utility.yul\":15028:15051   */\n      tag_438\n      jump\t// in\n    tag_656:\n        /* \"#utility.yul\":15020:15051   */\n      swap2\n      pop\n        /* \"#utility.yul\":15072:15099   */\n      tag_657\n        /* \"#utility.yul\":15090:15098   */\n      dup4\n        /* \"#utility.yul\":15072:15099   */\n      tag_438\n      jump\t// in\n    tag_657:\n        /* \"#utility.yul\":15060:15099   */\n      swap3\n      pop\n        /* \"#utility.yul\":15118:15222   */\n      tag_658\n        /* \"#utility.yul\":15155:15221   */\n      0xffffffffffffffffffffffffffffffffffffffffffffffffffffffffffffffff\n        /* \"#utility.yul\":15145:15153   */\n      dup5\n        /* \"#utility.yul\":15139:15143   */\n      dup5\n        /* \"#utility.yul\":15118:15222   */\n      tag_465\n      jump\t// in\n    tag_658:\n        /* \"#utility.yul\":15109:15222   */\n      swap1\n      pop\n        /* \"#utility.yul\":14944:15229   */\n      swap3\n      swap2\n      pop\n      pop\n      jump\t// out\n        /* \"#utility.yul\":15235:15645   */\n    tag_182:\n        /* \"#utility.yul\":15275:15282   */\n      0x00\n        /* \"#utility.yul\":15298:15318   */\n      tag_660\n        /* \"#utility.yul\":15316:15317   */\n      dup3\n        /* \"#utility.yul\":15298:15318   */\n      tag_438\n      jump\t// in\n    tag_660:\n        /* \"#utility.yul\":15293:15318   */\n      swap2\n      pop\n        /* \"#utility.yul\":15332:15352   */\n      tag_661\n        /* \"#utility.yul\":15350:15351   */\n      dup4\n        /* \"#utility.yul\":15332:15352   */\n      tag_438\n      jump\t// in\n    tag_661:\n        /* \"#utility.yul\":15327:15352   */\n      swap3\n      pop\n        /* \"#utility.yul\":15387:15388   */\n      dup3\n        /* \"#utility.yul\":15384:15385   */\n      dup3\n        /* \"#utility.yul\":15380:15389   */\n      mul\n        /* \"#utility.yul\":15409:15439   */\n      tag_662\n        /* \"#utility.yul\":15427:15438   */\n      dup2\n        /* \"#utility.yul\":15409:15439   */\n      tag_438\n      jump\t// in\n    tag_662:\n        /* \"#utility.yul\":15398:15439   */\n      swap2\n      pop\n        /* \"#utility.yul\":15588:15589   */\n      dup3\n        /* \"#utility.yul\":15579:15586   */\n      dup3\n        /* \"#utility.yul\":15575:15590   */\n      div\n        /* \"#utility.yul\":15572:15573   */\n      dup5\n        /* \"#utility.yul\":15569:15591   */\n      eq\n        /* \"#utility.yul\":15549:15550   */\n      dup4\n        /* \"#utility.yul\":15542:15551   */\n      iszero\n        /* \"#utility.yul\":15522:15605   */\n      or\n        /* \"#utility.yul\":15499:15638   */\n      tag_663\n      jumpi\n        /* \"#utility.yul\":15618:15636   */\n      tag_664\n      tag_462\n      jump\t// in\n    tag_664:\n        /* \"#utility.yul\":15499:15638   */\n    tag_663:\n        /* \"#utility.yul\":15283:15645   */\n      pop\n        /* \"#utility.yul\":15235:15645   */\n      swap3\n      swap2\n      pop\n      pop\n      jump\t// out\n        /* \"#utility.yul\":15651:15831   */\n    tag_466:\n        /* \"#utility.yul\":15699:15776   */\n      0x4e487b7100000000000000000000000000000000000000000000000000000000\n        /* \"#utility.yul\":15696:15697   */\n      0x00\n        /* \"#utility.yul\":15689:15777   */\n      mstore\n        /* \"#utility.yul\":15796:15800   */\n      0x12\n        /* \"#utility.yul\":15793:15794   */\n      0x04\n        /* \"#utility.yul\":15786:15801   */\n      mstore\n        /* \"#utility.yul\":15820:15824   */\n      0x24\n        /* \"#utility.yul\":15817:15818   */\n      0x00\n        /* \"#utility.yul\":15810:15825   */\n      revert\n        /* \"#utility.yul\":15837:16022   */\n    tag_184:\n        /* \"#utility.yul\":15877:15878   */\n      0x00\n        /* \"#utility.yul\":15894:15914   */\n      tag_667\n        /* \"#utility.yul\":15912:15913   */\n      dup3\n        /* \"#utility.yul\":15894:15914   */\n      tag_438\n      jump\t// in\n    tag_667:\n        /* \"#utility.yul\":15889:15914   */\n      swap2\n      pop\n        /* \"#utility.yul\":15928:15948   */\n      tag_668\n        /* \"#utility.yul\":15946:15947   */\n      dup4\n        /* \"#utility.yul\":15928:15948   */\n      tag_438\n      jump\t// in\n    tag_668:\n        /* \"#utility.yul\":15923:15948   */\n      swap3\n      pop\n        /* \"#utility.yul\":15967:15968   */\n      dup3\n        /* \"#utility.yul\":15957:15992   */\n      tag_669\n      jumpi\n        /* \"#utility.yul\":15972:15990   */\n      tag_670\n      tag_466\n      jump\t// in\n    tag_670:\n        /* \"#utility.yul\":15957:15992   */\n    tag_669:\n        /* \"#utility.yul\":16014:16015   */\n      dup3\n        /* \"#utility.yul\":16011:16012   */\n      dup3\n        /* \"#utility.yul\":16007:16016   */\n      div\n        /* \"#utility.yul\":16002:16016   */\n      swap1\n      pop\n        /* \"#utility.yul\":15837:16022   */\n      swap3\n      swap2\n      pop\n      pop\n      jump\t// out\n        /* \"#utility.yul\":16028:16201   */\n    tag_467:\n        /* \"#utility.yul\":16168:16193   */\n      0x50726573616c653a206973206e6f742073746f70706564000000000000000000\n        /* \"#utility.yul\":16164:16165   */\n      0x00\n        /* \"#utility.yul\":16156:16162   */\n      dup3\n        /* \"#utility.yul\":16152:16166   */\n      add\n        /* \"#utility.yul\":16145:16194   */\n      mstore\n        /* \"#utility.yul\":16028:16201   */\n      pop\n      jump\t// out\n        /* \"#utility.yul\":16207:16573   */\n    tag_468:\n        /* \"#utility.yul\":16349:16352   */\n      0x00\n        /* \"#utility.yul\":16370:16437   */\n      tag_673\n        /* \"#utility.yul\":16434:16436   */\n      0x17\n        /* \"#utility.yul\":16429:16432   */\n      dup4\n        /* \"#utility.yul\":16370:16437   */\n      tag_459\n      jump\t// in\n    tag_673:\n        /* \"#utility.yul\":16363:16437   */\n      swap2\n      pop\n        /* \"#utility.yul\":16446:16539   */\n      tag_674\n        /* \"#utility.yul\":16535:16538   */\n      dup3\n        /* \"#utility.yul\":16446:16539   */\n      tag_467\n      jump\t// in\n    tag_674:\n        /* \"#utility.yul\":16564:16566   */\n      0x20\n        /* \"#utility.yul\":16559:16562   */\n      dup3\n        /* \"#utility.yul\":16555:16567   */\n      add\n        /* \"#utility.yul\":16548:16567   */\n      swap1\n      pop\n        /* \"#utility.yul\":16207:16573   */\n      swap2\n      swap1\n      pop\n      jump\t// out\n        /* \"#utility.yul\":16579:16998   */\n    tag_192:\n        /* \"#utility.yul\":16745:16749   */\n      0x00\n        /* \"#utility.yul\":16783:16785   */\n      0x20\n        /* \"#utility.yul\":16772:16781   */\n      dup3\n        /* \"#utility.yul\":16768:16786   */\n      add\n        /* \"#utility.yul\":16760:16786   */\n      swap1\n      pop\n        /* \"#utility.yul\":16832:16841   */\n      dup2\n        /* \"#utility.yul\":16826:16830   */\n      dup2\n        /* \"#utility.yul\":16822:16842   */\n      sub\n        /* \"#utility.yul\":16818:16819   */\n      0x00\n        /* \"#utility.yul\":16807:16816   */\n      dup4\n        /* \"#utility.yul\":16803:16820   */\n      add\n        /* \"#utility.yul\":16796:16843   */\n      mstore\n        /* \"#utility.yul\":16860:16991   */\n      tag_676\n        /* \"#utility.yul\":16986:16990   */\n      dup2\n        /* \"#utility.yul\":16860:16991   */\n      tag_468\n      jump\t// in\n    tag_676:\n        /* \"#utility.yul\":16852:16991   */\n      swap1\n      pop\n        /* \"#utility.yul\":16579:16998   */\n      swap2\n      swap1\n      pop\n      jump\t// out\n        /* \"#utility.yul\":17004:17181   */\n    tag_469:\n        /* \"#utility.yul\":17144:17173   */\n      0x50726573616c653a204e6f20746f6b656e7320746f20636c61696d0000000000\n        /* \"#utility.yul\":17140:17141   */\n      0x00\n        /* \"#utility.yul\":17132:17138   */\n      dup3\n        /* \"#utility.yul\":17128:17142   */\n      add\n        /* \"#utility.yul\":17121:17174   */\n      mstore\n        /* \"#utility.yul\":17004:17181   */\n      pop\n      jump\t// out\n        /* \"#utility.yul\":17187:17553   */\n    tag_470:\n        /* \"#utility.yul\":17329:17332   */\n      0x00\n        /* \"#utility.yul\":17350:17417   */\n      tag_679\n        /* \"#utility.yul\":17414:17416   */\n      0x1b\n        /* \"#utility.yul\":17409:17412   */\n      dup4\n        /* \"#utility.yul\":17350:17417   */\n      tag_459\n      jump\t// in\n    tag_679:\n        /* \"#utility.yul\":17343:17417   */\n      swap2\n      pop\n        /* \"#utility.yul\":17426:17519   */\n      tag_680\n        /* \"#utility.yul\":17515:17518   */\n      dup3\n        /* \"#utility.yul\":17426:17519   */\n      tag_469\n      jump\t// in\n    tag_680:\n        /* \"#utility.yul\":17544:17546   */\n      0x20\n        /* \"#utility.yul\":17539:17542   */\n      dup3\n        /* \"#utility.yul\":17535:17547   */\n      add\n        /* \"#utility.yul\":17528:17547   */\n      swap1\n      pop\n        /* \"#utility.yul\":17187:17553   */\n      swap2\n      swap1\n      pop\n      jump\t// out\n        /* \"#utility.yul\":17559:17978   */\n    tag_196:\n        /* \"#utility.yul\":17725:17729   */\n      0x00\n        /* \"#utility.yul\":17763:17765   */\n      0x20\n        /* \"#utility.yul\":17752:17761   */\n      dup3\n        /* \"#utility.yul\":17748:17766   */\n      add\n        /* \"#utility.yul\":17740:17766   */\n      swap1\n      pop\n        /* \"#utility.yul\":17812:17821   */\n      dup2\n        /* \"#utility.yul\":17806:17810   */\n      dup2\n        /* \"#utility.yul\":17802:17822   */\n      sub\n        /* \"#utility.yul\":17798:17799   */\n      0x00\n        /* \"#utility.yul\":17787:17796   */\n      dup4\n        /* \"#utility.yul\":17783:17800   */\n      add\n        /* \"#utility.yul\":17776:17823   */\n      mstore\n        /* \"#utility.yul\":17840:17971   */\n      tag_682\n        /* \"#utility.yul\":17966:17970   */\n      dup2\n        /* \"#utility.yul\":17840:17971   */\n      tag_470\n      jump\t// in\n    tag_682:\n        /* \"#utility.yul\":17832:17971   */\n      swap1\n      pop\n        /* \"#utility.yul\":17559:17978   */\n      swap2\n      swap1\n      pop\n      jump\t// out\n        /* \"#utility.yul\":17984:18222   */\n    tag_471:\n        /* \"#utility.yul\":18124:18158   */\n      0x50726573616c653a2053746174757320697320616c7265616479207365742074\n        /* \"#utility.yul\":18120:18121   */\n      0x00\n        /* \"#utility.yul\":18112:18118   */\n      dup3\n        /* \"#utility.yul\":18108:18122   */\n      add\n        /* \"#utility.yul\":18101:18159   */\n      mstore\n        /* \"#utility.yul\":18193:18214   */\n      0x6f2074686520646573697265642076616c756500000000000000000000000000\n        /* \"#utility.yul\":18188:18190   */\n      0x20\n        /* \"#utility.yul\":18180:18186   */\n      dup3\n        /* \"#utility.yul\":18176:18191   */\n      add\n        /* \"#utility.yul\":18169:18215   */\n      mstore\n        /* \"#utility.yul\":17984:18222   */\n      pop\n      jump\t// out\n        /* \"#utility.yul\":18228:18594   */\n    tag_472:\n        /* \"#utility.yul\":18370:18373   */\n      0x00\n        /* \"#utility.yul\":18391:18458   */\n      tag_685\n        /* \"#utility.yul\":18455:18457   */\n      0x33\n        /* \"#utility.yul\":18450:18453   */\n      dup4\n        /* \"#utility.yul\":18391:18458   */\n      tag_459\n      jump\t// in\n    tag_685:\n        /* \"#utility.yul\":18384:18458   */\n      swap2\n      pop\n        /* \"#utility.yul\":18467:18560   */\n      tag_686\n        /* \"#utility.yul\":18556:18559   */\n      dup3\n        /* \"#utility.yul\":18467:18560   */\n      tag_471\n      jump\t// in\n    tag_686:\n        /* \"#utility.yul\":18585:18587   */\n      0x40\n        /* \"#utility.yul\":18580:18583   */\n      dup3\n        /* \"#utility.yul\":18576:18588   */\n      add\n        /* \"#utility.yul\":18569:18588   */\n      swap1\n      pop\n        /* \"#utility.yul\":18228:18594   */\n      swap2\n      swap1\n      pop\n      jump\t// out\n        /* \"#utility.yul\":18600:19019   */\n    tag_205:\n        /* \"#utility.yul\":18766:18770   */\n      0x00\n        /* \"#utility.yul\":18804:18806   */\n      0x20\n        /* \"#utility.yul\":18793:18802   */\n      dup3\n        /* \"#utility.yul\":18789:18807   */\n      add\n        /* \"#utility.yul\":18781:18807   */\n      swap1\n      pop\n        /* \"#utility.yul\":18853:18862   */\n      dup2\n        /* \"#utility.yul\":18847:18851   */\n      dup2\n        /* \"#utility.yul\":18843:18863   */\n      sub\n        /* \"#utility.yul\":18839:18840   */\n      0x00\n        /* \"#utility.yul\":18828:18837   */\n      dup4\n        /* \"#utility.yul\":18824:18841   */\n      add\n        /* \"#utility.yul\":18817:18864   */\n      mstore\n        /* \"#utility.yul\":18881:19012   */\n      tag_688\n        /* \"#utility.yul\":19007:19011   */\n      dup2\n        /* \"#utility.yul\":18881:19012   */\n      tag_472\n      jump\t// in\n    tag_688:\n        /* \"#utility.yul\":18873:19012   */\n      swap1\n      pop\n        /* \"#utility.yul\":18600:19019   */\n      swap2\n      swap1\n      pop\n      jump\t// out\n        /* \"#utility.yul\":19025:19259   */\n    tag_473:\n        /* \"#utility.yul\":19165:19199   */\n      0x50726573616c653a20746f6b656e732026207072696365732061727261797320\n        /* \"#utility.yul\":19161:19162   */\n      0x00\n        /* \"#utility.yul\":19153:19159   */\n      dup3\n        /* \"#utility.yul\":19149:19163   */\n      add\n        /* \"#utility.yul\":19142:19200   */\n      mstore\n        /* \"#utility.yul\":19234:19251   */\n      0x6c656e677468206d69736d617463680000000000000000000000000000000000\n        /* \"#utility.yul\":19229:19231   */\n      0x20\n        /* \"#utility.yul\":19221:19227   */\n      dup3\n        /* \"#utility.yul\":19217:19232   */\n      add\n        /* \"#utility.yul\":19210:19252   */\n      mstore\n        /* \"#utility.yul\":19025:19259   */\n      pop\n      jump\t// out\n        /* \"#utility.yul\":19265:19631   */\n    tag_474:\n        /* \"#utility.yul\":19407:19410   */\n      0x00\n        /* \"#utility.yul\":19428:19495   */\n      tag_691\n        /* \"#utility.yul\":19492:19494   */\n      0x2f\n        /* \"#utility.yul\":19487:19490   */\n      dup4\n        /* \"#utility.yul\":19428:19495   */\n      tag_459\n      jump\t// in\n    tag_691:\n        /* \"#utility.yul\":19421:19495   */\n      swap2\n      pop\n        /* \"#utility.yul\":19504:19597   */\n      tag_692\n        /* \"#utility.yul\":19593:19596   */\n      dup3\n        /* \"#utility.yul\":19504:19597   */\n      tag_473\n      jump\t// in\n    tag_692:\n        /* \"#utility.yul\":19622:19624   */\n      0x40\n        /* \"#utility.yul\":19617:19620   */\n      dup3\n        /* \"#utility.yul\":19613:19625   */\n      add\n        /* \"#utility.yul\":19606:19625   */\n      swap1\n      pop\n        /* \"#utility.yul\":19265:19631   */\n      swap2\n      swap1\n      pop\n      jump\t// out\n        /* \"#utility.yul\":19637:20056   */\n    tag_211:\n        /* \"#utility.yul\":19803:19807   */\n      0x00\n        /* \"#utility.yul\":19841:19843   */\n      0x20\n        /* \"#utility.yul\":19830:19839   */\n      dup3\n        /* \"#utility.yul\":19826:19844   */\n      add\n        /* \"#utility.yul\":19818:19844   */\n      swap1\n      pop\n        /* \"#utility.yul\":19890:19899   */\n      dup2\n        /* \"#utility.yul\":19884:19888   */\n      dup2\n        /* \"#utility.yul\":19880:19900   */\n      sub\n        /* \"#utility.yul\":19876:19877   */\n      0x00\n        /* \"#utility.yul\":19865:19874   */\n      dup4\n        /* \"#utility.yul\":19861:19878   */\n      add\n        /* \"#utility.yul\":19854:19901   */\n      mstore\n        /* \"#utility.yul\":19918:20049   */\n      tag_694\n        /* \"#utility.yul\":20044:20048   */\n      dup2\n        /* \"#utility.yul\":19918:20049   */\n      tag_474\n      jump\t// in\n    tag_694:\n        /* \"#utility.yul\":19910:20049   */\n      swap1\n      pop\n        /* \"#utility.yul\":19637:20056   */\n      swap2\n      swap1\n      pop\n      jump\t// out\n        /* \"#utility.yul\":20062:20242   */\n    tag_218:\n        /* \"#utility.yul\":20110:20187   */\n      0x4e487b7100000000000000000000000000000000000000000000000000000000\n        /* \"#utility.yul\":20107:20108   */\n      0x00\n        /* \"#utility.yul\":20100:20188   */\n      mstore\n        /* \"#utility.yul\":20207:20211   */\n      0x32\n        /* \"#utility.yul\":20204:20205   */\n      0x04\n        /* \"#utility.yul\":20197:20212   */\n      mstore\n        /* \"#utility.yul\":20231:20235   */\n      0x24\n        /* \"#utility.yul\":20228:20229   */\n      0x00\n        /* \"#utility.yul\":20221:20236   */\n      revert\n        /* \"#utility.yul\":20248:20472   */\n    tag_475:\n        /* \"#utility.yul\":20388:20422   */\n      0x50726573616c653a20546f6b656e206973206e6f7420612070617961626c6520\n        /* \"#utility.yul\":20384:20385   */\n      0x00\n        /* \"#utility.yul\":20376:20382   */\n      dup3\n        /* \"#utility.yul\":20372:20386   */\n      add\n        /* \"#utility.yul\":20365:20423   */\n      mstore\n        /* \"#utility.yul\":20457:20464   */\n      0x746f6b656e000000000000000000000000000000000000000000000000000000\n        /* \"#utility.yul\":20452:20454   */\n      0x20\n        /* \"#utility.yul\":20444:20450   */\n      dup3\n        /* \"#utility.yul\":20440:20455   */\n      add\n        /* \"#utility.yul\":20433:20465   */\n      mstore\n        /* \"#utility.yul\":20248:20472   */\n      pop\n      jump\t// out\n        /* \"#utility.yul\":20478:20844   */\n    tag_476:\n        /* \"#utility.yul\":20620:20623   */\n      0x00\n        /* \"#utility.yul\":20641:20708   */\n      tag_698\n        /* \"#utility.yul\":20705:20707   */\n      0x25\n        /* \"#utility.yul\":20700:20703   */\n      dup4\n        /* \"#utility.yul\":20641:20708   */\n      tag_459\n      jump\t// in\n    tag_698:\n        /* \"#utility.yul\":20634:20708   */\n      swap2\n      pop\n        /* \"#utility.yul\":20717:20810   */\n      tag_699\n        /* \"#utility.yul\":20806:20809   */\n      dup3\n        /* \"#utility.yul\":20717:20810   */\n      tag_475\n      jump\t// in\n    tag_699:\n        /* \"#utility.yul\":20835:20837   */\n      0x40\n        /* \"#utility.yul\":20830:20833   */\n      dup3\n        /* \"#utility.yul\":20826:20838   */\n      add\n        /* \"#utility.yul\":20819:20838   */\n      swap1\n      pop\n        /* \"#utility.yul\":20478:20844   */\n      swap2\n      swap1\n      pop\n      jump\t// out\n        /* \"#utility.yul\":20850:21269   */\n    tag_221:\n        /* \"#utility.yul\":21016:21020   */\n      0x00\n        /* \"#utility.yul\":21054:21056   */\n      0x20\n        /* \"#utility.yul\":21043:21052   */\n      dup3\n        /* \"#utility.yul\":21039:21057   */\n      add\n        /* \"#utility.yul\":21031:21057   */\n      swap1\n      pop\n        /* \"#utility.yul\":21103:21112   */\n      dup2\n        /* \"#utility.yul\":21097:21101   */\n      dup2\n        /* \"#utility.yul\":21093:21113   */\n      sub\n        /* \"#utility.yul\":21089:21090   */\n      0x00\n        /* \"#utility.yul\":21078:21087   */\n      dup4\n        /* \"#utility.yul\":21074:21091   */\n      add\n        /* \"#utility.yul\":21067:21114   */\n      mstore\n        /* \"#utility.yul\":21131:21262   */\n      tag_701\n        /* \"#utility.yul\":21257:21261   */\n      dup2\n        /* \"#utility.yul\":21131:21262   */\n      tag_476\n      jump\t// in\n    tag_701:\n        /* \"#utility.yul\":21123:21262   */\n      swap1\n      pop\n        /* \"#utility.yul\":20850:21269   */\n      swap2\n      swap1\n      pop\n      jump\t// out\n        /* \"#utility.yul\":21275:21454   */\n    tag_477:\n        /* \"#utility.yul\":21415:21446   */\n      0x50726573616c653a2050726963652063616e6e6f74206265207a65726f000000\n        /* \"#utility.yul\":21411:21412   */\n      0x00\n        /* \"#utility.yul\":21403:21409   */\n      dup3\n        /* \"#utility.yul\":21399:21413   */\n      add\n        /* \"#utility.yul\":21392:21447   */\n      mstore\n        /* \"#utility.yul\":21275:21454   */\n      pop\n      jump\t// out\n        /* \"#utility.yul\":21460:21826   */\n    tag_478:\n        /* \"#utility.yul\":21602:21605   */\n      0x00\n        /* \"#utility.yul\":21623:21690   */\n      tag_704\n        /* \"#utility.yul\":21687:21689   */\n      0x1d\n        /* \"#utility.yul\":21682:21685   */\n      dup4\n        /* \"#utility.yul\":21623:21690   */\n      tag_459\n      jump\t// in\n    tag_704:\n        /* \"#utility.yul\":21616:21690   */\n      swap2\n      pop\n        /* \"#utility.yul\":21699:21792   */\n      tag_705\n        /* \"#utility.yul\":21788:21791   */\n      dup3\n        /* \"#utility.yul\":21699:21792   */\n      tag_477\n      jump\t// in\n    tag_705:\n        /* \"#utility.yul\":21817:21819   */\n      0x20\n        /* \"#utility.yul\":21812:21815   */\n      dup3\n        /* \"#utility.yul\":21808:21820   */\n      add\n        /* \"#utility.yul\":21801:21820   */\n      swap1\n      pop\n        /* \"#utility.yul\":21460:21826   */\n      swap2\n      swap1\n      pop\n      jump\t// out\n        /* \"#utility.yul\":21832:22251   */\n    tag_226:\n        /* \"#utility.yul\":21998:22002   */\n      0x00\n        /* \"#utility.yul\":22036:22038   */\n      0x20\n        /* \"#utility.yul\":22025:22034   */\n      dup3\n        /* \"#utility.yul\":22021:22039   */\n      add\n        /* \"#utility.yul\":22013:22039   */\n      swap1\n      pop\n        /* \"#utility.yul\":22085:22094   */\n      dup2\n        /* \"#utility.yul\":22079:22083   */\n      dup2\n        /* \"#utility.yul\":22075:22095   */\n      sub\n        /* \"#utility.yul\":22071:22072   */\n      0x00\n        /* \"#utility.yul\":22060:22069   */\n      dup4\n        /* \"#utility.yul\":22056:22073   */\n      add\n        /* \"#utility.yul\":22049:22096   */\n      mstore\n        /* \"#utility.yul\":22113:22244   */\n      tag_707\n        /* \"#utility.yul\":22239:22243   */\n      dup2\n        /* \"#utility.yul\":22113:22244   */\n      tag_478\n      jump\t// in\n    tag_707:\n        /* \"#utility.yul\":22105:22244   */\n      swap1\n      pop\n        /* \"#utility.yul\":21832:22251   */\n      swap2\n      swap1\n      pop\n      jump\t// out\n        /* \"#utility.yul\":22257:22448   */\n    tag_232:\n        /* \"#utility.yul\":22297:22300   */\n      0x00\n        /* \"#utility.yul\":22316:22336   */\n      tag_709\n        /* \"#utility.yul\":22334:22335   */\n      dup3\n        /* \"#utility.yul\":22316:22336   */\n      tag_438\n      jump\t// in\n    tag_709:\n        /* \"#utility.yul\":22311:22336   */\n      swap2\n      pop\n        /* \"#utility.yul\":22350:22370   */\n      tag_710\n        /* \"#utility.yul\":22368:22369   */\n      dup4\n        /* \"#utility.yul\":22350:22370   */\n      tag_438\n      jump\t// in\n    tag_710:\n        /* \"#utility.yul\":22345:22370   */\n      swap3\n      pop\n        /* \"#utility.yul\":22393:22394   */\n      dup3\n        /* \"#utility.yul\":22390:22391   */\n      dup3\n        /* \"#utility.yul\":22386:22395   */\n      add\n        /* \"#utility.yul\":22379:22395   */\n      swap1\n      pop\n        /* \"#utility.yul\":22414:22417   */\n      dup1\n        /* \"#utility.yul\":22411:22412   */\n      dup3\n        /* \"#utility.yul\":22408:22418   */\n      gt\n        /* \"#utility.yul\":22405:22441   */\n      iszero\n      tag_711\n      jumpi\n        /* \"#utility.yul\":22421:22439   */\n      tag_712\n      tag_462\n      jump\t// in\n    tag_712:\n        /* \"#utility.yul\":22405:22441   */\n    tag_711:\n        /* \"#utility.yul\":22257:22448   */\n      swap3\n      swap2\n      pop\n      pop\n      jump\t// out\n        /* \"#utility.yul\":22454:22687   */\n    tag_260:\n        /* \"#utility.yul\":22493:22496   */\n      0x00\n        /* \"#utility.yul\":22516:22540   */\n      tag_714\n        /* \"#utility.yul\":22534:22539   */\n      dup3\n        /* \"#utility.yul\":22516:22540   */\n      tag_438\n      jump\t// in\n    tag_714:\n        /* \"#utility.yul\":22507:22540   */\n      swap2\n      pop\n        /* \"#utility.yul\":22562:22628   */\n      0xffffffffffffffffffffffffffffffffffffffffffffffffffffffffffffffff\n        /* \"#utility.yul\":22555:22560   */\n      dup3\n        /* \"#utility.yul\":22552:22629   */\n      sub\n        /* \"#utility.yul\":22549:22652   */\n      tag_715\n      jumpi\n        /* \"#utility.yul\":22632:22650   */\n      tag_716\n      tag_462\n      jump\t// in\n    tag_716:\n        /* \"#utility.yul\":22549:22652   */\n    tag_715:\n        /* \"#utility.yul\":22679:22680   */\n      0x01\n        /* \"#utility.yul\":22672:22677   */\n      dup3\n        /* \"#utility.yul\":22668:22681   */\n      add\n        /* \"#utility.yul\":22661:22681   */\n      swap1\n      pop\n        /* \"#utility.yul\":22454:22687   */\n      swap2\n      swap1\n      pop\n      jump\t// out\n        /* \"#utility.yul\":22693:22866   */\n    tag_479:\n        /* \"#utility.yul\":22833:22858   */\n      0x50726573616c653a206973206e6f7420656e61626c6564000000000000000000\n        /* \"#utility.yul\":22829:22830   */\n      0x00\n        /* \"#utility.yul\":22821:22827   */\n      dup3\n        /* \"#utility.yul\":22817:22831   */\n      add\n        /* \"#utility.yul\":22810:22859   */\n      mstore\n        /* \"#utility.yul\":22693:22866   */\n      pop\n      jump\t// out\n        /* \"#utility.yul\":22872:23238   */\n    tag_480:\n        /* \"#utility.yul\":23014:23017   */\n      0x00\n        /* \"#utility.yul\":23035:23102   */\n      tag_719\n        /* \"#utility.yul\":23099:23101   */\n      0x17\n        /* \"#utility.yul\":23094:23097   */\n      dup4\n        /* \"#utility.yul\":23035:23102   */\n      tag_459\n      jump\t// in\n    tag_719:\n        /* \"#utility.yul\":23028:23102   */\n      swap2\n      pop\n        /* \"#utility.yul\":23111:23204   */\n      tag_720\n        /* \"#utility.yul\":23200:23203   */\n      dup3\n        /* \"#utility.yul\":23111:23204   */\n      tag_479\n      jump\t// in\n    tag_720:\n        /* \"#utility.yul\":23229:23231   */\n      0x20\n        /* \"#utility.yul\":23224:23227   */\n      dup3\n        /* \"#utility.yul\":23220:23232   */\n      add\n        /* \"#utility.yul\":23213:23232   */\n      swap1\n      pop\n        /* \"#utility.yul\":22872:23238   */\n      swap2\n      swap1\n      pop\n      jump\t// out\n        /* \"#utility.yul\":23244:23663   */\n    tag_283:\n        /* \"#utility.yul\":23410:23414   */\n      0x00\n        /* \"#utility.yul\":23448:23450   */\n      0x20\n        /* \"#utility.yul\":23437:23446   */\n      dup3\n        /* \"#utility.yul\":23433:23451   */\n      add\n        /* \"#utility.yul\":23425:23451   */\n      swap1\n      pop\n        /* \"#utility.yul\":23497:23506   */\n      dup2\n        /* \"#utility.yul\":23491:23495   */\n      dup2\n        /* \"#utility.yul\":23487:23507   */\n      sub\n        /* \"#utility.yul\":23483:23484   */\n      0x00\n        /* \"#utility.yul\":23472:23481   */\n      dup4\n        /* \"#utility.yul\":23468:23485   */\n      add\n        /* \"#utility.yul\":23461:23508   */\n      mstore\n        /* \"#utility.yul\":23525:23656   */\n      tag_722\n        /* \"#utility.yul\":23651:23655   */\n      dup2\n        /* \"#utility.yul\":23525:23656   */\n      tag_480\n      jump\t// in\n    tag_722:\n        /* \"#utility.yul\":23517:23656   */\n      swap1\n      pop\n        /* \"#utility.yul\":23244:23663   */\n      swap2\n      swap1\n      pop\n      jump\t// out\n        /* \"#utility.yul\":23669:23893   */\n    tag_481:\n        /* \"#utility.yul\":23809:23843   */\n      0x50726573616c653a204e6f7420656e6f75676820746f6b656e7320746f206265\n        /* \"#utility.yul\":23805:23806   */\n      0x00\n        /* \"#utility.yul\":23797:23803   */\n      dup3\n        /* \"#utility.yul\":23793:23807   */\n      add\n        /* \"#utility.yul\":23786:23844   */\n      mstore\n        /* \"#utility.yul\":23878:23885   */\n      0x2073616c65000000000000000000000000000000000000000000000000000000\n        /* \"#utility.yul\":23873:23875   */\n      0x20\n        /* \"#utility.yul\":23865:23871   */\n      dup3\n        /* \"#utility.yul\":23861:23876   */\n      add\n        /* \"#utility.yul\":23854:23886   */\n      mstore\n        /* \"#utility.yul\":23669:23893   */\n      pop\n      jump\t// out\n        /* \"#utility.yul\":23899:24265   */\n    tag_482:\n        /* \"#utility.yul\":24041:24044   */\n      0x00\n        /* \"#utility.yul\":24062:24129   */\n      tag_725\n        /* \"#utility.yul\":24126:24128   */\n      0x25\n        /* \"#utility.yul\":24121:24124   */\n      dup4\n        /* \"#utility.yul\":24062:24129   */\n      tag_459\n      jump\t// in\n    tag_725:\n        /* \"#utility.yul\":24055:24129   */\n      swap2\n      pop\n        /* \"#utility.yul\":24138:24231   */\n      tag_726\n        /* \"#utility.yul\":24227:24230   */\n      dup3\n        /* \"#utility.yul\":24138:24231   */\n      tag_481\n      jump\t// in\n    tag_726:\n        /* \"#utility.yul\":24256:24258   */\n      0x40\n        /* \"#utility.yul\":24251:24254   */\n      dup3\n        /* \"#utility.yul\":24247:24259   */\n      add\n        /* \"#utility.yul\":24240:24259   */\n      swap1\n      pop\n        /* \"#utility.yul\":23899:24265   */\n      swap2\n      swap1\n      pop\n      jump\t// out\n        /* \"#utility.yul\":24271:24690   */\n    tag_292:\n        /* \"#utility.yul\":24437:24441   */\n      0x00\n        /* \"#utility.yul\":24475:24477   */\n      0x20\n        /* \"#utility.yul\":24464:24473   */\n      dup3\n        /* \"#utility.yul\":24460:24478   */\n      add\n        /* \"#utility.yul\":24452:24478   */\n      swap1\n      pop\n        /* \"#utility.yul\":24524:24533   */\n      dup2\n        /* \"#utility.yul\":24518:24522   */\n      dup2\n        /* \"#utility.yul\":24514:24534   */\n      sub\n        /* \"#utility.yul\":24510:24511   */\n      0x00\n        /* \"#utility.yul\":24499:24508   */\n      dup4\n        /* \"#utility.yul\":24495:24512   */\n      add\n        /* \"#utility.yul\":24488:24535   */\n      mstore\n        /* \"#utility.yul\":24552:24683   */\n      tag_728\n        /* \"#utility.yul\":24678:24682   */\n      dup2\n        /* \"#utility.yul\":24552:24683   */\n      tag_482\n      jump\t// in\n    tag_728:\n        /* \"#utility.yul\":24544:24683   */\n      swap1\n      pop\n        /* \"#utility.yul\":24271:24690   */\n      swap2\n      swap1\n      pop\n      jump\t// out\n        /* \"#utility.yul\":24696:24921   */\n    tag_483:\n        /* \"#utility.yul\":24836:24870   */\n      0x50726573616c653a20416d6f756e74206d757374206265206772656174657220\n        /* \"#utility.yul\":24832:24833   */\n      0x00\n        /* \"#utility.yul\":24824:24830   */\n      dup3\n        /* \"#utility.yul\":24820:24834   */\n      add\n        /* \"#utility.yul\":24813:24871   */\n      mstore\n        /* \"#utility.yul\":24905:24913   */\n      0x7468616e20300000000000000000000000000000000000000000000000000000\n        /* \"#utility.yul\":24900:24902   */\n      0x20\n        /* \"#utility.yul\":24892:24898   */\n      dup3\n        /* \"#utility.yul\":24888:24903   */\n      add\n        /* \"#utility.yul\":24881:24914   */\n      mstore\n        /* \"#utility.yul\":24696:24921   */\n      pop\n      jump\t// out\n        /* \"#utility.yul\":24927:25293   */\n    tag_484:\n        /* \"#utility.yul\":25069:25072   */\n      0x00\n        /* \"#utility.yul\":25090:25157   */\n      tag_731\n        /* \"#utility.yul\":25154:25156   */\n      0x26\n        /* \"#utility.yul\":25149:25152   */\n      dup4\n        /* \"#utility.yul\":25090:25157   */\n      tag_459\n      jump\t// in\n    tag_731:\n        /* \"#utility.yul\":25083:25157   */\n      swap2\n      pop\n        /* \"#utility.yul\":25166:25259   */\n      tag_732\n        /* \"#utility.yul\":25255:25258   */\n      dup3\n        /* \"#utility.yul\":25166:25259   */\n      tag_483\n      jump\t// in\n    tag_732:\n        /* \"#utility.yul\":25284:25286   */\n      0x40\n        /* \"#utility.yul\":25279:25282   */\n      dup3\n        /* \"#utility.yul\":25275:25287   */\n      add\n        /* \"#utility.yul\":25268:25287   */\n      swap1\n      pop\n        /* \"#utility.yul\":24927:25293   */\n      swap2\n      swap1\n      pop\n      jump\t// out\n        /* \"#utility.yul\":25299:25718   */\n    tag_296:\n        /* \"#utility.yul\":25465:25469   */\n      0x00\n        /* \"#utility.yul\":25503:25505   */\n      0x20\n        /* \"#utility.yul\":25492:25501   */\n      dup3\n        /* \"#utility.yul\":25488:25506   */\n      add\n        /* \"#utility.yul\":25480:25506   */\n      swap1\n      pop\n        /* \"#utility.yul\":25552:25561   */\n      dup2\n        /* \"#utility.yul\":25546:25550   */\n      dup2\n        /* \"#utility.yul\":25542:25562   */\n      sub\n        /* \"#utility.yul\":25538:25539   */\n      0x00\n        /* \"#utility.yul\":25527:25536   */\n      dup4\n        /* \"#utility.yul\":25523:25540   */\n      add\n        /* \"#utility.yul\":25516:25563   */\n      mstore\n        /* \"#utility.yul\":25580:25711   */\n      tag_734\n        /* \"#utility.yul\":25706:25710   */\n      dup2\n        /* \"#utility.yul\":25580:25711   */\n      tag_484\n      jump\t// in\n    tag_734:\n        /* \"#utility.yul\":25572:25711   */\n      swap1\n      pop\n        /* \"#utility.yul\":25299:25718   */\n      swap2\n      swap1\n      pop\n      jump\t// out\n        /* \"#utility.yul\":25724:25918   */\n    tag_320:\n        /* \"#utility.yul\":25764:25768   */\n      0x00\n        /* \"#utility.yul\":25784:25804   */\n      tag_736\n        /* \"#utility.yul\":25802:25803   */\n      dup3\n        /* \"#utility.yul\":25784:25804   */\n      tag_438\n      jump\t// in\n    tag_736:\n        /* \"#utility.yul\":25779:25804   */\n      swap2\n      pop\n        /* \"#utility.yul\":25818:25838   */\n      tag_737\n        /* \"#utility.yul\":25836:25837   */\n      dup4\n        /* \"#utility.yul\":25818:25838   */\n      tag_438\n      jump\t// in\n    tag_737:\n        /* \"#utility.yul\":25813:25838   */\n      swap3\n      pop\n        /* \"#utility.yul\":25862:25863   */\n      dup3\n        /* \"#utility.yul\":25859:25860   */\n      dup3\n        /* \"#utility.yul\":25855:25864   */\n      sub\n        /* \"#utility.yul\":25847:25864   */\n      swap1\n      pop\n        /* \"#utility.yul\":25886:25887   */\n      dup2\n        /* \"#utility.yul\":25880:25884   */\n      dup2\n        /* \"#utility.yul\":25877:25888   */\n      gt\n        /* \"#utility.yul\":25874:25911   */\n      iszero\n      tag_738\n      jumpi\n        /* \"#utility.yul\":25891:25909   */\n      tag_739\n      tag_462\n      jump\t// in\n    tag_739:\n        /* \"#utility.yul\":25874:25911   */\n    tag_738:\n        /* \"#utility.yul\":25724:25918   */\n      swap3\n      swap2\n      pop\n      pop\n      jump\t// out\n        /* \"#utility.yul\":25924:26067   */\n    tag_485:\n        /* \"#utility.yul\":25981:25986   */\n      0x00\n        /* \"#utility.yul\":26012:26018   */\n      dup2\n        /* \"#utility.yul\":26006:26019   */\n      mload\n        /* \"#utility.yul\":25997:26019   */\n      swap1\n      pop\n        /* \"#utility.yul\":26028:26061   */\n      tag_741\n        /* \"#utility.yul\":26055:26060   */\n      dup2\n        /* \"#utility.yul\":26028:26061   */\n      tag_439\n      jump\t// in\n    tag_741:\n        /* \"#utility.yul\":25924:26067   */\n      swap3\n      swap2\n      pop\n      pop\n      jump\t// out\n        /* \"#utility.yul\":26073:26424   */\n    tag_336:\n        /* \"#utility.yul\":26143:26149   */\n      0x00\n        /* \"#utility.yul\":26192:26194   */\n      0x20\n        /* \"#utility.yul\":26180:26189   */\n      dup3\n        /* \"#utility.yul\":26171:26178   */\n      dup5\n        /* \"#utility.yul\":26167:26190   */\n      sub\n        /* \"#utility.yul\":26163:26195   */\n      slt\n        /* \"#utility.yul\":26160:26279   */\n      iszero\n      tag_743\n      jumpi\n        /* \"#utility.yul\":26198:26277   */\n      tag_744\n      tag_432\n      jump\t// in\n    tag_744:\n        /* \"#utility.yul\":26160:26279   */\n    tag_743:\n        /* \"#utility.yul\":26318:26319   */\n      0x00\n        /* \"#utility.yul\":26343:26407   */\n      tag_745\n        /* \"#utility.yul\":26399:26406   */\n      dup5\n        /* \"#utility.yul\":26390:26396   */\n      dup3\n        /* \"#utility.yul\":26379:26388   */\n      dup6\n        /* \"#utility.yul\":26375:26397   */\n      add\n        /* \"#utility.yul\":26343:26407   */\n      tag_485\n      jump\t// in\n    tag_745:\n        /* \"#utility.yul\":26333:26407   */\n      swap2\n      pop\n        /* \"#utility.yul\":26289:26417   */\n      pop\n        /* \"#utility.yul\":26073:26424   */\n      swap3\n      swap2\n      pop\n      pop\n      jump\t// out\n        /* \"#utility.yul\":26430:26762   */\n    tag_338:\n        /* \"#utility.yul\":26551:26555   */\n      0x00\n        /* \"#utility.yul\":26589:26591   */\n      0x40\n        /* \"#utility.yul\":26578:26587   */\n      dup3\n        /* \"#utility.yul\":26574:26592   */\n      add\n        /* \"#utility.yul\":26566:26592   */\n      swap1\n      pop\n        /* \"#utility.yul\":26602:26673   */\n      tag_747\n        /* \"#utility.yul\":26670:26671   */\n      0x00\n        /* \"#utility.yul\":26659:26668   */\n      dup4\n        /* \"#utility.yul\":26655:26672   */\n      add\n        /* \"#utility.yul\":26646:26652   */\n      dup6\n        /* \"#utility.yul\":26602:26673   */\n      tag_458\n      jump\t// in\n    tag_747:\n        /* \"#utility.yul\":26683:26755   */\n      tag_748\n        /* \"#utility.yul\":26751:26753   */\n      0x20\n        /* \"#utility.yul\":26740:26749   */\n      dup4\n        /* \"#utility.yul\":26736:26754   */\n      add\n        /* \"#utility.yul\":26727:26733   */\n      dup5\n        /* \"#utility.yul\":26683:26755   */\n      tag_441\n      jump\t// in\n    tag_748:\n        /* \"#utility.yul\":26430:26762   */\n      swap4\n      swap3\n      pop\n      pop\n      pop\n      jump\t// out\n        /* \"#utility.yul\":26768:26905   */\n    tag_486:\n        /* \"#utility.yul\":26822:26827   */\n      0x00\n        /* \"#utility.yul\":26853:26859   */\n      dup2\n        /* \"#utility.yul\":26847:26860   */\n      mload\n        /* \"#utility.yul\":26838:26860   */\n      swap1\n      pop\n        /* \"#utility.yul\":26869:26899   */\n      tag_750\n        /* \"#utility.yul\":26893:26898   */\n      dup2\n        /* \"#utility.yul\":26869:26899   */\n      tag_443\n      jump\t// in\n    tag_750:\n        /* \"#utility.yul\":26768:26905   */\n      swap3\n      swap2\n      pop\n      pop\n      jump\t// out\n        /* \"#utility.yul\":26911:27256   */\n    tag_342:\n        /* \"#utility.yul\":26978:26984   */\n      0x00\n        /* \"#utility.yul\":27027:27029   */\n      0x20\n        /* \"#utility.yul\":27015:27024   */\n      dup3\n        /* \"#utility.yul\":27006:27013   */\n      dup5\n        /* \"#utility.yul\":27002:27025   */\n      sub\n        /* \"#utility.yul\":26998:27030   */\n      slt\n        /* \"#utility.yul\":26995:27114   */\n      iszero\n      tag_752\n      jumpi\n        /* \"#utility.yul\":27033:27112   */\n      tag_753\n      tag_432\n      jump\t// in\n    tag_753:\n        /* \"#utility.yul\":26995:27114   */\n    tag_752:\n        /* \"#utility.yul\":27153:27154   */\n      0x00\n        /* \"#utility.yul\":27178:27239   */\n      tag_754\n        /* \"#utility.yul\":27231:27238   */\n      dup5\n        /* \"#utility.yul\":27222:27228   */\n      dup3\n        /* \"#utility.yul\":27211:27220   */\n      dup6\n        /* \"#utility.yul\":27207:27229   */\n      add\n        /* \"#utility.yul\":27178:27239   */\n      tag_486\n      jump\t// in\n    tag_754:\n        /* \"#utility.yul\":27168:27239   */\n      swap2\n      pop\n        /* \"#utility.yul\":27124:27249   */\n      pop\n        /* \"#utility.yul\":26911:27256   */\n      swap3\n      swap2\n      pop\n      pop\n      jump\t// out\n        /* \"#utility.yul\":27262:27440   */\n    tag_487:\n        /* \"#utility.yul\":27402:27432   */\n      0x50726573616c653a20526174652063616e6e6f74206265207a65726f00000000\n        /* \"#utility.yul\":27398:27399   */\n      0x00\n        /* \"#utility.yul\":27390:27396   */\n      dup3\n        /* \"#utility.yul\":27386:27400   */\n      add\n        /* \"#utility.yul\":27379:27433   */\n      mstore\n        /* \"#utility.yul\":27262:27440   */\n      pop\n      jump\t// out\n        /* \"#utility.yul\":27446:27812   */\n    tag_488:\n        /* \"#utility.yul\":27588:27591   */\n      0x00\n        /* \"#utility.yul\":27609:27676   */\n      tag_757\n        /* \"#utility.yul\":27673:27675   */\n      0x1c\n        /* \"#utility.yul\":27668:27671   */\n      dup4\n        /* \"#utility.yul\":27609:27676   */\n      tag_459\n      jump\t// in\n    tag_757:\n        /* \"#utility.yul\":27602:27676   */\n      swap2\n      pop\n        /* \"#utility.yul\":27685:27778   */\n      tag_758\n        /* \"#utility.yul\":27774:27777   */\n      dup3\n        /* \"#utility.yul\":27685:27778   */\n      tag_487\n      jump\t// in\n    tag_758:\n        /* \"#utility.yul\":27803:27805   */\n      0x20\n        /* \"#utility.yul\":27798:27801   */\n      dup3\n        /* \"#utility.yul\":27794:27806   */\n      add\n        /* \"#utility.yul\":27787:27806   */\n      swap1\n      pop\n        /* \"#utility.yul\":27446:27812   */\n      swap2\n      swap1\n      pop\n      jump\t// out\n        /* \"#utility.yul\":27818:28237   */\n    tag_348:\n        /* \"#utility.yul\":27984:27988   */\n      0x00\n        /* \"#utility.yul\":28022:28024   */\n      0x20\n        /* \"#utility.yul\":28011:28020   */\n      dup3\n        /* \"#utility.yul\":28007:28025   */\n      add\n        /* \"#utility.yul\":27999:28025   */\n      swap1\n      pop\n        /* \"#utility.yul\":28071:28080   */\n      dup2\n        /* \"#utility.yul\":28065:28069   */\n      dup2\n        /* \"#utility.yul\":28061:28081   */\n      sub\n        /* \"#utility.yul\":28057:28058   */\n      0x00\n        /* \"#utility.yul\":28046:28055   */\n      dup4\n        /* \"#utility.yul\":28042:28059   */\n      add\n        /* \"#utility.yul\":28035:28082   */\n      mstore\n        /* \"#utility.yul\":28099:28230   */\n      tag_760\n        /* \"#utility.yul\":28225:28229   */\n      dup2\n        /* \"#utility.yul\":28099:28230   */\n      tag_488\n      jump\t// in\n    tag_760:\n        /* \"#utility.yul\":28091:28230   */\n      swap1\n      pop\n        /* \"#utility.yul\":27818:28237   */\n      swap2\n      swap1\n      pop\n      jump\t// out\n        /* \"#utility.yul\":28243:28329   */\n    tag_489:\n        /* \"#utility.yul\":28278:28285   */\n      0x00\n        /* \"#utility.yul\":28318:28322   */\n      0xff\n        /* \"#utility.yul\":28311:28316   */\n      dup3\n        /* \"#utility.yul\":28307:28323   */\n      and\n        /* \"#utility.yul\":28296:28323   */\n      swap1\n      pop\n        /* \"#utility.yul\":28243:28329   */\n      swap2\n      swap1\n      pop\n      jump\t// out\n        /* \"#utility.yul\":28335:28453   */\n    tag_490:\n        /* \"#utility.yul\":28406:28428   */\n      tag_763\n        /* \"#utility.yul\":28422:28427   */\n      dup2\n        /* \"#utility.yul\":28406:28428   */\n      tag_489\n      jump\t// in\n    tag_763:\n        /* \"#utility.yul\":28399:28404   */\n      dup2\n        /* \"#utility.yul\":28396:28429   */\n      eq\n        /* \"#utility.yul\":28386:28447   */\n      tag_764\n      jumpi\n        /* \"#utility.yul\":28443:28444   */\n      0x00\n        /* \"#utility.yul\":28440:28441   */\n      dup1\n        /* \"#utility.yul\":28433:28445   */\n      revert\n        /* \"#utility.yul\":28386:28447   */\n    tag_764:\n        /* \"#utility.yul\":28335:28453   */\n      pop\n      jump\t// out\n        /* \"#utility.yul\":28459:28598   */\n    tag_491:\n        /* \"#utility.yul\":28514:28519   */\n      0x00\n        /* \"#utility.yul\":28545:28551   */\n      dup2\n        /* \"#utility.yul\":28539:28552   */\n      mload\n        /* \"#utility.yul\":28530:28552   */\n      swap1\n      pop\n        /* \"#utility.yul\":28561:28592   */\n      tag_766\n        /* \"#utility.yul\":28586:28591   */\n      dup2\n        /* \"#utility.yul\":28561:28592   */\n      tag_490\n      jump\t// in\n    tag_766:\n        /* \"#utility.yul\":28459:28598   */\n      swap3\n      swap2\n      pop\n      pop\n      jump\t// out\n        /* \"#utility.yul\":28604:28951   */\n    tag_352:\n        /* \"#utility.yul\":28672:28678   */\n      0x00\n        /* \"#utility.yul\":28721:28723   */\n      0x20\n        /* \"#utility.yul\":28709:28718   */\n      dup3\n        /* \"#utility.yul\":28700:28707   */\n      dup5\n        /* \"#utility.yul\":28696:28719   */\n      sub\n        /* \"#utility.yul\":28692:28724   */\n      slt\n        /* \"#utility.yul\":28689:28808   */\n      iszero\n      tag_768\n      jumpi\n        /* \"#utility.yul\":28727:28806   */\n      tag_769\n      tag_432\n      jump\t// in\n    tag_769:\n        /* \"#utility.yul\":28689:28808   */\n    tag_768:\n        /* \"#utility.yul\":28847:28848   */\n      0x00\n        /* \"#utility.yul\":28872:28934   */\n      tag_770\n        /* \"#utility.yul\":28926:28933   */\n      dup5\n        /* \"#utility.yul\":28917:28923   */\n      dup3\n        /* \"#utility.yul\":28906:28915   */\n      dup6\n        /* \"#utility.yul\":28902:28924   */\n      add\n        /* \"#utility.yul\":28872:28934   */\n      tag_491\n      jump\t// in\n    tag_770:\n        /* \"#utility.yul\":28862:28934   */\n      swap2\n      pop\n        /* \"#utility.yul\":28818:28944   */\n      pop\n        /* \"#utility.yul\":28604:28951   */\n      swap3\n      swap2\n      pop\n      pop\n      jump\t// out\n        /* \"#utility.yul\":28957:29399   */\n    tag_418:\n        /* \"#utility.yul\":29106:29110   */\n      0x00\n        /* \"#utility.yul\":29144:29146   */\n      0x60\n        /* \"#utility.yul\":29133:29142   */\n      dup3\n        /* \"#utility.yul\":29129:29147   */\n      add\n        /* \"#utility.yul\":29121:29147   */\n      swap1\n      pop\n        /* \"#utility.yul\":29157:29228   */\n      tag_772\n        /* \"#utility.yul\":29225:29226   */\n      0x00\n        /* \"#utility.yul\":29214:29223   */\n      dup4\n        /* \"#utility.yul\":29210:29227   */\n      add\n        /* \"#utility.yul\":29201:29207   */\n      dup7\n        /* \"#utility.yul\":29157:29228   */\n      tag_458\n      jump\t// in\n    tag_772:\n        /* \"#utility.yul\":29238:29310   */\n      tag_773\n        /* \"#utility.yul\":29306:29308   */\n      0x20\n        /* \"#utility.yul\":29295:29304   */\n      dup4\n        /* \"#utility.yul\":29291:29309   */\n      add\n        /* \"#utility.yul\":29282:29288   */\n      dup6\n        /* \"#utility.yul\":29238:29310   */\n      tag_458\n      jump\t// in\n    tag_773:\n        /* \"#utility.yul\":29320:29392   */\n      tag_774\n        /* \"#utility.yul\":29388:29390   */\n      0x40\n        /* \"#utility.yul\":29377:29386   */\n      dup4\n        /* \"#utility.yul\":29373:29391   */\n      add\n        /* \"#utility.yul\":29364:29370   */\n      dup5\n        /* \"#utility.yul\":29320:29392   */\n      tag_441\n      jump\t// in\n    tag_774:\n        /* \"#utility.yul\":28957:29399   */\n      swap5\n      swap4\n      pop\n      pop\n      pop\n      pop\n      jump\t// out\n\n    auxdata: 0xa2646970667358221220ee6780f313f9827010f0e5c7dd537092c40c9f90b22190734ad684b80db7c54764736f6c63430008140033\n}\n",
				"bytecode": {
					"linkReferences": {},
					"object": "608060405234801562000010575f80fd5b50335f73ffffffffffffffffffffffffffffffffffffffff168173ffffffffffffffffffffffffffffffffffffffff160362000085575f6040517f1e4fbdf70000000000000000000000000000000000000000000000000000000081526004016200007c9190620001ba565b60405180910390fd5b6200009681620000b660201b60201c565b505f60065f6101000a81548160ff021916908315150217905550620001d5565b5f805f9054906101000a900473ffffffffffffffffffffffffffffffffffffffff169050815f806101000a81548173ffffffffffffffffffffffffffffffffffffffff021916908373ffffffffffffffffffffffffffffffffffffffff1602179055508173ffffffffffffffffffffffffffffffffffffffff168173ffffffffffffffffffffffffffffffffffffffff167f8be0079c531659141344cd1fd0a4f28419497f9722a3daafe3b4186f6b6457e060405160405180910390a35050565b5f73ffffffffffffffffffffffffffffffffffffffff82169050919050565b5f620001a28262000177565b9050919050565b620001b48162000196565b82525050565b5f602082019050620001cf5f830184620001a9565b92915050565b61301b80620001e35f395ff3fe6080604052600436106101d7575f3560e01c8063715018a611610101578063e36b0b3711610094578063f3fef3a311610063578063f3fef3a31461060d578063f4739ee314610635578063f9020e3314610675578063fa09e6301461069f576101d7565b8063e36b0b3714610569578063e985e3671461057f578063f2aa8218146105a9578063f2fde38b146105e5576101d7565b80639ae2fd34116100d05780639ae2fd34146104d9578063a01bd50c146104ef578063a282637314610517578063ace1741c1461053f576101d7565b8063715018a61461042157806380655eef14610437578063828b7953146104735780638da5cb5b146104af576101d7565b806333e364cb1161017957806363b201171161014857806363b2011714610389578063641579a6146103b357806368f8fc10146103db5780636bcedf9c146103f7576101d7565b806333e364cb1461030d5780633c00a36c146103235780635413c1c81461034b5780635e0be60714610373576101d7565b8063204120bc116101b5578063204120bc1461025757806329d429a8146102935780632c4e722e146102bb5780633115329e146102e5576101d7565b8063115ece4c146101db57806318a24b5b146102175780631b3ed7221461022d575b5f80fd5b3480156101e6575f80fd5b5061020160048036038101906101fc91906120f1565b6106c7565b60405161020e919061213e565b60405180910390f35b348015610222575f80fd5b5061022b61082e565b005b348015610238575f80fd5b5061024161090e565b60405161024e919061213e565b60405180910390f35b348015610262575f80fd5b5061027d60048036038101906102789190612157565b610914565b60405161028a919061213e565b60405180910390f35b34801561029e575f80fd5b506102b960048036038101906102b491906121b7565b610929565b005b3480156102c6575f80fd5b506102cf610a18565b6040516102dc919061213e565b60405180910390f35b3480156102f0575f80fd5b5061030b60048036038101906103069190612405565b610a1e565b005b348015610318575f80fd5b50610321610c1a565b005b34801561032e575f80fd5b506103496004803603810190610344919061248d565b610c3e565b005b348015610356575f80fd5b50610371600480360381019061036c91906124b8565b610c8d565b005b34801561037e575f80fd5b50610387610e3d565b005b348015610394575f80fd5b5061039d610f02565b6040516103aa919061213e565b60405180910390f35b3480156103be575f80fd5b506103d960048036038101906103d4919061248d565b610f08565b005b6103f560048036038101906103f091906120f1565b610f22565b005b348015610402575f80fd5b5061040b611257565b604051610418919061213e565b60405180910390f35b34801561042c575f80fd5b5061043561125d565b005b348015610442575f80fd5b5061045d60048036038101906104589190612157565b611270565b60405161046a919061253d565b60405180910390f35b34801561047e575f80fd5b5061049960048036038101906104949190612157565b61128d565b6040516104a6919061213e565b60405180910390f35b3480156104ba575f80fd5b506104c36113ac565b6040516104d09190612565565b60405180910390f35b3480156104e4575f80fd5b506104ed6113d3565b005b3480156104fa575f80fd5b506105156004803603810190610510919061257e565b611572565b005b348015610522575f80fd5b5061053d6004803603810190610538919061248d565b611718565b005b34801561054a575f80fd5b50610553611789565b604051610560919061213e565b60405180910390f35b348015610574575f80fd5b5061057d61178f565b005b34801561058a575f80fd5b506105936117b2565b6040516105a09190612565565b60405180910390f35b3480156105b4575f80fd5b506105cf60048036038101906105ca919061248d565b6117d7565b6040516105dc9190612565565b60405180910390f35b3480156105f0575f80fd5b5061060b60048036038101906106069190612157565b611812565b005b348015610618575f80fd5b50610633600480360381019061062e91906120f1565b611896565b005b348015610640575f80fd5b5061065b60048036038101906106569190612157565b6118cd565b60405161066c9594939291906125f5565b60405180910390f35b348015610680575f80fd5b50610689611918565b604051610696919061253d565b60405180910390f35b3480156106aa575f80fd5b506106c560048036038101906106c09190612157565b61192a565b005b5f805f73ffffffffffffffffffffffffffffffffffffffff168473ffffffffffffffffffffffffffffffffffffffff16146107fa576001151560095f8673ffffffffffffffffffffffffffffffffffffffff1673ffffffffffffffffffffffffffffffffffffffff1681526020019081526020015f205f9054906101000a900460ff1615151461078c576040517f08c379a0000000000000000000000000000000000000000000000000000000008152600401610783906126a0565b60405180910390fd5b5f600b5f8673ffffffffffffffffffffffffffffffffffffffff1673ffffffffffffffffffffffffffffffffffffffff1681526020019081526020015f2054905080600454600a6107dd919061281a565b856107e89190612864565b6107f291906128d2565b915050610824565b600254600454600a61080c919061281a565b846108179190612864565b61082191906128d2565b90505b8091505092915050565b5f151560065f9054906101000a900460ff16151514610882576040517f08c379a00000000000000000000000000000000000000000000000000000000081526004016108799061294c565b60405180910390fd5b5f600a5f3373ffffffffffffffffffffffffffffffffffffffff1673ffffffffffffffffffffffffffffffffffffffff1681526020019081526020015f205f015411610903576040517f08c379a00000000000000000000000000000000000000000000000000000000081526004016108fa906129b4565b60405180910390fd5b61090c336119bb565b565b60015481565b600b602052805f5260405f205f915090505481565b610931611b7d565b80151560095f8473ffffffffffffffffffffffffffffffffffffffff1673ffffffffffffffffffffffffffffffffffffffff1681526020019081526020015f205f9054906101000a900460ff161515036109c0576040517f08c379a00000000000000000000000000000000000000000000000000000000081526004016109b790612a42565b60405180910390fd5b8060095f8473ffffffffffffffffffffffffffffffffffffffff1673ffffffffffffffffffffffffffffffffffffffff1681526020019081526020015f205f6101000a81548160ff0219169083151502179055505050565b60025481565b610a26611b7d565b8151835114610a6a576040517f08c379a0000000000000000000000000000000000000000000000000000000008152600401610a6190612ad0565b60405180910390fd5b5f8114610a7957806002819055505b5f5b8351811015610c14576001151560095f868481518110610a9e57610a9d612aee565b5b602002602001015173ffffffffffffffffffffffffffffffffffffffff1673ffffffffffffffffffffffffffffffffffffffff1681526020019081526020015f205f9054906101000a900460ff16151514610b2e576040517f08c379a0000000000000000000000000000000000000000000000000000000008152600401610b2590612b8b565b60405180910390fd5b5f838281518110610b4257610b41612aee565b5b602002602001015103610b8a576040517f08c379a0000000000000000000000000000000000000000000000000000000008152600401610b8190612bf3565b60405180910390fd5b828181518110610b9d57610b9c612aee565b5b6020026020010151600b5f868481518110610bbb57610bba612aee565b5b602002602001015173ffffffffffffffffffffffffffffffffffffffff1673ffffffffffffffffffffffffffffffffffffffff1681526020019081526020015f2081905550600181610c0d9190612c11565b9050610a7b565b50505050565b610c22611b7d565b600160065f6101000a81548160ff021916908315150217905550565b610c46611b7d565b3373ffffffffffffffffffffffffffffffffffffffff166108fc8290811502906040515f60405180830381858888f19350505050158015610c89573d5f803e3d5ffd5b5050565b610c95611b7d565b8051825114610cd9576040517f08c379a0000000000000000000000000000000000000000000000000000000008152600401610cd090612ad0565b60405180910390fd5b5f5b8251811015610e38575f828281518110610cf857610cf7612aee565b5b602002602001015103610d40576040517f08c379a0000000000000000000000000000000000000000000000000000000008152600401610d3790612bf3565b60405180910390fd5b600160095f858481518110610d5857610d57612aee565b5b602002602001015173ffffffffffffffffffffffffffffffffffffffff1673ffffffffffffffffffffffffffffffffffffffff1681526020019081526020015f205f6101000a81548160ff021916908315150217905550818181518110610dc257610dc1612aee565b5b6020026020010151600b5f858481518110610de057610ddf612aee565b5b602002602001015173ffffffffffffffffffffffffffffffffffffffff1673ffffffffffffffffffffffffffffffffffffffff1681526020019081526020015f20819055508080610e3090612c44565b915050610cdb565b505050565b610e45611b7d565b5f151560065f9054906101000a900460ff16151514610e99576040517f08c379a0000000000000000000000000000000000000000000000000000000008152600401610e909061294c565b60405180910390fd5b5f5b600780549050811015610eff57610eec60078281548110610ebf57610ebe612aee565b5b905f5260205f20015f9054906101000a900473ffffffffffffffffffffffffffffffffffffffff166119bb565b8080610ef790612c44565b915050610e9b565b50565b60085481565b610f10611b7d565b610f18611c04565b8060018190555050565b6001151560065f9054906101000a900460ff16151514610f77576040517f08c379a0000000000000000000000000000000000000000000000000000000008152600401610f6e90612cd5565b60405180910390fd5b5f8073ffffffffffffffffffffffffffffffffffffffff168373ffffffffffffffffffffffffffffffffffffffff1603610fba57610fb55f346106c7565b610fc5565b610fc483836106c7565b5b905060055481600854610fd89190612c11565b10611018576040517f08c379a000000000000000000000000000000000000000000000000000000000815260040161100f90612d63565b60405180910390fd5b5f73ffffffffffffffffffffffffffffffffffffffff168373ffffffffffffffffffffffffffffffffffffffff16146110c6575f821161108d576040517f08c379a000000000000000000000000000000000000000000000000000000000815260040161108490612df1565b60405180910390fd5b6110c1336110996113ac565b848673ffffffffffffffffffffffffffffffffffffffff16611def909392919063ffffffff16565b611112565b6110ce6113ac565b73ffffffffffffffffffffffffffffffffffffffff166108fc3490811502906040515f60405180830381858888f19350505050158015611110573d5f803e3d5ffd5b505b8060085f8282546111239190612c11565b925050819055505f600a5f3373ffffffffffffffffffffffffffffffffffffffff1673ffffffffffffffffffffffffffffffffffffffff1681526020019081526020015f209050806001015f9054906101000a900460ff1661120057600733908060018154018082558091505060019003905f5260205f20015f9091909190916101000a81548173ffffffffffffffffffffffffffffffffffffffff021916908373ffffffffffffffffffffffffffffffffffffffff1602179055506001816001015f6101000a81548160ff02191690831515021790555061122f565b5f815f0154111561122e576112143361128d565b816002015f8282546112269190612c11565b925050819055505b5b81815f015f8282546112419190612c11565b9250508190555042816003018190555050505050565b60055481565b611265611b7d565b61126e5f611e71565b565b6009602052805f5260405f205f915054906101000a900460ff1681565b5f80600a5f8473ffffffffffffffffffffffffffffffffffffffff1673ffffffffffffffffffffffffffffffffffffffff1681526020019081526020015f205f0154036112dc575f90506113a7565b5f62015180600a5f8573ffffffffffffffffffffffffffffffffffffffff1673ffffffffffffffffffffffffffffffffffffffff1681526020019081526020015f20600301544261132d9190612e0f565b61133791906128d2565b90505f61271082600154600a5f8873ffffffffffffffffffffffffffffffffffffffff1673ffffffffffffffffffffffffffffffffffffffff1681526020019081526020015f205f015461138b9190612864565b6113959190612864565b61139f91906128d2565b905080925050505b919050565b5f805f9054906101000a900473ffffffffffffffffffffffffffffffffffffffff16905090565b6113db611b7d565b5f151560065f9054906101000a900460ff1615151461142f576040517f08c379a00000000000000000000000000000000000000000000000000000000081526004016114269061294c565b60405180910390fd5b5f60035f9054906101000a900473ffffffffffffffffffffffffffffffffffffffff1673ffffffffffffffffffffffffffffffffffffffff166370a08231306040518263ffffffff1660e01b815260040161148a9190612565565b602060405180830381865afa1580156114a5573d5f803e3d5ffd5b505050506040513d601f19601f820116820180604052508101906114c99190612e56565b905060035f9054906101000a900473ffffffffffffffffffffffffffffffffffffffff1673ffffffffffffffffffffffffffffffffffffffff1663a9059cbb33836040518363ffffffff1660e01b8152600401611527929190612e81565b6020604051808303815f875af1158015611543573d5f803e3d5ffd5b505050506040513d601f19601f820116820180604052508101906115679190612ebc565b505f60058190555050565b61157a611b7d565b5f83036115bc576040517f08c379a00000000000000000000000000000000000000000000000000000000081526004016115b390612f31565b60405180910390fd5b826002819055508460035f6101000a81548173ffffffffffffffffffffffffffffffffffffffff021916908373ffffffffffffffffffffffffffffffffffffffff1602179055508060065f6101000a81548160ff02191690831515021790555060035f9054906101000a900473ffffffffffffffffffffffffffffffffffffffff1673ffffffffffffffffffffffffffffffffffffffff1663313ce5676040518163ffffffff1660e01b8152600401602060405180830381865afa158015611686573d5f803e3d5ffd5b505050506040513d601f19601f820116820180604052508101906116aa9190612f85565b60ff166004819055508360058190555081600181905550611711333060055460035f9054906101000a900473ffffffffffffffffffffffffffffffffffffffff1673ffffffffffffffffffffffffffffffffffffffff16611def909392919063ffffffff16565b5050505050565b611720611b7d565b8060055f8282546117319190612c11565b9250508190555061178633308360035f9054906101000a900473ffffffffffffffffffffffffffffffffffffffff1673ffffffffffffffffffffffffffffffffffffffff16611def909392919063ffffffff16565b50565b60045481565b611797611b7d565b5f60065f6101000a81548160ff021916908315150217905550565b60035f9054906101000a900473ffffffffffffffffffffffffffffffffffffffff1681565b600781815481106117e6575f80fd5b905f5260205f20015f915054906101000a900473ffffffffffffffffffffffffffffffffffffffff1681565b61181a611b7d565b5f73ffffffffffffffffffffffffffffffffffffffff168173ffffffffffffffffffffffffffffffffffffffff160361188a575f6040517f1e4fbdf70000000000000000000000000000000000000000000000000000000081526004016118819190612565565b60405180910390fd5b61189381611e71565b50565b61189e611b7d565b6118c933828473ffffffffffffffffffffffffffffffffffffffff16611f329092919063ffffffff16565b5050565b600a602052805f5260405f205f91509050805f015490806001015f9054906101000a900460ff16908060010160019054906101000a900460ff16908060020154908060030154905085565b60065f9054906101000a900460ff1681565b611932611b7d565b5f8173ffffffffffffffffffffffffffffffffffffffff166370a08231306040518263ffffffff1660e01b815260040161196c9190612565565b602060405180830381865afa158015611987573d5f803e3d5ffd5b505050506040513d601f19601f820116820180604052508101906119ab9190612e56565b90506119b78282611896565b5050565b5f600a5f8373ffffffffffffffffffffffffffffffffffffffff1673ffffffffffffffffffffffffffffffffffffffff1681526020019081526020015f205f01541115611b7a575f611a0c8261128d565b600a5f8473ffffffffffffffffffffffffffffffffffffffff1673ffffffffffffffffffffffffffffffffffffffff1681526020019081526020015f2060020154600a5f8573ffffffffffffffffffffffffffffffffffffffff1673ffffffffffffffffffffffffffffffffffffffff1681526020019081526020015f205f0154611a979190612c11565b611aa19190612c11565b90505f600a5f8473ffffffffffffffffffffffffffffffffffffffff1673ffffffffffffffffffffffffffffffffffffffff1681526020019081526020015f205f01819055505f600a5f8473ffffffffffffffffffffffffffffffffffffffff1673ffffffffffffffffffffffffffffffffffffffff1681526020019081526020015f2060020181905550611b78828260035f9054906101000a900473ffffffffffffffffffffffffffffffffffffffff1673ffffffffffffffffffffffffffffffffffffffff16611f329092919063ffffffff16565b505b50565b611b85611fb1565b73ffffffffffffffffffffffffffffffffffffffff16611ba36113ac565b73ffffffffffffffffffffffffffffffffffffffff1614611c0257611bc6611fb1565b6040517f118cdaa7000000000000000000000000000000000000000000000000000000008152600401611bf99190612565565b60405180910390fd5b565b5f5b600780549050811015611dec575f600a5f60078481548110611c2b57611c2a612aee565b5b905f5260205f20015f9054906101000a900473ffffffffffffffffffffffffffffffffffffffff1673ffffffffffffffffffffffffffffffffffffffff1673ffffffffffffffffffffffffffffffffffffffff1681526020019081526020015f205f01541115611dd957611cd960078281548110611cac57611cab612aee565b5b905f5260205f20015f9054906101000a900473ffffffffffffffffffffffffffffffffffffffff1661128d565b600a5f60078481548110611cf057611cef612aee565b5b905f5260205f20015f9054906101000a900473ffffffffffffffffffffffffffffffffffffffff1673ffffffffffffffffffffffffffffffffffffffff1673ffffffffffffffffffffffffffffffffffffffff1681526020019081526020015f206002018190555042600a5f60078481548110611d7057611d6f612aee565b5b905f5260205f20015f9054906101000a900473ffffffffffffffffffffffffffffffffffffffff1673ffffffffffffffffffffffffffffffffffffffff1673ffffffffffffffffffffffffffffffffffffffff1681526020019081526020015f20600301819055505b8080611de490612c44565b915050611c06565b50565b611e6b848573ffffffffffffffffffffffffffffffffffffffff166323b872dd868686604051602401611e2493929190612fb0565b604051602081830303815290604052915060e01b6020820180517bffffffffffffffffffffffffffffffffffffffffffffffffffffffff8381831617835250505050611fb8565b50505050565b5f805f9054906101000a900473ffffffffffffffffffffffffffffffffffffffff169050815f806101000a81548173ffffffffffffffffffffffffffffffffffffffff021916908373ffffffffffffffffffffffffffffffffffffffff1602179055508173ffffffffffffffffffffffffffffffffffffffff168173ffffffffffffffffffffffffffffffffffffffff167f8be0079c531659141344cd1fd0a4f28419497f9722a3daafe3b4186f6b6457e060405160405180910390a35050565b611fac838473ffffffffffffffffffffffffffffffffffffffff1663a9059cbb8585604051602401611f65929190612e81565b604051602081830303815290604052915060e01b6020820180517bffffffffffffffffffffffffffffffffffffffffffffffffffffffff8381831617835250505050611fb8565b505050565b5f33905090565b5f8060205f8451602086015f885af180611fd7576040513d5f823e3d81fd5b3d92505f519150505f8214611ff057600181141561200b565b5f8473ffffffffffffffffffffffffffffffffffffffff163b145b1561204d57836040517f5274afe70000000000000000000000000000000000000000000000000000000081526004016120449190612565565b60405180910390fd5b50505050565b5f604051905090565b5f80fd5b5f80fd5b5f73ffffffffffffffffffffffffffffffffffffffff82169050919050565b5f61208d82612064565b9050919050565b61209d81612083565b81146120a7575f80fd5b50565b5f813590506120b881612094565b92915050565b5f819050919050565b6120d0816120be565b81146120da575f80fd5b50565b5f813590506120eb816120c7565b92915050565b5f80604083850312156121075761210661205c565b5b5f612114858286016120aa565b9250506020612125858286016120dd565b9150509250929050565b612138816120be565b82525050565b5f6020820190506121515f83018461212f565b92915050565b5f6020828403121561216c5761216b61205c565b5b5f612179848285016120aa565b91505092915050565b5f8115159050919050565b61219681612182565b81146121a0575f80fd5b50565b5f813590506121b18161218d565b92915050565b5f80604083850312156121cd576121cc61205c565b5b5f6121da858286016120aa565b92505060206121eb858286016121a3565b9150509250929050565b5f80fd5b5f601f19601f8301169050919050565b7f4e487b71000000000000000000000000000000000000000000000000000000005f52604160045260245ffd5b61223f826121f9565b810181811067ffffffffffffffff8211171561225e5761225d612209565b5b80604052505050565b5f612270612053565b905061227c8282612236565b919050565b5f67ffffffffffffffff82111561229b5761229a612209565b5b602082029050602081019050919050565b5f80fd5b5f6122c26122bd84612281565b612267565b905080838252602082019050602084028301858111156122e5576122e46122ac565b5b835b8181101561230e57806122fa88826120aa565b8452602084019350506020810190506122e7565b5050509392505050565b5f82601f83011261232c5761232b6121f5565b5b813561233c8482602086016122b0565b91505092915050565b5f67ffffffffffffffff82111561235f5761235e612209565b5b602082029050602081019050919050565b5f61238261237d84612345565b612267565b905080838252602082019050602084028301858111156123a5576123a46122ac565b5b835b818110156123ce57806123ba88826120dd565b8452602084019350506020810190506123a7565b5050509392505050565b5f82601f8301126123ec576123eb6121f5565b5b81356123fc848260208601612370565b91505092915050565b5f805f6060848603121561241c5761241b61205c565b5b5f84013567ffffffffffffffff81111561243957612438612060565b5b61244586828701612318565b935050602084013567ffffffffffffffff81111561246657612465612060565b5b612472868287016123d8565b9250506040612483868287016120dd565b9150509250925092565b5f602082840312156124a2576124a161205c565b5b5f6124af848285016120dd565b91505092915050565b5f80604083850312156124ce576124cd61205c565b5b5f83013567ffffffffffffffff8111156124eb576124ea612060565b5b6124f785828601612318565b925050602083013567ffffffffffffffff81111561251857612517612060565b5b612524858286016123d8565b9150509250929050565b61253781612182565b82525050565b5f6020820190506125505f83018461252e565b92915050565b61255f81612083565b82525050565b5f6020820190506125785f830184612556565b92915050565b5f805f805f60a086880312156125975761259661205c565b5b5f6125a4888289016120aa565b95505060206125b5888289016120dd565b94505060406125c6888289016120dd565b93505060606125d7888289016120dd565b92505060806125e8888289016121a3565b9150509295509295909350565b5f60a0820190506126085f83018861212f565b612615602083018761252e565b612622604083018661252e565b61262f606083018561212f565b61263c608083018461212f565b9695505050505050565b5f82825260208201905092915050565b7f50726573616c653a20546f6b656e206e6f7420616c6c6f7765640000000000005f82015250565b5f61268a601a83612646565b915061269582612656565b602082019050919050565b5f6020820190508181035f8301526126b78161267e565b9050919050565b7f4e487b71000000000000000000000000000000000000000000000000000000005f52601160045260245ffd5b5f8160011c9050919050565b5f808291508390505b60018511156127405780860481111561271c5761271b6126be565b5b600185161561272b5780820291505b8081029050612739856126eb565b9450612700565b94509492505050565b5f826127585760019050612813565b81612765575f9050612813565b816001811461277b5760028114612785576127b4565b6001915050612813565b60ff841115612797576127966126be565b5b8360020a9150848211156127ae576127ad6126be565b5b50612813565b5060208310610133831016604e8410600b84101617156127e95782820a9050838111156127e4576127e36126be565b5b612813565b6127f684848460016126f7565b9250905081840481111561280d5761280c6126be565b5b81810290505b9392505050565b5f612824826120be565b915061282f836120be565b925061285c7fffffffffffffffffffffffffffffffffffffffffffffffffffffffffffffffff8484612749565b905092915050565b5f61286e826120be565b9150612879836120be565b9250828202612887816120be565b9150828204841483151761289e5761289d6126be565b5b5092915050565b7f4e487b71000000000000000000000000000000000000000000000000000000005f52601260045260245ffd5b5f6128dc826120be565b91506128e7836120be565b9250826128f7576128f66128a5565b5b828204905092915050565b7f50726573616c653a206973206e6f742073746f707065640000000000000000005f82015250565b5f612936601783612646565b915061294182612902565b602082019050919050565b5f6020820190508181035f8301526129638161292a565b9050919050565b7f50726573616c653a204e6f20746f6b656e7320746f20636c61696d00000000005f82015250565b5f61299e601b83612646565b91506129a98261296a565b602082019050919050565b5f6020820190508181035f8301526129cb81612992565b9050919050565b7f50726573616c653a2053746174757320697320616c72656164792073657420745f8201527f6f2074686520646573697265642076616c756500000000000000000000000000602082015250565b5f612a2c603383612646565b9150612a37826129d2565b604082019050919050565b5f6020820190508181035f830152612a5981612a20565b9050919050565b7f50726573616c653a20746f6b656e7320262070726963657320617272617973205f8201527f6c656e677468206d69736d617463680000000000000000000000000000000000602082015250565b5f612aba602f83612646565b9150612ac582612a60565b604082019050919050565b5f6020820190508181035f830152612ae781612aae565b9050919050565b7f4e487b71000000000000000000000000000000000000000000000000000000005f52603260045260245ffd5b7f50726573616c653a20546f6b656e206973206e6f7420612070617961626c65205f8201527f746f6b656e000000000000000000000000000000000000000000000000000000602082015250565b5f612b75602583612646565b9150612b8082612b1b565b604082019050919050565b5f6020820190508181035f830152612ba281612b69565b9050919050565b7f50726573616c653a2050726963652063616e6e6f74206265207a65726f0000005f82015250565b5f612bdd601d83612646565b9150612be882612ba9565b602082019050919050565b5f6020820190508181035f830152612c0a81612bd1565b9050919050565b5f612c1b826120be565b9150612c26836120be565b9250828201905080821115612c3e57612c3d6126be565b5b92915050565b5f612c4e826120be565b91507fffffffffffffffffffffffffffffffffffffffffffffffffffffffffffffffff8203612c8057612c7f6126be565b5b600182019050919050565b7f50726573616c653a206973206e6f7420656e61626c65640000000000000000005f82015250565b5f612cbf601783612646565b9150612cca82612c8b565b602082019050919050565b5f6020820190508181035f830152612cec81612cb3565b9050919050565b7f50726573616c653a204e6f7420656e6f75676820746f6b656e7320746f2062655f8201527f2073616c65000000000000000000000000000000000000000000000000000000602082015250565b5f612d4d602583612646565b9150612d5882612cf3565b604082019050919050565b5f6020820190508181035f830152612d7a81612d41565b9050919050565b7f50726573616c653a20416d6f756e74206d7573742062652067726561746572205f8201527f7468616e20300000000000000000000000000000000000000000000000000000602082015250565b5f612ddb602683612646565b9150612de682612d81565b604082019050919050565b5f6020820190508181035f830152612e0881612dcf565b9050919050565b5f612e19826120be565b9150612e24836120be565b9250828203905081811115612e3c57612e3b6126be565b5b92915050565b5f81519050612e50816120c7565b92915050565b5f60208284031215612e6b57612e6a61205c565b5b5f612e7884828501612e42565b91505092915050565b5f604082019050612e945f830185612556565b612ea1602083018461212f565b9392505050565b5f81519050612eb68161218d565b92915050565b5f60208284031215612ed157612ed061205c565b5b5f612ede84828501612ea8565b91505092915050565b7f50726573616c653a20526174652063616e6e6f74206265207a65726f000000005f82015250565b5f612f1b601c83612646565b9150612f2682612ee7565b602082019050919050565b5f6020820190508181035f830152612f4881612f0f565b9050919050565b5f60ff82169050919050565b612f6481612f4f565b8114612f6e575f80fd5b50565b5f81519050612f7f81612f5b565b92915050565b5f60208284031215612f9a57612f9961205c565b5b5f612fa784828501612f71565b91505092915050565b5f606082019050612fc35f830186612556565b612fd06020830185612556565b612fdd604083018461212f565b94935050505056fea2646970667358221220ee6780f313f9827010f0e5c7dd537092c40c9f90b22190734ad684b80db7c54764736f6c63430008140033",
					"opcodes": "PUSH1 0x80 PUSH1 0x40 MSTORE CALLVALUE DUP1 ISZERO PUSH3 0x10 JUMPI PUSH0 DUP1 REVERT JUMPDEST POP CALLER PUSH0 PUSH20 0xFFFFFFFFFFFFFFFFFFFFFFFFFFFFFFFFFFFFFFFF AND DUP2 PUSH20 0xFFFFFFFFFFFFFFFFFFFFFFFFFFFFFFFFFFFFFFFF AND SUB PUSH3 0x85 JUMPI PUSH0 PUSH1 0x40 MLOAD PUSH32 0x1E4FBDF700000000000000000000000000000000000000000000000000000000 DUP2 MSTORE PUSH1 0x4 ADD PUSH3 0x7C SWAP2 SWAP1 PUSH3 0x1BA JUMP JUMPDEST PUSH1 0x40 MLOAD DUP1 SWAP2 SUB SWAP1 REVERT JUMPDEST PUSH3 0x96 DUP2 PUSH3 0xB6 PUSH1 0x20 SHL PUSH1 0x20 SHR JUMP JUMPDEST POP PUSH0 PUSH1 0x6 PUSH0 PUSH2 0x100 EXP DUP2 SLOAD DUP2 PUSH1 0xFF MUL NOT AND SWAP1 DUP4 ISZERO ISZERO MUL OR SWAP1 SSTORE POP PUSH3 0x1D5 JUMP JUMPDEST PUSH0 DUP1 PUSH0 SWAP1 SLOAD SWAP1 PUSH2 0x100 EXP SWAP1 DIV PUSH20 0xFFFFFFFFFFFFFFFFFFFFFFFFFFFFFFFFFFFFFFFF AND SWAP1 POP DUP2 PUSH0 DUP1 PUSH2 0x100 EXP DUP2 SLOAD DUP2 PUSH20 0xFFFFFFFFFFFFFFFFFFFFFFFFFFFFFFFFFFFFFFFF MUL NOT AND SWAP1 DUP4 PUSH20 0xFFFFFFFFFFFFFFFFFFFFFFFFFFFFFFFFFFFFFFFF AND MUL OR SWAP1 SSTORE POP DUP2 PUSH20 0xFFFFFFFFFFFFFFFFFFFFFFFFFFFFFFFFFFFFFFFF AND DUP2 PUSH20 0xFFFFFFFFFFFFFFFFFFFFFFFFFFFFFFFFFFFFFFFF AND PUSH32 0x8BE0079C531659141344CD1FD0A4F28419497F9722A3DAAFE3B4186F6B6457E0 PUSH1 0x40 MLOAD PUSH1 0x40 MLOAD DUP1 SWAP2 SUB SWAP1 LOG3 POP POP JUMP JUMPDEST PUSH0 PUSH20 0xFFFFFFFFFFFFFFFFFFFFFFFFFFFFFFFFFFFFFFFF DUP3 AND SWAP1 POP SWAP2 SWAP1 POP JUMP JUMPDEST PUSH0 PUSH3 0x1A2 DUP3 PUSH3 0x177 JUMP JUMPDEST SWAP1 POP SWAP2 SWAP1 POP JUMP JUMPDEST PUSH3 0x1B4 DUP2 PUSH3 0x196 JUMP JUMPDEST DUP3 MSTORE POP POP JUMP JUMPDEST PUSH0 PUSH1 0x20 DUP3 ADD SWAP1 POP PUSH3 0x1CF PUSH0 DUP4 ADD DUP5 PUSH3 0x1A9 JUMP JUMPDEST SWAP3 SWAP2 POP POP JUMP JUMPDEST PUSH2 0x301B DUP1 PUSH3 0x1E3 PUSH0 CODECOPY PUSH0 RETURN INVALID PUSH1 0x80 PUSH1 0x40 MSTORE PUSH1 0x4 CALLDATASIZE LT PUSH2 0x1D7 JUMPI PUSH0 CALLDATALOAD PUSH1 0xE0 SHR DUP1 PUSH4 0x715018A6 GT PUSH2 0x101 JUMPI DUP1 PUSH4 0xE36B0B37 GT PUSH2 0x94 JUMPI DUP1 PUSH4 0xF3FEF3A3 GT PUSH2 0x63 JUMPI DUP1 PUSH4 0xF3FEF3A3 EQ PUSH2 0x60D JUMPI DUP1 PUSH4 0xF4739EE3 EQ PUSH2 0x635 JUMPI DUP1 PUSH4 0xF9020E33 EQ PUSH2 0x675 JUMPI DUP1 PUSH4 0xFA09E630 EQ PUSH2 0x69F JUMPI PUSH2 0x1D7 JUMP JUMPDEST DUP1 PUSH4 0xE36B0B37 EQ PUSH2 0x569 JUMPI DUP1 PUSH4 0xE985E367 EQ PUSH2 0x57F JUMPI DUP1 PUSH4 0xF2AA8218 EQ PUSH2 0x5A9 JUMPI DUP1 PUSH4 0xF2FDE38B EQ PUSH2 0x5E5 JUMPI PUSH2 0x1D7 JUMP JUMPDEST DUP1 PUSH4 0x9AE2FD34 GT PUSH2 0xD0 JUMPI DUP1 PUSH4 0x9AE2FD34 EQ PUSH2 0x4D9 JUMPI DUP1 PUSH4 0xA01BD50C EQ PUSH2 0x4EF JUMPI DUP1 PUSH4 0xA2826373 EQ PUSH2 0x517 JUMPI DUP1 PUSH4 0xACE1741C EQ PUSH2 0x53F JUMPI PUSH2 0x1D7 JUMP JUMPDEST DUP1 PUSH4 0x715018A6 EQ PUSH2 0x421 JUMPI DUP1 PUSH4 0x80655EEF EQ PUSH2 0x437 JUMPI DUP1 PUSH4 0x828B7953 EQ PUSH2 0x473 JUMPI DUP1 PUSH4 0x8DA5CB5B EQ PUSH2 0x4AF JUMPI PUSH2 0x1D7 JUMP JUMPDEST DUP1 PUSH4 0x33E364CB GT PUSH2 0x179 JUMPI DUP1 PUSH4 0x63B20117 GT PUSH2 0x148 JUMPI DUP1 PUSH4 0x63B20117 EQ PUSH2 0x389 JUMPI DUP1 PUSH4 0x641579A6 EQ PUSH2 0x3B3 JUMPI DUP1 PUSH4 0x68F8FC10 EQ PUSH2 0x3DB JUMPI DUP1 PUSH4 0x6BCEDF9C EQ PUSH2 0x3F7 JUMPI PUSH2 0x1D7 JUMP JUMPDEST DUP1 PUSH4 0x33E364CB EQ PUSH2 0x30D JUMPI DUP1 PUSH4 0x3C00A36C EQ PUSH2 0x323 JUMPI DUP1 PUSH4 0x5413C1C8 EQ PUSH2 0x34B JUMPI DUP1 PUSH4 0x5E0BE607 EQ PUSH2 0x373 JUMPI PUSH2 0x1D7 JUMP JUMPDEST DUP1 PUSH4 0x204120BC GT PUSH2 0x1B5 JUMPI DUP1 PUSH4 0x204120BC EQ PUSH2 0x257 JUMPI DUP1 PUSH4 0x29D429A8 EQ PUSH2 0x293 JUMPI DUP1 PUSH4 0x2C4E722E EQ PUSH2 0x2BB JUMPI DUP1 PUSH4 0x3115329E EQ PUSH2 0x2E5 JUMPI PUSH2 0x1D7 JUMP JUMPDEST DUP1 PUSH4 0x115ECE4C EQ PUSH2 0x1DB JUMPI DUP1 PUSH4 0x18A24B5B EQ PUSH2 0x217 JUMPI DUP1 PUSH4 0x1B3ED722 EQ PUSH2 0x22D JUMPI JUMPDEST PUSH0 DUP1 REVERT JUMPDEST CALLVALUE DUP1 ISZERO PUSH2 0x1E6 JUMPI PUSH0 DUP1 REVERT JUMPDEST POP PUSH2 0x201 PUSH1 0x4 DUP1 CALLDATASIZE SUB DUP2 ADD SWAP1 PUSH2 0x1FC SWAP2 SWAP1 PUSH2 0x20F1 JUMP JUMPDEST PUSH2 0x6C7 JUMP JUMPDEST PUSH1 0x40 MLOAD PUSH2 0x20E SWAP2 SWAP1 PUSH2 0x213E JUMP JUMPDEST PUSH1 0x40 MLOAD DUP1 SWAP2 SUB SWAP1 RETURN JUMPDEST CALLVALUE DUP1 ISZERO PUSH2 0x222 JUMPI PUSH0 DUP1 REVERT JUMPDEST POP PUSH2 0x22B PUSH2 0x82E JUMP JUMPDEST STOP JUMPDEST CALLVALUE DUP1 ISZERO PUSH2 0x238 JUMPI PUSH0 DUP1 REVERT JUMPDEST POP PUSH2 0x241 PUSH2 0x90E JUMP JUMPDEST PUSH1 0x40 MLOAD PUSH2 0x24E SWAP2 SWAP1 PUSH2 0x213E JUMP JUMPDEST PUSH1 0x40 MLOAD DUP1 SWAP2 SUB SWAP1 RETURN JUMPDEST CALLVALUE DUP1 ISZERO PUSH2 0x262 JUMPI PUSH0 DUP1 REVERT JUMPDEST POP PUSH2 0x27D PUSH1 0x4 DUP1 CALLDATASIZE SUB DUP2 ADD SWAP1 PUSH2 0x278 SWAP2 SWAP1 PUSH2 0x2157 JUMP JUMPDEST PUSH2 0x914 JUMP JUMPDEST PUSH1 0x40 MLOAD PUSH2 0x28A SWAP2 SWAP1 PUSH2 0x213E JUMP JUMPDEST PUSH1 0x40 MLOAD DUP1 SWAP2 SUB SWAP1 RETURN JUMPDEST CALLVALUE DUP1 ISZERO PUSH2 0x29E JUMPI PUSH0 DUP1 REVERT JUMPDEST POP PUSH2 0x2B9 PUSH1 0x4 DUP1 CALLDATASIZE SUB DUP2 ADD SWAP1 PUSH2 0x2B4 SWAP2 SWAP1 PUSH2 0x21B7 JUMP JUMPDEST PUSH2 0x929 JUMP JUMPDEST STOP JUMPDEST CALLVALUE DUP1 ISZERO PUSH2 0x2C6 JUMPI PUSH0 DUP1 REVERT JUMPDEST POP PUSH2 0x2CF PUSH2 0xA18 JUMP JUMPDEST PUSH1 0x40 MLOAD PUSH2 0x2DC SWAP2 SWAP1 PUSH2 0x213E JUMP JUMPDEST PUSH1 0x40 MLOAD DUP1 SWAP2 SUB SWAP1 RETURN JUMPDEST CALLVALUE DUP1 ISZERO PUSH2 0x2F0 JUMPI PUSH0 DUP1 REVERT JUMPDEST POP PUSH2 0x30B PUSH1 0x4 DUP1 CALLDATASIZE SUB DUP2 ADD SWAP1 PUSH2 0x306 SWAP2 SWAP1 PUSH2 0x2405 JUMP JUMPDEST PUSH2 0xA1E JUMP JUMPDEST STOP JUMPDEST CALLVALUE DUP1 ISZERO PUSH2 0x318 JUMPI PUSH0 DUP1 REVERT JUMPDEST POP PUSH2 0x321 PUSH2 0xC1A JUMP JUMPDEST STOP JUMPDEST CALLVALUE DUP1 ISZERO PUSH2 0x32E JUMPI PUSH0 DUP1 REVERT JUMPDEST POP PUSH2 0x349 PUSH1 0x4 DUP1 CALLDATASIZE SUB DUP2 ADD SWAP1 PUSH2 0x344 SWAP2 SWAP1 PUSH2 0x248D JUMP JUMPDEST PUSH2 0xC3E JUMP JUMPDEST STOP JUMPDEST CALLVALUE DUP1 ISZERO PUSH2 0x356 JUMPI PUSH0 DUP1 REVERT JUMPDEST POP PUSH2 0x371 PUSH1 0x4 DUP1 CALLDATASIZE SUB DUP2 ADD SWAP1 PUSH2 0x36C SWAP2 SWAP1 PUSH2 0x24B8 JUMP JUMPDEST PUSH2 0xC8D JUMP JUMPDEST STOP JUMPDEST CALLVALUE DUP1 ISZERO PUSH2 0x37E JUMPI PUSH0 DUP1 REVERT JUMPDEST POP PUSH2 0x387 PUSH2 0xE3D JUMP JUMPDEST STOP JUMPDEST CALLVALUE DUP1 ISZERO PUSH2 0x394 JUMPI PUSH0 DUP1 REVERT JUMPDEST POP PUSH2 0x39D PUSH2 0xF02 JUMP JUMPDEST PUSH1 0x40 MLOAD PUSH2 0x3AA SWAP2 SWAP1 PUSH2 0x213E JUMP JUMPDEST PUSH1 0x40 MLOAD DUP1 SWAP2 SUB SWAP1 RETURN JUMPDEST CALLVALUE DUP1 ISZERO PUSH2 0x3BE JUMPI PUSH0 DUP1 REVERT JUMPDEST POP PUSH2 0x3D9 PUSH1 0x4 DUP1 CALLDATASIZE SUB DUP2 ADD SWAP1 PUSH2 0x3D4 SWAP2 SWAP1 PUSH2 0x248D JUMP JUMPDEST PUSH2 0xF08 JUMP JUMPDEST STOP JUMPDEST PUSH2 0x3F5 PUSH1 0x4 DUP1 CALLDATASIZE SUB DUP2 ADD SWAP1 PUSH2 0x3F0 SWAP2 SWAP1 PUSH2 0x20F1 JUMP JUMPDEST PUSH2 0xF22 JUMP JUMPDEST STOP JUMPDEST CALLVALUE DUP1 ISZERO PUSH2 0x402 JUMPI PUSH0 DUP1 REVERT JUMPDEST POP PUSH2 0x40B PUSH2 0x1257 JUMP JUMPDEST PUSH1 0x40 MLOAD PUSH2 0x418 SWAP2 SWAP1 PUSH2 0x213E JUMP JUMPDEST PUSH1 0x40 MLOAD DUP1 SWAP2 SUB SWAP1 RETURN JUMPDEST CALLVALUE DUP1 ISZERO PUSH2 0x42C JUMPI PUSH0 DUP1 REVERT JUMPDEST POP PUSH2 0x435 PUSH2 0x125D JUMP JUMPDEST STOP JUMPDEST CALLVALUE DUP1 ISZERO PUSH2 0x442 JUMPI PUSH0 DUP1 REVERT JUMPDEST POP PUSH2 0x45D PUSH1 0x4 DUP1 CALLDATASIZE SUB DUP2 ADD SWAP1 PUSH2 0x458 SWAP2 SWAP1 PUSH2 0x2157 JUMP JUMPDEST PUSH2 0x1270 JUMP JUMPDEST PUSH1 0x40 MLOAD PUSH2 0x46A SWAP2 SWAP1 PUSH2 0x253D JUMP JUMPDEST PUSH1 0x40 MLOAD DUP1 SWAP2 SUB SWAP1 RETURN JUMPDEST CALLVALUE DUP1 ISZERO PUSH2 0x47E JUMPI PUSH0 DUP1 REVERT JUMPDEST POP PUSH2 0x499 PUSH1 0x4 DUP1 CALLDATASIZE SUB DUP2 ADD SWAP1 PUSH2 0x494 SWAP2 SWAP1 PUSH2 0x2157 JUMP JUMPDEST PUSH2 0x128D JUMP JUMPDEST PUSH1 0x40 MLOAD PUSH2 0x4A6 SWAP2 SWAP1 PUSH2 0x213E JUMP JUMPDEST PUSH1 0x40 MLOAD DUP1 SWAP2 SUB SWAP1 RETURN JUMPDEST CALLVALUE DUP1 ISZERO PUSH2 0x4BA JUMPI PUSH0 DUP1 REVERT JUMPDEST POP PUSH2 0x4C3 PUSH2 0x13AC JUMP JUMPDEST PUSH1 0x40 MLOAD PUSH2 0x4D0 SWAP2 SWAP1 PUSH2 0x2565 JUMP JUMPDEST PUSH1 0x40 MLOAD DUP1 SWAP2 SUB SWAP1 RETURN JUMPDEST CALLVALUE DUP1 ISZERO PUSH2 0x4E4 JUMPI PUSH0 DUP1 REVERT JUMPDEST POP PUSH2 0x4ED PUSH2 0x13D3 JUMP JUMPDEST STOP JUMPDEST CALLVALUE DUP1 ISZERO PUSH2 0x4FA JUMPI PUSH0 DUP1 REVERT JUMPDEST POP PUSH2 0x515 PUSH1 0x4 DUP1 CALLDATASIZE SUB DUP2 ADD SWAP1 PUSH2 0x510 SWAP2 SWAP1 PUSH2 0x257E JUMP JUMPDEST PUSH2 0x1572 JUMP JUMPDEST STOP JUMPDEST CALLVALUE DUP1 ISZERO PUSH2 0x522 JUMPI PUSH0 DUP1 REVERT JUMPDEST POP PUSH2 0x53D PUSH1 0x4 DUP1 CALLDATASIZE SUB DUP2 ADD SWAP1 PUSH2 0x538 SWAP2 SWAP1 PUSH2 0x248D JUMP JUMPDEST PUSH2 0x1718 JUMP JUMPDEST STOP JUMPDEST CALLVALUE DUP1 ISZERO PUSH2 0x54A JUMPI PUSH0 DUP1 REVERT JUMPDEST POP PUSH2 0x553 PUSH2 0x1789 JUMP JUMPDEST PUSH1 0x40 MLOAD PUSH2 0x560 SWAP2 SWAP1 PUSH2 0x213E JUMP JUMPDEST PUSH1 0x40 MLOAD DUP1 SWAP2 SUB SWAP1 RETURN JUMPDEST CALLVALUE DUP1 ISZERO PUSH2 0x574 JUMPI PUSH0 DUP1 REVERT JUMPDEST POP PUSH2 0x57D PUSH2 0x178F JUMP JUMPDEST STOP JUMPDEST CALLVALUE DUP1 ISZERO PUSH2 0x58A JUMPI PUSH0 DUP1 REVERT JUMPDEST POP PUSH2 0x593 PUSH2 0x17B2 JUMP JUMPDEST PUSH1 0x40 MLOAD PUSH2 0x5A0 SWAP2 SWAP1 PUSH2 0x2565 JUMP JUMPDEST PUSH1 0x40 MLOAD DUP1 SWAP2 SUB SWAP1 RETURN JUMPDEST CALLVALUE DUP1 ISZERO PUSH2 0x5B4 JUMPI PUSH0 DUP1 REVERT JUMPDEST POP PUSH2 0x5CF PUSH1 0x4 DUP1 CALLDATASIZE SUB DUP2 ADD SWAP1 PUSH2 0x5CA SWAP2 SWAP1 PUSH2 0x248D JUMP JUMPDEST PUSH2 0x17D7 JUMP JUMPDEST PUSH1 0x40 MLOAD PUSH2 0x5DC SWAP2 SWAP1 PUSH2 0x2565 JUMP JUMPDEST PUSH1 0x40 MLOAD DUP1 SWAP2 SUB SWAP1 RETURN JUMPDEST CALLVALUE DUP1 ISZERO PUSH2 0x5F0 JUMPI PUSH0 DUP1 REVERT JUMPDEST POP PUSH2 0x60B PUSH1 0x4 DUP1 CALLDATASIZE SUB DUP2 ADD SWAP1 PUSH2 0x606 SWAP2 SWAP1 PUSH2 0x2157 JUMP JUMPDEST PUSH2 0x1812 JUMP JUMPDEST STOP JUMPDEST CALLVALUE DUP1 ISZERO PUSH2 0x618 JUMPI PUSH0 DUP1 REVERT JUMPDEST POP PUSH2 0x633 PUSH1 0x4 DUP1 CALLDATASIZE SUB DUP2 ADD SWAP1 PUSH2 0x62E SWAP2 SWAP1 PUSH2 0x20F1 JUMP JUMPDEST PUSH2 0x1896 JUMP JUMPDEST STOP JUMPDEST CALLVALUE DUP1 ISZERO PUSH2 0x640 JUMPI PUSH0 DUP1 REVERT JUMPDEST POP PUSH2 0x65B PUSH1 0x4 DUP1 CALLDATASIZE SUB DUP2 ADD SWAP1 PUSH2 0x656 SWAP2 SWAP1 PUSH2 0x2157 JUMP JUMPDEST PUSH2 0x18CD JUMP JUMPDEST PUSH1 0x40 MLOAD PUSH2 0x66C SWAP6 SWAP5 SWAP4 SWAP3 SWAP2 SWAP1 PUSH2 0x25F5 JUMP JUMPDEST PUSH1 0x40 MLOAD DUP1 SWAP2 SUB SWAP1 RETURN JUMPDEST CALLVALUE DUP1 ISZERO PUSH2 0x680 JUMPI PUSH0 DUP1 REVERT JUMPDEST POP PUSH2 0x689 PUSH2 0x1918 JUMP JUMPDEST PUSH1 0x40 MLOAD PUSH2 0x696 SWAP2 SWAP1 PUSH2 0x253D JUMP JUMPDEST PUSH1 0x40 MLOAD DUP1 SWAP2 SUB SWAP1 RETURN JUMPDEST CALLVALUE DUP1 ISZERO PUSH2 0x6AA JUMPI PUSH0 DUP1 REVERT JUMPDEST POP PUSH2 0x6C5 PUSH1 0x4 DUP1 CALLDATASIZE SUB DUP2 ADD SWAP1 PUSH2 0x6C0 SWAP2 SWAP1 PUSH2 0x2157 JUMP JUMPDEST PUSH2 0x192A JUMP JUMPDEST STOP JUMPDEST PUSH0 DUP1 PUSH0 PUSH20 0xFFFFFFFFFFFFFFFFFFFFFFFFFFFFFFFFFFFFFFFF AND DUP5 PUSH20 0xFFFFFFFFFFFFFFFFFFFFFFFFFFFFFFFFFFFFFFFF AND EQ PUSH2 0x7FA JUMPI PUSH1 0x1 ISZERO ISZERO PUSH1 0x9 PUSH0 DUP7 PUSH20 0xFFFFFFFFFFFFFFFFFFFFFFFFFFFFFFFFFFFFFFFF AND PUSH20 0xFFFFFFFFFFFFFFFFFFFFFFFFFFFFFFFFFFFFFFFF AND DUP2 MSTORE PUSH1 0x20 ADD SWAP1 DUP2 MSTORE PUSH1 0x20 ADD PUSH0 KECCAK256 PUSH0 SWAP1 SLOAD SWAP1 PUSH2 0x100 EXP SWAP1 DIV PUSH1 0xFF AND ISZERO ISZERO EQ PUSH2 0x78C JUMPI PUSH1 0x40 MLOAD PUSH32 0x8C379A000000000000000000000000000000000000000000000000000000000 DUP2 MSTORE PUSH1 0x4 ADD PUSH2 0x783 SWAP1 PUSH2 0x26A0 JUMP JUMPDEST PUSH1 0x40 MLOAD DUP1 SWAP2 SUB SWAP1 REVERT JUMPDEST PUSH0 PUSH1 0xB PUSH0 DUP7 PUSH20 0xFFFFFFFFFFFFFFFFFFFFFFFFFFFFFFFFFFFFFFFF AND PUSH20 0xFFFFFFFFFFFFFFFFFFFFFFFFFFFFFFFFFFFFFFFF AND DUP2 MSTORE PUSH1 0x20 ADD SWAP1 DUP2 MSTORE PUSH1 0x20 ADD PUSH0 KECCAK256 SLOAD SWAP1 POP DUP1 PUSH1 0x4 SLOAD PUSH1 0xA PUSH2 0x7DD SWAP2 SWAP1 PUSH2 0x281A JUMP JUMPDEST DUP6 PUSH2 0x7E8 SWAP2 SWAP1 PUSH2 0x2864 JUMP JUMPDEST PUSH2 0x7F2 SWAP2 SWAP1 PUSH2 0x28D2 JUMP JUMPDEST SWAP2 POP POP PUSH2 0x824 JUMP JUMPDEST PUSH1 0x2 SLOAD PUSH1 0x4 SLOAD PUSH1 0xA PUSH2 0x80C SWAP2 SWAP1 PUSH2 0x281A JUMP JUMPDEST DUP5 PUSH2 0x817 SWAP2 SWAP1 PUSH2 0x2864 JUMP JUMPDEST PUSH2 0x821 SWAP2 SWAP1 PUSH2 0x28D2 JUMP JUMPDEST SWAP1 POP JUMPDEST DUP1 SWAP2 POP POP SWAP3 SWAP2 POP POP JUMP JUMPDEST PUSH0 ISZERO ISZERO PUSH1 0x6 PUSH0 SWAP1 SLOAD SWAP1 PUSH2 0x100 EXP SWAP1 DIV PUSH1 0xFF AND ISZERO ISZERO EQ PUSH2 0x882 JUMPI PUSH1 0x40 MLOAD PUSH32 0x8C379A000000000000000000000000000000000000000000000000000000000 DUP2 MSTORE PUSH1 0x4 ADD PUSH2 0x879 SWAP1 PUSH2 0x294C JUMP JUMPDEST PUSH1 0x40 MLOAD DUP1 SWAP2 SUB SWAP1 REVERT JUMPDEST PUSH0 PUSH1 0xA PUSH0 CALLER PUSH20 0xFFFFFFFFFFFFFFFFFFFFFFFFFFFFFFFFFFFFFFFF AND PUSH20 0xFFFFFFFFFFFFFFFFFFFFFFFFFFFFFFFFFFFFFFFF AND DUP2 MSTORE PUSH1 0x20 ADD SWAP1 DUP2 MSTORE PUSH1 0x20 ADD PUSH0 KECCAK256 PUSH0 ADD SLOAD GT PUSH2 0x903 JUMPI PUSH1 0x40 MLOAD PUSH32 0x8C379A000000000000000000000000000000000000000000000000000000000 DUP2 MSTORE PUSH1 0x4 ADD PUSH2 0x8FA SWAP1 PUSH2 0x29B4 JUMP JUMPDEST PUSH1 0x40 MLOAD DUP1 SWAP2 SUB SWAP1 REVERT JUMPDEST PUSH2 0x90C CALLER PUSH2 0x19BB JUMP JUMPDEST JUMP JUMPDEST PUSH1 0x1 SLOAD DUP2 JUMP JUMPDEST PUSH1 0xB PUSH1 0x20 MSTORE DUP1 PUSH0 MSTORE PUSH1 0x40 PUSH0 KECCAK256 PUSH0 SWAP2 POP SWAP1 POP SLOAD DUP2 JUMP JUMPDEST PUSH2 0x931 PUSH2 0x1B7D JUMP JUMPDEST DUP1 ISZERO ISZERO PUSH1 0x9 PUSH0 DUP5 PUSH20 0xFFFFFFFFFFFFFFFFFFFFFFFFFFFFFFFFFFFFFFFF AND PUSH20 0xFFFFFFFFFFFFFFFFFFFFFFFFFFFFFFFFFFFFFFFF AND DUP2 MSTORE PUSH1 0x20 ADD SWAP1 DUP2 MSTORE PUSH1 0x20 ADD PUSH0 KECCAK256 PUSH0 SWAP1 SLOAD SWAP1 PUSH2 0x100 EXP SWAP1 DIV PUSH1 0xFF AND ISZERO ISZERO SUB PUSH2 0x9C0 JUMPI PUSH1 0x40 MLOAD PUSH32 0x8C379A000000000000000000000000000000000000000000000000000000000 DUP2 MSTORE PUSH1 0x4 ADD PUSH2 0x9B7 SWAP1 PUSH2 0x2A42 JUMP JUMPDEST PUSH1 0x40 MLOAD DUP1 SWAP2 SUB SWAP1 REVERT JUMPDEST DUP1 PUSH1 0x9 PUSH0 DUP5 PUSH20 0xFFFFFFFFFFFFFFFFFFFFFFFFFFFFFFFFFFFFFFFF AND PUSH20 0xFFFFFFFFFFFFFFFFFFFFFFFFFFFFFFFFFFFFFFFF AND DUP2 MSTORE PUSH1 0x20 ADD SWAP1 DUP2 MSTORE PUSH1 0x20 ADD PUSH0 KECCAK256 PUSH0 PUSH2 0x100 EXP DUP2 SLOAD DUP2 PUSH1 0xFF MUL NOT AND SWAP1 DUP4 ISZERO ISZERO MUL OR SWAP1 SSTORE POP POP POP JUMP JUMPDEST PUSH1 0x2 SLOAD DUP2 JUMP JUMPDEST PUSH2 0xA26 PUSH2 0x1B7D JUMP JUMPDEST DUP2 MLOAD DUP4 MLOAD EQ PUSH2 0xA6A JUMPI PUSH1 0x40 MLOAD PUSH32 0x8C379A000000000000000000000000000000000000000000000000000000000 DUP2 MSTORE PUSH1 0x4 ADD PUSH2 0xA61 SWAP1 PUSH2 0x2AD0 JUMP JUMPDEST PUSH1 0x40 MLOAD DUP1 SWAP2 SUB SWAP1 REVERT JUMPDEST PUSH0 DUP2 EQ PUSH2 0xA79 JUMPI DUP1 PUSH1 0x2 DUP2 SWAP1 SSTORE POP JUMPDEST PUSH0 JUMPDEST DUP4 MLOAD DUP2 LT ISZERO PUSH2 0xC14 JUMPI PUSH1 0x1 ISZERO ISZERO PUSH1 0x9 PUSH0 DUP7 DUP5 DUP2 MLOAD DUP2 LT PUSH2 0xA9E JUMPI PUSH2 0xA9D PUSH2 0x2AEE JUMP JUMPDEST JUMPDEST PUSH1 0x20 MUL PUSH1 0x20 ADD ADD MLOAD PUSH20 0xFFFFFFFFFFFFFFFFFFFFFFFFFFFFFFFFFFFFFFFF AND PUSH20 0xFFFFFFFFFFFFFFFFFFFFFFFFFFFFFFFFFFFFFFFF AND DUP2 MSTORE PUSH1 0x20 ADD SWAP1 DUP2 MSTORE PUSH1 0x20 ADD PUSH0 KECCAK256 PUSH0 SWAP1 SLOAD SWAP1 PUSH2 0x100 EXP SWAP1 DIV PUSH1 0xFF AND ISZERO ISZERO EQ PUSH2 0xB2E JUMPI PUSH1 0x40 MLOAD PUSH32 0x8C379A000000000000000000000000000000000000000000000000000000000 DUP2 MSTORE PUSH1 0x4 ADD PUSH2 0xB25 SWAP1 PUSH2 0x2B8B JUMP JUMPDEST PUSH1 0x40 MLOAD DUP1 SWAP2 SUB SWAP1 REVERT JUMPDEST PUSH0 DUP4 DUP3 DUP2 MLOAD DUP2 LT PUSH2 0xB42 JUMPI PUSH2 0xB41 PUSH2 0x2AEE JUMP JUMPDEST JUMPDEST PUSH1 0x20 MUL PUSH1 0x20 ADD ADD MLOAD SUB PUSH2 0xB8A JUMPI PUSH1 0x40 MLOAD PUSH32 0x8C379A000000000000000000000000000000000000000000000000000000000 DUP2 MSTORE PUSH1 0x4 ADD PUSH2 0xB81 SWAP1 PUSH2 0x2BF3 JUMP JUMPDEST PUSH1 0x40 MLOAD DUP1 SWAP2 SUB SWAP1 REVERT JUMPDEST DUP3 DUP2 DUP2 MLOAD DUP2 LT PUSH2 0xB9D JUMPI PUSH2 0xB9C PUSH2 0x2AEE JUMP JUMPDEST JUMPDEST PUSH1 0x20 MUL PUSH1 0x20 ADD ADD MLOAD PUSH1 0xB PUSH0 DUP7 DUP5 DUP2 MLOAD DUP2 LT PUSH2 0xBBB JUMPI PUSH2 0xBBA PUSH2 0x2AEE JUMP JUMPDEST JUMPDEST PUSH1 0x20 MUL PUSH1 0x20 ADD ADD MLOAD PUSH20 0xFFFFFFFFFFFFFFFFFFFFFFFFFFFFFFFFFFFFFFFF AND PUSH20 0xFFFFFFFFFFFFFFFFFFFFFFFFFFFFFFFFFFFFFFFF AND DUP2 MSTORE PUSH1 0x20 ADD SWAP1 DUP2 MSTORE PUSH1 0x20 ADD PUSH0 KECCAK256 DUP2 SWAP1 SSTORE POP PUSH1 0x1 DUP2 PUSH2 0xC0D SWAP2 SWAP1 PUSH2 0x2C11 JUMP JUMPDEST SWAP1 POP PUSH2 0xA7B JUMP JUMPDEST POP POP POP POP JUMP JUMPDEST PUSH2 0xC22 PUSH2 0x1B7D JUMP JUMPDEST PUSH1 0x1 PUSH1 0x6 PUSH0 PUSH2 0x100 EXP DUP2 SLOAD DUP2 PUSH1 0xFF MUL NOT AND SWAP1 DUP4 ISZERO ISZERO MUL OR SWAP1 SSTORE POP JUMP JUMPDEST PUSH2 0xC46 PUSH2 0x1B7D JUMP JUMPDEST CALLER PUSH20 0xFFFFFFFFFFFFFFFFFFFFFFFFFFFFFFFFFFFFFFFF AND PUSH2 0x8FC DUP3 SWAP1 DUP2 ISZERO MUL SWAP1 PUSH1 0x40 MLOAD PUSH0 PUSH1 0x40 MLOAD DUP1 DUP4 SUB DUP2 DUP6 DUP9 DUP9 CALL SWAP4 POP POP POP POP ISZERO DUP1 ISZERO PUSH2 0xC89 JUMPI RETURNDATASIZE PUSH0 DUP1 RETURNDATACOPY RETURNDATASIZE PUSH0 REVERT JUMPDEST POP POP JUMP JUMPDEST PUSH2 0xC95 PUSH2 0x1B7D JUMP JUMPDEST DUP1 MLOAD DUP3 MLOAD EQ PUSH2 0xCD9 JUMPI PUSH1 0x40 MLOAD PUSH32 0x8C379A000000000000000000000000000000000000000000000000000000000 DUP2 MSTORE PUSH1 0x4 ADD PUSH2 0xCD0 SWAP1 PUSH2 0x2AD0 JUMP JUMPDEST PUSH1 0x40 MLOAD DUP1 SWAP2 SUB SWAP1 REVERT JUMPDEST PUSH0 JUMPDEST DUP3 MLOAD DUP2 LT ISZERO PUSH2 0xE38 JUMPI PUSH0 DUP3 DUP3 DUP2 MLOAD DUP2 LT PUSH2 0xCF8 JUMPI PUSH2 0xCF7 PUSH2 0x2AEE JUMP JUMPDEST JUMPDEST PUSH1 0x20 MUL PUSH1 0x20 ADD ADD MLOAD SUB PUSH2 0xD40 JUMPI PUSH1 0x40 MLOAD PUSH32 0x8C379A000000000000000000000000000000000000000000000000000000000 DUP2 MSTORE PUSH1 0x4 ADD PUSH2 0xD37 SWAP1 PUSH2 0x2BF3 JUMP JUMPDEST PUSH1 0x40 MLOAD DUP1 SWAP2 SUB SWAP1 REVERT JUMPDEST PUSH1 0x1 PUSH1 0x9 PUSH0 DUP6 DUP5 DUP2 MLOAD DUP2 LT PUSH2 0xD58 JUMPI PUSH2 0xD57 PUSH2 0x2AEE JUMP JUMPDEST JUMPDEST PUSH1 0x20 MUL PUSH1 0x20 ADD ADD MLOAD PUSH20 0xFFFFFFFFFFFFFFFFFFFFFFFFFFFFFFFFFFFFFFFF AND PUSH20 0xFFFFFFFFFFFFFFFFFFFFFFFFFFFFFFFFFFFFFFFF AND DUP2 MSTORE PUSH1 0x20 ADD SWAP1 DUP2 MSTORE PUSH1 0x20 ADD PUSH0 KECCAK256 PUSH0 PUSH2 0x100 EXP DUP2 SLOAD DUP2 PUSH1 0xFF MUL NOT AND SWAP1 DUP4 ISZERO ISZERO MUL OR SWAP1 SSTORE POP DUP2 DUP2 DUP2 MLOAD DUP2 LT PUSH2 0xDC2 JUMPI PUSH2 0xDC1 PUSH2 0x2AEE JUMP JUMPDEST JUMPDEST PUSH1 0x20 MUL PUSH1 0x20 ADD ADD MLOAD PUSH1 0xB PUSH0 DUP6 DUP5 DUP2 MLOAD DUP2 LT PUSH2 0xDE0 JUMPI PUSH2 0xDDF PUSH2 0x2AEE JUMP JUMPDEST JUMPDEST PUSH1 0x20 MUL PUSH1 0x20 ADD ADD MLOAD PUSH20 0xFFFFFFFFFFFFFFFFFFFFFFFFFFFFFFFFFFFFFFFF AND PUSH20 0xFFFFFFFFFFFFFFFFFFFFFFFFFFFFFFFFFFFFFFFF AND DUP2 MSTORE PUSH1 0x20 ADD SWAP1 DUP2 MSTORE PUSH1 0x20 ADD PUSH0 KECCAK256 DUP2 SWAP1 SSTORE POP DUP1 DUP1 PUSH2 0xE30 SWAP1 PUSH2 0x2C44 JUMP JUMPDEST SWAP2 POP POP PUSH2 0xCDB JUMP JUMPDEST POP POP POP JUMP JUMPDEST PUSH2 0xE45 PUSH2 0x1B7D JUMP JUMPDEST PUSH0 ISZERO ISZERO PUSH1 0x6 PUSH0 SWAP1 SLOAD SWAP1 PUSH2 0x100 EXP SWAP1 DIV PUSH1 0xFF AND ISZERO ISZERO EQ PUSH2 0xE99 JUMPI PUSH1 0x40 MLOAD PUSH32 0x8C379A000000000000000000000000000000000000000000000000000000000 DUP2 MSTORE PUSH1 0x4 ADD PUSH2 0xE90 SWAP1 PUSH2 0x294C JUMP JUMPDEST PUSH1 0x40 MLOAD DUP1 SWAP2 SUB SWAP1 REVERT JUMPDEST PUSH0 JUMPDEST PUSH1 0x7 DUP1 SLOAD SWAP1 POP DUP2 LT ISZERO PUSH2 0xEFF JUMPI PUSH2 0xEEC PUSH1 0x7 DUP3 DUP2 SLOAD DUP2 LT PUSH2 0xEBF JUMPI PUSH2 0xEBE PUSH2 0x2AEE JUMP JUMPDEST JUMPDEST SWAP1 PUSH0 MSTORE PUSH1 0x20 PUSH0 KECCAK256 ADD PUSH0 SWAP1 SLOAD SWAP1 PUSH2 0x100 EXP SWAP1 DIV PUSH20 0xFFFFFFFFFFFFFFFFFFFFFFFFFFFFFFFFFFFFFFFF AND PUSH2 0x19BB JUMP JUMPDEST DUP1 DUP1 PUSH2 0xEF7 SWAP1 PUSH2 0x2C44 JUMP JUMPDEST SWAP2 POP POP PUSH2 0xE9B JUMP JUMPDEST POP JUMP JUMPDEST PUSH1 0x8 SLOAD DUP2 JUMP JUMPDEST PUSH2 0xF10 PUSH2 0x1B7D JUMP JUMPDEST PUSH2 0xF18 PUSH2 0x1C04 JUMP JUMPDEST DUP1 PUSH1 0x1 DUP2 SWAP1 SSTORE POP POP JUMP JUMPDEST PUSH1 0x1 ISZERO ISZERO PUSH1 0x6 PUSH0 SWAP1 SLOAD SWAP1 PUSH2 0x100 EXP SWAP1 DIV PUSH1 0xFF AND ISZERO ISZERO EQ PUSH2 0xF77 JUMPI PUSH1 0x40 MLOAD PUSH32 0x8C379A000000000000000000000000000000000000000000000000000000000 DUP2 MSTORE PUSH1 0x4 ADD PUSH2 0xF6E SWAP1 PUSH2 0x2CD5 JUMP JUMPDEST PUSH1 0x40 MLOAD DUP1 SWAP2 SUB SWAP1 REVERT JUMPDEST PUSH0 DUP1 PUSH20 0xFFFFFFFFFFFFFFFFFFFFFFFFFFFFFFFFFFFFFFFF AND DUP4 PUSH20 0xFFFFFFFFFFFFFFFFFFFFFFFFFFFFFFFFFFFFFFFF AND SUB PUSH2 0xFBA JUMPI PUSH2 0xFB5 PUSH0 CALLVALUE PUSH2 0x6C7 JUMP JUMPDEST PUSH2 0xFC5 JUMP JUMPDEST PUSH2 0xFC4 DUP4 DUP4 PUSH2 0x6C7 JUMP JUMPDEST JUMPDEST SWAP1 POP PUSH1 0x5 SLOAD DUP2 PUSH1 0x8 SLOAD PUSH2 0xFD8 SWAP2 SWAP1 PUSH2 0x2C11 JUMP JUMPDEST LT PUSH2 0x1018 JUMPI PUSH1 0x40 MLOAD PUSH32 0x8C379A000000000000000000000000000000000000000000000000000000000 DUP2 MSTORE PUSH1 0x4 ADD PUSH2 0x100F SWAP1 PUSH2 0x2D63 JUMP JUMPDEST PUSH1 0x40 MLOAD DUP1 SWAP2 SUB SWAP1 REVERT JUMPDEST PUSH0 PUSH20 0xFFFFFFFFFFFFFFFFFFFFFFFFFFFFFFFFFFFFFFFF AND DUP4 PUSH20 0xFFFFFFFFFFFFFFFFFFFFFFFFFFFFFFFFFFFFFFFF AND EQ PUSH2 0x10C6 JUMPI PUSH0 DUP3 GT PUSH2 0x108D JUMPI PUSH1 0x40 MLOAD PUSH32 0x8C379A000000000000000000000000000000000000000000000000000000000 DUP2 MSTORE PUSH1 0x4 ADD PUSH2 0x1084 SWAP1 PUSH2 0x2DF1 JUMP JUMPDEST PUSH1 0x40 MLOAD DUP1 SWAP2 SUB SWAP1 REVERT JUMPDEST PUSH2 0x10C1 CALLER PUSH2 0x1099 PUSH2 0x13AC JUMP JUMPDEST DUP5 DUP7 PUSH20 0xFFFFFFFFFFFFFFFFFFFFFFFFFFFFFFFFFFFFFFFF AND PUSH2 0x1DEF SWAP1 SWAP4 SWAP3 SWAP2 SWAP1 PUSH4 0xFFFFFFFF AND JUMP JUMPDEST PUSH2 0x1112 JUMP JUMPDEST PUSH2 0x10CE PUSH2 0x13AC JUMP JUMPDEST PUSH20 0xFFFFFFFFFFFFFFFFFFFFFFFFFFFFFFFFFFFFFFFF AND PUSH2 0x8FC CALLVALUE SWAP1 DUP2 ISZERO MUL SWAP1 PUSH1 0x40 MLOAD PUSH0 PUSH1 0x40 MLOAD DUP1 DUP4 SUB DUP2 DUP6 DUP9 DUP9 CALL SWAP4 POP POP POP POP ISZERO DUP1 ISZERO PUSH2 0x1110 JUMPI RETURNDATASIZE PUSH0 DUP1 RETURNDATACOPY RETURNDATASIZE PUSH0 REVERT JUMPDEST POP JUMPDEST DUP1 PUSH1 0x8 PUSH0 DUP3 DUP3 SLOAD PUSH2 0x1123 SWAP2 SWAP1 PUSH2 0x2C11 JUMP JUMPDEST SWAP3 POP POP DUP2 SWAP1 SSTORE POP PUSH0 PUSH1 0xA PUSH0 CALLER PUSH20 0xFFFFFFFFFFFFFFFFFFFFFFFFFFFFFFFFFFFFFFFF AND PUSH20 0xFFFFFFFFFFFFFFFFFFFFFFFFFFFFFFFFFFFFFFFF AND DUP2 MSTORE PUSH1 0x20 ADD SWAP1 DUP2 MSTORE PUSH1 0x20 ADD PUSH0 KECCAK256 SWAP1 POP DUP1 PUSH1 0x1 ADD PUSH0 SWAP1 SLOAD SWAP1 PUSH2 0x100 EXP SWAP1 DIV PUSH1 0xFF AND PUSH2 0x1200 JUMPI PUSH1 0x7 CALLER SWAP1 DUP1 PUSH1 0x1 DUP2 SLOAD ADD DUP1 DUP3 SSTORE DUP1 SWAP2 POP POP PUSH1 0x1 SWAP1 SUB SWAP1 PUSH0 MSTORE PUSH1 0x20 PUSH0 KECCAK256 ADD PUSH0 SWAP1 SWAP2 SWAP1 SWAP2 SWAP1 SWAP2 PUSH2 0x100 EXP DUP2 SLOAD DUP2 PUSH20 0xFFFFFFFFFFFFFFFFFFFFFFFFFFFFFFFFFFFFFFFF MUL NOT AND SWAP1 DUP4 PUSH20 0xFFFFFFFFFFFFFFFFFFFFFFFFFFFFFFFFFFFFFFFF AND MUL OR SWAP1 SSTORE POP PUSH1 0x1 DUP2 PUSH1 0x1 ADD PUSH0 PUSH2 0x100 EXP DUP2 SLOAD DUP2 PUSH1 0xFF MUL NOT AND SWAP1 DUP4 ISZERO ISZERO MUL OR SWAP1 SSTORE POP PUSH2 0x122F JUMP JUMPDEST PUSH0 DUP2 PUSH0 ADD SLOAD GT ISZERO PUSH2 0x122E JUMPI PUSH2 0x1214 CALLER PUSH2 0x128D JUMP JUMPDEST DUP2 PUSH1 0x2 ADD PUSH0 DUP3 DUP3 SLOAD PUSH2 0x1226 SWAP2 SWAP1 PUSH2 0x2C11 JUMP JUMPDEST SWAP3 POP POP DUP2 SWAP1 SSTORE POP JUMPDEST JUMPDEST DUP2 DUP2 PUSH0 ADD PUSH0 DUP3 DUP3 SLOAD PUSH2 0x1241 SWAP2 SWAP1 PUSH2 0x2C11 JUMP JUMPDEST SWAP3 POP POP DUP2 SWAP1 SSTORE POP TIMESTAMP DUP2 PUSH1 0x3 ADD DUP2 SWAP1 SSTORE POP POP POP POP POP JUMP JUMPDEST PUSH1 0x5 SLOAD DUP2 JUMP JUMPDEST PUSH2 0x1265 PUSH2 0x1B7D JUMP JUMPDEST PUSH2 0x126E PUSH0 PUSH2 0x1E71 JUMP JUMPDEST JUMP JUMPDEST PUSH1 0x9 PUSH1 0x20 MSTORE DUP1 PUSH0 MSTORE PUSH1 0x40 PUSH0 KECCAK256 PUSH0 SWAP2 POP SLOAD SWAP1 PUSH2 0x100 EXP SWAP1 DIV PUSH1 0xFF AND DUP2 JUMP JUMPDEST PUSH0 DUP1 PUSH1 0xA PUSH0 DUP5 PUSH20 0xFFFFFFFFFFFFFFFFFFFFFFFFFFFFFFFFFFFFFFFF AND PUSH20 0xFFFFFFFFFFFFFFFFFFFFFFFFFFFFFFFFFFFFFFFF AND DUP2 MSTORE PUSH1 0x20 ADD SWAP1 DUP2 MSTORE PUSH1 0x20 ADD PUSH0 KECCAK256 PUSH0 ADD SLOAD SUB PUSH2 0x12DC JUMPI PUSH0 SWAP1 POP PUSH2 0x13A7 JUMP JUMPDEST PUSH0 PUSH3 0x15180 PUSH1 0xA PUSH0 DUP6 PUSH20 0xFFFFFFFFFFFFFFFFFFFFFFFFFFFFFFFFFFFFFFFF AND PUSH20 0xFFFFFFFFFFFFFFFFFFFFFFFFFFFFFFFFFFFFFFFF AND DUP2 MSTORE PUSH1 0x20 ADD SWAP1 DUP2 MSTORE PUSH1 0x20 ADD PUSH0 KECCAK256 PUSH1 0x3 ADD SLOAD TIMESTAMP PUSH2 0x132D SWAP2 SWAP1 PUSH2 0x2E0F JUMP JUMPDEST PUSH2 0x1337 SWAP2 SWAP1 PUSH2 0x28D2 JUMP JUMPDEST SWAP1 POP PUSH0 PUSH2 0x2710 DUP3 PUSH1 0x1 SLOAD PUSH1 0xA PUSH0 DUP9 PUSH20 0xFFFFFFFFFFFFFFFFFFFFFFFFFFFFFFFFFFFFFFFF AND PUSH20 0xFFFFFFFFFFFFFFFFFFFFFFFFFFFFFFFFFFFFFFFF AND DUP2 MSTORE PUSH1 0x20 ADD SWAP1 DUP2 MSTORE PUSH1 0x20 ADD PUSH0 KECCAK256 PUSH0 ADD SLOAD PUSH2 0x138B SWAP2 SWAP1 PUSH2 0x2864 JUMP JUMPDEST PUSH2 0x1395 SWAP2 SWAP1 PUSH2 0x2864 JUMP JUMPDEST PUSH2 0x139F SWAP2 SWAP1 PUSH2 0x28D2 JUMP JUMPDEST SWAP1 POP DUP1 SWAP3 POP POP POP JUMPDEST SWAP2 SWAP1 POP JUMP JUMPDEST PUSH0 DUP1 PUSH0 SWAP1 SLOAD SWAP1 PUSH2 0x100 EXP SWAP1 DIV PUSH20 0xFFFFFFFFFFFFFFFFFFFFFFFFFFFFFFFFFFFFFFFF AND SWAP1 POP SWAP1 JUMP JUMPDEST PUSH2 0x13DB PUSH2 0x1B7D JUMP JUMPDEST PUSH0 ISZERO ISZERO PUSH1 0x6 PUSH0 SWAP1 SLOAD SWAP1 PUSH2 0x100 EXP SWAP1 DIV PUSH1 0xFF AND ISZERO ISZERO EQ PUSH2 0x142F JUMPI PUSH1 0x40 MLOAD PUSH32 0x8C379A000000000000000000000000000000000000000000000000000000000 DUP2 MSTORE PUSH1 0x4 ADD PUSH2 0x1426 SWAP1 PUSH2 0x294C JUMP JUMPDEST PUSH1 0x40 MLOAD DUP1 SWAP2 SUB SWAP1 REVERT JUMPDEST PUSH0 PUSH1 0x3 PUSH0 SWAP1 SLOAD SWAP1 PUSH2 0x100 EXP SWAP1 DIV PUSH20 0xFFFFFFFFFFFFFFFFFFFFFFFFFFFFFFFFFFFFFFFF AND PUSH20 0xFFFFFFFFFFFFFFFFFFFFFFFFFFFFFFFFFFFFFFFF AND PUSH4 0x70A08231 ADDRESS PUSH1 0x40 MLOAD DUP3 PUSH4 0xFFFFFFFF AND PUSH1 0xE0 SHL DUP2 MSTORE PUSH1 0x4 ADD PUSH2 0x148A SWAP2 SWAP1 PUSH2 0x2565 JUMP JUMPDEST PUSH1 0x20 PUSH1 0x40 MLOAD DUP1 DUP4 SUB DUP2 DUP7 GAS STATICCALL ISZERO DUP1 ISZERO PUSH2 0x14A5 JUMPI RETURNDATASIZE PUSH0 DUP1 RETURNDATACOPY RETURNDATASIZE PUSH0 REVERT JUMPDEST POP POP POP POP PUSH1 0x40 MLOAD RETURNDATASIZE PUSH1 0x1F NOT PUSH1 0x1F DUP3 ADD AND DUP3 ADD DUP1 PUSH1 0x40 MSTORE POP DUP2 ADD SWAP1 PUSH2 0x14C9 SWAP2 SWAP1 PUSH2 0x2E56 JUMP JUMPDEST SWAP1 POP PUSH1 0x3 PUSH0 SWAP1 SLOAD SWAP1 PUSH2 0x100 EXP SWAP1 DIV PUSH20 0xFFFFFFFFFFFFFFFFFFFFFFFFFFFFFFFFFFFFFFFF AND PUSH20 0xFFFFFFFFFFFFFFFFFFFFFFFFFFFFFFFFFFFFFFFF AND PUSH4 0xA9059CBB CALLER DUP4 PUSH1 0x40 MLOAD DUP4 PUSH4 0xFFFFFFFF AND PUSH1 0xE0 SHL DUP2 MSTORE PUSH1 0x4 ADD PUSH2 0x1527 SWAP3 SWAP2 SWAP1 PUSH2 0x2E81 JUMP JUMPDEST PUSH1 0x20 PUSH1 0x40 MLOAD DUP1 DUP4 SUB DUP2 PUSH0 DUP8 GAS CALL ISZERO DUP1 ISZERO PUSH2 0x1543 JUMPI RETURNDATASIZE PUSH0 DUP1 RETURNDATACOPY RETURNDATASIZE PUSH0 REVERT JUMPDEST POP POP POP POP PUSH1 0x40 MLOAD RETURNDATASIZE PUSH1 0x1F NOT PUSH1 0x1F DUP3 ADD AND DUP3 ADD DUP1 PUSH1 0x40 MSTORE POP DUP2 ADD SWAP1 PUSH2 0x1567 SWAP2 SWAP1 PUSH2 0x2EBC JUMP JUMPDEST POP PUSH0 PUSH1 0x5 DUP2 SWAP1 SSTORE POP POP JUMP JUMPDEST PUSH2 0x157A PUSH2 0x1B7D JUMP JUMPDEST PUSH0 DUP4 SUB PUSH2 0x15BC JUMPI PUSH1 0x40 MLOAD PUSH32 0x8C379A000000000000000000000000000000000000000000000000000000000 DUP2 MSTORE PUSH1 0x4 ADD PUSH2 0x15B3 SWAP1 PUSH2 0x2F31 JUMP JUMPDEST PUSH1 0x40 MLOAD DUP1 SWAP2 SUB SWAP1 REVERT JUMPDEST DUP3 PUSH1 0x2 DUP2 SWAP1 SSTORE POP DUP5 PUSH1 0x3 PUSH0 PUSH2 0x100 EXP DUP2 SLOAD DUP2 PUSH20 0xFFFFFFFFFFFFFFFFFFFFFFFFFFFFFFFFFFFFFFFF MUL NOT AND SWAP1 DUP4 PUSH20 0xFFFFFFFFFFFFFFFFFFFFFFFFFFFFFFFFFFFFFFFF AND MUL OR SWAP1 SSTORE POP DUP1 PUSH1 0x6 PUSH0 PUSH2 0x100 EXP DUP2 SLOAD DUP2 PUSH1 0xFF MUL NOT AND SWAP1 DUP4 ISZERO ISZERO MUL OR SWAP1 SSTORE POP PUSH1 0x3 PUSH0 SWAP1 SLOAD SWAP1 PUSH2 0x100 EXP SWAP1 DIV PUSH20 0xFFFFFFFFFFFFFFFFFFFFFFFFFFFFFFFFFFFFFFFF AND PUSH20 0xFFFFFFFFFFFFFFFFFFFFFFFFFFFFFFFFFFFFFFFF AND PUSH4 0x313CE567 PUSH1 0x40 MLOAD DUP2 PUSH4 0xFFFFFFFF AND PUSH1 0xE0 SHL DUP2 MSTORE PUSH1 0x4 ADD PUSH1 0x20 PUSH1 0x40 MLOAD DUP1 DUP4 SUB DUP2 DUP7 GAS STATICCALL ISZERO DUP1 ISZERO PUSH2 0x1686 JUMPI RETURNDATASIZE PUSH0 DUP1 RETURNDATACOPY RETURNDATASIZE PUSH0 REVERT JUMPDEST POP POP POP POP PUSH1 0x40 MLOAD RETURNDATASIZE PUSH1 0x1F NOT PUSH1 0x1F DUP3 ADD AND DUP3 ADD DUP1 PUSH1 0x40 MSTORE POP DUP2 ADD SWAP1 PUSH2 0x16AA SWAP2 SWAP1 PUSH2 0x2F85 JUMP JUMPDEST PUSH1 0xFF AND PUSH1 0x4 DUP2 SWAP1 SSTORE POP DUP4 PUSH1 0x5 DUP2 SWAP1 SSTORE POP DUP2 PUSH1 0x1 DUP2 SWAP1 SSTORE POP PUSH2 0x1711 CALLER ADDRESS PUSH1 0x5 SLOAD PUSH1 0x3 PUSH0 SWAP1 SLOAD SWAP1 PUSH2 0x100 EXP SWAP1 DIV PUSH20 0xFFFFFFFFFFFFFFFFFFFFFFFFFFFFFFFFFFFFFFFF AND PUSH20 0xFFFFFFFFFFFFFFFFFFFFFFFFFFFFFFFFFFFFFFFF AND PUSH2 0x1DEF SWAP1 SWAP4 SWAP3 SWAP2 SWAP1 PUSH4 0xFFFFFFFF AND JUMP JUMPDEST POP POP POP POP POP JUMP JUMPDEST PUSH2 0x1720 PUSH2 0x1B7D JUMP JUMPDEST DUP1 PUSH1 0x5 PUSH0 DUP3 DUP3 SLOAD PUSH2 0x1731 SWAP2 SWAP1 PUSH2 0x2C11 JUMP JUMPDEST SWAP3 POP POP DUP2 SWAP1 SSTORE POP PUSH2 0x1786 CALLER ADDRESS DUP4 PUSH1 0x3 PUSH0 SWAP1 SLOAD SWAP1 PUSH2 0x100 EXP SWAP1 DIV PUSH20 0xFFFFFFFFFFFFFFFFFFFFFFFFFFFFFFFFFFFFFFFF AND PUSH20 0xFFFFFFFFFFFFFFFFFFFFFFFFFFFFFFFFFFFFFFFF AND PUSH2 0x1DEF SWAP1 SWAP4 SWAP3 SWAP2 SWAP1 PUSH4 0xFFFFFFFF AND JUMP JUMPDEST POP JUMP JUMPDEST PUSH1 0x4 SLOAD DUP2 JUMP JUMPDEST PUSH2 0x1797 PUSH2 0x1B7D JUMP JUMPDEST PUSH0 PUSH1 0x6 PUSH0 PUSH2 0x100 EXP DUP2 SLOAD DUP2 PUSH1 0xFF MUL NOT AND SWAP1 DUP4 ISZERO ISZERO MUL OR SWAP1 SSTORE POP JUMP JUMPDEST PUSH1 0x3 PUSH0 SWAP1 SLOAD SWAP1 PUSH2 0x100 EXP SWAP1 DIV PUSH20 0xFFFFFFFFFFFFFFFFFFFFFFFFFFFFFFFFFFFFFFFF AND DUP2 JUMP JUMPDEST PUSH1 0x7 DUP2 DUP2 SLOAD DUP2 LT PUSH2 0x17E6 JUMPI PUSH0 DUP1 REVERT JUMPDEST SWAP1 PUSH0 MSTORE PUSH1 0x20 PUSH0 KECCAK256 ADD PUSH0 SWAP2 POP SLOAD SWAP1 PUSH2 0x100 EXP SWAP1 DIV PUSH20 0xFFFFFFFFFFFFFFFFFFFFFFFFFFFFFFFFFFFFFFFF AND DUP2 JUMP JUMPDEST PUSH2 0x181A PUSH2 0x1B7D JUMP JUMPDEST PUSH0 PUSH20 0xFFFFFFFFFFFFFFFFFFFFFFFFFFFFFFFFFFFFFFFF AND DUP2 PUSH20 0xFFFFFFFFFFFFFFFFFFFFFFFFFFFFFFFFFFFFFFFF AND SUB PUSH2 0x188A JUMPI PUSH0 PUSH1 0x40 MLOAD PUSH32 0x1E4FBDF700000000000000000000000000000000000000000000000000000000 DUP2 MSTORE PUSH1 0x4 ADD PUSH2 0x1881 SWAP2 SWAP1 PUSH2 0x2565 JUMP JUMPDEST PUSH1 0x40 MLOAD DUP1 SWAP2 SUB SWAP1 REVERT JUMPDEST PUSH2 0x1893 DUP2 PUSH2 0x1E71 JUMP JUMPDEST POP JUMP JUMPDEST PUSH2 0x189E PUSH2 0x1B7D JUMP JUMPDEST PUSH2 0x18C9 CALLER DUP3 DUP5 PUSH20 0xFFFFFFFFFFFFFFFFFFFFFFFFFFFFFFFFFFFFFFFF AND PUSH2 0x1F32 SWAP1 SWAP3 SWAP2 SWAP1 PUSH4 0xFFFFFFFF AND JUMP JUMPDEST POP POP JUMP JUMPDEST PUSH1 0xA PUSH1 0x20 MSTORE DUP1 PUSH0 MSTORE PUSH1 0x40 PUSH0 KECCAK256 PUSH0 SWAP2 POP SWAP1 POP DUP1 PUSH0 ADD SLOAD SWAP1 DUP1 PUSH1 0x1 ADD PUSH0 SWAP1 SLOAD SWAP1 PUSH2 0x100 EXP SWAP1 DIV PUSH1 0xFF AND SWAP1 DUP1 PUSH1 0x1 ADD PUSH1 0x1 SWAP1 SLOAD SWAP1 PUSH2 0x100 EXP SWAP1 DIV PUSH1 0xFF AND SWAP1 DUP1 PUSH1 0x2 ADD SLOAD SWAP1 DUP1 PUSH1 0x3 ADD SLOAD SWAP1 POP DUP6 JUMP JUMPDEST PUSH1 0x6 PUSH0 SWAP1 SLOAD SWAP1 PUSH2 0x100 EXP SWAP1 DIV PUSH1 0xFF AND DUP2 JUMP JUMPDEST PUSH2 0x1932 PUSH2 0x1B7D JUMP JUMPDEST PUSH0 DUP2 PUSH20 0xFFFFFFFFFFFFFFFFFFFFFFFFFFFFFFFFFFFFFFFF AND PUSH4 0x70A08231 ADDRESS PUSH1 0x40 MLOAD DUP3 PUSH4 0xFFFFFFFF AND PUSH1 0xE0 SHL DUP2 MSTORE PUSH1 0x4 ADD PUSH2 0x196C SWAP2 SWAP1 PUSH2 0x2565 JUMP JUMPDEST PUSH1 0x20 PUSH1 0x40 MLOAD DUP1 DUP4 SUB DUP2 DUP7 GAS STATICCALL ISZERO DUP1 ISZERO PUSH2 0x1987 JUMPI RETURNDATASIZE PUSH0 DUP1 RETURNDATACOPY RETURNDATASIZE PUSH0 REVERT JUMPDEST POP POP POP POP PUSH1 0x40 MLOAD RETURNDATASIZE PUSH1 0x1F NOT PUSH1 0x1F DUP3 ADD AND DUP3 ADD DUP1 PUSH1 0x40 MSTORE POP DUP2 ADD SWAP1 PUSH2 0x19AB SWAP2 SWAP1 PUSH2 0x2E56 JUMP JUMPDEST SWAP1 POP PUSH2 0x19B7 DUP3 DUP3 PUSH2 0x1896 JUMP JUMPDEST POP POP JUMP JUMPDEST PUSH0 PUSH1 0xA PUSH0 DUP4 PUSH20 0xFFFFFFFFFFFFFFFFFFFFFFFFFFFFFFFFFFFFFFFF AND PUSH20 0xFFFFFFFFFFFFFFFFFFFFFFFFFFFFFFFFFFFFFFFF AND DUP2 MSTORE PUSH1 0x20 ADD SWAP1 DUP2 MSTORE PUSH1 0x20 ADD PUSH0 KECCAK256 PUSH0 ADD SLOAD GT ISZERO PUSH2 0x1B7A JUMPI PUSH0 PUSH2 0x1A0C DUP3 PUSH2 0x128D JUMP JUMPDEST PUSH1 0xA PUSH0 DUP5 PUSH20 0xFFFFFFFFFFFFFFFFFFFFFFFFFFFFFFFFFFFFFFFF AND PUSH20 0xFFFFFFFFFFFFFFFFFFFFFFFFFFFFFFFFFFFFFFFF AND DUP2 MSTORE PUSH1 0x20 ADD SWAP1 DUP2 MSTORE PUSH1 0x20 ADD PUSH0 KECCAK256 PUSH1 0x2 ADD SLOAD PUSH1 0xA PUSH0 DUP6 PUSH20 0xFFFFFFFFFFFFFFFFFFFFFFFFFFFFFFFFFFFFFFFF AND PUSH20 0xFFFFFFFFFFFFFFFFFFFFFFFFFFFFFFFFFFFFFFFF AND DUP2 MSTORE PUSH1 0x20 ADD SWAP1 DUP2 MSTORE PUSH1 0x20 ADD PUSH0 KECCAK256 PUSH0 ADD SLOAD PUSH2 0x1A97 SWAP2 SWAP1 PUSH2 0x2C11 JUMP JUMPDEST PUSH2 0x1AA1 SWAP2 SWAP1 PUSH2 0x2C11 JUMP JUMPDEST SWAP1 POP PUSH0 PUSH1 0xA PUSH0 DUP5 PUSH20 0xFFFFFFFFFFFFFFFFFFFFFFFFFFFFFFFFFFFFFFFF AND PUSH20 0xFFFFFFFFFFFFFFFFFFFFFFFFFFFFFFFFFFFFFFFF AND DUP2 MSTORE PUSH1 0x20 ADD SWAP1 DUP2 MSTORE PUSH1 0x20 ADD PUSH0 KECCAK256 PUSH0 ADD DUP2 SWAP1 SSTORE POP PUSH0 PUSH1 0xA PUSH0 DUP5 PUSH20 0xFFFFFFFFFFFFFFFFFFFFFFFFFFFFFFFFFFFFFFFF AND PUSH20 0xFFFFFFFFFFFFFFFFFFFFFFFFFFFFFFFFFFFFFFFF AND DUP2 MSTORE PUSH1 0x20 ADD SWAP1 DUP2 MSTORE PUSH1 0x20 ADD PUSH0 KECCAK256 PUSH1 0x2 ADD DUP2 SWAP1 SSTORE POP PUSH2 0x1B78 DUP3 DUP3 PUSH1 0x3 PUSH0 SWAP1 SLOAD SWAP1 PUSH2 0x100 EXP SWAP1 DIV PUSH20 0xFFFFFFFFFFFFFFFFFFFFFFFFFFFFFFFFFFFFFFFF AND PUSH20 0xFFFFFFFFFFFFFFFFFFFFFFFFFFFFFFFFFFFFFFFF AND PUSH2 0x1F32 SWAP1 SWAP3 SWAP2 SWAP1 PUSH4 0xFFFFFFFF AND JUMP JUMPDEST POP JUMPDEST POP JUMP JUMPDEST PUSH2 0x1B85 PUSH2 0x1FB1 JUMP JUMPDEST PUSH20 0xFFFFFFFFFFFFFFFFFFFFFFFFFFFFFFFFFFFFFFFF AND PUSH2 0x1BA3 PUSH2 0x13AC JUMP JUMPDEST PUSH20 0xFFFFFFFFFFFFFFFFFFFFFFFFFFFFFFFFFFFFFFFF AND EQ PUSH2 0x1C02 JUMPI PUSH2 0x1BC6 PUSH2 0x1FB1 JUMP JUMPDEST PUSH1 0x40 MLOAD PUSH32 0x118CDAA700000000000000000000000000000000000000000000000000000000 DUP2 MSTORE PUSH1 0x4 ADD PUSH2 0x1BF9 SWAP2 SWAP1 PUSH2 0x2565 JUMP JUMPDEST PUSH1 0x40 MLOAD DUP1 SWAP2 SUB SWAP1 REVERT JUMPDEST JUMP JUMPDEST PUSH0 JUMPDEST PUSH1 0x7 DUP1 SLOAD SWAP1 POP DUP2 LT ISZERO PUSH2 0x1DEC JUMPI PUSH0 PUSH1 0xA PUSH0 PUSH1 0x7 DUP5 DUP2 SLOAD DUP2 LT PUSH2 0x1C2B JUMPI PUSH2 0x1C2A PUSH2 0x2AEE JUMP JUMPDEST JUMPDEST SWAP1 PUSH0 MSTORE PUSH1 0x20 PUSH0 KECCAK256 ADD PUSH0 SWAP1 SLOAD SWAP1 PUSH2 0x100 EXP SWAP1 DIV PUSH20 0xFFFFFFFFFFFFFFFFFFFFFFFFFFFFFFFFFFFFFFFF AND PUSH20 0xFFFFFFFFFFFFFFFFFFFFFFFFFFFFFFFFFFFFFFFF AND PUSH20 0xFFFFFFFFFFFFFFFFFFFFFFFFFFFFFFFFFFFFFFFF AND DUP2 MSTORE PUSH1 0x20 ADD SWAP1 DUP2 MSTORE PUSH1 0x20 ADD PUSH0 KECCAK256 PUSH0 ADD SLOAD GT ISZERO PUSH2 0x1DD9 JUMPI PUSH2 0x1CD9 PUSH1 0x7 DUP3 DUP2 SLOAD DUP2 LT PUSH2 0x1CAC JUMPI PUSH2 0x1CAB PUSH2 0x2AEE JUMP JUMPDEST JUMPDEST SWAP1 PUSH0 MSTORE PUSH1 0x20 PUSH0 KECCAK256 ADD PUSH0 SWAP1 SLOAD SWAP1 PUSH2 0x100 EXP SWAP1 DIV PUSH20 0xFFFFFFFFFFFFFFFFFFFFFFFFFFFFFFFFFFFFFFFF AND PUSH2 0x128D JUMP JUMPDEST PUSH1 0xA PUSH0 PUSH1 0x7 DUP5 DUP2 SLOAD DUP2 LT PUSH2 0x1CF0 JUMPI PUSH2 0x1CEF PUSH2 0x2AEE JUMP JUMPDEST JUMPDEST SWAP1 PUSH0 MSTORE PUSH1 0x20 PUSH0 KECCAK256 ADD PUSH0 SWAP1 SLOAD SWAP1 PUSH2 0x100 EXP SWAP1 DIV PUSH20 0xFFFFFFFFFFFFFFFFFFFFFFFFFFFFFFFFFFFFFFFF AND PUSH20 0xFFFFFFFFFFFFFFFFFFFFFFFFFFFFFFFFFFFFFFFF AND PUSH20 0xFFFFFFFFFFFFFFFFFFFFFFFFFFFFFFFFFFFFFFFF AND DUP2 MSTORE PUSH1 0x20 ADD SWAP1 DUP2 MSTORE PUSH1 0x20 ADD PUSH0 KECCAK256 PUSH1 0x2 ADD DUP2 SWAP1 SSTORE POP TIMESTAMP PUSH1 0xA PUSH0 PUSH1 0x7 DUP5 DUP2 SLOAD DUP2 LT PUSH2 0x1D70 JUMPI PUSH2 0x1D6F PUSH2 0x2AEE JUMP JUMPDEST JUMPDEST SWAP1 PUSH0 MSTORE PUSH1 0x20 PUSH0 KECCAK256 ADD PUSH0 SWAP1 SLOAD SWAP1 PUSH2 0x100 EXP SWAP1 DIV PUSH20 0xFFFFFFFFFFFFFFFFFFFFFFFFFFFFFFFFFFFFFFFF AND PUSH20 0xFFFFFFFFFFFFFFFFFFFFFFFFFFFFFFFFFFFFFFFF AND PUSH20 0xFFFFFFFFFFFFFFFFFFFFFFFFFFFFFFFFFFFFFFFF AND DUP2 MSTORE PUSH1 0x20 ADD SWAP1 DUP2 MSTORE PUSH1 0x20 ADD PUSH0 KECCAK256 PUSH1 0x3 ADD DUP2 SWAP1 SSTORE POP JUMPDEST DUP1 DUP1 PUSH2 0x1DE4 SWAP1 PUSH2 0x2C44 JUMP JUMPDEST SWAP2 POP POP PUSH2 0x1C06 JUMP JUMPDEST POP JUMP JUMPDEST PUSH2 0x1E6B DUP5 DUP6 PUSH20 0xFFFFFFFFFFFFFFFFFFFFFFFFFFFFFFFFFFFFFFFF AND PUSH4 0x23B872DD DUP7 DUP7 DUP7 PUSH1 0x40 MLOAD PUSH1 0x24 ADD PUSH2 0x1E24 SWAP4 SWAP3 SWAP2 SWAP1 PUSH2 0x2FB0 JUMP JUMPDEST PUSH1 0x40 MLOAD PUSH1 0x20 DUP2 DUP4 SUB SUB DUP2 MSTORE SWAP1 PUSH1 0x40 MSTORE SWAP2 POP PUSH1 0xE0 SHL PUSH1 0x20 DUP3 ADD DUP1 MLOAD PUSH28 0xFFFFFFFFFFFFFFFFFFFFFFFFFFFFFFFFFFFFFFFFFFFFFFFFFFFFFFFF DUP4 DUP2 DUP4 AND OR DUP4 MSTORE POP POP POP POP PUSH2 0x1FB8 JUMP JUMPDEST POP POP POP POP JUMP JUMPDEST PUSH0 DUP1 PUSH0 SWAP1 SLOAD SWAP1 PUSH2 0x100 EXP SWAP1 DIV PUSH20 0xFFFFFFFFFFFFFFFFFFFFFFFFFFFFFFFFFFFFFFFF AND SWAP1 POP DUP2 PUSH0 DUP1 PUSH2 0x100 EXP DUP2 SLOAD DUP2 PUSH20 0xFFFFFFFFFFFFFFFFFFFFFFFFFFFFFFFFFFFFFFFF MUL NOT AND SWAP1 DUP4 PUSH20 0xFFFFFFFFFFFFFFFFFFFFFFFFFFFFFFFFFFFFFFFF AND MUL OR SWAP1 SSTORE POP DUP2 PUSH20 0xFFFFFFFFFFFFFFFFFFFFFFFFFFFFFFFFFFFFFFFF AND DUP2 PUSH20 0xFFFFFFFFFFFFFFFFFFFFFFFFFFFFFFFFFFFFFFFF AND PUSH32 0x8BE0079C531659141344CD1FD0A4F28419497F9722A3DAAFE3B4186F6B6457E0 PUSH1 0x40 MLOAD PUSH1 0x40 MLOAD DUP1 SWAP2 SUB SWAP1 LOG3 POP POP JUMP JUMPDEST PUSH2 0x1FAC DUP4 DUP5 PUSH20 0xFFFFFFFFFFFFFFFFFFFFFFFFFFFFFFFFFFFFFFFF AND PUSH4 0xA9059CBB DUP6 DUP6 PUSH1 0x40 MLOAD PUSH1 0x24 ADD PUSH2 0x1F65 SWAP3 SWAP2 SWAP1 PUSH2 0x2E81 JUMP JUMPDEST PUSH1 0x40 MLOAD PUSH1 0x20 DUP2 DUP4 SUB SUB DUP2 MSTORE SWAP1 PUSH1 0x40 MSTORE SWAP2 POP PUSH1 0xE0 SHL PUSH1 0x20 DUP3 ADD DUP1 MLOAD PUSH28 0xFFFFFFFFFFFFFFFFFFFFFFFFFFFFFFFFFFFFFFFFFFFFFFFFFFFFFFFF DUP4 DUP2 DUP4 AND OR DUP4 MSTORE POP POP POP POP PUSH2 0x1FB8 JUMP JUMPDEST POP POP POP JUMP JUMPDEST PUSH0 CALLER SWAP1 POP SWAP1 JUMP JUMPDEST PUSH0 DUP1 PUSH1 0x20 PUSH0 DUP5 MLOAD PUSH1 0x20 DUP7 ADD PUSH0 DUP9 GAS CALL DUP1 PUSH2 0x1FD7 JUMPI PUSH1 0x40 MLOAD RETURNDATASIZE PUSH0 DUP3 RETURNDATACOPY RETURNDATASIZE DUP2 REVERT JUMPDEST RETURNDATASIZE SWAP3 POP PUSH0 MLOAD SWAP2 POP POP PUSH0 DUP3 EQ PUSH2 0x1FF0 JUMPI PUSH1 0x1 DUP2 EQ ISZERO PUSH2 0x200B JUMP JUMPDEST PUSH0 DUP5 PUSH20 0xFFFFFFFFFFFFFFFFFFFFFFFFFFFFFFFFFFFFFFFF AND EXTCODESIZE EQ JUMPDEST ISZERO PUSH2 0x204D JUMPI DUP4 PUSH1 0x40 MLOAD PUSH32 0x5274AFE700000000000000000000000000000000000000000000000000000000 DUP2 MSTORE PUSH1 0x4 ADD PUSH2 0x2044 SWAP2 SWAP1 PUSH2 0x2565 JUMP JUMPDEST PUSH1 0x40 MLOAD DUP1 SWAP2 SUB SWAP1 REVERT JUMPDEST POP POP POP POP JUMP JUMPDEST PUSH0 PUSH1 0x40 MLOAD SWAP1 POP SWAP1 JUMP JUMPDEST PUSH0 DUP1 REVERT JUMPDEST PUSH0 DUP1 REVERT JUMPDEST PUSH0 PUSH20 0xFFFFFFFFFFFFFFFFFFFFFFFFFFFFFFFFFFFFFFFF DUP3 AND SWAP1 POP SWAP2 SWAP1 POP JUMP JUMPDEST PUSH0 PUSH2 0x208D DUP3 PUSH2 0x2064 JUMP JUMPDEST SWAP1 POP SWAP2 SWAP1 POP JUMP JUMPDEST PUSH2 0x209D DUP2 PUSH2 0x2083 JUMP JUMPDEST DUP2 EQ PUSH2 0x20A7 JUMPI PUSH0 DUP1 REVERT JUMPDEST POP JUMP JUMPDEST PUSH0 DUP2 CALLDATALOAD SWAP1 POP PUSH2 0x20B8 DUP2 PUSH2 0x2094 JUMP JUMPDEST SWAP3 SWAP2 POP POP JUMP JUMPDEST PUSH0 DUP2 SWAP1 POP SWAP2 SWAP1 POP JUMP JUMPDEST PUSH2 0x20D0 DUP2 PUSH2 0x20BE JUMP JUMPDEST DUP2 EQ PUSH2 0x20DA JUMPI PUSH0 DUP1 REVERT JUMPDEST POP JUMP JUMPDEST PUSH0 DUP2 CALLDATALOAD SWAP1 POP PUSH2 0x20EB DUP2 PUSH2 0x20C7 JUMP JUMPDEST SWAP3 SWAP2 POP POP JUMP JUMPDEST PUSH0 DUP1 PUSH1 0x40 DUP4 DUP6 SUB SLT ISZERO PUSH2 0x2107 JUMPI PUSH2 0x2106 PUSH2 0x205C JUMP JUMPDEST JUMPDEST PUSH0 PUSH2 0x2114 DUP6 DUP3 DUP7 ADD PUSH2 0x20AA JUMP JUMPDEST SWAP3 POP POP PUSH1 0x20 PUSH2 0x2125 DUP6 DUP3 DUP7 ADD PUSH2 0x20DD JUMP JUMPDEST SWAP2 POP POP SWAP3 POP SWAP3 SWAP1 POP JUMP JUMPDEST PUSH2 0x2138 DUP2 PUSH2 0x20BE JUMP JUMPDEST DUP3 MSTORE POP POP JUMP JUMPDEST PUSH0 PUSH1 0x20 DUP3 ADD SWAP1 POP PUSH2 0x2151 PUSH0 DUP4 ADD DUP5 PUSH2 0x212F JUMP JUMPDEST SWAP3 SWAP2 POP POP JUMP JUMPDEST PUSH0 PUSH1 0x20 DUP3 DUP5 SUB SLT ISZERO PUSH2 0x216C JUMPI PUSH2 0x216B PUSH2 0x205C JUMP JUMPDEST JUMPDEST PUSH0 PUSH2 0x2179 DUP5 DUP3 DUP6 ADD PUSH2 0x20AA JUMP JUMPDEST SWAP2 POP POP SWAP3 SWAP2 POP POP JUMP JUMPDEST PUSH0 DUP2 ISZERO ISZERO SWAP1 POP SWAP2 SWAP1 POP JUMP JUMPDEST PUSH2 0x2196 DUP2 PUSH2 0x2182 JUMP JUMPDEST DUP2 EQ PUSH2 0x21A0 JUMPI PUSH0 DUP1 REVERT JUMPDEST POP JUMP JUMPDEST PUSH0 DUP2 CALLDATALOAD SWAP1 POP PUSH2 0x21B1 DUP2 PUSH2 0x218D JUMP JUMPDEST SWAP3 SWAP2 POP POP JUMP JUMPDEST PUSH0 DUP1 PUSH1 0x40 DUP4 DUP6 SUB SLT ISZERO PUSH2 0x21CD JUMPI PUSH2 0x21CC PUSH2 0x205C JUMP JUMPDEST JUMPDEST PUSH0 PUSH2 0x21DA DUP6 DUP3 DUP7 ADD PUSH2 0x20AA JUMP JUMPDEST SWAP3 POP POP PUSH1 0x20 PUSH2 0x21EB DUP6 DUP3 DUP7 ADD PUSH2 0x21A3 JUMP JUMPDEST SWAP2 POP POP SWAP3 POP SWAP3 SWAP1 POP JUMP JUMPDEST PUSH0 DUP1 REVERT JUMPDEST PUSH0 PUSH1 0x1F NOT PUSH1 0x1F DUP4 ADD AND SWAP1 POP SWAP2 SWAP1 POP JUMP JUMPDEST PUSH32 0x4E487B7100000000000000000000000000000000000000000000000000000000 PUSH0 MSTORE PUSH1 0x41 PUSH1 0x4 MSTORE PUSH1 0x24 PUSH0 REVERT JUMPDEST PUSH2 0x223F DUP3 PUSH2 0x21F9 JUMP JUMPDEST DUP2 ADD DUP2 DUP2 LT PUSH8 0xFFFFFFFFFFFFFFFF DUP3 GT OR ISZERO PUSH2 0x225E JUMPI PUSH2 0x225D PUSH2 0x2209 JUMP JUMPDEST JUMPDEST DUP1 PUSH1 0x40 MSTORE POP POP POP JUMP JUMPDEST PUSH0 PUSH2 0x2270 PUSH2 0x2053 JUMP JUMPDEST SWAP1 POP PUSH2 0x227C DUP3 DUP3 PUSH2 0x2236 JUMP JUMPDEST SWAP2 SWAP1 POP JUMP JUMPDEST PUSH0 PUSH8 0xFFFFFFFFFFFFFFFF DUP3 GT ISZERO PUSH2 0x229B JUMPI PUSH2 0x229A PUSH2 0x2209 JUMP JUMPDEST JUMPDEST PUSH1 0x20 DUP3 MUL SWAP1 POP PUSH1 0x20 DUP2 ADD SWAP1 POP SWAP2 SWAP1 POP JUMP JUMPDEST PUSH0 DUP1 REVERT JUMPDEST PUSH0 PUSH2 0x22C2 PUSH2 0x22BD DUP5 PUSH2 0x2281 JUMP JUMPDEST PUSH2 0x2267 JUMP JUMPDEST SWAP1 POP DUP1 DUP4 DUP3 MSTORE PUSH1 0x20 DUP3 ADD SWAP1 POP PUSH1 0x20 DUP5 MUL DUP4 ADD DUP6 DUP2 GT ISZERO PUSH2 0x22E5 JUMPI PUSH2 0x22E4 PUSH2 0x22AC JUMP JUMPDEST JUMPDEST DUP4 JUMPDEST DUP2 DUP2 LT ISZERO PUSH2 0x230E JUMPI DUP1 PUSH2 0x22FA DUP9 DUP3 PUSH2 0x20AA JUMP JUMPDEST DUP5 MSTORE PUSH1 0x20 DUP5 ADD SWAP4 POP POP PUSH1 0x20 DUP2 ADD SWAP1 POP PUSH2 0x22E7 JUMP JUMPDEST POP POP POP SWAP4 SWAP3 POP POP POP JUMP JUMPDEST PUSH0 DUP3 PUSH1 0x1F DUP4 ADD SLT PUSH2 0x232C JUMPI PUSH2 0x232B PUSH2 0x21F5 JUMP JUMPDEST JUMPDEST DUP2 CALLDATALOAD PUSH2 0x233C DUP5 DUP3 PUSH1 0x20 DUP7 ADD PUSH2 0x22B0 JUMP JUMPDEST SWAP2 POP POP SWAP3 SWAP2 POP POP JUMP JUMPDEST PUSH0 PUSH8 0xFFFFFFFFFFFFFFFF DUP3 GT ISZERO PUSH2 0x235F JUMPI PUSH2 0x235E PUSH2 0x2209 JUMP JUMPDEST JUMPDEST PUSH1 0x20 DUP3 MUL SWAP1 POP PUSH1 0x20 DUP2 ADD SWAP1 POP SWAP2 SWAP1 POP JUMP JUMPDEST PUSH0 PUSH2 0x2382 PUSH2 0x237D DUP5 PUSH2 0x2345 JUMP JUMPDEST PUSH2 0x2267 JUMP JUMPDEST SWAP1 POP DUP1 DUP4 DUP3 MSTORE PUSH1 0x20 DUP3 ADD SWAP1 POP PUSH1 0x20 DUP5 MUL DUP4 ADD DUP6 DUP2 GT ISZERO PUSH2 0x23A5 JUMPI PUSH2 0x23A4 PUSH2 0x22AC JUMP JUMPDEST JUMPDEST DUP4 JUMPDEST DUP2 DUP2 LT ISZERO PUSH2 0x23CE JUMPI DUP1 PUSH2 0x23BA DUP9 DUP3 PUSH2 0x20DD JUMP JUMPDEST DUP5 MSTORE PUSH1 0x20 DUP5 ADD SWAP4 POP POP PUSH1 0x20 DUP2 ADD SWAP1 POP PUSH2 0x23A7 JUMP JUMPDEST POP POP POP SWAP4 SWAP3 POP POP POP JUMP JUMPDEST PUSH0 DUP3 PUSH1 0x1F DUP4 ADD SLT PUSH2 0x23EC JUMPI PUSH2 0x23EB PUSH2 0x21F5 JUMP JUMPDEST JUMPDEST DUP2 CALLDATALOAD PUSH2 0x23FC DUP5 DUP3 PUSH1 0x20 DUP7 ADD PUSH2 0x2370 JUMP JUMPDEST SWAP2 POP POP SWAP3 SWAP2 POP POP JUMP JUMPDEST PUSH0 DUP1 PUSH0 PUSH1 0x60 DUP5 DUP7 SUB SLT ISZERO PUSH2 0x241C JUMPI PUSH2 0x241B PUSH2 0x205C JUMP JUMPDEST JUMPDEST PUSH0 DUP5 ADD CALLDATALOAD PUSH8 0xFFFFFFFFFFFFFFFF DUP2 GT ISZERO PUSH2 0x2439 JUMPI PUSH2 0x2438 PUSH2 0x2060 JUMP JUMPDEST JUMPDEST PUSH2 0x2445 DUP7 DUP3 DUP8 ADD PUSH2 0x2318 JUMP JUMPDEST SWAP4 POP POP PUSH1 0x20 DUP5 ADD CALLDATALOAD PUSH8 0xFFFFFFFFFFFFFFFF DUP2 GT ISZERO PUSH2 0x2466 JUMPI PUSH2 0x2465 PUSH2 0x2060 JUMP JUMPDEST JUMPDEST PUSH2 0x2472 DUP7 DUP3 DUP8 ADD PUSH2 0x23D8 JUMP JUMPDEST SWAP3 POP POP PUSH1 0x40 PUSH2 0x2483 DUP7 DUP3 DUP8 ADD PUSH2 0x20DD JUMP JUMPDEST SWAP2 POP POP SWAP3 POP SWAP3 POP SWAP3 JUMP JUMPDEST PUSH0 PUSH1 0x20 DUP3 DUP5 SUB SLT ISZERO PUSH2 0x24A2 JUMPI PUSH2 0x24A1 PUSH2 0x205C JUMP JUMPDEST JUMPDEST PUSH0 PUSH2 0x24AF DUP5 DUP3 DUP6 ADD PUSH2 0x20DD JUMP JUMPDEST SWAP2 POP POP SWAP3 SWAP2 POP POP JUMP JUMPDEST PUSH0 DUP1 PUSH1 0x40 DUP4 DUP6 SUB SLT ISZERO PUSH2 0x24CE JUMPI PUSH2 0x24CD PUSH2 0x205C JUMP JUMPDEST JUMPDEST PUSH0 DUP4 ADD CALLDATALOAD PUSH8 0xFFFFFFFFFFFFFFFF DUP2 GT ISZERO PUSH2 0x24EB JUMPI PUSH2 0x24EA PUSH2 0x2060 JUMP JUMPDEST JUMPDEST PUSH2 0x24F7 DUP6 DUP3 DUP7 ADD PUSH2 0x2318 JUMP JUMPDEST SWAP3 POP POP PUSH1 0x20 DUP4 ADD CALLDATALOAD PUSH8 0xFFFFFFFFFFFFFFFF DUP2 GT ISZERO PUSH2 0x2518 JUMPI PUSH2 0x2517 PUSH2 0x2060 JUMP JUMPDEST JUMPDEST PUSH2 0x2524 DUP6 DUP3 DUP7 ADD PUSH2 0x23D8 JUMP JUMPDEST SWAP2 POP POP SWAP3 POP SWAP3 SWAP1 POP JUMP JUMPDEST PUSH2 0x2537 DUP2 PUSH2 0x2182 JUMP JUMPDEST DUP3 MSTORE POP POP JUMP JUMPDEST PUSH0 PUSH1 0x20 DUP3 ADD SWAP1 POP PUSH2 0x2550 PUSH0 DUP4 ADD DUP5 PUSH2 0x252E JUMP JUMPDEST SWAP3 SWAP2 POP POP JUMP JUMPDEST PUSH2 0x255F DUP2 PUSH2 0x2083 JUMP JUMPDEST DUP3 MSTORE POP POP JUMP JUMPDEST PUSH0 PUSH1 0x20 DUP3 ADD SWAP1 POP PUSH2 0x2578 PUSH0 DUP4 ADD DUP5 PUSH2 0x2556 JUMP JUMPDEST SWAP3 SWAP2 POP POP JUMP JUMPDEST PUSH0 DUP1 PUSH0 DUP1 PUSH0 PUSH1 0xA0 DUP7 DUP9 SUB SLT ISZERO PUSH2 0x2597 JUMPI PUSH2 0x2596 PUSH2 0x205C JUMP JUMPDEST JUMPDEST PUSH0 PUSH2 0x25A4 DUP9 DUP3 DUP10 ADD PUSH2 0x20AA JUMP JUMPDEST SWAP6 POP POP PUSH1 0x20 PUSH2 0x25B5 DUP9 DUP3 DUP10 ADD PUSH2 0x20DD JUMP JUMPDEST SWAP5 POP POP PUSH1 0x40 PUSH2 0x25C6 DUP9 DUP3 DUP10 ADD PUSH2 0x20DD JUMP JUMPDEST SWAP4 POP POP PUSH1 0x60 PUSH2 0x25D7 DUP9 DUP3 DUP10 ADD PUSH2 0x20DD JUMP JUMPDEST SWAP3 POP POP PUSH1 0x80 PUSH2 0x25E8 DUP9 DUP3 DUP10 ADD PUSH2 0x21A3 JUMP JUMPDEST SWAP2 POP POP SWAP3 SWAP6 POP SWAP3 SWAP6 SWAP1 SWAP4 POP JUMP JUMPDEST PUSH0 PUSH1 0xA0 DUP3 ADD SWAP1 POP PUSH2 0x2608 PUSH0 DUP4 ADD DUP9 PUSH2 0x212F JUMP JUMPDEST PUSH2 0x2615 PUSH1 0x20 DUP4 ADD DUP8 PUSH2 0x252E JUMP JUMPDEST PUSH2 0x2622 PUSH1 0x40 DUP4 ADD DUP7 PUSH2 0x252E JUMP JUMPDEST PUSH2 0x262F PUSH1 0x60 DUP4 ADD DUP6 PUSH2 0x212F JUMP JUMPDEST PUSH2 0x263C PUSH1 0x80 DUP4 ADD DUP5 PUSH2 0x212F JUMP JUMPDEST SWAP7 SWAP6 POP POP POP POP POP POP JUMP JUMPDEST PUSH0 DUP3 DUP3 MSTORE PUSH1 0x20 DUP3 ADD SWAP1 POP SWAP3 SWAP2 POP POP JUMP JUMPDEST PUSH32 0x50726573616C653A20546F6B656E206E6F7420616C6C6F776564000000000000 PUSH0 DUP3 ADD MSTORE POP JUMP JUMPDEST PUSH0 PUSH2 0x268A PUSH1 0x1A DUP4 PUSH2 0x2646 JUMP JUMPDEST SWAP2 POP PUSH2 0x2695 DUP3 PUSH2 0x2656 JUMP JUMPDEST PUSH1 0x20 DUP3 ADD SWAP1 POP SWAP2 SWAP1 POP JUMP JUMPDEST PUSH0 PUSH1 0x20 DUP3 ADD SWAP1 POP DUP2 DUP2 SUB PUSH0 DUP4 ADD MSTORE PUSH2 0x26B7 DUP2 PUSH2 0x267E JUMP JUMPDEST SWAP1 POP SWAP2 SWAP1 POP JUMP JUMPDEST PUSH32 0x4E487B7100000000000000000000000000000000000000000000000000000000 PUSH0 MSTORE PUSH1 0x11 PUSH1 0x4 MSTORE PUSH1 0x24 PUSH0 REVERT JUMPDEST PUSH0 DUP2 PUSH1 0x1 SHR SWAP1 POP SWAP2 SWAP1 POP JUMP JUMPDEST PUSH0 DUP1 DUP3 SWAP2 POP DUP4 SWAP1 POP JUMPDEST PUSH1 0x1 DUP6 GT ISZERO PUSH2 0x2740 JUMPI DUP1 DUP7 DIV DUP2 GT ISZERO PUSH2 0x271C JUMPI PUSH2 0x271B PUSH2 0x26BE JUMP JUMPDEST JUMPDEST PUSH1 0x1 DUP6 AND ISZERO PUSH2 0x272B JUMPI DUP1 DUP3 MUL SWAP2 POP JUMPDEST DUP1 DUP2 MUL SWAP1 POP PUSH2 0x2739 DUP6 PUSH2 0x26EB JUMP JUMPDEST SWAP5 POP PUSH2 0x2700 JUMP JUMPDEST SWAP5 POP SWAP5 SWAP3 POP POP POP JUMP JUMPDEST PUSH0 DUP3 PUSH2 0x2758 JUMPI PUSH1 0x1 SWAP1 POP PUSH2 0x2813 JUMP JUMPDEST DUP2 PUSH2 0x2765 JUMPI PUSH0 SWAP1 POP PUSH2 0x2813 JUMP JUMPDEST DUP2 PUSH1 0x1 DUP2 EQ PUSH2 0x277B JUMPI PUSH1 0x2 DUP2 EQ PUSH2 0x2785 JUMPI PUSH2 0x27B4 JUMP JUMPDEST PUSH1 0x1 SWAP2 POP POP PUSH2 0x2813 JUMP JUMPDEST PUSH1 0xFF DUP5 GT ISZERO PUSH2 0x2797 JUMPI PUSH2 0x2796 PUSH2 0x26BE JUMP JUMPDEST JUMPDEST DUP4 PUSH1 0x2 EXP SWAP2 POP DUP5 DUP3 GT ISZERO PUSH2 0x27AE JUMPI PUSH2 0x27AD PUSH2 0x26BE JUMP JUMPDEST JUMPDEST POP PUSH2 0x2813 JUMP JUMPDEST POP PUSH1 0x20 DUP4 LT PUSH2 0x133 DUP4 LT AND PUSH1 0x4E DUP5 LT PUSH1 0xB DUP5 LT AND OR ISZERO PUSH2 0x27E9 JUMPI DUP3 DUP3 EXP SWAP1 POP DUP4 DUP2 GT ISZERO PUSH2 0x27E4 JUMPI PUSH2 0x27E3 PUSH2 0x26BE JUMP JUMPDEST JUMPDEST PUSH2 0x2813 JUMP JUMPDEST PUSH2 0x27F6 DUP5 DUP5 DUP5 PUSH1 0x1 PUSH2 0x26F7 JUMP JUMPDEST SWAP3 POP SWAP1 POP DUP2 DUP5 DIV DUP2 GT ISZERO PUSH2 0x280D JUMPI PUSH2 0x280C PUSH2 0x26BE JUMP JUMPDEST JUMPDEST DUP2 DUP2 MUL SWAP1 POP JUMPDEST SWAP4 SWAP3 POP POP POP JUMP JUMPDEST PUSH0 PUSH2 0x2824 DUP3 PUSH2 0x20BE JUMP JUMPDEST SWAP2 POP PUSH2 0x282F DUP4 PUSH2 0x20BE JUMP JUMPDEST SWAP3 POP PUSH2 0x285C PUSH32 0xFFFFFFFFFFFFFFFFFFFFFFFFFFFFFFFFFFFFFFFFFFFFFFFFFFFFFFFFFFFFFFFF DUP5 DUP5 PUSH2 0x2749 JUMP JUMPDEST SWAP1 POP SWAP3 SWAP2 POP POP JUMP JUMPDEST PUSH0 PUSH2 0x286E DUP3 PUSH2 0x20BE JUMP JUMPDEST SWAP2 POP PUSH2 0x2879 DUP4 PUSH2 0x20BE JUMP JUMPDEST SWAP3 POP DUP3 DUP3 MUL PUSH2 0x2887 DUP2 PUSH2 0x20BE JUMP JUMPDEST SWAP2 POP DUP3 DUP3 DIV DUP5 EQ DUP4 ISZERO OR PUSH2 0x289E JUMPI PUSH2 0x289D PUSH2 0x26BE JUMP JUMPDEST JUMPDEST POP SWAP3 SWAP2 POP POP JUMP JUMPDEST PUSH32 0x4E487B7100000000000000000000000000000000000000000000000000000000 PUSH0 MSTORE PUSH1 0x12 PUSH1 0x4 MSTORE PUSH1 0x24 PUSH0 REVERT JUMPDEST PUSH0 PUSH2 0x28DC DUP3 PUSH2 0x20BE JUMP JUMPDEST SWAP2 POP PUSH2 0x28E7 DUP4 PUSH2 0x20BE JUMP JUMPDEST SWAP3 POP DUP3 PUSH2 0x28F7 JUMPI PUSH2 0x28F6 PUSH2 0x28A5 JUMP JUMPDEST JUMPDEST DUP3 DUP3 DIV SWAP1 POP SWAP3 SWAP2 POP POP JUMP JUMPDEST PUSH32 0x50726573616C653A206973206E6F742073746F70706564000000000000000000 PUSH0 DUP3 ADD MSTORE POP JUMP JUMPDEST PUSH0 PUSH2 0x2936 PUSH1 0x17 DUP4 PUSH2 0x2646 JUMP JUMPDEST SWAP2 POP PUSH2 0x2941 DUP3 PUSH2 0x2902 JUMP JUMPDEST PUSH1 0x20 DUP3 ADD SWAP1 POP SWAP2 SWAP1 POP JUMP JUMPDEST PUSH0 PUSH1 0x20 DUP3 ADD SWAP1 POP DUP2 DUP2 SUB PUSH0 DUP4 ADD MSTORE PUSH2 0x2963 DUP2 PUSH2 0x292A JUMP JUMPDEST SWAP1 POP SWAP2 SWAP1 POP JUMP JUMPDEST PUSH32 0x50726573616C653A204E6F20746F6B656E7320746F20636C61696D0000000000 PUSH0 DUP3 ADD MSTORE POP JUMP JUMPDEST PUSH0 PUSH2 0x299E PUSH1 0x1B DUP4 PUSH2 0x2646 JUMP JUMPDEST SWAP2 POP PUSH2 0x29A9 DUP3 PUSH2 0x296A JUMP JUMPDEST PUSH1 0x20 DUP3 ADD SWAP1 POP SWAP2 SWAP1 POP JUMP JUMPDEST PUSH0 PUSH1 0x20 DUP3 ADD SWAP1 POP DUP2 DUP2 SUB PUSH0 DUP4 ADD MSTORE PUSH2 0x29CB DUP2 PUSH2 0x2992 JUMP JUMPDEST SWAP1 POP SWAP2 SWAP1 POP JUMP JUMPDEST PUSH32 0x50726573616C653A2053746174757320697320616C7265616479207365742074 PUSH0 DUP3 ADD MSTORE PUSH32 0x6F2074686520646573697265642076616C756500000000000000000000000000 PUSH1 0x20 DUP3 ADD MSTORE POP JUMP JUMPDEST PUSH0 PUSH2 0x2A2C PUSH1 0x33 DUP4 PUSH2 0x2646 JUMP JUMPDEST SWAP2 POP PUSH2 0x2A37 DUP3 PUSH2 0x29D2 JUMP JUMPDEST PUSH1 0x40 DUP3 ADD SWAP1 POP SWAP2 SWAP1 POP JUMP JUMPDEST PUSH0 PUSH1 0x20 DUP3 ADD SWAP1 POP DUP2 DUP2 SUB PUSH0 DUP4 ADD MSTORE PUSH2 0x2A59 DUP2 PUSH2 0x2A20 JUMP JUMPDEST SWAP1 POP SWAP2 SWAP1 POP JUMP JUMPDEST PUSH32 0x50726573616C653A20746F6B656E732026207072696365732061727261797320 PUSH0 DUP3 ADD MSTORE PUSH32 0x6C656E677468206D69736D617463680000000000000000000000000000000000 PUSH1 0x20 DUP3 ADD MSTORE POP JUMP JUMPDEST PUSH0 PUSH2 0x2ABA PUSH1 0x2F DUP4 PUSH2 0x2646 JUMP JUMPDEST SWAP2 POP PUSH2 0x2AC5 DUP3 PUSH2 0x2A60 JUMP JUMPDEST PUSH1 0x40 DUP3 ADD SWAP1 POP SWAP2 SWAP1 POP JUMP JUMPDEST PUSH0 PUSH1 0x20 DUP3 ADD SWAP1 POP DUP2 DUP2 SUB PUSH0 DUP4 ADD MSTORE PUSH2 0x2AE7 DUP2 PUSH2 0x2AAE JUMP JUMPDEST SWAP1 POP SWAP2 SWAP1 POP JUMP JUMPDEST PUSH32 0x4E487B7100000000000000000000000000000000000000000000000000000000 PUSH0 MSTORE PUSH1 0x32 PUSH1 0x4 MSTORE PUSH1 0x24 PUSH0 REVERT JUMPDEST PUSH32 0x50726573616C653A20546F6B656E206973206E6F7420612070617961626C6520 PUSH0 DUP3 ADD MSTORE PUSH32 0x746F6B656E000000000000000000000000000000000000000000000000000000 PUSH1 0x20 DUP3 ADD MSTORE POP JUMP JUMPDEST PUSH0 PUSH2 0x2B75 PUSH1 0x25 DUP4 PUSH2 0x2646 JUMP JUMPDEST SWAP2 POP PUSH2 0x2B80 DUP3 PUSH2 0x2B1B JUMP JUMPDEST PUSH1 0x40 DUP3 ADD SWAP1 POP SWAP2 SWAP1 POP JUMP JUMPDEST PUSH0 PUSH1 0x20 DUP3 ADD SWAP1 POP DUP2 DUP2 SUB PUSH0 DUP4 ADD MSTORE PUSH2 0x2BA2 DUP2 PUSH2 0x2B69 JUMP JUMPDEST SWAP1 POP SWAP2 SWAP1 POP JUMP JUMPDEST PUSH32 0x50726573616C653A2050726963652063616E6E6F74206265207A65726F000000 PUSH0 DUP3 ADD MSTORE POP JUMP JUMPDEST PUSH0 PUSH2 0x2BDD PUSH1 0x1D DUP4 PUSH2 0x2646 JUMP JUMPDEST SWAP2 POP PUSH2 0x2BE8 DUP3 PUSH2 0x2BA9 JUMP JUMPDEST PUSH1 0x20 DUP3 ADD SWAP1 POP SWAP2 SWAP1 POP JUMP JUMPDEST PUSH0 PUSH1 0x20 DUP3 ADD SWAP1 POP DUP2 DUP2 SUB PUSH0 DUP4 ADD MSTORE PUSH2 0x2C0A DUP2 PUSH2 0x2BD1 JUMP JUMPDEST SWAP1 POP SWAP2 SWAP1 POP JUMP JUMPDEST PUSH0 PUSH2 0x2C1B DUP3 PUSH2 0x20BE JUMP JUMPDEST SWAP2 POP PUSH2 0x2C26 DUP4 PUSH2 0x20BE JUMP JUMPDEST SWAP3 POP DUP3 DUP3 ADD SWAP1 POP DUP1 DUP3 GT ISZERO PUSH2 0x2C3E JUMPI PUSH2 0x2C3D PUSH2 0x26BE JUMP JUMPDEST JUMPDEST SWAP3 SWAP2 POP POP JUMP JUMPDEST PUSH0 PUSH2 0x2C4E DUP3 PUSH2 0x20BE JUMP JUMPDEST SWAP2 POP PUSH32 0xFFFFFFFFFFFFFFFFFFFFFFFFFFFFFFFFFFFFFFFFFFFFFFFFFFFFFFFFFFFFFFFF DUP3 SUB PUSH2 0x2C80 JUMPI PUSH2 0x2C7F PUSH2 0x26BE JUMP JUMPDEST JUMPDEST PUSH1 0x1 DUP3 ADD SWAP1 POP SWAP2 SWAP1 POP JUMP JUMPDEST PUSH32 0x50726573616C653A206973206E6F7420656E61626C6564000000000000000000 PUSH0 DUP3 ADD MSTORE POP JUMP JUMPDEST PUSH0 PUSH2 0x2CBF PUSH1 0x17 DUP4 PUSH2 0x2646 JUMP JUMPDEST SWAP2 POP PUSH2 0x2CCA DUP3 PUSH2 0x2C8B JUMP JUMPDEST PUSH1 0x20 DUP3 ADD SWAP1 POP SWAP2 SWAP1 POP JUMP JUMPDEST PUSH0 PUSH1 0x20 DUP3 ADD SWAP1 POP DUP2 DUP2 SUB PUSH0 DUP4 ADD MSTORE PUSH2 0x2CEC DUP2 PUSH2 0x2CB3 JUMP JUMPDEST SWAP1 POP SWAP2 SWAP1 POP JUMP JUMPDEST PUSH32 0x50726573616C653A204E6F7420656E6F75676820746F6B656E7320746F206265 PUSH0 DUP3 ADD MSTORE PUSH32 0x2073616C65000000000000000000000000000000000000000000000000000000 PUSH1 0x20 DUP3 ADD MSTORE POP JUMP JUMPDEST PUSH0 PUSH2 0x2D4D PUSH1 0x25 DUP4 PUSH2 0x2646 JUMP JUMPDEST SWAP2 POP PUSH2 0x2D58 DUP3 PUSH2 0x2CF3 JUMP JUMPDEST PUSH1 0x40 DUP3 ADD SWAP1 POP SWAP2 SWAP1 POP JUMP JUMPDEST PUSH0 PUSH1 0x20 DUP3 ADD SWAP1 POP DUP2 DUP2 SUB PUSH0 DUP4 ADD MSTORE PUSH2 0x2D7A DUP2 PUSH2 0x2D41 JUMP JUMPDEST SWAP1 POP SWAP2 SWAP1 POP JUMP JUMPDEST PUSH32 0x50726573616C653A20416D6F756E74206D757374206265206772656174657220 PUSH0 DUP3 ADD MSTORE PUSH32 0x7468616E20300000000000000000000000000000000000000000000000000000 PUSH1 0x20 DUP3 ADD MSTORE POP JUMP JUMPDEST PUSH0 PUSH2 0x2DDB PUSH1 0x26 DUP4 PUSH2 0x2646 JUMP JUMPDEST SWAP2 POP PUSH2 0x2DE6 DUP3 PUSH2 0x2D81 JUMP JUMPDEST PUSH1 0x40 DUP3 ADD SWAP1 POP SWAP2 SWAP1 POP JUMP JUMPDEST PUSH0 PUSH1 0x20 DUP3 ADD SWAP1 POP DUP2 DUP2 SUB PUSH0 DUP4 ADD MSTORE PUSH2 0x2E08 DUP2 PUSH2 0x2DCF JUMP JUMPDEST SWAP1 POP SWAP2 SWAP1 POP JUMP JUMPDEST PUSH0 PUSH2 0x2E19 DUP3 PUSH2 0x20BE JUMP JUMPDEST SWAP2 POP PUSH2 0x2E24 DUP4 PUSH2 0x20BE JUMP JUMPDEST SWAP3 POP DUP3 DUP3 SUB SWAP1 POP DUP2 DUP2 GT ISZERO PUSH2 0x2E3C JUMPI PUSH2 0x2E3B PUSH2 0x26BE JUMP JUMPDEST JUMPDEST SWAP3 SWAP2 POP POP JUMP JUMPDEST PUSH0 DUP2 MLOAD SWAP1 POP PUSH2 0x2E50 DUP2 PUSH2 0x20C7 JUMP JUMPDEST SWAP3 SWAP2 POP POP JUMP JUMPDEST PUSH0 PUSH1 0x20 DUP3 DUP5 SUB SLT ISZERO PUSH2 0x2E6B JUMPI PUSH2 0x2E6A PUSH2 0x205C JUMP JUMPDEST JUMPDEST PUSH0 PUSH2 0x2E78 DUP5 DUP3 DUP6 ADD PUSH2 0x2E42 JUMP JUMPDEST SWAP2 POP POP SWAP3 SWAP2 POP POP JUMP JUMPDEST PUSH0 PUSH1 0x40 DUP3 ADD SWAP1 POP PUSH2 0x2E94 PUSH0 DUP4 ADD DUP6 PUSH2 0x2556 JUMP JUMPDEST PUSH2 0x2EA1 PUSH1 0x20 DUP4 ADD DUP5 PUSH2 0x212F JUMP JUMPDEST SWAP4 SWAP3 POP POP POP JUMP JUMPDEST PUSH0 DUP2 MLOAD SWAP1 POP PUSH2 0x2EB6 DUP2 PUSH2 0x218D JUMP JUMPDEST SWAP3 SWAP2 POP POP JUMP JUMPDEST PUSH0 PUSH1 0x20 DUP3 DUP5 SUB SLT ISZERO PUSH2 0x2ED1 JUMPI PUSH2 0x2ED0 PUSH2 0x205C JUMP JUMPDEST JUMPDEST PUSH0 PUSH2 0x2EDE DUP5 DUP3 DUP6 ADD PUSH2 0x2EA8 JUMP JUMPDEST SWAP2 POP POP SWAP3 SWAP2 POP POP JUMP JUMPDEST PUSH32 0x50726573616C653A20526174652063616E6E6F74206265207A65726F00000000 PUSH0 DUP3 ADD MSTORE POP JUMP JUMPDEST PUSH0 PUSH2 0x2F1B PUSH1 0x1C DUP4 PUSH2 0x2646 JUMP JUMPDEST SWAP2 POP PUSH2 0x2F26 DUP3 PUSH2 0x2EE7 JUMP JUMPDEST PUSH1 0x20 DUP3 ADD SWAP1 POP SWAP2 SWAP1 POP JUMP JUMPDEST PUSH0 PUSH1 0x20 DUP3 ADD SWAP1 POP DUP2 DUP2 SUB PUSH0 DUP4 ADD MSTORE PUSH2 0x2F48 DUP2 PUSH2 0x2F0F JUMP JUMPDEST SWAP1 POP SWAP2 SWAP1 POP JUMP JUMPDEST PUSH0 PUSH1 0xFF DUP3 AND SWAP1 POP SWAP2 SWAP1 POP JUMP JUMPDEST PUSH2 0x2F64 DUP2 PUSH2 0x2F4F JUMP JUMPDEST DUP2 EQ PUSH2 0x2F6E JUMPI PUSH0 DUP1 REVERT JUMPDEST POP JUMP JUMPDEST PUSH0 DUP2 MLOAD SWAP1 POP PUSH2 0x2F7F DUP2 PUSH2 0x2F5B JUMP JUMPDEST SWAP3 SWAP2 POP POP JUMP JUMPDEST PUSH0 PUSH1 0x20 DUP3 DUP5 SUB SLT ISZERO PUSH2 0x2F9A JUMPI PUSH2 0x2F99 PUSH2 0x205C JUMP JUMPDEST JUMPDEST PUSH0 PUSH2 0x2FA7 DUP5 DUP3 DUP6 ADD PUSH2 0x2F71 JUMP JUMPDEST SWAP2 POP POP SWAP3 SWAP2 POP POP JUMP JUMPDEST PUSH0 PUSH1 0x60 DUP3 ADD SWAP1 POP PUSH2 0x2FC3 PUSH0 DUP4 ADD DUP7 PUSH2 0x2556 JUMP JUMPDEST PUSH2 0x2FD0 PUSH1 0x20 DUP4 ADD DUP6 PUSH2 0x2556 JUMP JUMPDEST PUSH2 0x2FDD PUSH1 0x40 DUP4 ADD DUP5 PUSH2 0x212F JUMP JUMPDEST SWAP5 SWAP4 POP POP POP POP JUMP INVALID LOG2 PUSH5 0x6970667358 0x22 SLT KECCAK256 0xEE PUSH8 0x80F313F9827010F0 0xE5 0xC7 0xDD MSTORE8 PUSH17 0x92C40C9F90B22190734AD684B80DB7C547 PUSH5 0x736F6C6343 STOP ADDMOD EQ STOP CALLER "
				},
				"gasEstimates": {
					"creation": {
						"codeDepositCost": "2463000",
						"executionCost": "infinite",
						"totalCost": "infinite"
					},
					"external": {
						"addPayableTokens(address[],uint256[])": "infinite",
						"buyToken(address,uint256)": "infinite",
						"buyers(uint256)": "5033",
						"buyersDetails(address)": "infinite",
						"getBuyerReward(address)": "infinite",
						"getTokenAmount(address,uint256)": "infinite",
						"increaseTotalTokensforSale(uint256)": "infinite",
						"multiplier()": "2516",
						"owner()": "2627",
						"payableTokenStatus(address,bool)": "infinite",
						"payableTokens(address)": "2901",
						"rate()": "2515",
						"renounceOwnership()": "infinite",
						"resumeSale()": "infinite",
						"saleStatus()": "2554",
						"saleToken()": "2575",
						"saleTokenDec()": "2536",
						"setMultiplier(uint256)": "infinite",
						"setParams(address,uint256,uint256,uint256,bool)": "infinite",
						"stopSale()": "infinite",
						"tokenPrices(address)": "2848",
						"totalTokensSold()": "2470",
						"totalTokensforSale()": "2536",
						"transferOwnership(address)": "infinite",
						"unlockAllTokens()": "infinite",
						"unlockToken()": "infinite",
						"updateTokenRate(address[],uint256[],uint256)": "infinite",
						"withdraw(address,uint256)": "infinite",
						"withdrawAll(address)": "infinite",
						"withdrawAllSaleTokens()": "infinite",
						"withdrawCurrency(uint256)": "infinite"
					},
					"internal": {
						"unlockTokenFor(address)": "infinite",
						"updateRewards()": "infinite"
					}
				},
				"methodIdentifiers": {
					"addPayableTokens(address[],uint256[])": "5413c1c8",
					"buyToken(address,uint256)": "68f8fc10",
					"buyers(uint256)": "f2aa8218",
					"buyersDetails(address)": "f4739ee3",
					"getBuyerReward(address)": "828b7953",
					"getTokenAmount(address,uint256)": "115ece4c",
					"increaseTotalTokensforSale(uint256)": "a2826373",
					"multiplier()": "1b3ed722",
					"owner()": "8da5cb5b",
					"payableTokenStatus(address,bool)": "29d429a8",
					"payableTokens(address)": "80655eef",
					"rate()": "2c4e722e",
					"renounceOwnership()": "715018a6",
					"resumeSale()": "33e364cb",
					"saleStatus()": "f9020e33",
					"saleToken()": "e985e367",
					"saleTokenDec()": "ace1741c",
					"setMultiplier(uint256)": "641579a6",
					"setParams(address,uint256,uint256,uint256,bool)": "a01bd50c",
					"stopSale()": "e36b0b37",
					"tokenPrices(address)": "204120bc",
					"totalTokensSold()": "63b20117",
					"totalTokensforSale()": "6bcedf9c",
					"transferOwnership(address)": "f2fde38b",
					"unlockAllTokens()": "5e0be607",
					"unlockToken()": "18a24b5b",
					"updateTokenRate(address[],uint256[],uint256)": "3115329e",
					"withdraw(address,uint256)": "f3fef3a3",
					"withdrawAll(address)": "fa09e630",
					"withdrawAllSaleTokens()": "9ae2fd34",
					"withdrawCurrency(uint256)": "3c00a36c"
				}
			},
			"storageLayout": {
				"storage": [
					{
						"astId": 8,
						"contract": "contracts/BuyStakeContract.sol:INTBuyStake",
						"label": "_owner",
						"offset": 0,
						"slot": "0",
						"type": "t_address"
					},
					{
						"astId": 872,
						"contract": "contracts/BuyStakeContract.sol:INTBuyStake",
						"label": "multiplier",
						"offset": 0,
						"slot": "1",
						"type": "t_uint256"
					},
					{
						"astId": 874,
						"contract": "contracts/BuyStakeContract.sol:INTBuyStake",
						"label": "rate",
						"offset": 0,
						"slot": "2",
						"type": "t_uint256"
					},
					{
						"astId": 876,
						"contract": "contracts/BuyStakeContract.sol:INTBuyStake",
						"label": "saleToken",
						"offset": 0,
						"slot": "3",
						"type": "t_address"
					},
					{
						"astId": 878,
						"contract": "contracts/BuyStakeContract.sol:INTBuyStake",
						"label": "saleTokenDec",
						"offset": 0,
						"slot": "4",
						"type": "t_uint256"
					},
					{
						"astId": 880,
						"contract": "contracts/BuyStakeContract.sol:INTBuyStake",
						"label": "totalTokensforSale",
						"offset": 0,
						"slot": "5",
						"type": "t_uint256"
					},
					{
						"astId": 882,
						"contract": "contracts/BuyStakeContract.sol:INTBuyStake",
						"label": "saleStatus",
						"offset": 0,
						"slot": "6",
						"type": "t_bool"
					},
					{
						"astId": 885,
						"contract": "contracts/BuyStakeContract.sol:INTBuyStake",
						"label": "buyers",
						"offset": 0,
						"slot": "7",
						"type": "t_array(t_address)dyn_storage"
					},
					{
						"astId": 887,
						"contract": "contracts/BuyStakeContract.sol:INTBuyStake",
						"label": "totalTokensSold",
						"offset": 0,
						"slot": "8",
						"type": "t_uint256"
					},
					{
						"astId": 891,
						"contract": "contracts/BuyStakeContract.sol:INTBuyStake",
						"label": "payableTokens",
						"offset": 0,
						"slot": "9",
						"type": "t_mapping(t_address,t_bool)"
					},
					{
						"astId": 896,
						"contract": "contracts/BuyStakeContract.sol:INTBuyStake",
						"label": "buyersDetails",
						"offset": 0,
						"slot": "10",
						"type": "t_mapping(t_address,t_struct(BuyerTokenDetails)870_storage)"
					},
					{
						"astId": 900,
						"contract": "contracts/BuyStakeContract.sol:INTBuyStake",
						"label": "tokenPrices",
						"offset": 0,
						"slot": "11",
						"type": "t_mapping(t_address,t_uint256)"
					}
				],
				"types": {
					"t_address": {
						"encoding": "inplace",
						"label": "address",
						"numberOfBytes": "20"
					},
					"t_array(t_address)dyn_storage": {
						"base": "t_address",
						"encoding": "dynamic_array",
						"label": "address[]",
						"numberOfBytes": "32"
					},
					"t_bool": {
						"encoding": "inplace",
						"label": "bool",
						"numberOfBytes": "1"
					},
					"t_mapping(t_address,t_bool)": {
						"encoding": "mapping",
						"key": "t_address",
						"label": "mapping(address => bool)",
						"numberOfBytes": "32",
						"value": "t_bool"
					},
					"t_mapping(t_address,t_struct(BuyerTokenDetails)870_storage)": {
						"encoding": "mapping",
						"key": "t_address",
						"label": "mapping(address => struct INTBuyStake.BuyerTokenDetails)",
						"numberOfBytes": "32",
						"value": "t_struct(BuyerTokenDetails)870_storage"
					},
					"t_mapping(t_address,t_uint256)": {
						"encoding": "mapping",
						"key": "t_address",
						"label": "mapping(address => uint256)",
						"numberOfBytes": "32",
						"value": "t_uint256"
					},
					"t_struct(BuyerTokenDetails)870_storage": {
						"encoding": "inplace",
						"label": "struct INTBuyStake.BuyerTokenDetails",
						"members": [
							{
								"astId": 861,
								"contract": "contracts/BuyStakeContract.sol:INTBuyStake",
								"label": "amount",
								"offset": 0,
								"slot": "0",
								"type": "t_uint256"
							},
							{
								"astId": 863,
								"contract": "contracts/BuyStakeContract.sol:INTBuyStake",
								"label": "exists",
								"offset": 0,
								"slot": "1",
								"type": "t_bool"
							},
							{
								"astId": 865,
								"contract": "contracts/BuyStakeContract.sol:INTBuyStake",
								"label": "isClaimed",
								"offset": 1,
								"slot": "1",
								"type": "t_bool"
							},
							{
								"astId": 867,
								"contract": "contracts/BuyStakeContract.sol:INTBuyStake",
								"label": "reward",
								"offset": 0,
								"slot": "2",
								"type": "t_uint256"
							},
							{
								"astId": 869,
								"contract": "contracts/BuyStakeContract.sol:INTBuyStake",
								"label": "lastCalculatedTime",
								"offset": 0,
								"slot": "3",
								"type": "t_uint256"
							}
						],
						"numberOfBytes": "128"
					},
					"t_uint256": {
						"encoding": "inplace",
						"label": "uint256",
						"numberOfBytes": "32"
					}
				}
			},
			"userdoc": {
				"kind": "user",
				"methods": {},
				"version": 1
			}
		}
	}
}