{
	"contracts/ProvenanceGraph.sol": {
		"ProvenanceGraph": {
			"abi": [
				{
					"inputs": [
						{
							"internalType": "address",
							"name": "_assetTokenAddress",
							"type": "address"
						},
						{
							"internalType": "address",
							"name": "_contributorRegistryAddress",
							"type": "address"
						}
					],
					"stateMutability": "nonpayable",
					"type": "constructor"
				},
				{
					"inputs": [
						{
							"internalType": "uint256",
							"name": "assetId",
							"type": "uint256"
						}
					],
					"name": "AssetDoesNotExist",
					"type": "error"
				},
				{
					"inputs": [
						{
							"internalType": "uint256",
							"name": "assetId",
							"type": "uint256"
						}
					],
					"name": "GraphIsFinalized",
					"type": "error"
				},
				{
					"inputs": [
						{
							"internalType": "uint16",
							"name": "weightBps",
							"type": "uint16"
						}
					],
					"name": "InvalidWeight",
					"type": "error"
				},
				{
					"inputs": [
						{
							"internalType": "address",
							"name": "potentialContributor",
							"type": "address"
						}
					],
					"name": "NotAContributor",
					"type": "error"
				},
				{
					"inputs": [
						{
							"internalType": "address",
							"name": "caller",
							"type": "address"
						},
						{
							"internalType": "uint256",
							"name": "assetId",
							"type": "uint256"
						}
					],
					"name": "NotAssetOwner",
					"type": "error"
				},
				{
					"inputs": [
						{
							"internalType": "uint256",
							"name": "assetId",
							"type": "uint256"
						},
						{
							"internalType": "uint16",
							"name": "currentWeight",
							"type": "uint16"
						},
						{
							"internalType": "uint16",
							"name": "newWeight",
							"type": "uint16"
						}
					],
					"name": "TotalWeightExceeded",
					"type": "error"
				},
				{
					"anonymous": false,
					"inputs": [
						{
							"indexed": true,
							"internalType": "uint256",
							"name": "assetId",
							"type": "uint256"
						},
						{
							"indexed": true,
							"internalType": "address",
							"name": "contributor",
							"type": "address"
						},
						{
							"indexed": false,
							"internalType": "uint16",
							"name": "weightBps",
							"type": "uint16"
						}
					],
					"name": "ContributorEdgeAdded",
					"type": "event"
				},
				{
					"anonymous": false,
					"inputs": [
						{
							"indexed": true,
							"internalType": "uint256",
							"name": "assetId",
							"type": "uint256"
						}
					],
					"name": "GraphFinalized",
					"type": "event"
				},
				{
					"anonymous": false,
					"inputs": [
						{
							"indexed": true,
							"internalType": "uint256",
							"name": "childAssetId",
							"type": "uint256"
						},
						{
							"indexed": true,
							"internalType": "uint256",
							"name": "parentAssetId",
							"type": "uint256"
						},
						{
							"indexed": false,
							"internalType": "uint16",
							"name": "weightBps",
							"type": "uint16"
						}
					],
					"name": "ParentEdgeAdded",
					"type": "event"
				},
				{
					"inputs": [],
					"name": "CONTRIBUTOR_ROLE",
					"outputs": [
						{
							"internalType": "bytes32",
							"name": "",
							"type": "bytes32"
						}
					],
					"stateMutability": "view",
					"type": "function"
				},
				{
					"inputs": [
						{
							"internalType": "uint256",
							"name": "_assetId",
							"type": "uint256"
						},
						{
							"internalType": "address",
							"name": "_contributor",
							"type": "address"
						},
						{
							"internalType": "uint16",
							"name": "_weightBps",
							"type": "uint16"
						}
					],
					"name": "addContributorEdge",
					"outputs": [],
					"stateMutability": "nonpayable",
					"type": "function"
				},
				{
					"inputs": [
						{
							"internalType": "uint256",
							"name": "_childAssetId",
							"type": "uint256"
						},
						{
							"internalType": "uint256",
							"name": "_parentAssetId",
							"type": "uint256"
						},
						{
							"internalType": "uint16",
							"name": "_weightBps",
							"type": "uint16"
						}
					],
					"name": "addParentEdge",
					"outputs": [],
					"stateMutability": "nonpayable",
					"type": "function"
				},
				{
					"inputs": [],
					"name": "assetToken",
					"outputs": [
						{
							"internalType": "contract IAssetToken",
							"name": "",
							"type": "address"
						}
					],
					"stateMutability": "view",
					"type": "function"
				},
				{
					"inputs": [],
					"name": "contributorRegistry",
					"outputs": [
						{
							"internalType": "contract IContributorRegistry",
							"name": "",
							"type": "address"
						}
					],
					"stateMutability": "view",
					"type": "function"
				},
				{
					"inputs": [
						{
							"internalType": "uint256",
							"name": "_assetId",
							"type": "uint256"
						}
					],
					"name": "finalize",
					"outputs": [],
					"stateMutability": "nonpayable",
					"type": "function"
				},
				{
					"inputs": [
						{
							"internalType": "uint256",
							"name": "_assetId",
							"type": "uint256"
						}
					],
					"name": "getContributorEdges",
					"outputs": [
						{
							"components": [
								{
									"internalType": "address",
									"name": "contributor",
									"type": "address"
								},
								{
									"internalType": "uint16",
									"name": "weightBps",
									"type": "uint16"
								}
							],
							"internalType": "struct ProvenanceGraph.ContributorEdge[]",
							"name": "",
							"type": "tuple[]"
						}
					],
					"stateMutability": "view",
					"type": "function"
				},
				{
					"inputs": [
						{
							"internalType": "uint256",
							"name": "_assetId",
							"type": "uint256"
						}
					],
					"name": "getParentEdges",
					"outputs": [
						{
							"components": [
								{
									"internalType": "uint256",
									"name": "parentAssetId",
									"type": "uint256"
								},
								{
									"internalType": "uint16",
									"name": "weightBps",
									"type": "uint16"
								}
							],
							"internalType": "struct ProvenanceGraph.ParentEdge[]",
							"name": "",
							"type": "tuple[]"
						}
					],
					"stateMutability": "view",
					"type": "function"
				},
				{
					"inputs": [
						{
							"internalType": "uint256",
							"name": "_assetId",
							"type": "uint256"
						}
					],
					"name": "getTotalBpsAllocated",
					"outputs": [
						{
							"internalType": "uint16",
							"name": "",
							"type": "uint16"
						}
					],
					"stateMutability": "view",
					"type": "function"
				},
				{
					"inputs": [
						{
							"internalType": "uint256",
							"name": "_assetId",
							"type": "uint256"
						}
					],
					"name": "isFinalized",
					"outputs": [
						{
							"internalType": "bool",
							"name": "",
							"type": "bool"
						}
					],
					"stateMutability": "view",
					"type": "function"
				}
			],
			"devdoc": {
				"author": "Hassan Ali",
				"kind": "dev",
				"methods": {
					"addContributorEdge(uint256,address,uint16)": {
						"details": "Can only be called by the owner of the `_assetId`.",
						"params": {
							"_assetId": "The token ID of the asset.",
							"_contributor": "The address of the contributor.",
							"_weightBps": "The share of the contributor in basis points (1-10000)."
						}
					},
					"addParentEdge(uint256,uint256,uint16)": {
						"details": "Can only be called by the owner of the `_childAssetId`.",
						"params": {
							"_childAssetId": "The token ID of the child asset.",
							"_parentAssetId": "The token ID of the parent asset.",
							"_weightBps": "The share of the parent asset in basis points (1-10000)."
						}
					},
					"finalize(uint256)": {
						"details": "Can only be called by the owner of the `_assetId`. The total weight must be less than or equal to 10000 bps.",
						"params": {
							"_assetId": "The token ID of the asset to finalize."
						}
					}
				},
				"title": "ProvenanceGraph",
				"version": 1
			},
			"evm": {
				"assembly": "    /* \"contracts/ProvenanceGraph.sol\":411:6780  contract ProvenanceGraph {... */\n  mstore(0x40, 0xc0)\n    /* \"contracts/ProvenanceGraph.sol\":2226:2448  constructor(address _assetTokenAddress, address _contributorRegistryAddress) {... */\n  callvalue\n  dup1\n  iszero\n  tag_1\n  jumpi\n  0x00\n  dup1\n  revert\ntag_1:\n  pop\n  mload(0x40)\n  sub(codesize, bytecodeSize)\n  dup1\n  bytecodeSize\n  dup4\n  codecopy\n  dup2\n  dup2\n  add\n  0x40\n  mstore\n  dup2\n  add\n  swap1\n  tag_2\n  swap2\n  swap1\n  tag_3\n  jump\t// in\ntag_2:\n    /* \"contracts/ProvenanceGraph.sol\":2339:2357  _assetTokenAddress */\n  dup2\n    /* \"contracts/ProvenanceGraph.sol\":2314:2358  assetToken = IAssetToken(_assetTokenAddress) */\n  0xffffffffffffffffffffffffffffffffffffffff\n  and\n  0x80\n  dup2\n  0xffffffffffffffffffffffffffffffffffffffff\n  and\n  dup2\n  mstore\n  pop\n  pop\n    /* \"contracts/ProvenanceGraph.sol\":2412:2439  _contributorRegistryAddress */\n  dup1\n    /* \"contracts/ProvenanceGraph.sol\":2369:2440  contributorRegistry = IContributorRegistry(_contributorRegistryAddress) */\n  0xffffffffffffffffffffffffffffffffffffffff\n  and\n  0xa0\n  dup2\n  0xffffffffffffffffffffffffffffffffffffffff\n  and\n  dup2\n  mstore\n  pop\n  pop\n    /* \"contracts/ProvenanceGraph.sol\":2226:2448  constructor(address _assetTokenAddress, address _contributorRegistryAddress) {... */\n  pop\n  pop\n    /* \"contracts/ProvenanceGraph.sol\":411:6780  contract ProvenanceGraph {... */\n  jump(tag_6)\n    /* \"#utility.yul\":88:205   */\ntag_8:\n    /* \"#utility.yul\":197:198   */\n  0x00\n    /* \"#utility.yul\":194:195   */\n  dup1\n    /* \"#utility.yul\":187:199   */\n  revert\n    /* \"#utility.yul\":334:460   */\ntag_10:\n    /* \"#utility.yul\":371:378   */\n  0x00\n    /* \"#utility.yul\":411:453   */\n  0xffffffffffffffffffffffffffffffffffffffff\n    /* \"#utility.yul\":404:409   */\n  dup3\n    /* \"#utility.yul\":400:454   */\n  and\n    /* \"#utility.yul\":389:454   */\n  swap1\n  pop\n    /* \"#utility.yul\":334:460   */\n  swap2\n  swap1\n  pop\n  jump\t// out\n    /* \"#utility.yul\":466:562   */\ntag_11:\n    /* \"#utility.yul\":503:510   */\n  0x00\n    /* \"#utility.yul\":532:556   */\n  tag_20\n    /* \"#utility.yul\":550:555   */\n  dup3\n    /* \"#utility.yul\":532:556   */\n  tag_10\n  jump\t// in\ntag_20:\n    /* \"#utility.yul\":521:556   */\n  swap1\n  pop\n    /* \"#utility.yul\":466:562   */\n  swap2\n  swap1\n  pop\n  jump\t// out\n    /* \"#utility.yul\":568:690   */\ntag_12:\n    /* \"#utility.yul\":641:665   */\n  tag_22\n    /* \"#utility.yul\":659:664   */\n  dup2\n    /* \"#utility.yul\":641:665   */\n  tag_11\n  jump\t// in\ntag_22:\n    /* \"#utility.yul\":634:639   */\n  dup2\n    /* \"#utility.yul\":631:666   */\n  eq\n    /* \"#utility.yul\":621:684   */\n  tag_23\n  jumpi\n    /* \"#utility.yul\":680:681   */\n  0x00\n    /* \"#utility.yul\":677:678   */\n  dup1\n    /* \"#utility.yul\":670:682   */\n  revert\n    /* \"#utility.yul\":621:684   */\ntag_23:\n    /* \"#utility.yul\":568:690   */\n  pop\n  jump\t// out\n    /* \"#utility.yul\":696:839   */\ntag_13:\n    /* \"#utility.yul\":753:758   */\n  0x00\n    /* \"#utility.yul\":784:790   */\n  dup2\n    /* \"#utility.yul\":778:791   */\n  mload\n    /* \"#utility.yul\":769:791   */\n  swap1\n  pop\n    /* \"#utility.yul\":800:833   */\n  tag_25\n    /* \"#utility.yul\":827:832   */\n  dup2\n    /* \"#utility.yul\":800:833   */\n  tag_12\n  jump\t// in\ntag_25:\n    /* \"#utility.yul\":696:839   */\n  swap3\n  swap2\n  pop\n  pop\n  jump\t// out\n    /* \"#utility.yul\":845:1352   */\ntag_3:\n    /* \"#utility.yul\":924:930   */\n  0x00\n    /* \"#utility.yul\":932:938   */\n  dup1\n    /* \"#utility.yul\":981:983   */\n  0x40\n    /* \"#utility.yul\":969:978   */\n  dup4\n    /* \"#utility.yul\":960:967   */\n  dup6\n    /* \"#utility.yul\":956:979   */\n  sub\n    /* \"#utility.yul\":952:984   */\n  slt\n    /* \"#utility.yul\":949:1068   */\n  iszero\n  tag_27\n  jumpi\n    /* \"#utility.yul\":987:1066   */\n  tag_28\n  tag_8\n  jump\t// in\ntag_28:\n    /* \"#utility.yul\":949:1068   */\ntag_27:\n    /* \"#utility.yul\":1107:1108   */\n  0x00\n    /* \"#utility.yul\":1132:1196   */\n  tag_29\n    /* \"#utility.yul\":1188:1195   */\n  dup6\n    /* \"#utility.yul\":1179:1185   */\n  dup3\n    /* \"#utility.yul\":1168:1177   */\n  dup7\n    /* \"#utility.yul\":1164:1186   */\n  add\n    /* \"#utility.yul\":1132:1196   */\n  tag_13\n  jump\t// in\ntag_29:\n    /* \"#utility.yul\":1122:1196   */\n  swap3\n  pop\n    /* \"#utility.yul\":1078:1206   */\n  pop\n    /* \"#utility.yul\":1245:1247   */\n  0x20\n    /* \"#utility.yul\":1271:1335   */\n  tag_30\n    /* \"#utility.yul\":1327:1334   */\n  dup6\n    /* \"#utility.yul\":1318:1324   */\n  dup3\n    /* \"#utility.yul\":1307:1316   */\n  dup7\n    /* \"#utility.yul\":1303:1325   */\n  add\n    /* \"#utility.yul\":1271:1335   */\n  tag_13\n  jump\t// in\ntag_30:\n    /* \"#utility.yul\":1261:1335   */\n  swap2\n  pop\n    /* \"#utility.yul\":1216:1345   */\n  pop\n    /* \"#utility.yul\":845:1352   */\n  swap3\n  pop\n  swap3\n  swap1\n  pop\n  jump\t// out\n    /* \"contracts/ProvenanceGraph.sol\":411:6780  contract ProvenanceGraph {... */\ntag_6:\n  mload(0x80)\n  mload(0xa0)\n  codecopy(0x00, dataOffset(sub_0), dataSize(sub_0))\n  0x00\n  assignImmutable(\"0x731dc163f73d31d8c68f9917ce4ff967753939f70432973c04fd2c2a48148607\")\n  0x00\n  assignImmutable(\"0x8e8fab5f003314da8d1873ea7720e8d9f47650136d916064d1edb8a11d682624\")\n  return(0x00, dataSize(sub_0))\nstop\n\nsub_0: assembly {\n        /* \"contracts/ProvenanceGraph.sol\":411:6780  contract ProvenanceGraph {... */\n      mstore(0x40, 0x80)\n      callvalue\n      dup1\n      iszero\n      tag_1\n      jumpi\n      0x00\n      dup1\n      revert\n    tag_1:\n      pop\n      jumpi(tag_2, lt(calldatasize, 0x04))\n      shr(0xe0, calldataload(0x00))\n      dup1\n      0x5ee7c0f8\n      gt\n      tag_13\n      jumpi\n      dup1\n      0x5ee7c0f8\n      eq\n      tag_8\n      jumpi\n      dup1\n      0x662f8502\n      eq\n      tag_9\n      jumpi\n      dup1\n      0xcf1a5935\n      eq\n      tag_10\n      jumpi\n      dup1\n      0xdc28c34f\n      eq\n      tag_11\n      jumpi\n      dup1\n      0xeafb79e2\n      eq\n      tag_12\n      jumpi\n      jump(tag_2)\n    tag_13:\n      dup1\n      0x05261aea\n      eq\n      tag_3\n      jumpi\n      dup1\n      0x1083f761\n      eq\n      tag_4\n      jumpi\n      dup1\n      0x1e315d9d\n      eq\n      tag_5\n      jumpi\n      dup1\n      0x318536bd\n      eq\n      tag_6\n      jumpi\n      dup1\n      0x33727c4d\n      eq\n      tag_7\n      jumpi\n    tag_2:\n      0x00\n      dup1\n      revert\n        /* \"contracts/ProvenanceGraph.sol\":5509:5817  function finalize(uint256 _assetId) external {... */\n    tag_3:\n      tag_14\n      0x04\n      dup1\n      calldatasize\n      sub\n      dup2\n      add\n      swap1\n      tag_15\n      swap2\n      swap1\n      tag_16\n      jump\t// in\n    tag_15:\n      tag_17\n      jump\t// in\n    tag_14:\n      stop\n        /* \"contracts/ProvenanceGraph.sol\":744:783  IAssetToken public immutable assetToken */\n    tag_4:\n      tag_18\n      tag_19\n      jump\t// in\n    tag_18:\n      mload(0x40)\n      tag_20\n      swap2\n      swap1\n      tag_21\n      jump\t// in\n    tag_20:\n      mload(0x40)\n      dup1\n      swap2\n      sub\n      swap1\n      return\n        /* \"contracts/ProvenanceGraph.sol\":6186:6320  function getParentEdges(uint256 _assetId) external view returns (ParentEdge[] memory) {... */\n    tag_5:\n      tag_22\n      0x04\n      dup1\n      calldatasize\n      sub\n      dup2\n      add\n      swap1\n      tag_23\n      swap2\n      swap1\n      tag_16\n      jump\t// in\n    tag_23:\n      tag_24\n      jump\t// in\n    tag_22:\n      mload(0x40)\n      tag_25\n      swap2\n      swap1\n      tag_26\n      jump\t// in\n    tag_25:\n      mload(0x40)\n      dup1\n      swap2\n      sub\n      swap1\n      return\n        /* \"contracts/ProvenanceGraph.sol\":790:847  IContributorRegistry public immutable contributorRegistry */\n    tag_6:\n      tag_27\n      tag_28\n      jump\t// in\n    tag_27:\n      mload(0x40)\n      tag_29\n      swap2\n      swap1\n      tag_30\n      jump\t// in\n    tag_29:\n      mload(0x40)\n      dup1\n      swap2\n      sub\n      swap1\n      return\n        /* \"contracts/ProvenanceGraph.sol\":6661:6777  function isFinalized(uint256 _assetId) external view returns (bool) {... */\n    tag_7:\n      tag_31\n      0x04\n      dup1\n      calldatasize\n      sub\n      dup2\n      add\n      swap1\n      tag_32\n      swap2\n      swap1\n      tag_16\n      jump\t// in\n    tag_32:\n      tag_33\n      jump\t// in\n    tag_31:\n      mload(0x40)\n      tag_34\n      swap2\n      swap1\n      tag_35\n      jump\t// in\n    tag_34:\n      mload(0x40)\n      dup1\n      swap2\n      sub\n      swap1\n      return\n        /* \"contracts/ProvenanceGraph.sol\":5943:6092  function getContributorEdges(uint256 _assetId) external view returns (ContributorEdge[] memory) {... */\n    tag_8:\n      tag_36\n      0x04\n      dup1\n      calldatasize\n      sub\n      dup2\n      add\n      swap1\n      tag_37\n      swap2\n      swap1\n      tag_16\n      jump\t// in\n    tag_37:\n      tag_38\n      jump\t// in\n    tag_36:\n      mload(0x40)\n      tag_39\n      swap2\n      swap1\n      tag_40\n      jump\t// in\n    tag_39:\n      mload(0x40)\n      dup1\n      swap2\n      sub\n      swap1\n      return\n        /* \"contracts/ProvenanceGraph.sol\":6422:6555  function getTotalBpsAllocated(uint256 _assetId) external view returns (uint16) {... */\n    tag_9:\n      tag_41\n      0x04\n      dup1\n      calldatasize\n      sub\n      dup2\n      add\n      swap1\n      tag_42\n      swap2\n      swap1\n      tag_16\n      jump\t// in\n    tag_42:\n      tag_43\n      jump\t// in\n    tag_41:\n      mload(0x40)\n      tag_44\n      swap2\n      swap1\n      tag_45\n      jump\t// in\n    tag_44:\n      mload(0x40)\n      dup1\n      swap2\n      sub\n      swap1\n      return\n        /* \"contracts/ProvenanceGraph.sol\":2863:3884  function addContributorEdge(uint256 _assetId, address _contributor, uint16 _weightBps) external {... */\n    tag_10:\n      tag_46\n      0x04\n      dup1\n      calldatasize\n      sub\n      dup2\n      add\n      swap1\n      tag_47\n      swap2\n      swap1\n      tag_48\n      jump\t// in\n    tag_47:\n      tag_49\n      jump\t// in\n    tag_46:\n      stop\n        /* \"contracts/ProvenanceGraph.sol\":4278:5205  function addParentEdge(uint256 _childAssetId, uint256 _parentAssetId, uint16 _weightBps) external {... */\n    tag_11:\n      tag_50\n      0x04\n      dup1\n      calldatasize\n      sub\n      dup2\n      add\n      swap1\n      tag_51\n      swap2\n      swap1\n      tag_52\n      jump\t// in\n    tag_51:\n      tag_53\n      jump\t// in\n    tag_50:\n      stop\n        /* \"contracts/ProvenanceGraph.sol\":1454:1526  bytes32 public constant CONTRIBUTOR_ROLE = keccak256(\"CONTRIBUTOR_ROLE\") */\n    tag_12:\n      tag_54\n      tag_55\n      jump\t// in\n    tag_54:\n      mload(0x40)\n      tag_56\n      swap2\n      swap1\n      tag_57\n      jump\t// in\n    tag_56:\n      mload(0x40)\n      dup1\n      swap2\n      sub\n      swap1\n      return\n        /* \"contracts/ProvenanceGraph.sol\":5509:5817  function finalize(uint256 _assetId) external {... */\n    tag_17:\n        /* \"contracts/ProvenanceGraph.sol\":5601:5611  msg.sender */\n      caller\n        /* \"contracts/ProvenanceGraph.sol\":5569:5611  assetToken.ownerOf(_assetId) != msg.sender */\n      0xffffffffffffffffffffffffffffffffffffffff\n      and\n        /* \"contracts/ProvenanceGraph.sol\":5569:5579  assetToken */\n      immutable(\"0x8e8fab5f003314da8d1873ea7720e8d9f47650136d916064d1edb8a11d682624\")\n        /* \"contracts/ProvenanceGraph.sol\":5569:5587  assetToken.ownerOf */\n      0xffffffffffffffffffffffffffffffffffffffff\n      and\n      0x6352211e\n        /* \"contracts/ProvenanceGraph.sol\":5588:5596  _assetId */\n      dup4\n        /* \"contracts/ProvenanceGraph.sol\":5569:5597  assetToken.ownerOf(_assetId) */\n      mload(0x40)\n      dup3\n      0xffffffff\n      and\n      0xe0\n      shl\n      dup2\n      mstore\n      0x04\n      add\n      tag_59\n      swap2\n      swap1\n      tag_60\n      jump\t// in\n    tag_59:\n      0x20\n      mload(0x40)\n      dup1\n      dup4\n      sub\n      dup2\n      dup7\n      gas\n      staticcall\n      iszero\n      dup1\n      iszero\n      tag_62\n      jumpi\n      returndatasize\n      0x00\n      dup1\n      returndatacopy\n      revert(0x00, returndatasize)\n    tag_62:\n      pop\n      pop\n      pop\n      pop\n      mload(0x40)\n      returndatasize\n      not(0x1f)\n      0x1f\n      dup3\n      add\n      and\n      dup3\n      add\n      dup1\n      0x40\n      mstore\n      pop\n      dup2\n      add\n      swap1\n      tag_63\n      swap2\n      swap1\n      tag_64\n      jump\t// in\n    tag_63:\n        /* \"contracts/ProvenanceGraph.sol\":5569:5611  assetToken.ownerOf(_assetId) != msg.sender */\n      0xffffffffffffffffffffffffffffffffffffffff\n      and\n      eq\n        /* \"contracts/ProvenanceGraph.sol\":5565:5655  if (assetToken.ownerOf(_assetId) != msg.sender) revert NotAssetOwner(msg.sender, _assetId) */\n      tag_65\n      jumpi\n        /* \"contracts/ProvenanceGraph.sol\":5634:5644  msg.sender */\n      caller\n        /* \"contracts/ProvenanceGraph.sol\":5646:5654  _assetId */\n      dup2\n        /* \"contracts/ProvenanceGraph.sol\":5620:5655  NotAssetOwner(msg.sender, _assetId) */\n      mload(0x40)\n      0xd10b1c5900000000000000000000000000000000000000000000000000000000\n      dup2\n      mstore\n      0x04\n      add\n      tag_66\n      swap3\n      swap2\n      swap1\n      tag_67\n      jump\t// in\n    tag_66:\n      mload(0x40)\n      dup1\n      swap2\n      sub\n      swap1\n      revert\n        /* \"contracts/ProvenanceGraph.sol\":5565:5655  if (assetToken.ownerOf(_assetId) != msg.sender) revert NotAssetOwner(msg.sender, _assetId) */\n    tag_65:\n        /* \"contracts/ProvenanceGraph.sol\":5670:5682  _isFinalized */\n      0x03\n        /* \"contracts/ProvenanceGraph.sol\":5670:5692  _isFinalized[_assetId] */\n      0x00\n        /* \"contracts/ProvenanceGraph.sol\":5683:5691  _assetId */\n      dup3\n        /* \"contracts/ProvenanceGraph.sol\":5670:5692  _isFinalized[_assetId] */\n      dup2\n      mstore\n      0x20\n      add\n      swap1\n      dup2\n      mstore\n      0x20\n      add\n      0x00\n      keccak256\n      0x00\n      swap1\n      sload\n      swap1\n      0x0100\n      exp\n      swap1\n      div\n      0xff\n      and\n        /* \"contracts/ProvenanceGraph.sol\":5666:5727  if (_isFinalized[_assetId]) revert GraphIsFinalized(_assetId) */\n      iszero\n      tag_68\n      jumpi\n        /* \"contracts/ProvenanceGraph.sol\":5718:5726  _assetId */\n      dup1\n        /* \"contracts/ProvenanceGraph.sol\":5701:5727  GraphIsFinalized(_assetId) */\n      mload(0x40)\n      0x5a48209b00000000000000000000000000000000000000000000000000000000\n      dup2\n      mstore\n      0x04\n      add\n      tag_69\n      swap2\n      swap1\n      tag_60\n      jump\t// in\n    tag_69:\n      mload(0x40)\n      dup1\n      swap2\n      sub\n      swap1\n      revert\n        /* \"contracts/ProvenanceGraph.sol\":5666:5727  if (_isFinalized[_assetId]) revert GraphIsFinalized(_assetId) */\n    tag_68:\n        /* \"contracts/ProvenanceGraph.sol\":5765:5769  true */\n      0x01\n        /* \"contracts/ProvenanceGraph.sol\":5740:5752  _isFinalized */\n      0x03\n        /* \"contracts/ProvenanceGraph.sol\":5740:5762  _isFinalized[_assetId] */\n      0x00\n        /* \"contracts/ProvenanceGraph.sol\":5753:5761  _assetId */\n      dup4\n        /* \"contracts/ProvenanceGraph.sol\":5740:5762  _isFinalized[_assetId] */\n      dup2\n      mstore\n      0x20\n      add\n      swap1\n      dup2\n      mstore\n      0x20\n      add\n      0x00\n      keccak256\n      0x00\n        /* \"contracts/ProvenanceGraph.sol\":5740:5769  _isFinalized[_assetId] = true */\n      0x0100\n      exp\n      dup2\n      sload\n      dup2\n      0xff\n      mul\n      not\n      and\n      swap1\n      dup4\n      iszero\n      iszero\n      mul\n      or\n      swap1\n      sstore\n      pop\n        /* \"contracts/ProvenanceGraph.sol\":5800:5808  _assetId */\n      dup1\n        /* \"contracts/ProvenanceGraph.sol\":5785:5809  GraphFinalized(_assetId) */\n      0x5243abcaa321aa3b18556b53aec82c9c559b3a8595b22b17c992e15098e82ab3\n      mload(0x40)\n      mload(0x40)\n      dup1\n      swap2\n      sub\n      swap1\n      log2\n        /* \"contracts/ProvenanceGraph.sol\":5509:5817  function finalize(uint256 _assetId) external {... */\n      pop\n      jump\t// out\n        /* \"contracts/ProvenanceGraph.sol\":744:783  IAssetToken public immutable assetToken */\n    tag_19:\n      immutable(\"0x8e8fab5f003314da8d1873ea7720e8d9f47650136d916064d1edb8a11d682624\")\n      dup2\n      jump\t// out\n        /* \"contracts/ProvenanceGraph.sol\":6186:6320  function getParentEdges(uint256 _assetId) external view returns (ParentEdge[] memory) {... */\n    tag_24:\n        /* \"contracts/ProvenanceGraph.sol\":6251:6270  ParentEdge[] memory */\n      0x60\n        /* \"contracts/ProvenanceGraph.sol\":6290:6302  _parentEdges */\n      0x01\n        /* \"contracts/ProvenanceGraph.sol\":6290:6312  _parentEdges[_assetId] */\n      0x00\n        /* \"contracts/ProvenanceGraph.sol\":6303:6311  _assetId */\n      dup4\n        /* \"contracts/ProvenanceGraph.sol\":6290:6312  _parentEdges[_assetId] */\n      dup2\n      mstore\n      0x20\n      add\n      swap1\n      dup2\n      mstore\n      0x20\n      add\n      0x00\n      keccak256\n        /* \"contracts/ProvenanceGraph.sol\":6283:6312  return _parentEdges[_assetId] */\n      dup1\n      sload\n      dup1\n      0x20\n      mul\n      0x20\n      add\n      mload(0x40)\n      swap1\n      dup2\n      add\n      0x40\n      mstore\n      dup1\n      swap3\n      swap2\n      swap1\n      dup2\n      dup2\n      mstore\n      0x20\n      add\n      0x00\n      swap1\n    tag_71:\n      dup3\n      dup3\n      lt\n      iszero\n      tag_72\n      jumpi\n      dup4\n      dup3\n      swap1\n      0x00\n      mstore\n      keccak256(0x00, 0x20)\n      swap1\n      0x02\n      mul\n      add\n      mload(0x40)\n      dup1\n      0x40\n      add\n      0x40\n      mstore\n      swap1\n      dup2\n      0x00\n      dup3\n      add\n      sload\n      dup2\n      mstore\n      0x20\n      add\n      0x01\n      dup3\n      add\n      0x00\n      swap1\n      sload\n      swap1\n      0x0100\n      exp\n      swap1\n      div\n      0xffff\n      and\n      0xffff\n      and\n      0xffff\n      and\n      dup2\n      mstore\n      pop\n      pop\n      dup2\n      mstore\n      0x20\n      add\n      swap1\n      0x01\n      add\n      swap1\n      jump(tag_71)\n    tag_72:\n      pop\n      pop\n      pop\n      pop\n      swap1\n      pop\n        /* \"contracts/ProvenanceGraph.sol\":6186:6320  function getParentEdges(uint256 _assetId) external view returns (ParentEdge[] memory) {... */\n      swap2\n      swap1\n      pop\n      jump\t// out\n        /* \"contracts/ProvenanceGraph.sol\":790:847  IContributorRegistry public immutable contributorRegistry */\n    tag_28:\n      immutable(\"0x731dc163f73d31d8c68f9917ce4ff967753939f70432973c04fd2c2a48148607\")\n      dup2\n      jump\t// out\n        /* \"contracts/ProvenanceGraph.sol\":6661:6777  function isFinalized(uint256 _assetId) external view returns (bool) {... */\n    tag_33:\n        /* \"contracts/ProvenanceGraph.sol\":6723:6727  bool */\n      0x00\n        /* \"contracts/ProvenanceGraph.sol\":6747:6759  _isFinalized */\n      0x03\n        /* \"contracts/ProvenanceGraph.sol\":6747:6769  _isFinalized[_assetId] */\n      0x00\n        /* \"contracts/ProvenanceGraph.sol\":6760:6768  _assetId */\n      dup4\n        /* \"contracts/ProvenanceGraph.sol\":6747:6769  _isFinalized[_assetId] */\n      dup2\n      mstore\n      0x20\n      add\n      swap1\n      dup2\n      mstore\n      0x20\n      add\n      0x00\n      keccak256\n      0x00\n      swap1\n      sload\n      swap1\n      0x0100\n      exp\n      swap1\n      div\n      0xff\n      and\n        /* \"contracts/ProvenanceGraph.sol\":6740:6769  return _isFinalized[_assetId] */\n      swap1\n      pop\n        /* \"contracts/ProvenanceGraph.sol\":6661:6777  function isFinalized(uint256 _assetId) external view returns (bool) {... */\n      swap2\n      swap1\n      pop\n      jump\t// out\n        /* \"contracts/ProvenanceGraph.sol\":5943:6092  function getContributorEdges(uint256 _assetId) external view returns (ContributorEdge[] memory) {... */\n    tag_38:\n        /* \"contracts/ProvenanceGraph.sol\":6013:6037  ContributorEdge[] memory */\n      0x60\n        /* \"contracts/ProvenanceGraph.sol\":6057:6074  _contributorEdges */\n      0x00\n        /* \"contracts/ProvenanceGraph.sol\":6057:6084  _contributorEdges[_assetId] */\n      dup1\n        /* \"contracts/ProvenanceGraph.sol\":6075:6083  _assetId */\n      dup4\n        /* \"contracts/ProvenanceGraph.sol\":6057:6084  _contributorEdges[_assetId] */\n      dup2\n      mstore\n      0x20\n      add\n      swap1\n      dup2\n      mstore\n      0x20\n      add\n      0x00\n      keccak256\n        /* \"contracts/ProvenanceGraph.sol\":6050:6084  return _contributorEdges[_assetId] */\n      dup1\n      sload\n      dup1\n      0x20\n      mul\n      0x20\n      add\n      mload(0x40)\n      swap1\n      dup2\n      add\n      0x40\n      mstore\n      dup1\n      swap3\n      swap2\n      swap1\n      dup2\n      dup2\n      mstore\n      0x20\n      add\n      0x00\n      swap1\n    tag_76:\n      dup3\n      dup3\n      lt\n      iszero\n      tag_77\n      jumpi\n      dup4\n      dup3\n      swap1\n      0x00\n      mstore\n      keccak256(0x00, 0x20)\n      add\n      mload(0x40)\n      dup1\n      0x40\n      add\n      0x40\n      mstore\n      swap1\n      dup2\n      0x00\n      dup3\n      add\n      0x00\n      swap1\n      sload\n      swap1\n      0x0100\n      exp\n      swap1\n      div\n      0xffffffffffffffffffffffffffffffffffffffff\n      and\n      0xffffffffffffffffffffffffffffffffffffffff\n      and\n      0xffffffffffffffffffffffffffffffffffffffff\n      and\n      dup2\n      mstore\n      0x20\n      add\n      0x00\n      dup3\n      add\n      0x14\n      swap1\n      sload\n      swap1\n      0x0100\n      exp\n      swap1\n      div\n      0xffff\n      and\n      0xffff\n      and\n      0xffff\n      and\n      dup2\n      mstore\n      pop\n      pop\n      dup2\n      mstore\n      0x20\n      add\n      swap1\n      0x01\n      add\n      swap1\n      jump(tag_76)\n    tag_77:\n      pop\n      pop\n      pop\n      pop\n      swap1\n      pop\n        /* \"contracts/ProvenanceGraph.sol\":5943:6092  function getContributorEdges(uint256 _assetId) external view returns (ContributorEdge[] memory) {... */\n      swap2\n      swap1\n      pop\n      jump\t// out\n        /* \"contracts/ProvenanceGraph.sol\":6422:6555  function getTotalBpsAllocated(uint256 _assetId) external view returns (uint16) {... */\n    tag_43:\n        /* \"contracts/ProvenanceGraph.sol\":6493:6499  uint16 */\n      0x00\n        /* \"contracts/ProvenanceGraph.sol\":6519:6537  _totalBpsAllocated */\n      0x02\n        /* \"contracts/ProvenanceGraph.sol\":6519:6547  _totalBpsAllocated[_assetId] */\n      0x00\n        /* \"contracts/ProvenanceGraph.sol\":6538:6546  _assetId */\n      dup4\n        /* \"contracts/ProvenanceGraph.sol\":6519:6547  _totalBpsAllocated[_assetId] */\n      dup2\n      mstore\n      0x20\n      add\n      swap1\n      dup2\n      mstore\n      0x20\n      add\n      0x00\n      keccak256\n      0x00\n      swap1\n      sload\n      swap1\n      0x0100\n      exp\n      swap1\n      div\n      0xffff\n      and\n        /* \"contracts/ProvenanceGraph.sol\":6512:6547  return _totalBpsAllocated[_assetId] */\n      swap1\n      pop\n        /* \"contracts/ProvenanceGraph.sol\":6422:6555  function getTotalBpsAllocated(uint256 _assetId) external view returns (uint16) {... */\n      swap2\n      swap1\n      pop\n      jump\t// out\n        /* \"contracts/ProvenanceGraph.sol\":2863:3884  function addContributorEdge(uint256 _assetId, address _contributor, uint16 _weightBps) external {... */\n    tag_49:\n        /* \"contracts/ProvenanceGraph.sol\":3006:3016  msg.sender */\n      caller\n        /* \"contracts/ProvenanceGraph.sol\":2974:3016  assetToken.ownerOf(_assetId) != msg.sender */\n      0xffffffffffffffffffffffffffffffffffffffff\n      and\n        /* \"contracts/ProvenanceGraph.sol\":2974:2984  assetToken */\n      immutable(\"0x8e8fab5f003314da8d1873ea7720e8d9f47650136d916064d1edb8a11d682624\")\n        /* \"contracts/ProvenanceGraph.sol\":2974:2992  assetToken.ownerOf */\n      0xffffffffffffffffffffffffffffffffffffffff\n      and\n      0x6352211e\n        /* \"contracts/ProvenanceGraph.sol\":2993:3001  _assetId */\n      dup6\n        /* \"contracts/ProvenanceGraph.sol\":2974:3002  assetToken.ownerOf(_assetId) */\n      mload(0x40)\n      dup3\n      0xffffffff\n      and\n      0xe0\n      shl\n      dup2\n      mstore\n      0x04\n      add\n      tag_81\n      swap2\n      swap1\n      tag_60\n      jump\t// in\n    tag_81:\n      0x20\n      mload(0x40)\n      dup1\n      dup4\n      sub\n      dup2\n      dup7\n      gas\n      staticcall\n      iszero\n      dup1\n      iszero\n      tag_83\n      jumpi\n      returndatasize\n      0x00\n      dup1\n      returndatacopy\n      revert(0x00, returndatasize)\n    tag_83:\n      pop\n      pop\n      pop\n      pop\n      mload(0x40)\n      returndatasize\n      not(0x1f)\n      0x1f\n      dup3\n      add\n      and\n      dup3\n      add\n      dup1\n      0x40\n      mstore\n      pop\n      dup2\n      add\n      swap1\n      tag_84\n      swap2\n      swap1\n      tag_64\n      jump\t// in\n    tag_84:\n        /* \"contracts/ProvenanceGraph.sol\":2974:3016  assetToken.ownerOf(_assetId) != msg.sender */\n      0xffffffffffffffffffffffffffffffffffffffff\n      and\n      eq\n        /* \"contracts/ProvenanceGraph.sol\":2970:3060  if (assetToken.ownerOf(_assetId) != msg.sender) revert NotAssetOwner(msg.sender, _assetId) */\n      tag_85\n      jumpi\n        /* \"contracts/ProvenanceGraph.sol\":3039:3049  msg.sender */\n      caller\n        /* \"contracts/ProvenanceGraph.sol\":3051:3059  _assetId */\n      dup4\n        /* \"contracts/ProvenanceGraph.sol\":3025:3060  NotAssetOwner(msg.sender, _assetId) */\n      mload(0x40)\n      0xd10b1c5900000000000000000000000000000000000000000000000000000000\n      dup2\n      mstore\n      0x04\n      add\n      tag_86\n      swap3\n      swap2\n      swap1\n      tag_67\n      jump\t// in\n    tag_86:\n      mload(0x40)\n      dup1\n      swap2\n      sub\n      swap1\n      revert\n        /* \"contracts/ProvenanceGraph.sol\":2970:3060  if (assetToken.ownerOf(_assetId) != msg.sender) revert NotAssetOwner(msg.sender, _assetId) */\n    tag_85:\n        /* \"contracts/ProvenanceGraph.sol\":3075:3087  _isFinalized */\n      0x03\n        /* \"contracts/ProvenanceGraph.sol\":3075:3097  _isFinalized[_assetId] */\n      0x00\n        /* \"contracts/ProvenanceGraph.sol\":3088:3096  _assetId */\n      dup5\n        /* \"contracts/ProvenanceGraph.sol\":3075:3097  _isFinalized[_assetId] */\n      dup2\n      mstore\n      0x20\n      add\n      swap1\n      dup2\n      mstore\n      0x20\n      add\n      0x00\n      keccak256\n      0x00\n      swap1\n      sload\n      swap1\n      0x0100\n      exp\n      swap1\n      div\n      0xff\n      and\n        /* \"contracts/ProvenanceGraph.sol\":3071:3132  if (_isFinalized[_assetId]) revert GraphIsFinalized(_assetId) */\n      iszero\n      tag_87\n      jumpi\n        /* \"contracts/ProvenanceGraph.sol\":3123:3131  _assetId */\n      dup3\n        /* \"contracts/ProvenanceGraph.sol\":3106:3132  GraphIsFinalized(_assetId) */\n      mload(0x40)\n      0x5a48209b00000000000000000000000000000000000000000000000000000000\n      dup2\n      mstore\n      0x04\n      add\n      tag_88\n      swap2\n      swap1\n      tag_60\n      jump\t// in\n    tag_88:\n      mload(0x40)\n      dup1\n      swap2\n      sub\n      swap1\n      revert\n        /* \"contracts/ProvenanceGraph.sol\":3071:3132  if (_isFinalized[_assetId]) revert GraphIsFinalized(_assetId) */\n    tag_87:\n        /* \"contracts/ProvenanceGraph.sol\":3161:3162  0 */\n      0x00\n        /* \"contracts/ProvenanceGraph.sol\":3147:3157  _weightBps */\n      dup2\n        /* \"contracts/ProvenanceGraph.sol\":3147:3162  _weightBps == 0 */\n      0xffff\n      and\n      eq\n        /* \"contracts/ProvenanceGraph.sol\":3147:3184  _weightBps == 0 || _weightBps > 10000 */\n      dup1\n      tag_89\n      jumpi\n      pop\n        /* \"contracts/ProvenanceGraph.sol\":3179:3184  10000 */\n      0x2710\n        /* \"contracts/ProvenanceGraph.sol\":3166:3176  _weightBps */\n      dup2\n        /* \"contracts/ProvenanceGraph.sol\":3166:3184  _weightBps > 10000 */\n      0xffff\n      and\n      gt\n        /* \"contracts/ProvenanceGraph.sol\":3147:3184  _weightBps == 0 || _weightBps > 10000 */\n    tag_89:\n        /* \"contracts/ProvenanceGraph.sol\":3143:3218  if (_weightBps == 0 || _weightBps > 10000) revert InvalidWeight(_weightBps) */\n      iszero\n      tag_90\n      jumpi\n        /* \"contracts/ProvenanceGraph.sol\":3207:3217  _weightBps */\n      dup1\n        /* \"contracts/ProvenanceGraph.sol\":3193:3218  InvalidWeight(_weightBps) */\n      mload(0x40)\n      0x8ee8942100000000000000000000000000000000000000000000000000000000\n      dup2\n      mstore\n      0x04\n      add\n      tag_91\n      swap2\n      swap1\n      tag_45\n      jump\t// in\n    tag_91:\n      mload(0x40)\n      dup1\n      swap2\n      sub\n      swap1\n      revert\n        /* \"contracts/ProvenanceGraph.sol\":3143:3218  if (_weightBps == 0 || _weightBps > 10000) revert InvalidWeight(_weightBps) */\n    tag_90:\n        /* \"contracts/ProvenanceGraph.sol\":3323:3342  contributorRegistry */\n      immutable(\"0x731dc163f73d31d8c68f9917ce4ff967753939f70432973c04fd2c2a48148607\")\n        /* \"contracts/ProvenanceGraph.sol\":3323:3350  contributorRegistry.hasRole */\n      0xffffffffffffffffffffffffffffffffffffffff\n      and\n      0x91d14854\n        /* \"contracts/ProvenanceGraph.sol\":1497:1526  keccak256(\"CONTRIBUTOR_ROLE\") */\n      0xe2889e7308860b3fe8df0daa86fccfea4d71e43776719a57be28cf90b6db81e9\n        /* \"contracts/ProvenanceGraph.sol\":3369:3381  _contributor */\n      dup5\n        /* \"contracts/ProvenanceGraph.sol\":3323:3382  contributorRegistry.hasRole(CONTRIBUTOR_ROLE, _contributor) */\n      mload(0x40)\n      dup4\n      0xffffffff\n      and\n      0xe0\n      shl\n      dup2\n      mstore\n      0x04\n      add\n      tag_92\n      swap3\n      swap2\n      swap1\n      tag_93\n      jump\t// in\n    tag_92:\n      0x20\n      mload(0x40)\n      dup1\n      dup4\n      sub\n      dup2\n      dup7\n      gas\n      staticcall\n      iszero\n      dup1\n      iszero\n      tag_95\n      jumpi\n      returndatasize\n      0x00\n      dup1\n      returndatacopy\n      revert(0x00, returndatasize)\n    tag_95:\n      pop\n      pop\n      pop\n      pop\n      mload(0x40)\n      returndatasize\n      not(0x1f)\n      0x1f\n      dup3\n      add\n      and\n      dup3\n      add\n      dup1\n      0x40\n      mstore\n      pop\n      dup2\n      add\n      swap1\n      tag_96\n      swap2\n      swap1\n      tag_97\n      jump\t// in\n    tag_96:\n        /* \"contracts/ProvenanceGraph.sol\":3318:3447  if (!contributorRegistry.hasRole(CONTRIBUTOR_ROLE, _contributor)) {... */\n      tag_98\n      jumpi\n        /* \"contracts/ProvenanceGraph.sol\":3422:3434  _contributor */\n      dup2\n        /* \"contracts/ProvenanceGraph.sol\":3406:3435  NotAContributor(_contributor) */\n      mload(0x40)\n      0x4872cb9b00000000000000000000000000000000000000000000000000000000\n      dup2\n      mstore\n      0x04\n      add\n      tag_99\n      swap2\n      swap1\n      tag_100\n      jump\t// in\n    tag_99:\n      mload(0x40)\n      dup1\n      swap2\n      sub\n      swap1\n      revert\n        /* \"contracts/ProvenanceGraph.sol\":3318:3447  if (!contributorRegistry.hasRole(CONTRIBUTOR_ROLE, _contributor)) {... */\n    tag_98:\n        /* \"contracts/ProvenanceGraph.sol\":3459:3477  uint16 newTotalBps */\n      0x00\n        /* \"contracts/ProvenanceGraph.sol\":3511:3521  _weightBps */\n      dup2\n        /* \"contracts/ProvenanceGraph.sol\":3480:3498  _totalBpsAllocated */\n      0x02\n        /* \"contracts/ProvenanceGraph.sol\":3480:3508  _totalBpsAllocated[_assetId] */\n      0x00\n        /* \"contracts/ProvenanceGraph.sol\":3499:3507  _assetId */\n      dup7\n        /* \"contracts/ProvenanceGraph.sol\":3480:3508  _totalBpsAllocated[_assetId] */\n      dup2\n      mstore\n      0x20\n      add\n      swap1\n      dup2\n      mstore\n      0x20\n      add\n      0x00\n      keccak256\n      0x00\n      swap1\n      sload\n      swap1\n      0x0100\n      exp\n      swap1\n      div\n      0xffff\n      and\n        /* \"contracts/ProvenanceGraph.sol\":3480:3521  _totalBpsAllocated[_assetId] + _weightBps */\n      tag_101\n      swap2\n      swap1\n      tag_102\n      jump\t// in\n    tag_101:\n        /* \"contracts/ProvenanceGraph.sol\":3459:3521  uint16 newTotalBps = _totalBpsAllocated[_assetId] + _weightBps */\n      swap1\n      pop\n        /* \"contracts/ProvenanceGraph.sol\":3550:3555  10000 */\n      0x2710\n        /* \"contracts/ProvenanceGraph.sol\":3536:3547  newTotalBps */\n      dup2\n        /* \"contracts/ProvenanceGraph.sol\":3536:3555  newTotalBps > 10000 */\n      0xffff\n      and\n      gt\n        /* \"contracts/ProvenanceGraph.sol\":3532:3635  if (newTotalBps > 10000) revert TotalWeightExceeded(_assetId, _totalBpsAllocated[_assetId], _weightBps) */\n      iszero\n      tag_103\n      jumpi\n        /* \"contracts/ProvenanceGraph.sol\":3584:3592  _assetId */\n      dup4\n        /* \"contracts/ProvenanceGraph.sol\":3594:3612  _totalBpsAllocated */\n      0x02\n        /* \"contracts/ProvenanceGraph.sol\":3594:3622  _totalBpsAllocated[_assetId] */\n      0x00\n        /* \"contracts/ProvenanceGraph.sol\":3613:3621  _assetId */\n      dup7\n        /* \"contracts/ProvenanceGraph.sol\":3594:3622  _totalBpsAllocated[_assetId] */\n      dup2\n      mstore\n      0x20\n      add\n      swap1\n      dup2\n      mstore\n      0x20\n      add\n      0x00\n      keccak256\n      0x00\n      swap1\n      sload\n      swap1\n      0x0100\n      exp\n      swap1\n      div\n      0xffff\n      and\n        /* \"contracts/ProvenanceGraph.sol\":3624:3634  _weightBps */\n      dup4\n        /* \"contracts/ProvenanceGraph.sol\":3564:3635  TotalWeightExceeded(_assetId, _totalBpsAllocated[_assetId], _weightBps) */\n      mload(0x40)\n      0x2f8be8d900000000000000000000000000000000000000000000000000000000\n      dup2\n      mstore\n      0x04\n      add\n      tag_104\n      swap4\n      swap3\n      swap2\n      swap1\n      tag_105\n      jump\t// in\n    tag_104:\n      mload(0x40)\n      dup1\n      swap2\n      sub\n      swap1\n      revert\n        /* \"contracts/ProvenanceGraph.sol\":3532:3635  if (newTotalBps > 10000) revert TotalWeightExceeded(_assetId, _totalBpsAllocated[_assetId], _weightBps) */\n    tag_103:\n        /* \"contracts/ProvenanceGraph.sol\":3679:3690  newTotalBps */\n      dup1\n        /* \"contracts/ProvenanceGraph.sol\":3648:3666  _totalBpsAllocated */\n      0x02\n        /* \"contracts/ProvenanceGraph.sol\":3648:3676  _totalBpsAllocated[_assetId] */\n      0x00\n        /* \"contracts/ProvenanceGraph.sol\":3667:3675  _assetId */\n      dup7\n        /* \"contracts/ProvenanceGraph.sol\":3648:3676  _totalBpsAllocated[_assetId] */\n      dup2\n      mstore\n      0x20\n      add\n      swap1\n      dup2\n      mstore\n      0x20\n      add\n      0x00\n      keccak256\n      0x00\n        /* \"contracts/ProvenanceGraph.sol\":3648:3690  _totalBpsAllocated[_assetId] = newTotalBps */\n      0x0100\n      exp\n      dup2\n      sload\n      dup2\n      0xffff\n      mul\n      not\n      and\n      swap1\n      dup4\n      0xffff\n      and\n      mul\n      or\n      swap1\n      sstore\n      pop\n        /* \"contracts/ProvenanceGraph.sol\":3701:3718  _contributorEdges */\n      0x00\n        /* \"contracts/ProvenanceGraph.sol\":3701:3728  _contributorEdges[_assetId] */\n      dup1\n        /* \"contracts/ProvenanceGraph.sol\":3719:3727  _assetId */\n      dup6\n        /* \"contracts/ProvenanceGraph.sol\":3701:3728  _contributorEdges[_assetId] */\n      dup2\n      mstore\n      0x20\n      add\n      swap1\n      dup2\n      mstore\n      0x20\n      add\n      0x00\n      keccak256\n        /* \"contracts/ProvenanceGraph.sol\":3734:3801  ContributorEdge({contributor: _contributor, weightBps: _weightBps}) */\n      mload(0x40)\n      dup1\n      0x40\n      add\n      0x40\n      mstore\n      dup1\n        /* \"contracts/ProvenanceGraph.sol\":3764:3776  _contributor */\n      dup6\n        /* \"contracts/ProvenanceGraph.sol\":3734:3801  ContributorEdge({contributor: _contributor, weightBps: _weightBps}) */\n      0xffffffffffffffffffffffffffffffffffffffff\n      and\n      dup2\n      mstore\n      0x20\n      add\n        /* \"contracts/ProvenanceGraph.sol\":3789:3799  _weightBps */\n      dup5\n        /* \"contracts/ProvenanceGraph.sol\":3734:3801  ContributorEdge({contributor: _contributor, weightBps: _weightBps}) */\n      0xffff\n      and\n      dup2\n      mstore\n      pop\n        /* \"contracts/ProvenanceGraph.sol\":3701:3802  _contributorEdges[_assetId].push(ContributorEdge({contributor: _contributor, weightBps: _weightBps})) */\n      swap1\n      dup1\n      0x01\n      dup2\n      sload\n      add\n      dup1\n      dup3\n      sstore\n      dup1\n      swap2\n      pop\n      pop\n      0x01\n      swap1\n      sub\n      swap1\n      0x00\n      mstore\n      keccak256(0x00, 0x20)\n      add\n      0x00\n      swap1\n      swap2\n      swap1\n      swap2\n      swap1\n      swap2\n      pop\n      0x00\n      dup3\n      add\n      mload\n      dup2\n      0x00\n      add\n      exp(0x0100, 0x00)\n      dup2\n      sload\n      dup2\n      0xffffffffffffffffffffffffffffffffffffffff\n      mul\n      not\n      and\n      swap1\n      dup4\n      0xffffffffffffffffffffffffffffffffffffffff\n      and\n      mul\n      or\n      swap1\n      sstore\n      pop\n      0x20\n      dup3\n      add\n      mload\n      dup2\n      0x00\n      add\n      exp(0x0100, 0x14)\n      dup2\n      sload\n      dup2\n      0xffff\n      mul\n      not\n      and\n      swap1\n      dup4\n      0xffff\n      and\n      mul\n      or\n      swap1\n      sstore\n      pop\n      pop\n      pop\n        /* \"contracts/ProvenanceGraph.sol\":3851:3863  _contributor */\n      dup3\n        /* \"contracts/ProvenanceGraph.sol\":3820:3876  ContributorEdgeAdded(_assetId, _contributor, _weightBps) */\n      0xffffffffffffffffffffffffffffffffffffffff\n      and\n        /* \"contracts/ProvenanceGraph.sol\":3841:3849  _assetId */\n      dup5\n        /* \"contracts/ProvenanceGraph.sol\":3820:3876  ContributorEdgeAdded(_assetId, _contributor, _weightBps) */\n      0x850fc0dc2fb73f8321e121abefd50bb59e0d270d6f7e450f9179e1ad3856daec\n        /* \"contracts/ProvenanceGraph.sol\":3865:3875  _weightBps */\n      dup5\n        /* \"contracts/ProvenanceGraph.sol\":3820:3876  ContributorEdgeAdded(_assetId, _contributor, _weightBps) */\n      mload(0x40)\n      tag_107\n      swap2\n      swap1\n      tag_45\n      jump\t// in\n    tag_107:\n      mload(0x40)\n      dup1\n      swap2\n      sub\n      swap1\n      log3\n        /* \"contracts/ProvenanceGraph.sol\":2959:3884  {... */\n      pop\n        /* \"contracts/ProvenanceGraph.sol\":2863:3884  function addContributorEdge(uint256 _assetId, address _contributor, uint16 _weightBps) external {... */\n      pop\n      pop\n      pop\n      jump\t// out\n        /* \"contracts/ProvenanceGraph.sol\":4278:5205  function addParentEdge(uint256 _childAssetId, uint256 _parentAssetId, uint16 _weightBps) external {... */\n    tag_53:\n        /* \"contracts/ProvenanceGraph.sol\":4428:4438  msg.sender */\n      caller\n        /* \"contracts/ProvenanceGraph.sol\":4391:4438  assetToken.ownerOf(_childAssetId) != msg.sender */\n      0xffffffffffffffffffffffffffffffffffffffff\n      and\n        /* \"contracts/ProvenanceGraph.sol\":4391:4401  assetToken */\n      immutable(\"0x8e8fab5f003314da8d1873ea7720e8d9f47650136d916064d1edb8a11d682624\")\n        /* \"contracts/ProvenanceGraph.sol\":4391:4409  assetToken.ownerOf */\n      0xffffffffffffffffffffffffffffffffffffffff\n      and\n      0x6352211e\n        /* \"contracts/ProvenanceGraph.sol\":4410:4423  _childAssetId */\n      dup6\n        /* \"contracts/ProvenanceGraph.sol\":4391:4424  assetToken.ownerOf(_childAssetId) */\n      mload(0x40)\n      dup3\n      0xffffffff\n      and\n      0xe0\n      shl\n      dup2\n      mstore\n      0x04\n      add\n      tag_109\n      swap2\n      swap1\n      tag_60\n      jump\t// in\n    tag_109:\n      0x20\n      mload(0x40)\n      dup1\n      dup4\n      sub\n      dup2\n      dup7\n      gas\n      staticcall\n      iszero\n      dup1\n      iszero\n      tag_111\n      jumpi\n      returndatasize\n      0x00\n      dup1\n      returndatacopy\n      revert(0x00, returndatasize)\n    tag_111:\n      pop\n      pop\n      pop\n      pop\n      mload(0x40)\n      returndatasize\n      not(0x1f)\n      0x1f\n      dup3\n      add\n      and\n      dup3\n      add\n      dup1\n      0x40\n      mstore\n      pop\n      dup2\n      add\n      swap1\n      tag_112\n      swap2\n      swap1\n      tag_64\n      jump\t// in\n    tag_112:\n        /* \"contracts/ProvenanceGraph.sol\":4391:4438  assetToken.ownerOf(_childAssetId) != msg.sender */\n      0xffffffffffffffffffffffffffffffffffffffff\n      and\n      eq\n        /* \"contracts/ProvenanceGraph.sol\":4387:4487  if (assetToken.ownerOf(_childAssetId) != msg.sender) revert NotAssetOwner(msg.sender, _childAssetId) */\n      tag_113\n      jumpi\n        /* \"contracts/ProvenanceGraph.sol\":4461:4471  msg.sender */\n      caller\n        /* \"contracts/ProvenanceGraph.sol\":4473:4486  _childAssetId */\n      dup4\n        /* \"contracts/ProvenanceGraph.sol\":4447:4487  NotAssetOwner(msg.sender, _childAssetId) */\n      mload(0x40)\n      0xd10b1c5900000000000000000000000000000000000000000000000000000000\n      dup2\n      mstore\n      0x04\n      add\n      tag_114\n      swap3\n      swap2\n      swap1\n      tag_67\n      jump\t// in\n    tag_114:\n      mload(0x40)\n      dup1\n      swap2\n      sub\n      swap1\n      revert\n        /* \"contracts/ProvenanceGraph.sol\":4387:4487  if (assetToken.ownerOf(_childAssetId) != msg.sender) revert NotAssetOwner(msg.sender, _childAssetId) */\n    tag_113:\n        /* \"contracts/ProvenanceGraph.sol\":4502:4514  _isFinalized */\n      0x03\n        /* \"contracts/ProvenanceGraph.sol\":4502:4529  _isFinalized[_childAssetId] */\n      0x00\n        /* \"contracts/ProvenanceGraph.sol\":4515:4528  _childAssetId */\n      dup5\n        /* \"contracts/ProvenanceGraph.sol\":4502:4529  _isFinalized[_childAssetId] */\n      dup2\n      mstore\n      0x20\n      add\n      swap1\n      dup2\n      mstore\n      0x20\n      add\n      0x00\n      keccak256\n      0x00\n      swap1\n      sload\n      swap1\n      0x0100\n      exp\n      swap1\n      div\n      0xff\n      and\n        /* \"contracts/ProvenanceGraph.sol\":4498:4569  if (_isFinalized[_childAssetId]) revert GraphIsFinalized(_childAssetId) */\n      iszero\n      tag_115\n      jumpi\n        /* \"contracts/ProvenanceGraph.sol\":4555:4568  _childAssetId */\n      dup3\n        /* \"contracts/ProvenanceGraph.sol\":4538:4569  GraphIsFinalized(_childAssetId) */\n      mload(0x40)\n      0x5a48209b00000000000000000000000000000000000000000000000000000000\n      dup2\n      mstore\n      0x04\n      add\n      tag_116\n      swap2\n      swap1\n      tag_60\n      jump\t// in\n    tag_116:\n      mload(0x40)\n      dup1\n      swap2\n      sub\n      swap1\n      revert\n        /* \"contracts/ProvenanceGraph.sol\":4498:4569  if (_isFinalized[_childAssetId]) revert GraphIsFinalized(_childAssetId) */\n    tag_115:\n        /* \"contracts/ProvenanceGraph.sol\":4598:4599  0 */\n      0x00\n        /* \"contracts/ProvenanceGraph.sol\":4584:4594  _weightBps */\n      dup2\n        /* \"contracts/ProvenanceGraph.sol\":4584:4599  _weightBps == 0 */\n      0xffff\n      and\n      eq\n        /* \"contracts/ProvenanceGraph.sol\":4584:4621  _weightBps == 0 || _weightBps > 10000 */\n      dup1\n      tag_117\n      jumpi\n      pop\n        /* \"contracts/ProvenanceGraph.sol\":4616:4621  10000 */\n      0x2710\n        /* \"contracts/ProvenanceGraph.sol\":4603:4613  _weightBps */\n      dup2\n        /* \"contracts/ProvenanceGraph.sol\":4603:4621  _weightBps > 10000 */\n      0xffff\n      and\n      gt\n        /* \"contracts/ProvenanceGraph.sol\":4584:4621  _weightBps == 0 || _weightBps > 10000 */\n    tag_117:\n        /* \"contracts/ProvenanceGraph.sol\":4580:4655  if (_weightBps == 0 || _weightBps > 10000) revert InvalidWeight(_weightBps) */\n      iszero\n      tag_118\n      jumpi\n        /* \"contracts/ProvenanceGraph.sol\":4644:4654  _weightBps */\n      dup1\n        /* \"contracts/ProvenanceGraph.sol\":4630:4655  InvalidWeight(_weightBps) */\n      mload(0x40)\n      0x8ee8942100000000000000000000000000000000000000000000000000000000\n      dup2\n      mstore\n      0x04\n      add\n      tag_119\n      swap2\n      swap1\n      tag_45\n      jump\t// in\n    tag_119:\n      mload(0x40)\n      dup1\n      swap2\n      sub\n      swap1\n      revert\n        /* \"contracts/ProvenanceGraph.sol\":4580:4655  if (_weightBps == 0 || _weightBps > 10000) revert InvalidWeight(_weightBps) */\n    tag_118:\n        /* \"contracts/ProvenanceGraph.sol\":4671:4681  assetToken */\n      immutable(\"0x8e8fab5f003314da8d1873ea7720e8d9f47650136d916064d1edb8a11d682624\")\n        /* \"contracts/ProvenanceGraph.sol\":4671:4688  assetToken.exists */\n      0xffffffffffffffffffffffffffffffffffffffff\n      and\n      0x4f558e79\n        /* \"contracts/ProvenanceGraph.sol\":4689:4703  _parentAssetId */\n      dup4\n        /* \"contracts/ProvenanceGraph.sol\":4671:4704  assetToken.exists(_parentAssetId) */\n      mload(0x40)\n      dup3\n      0xffffffff\n      and\n      0xe0\n      shl\n      dup2\n      mstore\n      0x04\n      add\n      tag_120\n      swap2\n      swap1\n      tag_60\n      jump\t// in\n    tag_120:\n      0x20\n      mload(0x40)\n      dup1\n      dup4\n      sub\n      dup2\n      dup7\n      gas\n      staticcall\n      iszero\n      dup1\n      iszero\n      tag_122\n      jumpi\n      returndatasize\n      0x00\n      dup1\n      returndatacopy\n      revert(0x00, returndatasize)\n    tag_122:\n      pop\n      pop\n      pop\n      pop\n      mload(0x40)\n      returndatasize\n      not(0x1f)\n      0x1f\n      dup3\n      add\n      and\n      dup3\n      add\n      dup1\n      0x40\n      mstore\n      pop\n      dup2\n      add\n      swap1\n      tag_123\n      swap2\n      swap1\n      tag_97\n      jump\t// in\n    tag_123:\n        /* \"contracts/ProvenanceGraph.sol\":4666:4746  if (!assetToken.exists(_parentAssetId)) revert AssetDoesNotExist(_parentAssetId) */\n      tag_124\n      jumpi\n        /* \"contracts/ProvenanceGraph.sol\":4731:4745  _parentAssetId */\n      dup2\n        /* \"contracts/ProvenanceGraph.sol\":4713:4746  AssetDoesNotExist(_parentAssetId) */\n      mload(0x40)\n      0x6f9bab5500000000000000000000000000000000000000000000000000000000\n      dup2\n      mstore\n      0x04\n      add\n      tag_125\n      swap2\n      swap1\n      tag_60\n      jump\t// in\n    tag_125:\n      mload(0x40)\n      dup1\n      swap2\n      sub\n      swap1\n      revert\n        /* \"contracts/ProvenanceGraph.sol\":4666:4746  if (!assetToken.exists(_parentAssetId)) revert AssetDoesNotExist(_parentAssetId) */\n    tag_124:\n        /* \"contracts/ProvenanceGraph.sol\":4759:4777  uint16 newTotalBps */\n      0x00\n        /* \"contracts/ProvenanceGraph.sol\":4816:4826  _weightBps */\n      dup2\n        /* \"contracts/ProvenanceGraph.sol\":4780:4798  _totalBpsAllocated */\n      0x02\n        /* \"contracts/ProvenanceGraph.sol\":4780:4813  _totalBpsAllocated[_childAssetId] */\n      0x00\n        /* \"contracts/ProvenanceGraph.sol\":4799:4812  _childAssetId */\n      dup7\n        /* \"contracts/ProvenanceGraph.sol\":4780:4813  _totalBpsAllocated[_childAssetId] */\n      dup2\n      mstore\n      0x20\n      add\n      swap1\n      dup2\n      mstore\n      0x20\n      add\n      0x00\n      keccak256\n      0x00\n      swap1\n      sload\n      swap1\n      0x0100\n      exp\n      swap1\n      div\n      0xffff\n      and\n        /* \"contracts/ProvenanceGraph.sol\":4780:4826  _totalBpsAllocated[_childAssetId] + _weightBps */\n      tag_126\n      swap2\n      swap1\n      tag_102\n      jump\t// in\n    tag_126:\n        /* \"contracts/ProvenanceGraph.sol\":4759:4826  uint16 newTotalBps = _totalBpsAllocated[_childAssetId] + _weightBps */\n      swap1\n      pop\n        /* \"contracts/ProvenanceGraph.sol\":4855:4860  10000 */\n      0x2710\n        /* \"contracts/ProvenanceGraph.sol\":4841:4852  newTotalBps */\n      dup2\n        /* \"contracts/ProvenanceGraph.sol\":4841:4860  newTotalBps > 10000 */\n      0xffff\n      and\n      gt\n        /* \"contracts/ProvenanceGraph.sol\":4837:4950  if (newTotalBps > 10000) revert TotalWeightExceeded(_childAssetId, _totalBpsAllocated[_childAssetId], _weightBps) */\n      iszero\n      tag_127\n      jumpi\n        /* \"contracts/ProvenanceGraph.sol\":4889:4902  _childAssetId */\n      dup4\n        /* \"contracts/ProvenanceGraph.sol\":4904:4922  _totalBpsAllocated */\n      0x02\n        /* \"contracts/ProvenanceGraph.sol\":4904:4937  _totalBpsAllocated[_childAssetId] */\n      0x00\n        /* \"contracts/ProvenanceGraph.sol\":4923:4936  _childAssetId */\n      dup7\n        /* \"contracts/ProvenanceGraph.sol\":4904:4937  _totalBpsAllocated[_childAssetId] */\n      dup2\n      mstore\n      0x20\n      add\n      swap1\n      dup2\n      mstore\n      0x20\n      add\n      0x00\n      keccak256\n      0x00\n      swap1\n      sload\n      swap1\n      0x0100\n      exp\n      swap1\n      div\n      0xffff\n      and\n        /* \"contracts/ProvenanceGraph.sol\":4939:4949  _weightBps */\n      dup4\n        /* \"contracts/ProvenanceGraph.sol\":4869:4950  TotalWeightExceeded(_childAssetId, _totalBpsAllocated[_childAssetId], _weightBps) */\n      mload(0x40)\n      0x2f8be8d900000000000000000000000000000000000000000000000000000000\n      dup2\n      mstore\n      0x04\n      add\n      tag_128\n      swap4\n      swap3\n      swap2\n      swap1\n      tag_105\n      jump\t// in\n    tag_128:\n      mload(0x40)\n      dup1\n      swap2\n      sub\n      swap1\n      revert\n        /* \"contracts/ProvenanceGraph.sol\":4837:4950  if (newTotalBps > 10000) revert TotalWeightExceeded(_childAssetId, _totalBpsAllocated[_childAssetId], _weightBps) */\n    tag_127:\n        /* \"contracts/ProvenanceGraph.sol\":4999:5010  newTotalBps */\n      dup1\n        /* \"contracts/ProvenanceGraph.sol\":4963:4981  _totalBpsAllocated */\n      0x02\n        /* \"contracts/ProvenanceGraph.sol\":4963:4996  _totalBpsAllocated[_childAssetId] */\n      0x00\n        /* \"contracts/ProvenanceGraph.sol\":4982:4995  _childAssetId */\n      dup7\n        /* \"contracts/ProvenanceGraph.sol\":4963:4996  _totalBpsAllocated[_childAssetId] */\n      dup2\n      mstore\n      0x20\n      add\n      swap1\n      dup2\n      mstore\n      0x20\n      add\n      0x00\n      keccak256\n      0x00\n        /* \"contracts/ProvenanceGraph.sol\":4963:5010  _totalBpsAllocated[_childAssetId] = newTotalBps */\n      0x0100\n      exp\n      dup2\n      sload\n      dup2\n      0xffff\n      mul\n      not\n      and\n      swap1\n      dup4\n      0xffff\n      and\n      mul\n      or\n      swap1\n      sstore\n      pop\n        /* \"contracts/ProvenanceGraph.sol\":5021:5033  _parentEdges */\n      0x01\n        /* \"contracts/ProvenanceGraph.sol\":5021:5048  _parentEdges[_childAssetId] */\n      0x00\n        /* \"contracts/ProvenanceGraph.sol\":5034:5047  _childAssetId */\n      dup6\n        /* \"contracts/ProvenanceGraph.sol\":5021:5048  _parentEdges[_childAssetId] */\n      dup2\n      mstore\n      0x20\n      add\n      swap1\n      dup2\n      mstore\n      0x20\n      add\n      0x00\n      keccak256\n        /* \"contracts/ProvenanceGraph.sol\":5054:5120  ParentEdge({parentAssetId: _parentAssetId, weightBps: _weightBps}) */\n      mload(0x40)\n      dup1\n      0x40\n      add\n      0x40\n      mstore\n      dup1\n        /* \"contracts/ProvenanceGraph.sol\":5081:5095  _parentAssetId */\n      dup6\n        /* \"contracts/ProvenanceGraph.sol\":5054:5120  ParentEdge({parentAssetId: _parentAssetId, weightBps: _weightBps}) */\n      dup2\n      mstore\n      0x20\n      add\n        /* \"contracts/ProvenanceGraph.sol\":5108:5118  _weightBps */\n      dup5\n        /* \"contracts/ProvenanceGraph.sol\":5054:5120  ParentEdge({parentAssetId: _parentAssetId, weightBps: _weightBps}) */\n      0xffff\n      and\n      dup2\n      mstore\n      pop\n        /* \"contracts/ProvenanceGraph.sol\":5021:5121  _parentEdges[_childAssetId].push(ParentEdge({parentAssetId: _parentAssetId, weightBps: _weightBps})) */\n      swap1\n      dup1\n      0x01\n      dup2\n      sload\n      add\n      dup1\n      dup3\n      sstore\n      dup1\n      swap2\n      pop\n      pop\n      0x01\n      swap1\n      sub\n      swap1\n      0x00\n      mstore\n      keccak256(0x00, 0x20)\n      swap1\n      0x02\n      mul\n      add\n      0x00\n      swap1\n      swap2\n      swap1\n      swap2\n      swap1\n      swap2\n      pop\n      0x00\n      dup3\n      add\n      mload\n      dup2\n      0x00\n      add\n      sstore\n      0x20\n      dup3\n      add\n      mload\n      dup2\n      0x01\n      add\n      exp(0x0100, 0x00)\n      dup2\n      sload\n      dup2\n      0xffff\n      mul\n      not\n      and\n      swap1\n      dup4\n      0xffff\n      and\n      mul\n      or\n      swap1\n      sstore\n      pop\n      pop\n      pop\n        /* \"contracts/ProvenanceGraph.sol\":5170:5184  _parentAssetId */\n      dup3\n        /* \"contracts/ProvenanceGraph.sol\":5155:5168  _childAssetId */\n      dup5\n        /* \"contracts/ProvenanceGraph.sol\":5139:5197  ParentEdgeAdded(_childAssetId, _parentAssetId, _weightBps) */\n      0xfec898c5d3912b351b65f61d0ff9a86555f8531846f3a878bfcd355f04429028\n        /* \"contracts/ProvenanceGraph.sol\":5186:5196  _weightBps */\n      dup5\n        /* \"contracts/ProvenanceGraph.sol\":5139:5197  ParentEdgeAdded(_childAssetId, _parentAssetId, _weightBps) */\n      mload(0x40)\n      tag_130\n      swap2\n      swap1\n      tag_45\n      jump\t// in\n    tag_130:\n      mload(0x40)\n      dup1\n      swap2\n      sub\n      swap1\n      log3\n        /* \"contracts/ProvenanceGraph.sol\":4376:5205  {... */\n      pop\n        /* \"contracts/ProvenanceGraph.sol\":4278:5205  function addParentEdge(uint256 _childAssetId, uint256 _parentAssetId, uint16 _weightBps) external {... */\n      pop\n      pop\n      pop\n      jump\t// out\n        /* \"contracts/ProvenanceGraph.sol\":1454:1526  bytes32 public constant CONTRIBUTOR_ROLE = keccak256(\"CONTRIBUTOR_ROLE\") */\n    tag_55:\n        /* \"contracts/ProvenanceGraph.sol\":1497:1526  keccak256(\"CONTRIBUTOR_ROLE\") */\n      0xe2889e7308860b3fe8df0daa86fccfea4d71e43776719a57be28cf90b6db81e9\n        /* \"contracts/ProvenanceGraph.sol\":1454:1526  bytes32 public constant CONTRIBUTOR_ROLE = keccak256(\"CONTRIBUTOR_ROLE\") */\n      dup2\n      jump\t// out\n        /* \"#utility.yul\":88:205   */\n    tag_132:\n        /* \"#utility.yul\":197:198   */\n      0x00\n        /* \"#utility.yul\":194:195   */\n      dup1\n        /* \"#utility.yul\":187:199   */\n      revert\n        /* \"#utility.yul\":334:411   */\n    tag_134:\n        /* \"#utility.yul\":371:378   */\n      0x00\n        /* \"#utility.yul\":400:405   */\n      dup2\n        /* \"#utility.yul\":389:405   */\n      swap1\n      pop\n        /* \"#utility.yul\":334:411   */\n      swap2\n      swap1\n      pop\n      jump\t// out\n        /* \"#utility.yul\":417:539   */\n    tag_135:\n        /* \"#utility.yul\":490:514   */\n      tag_185\n        /* \"#utility.yul\":508:513   */\n      dup2\n        /* \"#utility.yul\":490:514   */\n      tag_134\n      jump\t// in\n    tag_185:\n        /* \"#utility.yul\":483:488   */\n      dup2\n        /* \"#utility.yul\":480:515   */\n      eq\n        /* \"#utility.yul\":470:533   */\n      tag_186\n      jumpi\n        /* \"#utility.yul\":529:530   */\n      0x00\n        /* \"#utility.yul\":526:527   */\n      dup1\n        /* \"#utility.yul\":519:531   */\n      revert\n        /* \"#utility.yul\":470:533   */\n    tag_186:\n        /* \"#utility.yul\":417:539   */\n      pop\n      jump\t// out\n        /* \"#utility.yul\":545:684   */\n    tag_136:\n        /* \"#utility.yul\":591:596   */\n      0x00\n        /* \"#utility.yul\":629:635   */\n      dup2\n        /* \"#utility.yul\":616:636   */\n      calldataload\n        /* \"#utility.yul\":607:636   */\n      swap1\n      pop\n        /* \"#utility.yul\":645:678   */\n      tag_188\n        /* \"#utility.yul\":672:677   */\n      dup2\n        /* \"#utility.yul\":645:678   */\n      tag_135\n      jump\t// in\n    tag_188:\n        /* \"#utility.yul\":545:684   */\n      swap3\n      swap2\n      pop\n      pop\n      jump\t// out\n        /* \"#utility.yul\":690:1019   */\n    tag_16:\n        /* \"#utility.yul\":749:755   */\n      0x00\n        /* \"#utility.yul\":798:800   */\n      0x20\n        /* \"#utility.yul\":786:795   */\n      dup3\n        /* \"#utility.yul\":777:784   */\n      dup5\n        /* \"#utility.yul\":773:796   */\n      sub\n        /* \"#utility.yul\":769:801   */\n      slt\n        /* \"#utility.yul\":766:885   */\n      iszero\n      tag_190\n      jumpi\n        /* \"#utility.yul\":804:883   */\n      tag_191\n      tag_132\n      jump\t// in\n    tag_191:\n        /* \"#utility.yul\":766:885   */\n    tag_190:\n        /* \"#utility.yul\":924:925   */\n      0x00\n        /* \"#utility.yul\":949:1002   */\n      tag_192\n        /* \"#utility.yul\":994:1001   */\n      dup5\n        /* \"#utility.yul\":985:991   */\n      dup3\n        /* \"#utility.yul\":974:983   */\n      dup6\n        /* \"#utility.yul\":970:992   */\n      add\n        /* \"#utility.yul\":949:1002   */\n      tag_136\n      jump\t// in\n    tag_192:\n        /* \"#utility.yul\":939:1002   */\n      swap2\n      pop\n        /* \"#utility.yul\":895:1012   */\n      pop\n        /* \"#utility.yul\":690:1019   */\n      swap3\n      swap2\n      pop\n      pop\n      jump\t// out\n        /* \"#utility.yul\":1025:1151   */\n    tag_137:\n        /* \"#utility.yul\":1062:1069   */\n      0x00\n        /* \"#utility.yul\":1102:1144   */\n      0xffffffffffffffffffffffffffffffffffffffff\n        /* \"#utility.yul\":1095:1100   */\n      dup3\n        /* \"#utility.yul\":1091:1145   */\n      and\n        /* \"#utility.yul\":1080:1145   */\n      swap1\n      pop\n        /* \"#utility.yul\":1025:1151   */\n      swap2\n      swap1\n      pop\n      jump\t// out\n        /* \"#utility.yul\":1157:1217   */\n    tag_138:\n        /* \"#utility.yul\":1185:1188   */\n      0x00\n        /* \"#utility.yul\":1206:1211   */\n      dup2\n        /* \"#utility.yul\":1199:1211   */\n      swap1\n      pop\n        /* \"#utility.yul\":1157:1217   */\n      swap2\n      swap1\n      pop\n      jump\t// out\n        /* \"#utility.yul\":1223:1365   */\n    tag_139:\n        /* \"#utility.yul\":1273:1282   */\n      0x00\n        /* \"#utility.yul\":1306:1359   */\n      tag_196\n        /* \"#utility.yul\":1324:1358   */\n      tag_197\n        /* \"#utility.yul\":1333:1357   */\n      tag_198\n        /* \"#utility.yul\":1351:1356   */\n      dup5\n        /* \"#utility.yul\":1333:1357   */\n      tag_137\n      jump\t// in\n    tag_198:\n        /* \"#utility.yul\":1324:1358   */\n      tag_138\n      jump\t// in\n    tag_197:\n        /* \"#utility.yul\":1306:1359   */\n      tag_137\n      jump\t// in\n    tag_196:\n        /* \"#utility.yul\":1293:1359   */\n      swap1\n      pop\n        /* \"#utility.yul\":1223:1365   */\n      swap2\n      swap1\n      pop\n      jump\t// out\n        /* \"#utility.yul\":1371:1497   */\n    tag_140:\n        /* \"#utility.yul\":1421:1430   */\n      0x00\n        /* \"#utility.yul\":1454:1491   */\n      tag_200\n        /* \"#utility.yul\":1485:1490   */\n      dup3\n        /* \"#utility.yul\":1454:1491   */\n      tag_139\n      jump\t// in\n    tag_200:\n        /* \"#utility.yul\":1441:1491   */\n      swap1\n      pop\n        /* \"#utility.yul\":1371:1497   */\n      swap2\n      swap1\n      pop\n      jump\t// out\n        /* \"#utility.yul\":1503:1648   */\n    tag_141:\n        /* \"#utility.yul\":1572:1581   */\n      0x00\n        /* \"#utility.yul\":1605:1642   */\n      tag_202\n        /* \"#utility.yul\":1636:1641   */\n      dup3\n        /* \"#utility.yul\":1605:1642   */\n      tag_140\n      jump\t// in\n    tag_202:\n        /* \"#utility.yul\":1592:1642   */\n      swap1\n      pop\n        /* \"#utility.yul\":1503:1648   */\n      swap2\n      swap1\n      pop\n      jump\t// out\n        /* \"#utility.yul\":1654:1823   */\n    tag_142:\n        /* \"#utility.yul\":1760:1816   */\n      tag_204\n        /* \"#utility.yul\":1810:1815   */\n      dup2\n        /* \"#utility.yul\":1760:1816   */\n      tag_141\n      jump\t// in\n    tag_204:\n        /* \"#utility.yul\":1755:1758   */\n      dup3\n        /* \"#utility.yul\":1748:1817   */\n      mstore\n        /* \"#utility.yul\":1654:1823   */\n      pop\n      pop\n      jump\t// out\n        /* \"#utility.yul\":1829:2089   */\n    tag_21:\n        /* \"#utility.yul\":1941:1945   */\n      0x00\n        /* \"#utility.yul\":1979:1981   */\n      0x20\n        /* \"#utility.yul\":1968:1977   */\n      dup3\n        /* \"#utility.yul\":1964:1982   */\n      add\n        /* \"#utility.yul\":1956:1982   */\n      swap1\n      pop\n        /* \"#utility.yul\":1992:2082   */\n      tag_206\n        /* \"#utility.yul\":2079:2080   */\n      0x00\n        /* \"#utility.yul\":2068:2077   */\n      dup4\n        /* \"#utility.yul\":2064:2081   */\n      add\n        /* \"#utility.yul\":2055:2061   */\n      dup5\n        /* \"#utility.yul\":1992:2082   */\n      tag_142\n      jump\t// in\n    tag_206:\n        /* \"#utility.yul\":1829:2089   */\n      swap3\n      swap2\n      pop\n      pop\n      jump\t// out\n        /* \"#utility.yul\":2095:2235   */\n    tag_143:\n        /* \"#utility.yul\":2188:2194   */\n      0x00\n        /* \"#utility.yul\":2222:2227   */\n      dup2\n        /* \"#utility.yul\":2216:2228   */\n      mload\n        /* \"#utility.yul\":2206:2228   */\n      swap1\n      pop\n        /* \"#utility.yul\":2095:2235   */\n      swap2\n      swap1\n      pop\n      jump\t// out\n        /* \"#utility.yul\":2241:2451   */\n    tag_144:\n        /* \"#utility.yul\":2366:2377   */\n      0x00\n        /* \"#utility.yul\":2400:2406   */\n      dup3\n        /* \"#utility.yul\":2395:2398   */\n      dup3\n        /* \"#utility.yul\":2388:2407   */\n      mstore\n        /* \"#utility.yul\":2440:2444   */\n      0x20\n        /* \"#utility.yul\":2435:2438   */\n      dup3\n        /* \"#utility.yul\":2431:2445   */\n      add\n        /* \"#utility.yul\":2416:2445   */\n      swap1\n      pop\n        /* \"#utility.yul\":2241:2451   */\n      swap3\n      swap2\n      pop\n      pop\n      jump\t// out\n        /* \"#utility.yul\":2457:2615   */\n    tag_145:\n        /* \"#utility.yul\":2550:2554   */\n      0x00\n        /* \"#utility.yul\":2573:2576   */\n      dup2\n        /* \"#utility.yul\":2565:2576   */\n      swap1\n      pop\n        /* \"#utility.yul\":2603:2607   */\n      0x20\n        /* \"#utility.yul\":2598:2601   */\n      dup3\n        /* \"#utility.yul\":2594:2608   */\n      add\n        /* \"#utility.yul\":2586:2608   */\n      swap1\n      pop\n        /* \"#utility.yul\":2457:2615   */\n      swap2\n      swap1\n      pop\n      jump\t// out\n        /* \"#utility.yul\":2621:2729   */\n    tag_146:\n        /* \"#utility.yul\":2698:2722   */\n      tag_211\n        /* \"#utility.yul\":2716:2721   */\n      dup2\n        /* \"#utility.yul\":2698:2722   */\n      tag_134\n      jump\t// in\n    tag_211:\n        /* \"#utility.yul\":2693:2696   */\n      dup3\n        /* \"#utility.yul\":2686:2723   */\n      mstore\n        /* \"#utility.yul\":2621:2729   */\n      pop\n      pop\n      jump\t// out\n        /* \"#utility.yul\":2735:2824   */\n    tag_147:\n        /* \"#utility.yul\":2771:2778   */\n      0x00\n        /* \"#utility.yul\":2811:2817   */\n      0xffff\n        /* \"#utility.yul\":2804:2809   */\n      dup3\n        /* \"#utility.yul\":2800:2818   */\n      and\n        /* \"#utility.yul\":2789:2818   */\n      swap1\n      pop\n        /* \"#utility.yul\":2735:2824   */\n      swap2\n      swap1\n      pop\n      jump\t// out\n        /* \"#utility.yul\":2830:2935   */\n    tag_148:\n        /* \"#utility.yul\":2905:2928   */\n      tag_214\n        /* \"#utility.yul\":2922:2927   */\n      dup2\n        /* \"#utility.yul\":2905:2928   */\n      tag_147\n      jump\t// in\n    tag_214:\n        /* \"#utility.yul\":2900:2903   */\n      dup3\n        /* \"#utility.yul\":2893:2929   */\n      mstore\n        /* \"#utility.yul\":2830:2935   */\n      pop\n      pop\n      jump\t// out\n        /* \"#utility.yul\":3019:3530   */\n    tag_149:\n        /* \"#utility.yul\":3158:3162   */\n      0x40\n        /* \"#utility.yul\":3153:3156   */\n      dup3\n        /* \"#utility.yul\":3149:3163   */\n      add\n        /* \"#utility.yul\":3254:3258   */\n      0x00\n        /* \"#utility.yul\":3247:3252   */\n      dup3\n        /* \"#utility.yul\":3243:3259   */\n      add\n        /* \"#utility.yul\":3237:3260   */\n      mload\n        /* \"#utility.yul\":3273:3336   */\n      tag_216\n        /* \"#utility.yul\":3330:3334   */\n      0x00\n        /* \"#utility.yul\":3325:3328   */\n      dup6\n        /* \"#utility.yul\":3321:3335   */\n      add\n        /* \"#utility.yul\":3307:3319   */\n      dup3\n        /* \"#utility.yul\":3273:3336   */\n      tag_146\n      jump\t// in\n    tag_216:\n        /* \"#utility.yul\":3173:3346   */\n      pop\n        /* \"#utility.yul\":3433:3437   */\n      0x20\n        /* \"#utility.yul\":3426:3431   */\n      dup3\n        /* \"#utility.yul\":3422:3438   */\n      add\n        /* \"#utility.yul\":3416:3439   */\n      mload\n        /* \"#utility.yul\":3452:3513   */\n      tag_217\n        /* \"#utility.yul\":3507:3511   */\n      0x20\n        /* \"#utility.yul\":3502:3505   */\n      dup6\n        /* \"#utility.yul\":3498:3512   */\n      add\n        /* \"#utility.yul\":3484:3496   */\n      dup3\n        /* \"#utility.yul\":3452:3513   */\n      tag_148\n      jump\t// in\n    tag_217:\n        /* \"#utility.yul\":3356:3523   */\n      pop\n        /* \"#utility.yul\":3127:3530   */\n      pop\n        /* \"#utility.yul\":3019:3530   */\n      pop\n      pop\n      jump\t// out\n        /* \"#utility.yul\":3536:3819   */\n    tag_150:\n        /* \"#utility.yul\":3657:3667   */\n      0x00\n        /* \"#utility.yul\":3678:3776   */\n      tag_219\n        /* \"#utility.yul\":3772:3775   */\n      dup4\n        /* \"#utility.yul\":3764:3770   */\n      dup4\n        /* \"#utility.yul\":3678:3776   */\n      tag_149\n      jump\t// in\n    tag_219:\n        /* \"#utility.yul\":3808:3812   */\n      0x40\n        /* \"#utility.yul\":3803:3806   */\n      dup4\n        /* \"#utility.yul\":3799:3813   */\n      add\n        /* \"#utility.yul\":3785:3813   */\n      swap1\n      pop\n        /* \"#utility.yul\":3536:3819   */\n      swap3\n      swap2\n      pop\n      pop\n      jump\t// out\n        /* \"#utility.yul\":3825:3964   */\n    tag_151:\n        /* \"#utility.yul\":3921:3925   */\n      0x00\n        /* \"#utility.yul\":3953:3957   */\n      0x20\n        /* \"#utility.yul\":3948:3951   */\n      dup3\n        /* \"#utility.yul\":3944:3958   */\n      add\n        /* \"#utility.yul\":3936:3958   */\n      swap1\n      pop\n        /* \"#utility.yul\":3825:3964   */\n      swap2\n      swap1\n      pop\n      jump\t// out\n        /* \"#utility.yul\":4052:4992   */\n    tag_152:\n        /* \"#utility.yul\":4223:4226   */\n      0x00\n        /* \"#utility.yul\":4252:4332   */\n      tag_222\n        /* \"#utility.yul\":4326:4331   */\n      dup3\n        /* \"#utility.yul\":4252:4332   */\n      tag_143\n      jump\t// in\n    tag_222:\n        /* \"#utility.yul\":4348:4460   */\n      tag_223\n        /* \"#utility.yul\":4453:4459   */\n      dup2\n        /* \"#utility.yul\":4448:4451   */\n      dup6\n        /* \"#utility.yul\":4348:4460   */\n      tag_144\n      jump\t// in\n    tag_223:\n        /* \"#utility.yul\":4341:4460   */\n      swap4\n      pop\n        /* \"#utility.yul\":4484:4566   */\n      tag_224\n        /* \"#utility.yul\":4560:4565   */\n      dup4\n        /* \"#utility.yul\":4484:4566   */\n      tag_145\n      jump\t// in\n    tag_224:\n        /* \"#utility.yul\":4589:4596   */\n      dup1\n        /* \"#utility.yul\":4620:4621   */\n      0x00\n        /* \"#utility.yul\":4605:4967   */\n    tag_225:\n        /* \"#utility.yul\":4630:4636   */\n      dup4\n        /* \"#utility.yul\":4627:4628   */\n      dup2\n        /* \"#utility.yul\":4624:4637   */\n      lt\n        /* \"#utility.yul\":4605:4967   */\n      iszero\n      tag_227\n      jumpi\n        /* \"#utility.yul\":4706:4712   */\n      dup2\n        /* \"#utility.yul\":4700:4713   */\n      mload\n        /* \"#utility.yul\":4733:4848   */\n      tag_228\n        /* \"#utility.yul\":4844:4847   */\n      dup9\n        /* \"#utility.yul\":4829:4842   */\n      dup3\n        /* \"#utility.yul\":4733:4848   */\n      tag_150\n      jump\t// in\n    tag_228:\n        /* \"#utility.yul\":4726:4848   */\n      swap8\n      pop\n        /* \"#utility.yul\":4871:4957   */\n      tag_229\n        /* \"#utility.yul\":4950:4956   */\n      dup4\n        /* \"#utility.yul\":4871:4957   */\n      tag_151\n      jump\t// in\n    tag_229:\n        /* \"#utility.yul\":4861:4957   */\n      swap3\n      pop\n        /* \"#utility.yul\":4665:4967   */\n      pop\n        /* \"#utility.yul\":4652:4653   */\n      0x01\n        /* \"#utility.yul\":4649:4650   */\n      dup2\n        /* \"#utility.yul\":4645:4654   */\n      add\n        /* \"#utility.yul\":4640:4654   */\n      swap1\n      pop\n        /* \"#utility.yul\":4605:4967   */\n      jump(tag_225)\n    tag_227:\n        /* \"#utility.yul\":4609:4623   */\n      pop\n        /* \"#utility.yul\":4983:4986   */\n      dup6\n        /* \"#utility.yul\":4976:4986   */\n      swap4\n      pop\n        /* \"#utility.yul\":4228:4992   */\n      pop\n      pop\n      pop\n        /* \"#utility.yul\":4052:4992   */\n      swap3\n      swap2\n      pop\n      pop\n      jump\t// out\n        /* \"#utility.yul\":4998:5475   */\n    tag_26:\n        /* \"#utility.yul\":5193:5197   */\n      0x00\n        /* \"#utility.yul\":5231:5233   */\n      0x20\n        /* \"#utility.yul\":5220:5229   */\n      dup3\n        /* \"#utility.yul\":5216:5234   */\n      add\n        /* \"#utility.yul\":5208:5234   */\n      swap1\n      pop\n        /* \"#utility.yul\":5280:5289   */\n      dup2\n        /* \"#utility.yul\":5274:5278   */\n      dup2\n        /* \"#utility.yul\":5270:5290   */\n      sub\n        /* \"#utility.yul\":5266:5267   */\n      0x00\n        /* \"#utility.yul\":5255:5264   */\n      dup4\n        /* \"#utility.yul\":5251:5268   */\n      add\n        /* \"#utility.yul\":5244:5291   */\n      mstore\n        /* \"#utility.yul\":5308:5468   */\n      tag_231\n        /* \"#utility.yul\":5463:5467   */\n      dup2\n        /* \"#utility.yul\":5454:5460   */\n      dup5\n        /* \"#utility.yul\":5308:5468   */\n      tag_152\n      jump\t// in\n    tag_231:\n        /* \"#utility.yul\":5300:5468   */\n      swap1\n      pop\n        /* \"#utility.yul\":4998:5475   */\n      swap3\n      swap2\n      pop\n      pop\n      jump\t// out\n        /* \"#utility.yul\":5481:5635   */\n    tag_153:\n        /* \"#utility.yul\":5559:5568   */\n      0x00\n        /* \"#utility.yul\":5592:5629   */\n      tag_233\n        /* \"#utility.yul\":5623:5628   */\n      dup3\n        /* \"#utility.yul\":5592:5629   */\n      tag_140\n      jump\t// in\n    tag_233:\n        /* \"#utility.yul\":5579:5629   */\n      swap1\n      pop\n        /* \"#utility.yul\":5481:5635   */\n      swap2\n      swap1\n      pop\n      jump\t// out\n        /* \"#utility.yul\":5641:5828   */\n    tag_154:\n        /* \"#utility.yul\":5756:5821   */\n      tag_235\n        /* \"#utility.yul\":5815:5820   */\n      dup2\n        /* \"#utility.yul\":5756:5821   */\n      tag_153\n      jump\t// in\n    tag_235:\n        /* \"#utility.yul\":5751:5754   */\n      dup3\n        /* \"#utility.yul\":5744:5822   */\n      mstore\n        /* \"#utility.yul\":5641:5828   */\n      pop\n      pop\n      jump\t// out\n        /* \"#utility.yul\":5834:6112   */\n    tag_30:\n        /* \"#utility.yul\":5955:5959   */\n      0x00\n        /* \"#utility.yul\":5993:5995   */\n      0x20\n        /* \"#utility.yul\":5982:5991   */\n      dup3\n        /* \"#utility.yul\":5978:5996   */\n      add\n        /* \"#utility.yul\":5970:5996   */\n      swap1\n      pop\n        /* \"#utility.yul\":6006:6105   */\n      tag_237\n        /* \"#utility.yul\":6102:6103   */\n      0x00\n        /* \"#utility.yul\":6091:6100   */\n      dup4\n        /* \"#utility.yul\":6087:6104   */\n      add\n        /* \"#utility.yul\":6078:6084   */\n      dup5\n        /* \"#utility.yul\":6006:6105   */\n      tag_154\n      jump\t// in\n    tag_237:\n        /* \"#utility.yul\":5834:6112   */\n      swap3\n      swap2\n      pop\n      pop\n      jump\t// out\n        /* \"#utility.yul\":6118:6208   */\n    tag_155:\n        /* \"#utility.yul\":6152:6159   */\n      0x00\n        /* \"#utility.yul\":6195:6200   */\n      dup2\n        /* \"#utility.yul\":6188:6201   */\n      iszero\n        /* \"#utility.yul\":6181:6202   */\n      iszero\n        /* \"#utility.yul\":6170:6202   */\n      swap1\n      pop\n        /* \"#utility.yul\":6118:6208   */\n      swap2\n      swap1\n      pop\n      jump\t// out\n        /* \"#utility.yul\":6214:6323   */\n    tag_156:\n        /* \"#utility.yul\":6295:6316   */\n      tag_240\n        /* \"#utility.yul\":6310:6315   */\n      dup2\n        /* \"#utility.yul\":6295:6316   */\n      tag_155\n      jump\t// in\n    tag_240:\n        /* \"#utility.yul\":6290:6293   */\n      dup3\n        /* \"#utility.yul\":6283:6317   */\n      mstore\n        /* \"#utility.yul\":6214:6323   */\n      pop\n      pop\n      jump\t// out\n        /* \"#utility.yul\":6329:6539   */\n    tag_35:\n        /* \"#utility.yul\":6416:6420   */\n      0x00\n        /* \"#utility.yul\":6454:6456   */\n      0x20\n        /* \"#utility.yul\":6443:6452   */\n      dup3\n        /* \"#utility.yul\":6439:6457   */\n      add\n        /* \"#utility.yul\":6431:6457   */\n      swap1\n      pop\n        /* \"#utility.yul\":6467:6532   */\n      tag_242\n        /* \"#utility.yul\":6529:6530   */\n      0x00\n        /* \"#utility.yul\":6518:6527   */\n      dup4\n        /* \"#utility.yul\":6514:6531   */\n      add\n        /* \"#utility.yul\":6505:6511   */\n      dup5\n        /* \"#utility.yul\":6467:6532   */\n      tag_156\n      jump\t// in\n    tag_242:\n        /* \"#utility.yul\":6329:6539   */\n      swap3\n      swap2\n      pop\n      pop\n      jump\t// out\n        /* \"#utility.yul\":6545:6689   */\n    tag_157:\n        /* \"#utility.yul\":6642:6648   */\n      0x00\n        /* \"#utility.yul\":6676:6681   */\n      dup2\n        /* \"#utility.yul\":6670:6682   */\n      mload\n        /* \"#utility.yul\":6660:6682   */\n      swap1\n      pop\n        /* \"#utility.yul\":6545:6689   */\n      swap2\n      swap1\n      pop\n      jump\t// out\n        /* \"#utility.yul\":6695:6909   */\n    tag_158:\n        /* \"#utility.yul\":6824:6835   */\n      0x00\n        /* \"#utility.yul\":6858:6864   */\n      dup3\n        /* \"#utility.yul\":6853:6856   */\n      dup3\n        /* \"#utility.yul\":6846:6865   */\n      mstore\n        /* \"#utility.yul\":6898:6902   */\n      0x20\n        /* \"#utility.yul\":6893:6896   */\n      dup3\n        /* \"#utility.yul\":6889:6903   */\n      add\n        /* \"#utility.yul\":6874:6903   */\n      swap1\n      pop\n        /* \"#utility.yul\":6695:6909   */\n      swap3\n      swap2\n      pop\n      pop\n      jump\t// out\n        /* \"#utility.yul\":6915:7077   */\n    tag_159:\n        /* \"#utility.yul\":7012:7016   */\n      0x00\n        /* \"#utility.yul\":7035:7038   */\n      dup2\n        /* \"#utility.yul\":7027:7038   */\n      swap1\n      pop\n        /* \"#utility.yul\":7065:7069   */\n      0x20\n        /* \"#utility.yul\":7060:7063   */\n      dup3\n        /* \"#utility.yul\":7056:7070   */\n      add\n        /* \"#utility.yul\":7048:7070   */\n      swap1\n      pop\n        /* \"#utility.yul\":6915:7077   */\n      swap2\n      swap1\n      pop\n      jump\t// out\n        /* \"#utility.yul\":7083:7179   */\n    tag_160:\n        /* \"#utility.yul\":7120:7127   */\n      0x00\n        /* \"#utility.yul\":7149:7173   */\n      tag_247\n        /* \"#utility.yul\":7167:7172   */\n      dup3\n        /* \"#utility.yul\":7149:7173   */\n      tag_137\n      jump\t// in\n    tag_247:\n        /* \"#utility.yul\":7138:7173   */\n      swap1\n      pop\n        /* \"#utility.yul\":7083:7179   */\n      swap2\n      swap1\n      pop\n      jump\t// out\n        /* \"#utility.yul\":7185:7293   */\n    tag_161:\n        /* \"#utility.yul\":7262:7286   */\n      tag_249\n        /* \"#utility.yul\":7280:7285   */\n      dup2\n        /* \"#utility.yul\":7262:7286   */\n      tag_160\n      jump\t// in\n    tag_249:\n        /* \"#utility.yul\":7257:7260   */\n      dup3\n        /* \"#utility.yul\":7250:7287   */\n      mstore\n        /* \"#utility.yul\":7185:7293   */\n      pop\n      pop\n      jump\t// out\n        /* \"#utility.yul\":7387:7904   */\n    tag_162:\n        /* \"#utility.yul\":7534:7538   */\n      0x40\n        /* \"#utility.yul\":7529:7532   */\n      dup3\n        /* \"#utility.yul\":7525:7539   */\n      add\n        /* \"#utility.yul\":7628:7632   */\n      0x00\n        /* \"#utility.yul\":7621:7626   */\n      dup3\n        /* \"#utility.yul\":7617:7633   */\n      add\n        /* \"#utility.yul\":7611:7634   */\n      mload\n        /* \"#utility.yul\":7647:7710   */\n      tag_251\n        /* \"#utility.yul\":7704:7708   */\n      0x00\n        /* \"#utility.yul\":7699:7702   */\n      dup6\n        /* \"#utility.yul\":7695:7709   */\n      add\n        /* \"#utility.yul\":7681:7693   */\n      dup3\n        /* \"#utility.yul\":7647:7710   */\n      tag_161\n      jump\t// in\n    tag_251:\n        /* \"#utility.yul\":7549:7720   */\n      pop\n        /* \"#utility.yul\":7807:7811   */\n      0x20\n        /* \"#utility.yul\":7800:7805   */\n      dup3\n        /* \"#utility.yul\":7796:7812   */\n      add\n        /* \"#utility.yul\":7790:7813   */\n      mload\n        /* \"#utility.yul\":7826:7887   */\n      tag_252\n        /* \"#utility.yul\":7881:7885   */\n      0x20\n        /* \"#utility.yul\":7876:7879   */\n      dup6\n        /* \"#utility.yul\":7872:7886   */\n      add\n        /* \"#utility.yul\":7858:7870   */\n      dup3\n        /* \"#utility.yul\":7826:7887   */\n      tag_148\n      jump\t// in\n    tag_252:\n        /* \"#utility.yul\":7730:7897   */\n      pop\n        /* \"#utility.yul\":7503:7904   */\n      pop\n        /* \"#utility.yul\":7387:7904   */\n      pop\n      pop\n      jump\t// out\n        /* \"#utility.yul\":7910:8209   */\n    tag_163:\n        /* \"#utility.yul\":8039:8049   */\n      0x00\n        /* \"#utility.yul\":8060:8166   */\n      tag_254\n        /* \"#utility.yul\":8162:8165   */\n      dup4\n        /* \"#utility.yul\":8154:8160   */\n      dup4\n        /* \"#utility.yul\":8060:8166   */\n      tag_162\n      jump\t// in\n    tag_254:\n        /* \"#utility.yul\":8198:8202   */\n      0x40\n        /* \"#utility.yul\":8193:8196   */\n      dup4\n        /* \"#utility.yul\":8189:8203   */\n      add\n        /* \"#utility.yul\":8175:8203   */\n      swap1\n      pop\n        /* \"#utility.yul\":7910:8209   */\n      swap3\n      swap2\n      pop\n      pop\n      jump\t// out\n        /* \"#utility.yul\":8215:8358   */\n    tag_164:\n        /* \"#utility.yul\":8315:8319   */\n      0x00\n        /* \"#utility.yul\":8347:8351   */\n      0x20\n        /* \"#utility.yul\":8342:8345   */\n      dup3\n        /* \"#utility.yul\":8338:8352   */\n      add\n        /* \"#utility.yul\":8330:8352   */\n      swap1\n      pop\n        /* \"#utility.yul\":8215:8358   */\n      swap2\n      swap1\n      pop\n      jump\t// out\n        /* \"#utility.yul\":8456:9428   */\n    tag_165:\n        /* \"#utility.yul\":8635:8638   */\n      0x00\n        /* \"#utility.yul\":8664:8748   */\n      tag_257\n        /* \"#utility.yul\":8742:8747   */\n      dup3\n        /* \"#utility.yul\":8664:8748   */\n      tag_157\n      jump\t// in\n    tag_257:\n        /* \"#utility.yul\":8764:8880   */\n      tag_258\n        /* \"#utility.yul\":8873:8879   */\n      dup2\n        /* \"#utility.yul\":8868:8871   */\n      dup6\n        /* \"#utility.yul\":8764:8880   */\n      tag_158\n      jump\t// in\n    tag_258:\n        /* \"#utility.yul\":8757:8880   */\n      swap4\n      pop\n        /* \"#utility.yul\":8904:8990   */\n      tag_259\n        /* \"#utility.yul\":8984:8989   */\n      dup4\n        /* \"#utility.yul\":8904:8990   */\n      tag_159\n      jump\t// in\n    tag_259:\n        /* \"#utility.yul\":9013:9020   */\n      dup1\n        /* \"#utility.yul\":9044:9045   */\n      0x00\n        /* \"#utility.yul\":9029:9403   */\n    tag_260:\n        /* \"#utility.yul\":9054:9060   */\n      dup4\n        /* \"#utility.yul\":9051:9052   */\n      dup2\n        /* \"#utility.yul\":9048:9061   */\n      lt\n        /* \"#utility.yul\":9029:9403   */\n      iszero\n      tag_262\n      jumpi\n        /* \"#utility.yul\":9130:9136   */\n      dup2\n        /* \"#utility.yul\":9124:9137   */\n      mload\n        /* \"#utility.yul\":9157:9280   */\n      tag_263\n        /* \"#utility.yul\":9276:9279   */\n      dup9\n        /* \"#utility.yul\":9261:9274   */\n      dup3\n        /* \"#utility.yul\":9157:9280   */\n      tag_163\n      jump\t// in\n    tag_263:\n        /* \"#utility.yul\":9150:9280   */\n      swap8\n      pop\n        /* \"#utility.yul\":9303:9393   */\n      tag_264\n        /* \"#utility.yul\":9386:9392   */\n      dup4\n        /* \"#utility.yul\":9303:9393   */\n      tag_164\n      jump\t// in\n    tag_264:\n        /* \"#utility.yul\":9293:9393   */\n      swap3\n      pop\n        /* \"#utility.yul\":9089:9403   */\n      pop\n        /* \"#utility.yul\":9076:9077   */\n      0x01\n        /* \"#utility.yul\":9073:9074   */\n      dup2\n        /* \"#utility.yul\":9069:9078   */\n      add\n        /* \"#utility.yul\":9064:9078   */\n      swap1\n      pop\n        /* \"#utility.yul\":9029:9403   */\n      jump(tag_260)\n    tag_262:\n        /* \"#utility.yul\":9033:9047   */\n      pop\n        /* \"#utility.yul\":9419:9422   */\n      dup6\n        /* \"#utility.yul\":9412:9422   */\n      swap4\n      pop\n        /* \"#utility.yul\":8640:9428   */\n      pop\n      pop\n      pop\n        /* \"#utility.yul\":8456:9428   */\n      swap3\n      swap2\n      pop\n      pop\n      jump\t// out\n        /* \"#utility.yul\":9434:9927   */\n    tag_40:\n        /* \"#utility.yul\":9637:9641   */\n      0x00\n        /* \"#utility.yul\":9675:9677   */\n      0x20\n        /* \"#utility.yul\":9664:9673   */\n      dup3\n        /* \"#utility.yul\":9660:9678   */\n      add\n        /* \"#utility.yul\":9652:9678   */\n      swap1\n      pop\n        /* \"#utility.yul\":9724:9733   */\n      dup2\n        /* \"#utility.yul\":9718:9722   */\n      dup2\n        /* \"#utility.yul\":9714:9734   */\n      sub\n        /* \"#utility.yul\":9710:9711   */\n      0x00\n        /* \"#utility.yul\":9699:9708   */\n      dup4\n        /* \"#utility.yul\":9695:9712   */\n      add\n        /* \"#utility.yul\":9688:9735   */\n      mstore\n        /* \"#utility.yul\":9752:9920   */\n      tag_266\n        /* \"#utility.yul\":9915:9919   */\n      dup2\n        /* \"#utility.yul\":9906:9912   */\n      dup5\n        /* \"#utility.yul\":9752:9920   */\n      tag_165\n      jump\t// in\n    tag_266:\n        /* \"#utility.yul\":9744:9920   */\n      swap1\n      pop\n        /* \"#utility.yul\":9434:9927   */\n      swap3\n      swap2\n      pop\n      pop\n      jump\t// out\n        /* \"#utility.yul\":9933:10048   */\n    tag_166:\n        /* \"#utility.yul\":10018:10041   */\n      tag_268\n        /* \"#utility.yul\":10035:10040   */\n      dup2\n        /* \"#utility.yul\":10018:10041   */\n      tag_147\n      jump\t// in\n    tag_268:\n        /* \"#utility.yul\":10013:10016   */\n      dup3\n        /* \"#utility.yul\":10006:10042   */\n      mstore\n        /* \"#utility.yul\":9933:10048   */\n      pop\n      pop\n      jump\t// out\n        /* \"#utility.yul\":10054:10272   */\n    tag_45:\n        /* \"#utility.yul\":10145:10149   */\n      0x00\n        /* \"#utility.yul\":10183:10185   */\n      0x20\n        /* \"#utility.yul\":10172:10181   */\n      dup3\n        /* \"#utility.yul\":10168:10186   */\n      add\n        /* \"#utility.yul\":10160:10186   */\n      swap1\n      pop\n        /* \"#utility.yul\":10196:10265   */\n      tag_270\n        /* \"#utility.yul\":10262:10263   */\n      0x00\n        /* \"#utility.yul\":10251:10260   */\n      dup4\n        /* \"#utility.yul\":10247:10264   */\n      add\n        /* \"#utility.yul\":10238:10244   */\n      dup5\n        /* \"#utility.yul\":10196:10265   */\n      tag_166\n      jump\t// in\n    tag_270:\n        /* \"#utility.yul\":10054:10272   */\n      swap3\n      swap2\n      pop\n      pop\n      jump\t// out\n        /* \"#utility.yul\":10278:10400   */\n    tag_167:\n        /* \"#utility.yul\":10351:10375   */\n      tag_272\n        /* \"#utility.yul\":10369:10374   */\n      dup2\n        /* \"#utility.yul\":10351:10375   */\n      tag_160\n      jump\t// in\n    tag_272:\n        /* \"#utility.yul\":10344:10349   */\n      dup2\n        /* \"#utility.yul\":10341:10376   */\n      eq\n        /* \"#utility.yul\":10331:10394   */\n      tag_273\n      jumpi\n        /* \"#utility.yul\":10390:10391   */\n      0x00\n        /* \"#utility.yul\":10387:10388   */\n      dup1\n        /* \"#utility.yul\":10380:10392   */\n      revert\n        /* \"#utility.yul\":10331:10394   */\n    tag_273:\n        /* \"#utility.yul\":10278:10400   */\n      pop\n      jump\t// out\n        /* \"#utility.yul\":10406:10545   */\n    tag_168:\n        /* \"#utility.yul\":10452:10457   */\n      0x00\n        /* \"#utility.yul\":10490:10496   */\n      dup2\n        /* \"#utility.yul\":10477:10497   */\n      calldataload\n        /* \"#utility.yul\":10468:10497   */\n      swap1\n      pop\n        /* \"#utility.yul\":10506:10539   */\n      tag_275\n        /* \"#utility.yul\":10533:10538   */\n      dup2\n        /* \"#utility.yul\":10506:10539   */\n      tag_167\n      jump\t// in\n    tag_275:\n        /* \"#utility.yul\":10406:10545   */\n      swap3\n      swap2\n      pop\n      pop\n      jump\t// out\n        /* \"#utility.yul\":10551:10671   */\n    tag_169:\n        /* \"#utility.yul\":10623:10646   */\n      tag_277\n        /* \"#utility.yul\":10640:10645   */\n      dup2\n        /* \"#utility.yul\":10623:10646   */\n      tag_147\n      jump\t// in\n    tag_277:\n        /* \"#utility.yul\":10616:10621   */\n      dup2\n        /* \"#utility.yul\":10613:10647   */\n      eq\n        /* \"#utility.yul\":10603:10665   */\n      tag_278\n      jumpi\n        /* \"#utility.yul\":10661:10662   */\n      0x00\n        /* \"#utility.yul\":10658:10659   */\n      dup1\n        /* \"#utility.yul\":10651:10663   */\n      revert\n        /* \"#utility.yul\":10603:10665   */\n    tag_278:\n        /* \"#utility.yul\":10551:10671   */\n      pop\n      jump\t// out\n        /* \"#utility.yul\":10677:10814   */\n    tag_170:\n        /* \"#utility.yul\":10722:10727   */\n      0x00\n        /* \"#utility.yul\":10760:10766   */\n      dup2\n        /* \"#utility.yul\":10747:10767   */\n      calldataload\n        /* \"#utility.yul\":10738:10767   */\n      swap1\n      pop\n        /* \"#utility.yul\":10776:10808   */\n      tag_280\n        /* \"#utility.yul\":10802:10807   */\n      dup2\n        /* \"#utility.yul\":10776:10808   */\n      tag_169\n      jump\t// in\n    tag_280:\n        /* \"#utility.yul\":10677:10814   */\n      swap3\n      swap2\n      pop\n      pop\n      jump\t// out\n        /* \"#utility.yul\":10820:11437   */\n    tag_48:\n        /* \"#utility.yul\":10896:10902   */\n      0x00\n        /* \"#utility.yul\":10904:10910   */\n      dup1\n        /* \"#utility.yul\":10912:10918   */\n      0x00\n        /* \"#utility.yul\":10961:10963   */\n      0x60\n        /* \"#utility.yul\":10949:10958   */\n      dup5\n        /* \"#utility.yul\":10940:10947   */\n      dup7\n        /* \"#utility.yul\":10936:10959   */\n      sub\n        /* \"#utility.yul\":10932:10964   */\n      slt\n        /* \"#utility.yul\":10929:11048   */\n      iszero\n      tag_282\n      jumpi\n        /* \"#utility.yul\":10967:11046   */\n      tag_283\n      tag_132\n      jump\t// in\n    tag_283:\n        /* \"#utility.yul\":10929:11048   */\n    tag_282:\n        /* \"#utility.yul\":11087:11088   */\n      0x00\n        /* \"#utility.yul\":11112:11165   */\n      tag_284\n        /* \"#utility.yul\":11157:11164   */\n      dup7\n        /* \"#utility.yul\":11148:11154   */\n      dup3\n        /* \"#utility.yul\":11137:11146   */\n      dup8\n        /* \"#utility.yul\":11133:11155   */\n      add\n        /* \"#utility.yul\":11112:11165   */\n      tag_136\n      jump\t// in\n    tag_284:\n        /* \"#utility.yul\":11102:11165   */\n      swap4\n      pop\n        /* \"#utility.yul\":11058:11175   */\n      pop\n        /* \"#utility.yul\":11214:11216   */\n      0x20\n        /* \"#utility.yul\":11240:11293   */\n      tag_285\n        /* \"#utility.yul\":11285:11292   */\n      dup7\n        /* \"#utility.yul\":11276:11282   */\n      dup3\n        /* \"#utility.yul\":11265:11274   */\n      dup8\n        /* \"#utility.yul\":11261:11283   */\n      add\n        /* \"#utility.yul\":11240:11293   */\n      tag_168\n      jump\t// in\n    tag_285:\n        /* \"#utility.yul\":11230:11293   */\n      swap3\n      pop\n        /* \"#utility.yul\":11185:11303   */\n      pop\n        /* \"#utility.yul\":11342:11344   */\n      0x40\n        /* \"#utility.yul\":11368:11420   */\n      tag_286\n        /* \"#utility.yul\":11412:11419   */\n      dup7\n        /* \"#utility.yul\":11403:11409   */\n      dup3\n        /* \"#utility.yul\":11392:11401   */\n      dup8\n        /* \"#utility.yul\":11388:11410   */\n      add\n        /* \"#utility.yul\":11368:11420   */\n      tag_170\n      jump\t// in\n    tag_286:\n        /* \"#utility.yul\":11358:11420   */\n      swap2\n      pop\n        /* \"#utility.yul\":11313:11430   */\n      pop\n        /* \"#utility.yul\":10820:11437   */\n      swap3\n      pop\n      swap3\n      pop\n      swap3\n      jump\t// out\n        /* \"#utility.yul\":11443:12060   */\n    tag_52:\n        /* \"#utility.yul\":11519:11525   */\n      0x00\n        /* \"#utility.yul\":11527:11533   */\n      dup1\n        /* \"#utility.yul\":11535:11541   */\n      0x00\n        /* \"#utility.yul\":11584:11586   */\n      0x60\n        /* \"#utility.yul\":11572:11581   */\n      dup5\n        /* \"#utility.yul\":11563:11570   */\n      dup7\n        /* \"#utility.yul\":11559:11582   */\n      sub\n        /* \"#utility.yul\":11555:11587   */\n      slt\n        /* \"#utility.yul\":11552:11671   */\n      iszero\n      tag_288\n      jumpi\n        /* \"#utility.yul\":11590:11669   */\n      tag_289\n      tag_132\n      jump\t// in\n    tag_289:\n        /* \"#utility.yul\":11552:11671   */\n    tag_288:\n        /* \"#utility.yul\":11710:11711   */\n      0x00\n        /* \"#utility.yul\":11735:11788   */\n      tag_290\n        /* \"#utility.yul\":11780:11787   */\n      dup7\n        /* \"#utility.yul\":11771:11777   */\n      dup3\n        /* \"#utility.yul\":11760:11769   */\n      dup8\n        /* \"#utility.yul\":11756:11778   */\n      add\n        /* \"#utility.yul\":11735:11788   */\n      tag_136\n      jump\t// in\n    tag_290:\n        /* \"#utility.yul\":11725:11788   */\n      swap4\n      pop\n        /* \"#utility.yul\":11681:11798   */\n      pop\n        /* \"#utility.yul\":11837:11839   */\n      0x20\n        /* \"#utility.yul\":11863:11916   */\n      tag_291\n        /* \"#utility.yul\":11908:11915   */\n      dup7\n        /* \"#utility.yul\":11899:11905   */\n      dup3\n        /* \"#utility.yul\":11888:11897   */\n      dup8\n        /* \"#utility.yul\":11884:11906   */\n      add\n        /* \"#utility.yul\":11863:11916   */\n      tag_136\n      jump\t// in\n    tag_291:\n        /* \"#utility.yul\":11853:11916   */\n      swap3\n      pop\n        /* \"#utility.yul\":11808:11926   */\n      pop\n        /* \"#utility.yul\":11965:11967   */\n      0x40\n        /* \"#utility.yul\":11991:12043   */\n      tag_292\n        /* \"#utility.yul\":12035:12042   */\n      dup7\n        /* \"#utility.yul\":12026:12032   */\n      dup3\n        /* \"#utility.yul\":12015:12024   */\n      dup8\n        /* \"#utility.yul\":12011:12033   */\n      add\n        /* \"#utility.yul\":11991:12043   */\n      tag_170\n      jump\t// in\n    tag_292:\n        /* \"#utility.yul\":11981:12043   */\n      swap2\n      pop\n        /* \"#utility.yul\":11936:12053   */\n      pop\n        /* \"#utility.yul\":11443:12060   */\n      swap3\n      pop\n      swap3\n      pop\n      swap3\n      jump\t// out\n        /* \"#utility.yul\":12066:12143   */\n    tag_171:\n        /* \"#utility.yul\":12103:12110   */\n      0x00\n        /* \"#utility.yul\":12132:12137   */\n      dup2\n        /* \"#utility.yul\":12121:12137   */\n      swap1\n      pop\n        /* \"#utility.yul\":12066:12143   */\n      swap2\n      swap1\n      pop\n      jump\t// out\n        /* \"#utility.yul\":12149:12267   */\n    tag_172:\n        /* \"#utility.yul\":12236:12260   */\n      tag_295\n        /* \"#utility.yul\":12254:12259   */\n      dup2\n        /* \"#utility.yul\":12236:12260   */\n      tag_171\n      jump\t// in\n    tag_295:\n        /* \"#utility.yul\":12231:12234   */\n      dup3\n        /* \"#utility.yul\":12224:12261   */\n      mstore\n        /* \"#utility.yul\":12149:12267   */\n      pop\n      pop\n      jump\t// out\n        /* \"#utility.yul\":12273:12495   */\n    tag_57:\n        /* \"#utility.yul\":12366:12370   */\n      0x00\n        /* \"#utility.yul\":12404:12406   */\n      0x20\n        /* \"#utility.yul\":12393:12402   */\n      dup3\n        /* \"#utility.yul\":12389:12407   */\n      add\n        /* \"#utility.yul\":12381:12407   */\n      swap1\n      pop\n        /* \"#utility.yul\":12417:12488   */\n      tag_297\n        /* \"#utility.yul\":12485:12486   */\n      0x00\n        /* \"#utility.yul\":12474:12483   */\n      dup4\n        /* \"#utility.yul\":12470:12487   */\n      add\n        /* \"#utility.yul\":12461:12467   */\n      dup5\n        /* \"#utility.yul\":12417:12488   */\n      tag_172\n      jump\t// in\n    tag_297:\n        /* \"#utility.yul\":12273:12495   */\n      swap3\n      swap2\n      pop\n      pop\n      jump\t// out\n        /* \"#utility.yul\":12501:12619   */\n    tag_173:\n        /* \"#utility.yul\":12588:12612   */\n      tag_299\n        /* \"#utility.yul\":12606:12611   */\n      dup2\n        /* \"#utility.yul\":12588:12612   */\n      tag_134\n      jump\t// in\n    tag_299:\n        /* \"#utility.yul\":12583:12586   */\n      dup3\n        /* \"#utility.yul\":12576:12613   */\n      mstore\n        /* \"#utility.yul\":12501:12619   */\n      pop\n      pop\n      jump\t// out\n        /* \"#utility.yul\":12625:12847   */\n    tag_60:\n        /* \"#utility.yul\":12718:12722   */\n      0x00\n        /* \"#utility.yul\":12756:12758   */\n      0x20\n        /* \"#utility.yul\":12745:12754   */\n      dup3\n        /* \"#utility.yul\":12741:12759   */\n      add\n        /* \"#utility.yul\":12733:12759   */\n      swap1\n      pop\n        /* \"#utility.yul\":12769:12840   */\n      tag_301\n        /* \"#utility.yul\":12837:12838   */\n      0x00\n        /* \"#utility.yul\":12826:12835   */\n      dup4\n        /* \"#utility.yul\":12822:12839   */\n      add\n        /* \"#utility.yul\":12813:12819   */\n      dup5\n        /* \"#utility.yul\":12769:12840   */\n      tag_173\n      jump\t// in\n    tag_301:\n        /* \"#utility.yul\":12625:12847   */\n      swap3\n      swap2\n      pop\n      pop\n      jump\t// out\n        /* \"#utility.yul\":12853:12996   */\n    tag_174:\n        /* \"#utility.yul\":12910:12915   */\n      0x00\n        /* \"#utility.yul\":12941:12947   */\n      dup2\n        /* \"#utility.yul\":12935:12948   */\n      mload\n        /* \"#utility.yul\":12926:12948   */\n      swap1\n      pop\n        /* \"#utility.yul\":12957:12990   */\n      tag_303\n        /* \"#utility.yul\":12984:12989   */\n      dup2\n        /* \"#utility.yul\":12957:12990   */\n      tag_167\n      jump\t// in\n    tag_303:\n        /* \"#utility.yul\":12853:12996   */\n      swap3\n      swap2\n      pop\n      pop\n      jump\t// out\n        /* \"#utility.yul\":13002:13353   */\n    tag_64:\n        /* \"#utility.yul\":13072:13078   */\n      0x00\n        /* \"#utility.yul\":13121:13123   */\n      0x20\n        /* \"#utility.yul\":13109:13118   */\n      dup3\n        /* \"#utility.yul\":13100:13107   */\n      dup5\n        /* \"#utility.yul\":13096:13119   */\n      sub\n        /* \"#utility.yul\":13092:13124   */\n      slt\n        /* \"#utility.yul\":13089:13208   */\n      iszero\n      tag_305\n      jumpi\n        /* \"#utility.yul\":13127:13206   */\n      tag_306\n      tag_132\n      jump\t// in\n    tag_306:\n        /* \"#utility.yul\":13089:13208   */\n    tag_305:\n        /* \"#utility.yul\":13247:13248   */\n      0x00\n        /* \"#utility.yul\":13272:13336   */\n      tag_307\n        /* \"#utility.yul\":13328:13335   */\n      dup5\n        /* \"#utility.yul\":13319:13325   */\n      dup3\n        /* \"#utility.yul\":13308:13317   */\n      dup6\n        /* \"#utility.yul\":13304:13326   */\n      add\n        /* \"#utility.yul\":13272:13336   */\n      tag_174\n      jump\t// in\n    tag_307:\n        /* \"#utility.yul\":13262:13336   */\n      swap2\n      pop\n        /* \"#utility.yul\":13218:13346   */\n      pop\n        /* \"#utility.yul\":13002:13353   */\n      swap3\n      swap2\n      pop\n      pop\n      jump\t// out\n        /* \"#utility.yul\":13359:13477   */\n    tag_175:\n        /* \"#utility.yul\":13446:13470   */\n      tag_309\n        /* \"#utility.yul\":13464:13469   */\n      dup2\n        /* \"#utility.yul\":13446:13470   */\n      tag_160\n      jump\t// in\n    tag_309:\n        /* \"#utility.yul\":13441:13444   */\n      dup3\n        /* \"#utility.yul\":13434:13471   */\n      mstore\n        /* \"#utility.yul\":13359:13477   */\n      pop\n      pop\n      jump\t// out\n        /* \"#utility.yul\":13483:13815   */\n    tag_67:\n        /* \"#utility.yul\":13604:13608   */\n      0x00\n        /* \"#utility.yul\":13642:13644   */\n      0x40\n        /* \"#utility.yul\":13631:13640   */\n      dup3\n        /* \"#utility.yul\":13627:13645   */\n      add\n        /* \"#utility.yul\":13619:13645   */\n      swap1\n      pop\n        /* \"#utility.yul\":13655:13726   */\n      tag_311\n        /* \"#utility.yul\":13723:13724   */\n      0x00\n        /* \"#utility.yul\":13712:13721   */\n      dup4\n        /* \"#utility.yul\":13708:13725   */\n      add\n        /* \"#utility.yul\":13699:13705   */\n      dup6\n        /* \"#utility.yul\":13655:13726   */\n      tag_175\n      jump\t// in\n    tag_311:\n        /* \"#utility.yul\":13736:13808   */\n      tag_312\n        /* \"#utility.yul\":13804:13806   */\n      0x20\n        /* \"#utility.yul\":13793:13802   */\n      dup4\n        /* \"#utility.yul\":13789:13807   */\n      add\n        /* \"#utility.yul\":13780:13786   */\n      dup5\n        /* \"#utility.yul\":13736:13808   */\n      tag_173\n      jump\t// in\n    tag_312:\n        /* \"#utility.yul\":13483:13815   */\n      swap4\n      swap3\n      pop\n      pop\n      pop\n      jump\t// out\n        /* \"#utility.yul\":13821:14153   */\n    tag_93:\n        /* \"#utility.yul\":13942:13946   */\n      0x00\n        /* \"#utility.yul\":13980:13982   */\n      0x40\n        /* \"#utility.yul\":13969:13978   */\n      dup3\n        /* \"#utility.yul\":13965:13983   */\n      add\n        /* \"#utility.yul\":13957:13983   */\n      swap1\n      pop\n        /* \"#utility.yul\":13993:14064   */\n      tag_314\n        /* \"#utility.yul\":14061:14062   */\n      0x00\n        /* \"#utility.yul\":14050:14059   */\n      dup4\n        /* \"#utility.yul\":14046:14063   */\n      add\n        /* \"#utility.yul\":14037:14043   */\n      dup6\n        /* \"#utility.yul\":13993:14064   */\n      tag_172\n      jump\t// in\n    tag_314:\n        /* \"#utility.yul\":14074:14146   */\n      tag_315\n        /* \"#utility.yul\":14142:14144   */\n      0x20\n        /* \"#utility.yul\":14131:14140   */\n      dup4\n        /* \"#utility.yul\":14127:14145   */\n      add\n        /* \"#utility.yul\":14118:14124   */\n      dup5\n        /* \"#utility.yul\":14074:14146   */\n      tag_175\n      jump\t// in\n    tag_315:\n        /* \"#utility.yul\":13821:14153   */\n      swap4\n      swap3\n      pop\n      pop\n      pop\n      jump\t// out\n        /* \"#utility.yul\":14159:14275   */\n    tag_176:\n        /* \"#utility.yul\":14229:14250   */\n      tag_317\n        /* \"#utility.yul\":14244:14249   */\n      dup2\n        /* \"#utility.yul\":14229:14250   */\n      tag_155\n      jump\t// in\n    tag_317:\n        /* \"#utility.yul\":14222:14227   */\n      dup2\n        /* \"#utility.yul\":14219:14251   */\n      eq\n        /* \"#utility.yul\":14209:14269   */\n      tag_318\n      jumpi\n        /* \"#utility.yul\":14265:14266   */\n      0x00\n        /* \"#utility.yul\":14262:14263   */\n      dup1\n        /* \"#utility.yul\":14255:14267   */\n      revert\n        /* \"#utility.yul\":14209:14269   */\n    tag_318:\n        /* \"#utility.yul\":14159:14275   */\n      pop\n      jump\t// out\n        /* \"#utility.yul\":14281:14418   */\n    tag_177:\n        /* \"#utility.yul\":14335:14340   */\n      0x00\n        /* \"#utility.yul\":14366:14372   */\n      dup2\n        /* \"#utility.yul\":14360:14373   */\n      mload\n        /* \"#utility.yul\":14351:14373   */\n      swap1\n      pop\n        /* \"#utility.yul\":14382:14412   */\n      tag_320\n        /* \"#utility.yul\":14406:14411   */\n      dup2\n        /* \"#utility.yul\":14382:14412   */\n      tag_176\n      jump\t// in\n    tag_320:\n        /* \"#utility.yul\":14281:14418   */\n      swap3\n      swap2\n      pop\n      pop\n      jump\t// out\n        /* \"#utility.yul\":14424:14769   */\n    tag_97:\n        /* \"#utility.yul\":14491:14497   */\n      0x00\n        /* \"#utility.yul\":14540:14542   */\n      0x20\n        /* \"#utility.yul\":14528:14537   */\n      dup3\n        /* \"#utility.yul\":14519:14526   */\n      dup5\n        /* \"#utility.yul\":14515:14538   */\n      sub\n        /* \"#utility.yul\":14511:14543   */\n      slt\n        /* \"#utility.yul\":14508:14627   */\n      iszero\n      tag_322\n      jumpi\n        /* \"#utility.yul\":14546:14625   */\n      tag_323\n      tag_132\n      jump\t// in\n    tag_323:\n        /* \"#utility.yul\":14508:14627   */\n    tag_322:\n        /* \"#utility.yul\":14666:14667   */\n      0x00\n        /* \"#utility.yul\":14691:14752   */\n      tag_324\n        /* \"#utility.yul\":14744:14751   */\n      dup5\n        /* \"#utility.yul\":14735:14741   */\n      dup3\n        /* \"#utility.yul\":14724:14733   */\n      dup6\n        /* \"#utility.yul\":14720:14742   */\n      add\n        /* \"#utility.yul\":14691:14752   */\n      tag_177\n      jump\t// in\n    tag_324:\n        /* \"#utility.yul\":14681:14752   */\n      swap2\n      pop\n        /* \"#utility.yul\":14637:14762   */\n      pop\n        /* \"#utility.yul\":14424:14769   */\n      swap3\n      swap2\n      pop\n      pop\n      jump\t// out\n        /* \"#utility.yul\":14775:14997   */\n    tag_100:\n        /* \"#utility.yul\":14868:14872   */\n      0x00\n        /* \"#utility.yul\":14906:14908   */\n      0x20\n        /* \"#utility.yul\":14895:14904   */\n      dup3\n        /* \"#utility.yul\":14891:14909   */\n      add\n        /* \"#utility.yul\":14883:14909   */\n      swap1\n      pop\n        /* \"#utility.yul\":14919:14990   */\n      tag_326\n        /* \"#utility.yul\":14987:14988   */\n      0x00\n        /* \"#utility.yul\":14976:14985   */\n      dup4\n        /* \"#utility.yul\":14972:14989   */\n      add\n        /* \"#utility.yul\":14963:14969   */\n      dup5\n        /* \"#utility.yul\":14919:14990   */\n      tag_175\n      jump\t// in\n    tag_326:\n        /* \"#utility.yul\":14775:14997   */\n      swap3\n      swap2\n      pop\n      pop\n      jump\t// out\n        /* \"#utility.yul\":15003:15183   */\n    tag_178:\n        /* \"#utility.yul\":15051:15128   */\n      0x4e487b7100000000000000000000000000000000000000000000000000000000\n        /* \"#utility.yul\":15048:15049   */\n      0x00\n        /* \"#utility.yul\":15041:15129   */\n      mstore\n        /* \"#utility.yul\":15148:15152   */\n      0x11\n        /* \"#utility.yul\":15145:15146   */\n      0x04\n        /* \"#utility.yul\":15138:15153   */\n      mstore\n        /* \"#utility.yul\":15172:15176   */\n      0x24\n        /* \"#utility.yul\":15169:15170   */\n      0x00\n        /* \"#utility.yul\":15162:15177   */\n      revert\n        /* \"#utility.yul\":15189:15382   */\n    tag_102:\n        /* \"#utility.yul\":15228:15231   */\n      0x00\n        /* \"#utility.yul\":15247:15266   */\n      tag_329\n        /* \"#utility.yul\":15264:15265   */\n      dup3\n        /* \"#utility.yul\":15247:15266   */\n      tag_147\n      jump\t// in\n    tag_329:\n        /* \"#utility.yul\":15242:15266   */\n      swap2\n      pop\n        /* \"#utility.yul\":15280:15299   */\n      tag_330\n        /* \"#utility.yul\":15297:15298   */\n      dup4\n        /* \"#utility.yul\":15280:15299   */\n      tag_147\n      jump\t// in\n    tag_330:\n        /* \"#utility.yul\":15275:15299   */\n      swap3\n      pop\n        /* \"#utility.yul\":15322:15323   */\n      dup3\n        /* \"#utility.yul\":15319:15320   */\n      dup3\n        /* \"#utility.yul\":15315:15324   */\n      add\n        /* \"#utility.yul\":15308:15324   */\n      swap1\n      pop\n        /* \"#utility.yul\":15345:15351   */\n      0xffff\n        /* \"#utility.yul\":15340:15343   */\n      dup2\n        /* \"#utility.yul\":15337:15352   */\n      gt\n        /* \"#utility.yul\":15334:15375   */\n      iszero\n      tag_331\n      jumpi\n        /* \"#utility.yul\":15355:15373   */\n      tag_332\n      tag_178\n      jump\t// in\n    tag_332:\n        /* \"#utility.yul\":15334:15375   */\n    tag_331:\n        /* \"#utility.yul\":15189:15382   */\n      swap3\n      swap2\n      pop\n      pop\n      jump\t// out\n        /* \"#utility.yul\":15388:15822   */\n    tag_105:\n        /* \"#utility.yul\":15533:15537   */\n      0x00\n        /* \"#utility.yul\":15571:15573   */\n      0x60\n        /* \"#utility.yul\":15560:15569   */\n      dup3\n        /* \"#utility.yul\":15556:15574   */\n      add\n        /* \"#utility.yul\":15548:15574   */\n      swap1\n      pop\n        /* \"#utility.yul\":15584:15655   */\n      tag_334\n        /* \"#utility.yul\":15652:15653   */\n      0x00\n        /* \"#utility.yul\":15641:15650   */\n      dup4\n        /* \"#utility.yul\":15637:15654   */\n      add\n        /* \"#utility.yul\":15628:15634   */\n      dup7\n        /* \"#utility.yul\":15584:15655   */\n      tag_173\n      jump\t// in\n    tag_334:\n        /* \"#utility.yul\":15665:15735   */\n      tag_335\n        /* \"#utility.yul\":15731:15733   */\n      0x20\n        /* \"#utility.yul\":15720:15729   */\n      dup4\n        /* \"#utility.yul\":15716:15734   */\n      add\n        /* \"#utility.yul\":15707:15713   */\n      dup6\n        /* \"#utility.yul\":15665:15735   */\n      tag_166\n      jump\t// in\n    tag_335:\n        /* \"#utility.yul\":15745:15815   */\n      tag_336\n        /* \"#utility.yul\":15811:15813   */\n      0x40\n        /* \"#utility.yul\":15800:15809   */\n      dup4\n        /* \"#utility.yul\":15796:15814   */\n      add\n        /* \"#utility.yul\":15787:15793   */\n      dup5\n        /* \"#utility.yul\":15745:15815   */\n      tag_166\n      jump\t// in\n    tag_336:\n        /* \"#utility.yul\":15388:15822   */\n      swap5\n      swap4\n      pop\n      pop\n      pop\n      pop\n      jump\t// out\n\n    auxdata: 0xa2646970667358221220e23f893c239ff4b5167c846930fc1b5ce97e2961bf9cda9c8c05430865ed077864736f6c63430008140033\n}\n",
				"bytecode": {
					"linkReferences": {},
					"object": "60c060405234801562000010575f80fd5b506040516200172b3803806200172b83398181016040528101906200003691906200010b565b8173ffffffffffffffffffffffffffffffffffffffff1660808173ffffffffffffffffffffffffffffffffffffffff16815250508073ffffffffffffffffffffffffffffffffffffffff1660a08173ffffffffffffffffffffffffffffffffffffffff1681525050505062000150565b5f80fd5b5f73ffffffffffffffffffffffffffffffffffffffff82169050919050565b5f620000d582620000aa565b9050919050565b620000e781620000c9565b8114620000f2575f80fd5b50565b5f815190506200010581620000dc565b92915050565b5f8060408385031215620001245762000123620000a6565b5b5f6200013385828601620000f5565b92505060206200014685828601620000f5565b9150509250929050565b60805160a051611596620001955f395f818161048b015261079901525f8181610227015281816103d2015281816105ee01528181610a8e0152610c3901526115965ff3fe608060405234801561000f575f80fd5b506004361061009c575f3560e01c80635ee7c0f8116100645780635ee7c0f814610158578063662f850214610188578063cf1a5935146101b8578063dc28c34f146101d4578063eafb79e2146101f05761009c565b806305261aea146100a05780631083f761146100bc5780631e315d9d146100da578063318536bd1461010a57806333727c4d14610128575b5f80fd5b6100ba60048036038101906100b59190610eeb565b61020e565b005b6100c46103d0565b6040516100d19190610f90565b60405180910390f35b6100f460048036038101906100ef9190610eeb565b6103f4565b60405161010191906110a9565b60405180910390f35b610112610489565b60405161011f91906110e9565b60405180910390f35b610142600480360381019061013d9190610eeb565b6104ad565b60405161014f919061111c565b60405180910390f35b610172600480360381019061016d9190610eeb565b6104d3565b60405161017f919061122a565b60405180910390f35b6101a2600480360381019061019d9190610eeb565b6105ae565b6040516101af9190611259565b60405180910390f35b6101d260048036038101906101cd91906112c6565b6105d5565b005b6101ee60048036038101906101e99190611316565b610a75565b005b6101f8610e90565b604051610205919061137e565b60405180910390f35b3373ffffffffffffffffffffffffffffffffffffffff167f000000000000000000000000000000000000000000000000000000000000000073ffffffffffffffffffffffffffffffffffffffff16636352211e836040518263ffffffff1660e01b815260040161027e91906113a6565b602060405180830381865afa158015610299573d5f803e3d5ffd5b505050506040513d601f19601f820116820180604052508101906102bd91906113d3565b73ffffffffffffffffffffffffffffffffffffffff16146103175733816040517fd10b1c5900000000000000000000000000000000000000000000000000000000815260040161030e92919061140d565b60405180910390fd5b60035f8281526020019081526020015f205f9054906101000a900460ff161561037757806040517f5a48209b00000000000000000000000000000000000000000000000000000000815260040161036e91906113a6565b60405180910390fd5b600160035f8381526020019081526020015f205f6101000a81548160ff021916908315150217905550807f5243abcaa321aa3b18556b53aec82c9c559b3a8595b22b17c992e15098e82ab360405160405180910390a250565b7f000000000000000000000000000000000000000000000000000000000000000081565b606060015f8381526020019081526020015f20805480602002602001604051908101604052809291908181526020015f905b8282101561047e578382905f5260205f2090600202016040518060400160405290815f8201548152602001600182015f9054906101000a900461ffff1661ffff1661ffff168152505081526020019060010190610426565b505050509050919050565b7f000000000000000000000000000000000000000000000000000000000000000081565b5f60035f8381526020019081526020015f205f9054906101000a900460ff169050919050565b60605f808381526020019081526020015f20805480602002602001604051908101604052809291908181526020015f905b828210156105a3578382905f5260205f20016040518060400160405290815f82015f9054906101000a900473ffffffffffffffffffffffffffffffffffffffff1673ffffffffffffffffffffffffffffffffffffffff1673ffffffffffffffffffffffffffffffffffffffff1681526020015f820160149054906101000a900461ffff1661ffff1661ffff168152505081526020019060010190610504565b505050509050919050565b5f60025f8381526020019081526020015f205f9054906101000a900461ffff169050919050565b3373ffffffffffffffffffffffffffffffffffffffff167f000000000000000000000000000000000000000000000000000000000000000073ffffffffffffffffffffffffffffffffffffffff16636352211e856040518263ffffffff1660e01b815260040161064591906113a6565b602060405180830381865afa158015610660573d5f803e3d5ffd5b505050506040513d601f19601f8201168201806040525081019061068491906113d3565b73ffffffffffffffffffffffffffffffffffffffff16146106de5733836040517fd10b1c590000000000000000000000000000000000000000000000000000000081526004016106d592919061140d565b60405180910390fd5b60035f8481526020019081526020015f205f9054906101000a900460ff161561073e57826040517f5a48209b00000000000000000000000000000000000000000000000000000000815260040161073591906113a6565b60405180910390fd5b5f8161ffff16148061075557506127108161ffff16115b1561079757806040517f8ee8942100000000000000000000000000000000000000000000000000000000815260040161078e9190611259565b60405180910390fd5b7f000000000000000000000000000000000000000000000000000000000000000073ffffffffffffffffffffffffffffffffffffffff166391d148547fe2889e7308860b3fe8df0daa86fccfea4d71e43776719a57be28cf90b6db81e9846040518363ffffffff1660e01b8152600401610812929190611434565b602060405180830381865afa15801561082d573d5f803e3d5ffd5b505050506040513d601f19601f820116820180604052508101906108519190611485565b61089257816040517f4872cb9b00000000000000000000000000000000000000000000000000000000815260040161088991906114b0565b60405180910390fd5b5f8160025f8681526020019081526020015f205f9054906101000a900461ffff166108bd91906114f6565b90506127108161ffff16111561092c578360025f8681526020019081526020015f205f9054906101000a900461ffff16836040517f2f8be8d90000000000000000000000000000000000000000000000000000000081526004016109239392919061152b565b60405180910390fd5b8060025f8681526020019081526020015f205f6101000a81548161ffff021916908361ffff1602179055505f808581526020019081526020015f2060405180604001604052808573ffffffffffffffffffffffffffffffffffffffff1681526020018461ffff16815250908060018154018082558091505060019003905f5260205f20015f909190919091505f820151815f015f6101000a81548173ffffffffffffffffffffffffffffffffffffffff021916908373ffffffffffffffffffffffffffffffffffffffff1602179055506020820151815f0160146101000a81548161ffff021916908361ffff16021790555050508273ffffffffffffffffffffffffffffffffffffffff16847f850fc0dc2fb73f8321e121abefd50bb59e0d270d6f7e450f9179e1ad3856daec84604051610a679190611259565b60405180910390a350505050565b3373ffffffffffffffffffffffffffffffffffffffff167f000000000000000000000000000000000000000000000000000000000000000073ffffffffffffffffffffffffffffffffffffffff16636352211e856040518263ffffffff1660e01b8152600401610ae591906113a6565b602060405180830381865afa158015610b00573d5f803e3d5ffd5b505050506040513d601f19601f82011682018060405250810190610b2491906113d3565b73ffffffffffffffffffffffffffffffffffffffff1614610b7e5733836040517fd10b1c59000000000000000000000000000000000000000000000000000000008152600401610b7592919061140d565b60405180910390fd5b60035f8481526020019081526020015f205f9054906101000a900460ff1615610bde57826040517f5a48209b000000000000000000000000000000000000000000000000000000008152600401610bd591906113a6565b60405180910390fd5b5f8161ffff161480610bf557506127108161ffff16115b15610c3757806040517f8ee89421000000000000000000000000000000000000000000000000000000008152600401610c2e9190611259565b60405180910390fd5b7f000000000000000000000000000000000000000000000000000000000000000073ffffffffffffffffffffffffffffffffffffffff16634f558e79836040518263ffffffff1660e01b8152600401610c9091906113a6565b602060405180830381865afa158015610cab573d5f803e3d5ffd5b505050506040513d601f19601f82011682018060405250810190610ccf9190611485565b610d1057816040517f6f9bab55000000000000000000000000000000000000000000000000000000008152600401610d0791906113a6565b60405180910390fd5b5f8160025f8681526020019081526020015f205f9054906101000a900461ffff16610d3b91906114f6565b90506127108161ffff161115610daa578360025f8681526020019081526020015f205f9054906101000a900461ffff16836040517f2f8be8d9000000000000000000000000000000000000000000000000000000008152600401610da19392919061152b565b60405180910390fd5b8060025f8681526020019081526020015f205f6101000a81548161ffff021916908361ffff16021790555060015f8581526020019081526020015f2060405180604001604052808581526020018461ffff16815250908060018154018082558091505060019003905f5260205f2090600202015f909190919091505f820151815f01556020820151816001015f6101000a81548161ffff021916908361ffff160217905550505082847ffec898c5d3912b351b65f61d0ff9a86555f8531846f3a878bfcd355f0442902884604051610e829190611259565b60405180910390a350505050565b7fe2889e7308860b3fe8df0daa86fccfea4d71e43776719a57be28cf90b6db81e981565b5f80fd5b5f819050919050565b610eca81610eb8565b8114610ed4575f80fd5b50565b5f81359050610ee581610ec1565b92915050565b5f60208284031215610f0057610eff610eb4565b5b5f610f0d84828501610ed7565b91505092915050565b5f73ffffffffffffffffffffffffffffffffffffffff82169050919050565b5f819050919050565b5f610f58610f53610f4e84610f16565b610f35565b610f16565b9050919050565b5f610f6982610f3e565b9050919050565b5f610f7a82610f5f565b9050919050565b610f8a81610f70565b82525050565b5f602082019050610fa35f830184610f81565b92915050565b5f81519050919050565b5f82825260208201905092915050565b5f819050602082019050919050565b610fdb81610eb8565b82525050565b5f61ffff82169050919050565b610ff781610fe1565b82525050565b604082015f8201516110115f850182610fd2565b5060208201516110246020850182610fee565b50505050565b5f6110358383610ffd565b60408301905092915050565b5f602082019050919050565b5f61105782610fa9565b6110618185610fb3565b935061106c83610fc3565b805f5b8381101561109c578151611083888261102a565b975061108e83611041565b92505060018101905061106f565b5085935050505092915050565b5f6020820190508181035f8301526110c1818461104d565b905092915050565b5f6110d382610f5f565b9050919050565b6110e3816110c9565b82525050565b5f6020820190506110fc5f8301846110da565b92915050565b5f8115159050919050565b61111681611102565b82525050565b5f60208201905061112f5f83018461110d565b92915050565b5f81519050919050565b5f82825260208201905092915050565b5f819050602082019050919050565b5f61116882610f16565b9050919050565b6111788161115e565b82525050565b604082015f8201516111925f85018261116f565b5060208201516111a56020850182610fee565b50505050565b5f6111b6838361117e565b60408301905092915050565b5f602082019050919050565b5f6111d882611135565b6111e2818561113f565b93506111ed8361114f565b805f5b8381101561121d57815161120488826111ab565b975061120f836111c2565b9250506001810190506111f0565b5085935050505092915050565b5f6020820190508181035f83015261124281846111ce565b905092915050565b61125381610fe1565b82525050565b5f60208201905061126c5f83018461124a565b92915050565b61127b8161115e565b8114611285575f80fd5b50565b5f8135905061129681611272565b92915050565b6112a581610fe1565b81146112af575f80fd5b50565b5f813590506112c08161129c565b92915050565b5f805f606084860312156112dd576112dc610eb4565b5b5f6112ea86828701610ed7565b93505060206112fb86828701611288565b925050604061130c868287016112b2565b9150509250925092565b5f805f6060848603121561132d5761132c610eb4565b5b5f61133a86828701610ed7565b935050602061134b86828701610ed7565b925050604061135c868287016112b2565b9150509250925092565b5f819050919050565b61137881611366565b82525050565b5f6020820190506113915f83018461136f565b92915050565b6113a081610eb8565b82525050565b5f6020820190506113b95f830184611397565b92915050565b5f815190506113cd81611272565b92915050565b5f602082840312156113e8576113e7610eb4565b5b5f6113f5848285016113bf565b91505092915050565b6114078161115e565b82525050565b5f6040820190506114205f8301856113fe565b61142d6020830184611397565b9392505050565b5f6040820190506114475f83018561136f565b61145460208301846113fe565b9392505050565b61146481611102565b811461146e575f80fd5b50565b5f8151905061147f8161145b565b92915050565b5f6020828403121561149a57611499610eb4565b5b5f6114a784828501611471565b91505092915050565b5f6020820190506114c35f8301846113fe565b92915050565b7f4e487b71000000000000000000000000000000000000000000000000000000005f52601160045260245ffd5b5f61150082610fe1565b915061150b83610fe1565b9250828201905061ffff811115611525576115246114c9565b5b92915050565b5f60608201905061153e5f830186611397565b61154b602083018561124a565b611558604083018461124a565b94935050505056fea2646970667358221220e23f893c239ff4b5167c846930fc1b5ce97e2961bf9cda9c8c05430865ed077864736f6c63430008140033",
					"opcodes": "PUSH1 0xC0 PUSH1 0x40 MSTORE CALLVALUE DUP1 ISZERO PUSH3 0x10 JUMPI PUSH0 DUP1 REVERT JUMPDEST POP PUSH1 0x40 MLOAD PUSH3 0x172B CODESIZE SUB DUP1 PUSH3 0x172B DUP4 CODECOPY DUP2 DUP2 ADD PUSH1 0x40 MSTORE DUP2 ADD SWAP1 PUSH3 0x36 SWAP2 SWAP1 PUSH3 0x10B JUMP JUMPDEST DUP2 PUSH20 0xFFFFFFFFFFFFFFFFFFFFFFFFFFFFFFFFFFFFFFFF AND PUSH1 0x80 DUP2 PUSH20 0xFFFFFFFFFFFFFFFFFFFFFFFFFFFFFFFFFFFFFFFF AND DUP2 MSTORE POP POP DUP1 PUSH20 0xFFFFFFFFFFFFFFFFFFFFFFFFFFFFFFFFFFFFFFFF AND PUSH1 0xA0 DUP2 PUSH20 0xFFFFFFFFFFFFFFFFFFFFFFFFFFFFFFFFFFFFFFFF AND DUP2 MSTORE POP POP POP POP PUSH3 0x150 JUMP JUMPDEST PUSH0 DUP1 REVERT JUMPDEST PUSH0 PUSH20 0xFFFFFFFFFFFFFFFFFFFFFFFFFFFFFFFFFFFFFFFF DUP3 AND SWAP1 POP SWAP2 SWAP1 POP JUMP JUMPDEST PUSH0 PUSH3 0xD5 DUP3 PUSH3 0xAA JUMP JUMPDEST SWAP1 POP SWAP2 SWAP1 POP JUMP JUMPDEST PUSH3 0xE7 DUP2 PUSH3 0xC9 JUMP JUMPDEST DUP2 EQ PUSH3 0xF2 JUMPI PUSH0 DUP1 REVERT JUMPDEST POP JUMP JUMPDEST PUSH0 DUP2 MLOAD SWAP1 POP PUSH3 0x105 DUP2 PUSH3 0xDC JUMP JUMPDEST SWAP3 SWAP2 POP POP JUMP JUMPDEST PUSH0 DUP1 PUSH1 0x40 DUP4 DUP6 SUB SLT ISZERO PUSH3 0x124 JUMPI PUSH3 0x123 PUSH3 0xA6 JUMP JUMPDEST JUMPDEST PUSH0 PUSH3 0x133 DUP6 DUP3 DUP7 ADD PUSH3 0xF5 JUMP JUMPDEST SWAP3 POP POP PUSH1 0x20 PUSH3 0x146 DUP6 DUP3 DUP7 ADD PUSH3 0xF5 JUMP JUMPDEST SWAP2 POP POP SWAP3 POP SWAP3 SWAP1 POP JUMP JUMPDEST PUSH1 0x80 MLOAD PUSH1 0xA0 MLOAD PUSH2 0x1596 PUSH3 0x195 PUSH0 CODECOPY PUSH0 DUP2 DUP2 PUSH2 0x48B ADD MSTORE PUSH2 0x799 ADD MSTORE PUSH0 DUP2 DUP2 PUSH2 0x227 ADD MSTORE DUP2 DUP2 PUSH2 0x3D2 ADD MSTORE DUP2 DUP2 PUSH2 0x5EE ADD MSTORE DUP2 DUP2 PUSH2 0xA8E ADD MSTORE PUSH2 0xC39 ADD MSTORE PUSH2 0x1596 PUSH0 RETURN INVALID PUSH1 0x80 PUSH1 0x40 MSTORE CALLVALUE DUP1 ISZERO PUSH2 0xF JUMPI PUSH0 DUP1 REVERT JUMPDEST POP PUSH1 0x4 CALLDATASIZE LT PUSH2 0x9C JUMPI PUSH0 CALLDATALOAD PUSH1 0xE0 SHR DUP1 PUSH4 0x5EE7C0F8 GT PUSH2 0x64 JUMPI DUP1 PUSH4 0x5EE7C0F8 EQ PUSH2 0x158 JUMPI DUP1 PUSH4 0x662F8502 EQ PUSH2 0x188 JUMPI DUP1 PUSH4 0xCF1A5935 EQ PUSH2 0x1B8 JUMPI DUP1 PUSH4 0xDC28C34F EQ PUSH2 0x1D4 JUMPI DUP1 PUSH4 0xEAFB79E2 EQ PUSH2 0x1F0 JUMPI PUSH2 0x9C JUMP JUMPDEST DUP1 PUSH4 0x5261AEA EQ PUSH2 0xA0 JUMPI DUP1 PUSH4 0x1083F761 EQ PUSH2 0xBC JUMPI DUP1 PUSH4 0x1E315D9D EQ PUSH2 0xDA JUMPI DUP1 PUSH4 0x318536BD EQ PUSH2 0x10A JUMPI DUP1 PUSH4 0x33727C4D EQ PUSH2 0x128 JUMPI JUMPDEST PUSH0 DUP1 REVERT JUMPDEST PUSH2 0xBA PUSH1 0x4 DUP1 CALLDATASIZE SUB DUP2 ADD SWAP1 PUSH2 0xB5 SWAP2 SWAP1 PUSH2 0xEEB JUMP JUMPDEST PUSH2 0x20E JUMP JUMPDEST STOP JUMPDEST PUSH2 0xC4 PUSH2 0x3D0 JUMP JUMPDEST PUSH1 0x40 MLOAD PUSH2 0xD1 SWAP2 SWAP1 PUSH2 0xF90 JUMP JUMPDEST PUSH1 0x40 MLOAD DUP1 SWAP2 SUB SWAP1 RETURN JUMPDEST PUSH2 0xF4 PUSH1 0x4 DUP1 CALLDATASIZE SUB DUP2 ADD SWAP1 PUSH2 0xEF SWAP2 SWAP1 PUSH2 0xEEB JUMP JUMPDEST PUSH2 0x3F4 JUMP JUMPDEST PUSH1 0x40 MLOAD PUSH2 0x101 SWAP2 SWAP1 PUSH2 0x10A9 JUMP JUMPDEST PUSH1 0x40 MLOAD DUP1 SWAP2 SUB SWAP1 RETURN JUMPDEST PUSH2 0x112 PUSH2 0x489 JUMP JUMPDEST PUSH1 0x40 MLOAD PUSH2 0x11F SWAP2 SWAP1 PUSH2 0x10E9 JUMP JUMPDEST PUSH1 0x40 MLOAD DUP1 SWAP2 SUB SWAP1 RETURN JUMPDEST PUSH2 0x142 PUSH1 0x4 DUP1 CALLDATASIZE SUB DUP2 ADD SWAP1 PUSH2 0x13D SWAP2 SWAP1 PUSH2 0xEEB JUMP JUMPDEST PUSH2 0x4AD JUMP JUMPDEST PUSH1 0x40 MLOAD PUSH2 0x14F SWAP2 SWAP1 PUSH2 0x111C JUMP JUMPDEST PUSH1 0x40 MLOAD DUP1 SWAP2 SUB SWAP1 RETURN JUMPDEST PUSH2 0x172 PUSH1 0x4 DUP1 CALLDATASIZE SUB DUP2 ADD SWAP1 PUSH2 0x16D SWAP2 SWAP1 PUSH2 0xEEB JUMP JUMPDEST PUSH2 0x4D3 JUMP JUMPDEST PUSH1 0x40 MLOAD PUSH2 0x17F SWAP2 SWAP1 PUSH2 0x122A JUMP JUMPDEST PUSH1 0x40 MLOAD DUP1 SWAP2 SUB SWAP1 RETURN JUMPDEST PUSH2 0x1A2 PUSH1 0x4 DUP1 CALLDATASIZE SUB DUP2 ADD SWAP1 PUSH2 0x19D SWAP2 SWAP1 PUSH2 0xEEB JUMP JUMPDEST PUSH2 0x5AE JUMP JUMPDEST PUSH1 0x40 MLOAD PUSH2 0x1AF SWAP2 SWAP1 PUSH2 0x1259 JUMP JUMPDEST PUSH1 0x40 MLOAD DUP1 SWAP2 SUB SWAP1 RETURN JUMPDEST PUSH2 0x1D2 PUSH1 0x4 DUP1 CALLDATASIZE SUB DUP2 ADD SWAP1 PUSH2 0x1CD SWAP2 SWAP1 PUSH2 0x12C6 JUMP JUMPDEST PUSH2 0x5D5 JUMP JUMPDEST STOP JUMPDEST PUSH2 0x1EE PUSH1 0x4 DUP1 CALLDATASIZE SUB DUP2 ADD SWAP1 PUSH2 0x1E9 SWAP2 SWAP1 PUSH2 0x1316 JUMP JUMPDEST PUSH2 0xA75 JUMP JUMPDEST STOP JUMPDEST PUSH2 0x1F8 PUSH2 0xE90 JUMP JUMPDEST PUSH1 0x40 MLOAD PUSH2 0x205 SWAP2 SWAP1 PUSH2 0x137E JUMP JUMPDEST PUSH1 0x40 MLOAD DUP1 SWAP2 SUB SWAP1 RETURN JUMPDEST CALLER PUSH20 0xFFFFFFFFFFFFFFFFFFFFFFFFFFFFFFFFFFFFFFFF AND PUSH32 0x0 PUSH20 0xFFFFFFFFFFFFFFFFFFFFFFFFFFFFFFFFFFFFFFFF AND PUSH4 0x6352211E DUP4 PUSH1 0x40 MLOAD DUP3 PUSH4 0xFFFFFFFF AND PUSH1 0xE0 SHL DUP2 MSTORE PUSH1 0x4 ADD PUSH2 0x27E SWAP2 SWAP1 PUSH2 0x13A6 JUMP JUMPDEST PUSH1 0x20 PUSH1 0x40 MLOAD DUP1 DUP4 SUB DUP2 DUP7 GAS STATICCALL ISZERO DUP1 ISZERO PUSH2 0x299 JUMPI RETURNDATASIZE PUSH0 DUP1 RETURNDATACOPY RETURNDATASIZE PUSH0 REVERT JUMPDEST POP POP POP POP PUSH1 0x40 MLOAD RETURNDATASIZE PUSH1 0x1F NOT PUSH1 0x1F DUP3 ADD AND DUP3 ADD DUP1 PUSH1 0x40 MSTORE POP DUP2 ADD SWAP1 PUSH2 0x2BD SWAP2 SWAP1 PUSH2 0x13D3 JUMP JUMPDEST PUSH20 0xFFFFFFFFFFFFFFFFFFFFFFFFFFFFFFFFFFFFFFFF AND EQ PUSH2 0x317 JUMPI CALLER DUP2 PUSH1 0x40 MLOAD PUSH32 0xD10B1C5900000000000000000000000000000000000000000000000000000000 DUP2 MSTORE PUSH1 0x4 ADD PUSH2 0x30E SWAP3 SWAP2 SWAP1 PUSH2 0x140D JUMP JUMPDEST PUSH1 0x40 MLOAD DUP1 SWAP2 SUB SWAP1 REVERT JUMPDEST PUSH1 0x3 PUSH0 DUP3 DUP2 MSTORE PUSH1 0x20 ADD SWAP1 DUP2 MSTORE PUSH1 0x20 ADD PUSH0 KECCAK256 PUSH0 SWAP1 SLOAD SWAP1 PUSH2 0x100 EXP SWAP1 DIV PUSH1 0xFF AND ISZERO PUSH2 0x377 JUMPI DUP1 PUSH1 0x40 MLOAD PUSH32 0x5A48209B00000000000000000000000000000000000000000000000000000000 DUP2 MSTORE PUSH1 0x4 ADD PUSH2 0x36E SWAP2 SWAP1 PUSH2 0x13A6 JUMP JUMPDEST PUSH1 0x40 MLOAD DUP1 SWAP2 SUB SWAP1 REVERT JUMPDEST PUSH1 0x1 PUSH1 0x3 PUSH0 DUP4 DUP2 MSTORE PUSH1 0x20 ADD SWAP1 DUP2 MSTORE PUSH1 0x20 ADD PUSH0 KECCAK256 PUSH0 PUSH2 0x100 EXP DUP2 SLOAD DUP2 PUSH1 0xFF MUL NOT AND SWAP1 DUP4 ISZERO ISZERO MUL OR SWAP1 SSTORE POP DUP1 PUSH32 0x5243ABCAA321AA3B18556B53AEC82C9C559B3A8595B22B17C992E15098E82AB3 PUSH1 0x40 MLOAD PUSH1 0x40 MLOAD DUP1 SWAP2 SUB SWAP1 LOG2 POP JUMP JUMPDEST PUSH32 0x0 DUP2 JUMP JUMPDEST PUSH1 0x60 PUSH1 0x1 PUSH0 DUP4 DUP2 MSTORE PUSH1 0x20 ADD SWAP1 DUP2 MSTORE PUSH1 0x20 ADD PUSH0 KECCAK256 DUP1 SLOAD DUP1 PUSH1 0x20 MUL PUSH1 0x20 ADD PUSH1 0x40 MLOAD SWAP1 DUP2 ADD PUSH1 0x40 MSTORE DUP1 SWAP3 SWAP2 SWAP1 DUP2 DUP2 MSTORE PUSH1 0x20 ADD PUSH0 SWAP1 JUMPDEST DUP3 DUP3 LT ISZERO PUSH2 0x47E JUMPI DUP4 DUP3 SWAP1 PUSH0 MSTORE PUSH1 0x20 PUSH0 KECCAK256 SWAP1 PUSH1 0x2 MUL ADD PUSH1 0x40 MLOAD DUP1 PUSH1 0x40 ADD PUSH1 0x40 MSTORE SWAP1 DUP2 PUSH0 DUP3 ADD SLOAD DUP2 MSTORE PUSH1 0x20 ADD PUSH1 0x1 DUP3 ADD PUSH0 SWAP1 SLOAD SWAP1 PUSH2 0x100 EXP SWAP1 DIV PUSH2 0xFFFF AND PUSH2 0xFFFF AND PUSH2 0xFFFF AND DUP2 MSTORE POP POP DUP2 MSTORE PUSH1 0x20 ADD SWAP1 PUSH1 0x1 ADD SWAP1 PUSH2 0x426 JUMP JUMPDEST POP POP POP POP SWAP1 POP SWAP2 SWAP1 POP JUMP JUMPDEST PUSH32 0x0 DUP2 JUMP JUMPDEST PUSH0 PUSH1 0x3 PUSH0 DUP4 DUP2 MSTORE PUSH1 0x20 ADD SWAP1 DUP2 MSTORE PUSH1 0x20 ADD PUSH0 KECCAK256 PUSH0 SWAP1 SLOAD SWAP1 PUSH2 0x100 EXP SWAP1 DIV PUSH1 0xFF AND SWAP1 POP SWAP2 SWAP1 POP JUMP JUMPDEST PUSH1 0x60 PUSH0 DUP1 DUP4 DUP2 MSTORE PUSH1 0x20 ADD SWAP1 DUP2 MSTORE PUSH1 0x20 ADD PUSH0 KECCAK256 DUP1 SLOAD DUP1 PUSH1 0x20 MUL PUSH1 0x20 ADD PUSH1 0x40 MLOAD SWAP1 DUP2 ADD PUSH1 0x40 MSTORE DUP1 SWAP3 SWAP2 SWAP1 DUP2 DUP2 MSTORE PUSH1 0x20 ADD PUSH0 SWAP1 JUMPDEST DUP3 DUP3 LT ISZERO PUSH2 0x5A3 JUMPI DUP4 DUP3 SWAP1 PUSH0 MSTORE PUSH1 0x20 PUSH0 KECCAK256 ADD PUSH1 0x40 MLOAD DUP1 PUSH1 0x40 ADD PUSH1 0x40 MSTORE SWAP1 DUP2 PUSH0 DUP3 ADD PUSH0 SWAP1 SLOAD SWAP1 PUSH2 0x100 EXP SWAP1 DIV PUSH20 0xFFFFFFFFFFFFFFFFFFFFFFFFFFFFFFFFFFFFFFFF AND PUSH20 0xFFFFFFFFFFFFFFFFFFFFFFFFFFFFFFFFFFFFFFFF AND PUSH20 0xFFFFFFFFFFFFFFFFFFFFFFFFFFFFFFFFFFFFFFFF AND DUP2 MSTORE PUSH1 0x20 ADD PUSH0 DUP3 ADD PUSH1 0x14 SWAP1 SLOAD SWAP1 PUSH2 0x100 EXP SWAP1 DIV PUSH2 0xFFFF AND PUSH2 0xFFFF AND PUSH2 0xFFFF AND DUP2 MSTORE POP POP DUP2 MSTORE PUSH1 0x20 ADD SWAP1 PUSH1 0x1 ADD SWAP1 PUSH2 0x504 JUMP JUMPDEST POP POP POP POP SWAP1 POP SWAP2 SWAP1 POP JUMP JUMPDEST PUSH0 PUSH1 0x2 PUSH0 DUP4 DUP2 MSTORE PUSH1 0x20 ADD SWAP1 DUP2 MSTORE PUSH1 0x20 ADD PUSH0 KECCAK256 PUSH0 SWAP1 SLOAD SWAP1 PUSH2 0x100 EXP SWAP1 DIV PUSH2 0xFFFF AND SWAP1 POP SWAP2 SWAP1 POP JUMP JUMPDEST CALLER PUSH20 0xFFFFFFFFFFFFFFFFFFFFFFFFFFFFFFFFFFFFFFFF AND PUSH32 0x0 PUSH20 0xFFFFFFFFFFFFFFFFFFFFFFFFFFFFFFFFFFFFFFFF AND PUSH4 0x6352211E DUP6 PUSH1 0x40 MLOAD DUP3 PUSH4 0xFFFFFFFF AND PUSH1 0xE0 SHL DUP2 MSTORE PUSH1 0x4 ADD PUSH2 0x645 SWAP2 SWAP1 PUSH2 0x13A6 JUMP JUMPDEST PUSH1 0x20 PUSH1 0x40 MLOAD DUP1 DUP4 SUB DUP2 DUP7 GAS STATICCALL ISZERO DUP1 ISZERO PUSH2 0x660 JUMPI RETURNDATASIZE PUSH0 DUP1 RETURNDATACOPY RETURNDATASIZE PUSH0 REVERT JUMPDEST POP POP POP POP PUSH1 0x40 MLOAD RETURNDATASIZE PUSH1 0x1F NOT PUSH1 0x1F DUP3 ADD AND DUP3 ADD DUP1 PUSH1 0x40 MSTORE POP DUP2 ADD SWAP1 PUSH2 0x684 SWAP2 SWAP1 PUSH2 0x13D3 JUMP JUMPDEST PUSH20 0xFFFFFFFFFFFFFFFFFFFFFFFFFFFFFFFFFFFFFFFF AND EQ PUSH2 0x6DE JUMPI CALLER DUP4 PUSH1 0x40 MLOAD PUSH32 0xD10B1C5900000000000000000000000000000000000000000000000000000000 DUP2 MSTORE PUSH1 0x4 ADD PUSH2 0x6D5 SWAP3 SWAP2 SWAP1 PUSH2 0x140D JUMP JUMPDEST PUSH1 0x40 MLOAD DUP1 SWAP2 SUB SWAP1 REVERT JUMPDEST PUSH1 0x3 PUSH0 DUP5 DUP2 MSTORE PUSH1 0x20 ADD SWAP1 DUP2 MSTORE PUSH1 0x20 ADD PUSH0 KECCAK256 PUSH0 SWAP1 SLOAD SWAP1 PUSH2 0x100 EXP SWAP1 DIV PUSH1 0xFF AND ISZERO PUSH2 0x73E JUMPI DUP3 PUSH1 0x40 MLOAD PUSH32 0x5A48209B00000000000000000000000000000000000000000000000000000000 DUP2 MSTORE PUSH1 0x4 ADD PUSH2 0x735 SWAP2 SWAP1 PUSH2 0x13A6 JUMP JUMPDEST PUSH1 0x40 MLOAD DUP1 SWAP2 SUB SWAP1 REVERT JUMPDEST PUSH0 DUP2 PUSH2 0xFFFF AND EQ DUP1 PUSH2 0x755 JUMPI POP PUSH2 0x2710 DUP2 PUSH2 0xFFFF AND GT JUMPDEST ISZERO PUSH2 0x797 JUMPI DUP1 PUSH1 0x40 MLOAD PUSH32 0x8EE8942100000000000000000000000000000000000000000000000000000000 DUP2 MSTORE PUSH1 0x4 ADD PUSH2 0x78E SWAP2 SWAP1 PUSH2 0x1259 JUMP JUMPDEST PUSH1 0x40 MLOAD DUP1 SWAP2 SUB SWAP1 REVERT JUMPDEST PUSH32 0x0 PUSH20 0xFFFFFFFFFFFFFFFFFFFFFFFFFFFFFFFFFFFFFFFF AND PUSH4 0x91D14854 PUSH32 0xE2889E7308860B3FE8DF0DAA86FCCFEA4D71E43776719A57BE28CF90B6DB81E9 DUP5 PUSH1 0x40 MLOAD DUP4 PUSH4 0xFFFFFFFF AND PUSH1 0xE0 SHL DUP2 MSTORE PUSH1 0x4 ADD PUSH2 0x812 SWAP3 SWAP2 SWAP1 PUSH2 0x1434 JUMP JUMPDEST PUSH1 0x20 PUSH1 0x40 MLOAD DUP1 DUP4 SUB DUP2 DUP7 GAS STATICCALL ISZERO DUP1 ISZERO PUSH2 0x82D JUMPI RETURNDATASIZE PUSH0 DUP1 RETURNDATACOPY RETURNDATASIZE PUSH0 REVERT JUMPDEST POP POP POP POP PUSH1 0x40 MLOAD RETURNDATASIZE PUSH1 0x1F NOT PUSH1 0x1F DUP3 ADD AND DUP3 ADD DUP1 PUSH1 0x40 MSTORE POP DUP2 ADD SWAP1 PUSH2 0x851 SWAP2 SWAP1 PUSH2 0x1485 JUMP JUMPDEST PUSH2 0x892 JUMPI DUP2 PUSH1 0x40 MLOAD PUSH32 0x4872CB9B00000000000000000000000000000000000000000000000000000000 DUP2 MSTORE PUSH1 0x4 ADD PUSH2 0x889 SWAP2 SWAP1 PUSH2 0x14B0 JUMP JUMPDEST PUSH1 0x40 MLOAD DUP1 SWAP2 SUB SWAP1 REVERT JUMPDEST PUSH0 DUP2 PUSH1 0x2 PUSH0 DUP7 DUP2 MSTORE PUSH1 0x20 ADD SWAP1 DUP2 MSTORE PUSH1 0x20 ADD PUSH0 KECCAK256 PUSH0 SWAP1 SLOAD SWAP1 PUSH2 0x100 EXP SWAP1 DIV PUSH2 0xFFFF AND PUSH2 0x8BD SWAP2 SWAP1 PUSH2 0x14F6 JUMP JUMPDEST SWAP1 POP PUSH2 0x2710 DUP2 PUSH2 0xFFFF AND GT ISZERO PUSH2 0x92C JUMPI DUP4 PUSH1 0x2 PUSH0 DUP7 DUP2 MSTORE PUSH1 0x20 ADD SWAP1 DUP2 MSTORE PUSH1 0x20 ADD PUSH0 KECCAK256 PUSH0 SWAP1 SLOAD SWAP1 PUSH2 0x100 EXP SWAP1 DIV PUSH2 0xFFFF AND DUP4 PUSH1 0x40 MLOAD PUSH32 0x2F8BE8D900000000000000000000000000000000000000000000000000000000 DUP2 MSTORE PUSH1 0x4 ADD PUSH2 0x923 SWAP4 SWAP3 SWAP2 SWAP1 PUSH2 0x152B JUMP JUMPDEST PUSH1 0x40 MLOAD DUP1 SWAP2 SUB SWAP1 REVERT JUMPDEST DUP1 PUSH1 0x2 PUSH0 DUP7 DUP2 MSTORE PUSH1 0x20 ADD SWAP1 DUP2 MSTORE PUSH1 0x20 ADD PUSH0 KECCAK256 PUSH0 PUSH2 0x100 EXP DUP2 SLOAD DUP2 PUSH2 0xFFFF MUL NOT AND SWAP1 DUP4 PUSH2 0xFFFF AND MUL OR SWAP1 SSTORE POP PUSH0 DUP1 DUP6 DUP2 MSTORE PUSH1 0x20 ADD SWAP1 DUP2 MSTORE PUSH1 0x20 ADD PUSH0 KECCAK256 PUSH1 0x40 MLOAD DUP1 PUSH1 0x40 ADD PUSH1 0x40 MSTORE DUP1 DUP6 PUSH20 0xFFFFFFFFFFFFFFFFFFFFFFFFFFFFFFFFFFFFFFFF AND DUP2 MSTORE PUSH1 0x20 ADD DUP5 PUSH2 0xFFFF AND DUP2 MSTORE POP SWAP1 DUP1 PUSH1 0x1 DUP2 SLOAD ADD DUP1 DUP3 SSTORE DUP1 SWAP2 POP POP PUSH1 0x1 SWAP1 SUB SWAP1 PUSH0 MSTORE PUSH1 0x20 PUSH0 KECCAK256 ADD PUSH0 SWAP1 SWAP2 SWAP1 SWAP2 SWAP1 SWAP2 POP PUSH0 DUP3 ADD MLOAD DUP2 PUSH0 ADD PUSH0 PUSH2 0x100 EXP DUP2 SLOAD DUP2 PUSH20 0xFFFFFFFFFFFFFFFFFFFFFFFFFFFFFFFFFFFFFFFF MUL NOT AND SWAP1 DUP4 PUSH20 0xFFFFFFFFFFFFFFFFFFFFFFFFFFFFFFFFFFFFFFFF AND MUL OR SWAP1 SSTORE POP PUSH1 0x20 DUP3 ADD MLOAD DUP2 PUSH0 ADD PUSH1 0x14 PUSH2 0x100 EXP DUP2 SLOAD DUP2 PUSH2 0xFFFF MUL NOT AND SWAP1 DUP4 PUSH2 0xFFFF AND MUL OR SWAP1 SSTORE POP POP POP DUP3 PUSH20 0xFFFFFFFFFFFFFFFFFFFFFFFFFFFFFFFFFFFFFFFF AND DUP5 PUSH32 0x850FC0DC2FB73F8321E121ABEFD50BB59E0D270D6F7E450F9179E1AD3856DAEC DUP5 PUSH1 0x40 MLOAD PUSH2 0xA67 SWAP2 SWAP1 PUSH2 0x1259 JUMP JUMPDEST PUSH1 0x40 MLOAD DUP1 SWAP2 SUB SWAP1 LOG3 POP POP POP POP JUMP JUMPDEST CALLER PUSH20 0xFFFFFFFFFFFFFFFFFFFFFFFFFFFFFFFFFFFFFFFF AND PUSH32 0x0 PUSH20 0xFFFFFFFFFFFFFFFFFFFFFFFFFFFFFFFFFFFFFFFF AND PUSH4 0x6352211E DUP6 PUSH1 0x40 MLOAD DUP3 PUSH4 0xFFFFFFFF AND PUSH1 0xE0 SHL DUP2 MSTORE PUSH1 0x4 ADD PUSH2 0xAE5 SWAP2 SWAP1 PUSH2 0x13A6 JUMP JUMPDEST PUSH1 0x20 PUSH1 0x40 MLOAD DUP1 DUP4 SUB DUP2 DUP7 GAS STATICCALL ISZERO DUP1 ISZERO PUSH2 0xB00 JUMPI RETURNDATASIZE PUSH0 DUP1 RETURNDATACOPY RETURNDATASIZE PUSH0 REVERT JUMPDEST POP POP POP POP PUSH1 0x40 MLOAD RETURNDATASIZE PUSH1 0x1F NOT PUSH1 0x1F DUP3 ADD AND DUP3 ADD DUP1 PUSH1 0x40 MSTORE POP DUP2 ADD SWAP1 PUSH2 0xB24 SWAP2 SWAP1 PUSH2 0x13D3 JUMP JUMPDEST PUSH20 0xFFFFFFFFFFFFFFFFFFFFFFFFFFFFFFFFFFFFFFFF AND EQ PUSH2 0xB7E JUMPI CALLER DUP4 PUSH1 0x40 MLOAD PUSH32 0xD10B1C5900000000000000000000000000000000000000000000000000000000 DUP2 MSTORE PUSH1 0x4 ADD PUSH2 0xB75 SWAP3 SWAP2 SWAP1 PUSH2 0x140D JUMP JUMPDEST PUSH1 0x40 MLOAD DUP1 SWAP2 SUB SWAP1 REVERT JUMPDEST PUSH1 0x3 PUSH0 DUP5 DUP2 MSTORE PUSH1 0x20 ADD SWAP1 DUP2 MSTORE PUSH1 0x20 ADD PUSH0 KECCAK256 PUSH0 SWAP1 SLOAD SWAP1 PUSH2 0x100 EXP SWAP1 DIV PUSH1 0xFF AND ISZERO PUSH2 0xBDE JUMPI DUP3 PUSH1 0x40 MLOAD PUSH32 0x5A48209B00000000000000000000000000000000000000000000000000000000 DUP2 MSTORE PUSH1 0x4 ADD PUSH2 0xBD5 SWAP2 SWAP1 PUSH2 0x13A6 JUMP JUMPDEST PUSH1 0x40 MLOAD DUP1 SWAP2 SUB SWAP1 REVERT JUMPDEST PUSH0 DUP2 PUSH2 0xFFFF AND EQ DUP1 PUSH2 0xBF5 JUMPI POP PUSH2 0x2710 DUP2 PUSH2 0xFFFF AND GT JUMPDEST ISZERO PUSH2 0xC37 JUMPI DUP1 PUSH1 0x40 MLOAD PUSH32 0x8EE8942100000000000000000000000000000000000000000000000000000000 DUP2 MSTORE PUSH1 0x4 ADD PUSH2 0xC2E SWAP2 SWAP1 PUSH2 0x1259 JUMP JUMPDEST PUSH1 0x40 MLOAD DUP1 SWAP2 SUB SWAP1 REVERT JUMPDEST PUSH32 0x0 PUSH20 0xFFFFFFFFFFFFFFFFFFFFFFFFFFFFFFFFFFFFFFFF AND PUSH4 0x4F558E79 DUP4 PUSH1 0x40 MLOAD DUP3 PUSH4 0xFFFFFFFF AND PUSH1 0xE0 SHL DUP2 MSTORE PUSH1 0x4 ADD PUSH2 0xC90 SWAP2 SWAP1 PUSH2 0x13A6 JUMP JUMPDEST PUSH1 0x20 PUSH1 0x40 MLOAD DUP1 DUP4 SUB DUP2 DUP7 GAS STATICCALL ISZERO DUP1 ISZERO PUSH2 0xCAB JUMPI RETURNDATASIZE PUSH0 DUP1 RETURNDATACOPY RETURNDATASIZE PUSH0 REVERT JUMPDEST POP POP POP POP PUSH1 0x40 MLOAD RETURNDATASIZE PUSH1 0x1F NOT PUSH1 0x1F DUP3 ADD AND DUP3 ADD DUP1 PUSH1 0x40 MSTORE POP DUP2 ADD SWAP1 PUSH2 0xCCF SWAP2 SWAP1 PUSH2 0x1485 JUMP JUMPDEST PUSH2 0xD10 JUMPI DUP2 PUSH1 0x40 MLOAD PUSH32 0x6F9BAB5500000000000000000000000000000000000000000000000000000000 DUP2 MSTORE PUSH1 0x4 ADD PUSH2 0xD07 SWAP2 SWAP1 PUSH2 0x13A6 JUMP JUMPDEST PUSH1 0x40 MLOAD DUP1 SWAP2 SUB SWAP1 REVERT JUMPDEST PUSH0 DUP2 PUSH1 0x2 PUSH0 DUP7 DUP2 MSTORE PUSH1 0x20 ADD SWAP1 DUP2 MSTORE PUSH1 0x20 ADD PUSH0 KECCAK256 PUSH0 SWAP1 SLOAD SWAP1 PUSH2 0x100 EXP SWAP1 DIV PUSH2 0xFFFF AND PUSH2 0xD3B SWAP2 SWAP1 PUSH2 0x14F6 JUMP JUMPDEST SWAP1 POP PUSH2 0x2710 DUP2 PUSH2 0xFFFF AND GT ISZERO PUSH2 0xDAA JUMPI DUP4 PUSH1 0x2 PUSH0 DUP7 DUP2 MSTORE PUSH1 0x20 ADD SWAP1 DUP2 MSTORE PUSH1 0x20 ADD PUSH0 KECCAK256 PUSH0 SWAP1 SLOAD SWAP1 PUSH2 0x100 EXP SWAP1 DIV PUSH2 0xFFFF AND DUP4 PUSH1 0x40 MLOAD PUSH32 0x2F8BE8D900000000000000000000000000000000000000000000000000000000 DUP2 MSTORE PUSH1 0x4 ADD PUSH2 0xDA1 SWAP4 SWAP3 SWAP2 SWAP1 PUSH2 0x152B JUMP JUMPDEST PUSH1 0x40 MLOAD DUP1 SWAP2 SUB SWAP1 REVERT JUMPDEST DUP1 PUSH1 0x2 PUSH0 DUP7 DUP2 MSTORE PUSH1 0x20 ADD SWAP1 DUP2 MSTORE PUSH1 0x20 ADD PUSH0 KECCAK256 PUSH0 PUSH2 0x100 EXP DUP2 SLOAD DUP2 PUSH2 0xFFFF MUL NOT AND SWAP1 DUP4 PUSH2 0xFFFF AND MUL OR SWAP1 SSTORE POP PUSH1 0x1 PUSH0 DUP6 DUP2 MSTORE PUSH1 0x20 ADD SWAP1 DUP2 MSTORE PUSH1 0x20 ADD PUSH0 KECCAK256 PUSH1 0x40 MLOAD DUP1 PUSH1 0x40 ADD PUSH1 0x40 MSTORE DUP1 DUP6 DUP2 MSTORE PUSH1 0x20 ADD DUP5 PUSH2 0xFFFF AND DUP2 MSTORE POP SWAP1 DUP1 PUSH1 0x1 DUP2 SLOAD ADD DUP1 DUP3 SSTORE DUP1 SWAP2 POP POP PUSH1 0x1 SWAP1 SUB SWAP1 PUSH0 MSTORE PUSH1 0x20 PUSH0 KECCAK256 SWAP1 PUSH1 0x2 MUL ADD PUSH0 SWAP1 SWAP2 SWAP1 SWAP2 SWAP1 SWAP2 POP PUSH0 DUP3 ADD MLOAD DUP2 PUSH0 ADD SSTORE PUSH1 0x20 DUP3 ADD MLOAD DUP2 PUSH1 0x1 ADD PUSH0 PUSH2 0x100 EXP DUP2 SLOAD DUP2 PUSH2 0xFFFF MUL NOT AND SWAP1 DUP4 PUSH2 0xFFFF AND MUL OR SWAP1 SSTORE POP POP POP DUP3 DUP5 PUSH32 0xFEC898C5D3912B351B65F61D0FF9A86555F8531846F3A878BFCD355F04429028 DUP5 PUSH1 0x40 MLOAD PUSH2 0xE82 SWAP2 SWAP1 PUSH2 0x1259 JUMP JUMPDEST PUSH1 0x40 MLOAD DUP1 SWAP2 SUB SWAP1 LOG3 POP POP POP POP JUMP JUMPDEST PUSH32 0xE2889E7308860B3FE8DF0DAA86FCCFEA4D71E43776719A57BE28CF90B6DB81E9 DUP2 JUMP JUMPDEST PUSH0 DUP1 REVERT JUMPDEST PUSH0 DUP2 SWAP1 POP SWAP2 SWAP1 POP JUMP JUMPDEST PUSH2 0xECA DUP2 PUSH2 0xEB8 JUMP JUMPDEST DUP2 EQ PUSH2 0xED4 JUMPI PUSH0 DUP1 REVERT JUMPDEST POP JUMP JUMPDEST PUSH0 DUP2 CALLDATALOAD SWAP1 POP PUSH2 0xEE5 DUP2 PUSH2 0xEC1 JUMP JUMPDEST SWAP3 SWAP2 POP POP JUMP JUMPDEST PUSH0 PUSH1 0x20 DUP3 DUP5 SUB SLT ISZERO PUSH2 0xF00 JUMPI PUSH2 0xEFF PUSH2 0xEB4 JUMP JUMPDEST JUMPDEST PUSH0 PUSH2 0xF0D DUP5 DUP3 DUP6 ADD PUSH2 0xED7 JUMP JUMPDEST SWAP2 POP POP SWAP3 SWAP2 POP POP JUMP JUMPDEST PUSH0 PUSH20 0xFFFFFFFFFFFFFFFFFFFFFFFFFFFFFFFFFFFFFFFF DUP3 AND SWAP1 POP SWAP2 SWAP1 POP JUMP JUMPDEST PUSH0 DUP2 SWAP1 POP SWAP2 SWAP1 POP JUMP JUMPDEST PUSH0 PUSH2 0xF58 PUSH2 0xF53 PUSH2 0xF4E DUP5 PUSH2 0xF16 JUMP JUMPDEST PUSH2 0xF35 JUMP JUMPDEST PUSH2 0xF16 JUMP JUMPDEST SWAP1 POP SWAP2 SWAP1 POP JUMP JUMPDEST PUSH0 PUSH2 0xF69 DUP3 PUSH2 0xF3E JUMP JUMPDEST SWAP1 POP SWAP2 SWAP1 POP JUMP JUMPDEST PUSH0 PUSH2 0xF7A DUP3 PUSH2 0xF5F JUMP JUMPDEST SWAP1 POP SWAP2 SWAP1 POP JUMP JUMPDEST PUSH2 0xF8A DUP2 PUSH2 0xF70 JUMP JUMPDEST DUP3 MSTORE POP POP JUMP JUMPDEST PUSH0 PUSH1 0x20 DUP3 ADD SWAP1 POP PUSH2 0xFA3 PUSH0 DUP4 ADD DUP5 PUSH2 0xF81 JUMP JUMPDEST SWAP3 SWAP2 POP POP JUMP JUMPDEST PUSH0 DUP2 MLOAD SWAP1 POP SWAP2 SWAP1 POP JUMP JUMPDEST PUSH0 DUP3 DUP3 MSTORE PUSH1 0x20 DUP3 ADD SWAP1 POP SWAP3 SWAP2 POP POP JUMP JUMPDEST PUSH0 DUP2 SWAP1 POP PUSH1 0x20 DUP3 ADD SWAP1 POP SWAP2 SWAP1 POP JUMP JUMPDEST PUSH2 0xFDB DUP2 PUSH2 0xEB8 JUMP JUMPDEST DUP3 MSTORE POP POP JUMP JUMPDEST PUSH0 PUSH2 0xFFFF DUP3 AND SWAP1 POP SWAP2 SWAP1 POP JUMP JUMPDEST PUSH2 0xFF7 DUP2 PUSH2 0xFE1 JUMP JUMPDEST DUP3 MSTORE POP POP JUMP JUMPDEST PUSH1 0x40 DUP3 ADD PUSH0 DUP3 ADD MLOAD PUSH2 0x1011 PUSH0 DUP6 ADD DUP3 PUSH2 0xFD2 JUMP JUMPDEST POP PUSH1 0x20 DUP3 ADD MLOAD PUSH2 0x1024 PUSH1 0x20 DUP6 ADD DUP3 PUSH2 0xFEE JUMP JUMPDEST POP POP POP POP JUMP JUMPDEST PUSH0 PUSH2 0x1035 DUP4 DUP4 PUSH2 0xFFD JUMP JUMPDEST PUSH1 0x40 DUP4 ADD SWAP1 POP SWAP3 SWAP2 POP POP JUMP JUMPDEST PUSH0 PUSH1 0x20 DUP3 ADD SWAP1 POP SWAP2 SWAP1 POP JUMP JUMPDEST PUSH0 PUSH2 0x1057 DUP3 PUSH2 0xFA9 JUMP JUMPDEST PUSH2 0x1061 DUP2 DUP6 PUSH2 0xFB3 JUMP JUMPDEST SWAP4 POP PUSH2 0x106C DUP4 PUSH2 0xFC3 JUMP JUMPDEST DUP1 PUSH0 JUMPDEST DUP4 DUP2 LT ISZERO PUSH2 0x109C JUMPI DUP2 MLOAD PUSH2 0x1083 DUP9 DUP3 PUSH2 0x102A JUMP JUMPDEST SWAP8 POP PUSH2 0x108E DUP4 PUSH2 0x1041 JUMP JUMPDEST SWAP3 POP POP PUSH1 0x1 DUP2 ADD SWAP1 POP PUSH2 0x106F JUMP JUMPDEST POP DUP6 SWAP4 POP POP POP POP SWAP3 SWAP2 POP POP JUMP JUMPDEST PUSH0 PUSH1 0x20 DUP3 ADD SWAP1 POP DUP2 DUP2 SUB PUSH0 DUP4 ADD MSTORE PUSH2 0x10C1 DUP2 DUP5 PUSH2 0x104D JUMP JUMPDEST SWAP1 POP SWAP3 SWAP2 POP POP JUMP JUMPDEST PUSH0 PUSH2 0x10D3 DUP3 PUSH2 0xF5F JUMP JUMPDEST SWAP1 POP SWAP2 SWAP1 POP JUMP JUMPDEST PUSH2 0x10E3 DUP2 PUSH2 0x10C9 JUMP JUMPDEST DUP3 MSTORE POP POP JUMP JUMPDEST PUSH0 PUSH1 0x20 DUP3 ADD SWAP1 POP PUSH2 0x10FC PUSH0 DUP4 ADD DUP5 PUSH2 0x10DA JUMP JUMPDEST SWAP3 SWAP2 POP POP JUMP JUMPDEST PUSH0 DUP2 ISZERO ISZERO SWAP1 POP SWAP2 SWAP1 POP JUMP JUMPDEST PUSH2 0x1116 DUP2 PUSH2 0x1102 JUMP JUMPDEST DUP3 MSTORE POP POP JUMP JUMPDEST PUSH0 PUSH1 0x20 DUP3 ADD SWAP1 POP PUSH2 0x112F PUSH0 DUP4 ADD DUP5 PUSH2 0x110D JUMP JUMPDEST SWAP3 SWAP2 POP POP JUMP JUMPDEST PUSH0 DUP2 MLOAD SWAP1 POP SWAP2 SWAP1 POP JUMP JUMPDEST PUSH0 DUP3 DUP3 MSTORE PUSH1 0x20 DUP3 ADD SWAP1 POP SWAP3 SWAP2 POP POP JUMP JUMPDEST PUSH0 DUP2 SWAP1 POP PUSH1 0x20 DUP3 ADD SWAP1 POP SWAP2 SWAP1 POP JUMP JUMPDEST PUSH0 PUSH2 0x1168 DUP3 PUSH2 0xF16 JUMP JUMPDEST SWAP1 POP SWAP2 SWAP1 POP JUMP JUMPDEST PUSH2 0x1178 DUP2 PUSH2 0x115E JUMP JUMPDEST DUP3 MSTORE POP POP JUMP JUMPDEST PUSH1 0x40 DUP3 ADD PUSH0 DUP3 ADD MLOAD PUSH2 0x1192 PUSH0 DUP6 ADD DUP3 PUSH2 0x116F JUMP JUMPDEST POP PUSH1 0x20 DUP3 ADD MLOAD PUSH2 0x11A5 PUSH1 0x20 DUP6 ADD DUP3 PUSH2 0xFEE JUMP JUMPDEST POP POP POP POP JUMP JUMPDEST PUSH0 PUSH2 0x11B6 DUP4 DUP4 PUSH2 0x117E JUMP JUMPDEST PUSH1 0x40 DUP4 ADD SWAP1 POP SWAP3 SWAP2 POP POP JUMP JUMPDEST PUSH0 PUSH1 0x20 DUP3 ADD SWAP1 POP SWAP2 SWAP1 POP JUMP JUMPDEST PUSH0 PUSH2 0x11D8 DUP3 PUSH2 0x1135 JUMP JUMPDEST PUSH2 0x11E2 DUP2 DUP6 PUSH2 0x113F JUMP JUMPDEST SWAP4 POP PUSH2 0x11ED DUP4 PUSH2 0x114F JUMP JUMPDEST DUP1 PUSH0 JUMPDEST DUP4 DUP2 LT ISZERO PUSH2 0x121D JUMPI DUP2 MLOAD PUSH2 0x1204 DUP9 DUP3 PUSH2 0x11AB JUMP JUMPDEST SWAP8 POP PUSH2 0x120F DUP4 PUSH2 0x11C2 JUMP JUMPDEST SWAP3 POP POP PUSH1 0x1 DUP2 ADD SWAP1 POP PUSH2 0x11F0 JUMP JUMPDEST POP DUP6 SWAP4 POP POP POP POP SWAP3 SWAP2 POP POP JUMP JUMPDEST PUSH0 PUSH1 0x20 DUP3 ADD SWAP1 POP DUP2 DUP2 SUB PUSH0 DUP4 ADD MSTORE PUSH2 0x1242 DUP2 DUP5 PUSH2 0x11CE JUMP JUMPDEST SWAP1 POP SWAP3 SWAP2 POP POP JUMP JUMPDEST PUSH2 0x1253 DUP2 PUSH2 0xFE1 JUMP JUMPDEST DUP3 MSTORE POP POP JUMP JUMPDEST PUSH0 PUSH1 0x20 DUP3 ADD SWAP1 POP PUSH2 0x126C PUSH0 DUP4 ADD DUP5 PUSH2 0x124A JUMP JUMPDEST SWAP3 SWAP2 POP POP JUMP JUMPDEST PUSH2 0x127B DUP2 PUSH2 0x115E JUMP JUMPDEST DUP2 EQ PUSH2 0x1285 JUMPI PUSH0 DUP1 REVERT JUMPDEST POP JUMP JUMPDEST PUSH0 DUP2 CALLDATALOAD SWAP1 POP PUSH2 0x1296 DUP2 PUSH2 0x1272 JUMP JUMPDEST SWAP3 SWAP2 POP POP JUMP JUMPDEST PUSH2 0x12A5 DUP2 PUSH2 0xFE1 JUMP JUMPDEST DUP2 EQ PUSH2 0x12AF JUMPI PUSH0 DUP1 REVERT JUMPDEST POP JUMP JUMPDEST PUSH0 DUP2 CALLDATALOAD SWAP1 POP PUSH2 0x12C0 DUP2 PUSH2 0x129C JUMP JUMPDEST SWAP3 SWAP2 POP POP JUMP JUMPDEST PUSH0 DUP1 PUSH0 PUSH1 0x60 DUP5 DUP7 SUB SLT ISZERO PUSH2 0x12DD JUMPI PUSH2 0x12DC PUSH2 0xEB4 JUMP JUMPDEST JUMPDEST PUSH0 PUSH2 0x12EA DUP7 DUP3 DUP8 ADD PUSH2 0xED7 JUMP JUMPDEST SWAP4 POP POP PUSH1 0x20 PUSH2 0x12FB DUP7 DUP3 DUP8 ADD PUSH2 0x1288 JUMP JUMPDEST SWAP3 POP POP PUSH1 0x40 PUSH2 0x130C DUP7 DUP3 DUP8 ADD PUSH2 0x12B2 JUMP JUMPDEST SWAP2 POP POP SWAP3 POP SWAP3 POP SWAP3 JUMP JUMPDEST PUSH0 DUP1 PUSH0 PUSH1 0x60 DUP5 DUP7 SUB SLT ISZERO PUSH2 0x132D JUMPI PUSH2 0x132C PUSH2 0xEB4 JUMP JUMPDEST JUMPDEST PUSH0 PUSH2 0x133A DUP7 DUP3 DUP8 ADD PUSH2 0xED7 JUMP JUMPDEST SWAP4 POP POP PUSH1 0x20 PUSH2 0x134B DUP7 DUP3 DUP8 ADD PUSH2 0xED7 JUMP JUMPDEST SWAP3 POP POP PUSH1 0x40 PUSH2 0x135C DUP7 DUP3 DUP8 ADD PUSH2 0x12B2 JUMP JUMPDEST SWAP2 POP POP SWAP3 POP SWAP3 POP SWAP3 JUMP JUMPDEST PUSH0 DUP2 SWAP1 POP SWAP2 SWAP1 POP JUMP JUMPDEST PUSH2 0x1378 DUP2 PUSH2 0x1366 JUMP JUMPDEST DUP3 MSTORE POP POP JUMP JUMPDEST PUSH0 PUSH1 0x20 DUP3 ADD SWAP1 POP PUSH2 0x1391 PUSH0 DUP4 ADD DUP5 PUSH2 0x136F JUMP JUMPDEST SWAP3 SWAP2 POP POP JUMP JUMPDEST PUSH2 0x13A0 DUP2 PUSH2 0xEB8 JUMP JUMPDEST DUP3 MSTORE POP POP JUMP JUMPDEST PUSH0 PUSH1 0x20 DUP3 ADD SWAP1 POP PUSH2 0x13B9 PUSH0 DUP4 ADD DUP5 PUSH2 0x1397 JUMP JUMPDEST SWAP3 SWAP2 POP POP JUMP JUMPDEST PUSH0 DUP2 MLOAD SWAP1 POP PUSH2 0x13CD DUP2 PUSH2 0x1272 JUMP JUMPDEST SWAP3 SWAP2 POP POP JUMP JUMPDEST PUSH0 PUSH1 0x20 DUP3 DUP5 SUB SLT ISZERO PUSH2 0x13E8 JUMPI PUSH2 0x13E7 PUSH2 0xEB4 JUMP JUMPDEST JUMPDEST PUSH0 PUSH2 0x13F5 DUP5 DUP3 DUP6 ADD PUSH2 0x13BF JUMP JUMPDEST SWAP2 POP POP SWAP3 SWAP2 POP POP JUMP JUMPDEST PUSH2 0x1407 DUP2 PUSH2 0x115E JUMP JUMPDEST DUP3 MSTORE POP POP JUMP JUMPDEST PUSH0 PUSH1 0x40 DUP3 ADD SWAP1 POP PUSH2 0x1420 PUSH0 DUP4 ADD DUP6 PUSH2 0x13FE JUMP JUMPDEST PUSH2 0x142D PUSH1 0x20 DUP4 ADD DUP5 PUSH2 0x1397 JUMP JUMPDEST SWAP4 SWAP3 POP POP POP JUMP JUMPDEST PUSH0 PUSH1 0x40 DUP3 ADD SWAP1 POP PUSH2 0x1447 PUSH0 DUP4 ADD DUP6 PUSH2 0x136F JUMP JUMPDEST PUSH2 0x1454 PUSH1 0x20 DUP4 ADD DUP5 PUSH2 0x13FE JUMP JUMPDEST SWAP4 SWAP3 POP POP POP JUMP JUMPDEST PUSH2 0x1464 DUP2 PUSH2 0x1102 JUMP JUMPDEST DUP2 EQ PUSH2 0x146E JUMPI PUSH0 DUP1 REVERT JUMPDEST POP JUMP JUMPDEST PUSH0 DUP2 MLOAD SWAP1 POP PUSH2 0x147F DUP2 PUSH2 0x145B JUMP JUMPDEST SWAP3 SWAP2 POP POP JUMP JUMPDEST PUSH0 PUSH1 0x20 DUP3 DUP5 SUB SLT ISZERO PUSH2 0x149A JUMPI PUSH2 0x1499 PUSH2 0xEB4 JUMP JUMPDEST JUMPDEST PUSH0 PUSH2 0x14A7 DUP5 DUP3 DUP6 ADD PUSH2 0x1471 JUMP JUMPDEST SWAP2 POP POP SWAP3 SWAP2 POP POP JUMP JUMPDEST PUSH0 PUSH1 0x20 DUP3 ADD SWAP1 POP PUSH2 0x14C3 PUSH0 DUP4 ADD DUP5 PUSH2 0x13FE JUMP JUMPDEST SWAP3 SWAP2 POP POP JUMP JUMPDEST PUSH32 0x4E487B7100000000000000000000000000000000000000000000000000000000 PUSH0 MSTORE PUSH1 0x11 PUSH1 0x4 MSTORE PUSH1 0x24 PUSH0 REVERT JUMPDEST PUSH0 PUSH2 0x1500 DUP3 PUSH2 0xFE1 JUMP JUMPDEST SWAP2 POP PUSH2 0x150B DUP4 PUSH2 0xFE1 JUMP JUMPDEST SWAP3 POP DUP3 DUP3 ADD SWAP1 POP PUSH2 0xFFFF DUP2 GT ISZERO PUSH2 0x1525 JUMPI PUSH2 0x1524 PUSH2 0x14C9 JUMP JUMPDEST JUMPDEST SWAP3 SWAP2 POP POP JUMP JUMPDEST PUSH0 PUSH1 0x60 DUP3 ADD SWAP1 POP PUSH2 0x153E PUSH0 DUP4 ADD DUP7 PUSH2 0x1397 JUMP JUMPDEST PUSH2 0x154B PUSH1 0x20 DUP4 ADD DUP6 PUSH2 0x124A JUMP JUMPDEST PUSH2 0x1558 PUSH1 0x40 DUP4 ADD DUP5 PUSH2 0x124A JUMP JUMPDEST SWAP5 SWAP4 POP POP POP POP JUMP INVALID LOG2 PUSH5 0x6970667358 0x22 SLT KECCAK256 0xE2 EXTCODEHASH DUP10 EXTCODECOPY 0x23 SWAP16 DELEGATECALL 0xB5 AND PUSH29 0x846930FC1B5CE97E2961BF9CDA9C8C05430865ED077864736F6C634300 ADDMOD EQ STOP CALLER "
				},
				"gasEstimates": {
					"creation": {
						"codeDepositCost": "1105200",
						"executionCost": "infinite",
						"totalCost": "infinite"
					},
					"external": {
						"CONTRIBUTOR_ROLE()": "413",
						"addContributorEdge(uint256,address,uint16)": "infinite",
						"addParentEdge(uint256,uint256,uint16)": "infinite",
						"assetToken()": "infinite",
						"contributorRegistry()": "infinite",
						"finalize(uint256)": "infinite",
						"getContributorEdges(uint256)": "infinite",
						"getParentEdges(uint256)": "infinite",
						"getTotalBpsAllocated(uint256)": "2832",
						"isFinalized(uint256)": "2899"
					}
				},
				"methodIdentifiers": {
					"CONTRIBUTOR_ROLE()": "eafb79e2",
					"addContributorEdge(uint256,address,uint16)": "cf1a5935",
					"addParentEdge(uint256,uint256,uint16)": "dc28c34f",
					"assetToken()": "1083f761",
					"contributorRegistry()": "318536bd",
					"finalize(uint256)": "05261aea",
					"getContributorEdges(uint256)": "5ee7c0f8",
					"getParentEdges(uint256)": "1e315d9d",
					"getTotalBpsAllocated(uint256)": "662f8502",
					"isFinalized(uint256)": "33727c4d"
				}
			},
			"storageLayout": {
				"storage": [
					{
						"astId": 26,
						"contract": "contracts/ProvenanceGraph.sol:ProvenanceGraph",
						"label": "_contributorEdges",
						"offset": 0,
						"slot": "0",
						"type": "t_mapping(t_uint256,t_array(t_struct(ContributorEdge)9_storage)dyn_storage)"
					},
					{
						"astId": 32,
						"contract": "contracts/ProvenanceGraph.sol:ProvenanceGraph",
						"label": "_parentEdges",
						"offset": 0,
						"slot": "1",
						"type": "t_mapping(t_uint256,t_array(t_struct(ParentEdge)14_storage)dyn_storage)"
					},
					{
						"astId": 36,
						"contract": "contracts/ProvenanceGraph.sol:ProvenanceGraph",
						"label": "_totalBpsAllocated",
						"offset": 0,
						"slot": "2",
						"type": "t_mapping(t_uint256,t_uint16)"
					},
					{
						"astId": 40,
						"contract": "contracts/ProvenanceGraph.sol:ProvenanceGraph",
						"label": "_isFinalized",
						"offset": 0,
						"slot": "3",
						"type": "t_mapping(t_uint256,t_bool)"
					}
				],
				"types": {
					"t_address": {
						"encoding": "inplace",
						"label": "address",
						"numberOfBytes": "20"
					},
					"t_array(t_struct(ContributorEdge)9_storage)dyn_storage": {
						"base": "t_struct(ContributorEdge)9_storage",
						"encoding": "dynamic_array",
						"label": "struct ProvenanceGraph.ContributorEdge[]",
						"numberOfBytes": "32"
					},
					"t_array(t_struct(ParentEdge)14_storage)dyn_storage": {
						"base": "t_struct(ParentEdge)14_storage",
						"encoding": "dynamic_array",
						"label": "struct ProvenanceGraph.ParentEdge[]",
						"numberOfBytes": "32"
					},
					"t_bool": {
						"encoding": "inplace",
						"label": "bool",
						"numberOfBytes": "1"
					},
					"t_mapping(t_uint256,t_array(t_struct(ContributorEdge)9_storage)dyn_storage)": {
						"encoding": "mapping",
						"key": "t_uint256",
						"label": "mapping(uint256 => struct ProvenanceGraph.ContributorEdge[])",
						"numberOfBytes": "32",
						"value": "t_array(t_struct(ContributorEdge)9_storage)dyn_storage"
					},
					"t_mapping(t_uint256,t_array(t_struct(ParentEdge)14_storage)dyn_storage)": {
						"encoding": "mapping",
						"key": "t_uint256",
						"label": "mapping(uint256 => struct ProvenanceGraph.ParentEdge[])",
						"numberOfBytes": "32",
						"value": "t_array(t_struct(ParentEdge)14_storage)dyn_storage"
					},
					"t_mapping(t_uint256,t_bool)": {
						"encoding": "mapping",
						"key": "t_uint256",
						"label": "mapping(uint256 => bool)",
						"numberOfBytes": "32",
						"value": "t_bool"
					},
					"t_mapping(t_uint256,t_uint16)": {
						"encoding": "mapping",
						"key": "t_uint256",
						"label": "mapping(uint256 => uint16)",
						"numberOfBytes": "32",
						"value": "t_uint16"
					},
					"t_struct(ContributorEdge)9_storage": {
						"encoding": "inplace",
						"label": "struct ProvenanceGraph.ContributorEdge",
						"members": [
							{
								"astId": 6,
								"contract": "contracts/ProvenanceGraph.sol:ProvenanceGraph",
								"label": "contributor",
								"offset": 0,
								"slot": "0",
								"type": "t_address"
							},
							{
								"astId": 8,
								"contract": "contracts/ProvenanceGraph.sol:ProvenanceGraph",
								"label": "weightBps",
								"offset": 20,
								"slot": "0",
								"type": "t_uint16"
							}
						],
						"numberOfBytes": "32"
					},
					"t_struct(ParentEdge)14_storage": {
						"encoding": "inplace",
						"label": "struct ProvenanceGraph.ParentEdge",
						"members": [
							{
								"astId": 11,
								"contract": "contracts/ProvenanceGraph.sol:ProvenanceGraph",
								"label": "parentAssetId",
								"offset": 0,
								"slot": "0",
								"type": "t_uint256"
							},
							{
								"astId": 13,
								"contract": "contracts/ProvenanceGraph.sol:ProvenanceGraph",
								"label": "weightBps",
								"offset": 0,
								"slot": "1",
								"type": "t_uint16"
							}
						],
						"numberOfBytes": "64"
					},
					"t_uint16": {
						"encoding": "inplace",
						"label": "uint16",
						"numberOfBytes": "2"
					},
					"t_uint256": {
						"encoding": "inplace",
						"label": "uint256",
						"numberOfBytes": "32"
					}
				}
			},
			"userdoc": {
				"kind": "user",
				"methods": {
					"addContributorEdge(uint256,address,uint16)": {
						"notice": "Adds a contributor and their contribution weight to an asset's graph."
					},
					"addParentEdge(uint256,uint256,uint16)": {
						"notice": "Adds a parent asset and its contribution weight to a child asset's graph."
					},
					"finalize(uint256)": {
						"notice": "Finalizes the provenance graph for an asset, locking it permanently."
					},
					"getContributorEdges(uint256)": {
						"notice": "Retrieves all contributor edges for a given asset."
					},
					"getParentEdges(uint256)": {
						"notice": "Retrieves all parent asset edges for a given asset."
					},
					"getTotalBpsAllocated(uint256)": {
						"notice": "Returns the total basis points allocated for a given asset."
					},
					"isFinalized(uint256)": {
						"notice": "Returns true if the graph for a given asset has been finalized."
					}
				},
				"notice": "Manages the contribution graph for assets, linking them to contributor wallets and parent assets. The owner of an asset is responsible for defining and finalizing its provenance.",
				"version": 1
			}
		}
	}
}