{
	"contracts/EcommerceContract.sol": {
		"EcommerceContract": {
			"abi": [
				{
					"inputs": [],
					"stateMutability": "nonpayable",
					"type": "constructor"
				},
				{
					"inputs": [
						{
							"internalType": "address",
							"name": "owner",
							"type": "address"
						}
					],
					"name": "OwnableInvalidOwner",
					"type": "error"
				},
				{
					"inputs": [
						{
							"internalType": "address",
							"name": "account",
							"type": "address"
						}
					],
					"name": "OwnableUnauthorizedAccount",
					"type": "error"
				},
				{
					"anonymous": false,
					"inputs": [
						{
							"indexed": true,
							"internalType": "address",
							"name": "previousOwner",
							"type": "address"
						},
						{
							"indexed": true,
							"internalType": "address",
							"name": "newOwner",
							"type": "address"
						}
					],
					"name": "OwnershipTransferred",
					"type": "event"
				},
				{
					"anonymous": false,
					"inputs": [
						{
							"indexed": false,
							"internalType": "address[]",
							"name": "winners",
							"type": "address[]"
						},
						{
							"indexed": false,
							"internalType": "uint256[]",
							"name": "amounts",
							"type": "uint256[]"
						}
					],
					"name": "PrizesDistributed",
					"type": "event"
				},
				{
					"anonymous": false,
					"inputs": [
						{
							"indexed": true,
							"internalType": "address",
							"name": "buyer",
							"type": "address"
						},
						{
							"indexed": true,
							"internalType": "address",
							"name": "referrer",
							"type": "address"
						},
						{
							"indexed": false,
							"internalType": "uint256",
							"name": "amount",
							"type": "uint256"
						},
						{
							"indexed": false,
							"internalType": "uint256",
							"name": "commissionAmount",
							"type": "uint256"
						}
					],
					"name": "ProductPurchased",
					"type": "event"
				},
				{
					"inputs": [],
					"name": "PRODUCT_PRICE",
					"outputs": [
						{
							"internalType": "uint256",
							"name": "",
							"type": "uint256"
						}
					],
					"stateMutability": "view",
					"type": "function"
				},
				{
					"inputs": [],
					"name": "REFERRAL_COMMISSION_BPS",
					"outputs": [
						{
							"internalType": "uint256",
							"name": "",
							"type": "uint256"
						}
					],
					"stateMutability": "view",
					"type": "function"
				},
				{
					"inputs": [
						{
							"internalType": "address[]",
							"name": "_winners",
							"type": "address[]"
						},
						{
							"internalType": "uint256[]",
							"name": "_amounts",
							"type": "uint256[]"
						}
					],
					"name": "distributePrizes",
					"outputs": [],
					"stateMutability": "nonpayable",
					"type": "function"
				},
				{
					"inputs": [
						{
							"internalType": "address",
							"name": "",
							"type": "address"
						}
					],
					"name": "hasPurchased",
					"outputs": [
						{
							"internalType": "bool",
							"name": "",
							"type": "bool"
						}
					],
					"stateMutability": "view",
					"type": "function"
				},
				{
					"inputs": [],
					"name": "owner",
					"outputs": [
						{
							"internalType": "address",
							"name": "",
							"type": "address"
						}
					],
					"stateMutability": "view",
					"type": "function"
				},
				{
					"inputs": [
						{
							"internalType": "address",
							"name": "_referrer",
							"type": "address"
						}
					],
					"name": "purchase",
					"outputs": [],
					"stateMutability": "payable",
					"type": "function"
				},
				{
					"inputs": [],
					"name": "renounceOwnership",
					"outputs": [],
					"stateMutability": "nonpayable",
					"type": "function"
				},
				{
					"inputs": [
						{
							"internalType": "address",
							"name": "newOwner",
							"type": "address"
						}
					],
					"name": "transferOwnership",
					"outputs": [],
					"stateMutability": "nonpayable",
					"type": "function"
				},
				{
					"inputs": [],
					"name": "withdraw",
					"outputs": [],
					"stateMutability": "nonpayable",
					"type": "function"
				},
				{
					"stateMutability": "payable",
					"type": "receive"
				}
			],
			"devdoc": {
				"details": "A smart contract to manage product purchases, referral commissions, and lucky draw prize distributions for a MERN e-commerce application. This contract is intended for deployment on the Binance Smart Chain (BSC).",
				"errors": {
					"OwnableInvalidOwner(address)": [
						{
							"details": "The owner is not a valid owner account. (eg. `address(0)`)"
						}
					],
					"OwnableUnauthorizedAccount(address)": [
						{
							"details": "The caller account is not authorized to perform an operation."
						}
					]
				},
				"events": {
					"PrizesDistributed(address[],uint256[])": {
						"details": "Emitted when the admin distributes lucky draw prizes.",
						"params": {
							"amounts": "An array of the prize amounts sent to each winner.",
							"winners": "An array of addresses of the prize winners."
						}
					},
					"ProductPurchased(address,address,uint256,uint256)": {
						"details": "Emitted when a user successfully purchases the product.",
						"params": {
							"amount": "The total amount paid by the buyer.",
							"buyer": "The address of the user who made the purchase.",
							"commissionAmount": "The commission amount sent to the referrer.",
							"referrer": "The address of the referrer who received a commission."
						}
					}
				},
				"kind": "dev",
				"methods": {
					"constructor": {
						"details": "Sets the initial owner of the contract upon deployment. The deployer's address will be the owner."
					},
					"distributePrizes(address[],uint256[])": {
						"details": "Distributes prizes to lucky draw winners. Can only be called by the contract owner. The contract must be funded with enough BNB to cover all prize payments.",
						"params": {
							"_amounts": "An array of prize amounts corresponding to each winner.",
							"_winners": "An array of winner addresses."
						}
					},
					"owner()": {
						"details": "Returns the address of the current owner."
					},
					"purchase(address)": {
						"details": "Allows a user to purchase the product and triggers a commission payment.",
						"params": {
							"_referrer": "The wallet address of the user who referred the buyer. Use address(0) if there is no referrer."
						}
					},
					"renounceOwnership()": {
						"details": "Leaves the contract without owner. It will not be possible to call `onlyOwner` functions. Can only be called by the current owner. NOTE: Renouncing ownership will leave the contract without an owner, thereby disabling any functionality that is only available to the owner."
					},
					"transferOwnership(address)": {
						"details": "Transfers ownership of the contract to a new account (`newOwner`). Can only be called by the current owner."
					},
					"withdraw()": {
						"details": "Allows the owner to withdraw the contract's entire BNB balance. This is for transferring the 90% share of sales revenue to the project wallet."
					}
				},
				"title": "EcommerceContract",
				"version": 1
			},
			"evm": {
				"assembly": "    /* \"contracts/EcommerceContract.sol\":469:6203  contract EcommerceContract is Ownable {... */\n  mstore(0x40, 0x80)\n    /* \"contracts/EcommerceContract.sol\":2219:2255  constructor() Ownable(msg.sender) {} */\n  callvalue\n  dup1\n  iszero\n  tag_1\n  jumpi\n  0x00\n  dup1\n  revert\ntag_1:\n  pop\n    /* \"contracts/EcommerceContract.sol\":2241:2251  msg.sender */\n  caller\n    /* \"@openzeppelin/contracts/access/Ownable.sol\":1297:1298  0 */\n  0x00\n    /* \"@openzeppelin/contracts/access/Ownable.sol\":1273:1299  initialOwner == address(0) */\n  0xffffffffffffffffffffffffffffffffffffffff\n  and\n    /* \"@openzeppelin/contracts/access/Ownable.sol\":1273:1285  initialOwner */\n  dup2\n    /* \"@openzeppelin/contracts/access/Ownable.sol\":1273:1299  initialOwner == address(0) */\n  0xffffffffffffffffffffffffffffffffffffffff\n  and\n  sub\n    /* \"@openzeppelin/contracts/access/Ownable.sol\":1269:1364  if (initialOwner == address(0)) {... */\n  tag_5\n  jumpi\n    /* \"@openzeppelin/contracts/access/Ownable.sol\":1350:1351  0 */\n  0x00\n    /* \"@openzeppelin/contracts/access/Ownable.sol\":1322:1353  OwnableInvalidOwner(address(0)) */\n  mload(0x40)\n  0x1e4fbdf700000000000000000000000000000000000000000000000000000000\n  dup2\n  mstore\n  0x04\n  add\n  tag_6\n  swap2\n  swap1\n  tag_7\n  jump\t// in\ntag_6:\n  mload(0x40)\n  dup1\n  swap2\n  sub\n  swap1\n  revert\n    /* \"@openzeppelin/contracts/access/Ownable.sol\":1269:1364  if (initialOwner == address(0)) {... */\ntag_5:\n    /* \"@openzeppelin/contracts/access/Ownable.sol\":1373:1405  _transferOwnership(initialOwner) */\n  tag_8\n    /* \"@openzeppelin/contracts/access/Ownable.sol\":1392:1404  initialOwner */\n  dup2\n    /* \"@openzeppelin/contracts/access/Ownable.sol\":1373:1391  _transferOwnership */\n  shl(0x20, tag_9)\n    /* \"@openzeppelin/contracts/access/Ownable.sol\":1373:1405  _transferOwnership(initialOwner) */\n  0x20\n  shr\n  jump\t// in\ntag_8:\n    /* \"@openzeppelin/contracts/access/Ownable.sol\":1225:1412  constructor(address initialOwner) {... */\n  pop\n    /* \"contracts/EcommerceContract.sol\":469:6203  contract EcommerceContract is Ownable {... */\n  jump(tag_11)\n    /* \"@openzeppelin/contracts/access/Ownable.sol\":2912:3099  function _transferOwnership(address newOwner) internal virtual {... */\ntag_9:\n    /* \"@openzeppelin/contracts/access/Ownable.sol\":2985:3001  address oldOwner */\n  0x00\n    /* \"@openzeppelin/contracts/access/Ownable.sol\":3004:3010  _owner */\n  dup1\n  0x00\n  swap1\n  sload\n  swap1\n  0x0100\n  exp\n  swap1\n  div\n  0xffffffffffffffffffffffffffffffffffffffff\n  and\n    /* \"@openzeppelin/contracts/access/Ownable.sol\":2985:3010  address oldOwner = _owner */\n  swap1\n  pop\n    /* \"@openzeppelin/contracts/access/Ownable.sol\":3029:3037  newOwner */\n  dup2\n    /* \"@openzeppelin/contracts/access/Ownable.sol\":3020:3026  _owner */\n  0x00\n  dup1\n    /* \"@openzeppelin/contracts/access/Ownable.sol\":3020:3037  _owner = newOwner */\n  0x0100\n  exp\n  dup2\n  sload\n  dup2\n  0xffffffffffffffffffffffffffffffffffffffff\n  mul\n  not\n  and\n  swap1\n  dup4\n  0xffffffffffffffffffffffffffffffffffffffff\n  and\n  mul\n  or\n  swap1\n  sstore\n  pop\n    /* \"@openzeppelin/contracts/access/Ownable.sol\":3083:3091  newOwner */\n  dup2\n    /* \"@openzeppelin/contracts/access/Ownable.sol\":3052:3092  OwnershipTransferred(oldOwner, newOwner) */\n  0xffffffffffffffffffffffffffffffffffffffff\n  and\n    /* \"@openzeppelin/contracts/access/Ownable.sol\":3073:3081  oldOwner */\n  dup2\n    /* \"@openzeppelin/contracts/access/Ownable.sol\":3052:3092  OwnershipTransferred(oldOwner, newOwner) */\n  0xffffffffffffffffffffffffffffffffffffffff\n  and\n  0x8be0079c531659141344cd1fd0a4f28419497f9722a3daafe3b4186f6b6457e0\n  mload(0x40)\n  mload(0x40)\n  dup1\n  swap2\n  sub\n  swap1\n  log3\n    /* \"@openzeppelin/contracts/access/Ownable.sol\":2975:3099  {... */\n  pop\n    /* \"@openzeppelin/contracts/access/Ownable.sol\":2912:3099  function _transferOwnership(address newOwner) internal virtual {... */\n  pop\n  jump\t// out\n    /* \"#utility.yul\":7:133   */\ntag_13:\n    /* \"#utility.yul\":44:51   */\n  0x00\n    /* \"#utility.yul\":84:126   */\n  0xffffffffffffffffffffffffffffffffffffffff\n    /* \"#utility.yul\":77:82   */\n  dup3\n    /* \"#utility.yul\":73:127   */\n  and\n    /* \"#utility.yul\":62:127   */\n  swap1\n  pop\n    /* \"#utility.yul\":7:133   */\n  swap2\n  swap1\n  pop\n  jump\t// out\n    /* \"#utility.yul\":139:235   */\ntag_14:\n    /* \"#utility.yul\":176:183   */\n  0x00\n    /* \"#utility.yul\":205:229   */\n  tag_19\n    /* \"#utility.yul\":223:228   */\n  dup3\n    /* \"#utility.yul\":205:229   */\n  tag_13\n  jump\t// in\ntag_19:\n    /* \"#utility.yul\":194:229   */\n  swap1\n  pop\n    /* \"#utility.yul\":139:235   */\n  swap2\n  swap1\n  pop\n  jump\t// out\n    /* \"#utility.yul\":241:359   */\ntag_15:\n    /* \"#utility.yul\":328:352   */\n  tag_21\n    /* \"#utility.yul\":346:351   */\n  dup2\n    /* \"#utility.yul\":328:352   */\n  tag_14\n  jump\t// in\ntag_21:\n    /* \"#utility.yul\":323:326   */\n  dup3\n    /* \"#utility.yul\":316:353   */\n  mstore\n    /* \"#utility.yul\":241:359   */\n  pop\n  pop\n  jump\t// out\n    /* \"#utility.yul\":365:587   */\ntag_7:\n    /* \"#utility.yul\":458:462   */\n  0x00\n    /* \"#utility.yul\":496:498   */\n  0x20\n    /* \"#utility.yul\":485:494   */\n  dup3\n    /* \"#utility.yul\":481:499   */\n  add\n    /* \"#utility.yul\":473:499   */\n  swap1\n  pop\n    /* \"#utility.yul\":509:580   */\n  tag_23\n    /* \"#utility.yul\":577:578   */\n  0x00\n    /* \"#utility.yul\":566:575   */\n  dup4\n    /* \"#utility.yul\":562:579   */\n  add\n    /* \"#utility.yul\":553:559   */\n  dup5\n    /* \"#utility.yul\":509:580   */\n  tag_15\n  jump\t// in\ntag_23:\n    /* \"#utility.yul\":365:587   */\n  swap3\n  swap2\n  pop\n  pop\n  jump\t// out\n    /* \"contracts/EcommerceContract.sol\":469:6203  contract EcommerceContract is Ownable {... */\ntag_11:\n  dataSize(sub_0)\n  dup1\n  dataOffset(sub_0)\n  0x00\n  codecopy\n  0x00\n  return\nstop\n\nsub_0: assembly {\n        /* \"contracts/EcommerceContract.sol\":469:6203  contract EcommerceContract is Ownable {... */\n      mstore(0x40, 0x80)\n      jumpi(tag_1, lt(calldatasize, 0x04))\n      shr(0xe0, calldataload(0x00))\n      dup1\n      0x8da5cb5b\n      gt\n      tag_12\n      jumpi\n      dup1\n      0x8da5cb5b\n      eq\n      tag_7\n      jumpi\n      dup1\n      0x90118fb4\n      eq\n      tag_8\n      jumpi\n      dup1\n      0xa3d43e48\n      eq\n      tag_9\n      jumpi\n      dup1\n      0xb850091c\n      eq\n      tag_10\n      jumpi\n      dup1\n      0xf2fde38b\n      eq\n      tag_11\n      jumpi\n      jump(tag_2)\n    tag_12:\n      dup1\n      0x25b31a97\n      eq\n      tag_3\n      jumpi\n      dup1\n      0x3ccfd60b\n      eq\n      tag_4\n      jumpi\n      dup1\n      0x406a378a\n      eq\n      tag_5\n      jumpi\n      dup1\n      0x715018a6\n      eq\n      tag_6\n      jumpi\n      jump(tag_2)\n    tag_1:\n      jumpi(tag_2, calldatasize)\n      stop\n    tag_2:\n      0x00\n      dup1\n      revert\n        /* \"contracts/EcommerceContract.sol\":2614:3672  function purchase(address _referrer) external payable {... */\n    tag_3:\n      tag_15\n      0x04\n      dup1\n      calldatasize\n      sub\n      dup2\n      add\n      swap1\n      tag_16\n      swap2\n      swap1\n      tag_17\n      jump\t// in\n    tag_16:\n      tag_18\n      jump\t// in\n    tag_15:\n      stop\n        /* \"contracts/EcommerceContract.sol\":5832:6078  function withdraw() external onlyOwner {... */\n    tag_4:\n      callvalue\n      dup1\n      iszero\n      tag_19\n      jumpi\n      0x00\n      dup1\n      revert\n    tag_19:\n      pop\n      tag_20\n      tag_21\n      jump\t// in\n    tag_20:\n      stop\n        /* \"contracts/EcommerceContract.sol\":4010:5520  function distributePrizes(... */\n    tag_5:\n      callvalue\n      dup1\n      iszero\n      tag_22\n      jumpi\n      0x00\n      dup1\n      revert\n    tag_22:\n      pop\n      tag_23\n      0x04\n      dup1\n      calldatasize\n      sub\n      dup2\n      add\n      swap1\n      tag_24\n      swap2\n      swap1\n      tag_25\n      jump\t// in\n    tag_24:\n      tag_26\n      jump\t// in\n    tag_23:\n      stop\n        /* \"@openzeppelin/contracts/access/Ownable.sol\":2293:2394  function renounceOwnership() public virtual onlyOwner {... */\n    tag_6:\n      callvalue\n      dup1\n      iszero\n      tag_27\n      jumpi\n      0x00\n      dup1\n      revert\n    tag_27:\n      pop\n      tag_28\n      tag_29\n      jump\t// in\n    tag_28:\n      stop\n        /* \"@openzeppelin/contracts/access/Ownable.sol\":1638:1723  function owner() public view virtual returns (address) {... */\n    tag_7:\n      callvalue\n      dup1\n      iszero\n      tag_30\n      jumpi\n      0x00\n      dup1\n      revert\n    tag_30:\n      pop\n      tag_31\n      tag_32\n      jump\t// in\n    tag_31:\n      mload(0x40)\n      tag_33\n      swap2\n      swap1\n      tag_34\n      jump\t// in\n    tag_33:\n      mload(0x40)\n      dup1\n      swap2\n      sub\n      swap1\n      return\n        /* \"contracts/EcommerceContract.sol\":973:1017  mapping(address => bool) public hasPurchased */\n    tag_8:\n      callvalue\n      dup1\n      iszero\n      tag_35\n      jumpi\n      0x00\n      dup1\n      revert\n    tag_35:\n      pop\n      tag_36\n      0x04\n      dup1\n      calldatasize\n      sub\n      dup2\n      add\n      swap1\n      tag_37\n      swap2\n      swap1\n      tag_17\n      jump\t// in\n    tag_37:\n      tag_38\n      jump\t// in\n    tag_36:\n      mload(0x40)\n      tag_39\n      swap2\n      swap1\n      tag_40\n      jump\t// in\n    tag_39:\n      mload(0x40)\n      dup1\n      swap2\n      sub\n      swap1\n      return\n        /* \"contracts/EcommerceContract.sol\":734:788  uint256 public constant REFERRAL_COMMISSION_BPS = 1000 */\n    tag_9:\n      callvalue\n      dup1\n      iszero\n      tag_41\n      jumpi\n      0x00\n      dup1\n      revert\n    tag_41:\n      pop\n      tag_42\n      tag_43\n      jump\t// in\n    tag_42:\n      mload(0x40)\n      tag_44\n      swap2\n      swap1\n      tag_45\n      jump\t// in\n    tag_44:\n      mload(0x40)\n      dup1\n      swap2\n      sub\n      swap1\n      return\n        /* \"contracts/EcommerceContract.sol\":634:684  uint256 public constant PRODUCT_PRICE = 0.05 ether */\n    tag_10:\n      callvalue\n      dup1\n      iszero\n      tag_46\n      jumpi\n      0x00\n      dup1\n      revert\n    tag_46:\n      pop\n      tag_47\n      tag_48\n      jump\t// in\n    tag_47:\n      mload(0x40)\n      tag_49\n      swap2\n      swap1\n      tag_45\n      jump\t// in\n    tag_49:\n      mload(0x40)\n      dup1\n      swap2\n      sub\n      swap1\n      return\n        /* \"@openzeppelin/contracts/access/Ownable.sol\":2543:2758  function transferOwnership(address newOwner) public virtual onlyOwner {... */\n    tag_11:\n      callvalue\n      dup1\n      iszero\n      tag_50\n      jumpi\n      0x00\n      dup1\n      revert\n    tag_50:\n      pop\n      tag_51\n      0x04\n      dup1\n      calldatasize\n      sub\n      dup2\n      add\n      swap1\n      tag_52\n      swap2\n      swap1\n      tag_17\n      jump\t// in\n    tag_52:\n      tag_53\n      jump\t// in\n    tag_51:\n      stop\n        /* \"contracts/EcommerceContract.sol\":2614:3672  function purchase(address _referrer) external payable {... */\n    tag_18:\n        /* \"contracts/EcommerceContract.sol\":674:684  0.05 ether */\n      0xb1a2bc2ec50000\n        /* \"contracts/EcommerceContract.sol\":2744:2753  msg.value */\n      callvalue\n        /* \"contracts/EcommerceContract.sol\":2744:2770  msg.value == PRODUCT_PRICE */\n      eq\n        /* \"contracts/EcommerceContract.sol\":2722:2852  require(... */\n      tag_55\n      jumpi\n      mload(0x40)\n      0x08c379a000000000000000000000000000000000000000000000000000000000\n      dup2\n      mstore\n      0x04\n      add\n      tag_56\n      swap1\n      tag_57\n      jump\t// in\n    tag_56:\n      mload(0x40)\n      dup1\n      swap2\n      sub\n      swap1\n      revert\n    tag_55:\n        /* \"contracts/EcommerceContract.sol\":2954:2958  true */\n      0x01\n        /* \"contracts/EcommerceContract.sol\":2927:2939  hasPurchased */\n      dup1\n        /* \"contracts/EcommerceContract.sol\":2927:2951  hasPurchased[msg.sender] */\n      0x00\n        /* \"contracts/EcommerceContract.sol\":2940:2950  msg.sender */\n      caller\n        /* \"contracts/EcommerceContract.sol\":2927:2951  hasPurchased[msg.sender] */\n      0xffffffffffffffffffffffffffffffffffffffff\n      and\n      0xffffffffffffffffffffffffffffffffffffffff\n      and\n      dup2\n      mstore\n      0x20\n      add\n      swap1\n      dup2\n      mstore\n      0x20\n      add\n      0x00\n      keccak256\n      0x00\n        /* \"contracts/EcommerceContract.sol\":2927:2958  hasPurchased[msg.sender] = true */\n      0x0100\n      exp\n      dup2\n      sload\n      dup2\n      0xff\n      mul\n      not\n      and\n      swap1\n      dup4\n      iszero\n      iszero\n      mul\n      or\n      swap1\n      sstore\n      pop\n        /* \"contracts/EcommerceContract.sol\":2971:2995  uint256 commissionAmount */\n      0x00\n        /* \"contracts/EcommerceContract.sol\":3111:3112  0 */\n      dup1\n        /* \"contracts/EcommerceContract.sol\":3090:3113  _referrer != address(0) */\n      0xffffffffffffffffffffffffffffffffffffffff\n      and\n        /* \"contracts/EcommerceContract.sol\":3090:3099  _referrer */\n      dup3\n        /* \"contracts/EcommerceContract.sol\":3090:3113  _referrer != address(0) */\n      0xffffffffffffffffffffffffffffffffffffffff\n      and\n      eq\n      iszero\n        /* \"contracts/EcommerceContract.sol\":3090:3140  _referrer != address(0) && _referrer != msg.sender */\n      dup1\n      iszero\n      tag_58\n      jumpi\n      pop\n        /* \"contracts/EcommerceContract.sol\":3130:3140  msg.sender */\n      caller\n        /* \"contracts/EcommerceContract.sol\":3117:3140  _referrer != msg.sender */\n      0xffffffffffffffffffffffffffffffffffffffff\n      and\n        /* \"contracts/EcommerceContract.sol\":3117:3126  _referrer */\n      dup3\n        /* \"contracts/EcommerceContract.sol\":3117:3140  _referrer != msg.sender */\n      0xffffffffffffffffffffffffffffffffffffffff\n      and\n      eq\n      iszero\n        /* \"contracts/EcommerceContract.sol\":3090:3140  _referrer != address(0) && _referrer != msg.sender */\n    tag_58:\n        /* \"contracts/EcommerceContract.sol\":3086:3465  if (_referrer != address(0) && _referrer != msg.sender) {... */\n      iszero\n      tag_59\n      jumpi\n        /* \"contracts/EcommerceContract.sol\":3216:3221  10000 */\n      0x2710\n        /* \"contracts/EcommerceContract.sol\":784:788  1000 */\n      0x03e8\n        /* \"contracts/EcommerceContract.sol\":3177:3186  msg.value */\n      callvalue\n        /* \"contracts/EcommerceContract.sol\":3177:3212  msg.value * REFERRAL_COMMISSION_BPS */\n      tag_60\n      swap2\n      swap1\n      tag_61\n      jump\t// in\n    tag_60:\n        /* \"contracts/EcommerceContract.sol\":3176:3221  (msg.value * REFERRAL_COMMISSION_BPS) / 10000 */\n      tag_62\n      swap2\n      swap1\n      tag_63\n      jump\t// in\n    tag_62:\n        /* \"contracts/EcommerceContract.sol\":3157:3221  commissionAmount = (msg.value * REFERRAL_COMMISSION_BPS) / 10000 */\n      swap1\n      pop\n        /* \"contracts/EcommerceContract.sol\":3312:3324  bool success */\n      0x00\n        /* \"contracts/EcommerceContract.sol\":3330:3339  _referrer */\n      dup3\n        /* \"contracts/EcommerceContract.sol\":3330:3344  _referrer.call */\n      0xffffffffffffffffffffffffffffffffffffffff\n      and\n        /* \"contracts/EcommerceContract.sol\":3352:3368  commissionAmount */\n      dup3\n        /* \"contracts/EcommerceContract.sol\":3330:3373  _referrer.call{value: commissionAmount}(\"\") */\n      mload(0x40)\n      tag_64\n      swap1\n      tag_65\n      jump\t// in\n    tag_64:\n      0x00\n      mload(0x40)\n      dup1\n      dup4\n      sub\n      dup2\n      dup6\n      dup8\n      gas\n      call\n      swap3\n      pop\n      pop\n      pop\n      returndatasize\n      dup1\n      0x00\n      dup2\n      eq\n      tag_68\n      jumpi\n      mload(0x40)\n      swap2\n      pop\n      and(add(returndatasize, 0x3f), not(0x1f))\n      dup3\n      add\n      0x40\n      mstore\n      returndatasize\n      dup3\n      mstore\n      returndatasize\n      0x00\n      0x20\n      dup5\n      add\n      returndatacopy\n      jump(tag_67)\n    tag_68:\n      0x60\n      swap2\n      pop\n    tag_67:\n      pop\n        /* \"contracts/EcommerceContract.sol\":3311:3373  (bool success, ) = _referrer.call{value: commissionAmount}(\"\") */\n      pop\n      swap1\n      pop\n        /* \"contracts/EcommerceContract.sol\":3396:3403  success */\n      dup1\n        /* \"contracts/EcommerceContract.sol\":3388:3453  require(success, \"EcommerceContract: Failed to send commission.\") */\n      tag_69\n      jumpi\n      mload(0x40)\n      0x08c379a000000000000000000000000000000000000000000000000000000000\n      dup2\n      mstore\n      0x04\n      add\n      tag_70\n      swap1\n      tag_71\n      jump\t// in\n    tag_70:\n      mload(0x40)\n      dup1\n      swap2\n      sub\n      swap1\n      revert\n    tag_69:\n        /* \"contracts/EcommerceContract.sol\":3142:3465  {... */\n      pop\n        /* \"contracts/EcommerceContract.sol\":3086:3465  if (_referrer != address(0) && _referrer != msg.sender) {... */\n    tag_59:\n        /* \"contracts/EcommerceContract.sol\":3589:3598  _referrer */\n      dup2\n        /* \"contracts/EcommerceContract.sol\":3533:3664  ProductPurchased(... */\n      0xffffffffffffffffffffffffffffffffffffffff\n      and\n        /* \"contracts/EcommerceContract.sol\":3564:3574  msg.sender */\n      caller\n        /* \"contracts/EcommerceContract.sol\":3533:3664  ProductPurchased(... */\n      0xffffffffffffffffffffffffffffffffffffffff\n      and\n      0x41dc839b8160b1ba39281669abfad1e88e8a9d5f7e3cb234fe2a8d6067d5b013\n        /* \"contracts/EcommerceContract.sol\":3613:3622  msg.value */\n      callvalue\n        /* \"contracts/EcommerceContract.sol\":3637:3653  commissionAmount */\n      dup5\n        /* \"contracts/EcommerceContract.sol\":3533:3664  ProductPurchased(... */\n      mload(0x40)\n      tag_72\n      swap3\n      swap2\n      swap1\n      tag_73\n      jump\t// in\n    tag_72:\n      mload(0x40)\n      dup1\n      swap2\n      sub\n      swap1\n      log3\n        /* \"contracts/EcommerceContract.sol\":2668:3672  {... */\n      pop\n        /* \"contracts/EcommerceContract.sol\":2614:3672  function purchase(address _referrer) external payable {... */\n      pop\n      jump\t// out\n        /* \"contracts/EcommerceContract.sol\":5832:6078  function withdraw() external onlyOwner {... */\n    tag_21:\n        /* \"@openzeppelin/contracts/access/Ownable.sol\":1531:1544  _checkOwner() */\n      tag_75\n        /* \"@openzeppelin/contracts/access/Ownable.sol\":1531:1542  _checkOwner */\n      tag_76\n        /* \"@openzeppelin/contracts/access/Ownable.sol\":1531:1544  _checkOwner() */\n      jump\t// in\n    tag_75:\n        /* \"contracts/EcommerceContract.sol\":5883:5895  bool success */\n      0x00\n        /* \"contracts/EcommerceContract.sol\":5901:5908  owner() */\n      tag_78\n        /* \"contracts/EcommerceContract.sol\":5901:5906  owner */\n      tag_32\n        /* \"contracts/EcommerceContract.sol\":5901:5908  owner() */\n      jump\t// in\n    tag_78:\n        /* \"contracts/EcommerceContract.sol\":5901:5913  owner().call */\n      0xffffffffffffffffffffffffffffffffffffffff\n      and\n        /* \"contracts/EcommerceContract.sol\":5921:5942  address(this).balance */\n      selfbalance\n        /* \"contracts/EcommerceContract.sol\":5901:5947  owner().call{value: address(this).balance}(\"\") */\n      mload(0x40)\n      tag_79\n      swap1\n      tag_65\n      jump\t// in\n    tag_79:\n      0x00\n      mload(0x40)\n      dup1\n      dup4\n      sub\n      dup2\n      dup6\n      dup8\n      gas\n      call\n      swap3\n      pop\n      pop\n      pop\n      returndatasize\n      dup1\n      0x00\n      dup2\n      eq\n      tag_82\n      jumpi\n      mload(0x40)\n      swap2\n      pop\n      and(add(returndatasize, 0x3f), not(0x1f))\n      dup3\n      add\n      0x40\n      mstore\n      returndatasize\n      dup3\n      mstore\n      returndatasize\n      0x00\n      0x20\n      dup5\n      add\n      returndatacopy\n      jump(tag_81)\n    tag_82:\n      0x60\n      swap2\n      pop\n    tag_81:\n      pop\n        /* \"contracts/EcommerceContract.sol\":5882:5947  (bool success, ) = owner().call{value: address(this).balance}(\"\") */\n      pop\n      swap1\n      pop\n        /* \"contracts/EcommerceContract.sol\":5980:5987  success */\n      dup1\n        /* \"contracts/EcommerceContract.sol\":5958:6070  require(... */\n      tag_83\n      jumpi\n      mload(0x40)\n      0x08c379a000000000000000000000000000000000000000000000000000000000\n      dup2\n      mstore\n      0x04\n      add\n      tag_84\n      swap1\n      tag_85\n      jump\t// in\n    tag_84:\n      mload(0x40)\n      dup1\n      swap2\n      sub\n      swap1\n      revert\n    tag_83:\n        /* \"contracts/EcommerceContract.sol\":5871:6078  {... */\n      pop\n        /* \"contracts/EcommerceContract.sol\":5832:6078  function withdraw() external onlyOwner {... */\n      jump\t// out\n        /* \"contracts/EcommerceContract.sol\":4010:5520  function distributePrizes(... */\n    tag_26:\n        /* \"@openzeppelin/contracts/access/Ownable.sol\":1531:1544  _checkOwner() */\n      tag_87\n        /* \"@openzeppelin/contracts/access/Ownable.sol\":1531:1542  _checkOwner */\n      tag_76\n        /* \"@openzeppelin/contracts/access/Ownable.sol\":1531:1544  _checkOwner() */\n      jump\t// in\n    tag_87:\n        /* \"contracts/EcommerceContract.sol\":4271:4272  0 */\n      0x00\n        /* \"contracts/EcommerceContract.sol\":4253:4261  _winners */\n      dup5\n      dup5\n        /* \"contracts/EcommerceContract.sol\":4253:4268  _winners.length */\n      swap1\n      pop\n        /* \"contracts/EcommerceContract.sol\":4253:4272  _winners.length > 0 */\n      gt\n        /* \"contracts/EcommerceContract.sol\":4231:4349  require(... */\n      tag_89\n      jumpi\n      mload(0x40)\n      0x08c379a000000000000000000000000000000000000000000000000000000000\n      dup2\n      mstore\n      0x04\n      add\n      tag_90\n      swap1\n      tag_91\n      jump\t// in\n    tag_90:\n      mload(0x40)\n      dup1\n      swap2\n      sub\n      swap1\n      revert\n    tag_89:\n        /* \"contracts/EcommerceContract.sol\":4401:4409  _amounts */\n      dup2\n      dup2\n        /* \"contracts/EcommerceContract.sol\":4401:4416  _amounts.length */\n      swap1\n      pop\n        /* \"contracts/EcommerceContract.sol\":4382:4390  _winners */\n      dup5\n      dup5\n        /* \"contracts/EcommerceContract.sol\":4382:4397  _winners.length */\n      swap1\n      pop\n        /* \"contracts/EcommerceContract.sol\":4382:4416  _winners.length == _amounts.length */\n      eq\n        /* \"contracts/EcommerceContract.sol\":4360:4516  require(... */\n      tag_92\n      jumpi\n      mload(0x40)\n      0x08c379a000000000000000000000000000000000000000000000000000000000\n      dup2\n      mstore\n      0x04\n      add\n      tag_93\n      swap1\n      tag_94\n      jump\t// in\n    tag_93:\n      mload(0x40)\n      dup1\n      swap2\n      sub\n      swap1\n      revert\n    tag_92:\n        /* \"contracts/EcommerceContract.sol\":4529:4553  uint256 totalPrizeAmount */\n      0x00\n        /* \"contracts/EcommerceContract.sol\":4573:4579  uint i */\n      dup1\n        /* \"contracts/EcommerceContract.sol\":4568:4669  for (uint i = 0; i < _amounts.length; i++) {... */\n    tag_95:\n        /* \"contracts/EcommerceContract.sol\":4589:4597  _amounts */\n      dup4\n      dup4\n        /* \"contracts/EcommerceContract.sol\":4589:4604  _amounts.length */\n      swap1\n      pop\n        /* \"contracts/EcommerceContract.sol\":4585:4586  i */\n      dup2\n        /* \"contracts/EcommerceContract.sol\":4585:4604  i < _amounts.length */\n      lt\n        /* \"contracts/EcommerceContract.sol\":4568:4669  for (uint i = 0; i < _amounts.length; i++) {... */\n      iszero\n      tag_96\n      jumpi\n        /* \"contracts/EcommerceContract.sol\":4646:4654  _amounts */\n      dup4\n      dup4\n        /* \"contracts/EcommerceContract.sol\":4655:4656  i */\n      dup3\n        /* \"contracts/EcommerceContract.sol\":4646:4657  _amounts[i] */\n      dup2\n      dup2\n      lt\n      tag_98\n      jumpi\n      tag_99\n      tag_100\n      jump\t// in\n    tag_99:\n    tag_98:\n      swap1\n      pop\n      0x20\n      mul\n      add\n      calldataload\n        /* \"contracts/EcommerceContract.sol\":4626:4657  totalPrizeAmount += _amounts[i] */\n      dup3\n      tag_101\n      swap2\n      swap1\n      tag_102\n      jump\t// in\n    tag_101:\n      swap2\n      pop\n        /* \"contracts/EcommerceContract.sol\":4606:4609  i++ */\n      dup1\n      dup1\n      tag_103\n      swap1\n      tag_104\n      jump\t// in\n    tag_103:\n      swap2\n      pop\n      pop\n        /* \"contracts/EcommerceContract.sol\":4568:4669  for (uint i = 0; i < _amounts.length; i++) {... */\n      jump(tag_95)\n    tag_96:\n      pop\n        /* \"contracts/EcommerceContract.sol\":4799:4815  totalPrizeAmount */\n      dup1\n        /* \"contracts/EcommerceContract.sol\":4774:4795  address(this).balance */\n      selfbalance\n        /* \"contracts/EcommerceContract.sol\":4774:4815  address(this).balance >= totalPrizeAmount */\n      lt\n      iszero\n        /* \"contracts/EcommerceContract.sol\":4752:4913  require(... */\n      tag_105\n      jumpi\n      mload(0x40)\n      0x08c379a000000000000000000000000000000000000000000000000000000000\n      dup2\n      mstore\n      0x04\n      add\n      tag_106\n      swap1\n      tag_107\n      jump\t// in\n    tag_106:\n      mload(0x40)\n      dup1\n      swap2\n      sub\n      swap1\n      revert\n    tag_105:\n        /* \"contracts/EcommerceContract.sol\":4990:4996  uint i */\n      0x00\n        /* \"contracts/EcommerceContract.sol\":4985:5409  for (uint i = 0; i < _winners.length; i++) {... */\n    tag_108:\n        /* \"contracts/EcommerceContract.sol\":5006:5014  _winners */\n      dup6\n      dup6\n        /* \"contracts/EcommerceContract.sol\":5006:5021  _winners.length */\n      swap1\n      pop\n        /* \"contracts/EcommerceContract.sol\":5002:5003  i */\n      dup2\n        /* \"contracts/EcommerceContract.sol\":5002:5021  i < _winners.length */\n      lt\n        /* \"contracts/EcommerceContract.sol\":4985:5409  for (uint i = 0; i < _winners.length; i++) {... */\n      iszero\n      tag_109\n      jumpi\n        /* \"contracts/EcommerceContract.sol\":5092:5093  0 */\n      0x00\n        /* \"contracts/EcommerceContract.sol\":5069:5094  _winners[i] != address(0) */\n      0xffffffffffffffffffffffffffffffffffffffff\n      and\n        /* \"contracts/EcommerceContract.sol\":5069:5077  _winners */\n      dup7\n      dup7\n        /* \"contracts/EcommerceContract.sol\":5078:5079  i */\n      dup4\n        /* \"contracts/EcommerceContract.sol\":5069:5080  _winners[i] */\n      dup2\n      dup2\n      lt\n      tag_111\n      jumpi\n      tag_112\n      tag_100\n      jump\t// in\n    tag_112:\n    tag_111:\n      swap1\n      pop\n      0x20\n      mul\n      add\n      0x20\n      dup2\n      add\n      swap1\n      tag_113\n      swap2\n      swap1\n      tag_17\n      jump\t// in\n    tag_113:\n        /* \"contracts/EcommerceContract.sol\":5069:5094  _winners[i] != address(0) */\n      0xffffffffffffffffffffffffffffffffffffffff\n      and\n      sub\n        /* \"contracts/EcommerceContract.sol\":5043:5187  require(... */\n      tag_114\n      jumpi\n      mload(0x40)\n      0x08c379a000000000000000000000000000000000000000000000000000000000\n      dup2\n      mstore\n      0x04\n      add\n      tag_115\n      swap1\n      tag_116\n      jump\t// in\n    tag_115:\n      mload(0x40)\n      dup1\n      swap2\n      sub\n      swap1\n      revert\n    tag_114:\n        /* \"contracts/EcommerceContract.sol\":5203:5215  bool success */\n      0x00\n        /* \"contracts/EcommerceContract.sol\":5221:5229  _winners */\n      dup7\n      dup7\n        /* \"contracts/EcommerceContract.sol\":5230:5231  i */\n      dup4\n        /* \"contracts/EcommerceContract.sol\":5221:5232  _winners[i] */\n      dup2\n      dup2\n      lt\n      tag_117\n      jumpi\n      tag_118\n      tag_100\n      jump\t// in\n    tag_118:\n    tag_117:\n      swap1\n      pop\n      0x20\n      mul\n      add\n      0x20\n      dup2\n      add\n      swap1\n      tag_119\n      swap2\n      swap1\n      tag_17\n      jump\t// in\n    tag_119:\n        /* \"contracts/EcommerceContract.sol\":5221:5237  _winners[i].call */\n      0xffffffffffffffffffffffffffffffffffffffff\n      and\n        /* \"contracts/EcommerceContract.sol\":5245:5253  _amounts */\n      dup6\n      dup6\n        /* \"contracts/EcommerceContract.sol\":5254:5255  i */\n      dup5\n        /* \"contracts/EcommerceContract.sol\":5245:5256  _amounts[i] */\n      dup2\n      dup2\n      lt\n      tag_120\n      jumpi\n      tag_121\n      tag_100\n      jump\t// in\n    tag_121:\n    tag_120:\n      swap1\n      pop\n      0x20\n      mul\n      add\n      calldataload\n        /* \"contracts/EcommerceContract.sol\":5221:5261  _winners[i].call{value: _amounts[i]}(\"\") */\n      mload(0x40)\n      tag_122\n      swap1\n      tag_65\n      jump\t// in\n    tag_122:\n      0x00\n      mload(0x40)\n      dup1\n      dup4\n      sub\n      dup2\n      dup6\n      dup8\n      gas\n      call\n      swap3\n      pop\n      pop\n      pop\n      returndatasize\n      dup1\n      0x00\n      dup2\n      eq\n      tag_125\n      jumpi\n      mload(0x40)\n      swap2\n      pop\n      and(add(returndatasize, 0x3f), not(0x1f))\n      dup3\n      add\n      0x40\n      mstore\n      returndatasize\n      dup3\n      mstore\n      returndatasize\n      0x00\n      0x20\n      dup5\n      add\n      returndatacopy\n      jump(tag_124)\n    tag_125:\n      0x60\n      swap2\n      pop\n    tag_124:\n      pop\n        /* \"contracts/EcommerceContract.sol\":5202:5261  (bool success, ) = _winners[i].call{value: _amounts[i]}(\"\") */\n      pop\n      swap1\n      pop\n        /* \"contracts/EcommerceContract.sol\":5302:5309  success */\n      dup1\n        /* \"contracts/EcommerceContract.sol\":5276:5397  require(... */\n      tag_126\n      jumpi\n      mload(0x40)\n      0x08c379a000000000000000000000000000000000000000000000000000000000\n      dup2\n      mstore\n      0x04\n      add\n      tag_127\n      swap1\n      tag_128\n      jump\t// in\n    tag_127:\n      mload(0x40)\n      dup1\n      swap2\n      sub\n      swap1\n      revert\n    tag_126:\n        /* \"contracts/EcommerceContract.sol\":5028:5409  {... */\n      pop\n        /* \"contracts/EcommerceContract.sol\":5023:5026  i++ */\n      dup1\n      dup1\n      tag_129\n      swap1\n      tag_104\n      jump\t// in\n    tag_129:\n      swap2\n      pop\n      pop\n        /* \"contracts/EcommerceContract.sol\":4985:5409  for (uint i = 0; i < _winners.length; i++) {... */\n      jump(tag_108)\n    tag_109:\n      pop\n        /* \"contracts/EcommerceContract.sol\":5475:5512  PrizesDistributed(_winners, _amounts) */\n      0xfa3b7284ecb3a03e8f238b69b61f5645294c15019ea509bd4aaee604d60fdc34\n        /* \"contracts/EcommerceContract.sol\":5493:5501  _winners */\n      dup6\n      dup6\n        /* \"contracts/EcommerceContract.sol\":5503:5511  _amounts */\n      dup6\n      dup6\n        /* \"contracts/EcommerceContract.sol\":5475:5512  PrizesDistributed(_winners, _amounts) */\n      mload(0x40)\n      tag_130\n      swap5\n      swap4\n      swap3\n      swap2\n      swap1\n      tag_131\n      jump\t// in\n    tag_130:\n      mload(0x40)\n      dup1\n      swap2\n      sub\n      swap1\n      log1\n        /* \"contracts/EcommerceContract.sol\":4138:5520  {... */\n      pop\n        /* \"contracts/EcommerceContract.sol\":4010:5520  function distributePrizes(... */\n      pop\n      pop\n      pop\n      pop\n      jump\t// out\n        /* \"@openzeppelin/contracts/access/Ownable.sol\":2293:2394  function renounceOwnership() public virtual onlyOwner {... */\n    tag_29:\n        /* \"@openzeppelin/contracts/access/Ownable.sol\":1531:1544  _checkOwner() */\n      tag_133\n        /* \"@openzeppelin/contracts/access/Ownable.sol\":1531:1542  _checkOwner */\n      tag_76\n        /* \"@openzeppelin/contracts/access/Ownable.sol\":1531:1544  _checkOwner() */\n      jump\t// in\n    tag_133:\n        /* \"@openzeppelin/contracts/access/Ownable.sol\":2357:2387  _transferOwnership(address(0)) */\n      tag_135\n        /* \"@openzeppelin/contracts/access/Ownable.sol\":2384:2385  0 */\n      0x00\n        /* \"@openzeppelin/contracts/access/Ownable.sol\":2357:2375  _transferOwnership */\n      tag_136\n        /* \"@openzeppelin/contracts/access/Ownable.sol\":2357:2387  _transferOwnership(address(0)) */\n      jump\t// in\n    tag_135:\n        /* \"@openzeppelin/contracts/access/Ownable.sol\":2293:2394  function renounceOwnership() public virtual onlyOwner {... */\n      jump\t// out\n        /* \"@openzeppelin/contracts/access/Ownable.sol\":1638:1723  function owner() public view virtual returns (address) {... */\n    tag_32:\n        /* \"@openzeppelin/contracts/access/Ownable.sol\":1684:1691  address */\n      0x00\n        /* \"@openzeppelin/contracts/access/Ownable.sol\":1710:1716  _owner */\n      dup1\n      0x00\n      swap1\n      sload\n      swap1\n      0x0100\n      exp\n      swap1\n      div\n      0xffffffffffffffffffffffffffffffffffffffff\n      and\n        /* \"@openzeppelin/contracts/access/Ownable.sol\":1703:1716  return _owner */\n      swap1\n      pop\n        /* \"@openzeppelin/contracts/access/Ownable.sol\":1638:1723  function owner() public view virtual returns (address) {... */\n      swap1\n      jump\t// out\n        /* \"contracts/EcommerceContract.sol\":973:1017  mapping(address => bool) public hasPurchased */\n    tag_38:\n      mstore(0x20, 0x01)\n      dup1\n      0x00\n      mstore\n      keccak256(0x00, 0x40)\n      0x00\n      swap2\n      pop\n      sload\n      swap1\n      0x0100\n      exp\n      swap1\n      div\n      0xff\n      and\n      dup2\n      jump\t// out\n        /* \"contracts/EcommerceContract.sol\":734:788  uint256 public constant REFERRAL_COMMISSION_BPS = 1000 */\n    tag_43:\n        /* \"contracts/EcommerceContract.sol\":784:788  1000 */\n      0x03e8\n        /* \"contracts/EcommerceContract.sol\":734:788  uint256 public constant REFERRAL_COMMISSION_BPS = 1000 */\n      dup2\n      jump\t// out\n        /* \"contracts/EcommerceContract.sol\":634:684  uint256 public constant PRODUCT_PRICE = 0.05 ether */\n    tag_48:\n        /* \"contracts/EcommerceContract.sol\":674:684  0.05 ether */\n      0xb1a2bc2ec50000\n        /* \"contracts/EcommerceContract.sol\":634:684  uint256 public constant PRODUCT_PRICE = 0.05 ether */\n      dup2\n      jump\t// out\n        /* \"@openzeppelin/contracts/access/Ownable.sol\":2543:2758  function transferOwnership(address newOwner) public virtual onlyOwner {... */\n    tag_53:\n        /* \"@openzeppelin/contracts/access/Ownable.sol\":1531:1544  _checkOwner() */\n      tag_139\n        /* \"@openzeppelin/contracts/access/Ownable.sol\":1531:1542  _checkOwner */\n      tag_76\n        /* \"@openzeppelin/contracts/access/Ownable.sol\":1531:1544  _checkOwner() */\n      jump\t// in\n    tag_139:\n        /* \"@openzeppelin/contracts/access/Ownable.sol\":2647:2648  0 */\n      0x00\n        /* \"@openzeppelin/contracts/access/Ownable.sol\":2627:2649  newOwner == address(0) */\n      0xffffffffffffffffffffffffffffffffffffffff\n      and\n        /* \"@openzeppelin/contracts/access/Ownable.sol\":2627:2635  newOwner */\n      dup2\n        /* \"@openzeppelin/contracts/access/Ownable.sol\":2627:2649  newOwner == address(0) */\n      0xffffffffffffffffffffffffffffffffffffffff\n      and\n      sub\n        /* \"@openzeppelin/contracts/access/Ownable.sol\":2623:2714  if (newOwner == address(0)) {... */\n      tag_141\n      jumpi\n        /* \"@openzeppelin/contracts/access/Ownable.sol\":2700:2701  0 */\n      0x00\n        /* \"@openzeppelin/contracts/access/Ownable.sol\":2672:2703  OwnableInvalidOwner(address(0)) */\n      mload(0x40)\n      0x1e4fbdf700000000000000000000000000000000000000000000000000000000\n      dup2\n      mstore\n      0x04\n      add\n      tag_142\n      swap2\n      swap1\n      tag_34\n      jump\t// in\n    tag_142:\n      mload(0x40)\n      dup1\n      swap2\n      sub\n      swap1\n      revert\n        /* \"@openzeppelin/contracts/access/Ownable.sol\":2623:2714  if (newOwner == address(0)) {... */\n    tag_141:\n        /* \"@openzeppelin/contracts/access/Ownable.sol\":2723:2751  _transferOwnership(newOwner) */\n      tag_143\n        /* \"@openzeppelin/contracts/access/Ownable.sol\":2742:2750  newOwner */\n      dup2\n        /* \"@openzeppelin/contracts/access/Ownable.sol\":2723:2741  _transferOwnership */\n      tag_136\n        /* \"@openzeppelin/contracts/access/Ownable.sol\":2723:2751  _transferOwnership(newOwner) */\n      jump\t// in\n    tag_143:\n        /* \"@openzeppelin/contracts/access/Ownable.sol\":2543:2758  function transferOwnership(address newOwner) public virtual onlyOwner {... */\n      pop\n      jump\t// out\n        /* \"@openzeppelin/contracts/access/Ownable.sol\":1796:1958  function _checkOwner() internal view virtual {... */\n    tag_76:\n        /* \"@openzeppelin/contracts/access/Ownable.sol\":1866:1878  _msgSender() */\n      tag_145\n        /* \"@openzeppelin/contracts/access/Ownable.sol\":1866:1876  _msgSender */\n      tag_146\n        /* \"@openzeppelin/contracts/access/Ownable.sol\":1866:1878  _msgSender() */\n      jump\t// in\n    tag_145:\n        /* \"@openzeppelin/contracts/access/Ownable.sol\":1855:1878  owner() != _msgSender() */\n      0xffffffffffffffffffffffffffffffffffffffff\n      and\n        /* \"@openzeppelin/contracts/access/Ownable.sol\":1855:1862  owner() */\n      tag_147\n        /* \"@openzeppelin/contracts/access/Ownable.sol\":1855:1860  owner */\n      tag_32\n        /* \"@openzeppelin/contracts/access/Ownable.sol\":1855:1862  owner() */\n      jump\t// in\n    tag_147:\n        /* \"@openzeppelin/contracts/access/Ownable.sol\":1855:1878  owner() != _msgSender() */\n      0xffffffffffffffffffffffffffffffffffffffff\n      and\n      eq\n        /* \"@openzeppelin/contracts/access/Ownable.sol\":1851:1952  if (owner() != _msgSender()) {... */\n      tag_148\n      jumpi\n        /* \"@openzeppelin/contracts/access/Ownable.sol\":1928:1940  _msgSender() */\n      tag_149\n        /* \"@openzeppelin/contracts/access/Ownable.sol\":1928:1938  _msgSender */\n      tag_146\n        /* \"@openzeppelin/contracts/access/Ownable.sol\":1928:1940  _msgSender() */\n      jump\t// in\n    tag_149:\n        /* \"@openzeppelin/contracts/access/Ownable.sol\":1901:1941  OwnableUnauthorizedAccount(_msgSender()) */\n      mload(0x40)\n      0x118cdaa700000000000000000000000000000000000000000000000000000000\n      dup2\n      mstore\n      0x04\n      add\n      tag_150\n      swap2\n      swap1\n      tag_34\n      jump\t// in\n    tag_150:\n      mload(0x40)\n      dup1\n      swap2\n      sub\n      swap1\n      revert\n        /* \"@openzeppelin/contracts/access/Ownable.sol\":1851:1952  if (owner() != _msgSender()) {... */\n    tag_148:\n        /* \"@openzeppelin/contracts/access/Ownable.sol\":1796:1958  function _checkOwner() internal view virtual {... */\n      jump\t// out\n        /* \"@openzeppelin/contracts/access/Ownable.sol\":2912:3099  function _transferOwnership(address newOwner) internal virtual {... */\n    tag_136:\n        /* \"@openzeppelin/contracts/access/Ownable.sol\":2985:3001  address oldOwner */\n      0x00\n        /* \"@openzeppelin/contracts/access/Ownable.sol\":3004:3010  _owner */\n      dup1\n      0x00\n      swap1\n      sload\n      swap1\n      0x0100\n      exp\n      swap1\n      div\n      0xffffffffffffffffffffffffffffffffffffffff\n      and\n        /* \"@openzeppelin/contracts/access/Ownable.sol\":2985:3010  address oldOwner = _owner */\n      swap1\n      pop\n        /* \"@openzeppelin/contracts/access/Ownable.sol\":3029:3037  newOwner */\n      dup2\n        /* \"@openzeppelin/contracts/access/Ownable.sol\":3020:3026  _owner */\n      0x00\n      dup1\n        /* \"@openzeppelin/contracts/access/Ownable.sol\":3020:3037  _owner = newOwner */\n      0x0100\n      exp\n      dup2\n      sload\n      dup2\n      0xffffffffffffffffffffffffffffffffffffffff\n      mul\n      not\n      and\n      swap1\n      dup4\n      0xffffffffffffffffffffffffffffffffffffffff\n      and\n      mul\n      or\n      swap1\n      sstore\n      pop\n        /* \"@openzeppelin/contracts/access/Ownable.sol\":3083:3091  newOwner */\n      dup2\n        /* \"@openzeppelin/contracts/access/Ownable.sol\":3052:3092  OwnershipTransferred(oldOwner, newOwner) */\n      0xffffffffffffffffffffffffffffffffffffffff\n      and\n        /* \"@openzeppelin/contracts/access/Ownable.sol\":3073:3081  oldOwner */\n      dup2\n        /* \"@openzeppelin/contracts/access/Ownable.sol\":3052:3092  OwnershipTransferred(oldOwner, newOwner) */\n      0xffffffffffffffffffffffffffffffffffffffff\n      and\n      0x8be0079c531659141344cd1fd0a4f28419497f9722a3daafe3b4186f6b6457e0\n      mload(0x40)\n      mload(0x40)\n      dup1\n      swap2\n      sub\n      swap1\n      log3\n        /* \"@openzeppelin/contracts/access/Ownable.sol\":2975:3099  {... */\n      pop\n        /* \"@openzeppelin/contracts/access/Ownable.sol\":2912:3099  function _transferOwnership(address newOwner) internal virtual {... */\n      pop\n      jump\t// out\n        /* \"@openzeppelin/contracts/utils/Context.sol\":656:752  function _msgSender() internal view virtual returns (address) {... */\n    tag_146:\n        /* \"@openzeppelin/contracts/utils/Context.sol\":709:716  address */\n      0x00\n        /* \"@openzeppelin/contracts/utils/Context.sol\":735:745  msg.sender */\n      caller\n        /* \"@openzeppelin/contracts/utils/Context.sol\":728:745  return msg.sender */\n      swap1\n      pop\n        /* \"@openzeppelin/contracts/utils/Context.sol\":656:752  function _msgSender() internal view virtual returns (address) {... */\n      swap1\n      jump\t// out\n        /* \"#utility.yul\":88:205   */\n    tag_154:\n        /* \"#utility.yul\":197:198   */\n      0x00\n        /* \"#utility.yul\":194:195   */\n      dup1\n        /* \"#utility.yul\":187:199   */\n      revert\n        /* \"#utility.yul\":211:328   */\n    tag_155:\n        /* \"#utility.yul\":320:321   */\n      0x00\n        /* \"#utility.yul\":317:318   */\n      dup1\n        /* \"#utility.yul\":310:322   */\n      revert\n        /* \"#utility.yul\":334:460   */\n    tag_156:\n        /* \"#utility.yul\":371:378   */\n      0x00\n        /* \"#utility.yul\":411:453   */\n      0xffffffffffffffffffffffffffffffffffffffff\n        /* \"#utility.yul\":404:409   */\n      dup3\n        /* \"#utility.yul\":400:454   */\n      and\n        /* \"#utility.yul\":389:454   */\n      swap1\n      pop\n        /* \"#utility.yul\":334:460   */\n      swap2\n      swap1\n      pop\n      jump\t// out\n        /* \"#utility.yul\":466:562   */\n    tag_157:\n        /* \"#utility.yul\":503:510   */\n      0x00\n        /* \"#utility.yul\":532:556   */\n      tag_209\n        /* \"#utility.yul\":550:555   */\n      dup3\n        /* \"#utility.yul\":532:556   */\n      tag_156\n      jump\t// in\n    tag_209:\n        /* \"#utility.yul\":521:556   */\n      swap1\n      pop\n        /* \"#utility.yul\":466:562   */\n      swap2\n      swap1\n      pop\n      jump\t// out\n        /* \"#utility.yul\":568:690   */\n    tag_158:\n        /* \"#utility.yul\":641:665   */\n      tag_211\n        /* \"#utility.yul\":659:664   */\n      dup2\n        /* \"#utility.yul\":641:665   */\n      tag_157\n      jump\t// in\n    tag_211:\n        /* \"#utility.yul\":634:639   */\n      dup2\n        /* \"#utility.yul\":631:666   */\n      eq\n        /* \"#utility.yul\":621:684   */\n      tag_212\n      jumpi\n        /* \"#utility.yul\":680:681   */\n      0x00\n        /* \"#utility.yul\":677:678   */\n      dup1\n        /* \"#utility.yul\":670:682   */\n      revert\n        /* \"#utility.yul\":621:684   */\n    tag_212:\n        /* \"#utility.yul\":568:690   */\n      pop\n      jump\t// out\n        /* \"#utility.yul\":696:835   */\n    tag_159:\n        /* \"#utility.yul\":742:747   */\n      0x00\n        /* \"#utility.yul\":780:786   */\n      dup2\n        /* \"#utility.yul\":767:787   */\n      calldataload\n        /* \"#utility.yul\":758:787   */\n      swap1\n      pop\n        /* \"#utility.yul\":796:829   */\n      tag_214\n        /* \"#utility.yul\":823:828   */\n      dup2\n        /* \"#utility.yul\":796:829   */\n      tag_158\n      jump\t// in\n    tag_214:\n        /* \"#utility.yul\":696:835   */\n      swap3\n      swap2\n      pop\n      pop\n      jump\t// out\n        /* \"#utility.yul\":841:1170   */\n    tag_17:\n        /* \"#utility.yul\":900:906   */\n      0x00\n        /* \"#utility.yul\":949:951   */\n      0x20\n        /* \"#utility.yul\":937:946   */\n      dup3\n        /* \"#utility.yul\":928:935   */\n      dup5\n        /* \"#utility.yul\":924:947   */\n      sub\n        /* \"#utility.yul\":920:952   */\n      slt\n        /* \"#utility.yul\":917:1036   */\n      iszero\n      tag_216\n      jumpi\n        /* \"#utility.yul\":955:1034   */\n      tag_217\n      tag_154\n      jump\t// in\n    tag_217:\n        /* \"#utility.yul\":917:1036   */\n    tag_216:\n        /* \"#utility.yul\":1075:1076   */\n      0x00\n        /* \"#utility.yul\":1100:1153   */\n      tag_218\n        /* \"#utility.yul\":1145:1152   */\n      dup5\n        /* \"#utility.yul\":1136:1142   */\n      dup3\n        /* \"#utility.yul\":1125:1134   */\n      dup6\n        /* \"#utility.yul\":1121:1143   */\n      add\n        /* \"#utility.yul\":1100:1153   */\n      tag_159\n      jump\t// in\n    tag_218:\n        /* \"#utility.yul\":1090:1153   */\n      swap2\n      pop\n        /* \"#utility.yul\":1046:1163   */\n      pop\n        /* \"#utility.yul\":841:1170   */\n      swap3\n      swap2\n      pop\n      pop\n      jump\t// out\n        /* \"#utility.yul\":1176:1293   */\n    tag_160:\n        /* \"#utility.yul\":1285:1286   */\n      0x00\n        /* \"#utility.yul\":1282:1283   */\n      dup1\n        /* \"#utility.yul\":1275:1287   */\n      revert\n        /* \"#utility.yul\":1299:1416   */\n    tag_161:\n        /* \"#utility.yul\":1408:1409   */\n      0x00\n        /* \"#utility.yul\":1405:1406   */\n      dup1\n        /* \"#utility.yul\":1398:1410   */\n      revert\n        /* \"#utility.yul\":1422:1539   */\n    tag_162:\n        /* \"#utility.yul\":1531:1532   */\n      0x00\n        /* \"#utility.yul\":1528:1529   */\n      dup1\n        /* \"#utility.yul\":1521:1533   */\n      revert\n        /* \"#utility.yul\":1562:2130   */\n    tag_163:\n        /* \"#utility.yul\":1635:1643   */\n      0x00\n        /* \"#utility.yul\":1645:1651   */\n      dup1\n        /* \"#utility.yul\":1695:1698   */\n      dup4\n        /* \"#utility.yul\":1688:1692   */\n      0x1f\n        /* \"#utility.yul\":1680:1686   */\n      dup5\n        /* \"#utility.yul\":1676:1693   */\n      add\n        /* \"#utility.yul\":1672:1699   */\n      slt\n        /* \"#utility.yul\":1662:1784   */\n      tag_223\n      jumpi\n        /* \"#utility.yul\":1703:1782   */\n      tag_224\n      tag_160\n      jump\t// in\n    tag_224:\n        /* \"#utility.yul\":1662:1784   */\n    tag_223:\n        /* \"#utility.yul\":1816:1822   */\n      dup3\n        /* \"#utility.yul\":1803:1823   */\n      calldataload\n        /* \"#utility.yul\":1793:1823   */\n      swap1\n      pop\n        /* \"#utility.yul\":1846:1864   */\n      0xffffffffffffffff\n        /* \"#utility.yul\":1838:1844   */\n      dup2\n        /* \"#utility.yul\":1835:1865   */\n      gt\n        /* \"#utility.yul\":1832:1949   */\n      iszero\n      tag_225\n      jumpi\n        /* \"#utility.yul\":1868:1947   */\n      tag_226\n      tag_161\n      jump\t// in\n    tag_226:\n        /* \"#utility.yul\":1832:1949   */\n    tag_225:\n        /* \"#utility.yul\":1982:1986   */\n      0x20\n        /* \"#utility.yul\":1974:1980   */\n      dup4\n        /* \"#utility.yul\":1970:1987   */\n      add\n        /* \"#utility.yul\":1958:1987   */\n      swap2\n      pop\n        /* \"#utility.yul\":2036:2039   */\n      dup4\n        /* \"#utility.yul\":2028:2032   */\n      0x20\n        /* \"#utility.yul\":2020:2026   */\n      dup3\n        /* \"#utility.yul\":2016:2033   */\n      mul\n        /* \"#utility.yul\":2006:2014   */\n      dup4\n        /* \"#utility.yul\":2002:2034   */\n      add\n        /* \"#utility.yul\":1999:2040   */\n      gt\n        /* \"#utility.yul\":1996:2124   */\n      iszero\n      tag_227\n      jumpi\n        /* \"#utility.yul\":2043:2122   */\n      tag_228\n      tag_162\n      jump\t// in\n    tag_228:\n        /* \"#utility.yul\":1996:2124   */\n    tag_227:\n        /* \"#utility.yul\":1562:2130   */\n      swap3\n      pop\n      swap3\n      swap1\n      pop\n      jump\t// out\n        /* \"#utility.yul\":2153:2721   */\n    tag_164:\n        /* \"#utility.yul\":2226:2234   */\n      0x00\n        /* \"#utility.yul\":2236:2242   */\n      dup1\n        /* \"#utility.yul\":2286:2289   */\n      dup4\n        /* \"#utility.yul\":2279:2283   */\n      0x1f\n        /* \"#utility.yul\":2271:2277   */\n      dup5\n        /* \"#utility.yul\":2267:2284   */\n      add\n        /* \"#utility.yul\":2263:2290   */\n      slt\n        /* \"#utility.yul\":2253:2375   */\n      tag_230\n      jumpi\n        /* \"#utility.yul\":2294:2373   */\n      tag_231\n      tag_160\n      jump\t// in\n    tag_231:\n        /* \"#utility.yul\":2253:2375   */\n    tag_230:\n        /* \"#utility.yul\":2407:2413   */\n      dup3\n        /* \"#utility.yul\":2394:2414   */\n      calldataload\n        /* \"#utility.yul\":2384:2414   */\n      swap1\n      pop\n        /* \"#utility.yul\":2437:2455   */\n      0xffffffffffffffff\n        /* \"#utility.yul\":2429:2435   */\n      dup2\n        /* \"#utility.yul\":2426:2456   */\n      gt\n        /* \"#utility.yul\":2423:2540   */\n      iszero\n      tag_232\n      jumpi\n        /* \"#utility.yul\":2459:2538   */\n      tag_233\n      tag_161\n      jump\t// in\n    tag_233:\n        /* \"#utility.yul\":2423:2540   */\n    tag_232:\n        /* \"#utility.yul\":2573:2577   */\n      0x20\n        /* \"#utility.yul\":2565:2571   */\n      dup4\n        /* \"#utility.yul\":2561:2578   */\n      add\n        /* \"#utility.yul\":2549:2578   */\n      swap2\n      pop\n        /* \"#utility.yul\":2627:2630   */\n      dup4\n        /* \"#utility.yul\":2619:2623   */\n      0x20\n        /* \"#utility.yul\":2611:2617   */\n      dup3\n        /* \"#utility.yul\":2607:2624   */\n      mul\n        /* \"#utility.yul\":2597:2605   */\n      dup4\n        /* \"#utility.yul\":2593:2625   */\n      add\n        /* \"#utility.yul\":2590:2631   */\n      gt\n        /* \"#utility.yul\":2587:2715   */\n      iszero\n      tag_234\n      jumpi\n        /* \"#utility.yul\":2634:2713   */\n      tag_235\n      tag_162\n      jump\t// in\n    tag_235:\n        /* \"#utility.yul\":2587:2715   */\n    tag_234:\n        /* \"#utility.yul\":2153:2721   */\n      swap3\n      pop\n      swap3\n      swap1\n      pop\n      jump\t// out\n        /* \"#utility.yul\":2727:3661   */\n    tag_25:\n        /* \"#utility.yul\":2849:2855   */\n      0x00\n        /* \"#utility.yul\":2857:2863   */\n      dup1\n        /* \"#utility.yul\":2865:2871   */\n      0x00\n        /* \"#utility.yul\":2873:2879   */\n      dup1\n        /* \"#utility.yul\":2922:2924   */\n      0x40\n        /* \"#utility.yul\":2910:2919   */\n      dup6\n        /* \"#utility.yul\":2901:2908   */\n      dup8\n        /* \"#utility.yul\":2897:2920   */\n      sub\n        /* \"#utility.yul\":2893:2925   */\n      slt\n        /* \"#utility.yul\":2890:3009   */\n      iszero\n      tag_237\n      jumpi\n        /* \"#utility.yul\":2928:3007   */\n      tag_238\n      tag_154\n      jump\t// in\n    tag_238:\n        /* \"#utility.yul\":2890:3009   */\n    tag_237:\n        /* \"#utility.yul\":3076:3077   */\n      0x00\n        /* \"#utility.yul\":3065:3074   */\n      dup6\n        /* \"#utility.yul\":3061:3078   */\n      add\n        /* \"#utility.yul\":3048:3079   */\n      calldataload\n        /* \"#utility.yul\":3106:3124   */\n      0xffffffffffffffff\n        /* \"#utility.yul\":3098:3104   */\n      dup2\n        /* \"#utility.yul\":3095:3125   */\n      gt\n        /* \"#utility.yul\":3092:3209   */\n      iszero\n      tag_239\n      jumpi\n        /* \"#utility.yul\":3128:3207   */\n      tag_240\n      tag_155\n      jump\t// in\n    tag_240:\n        /* \"#utility.yul\":3092:3209   */\n    tag_239:\n        /* \"#utility.yul\":3241:3321   */\n      tag_241\n        /* \"#utility.yul\":3313:3320   */\n      dup8\n        /* \"#utility.yul\":3304:3310   */\n      dup3\n        /* \"#utility.yul\":3293:3302   */\n      dup9\n        /* \"#utility.yul\":3289:3311   */\n      add\n        /* \"#utility.yul\":3241:3321   */\n      tag_163\n      jump\t// in\n    tag_241:\n        /* \"#utility.yul\":3223:3321   */\n      swap5\n      pop\n      swap5\n      pop\n        /* \"#utility.yul\":3019:3331   */\n      pop\n        /* \"#utility.yul\":3398:3400   */\n      0x20\n        /* \"#utility.yul\":3387:3396   */\n      dup6\n        /* \"#utility.yul\":3383:3401   */\n      add\n        /* \"#utility.yul\":3370:3402   */\n      calldataload\n        /* \"#utility.yul\":3429:3447   */\n      0xffffffffffffffff\n        /* \"#utility.yul\":3421:3427   */\n      dup2\n        /* \"#utility.yul\":3418:3448   */\n      gt\n        /* \"#utility.yul\":3415:3532   */\n      iszero\n      tag_242\n      jumpi\n        /* \"#utility.yul\":3451:3530   */\n      tag_243\n      tag_155\n      jump\t// in\n    tag_243:\n        /* \"#utility.yul\":3415:3532   */\n    tag_242:\n        /* \"#utility.yul\":3564:3644   */\n      tag_244\n        /* \"#utility.yul\":3636:3643   */\n      dup8\n        /* \"#utility.yul\":3627:3633   */\n      dup3\n        /* \"#utility.yul\":3616:3625   */\n      dup9\n        /* \"#utility.yul\":3612:3634   */\n      add\n        /* \"#utility.yul\":3564:3644   */\n      tag_164\n      jump\t// in\n    tag_244:\n        /* \"#utility.yul\":3546:3644   */\n      swap3\n      pop\n      swap3\n      pop\n        /* \"#utility.yul\":3341:3654   */\n      pop\n        /* \"#utility.yul\":2727:3661   */\n      swap3\n      swap6\n      swap2\n      swap5\n      pop\n      swap3\n      pop\n      jump\t// out\n        /* \"#utility.yul\":3667:3785   */\n    tag_165:\n        /* \"#utility.yul\":3754:3778   */\n      tag_246\n        /* \"#utility.yul\":3772:3777   */\n      dup2\n        /* \"#utility.yul\":3754:3778   */\n      tag_157\n      jump\t// in\n    tag_246:\n        /* \"#utility.yul\":3749:3752   */\n      dup3\n        /* \"#utility.yul\":3742:3779   */\n      mstore\n        /* \"#utility.yul\":3667:3785   */\n      pop\n      pop\n      jump\t// out\n        /* \"#utility.yul\":3791:4013   */\n    tag_34:\n        /* \"#utility.yul\":3884:3888   */\n      0x00\n        /* \"#utility.yul\":3922:3924   */\n      0x20\n        /* \"#utility.yul\":3911:3920   */\n      dup3\n        /* \"#utility.yul\":3907:3925   */\n      add\n        /* \"#utility.yul\":3899:3925   */\n      swap1\n      pop\n        /* \"#utility.yul\":3935:4006   */\n      tag_248\n        /* \"#utility.yul\":4003:4004   */\n      0x00\n        /* \"#utility.yul\":3992:4001   */\n      dup4\n        /* \"#utility.yul\":3988:4005   */\n      add\n        /* \"#utility.yul\":3979:3985   */\n      dup5\n        /* \"#utility.yul\":3935:4006   */\n      tag_165\n      jump\t// in\n    tag_248:\n        /* \"#utility.yul\":3791:4013   */\n      swap3\n      swap2\n      pop\n      pop\n      jump\t// out\n        /* \"#utility.yul\":4019:4109   */\n    tag_166:\n        /* \"#utility.yul\":4053:4060   */\n      0x00\n        /* \"#utility.yul\":4096:4101   */\n      dup2\n        /* \"#utility.yul\":4089:4102   */\n      iszero\n        /* \"#utility.yul\":4082:4103   */\n      iszero\n        /* \"#utility.yul\":4071:4103   */\n      swap1\n      pop\n        /* \"#utility.yul\":4019:4109   */\n      swap2\n      swap1\n      pop\n      jump\t// out\n        /* \"#utility.yul\":4115:4224   */\n    tag_167:\n        /* \"#utility.yul\":4196:4217   */\n      tag_251\n        /* \"#utility.yul\":4211:4216   */\n      dup2\n        /* \"#utility.yul\":4196:4217   */\n      tag_166\n      jump\t// in\n    tag_251:\n        /* \"#utility.yul\":4191:4194   */\n      dup3\n        /* \"#utility.yul\":4184:4218   */\n      mstore\n        /* \"#utility.yul\":4115:4224   */\n      pop\n      pop\n      jump\t// out\n        /* \"#utility.yul\":4230:4440   */\n    tag_40:\n        /* \"#utility.yul\":4317:4321   */\n      0x00\n        /* \"#utility.yul\":4355:4357   */\n      0x20\n        /* \"#utility.yul\":4344:4353   */\n      dup3\n        /* \"#utility.yul\":4340:4358   */\n      add\n        /* \"#utility.yul\":4332:4358   */\n      swap1\n      pop\n        /* \"#utility.yul\":4368:4433   */\n      tag_253\n        /* \"#utility.yul\":4430:4431   */\n      0x00\n        /* \"#utility.yul\":4419:4428   */\n      dup4\n        /* \"#utility.yul\":4415:4432   */\n      add\n        /* \"#utility.yul\":4406:4412   */\n      dup5\n        /* \"#utility.yul\":4368:4433   */\n      tag_167\n      jump\t// in\n    tag_253:\n        /* \"#utility.yul\":4230:4440   */\n      swap3\n      swap2\n      pop\n      pop\n      jump\t// out\n        /* \"#utility.yul\":4446:4523   */\n    tag_168:\n        /* \"#utility.yul\":4483:4490   */\n      0x00\n        /* \"#utility.yul\":4512:4517   */\n      dup2\n        /* \"#utility.yul\":4501:4517   */\n      swap1\n      pop\n        /* \"#utility.yul\":4446:4523   */\n      swap2\n      swap1\n      pop\n      jump\t// out\n        /* \"#utility.yul\":4529:4647   */\n    tag_169:\n        /* \"#utility.yul\":4616:4640   */\n      tag_256\n        /* \"#utility.yul\":4634:4639   */\n      dup2\n        /* \"#utility.yul\":4616:4640   */\n      tag_168\n      jump\t// in\n    tag_256:\n        /* \"#utility.yul\":4611:4614   */\n      dup3\n        /* \"#utility.yul\":4604:4641   */\n      mstore\n        /* \"#utility.yul\":4529:4647   */\n      pop\n      pop\n      jump\t// out\n        /* \"#utility.yul\":4653:4875   */\n    tag_45:\n        /* \"#utility.yul\":4746:4750   */\n      0x00\n        /* \"#utility.yul\":4784:4786   */\n      0x20\n        /* \"#utility.yul\":4773:4782   */\n      dup3\n        /* \"#utility.yul\":4769:4787   */\n      add\n        /* \"#utility.yul\":4761:4787   */\n      swap1\n      pop\n        /* \"#utility.yul\":4797:4868   */\n      tag_258\n        /* \"#utility.yul\":4865:4866   */\n      0x00\n        /* \"#utility.yul\":4854:4863   */\n      dup4\n        /* \"#utility.yul\":4850:4867   */\n      add\n        /* \"#utility.yul\":4841:4847   */\n      dup5\n        /* \"#utility.yul\":4797:4868   */\n      tag_169\n      jump\t// in\n    tag_258:\n        /* \"#utility.yul\":4653:4875   */\n      swap3\n      swap2\n      pop\n      pop\n      jump\t// out\n        /* \"#utility.yul\":4881:5050   */\n    tag_170:\n        /* \"#utility.yul\":4965:4976   */\n      0x00\n        /* \"#utility.yul\":4999:5005   */\n      dup3\n        /* \"#utility.yul\":4994:4997   */\n      dup3\n        /* \"#utility.yul\":4987:5006   */\n      mstore\n        /* \"#utility.yul\":5039:5043   */\n      0x20\n        /* \"#utility.yul\":5034:5037   */\n      dup3\n        /* \"#utility.yul\":5030:5044   */\n      add\n        /* \"#utility.yul\":5015:5044   */\n      swap1\n      pop\n        /* \"#utility.yul\":4881:5050   */\n      swap3\n      swap2\n      pop\n      pop\n      jump\t// out\n        /* \"#utility.yul\":5056:5297   */\n    tag_171:\n        /* \"#utility.yul\":5196:5230   */\n      0x45636f6d6d65726365436f6e74726163743a20496e636f727265637420616d6f\n        /* \"#utility.yul\":5192:5193   */\n      0x00\n        /* \"#utility.yul\":5184:5190   */\n      dup3\n        /* \"#utility.yul\":5180:5194   */\n      add\n        /* \"#utility.yul\":5173:5231   */\n      mstore\n        /* \"#utility.yul\":5265:5289   */\n      0x756e742073656e7420666f722070757263686173652e00000000000000000000\n        /* \"#utility.yul\":5260:5262   */\n      0x20\n        /* \"#utility.yul\":5252:5258   */\n      dup3\n        /* \"#utility.yul\":5248:5263   */\n      add\n        /* \"#utility.yul\":5241:5290   */\n      mstore\n        /* \"#utility.yul\":5056:5297   */\n      pop\n      jump\t// out\n        /* \"#utility.yul\":5303:5669   */\n    tag_172:\n        /* \"#utility.yul\":5445:5448   */\n      0x00\n        /* \"#utility.yul\":5466:5533   */\n      tag_262\n        /* \"#utility.yul\":5530:5532   */\n      0x36\n        /* \"#utility.yul\":5525:5528   */\n      dup4\n        /* \"#utility.yul\":5466:5533   */\n      tag_170\n      jump\t// in\n    tag_262:\n        /* \"#utility.yul\":5459:5533   */\n      swap2\n      pop\n        /* \"#utility.yul\":5542:5635   */\n      tag_263\n        /* \"#utility.yul\":5631:5634   */\n      dup3\n        /* \"#utility.yul\":5542:5635   */\n      tag_171\n      jump\t// in\n    tag_263:\n        /* \"#utility.yul\":5660:5662   */\n      0x40\n        /* \"#utility.yul\":5655:5658   */\n      dup3\n        /* \"#utility.yul\":5651:5663   */\n      add\n        /* \"#utility.yul\":5644:5663   */\n      swap1\n      pop\n        /* \"#utility.yul\":5303:5669   */\n      swap2\n      swap1\n      pop\n      jump\t// out\n        /* \"#utility.yul\":5675:6094   */\n    tag_57:\n        /* \"#utility.yul\":5841:5845   */\n      0x00\n        /* \"#utility.yul\":5879:5881   */\n      0x20\n        /* \"#utility.yul\":5868:5877   */\n      dup3\n        /* \"#utility.yul\":5864:5882   */\n      add\n        /* \"#utility.yul\":5856:5882   */\n      swap1\n      pop\n        /* \"#utility.yul\":5928:5937   */\n      dup2\n        /* \"#utility.yul\":5922:5926   */\n      dup2\n        /* \"#utility.yul\":5918:5938   */\n      sub\n        /* \"#utility.yul\":5914:5915   */\n      0x00\n        /* \"#utility.yul\":5903:5912   */\n      dup4\n        /* \"#utility.yul\":5899:5916   */\n      add\n        /* \"#utility.yul\":5892:5939   */\n      mstore\n        /* \"#utility.yul\":5956:6087   */\n      tag_265\n        /* \"#utility.yul\":6082:6086   */\n      dup2\n        /* \"#utility.yul\":5956:6087   */\n      tag_172\n      jump\t// in\n    tag_265:\n        /* \"#utility.yul\":5948:6087   */\n      swap1\n      pop\n        /* \"#utility.yul\":5675:6094   */\n      swap2\n      swap1\n      pop\n      jump\t// out\n        /* \"#utility.yul\":6100:6280   */\n    tag_173:\n        /* \"#utility.yul\":6148:6225   */\n      0x4e487b7100000000000000000000000000000000000000000000000000000000\n        /* \"#utility.yul\":6145:6146   */\n      0x00\n        /* \"#utility.yul\":6138:6226   */\n      mstore\n        /* \"#utility.yul\":6245:6249   */\n      0x11\n        /* \"#utility.yul\":6242:6243   */\n      0x04\n        /* \"#utility.yul\":6235:6250   */\n      mstore\n        /* \"#utility.yul\":6269:6273   */\n      0x24\n        /* \"#utility.yul\":6266:6267   */\n      0x00\n        /* \"#utility.yul\":6259:6274   */\n      revert\n        /* \"#utility.yul\":6286:6696   */\n    tag_61:\n        /* \"#utility.yul\":6326:6333   */\n      0x00\n        /* \"#utility.yul\":6349:6369   */\n      tag_268\n        /* \"#utility.yul\":6367:6368   */\n      dup3\n        /* \"#utility.yul\":6349:6369   */\n      tag_168\n      jump\t// in\n    tag_268:\n        /* \"#utility.yul\":6344:6369   */\n      swap2\n      pop\n        /* \"#utility.yul\":6383:6403   */\n      tag_269\n        /* \"#utility.yul\":6401:6402   */\n      dup4\n        /* \"#utility.yul\":6383:6403   */\n      tag_168\n      jump\t// in\n    tag_269:\n        /* \"#utility.yul\":6378:6403   */\n      swap3\n      pop\n        /* \"#utility.yul\":6438:6439   */\n      dup3\n        /* \"#utility.yul\":6435:6436   */\n      dup3\n        /* \"#utility.yul\":6431:6440   */\n      mul\n        /* \"#utility.yul\":6460:6490   */\n      tag_270\n        /* \"#utility.yul\":6478:6489   */\n      dup2\n        /* \"#utility.yul\":6460:6490   */\n      tag_168\n      jump\t// in\n    tag_270:\n        /* \"#utility.yul\":6449:6490   */\n      swap2\n      pop\n        /* \"#utility.yul\":6639:6640   */\n      dup3\n        /* \"#utility.yul\":6630:6637   */\n      dup3\n        /* \"#utility.yul\":6626:6641   */\n      div\n        /* \"#utility.yul\":6623:6624   */\n      dup5\n        /* \"#utility.yul\":6620:6642   */\n      eq\n        /* \"#utility.yul\":6600:6601   */\n      dup4\n        /* \"#utility.yul\":6593:6602   */\n      iszero\n        /* \"#utility.yul\":6573:6656   */\n      or\n        /* \"#utility.yul\":6550:6689   */\n      tag_271\n      jumpi\n        /* \"#utility.yul\":6669:6687   */\n      tag_272\n      tag_173\n      jump\t// in\n    tag_272:\n        /* \"#utility.yul\":6550:6689   */\n    tag_271:\n        /* \"#utility.yul\":6334:6696   */\n      pop\n        /* \"#utility.yul\":6286:6696   */\n      swap3\n      swap2\n      pop\n      pop\n      jump\t// out\n        /* \"#utility.yul\":6702:6882   */\n    tag_174:\n        /* \"#utility.yul\":6750:6827   */\n      0x4e487b7100000000000000000000000000000000000000000000000000000000\n        /* \"#utility.yul\":6747:6748   */\n      0x00\n        /* \"#utility.yul\":6740:6828   */\n      mstore\n        /* \"#utility.yul\":6847:6851   */\n      0x12\n        /* \"#utility.yul\":6844:6845   */\n      0x04\n        /* \"#utility.yul\":6837:6852   */\n      mstore\n        /* \"#utility.yul\":6871:6875   */\n      0x24\n        /* \"#utility.yul\":6868:6869   */\n      0x00\n        /* \"#utility.yul\":6861:6876   */\n      revert\n        /* \"#utility.yul\":6888:7073   */\n    tag_63:\n        /* \"#utility.yul\":6928:6929   */\n      0x00\n        /* \"#utility.yul\":6945:6965   */\n      tag_275\n        /* \"#utility.yul\":6963:6964   */\n      dup3\n        /* \"#utility.yul\":6945:6965   */\n      tag_168\n      jump\t// in\n    tag_275:\n        /* \"#utility.yul\":6940:6965   */\n      swap2\n      pop\n        /* \"#utility.yul\":6979:6999   */\n      tag_276\n        /* \"#utility.yul\":6997:6998   */\n      dup4\n        /* \"#utility.yul\":6979:6999   */\n      tag_168\n      jump\t// in\n    tag_276:\n        /* \"#utility.yul\":6974:6999   */\n      swap3\n      pop\n        /* \"#utility.yul\":7018:7019   */\n      dup3\n        /* \"#utility.yul\":7008:7043   */\n      tag_277\n      jumpi\n        /* \"#utility.yul\":7023:7041   */\n      tag_278\n      tag_174\n      jump\t// in\n    tag_278:\n        /* \"#utility.yul\":7008:7043   */\n    tag_277:\n        /* \"#utility.yul\":7065:7066   */\n      dup3\n        /* \"#utility.yul\":7062:7063   */\n      dup3\n        /* \"#utility.yul\":7058:7067   */\n      div\n        /* \"#utility.yul\":7053:7067   */\n      swap1\n      pop\n        /* \"#utility.yul\":6888:7073   */\n      swap3\n      swap2\n      pop\n      pop\n      jump\t// out\n        /* \"#utility.yul\":7079:7226   */\n    tag_175:\n        /* \"#utility.yul\":7180:7191   */\n      0x00\n        /* \"#utility.yul\":7217:7220   */\n      dup2\n        /* \"#utility.yul\":7202:7220   */\n      swap1\n      pop\n        /* \"#utility.yul\":7079:7226   */\n      swap3\n      swap2\n      pop\n      pop\n      jump\t// out\n        /* \"#utility.yul\":7232:7346   */\n    tag_176:\n      pop\n      jump\t// out\n        /* \"#utility.yul\":7352:7750   */\n    tag_177:\n        /* \"#utility.yul\":7511:7514   */\n      0x00\n        /* \"#utility.yul\":7532:7615   */\n      tag_282\n        /* \"#utility.yul\":7613:7614   */\n      0x00\n        /* \"#utility.yul\":7608:7611   */\n      dup4\n        /* \"#utility.yul\":7532:7615   */\n      tag_175\n      jump\t// in\n    tag_282:\n        /* \"#utility.yul\":7525:7615   */\n      swap2\n      pop\n        /* \"#utility.yul\":7624:7717   */\n      tag_283\n        /* \"#utility.yul\":7713:7716   */\n      dup3\n        /* \"#utility.yul\":7624:7717   */\n      tag_176\n      jump\t// in\n    tag_283:\n        /* \"#utility.yul\":7742:7743   */\n      0x00\n        /* \"#utility.yul\":7737:7740   */\n      dup3\n        /* \"#utility.yul\":7733:7744   */\n      add\n        /* \"#utility.yul\":7726:7744   */\n      swap1\n      pop\n        /* \"#utility.yul\":7352:7750   */\n      swap2\n      swap1\n      pop\n      jump\t// out\n        /* \"#utility.yul\":7756:8135   */\n    tag_65:\n        /* \"#utility.yul\":7940:7943   */\n      0x00\n        /* \"#utility.yul\":7962:8109   */\n      tag_285\n        /* \"#utility.yul\":8105:8108   */\n      dup3\n        /* \"#utility.yul\":7962:8109   */\n      tag_177\n      jump\t// in\n    tag_285:\n        /* \"#utility.yul\":7955:8109   */\n      swap2\n      pop\n        /* \"#utility.yul\":8126:8129   */\n      dup2\n        /* \"#utility.yul\":8119:8129   */\n      swap1\n      pop\n        /* \"#utility.yul\":7756:8135   */\n      swap2\n      swap1\n      pop\n      jump\t// out\n        /* \"#utility.yul\":8141:8373   */\n    tag_178:\n        /* \"#utility.yul\":8281:8315   */\n      0x45636f6d6d65726365436f6e74726163743a204661696c656420746f2073656e\n        /* \"#utility.yul\":8277:8278   */\n      0x00\n        /* \"#utility.yul\":8269:8275   */\n      dup3\n        /* \"#utility.yul\":8265:8279   */\n      add\n        /* \"#utility.yul\":8258:8316   */\n      mstore\n        /* \"#utility.yul\":8350:8365   */\n      0x6420636f6d6d697373696f6e2e00000000000000000000000000000000000000\n        /* \"#utility.yul\":8345:8347   */\n      0x20\n        /* \"#utility.yul\":8337:8343   */\n      dup3\n        /* \"#utility.yul\":8333:8348   */\n      add\n        /* \"#utility.yul\":8326:8366   */\n      mstore\n        /* \"#utility.yul\":8141:8373   */\n      pop\n      jump\t// out\n        /* \"#utility.yul\":8379:8745   */\n    tag_179:\n        /* \"#utility.yul\":8521:8524   */\n      0x00\n        /* \"#utility.yul\":8542:8609   */\n      tag_288\n        /* \"#utility.yul\":8606:8608   */\n      0x2d\n        /* \"#utility.yul\":8601:8604   */\n      dup4\n        /* \"#utility.yul\":8542:8609   */\n      tag_170\n      jump\t// in\n    tag_288:\n        /* \"#utility.yul\":8535:8609   */\n      swap2\n      pop\n        /* \"#utility.yul\":8618:8711   */\n      tag_289\n        /* \"#utility.yul\":8707:8710   */\n      dup3\n        /* \"#utility.yul\":8618:8711   */\n      tag_178\n      jump\t// in\n    tag_289:\n        /* \"#utility.yul\":8736:8738   */\n      0x40\n        /* \"#utility.yul\":8731:8734   */\n      dup3\n        /* \"#utility.yul\":8727:8739   */\n      add\n        /* \"#utility.yul\":8720:8739   */\n      swap1\n      pop\n        /* \"#utility.yul\":8379:8745   */\n      swap2\n      swap1\n      pop\n      jump\t// out\n        /* \"#utility.yul\":8751:9170   */\n    tag_71:\n        /* \"#utility.yul\":8917:8921   */\n      0x00\n        /* \"#utility.yul\":8955:8957   */\n      0x20\n        /* \"#utility.yul\":8944:8953   */\n      dup3\n        /* \"#utility.yul\":8940:8958   */\n      add\n        /* \"#utility.yul\":8932:8958   */\n      swap1\n      pop\n        /* \"#utility.yul\":9004:9013   */\n      dup2\n        /* \"#utility.yul\":8998:9002   */\n      dup2\n        /* \"#utility.yul\":8994:9014   */\n      sub\n        /* \"#utility.yul\":8990:8991   */\n      0x00\n        /* \"#utility.yul\":8979:8988   */\n      dup4\n        /* \"#utility.yul\":8975:8992   */\n      add\n        /* \"#utility.yul\":8968:9015   */\n      mstore\n        /* \"#utility.yul\":9032:9163   */\n      tag_291\n        /* \"#utility.yul\":9158:9162   */\n      dup2\n        /* \"#utility.yul\":9032:9163   */\n      tag_179\n      jump\t// in\n    tag_291:\n        /* \"#utility.yul\":9024:9163   */\n      swap1\n      pop\n        /* \"#utility.yul\":8751:9170   */\n      swap2\n      swap1\n      pop\n      jump\t// out\n        /* \"#utility.yul\":9176:9508   */\n    tag_73:\n        /* \"#utility.yul\":9297:9301   */\n      0x00\n        /* \"#utility.yul\":9335:9337   */\n      0x40\n        /* \"#utility.yul\":9324:9333   */\n      dup3\n        /* \"#utility.yul\":9320:9338   */\n      add\n        /* \"#utility.yul\":9312:9338   */\n      swap1\n      pop\n        /* \"#utility.yul\":9348:9419   */\n      tag_293\n        /* \"#utility.yul\":9416:9417   */\n      0x00\n        /* \"#utility.yul\":9405:9414   */\n      dup4\n        /* \"#utility.yul\":9401:9418   */\n      add\n        /* \"#utility.yul\":9392:9398   */\n      dup6\n        /* \"#utility.yul\":9348:9419   */\n      tag_169\n      jump\t// in\n    tag_293:\n        /* \"#utility.yul\":9429:9501   */\n      tag_294\n        /* \"#utility.yul\":9497:9499   */\n      0x20\n        /* \"#utility.yul\":9486:9495   */\n      dup4\n        /* \"#utility.yul\":9482:9500   */\n      add\n        /* \"#utility.yul\":9473:9479   */\n      dup5\n        /* \"#utility.yul\":9429:9501   */\n      tag_169\n      jump\t// in\n    tag_294:\n        /* \"#utility.yul\":9176:9508   */\n      swap4\n      swap3\n      pop\n      pop\n      pop\n      jump\t// out\n        /* \"#utility.yul\":9514:9756   */\n    tag_180:\n        /* \"#utility.yul\":9654:9688   */\n      0x45636f6d6d65726365436f6e74726163743a204661696c656420746f20776974\n        /* \"#utility.yul\":9650:9651   */\n      0x00\n        /* \"#utility.yul\":9642:9648   */\n      dup3\n        /* \"#utility.yul\":9638:9652   */\n      add\n        /* \"#utility.yul\":9631:9689   */\n      mstore\n        /* \"#utility.yul\":9723:9748   */\n      0x686472617720636f6e74726163742062616c616e63652e000000000000000000\n        /* \"#utility.yul\":9718:9720   */\n      0x20\n        /* \"#utility.yul\":9710:9716   */\n      dup3\n        /* \"#utility.yul\":9706:9721   */\n      add\n        /* \"#utility.yul\":9699:9749   */\n      mstore\n        /* \"#utility.yul\":9514:9756   */\n      pop\n      jump\t// out\n        /* \"#utility.yul\":9762:10128   */\n    tag_181:\n        /* \"#utility.yul\":9904:9907   */\n      0x00\n        /* \"#utility.yul\":9925:9992   */\n      tag_297\n        /* \"#utility.yul\":9989:9991   */\n      0x37\n        /* \"#utility.yul\":9984:9987   */\n      dup4\n        /* \"#utility.yul\":9925:9992   */\n      tag_170\n      jump\t// in\n    tag_297:\n        /* \"#utility.yul\":9918:9992   */\n      swap2\n      pop\n        /* \"#utility.yul\":10001:10094   */\n      tag_298\n        /* \"#utility.yul\":10090:10093   */\n      dup3\n        /* \"#utility.yul\":10001:10094   */\n      tag_180\n      jump\t// in\n    tag_298:\n        /* \"#utility.yul\":10119:10121   */\n      0x40\n        /* \"#utility.yul\":10114:10117   */\n      dup3\n        /* \"#utility.yul\":10110:10122   */\n      add\n        /* \"#utility.yul\":10103:10122   */\n      swap1\n      pop\n        /* \"#utility.yul\":9762:10128   */\n      swap2\n      swap1\n      pop\n      jump\t// out\n        /* \"#utility.yul\":10134:10553   */\n    tag_85:\n        /* \"#utility.yul\":10300:10304   */\n      0x00\n        /* \"#utility.yul\":10338:10340   */\n      0x20\n        /* \"#utility.yul\":10327:10336   */\n      dup3\n        /* \"#utility.yul\":10323:10341   */\n      add\n        /* \"#utility.yul\":10315:10341   */\n      swap1\n      pop\n        /* \"#utility.yul\":10387:10396   */\n      dup2\n        /* \"#utility.yul\":10381:10385   */\n      dup2\n        /* \"#utility.yul\":10377:10397   */\n      sub\n        /* \"#utility.yul\":10373:10374   */\n      0x00\n        /* \"#utility.yul\":10362:10371   */\n      dup4\n        /* \"#utility.yul\":10358:10375   */\n      add\n        /* \"#utility.yul\":10351:10398   */\n      mstore\n        /* \"#utility.yul\":10415:10546   */\n      tag_300\n        /* \"#utility.yul\":10541:10545   */\n      dup2\n        /* \"#utility.yul\":10415:10546   */\n      tag_181\n      jump\t// in\n    tag_300:\n        /* \"#utility.yul\":10407:10546   */\n      swap1\n      pop\n        /* \"#utility.yul\":10134:10553   */\n      swap2\n      swap1\n      pop\n      jump\t// out\n        /* \"#utility.yul\":10559:10795   */\n    tag_182:\n        /* \"#utility.yul\":10699:10733   */\n      0x45636f6d6d65726365436f6e74726163743a2057696e6e657273206172726179\n        /* \"#utility.yul\":10695:10696   */\n      0x00\n        /* \"#utility.yul\":10687:10693   */\n      dup3\n        /* \"#utility.yul\":10683:10697   */\n      add\n        /* \"#utility.yul\":10676:10734   */\n      mstore\n        /* \"#utility.yul\":10768:10787   */\n      0x2063616e6e6f7420626520656d7074792e000000000000000000000000000000\n        /* \"#utility.yul\":10763:10765   */\n      0x20\n        /* \"#utility.yul\":10755:10761   */\n      dup3\n        /* \"#utility.yul\":10751:10766   */\n      add\n        /* \"#utility.yul\":10744:10788   */\n      mstore\n        /* \"#utility.yul\":10559:10795   */\n      pop\n      jump\t// out\n        /* \"#utility.yul\":10801:11167   */\n    tag_183:\n        /* \"#utility.yul\":10943:10946   */\n      0x00\n        /* \"#utility.yul\":10964:11031   */\n      tag_303\n        /* \"#utility.yul\":11028:11030   */\n      0x31\n        /* \"#utility.yul\":11023:11026   */\n      dup4\n        /* \"#utility.yul\":10964:11031   */\n      tag_170\n      jump\t// in\n    tag_303:\n        /* \"#utility.yul\":10957:11031   */\n      swap2\n      pop\n        /* \"#utility.yul\":11040:11133   */\n      tag_304\n        /* \"#utility.yul\":11129:11132   */\n      dup3\n        /* \"#utility.yul\":11040:11133   */\n      tag_182\n      jump\t// in\n    tag_304:\n        /* \"#utility.yul\":11158:11160   */\n      0x40\n        /* \"#utility.yul\":11153:11156   */\n      dup3\n        /* \"#utility.yul\":11149:11161   */\n      add\n        /* \"#utility.yul\":11142:11161   */\n      swap1\n      pop\n        /* \"#utility.yul\":10801:11167   */\n      swap2\n      swap1\n      pop\n      jump\t// out\n        /* \"#utility.yul\":11173:11592   */\n    tag_91:\n        /* \"#utility.yul\":11339:11343   */\n      0x00\n        /* \"#utility.yul\":11377:11379   */\n      0x20\n        /* \"#utility.yul\":11366:11375   */\n      dup3\n        /* \"#utility.yul\":11362:11380   */\n      add\n        /* \"#utility.yul\":11354:11380   */\n      swap1\n      pop\n        /* \"#utility.yul\":11426:11435   */\n      dup2\n        /* \"#utility.yul\":11420:11424   */\n      dup2\n        /* \"#utility.yul\":11416:11436   */\n      sub\n        /* \"#utility.yul\":11412:11413   */\n      0x00\n        /* \"#utility.yul\":11401:11410   */\n      dup4\n        /* \"#utility.yul\":11397:11414   */\n      add\n        /* \"#utility.yul\":11390:11437   */\n      mstore\n        /* \"#utility.yul\":11454:11585   */\n      tag_306\n        /* \"#utility.yul\":11580:11584   */\n      dup2\n        /* \"#utility.yul\":11454:11585   */\n      tag_183\n      jump\t// in\n    tag_306:\n        /* \"#utility.yul\":11446:11585   */\n      swap1\n      pop\n        /* \"#utility.yul\":11173:11592   */\n      swap2\n      swap1\n      pop\n      jump\t// out\n        /* \"#utility.yul\":11598:11894   */\n    tag_184:\n        /* \"#utility.yul\":11738:11772   */\n      0x45636f6d6d65726365436f6e74726163743a2057696e6e65727320616e642061\n        /* \"#utility.yul\":11734:11735   */\n      0x00\n        /* \"#utility.yul\":11726:11732   */\n      dup3\n        /* \"#utility.yul\":11722:11736   */\n      add\n        /* \"#utility.yul\":11715:11773   */\n      mstore\n        /* \"#utility.yul\":11807:11841   */\n      0x6d6f756e747320617272617973206d7573742068617665207468652073616d65\n        /* \"#utility.yul\":11802:11804   */\n      0x20\n        /* \"#utility.yul\":11794:11800   */\n      dup3\n        /* \"#utility.yul\":11790:11805   */\n      add\n        /* \"#utility.yul\":11783:11842   */\n      mstore\n        /* \"#utility.yul\":11876:11886   */\n      0x206c656e6774682e000000000000000000000000000000000000000000000000\n        /* \"#utility.yul\":11871:11873   */\n      0x40\n        /* \"#utility.yul\":11863:11869   */\n      dup3\n        /* \"#utility.yul\":11859:11874   */\n      add\n        /* \"#utility.yul\":11852:11887   */\n      mstore\n        /* \"#utility.yul\":11598:11894   */\n      pop\n      jump\t// out\n        /* \"#utility.yul\":11900:12266   */\n    tag_185:\n        /* \"#utility.yul\":12042:12045   */\n      0x00\n        /* \"#utility.yul\":12063:12130   */\n      tag_309\n        /* \"#utility.yul\":12127:12129   */\n      0x48\n        /* \"#utility.yul\":12122:12125   */\n      dup4\n        /* \"#utility.yul\":12063:12130   */\n      tag_170\n      jump\t// in\n    tag_309:\n        /* \"#utility.yul\":12056:12130   */\n      swap2\n      pop\n        /* \"#utility.yul\":12139:12232   */\n      tag_310\n        /* \"#utility.yul\":12228:12231   */\n      dup3\n        /* \"#utility.yul\":12139:12232   */\n      tag_184\n      jump\t// in\n    tag_310:\n        /* \"#utility.yul\":12257:12259   */\n      0x60\n        /* \"#utility.yul\":12252:12255   */\n      dup3\n        /* \"#utility.yul\":12248:12260   */\n      add\n        /* \"#utility.yul\":12241:12260   */\n      swap1\n      pop\n        /* \"#utility.yul\":11900:12266   */\n      swap2\n      swap1\n      pop\n      jump\t// out\n        /* \"#utility.yul\":12272:12691   */\n    tag_94:\n        /* \"#utility.yul\":12438:12442   */\n      0x00\n        /* \"#utility.yul\":12476:12478   */\n      0x20\n        /* \"#utility.yul\":12465:12474   */\n      dup3\n        /* \"#utility.yul\":12461:12479   */\n      add\n        /* \"#utility.yul\":12453:12479   */\n      swap1\n      pop\n        /* \"#utility.yul\":12525:12534   */\n      dup2\n        /* \"#utility.yul\":12519:12523   */\n      dup2\n        /* \"#utility.yul\":12515:12535   */\n      sub\n        /* \"#utility.yul\":12511:12512   */\n      0x00\n        /* \"#utility.yul\":12500:12509   */\n      dup4\n        /* \"#utility.yul\":12496:12513   */\n      add\n        /* \"#utility.yul\":12489:12536   */\n      mstore\n        /* \"#utility.yul\":12553:12684   */\n      tag_312\n        /* \"#utility.yul\":12679:12683   */\n      dup2\n        /* \"#utility.yul\":12553:12684   */\n      tag_185\n      jump\t// in\n    tag_312:\n        /* \"#utility.yul\":12545:12684   */\n      swap1\n      pop\n        /* \"#utility.yul\":12272:12691   */\n      swap2\n      swap1\n      pop\n      jump\t// out\n        /* \"#utility.yul\":12697:12877   */\n    tag_100:\n        /* \"#utility.yul\":12745:12822   */\n      0x4e487b7100000000000000000000000000000000000000000000000000000000\n        /* \"#utility.yul\":12742:12743   */\n      0x00\n        /* \"#utility.yul\":12735:12823   */\n      mstore\n        /* \"#utility.yul\":12842:12846   */\n      0x32\n        /* \"#utility.yul\":12839:12840   */\n      0x04\n        /* \"#utility.yul\":12832:12847   */\n      mstore\n        /* \"#utility.yul\":12866:12870   */\n      0x24\n        /* \"#utility.yul\":12863:12864   */\n      0x00\n        /* \"#utility.yul\":12856:12871   */\n      revert\n        /* \"#utility.yul\":12883:13074   */\n    tag_102:\n        /* \"#utility.yul\":12923:12926   */\n      0x00\n        /* \"#utility.yul\":12942:12962   */\n      tag_315\n        /* \"#utility.yul\":12960:12961   */\n      dup3\n        /* \"#utility.yul\":12942:12962   */\n      tag_168\n      jump\t// in\n    tag_315:\n        /* \"#utility.yul\":12937:12962   */\n      swap2\n      pop\n        /* \"#utility.yul\":12976:12996   */\n      tag_316\n        /* \"#utility.yul\":12994:12995   */\n      dup4\n        /* \"#utility.yul\":12976:12996   */\n      tag_168\n      jump\t// in\n    tag_316:\n        /* \"#utility.yul\":12971:12996   */\n      swap3\n      pop\n        /* \"#utility.yul\":13019:13020   */\n      dup3\n        /* \"#utility.yul\":13016:13017   */\n      dup3\n        /* \"#utility.yul\":13012:13021   */\n      add\n        /* \"#utility.yul\":13005:13021   */\n      swap1\n      pop\n        /* \"#utility.yul\":13040:13043   */\n      dup1\n        /* \"#utility.yul\":13037:13038   */\n      dup3\n        /* \"#utility.yul\":13034:13044   */\n      gt\n        /* \"#utility.yul\":13031:13067   */\n      iszero\n      tag_317\n      jumpi\n        /* \"#utility.yul\":13047:13065   */\n      tag_318\n      tag_173\n      jump\t// in\n    tag_318:\n        /* \"#utility.yul\":13031:13067   */\n    tag_317:\n        /* \"#utility.yul\":12883:13074   */\n      swap3\n      swap2\n      pop\n      pop\n      jump\t// out\n        /* \"#utility.yul\":13080:13313   */\n    tag_104:\n        /* \"#utility.yul\":13119:13122   */\n      0x00\n        /* \"#utility.yul\":13142:13166   */\n      tag_320\n        /* \"#utility.yul\":13160:13165   */\n      dup3\n        /* \"#utility.yul\":13142:13166   */\n      tag_168\n      jump\t// in\n    tag_320:\n        /* \"#utility.yul\":13133:13166   */\n      swap2\n      pop\n        /* \"#utility.yul\":13188:13254   */\n      0xffffffffffffffffffffffffffffffffffffffffffffffffffffffffffffffff\n        /* \"#utility.yul\":13181:13186   */\n      dup3\n        /* \"#utility.yul\":13178:13255   */\n      sub\n        /* \"#utility.yul\":13175:13278   */\n      tag_321\n      jumpi\n        /* \"#utility.yul\":13258:13276   */\n      tag_322\n      tag_173\n      jump\t// in\n    tag_322:\n        /* \"#utility.yul\":13175:13278   */\n    tag_321:\n        /* \"#utility.yul\":13305:13306   */\n      0x01\n        /* \"#utility.yul\":13298:13303   */\n      dup3\n        /* \"#utility.yul\":13294:13307   */\n      add\n        /* \"#utility.yul\":13287:13307   */\n      swap1\n      pop\n        /* \"#utility.yul\":13080:13313   */\n      swap2\n      swap1\n      pop\n      jump\t// out\n        /* \"#utility.yul\":13319:13613   */\n    tag_186:\n        /* \"#utility.yul\":13459:13493   */\n      0x45636f6d6d65726365436f6e74726163743a20496e73756666696369656e7420\n        /* \"#utility.yul\":13455:13456   */\n      0x00\n        /* \"#utility.yul\":13447:13453   */\n      dup3\n        /* \"#utility.yul\":13443:13457   */\n      add\n        /* \"#utility.yul\":13436:13494   */\n      mstore\n        /* \"#utility.yul\":13528:13562   */\n      0x636f6e74726163742062616c616e636520746f20646973747269627574652070\n        /* \"#utility.yul\":13523:13525   */\n      0x20\n        /* \"#utility.yul\":13515:13521   */\n      dup3\n        /* \"#utility.yul\":13511:13526   */\n      add\n        /* \"#utility.yul\":13504:13563   */\n      mstore\n        /* \"#utility.yul\":13597:13605   */\n      0x72697a65732e0000000000000000000000000000000000000000000000000000\n        /* \"#utility.yul\":13592:13594   */\n      0x40\n        /* \"#utility.yul\":13584:13590   */\n      dup3\n        /* \"#utility.yul\":13580:13595   */\n      add\n        /* \"#utility.yul\":13573:13606   */\n      mstore\n        /* \"#utility.yul\":13319:13613   */\n      pop\n      jump\t// out\n        /* \"#utility.yul\":13619:13985   */\n    tag_187:\n        /* \"#utility.yul\":13761:13764   */\n      0x00\n        /* \"#utility.yul\":13782:13849   */\n      tag_325\n        /* \"#utility.yul\":13846:13848   */\n      0x46\n        /* \"#utility.yul\":13841:13844   */\n      dup4\n        /* \"#utility.yul\":13782:13849   */\n      tag_170\n      jump\t// in\n    tag_325:\n        /* \"#utility.yul\":13775:13849   */\n      swap2\n      pop\n        /* \"#utility.yul\":13858:13951   */\n      tag_326\n        /* \"#utility.yul\":13947:13950   */\n      dup3\n        /* \"#utility.yul\":13858:13951   */\n      tag_186\n      jump\t// in\n    tag_326:\n        /* \"#utility.yul\":13976:13978   */\n      0x60\n        /* \"#utility.yul\":13971:13974   */\n      dup3\n        /* \"#utility.yul\":13967:13979   */\n      add\n        /* \"#utility.yul\":13960:13979   */\n      swap1\n      pop\n        /* \"#utility.yul\":13619:13985   */\n      swap2\n      swap1\n      pop\n      jump\t// out\n        /* \"#utility.yul\":13991:14410   */\n    tag_107:\n        /* \"#utility.yul\":14157:14161   */\n      0x00\n        /* \"#utility.yul\":14195:14197   */\n      0x20\n        /* \"#utility.yul\":14184:14193   */\n      dup3\n        /* \"#utility.yul\":14180:14198   */\n      add\n        /* \"#utility.yul\":14172:14198   */\n      swap1\n      pop\n        /* \"#utility.yul\":14244:14253   */\n      dup2\n        /* \"#utility.yul\":14238:14242   */\n      dup2\n        /* \"#utility.yul\":14234:14254   */\n      sub\n        /* \"#utility.yul\":14230:14231   */\n      0x00\n        /* \"#utility.yul\":14219:14228   */\n      dup4\n        /* \"#utility.yul\":14215:14232   */\n      add\n        /* \"#utility.yul\":14208:14255   */\n      mstore\n        /* \"#utility.yul\":14272:14403   */\n      tag_328\n        /* \"#utility.yul\":14398:14402   */\n      dup2\n        /* \"#utility.yul\":14272:14403   */\n      tag_187\n      jump\t// in\n    tag_328:\n        /* \"#utility.yul\":14264:14403   */\n      swap1\n      pop\n        /* \"#utility.yul\":13991:14410   */\n      swap2\n      swap1\n      pop\n      jump\t// out\n        /* \"#utility.yul\":14416:14660   */\n    tag_188:\n        /* \"#utility.yul\":14556:14590   */\n      0x45636f6d6d65726365436f6e74726163743a2043616e6e6f742073656e642070\n        /* \"#utility.yul\":14552:14553   */\n      0x00\n        /* \"#utility.yul\":14544:14550   */\n      dup3\n        /* \"#utility.yul\":14540:14554   */\n      add\n        /* \"#utility.yul\":14533:14591   */\n      mstore\n        /* \"#utility.yul\":14625:14652   */\n      0x72697a6520746f20746865207a65726f20616464726573732e00000000000000\n        /* \"#utility.yul\":14620:14622   */\n      0x20\n        /* \"#utility.yul\":14612:14618   */\n      dup3\n        /* \"#utility.yul\":14608:14623   */\n      add\n        /* \"#utility.yul\":14601:14653   */\n      mstore\n        /* \"#utility.yul\":14416:14660   */\n      pop\n      jump\t// out\n        /* \"#utility.yul\":14666:15032   */\n    tag_189:\n        /* \"#utility.yul\":14808:14811   */\n      0x00\n        /* \"#utility.yul\":14829:14896   */\n      tag_331\n        /* \"#utility.yul\":14893:14895   */\n      0x39\n        /* \"#utility.yul\":14888:14891   */\n      dup4\n        /* \"#utility.yul\":14829:14896   */\n      tag_170\n      jump\t// in\n    tag_331:\n        /* \"#utility.yul\":14822:14896   */\n      swap2\n      pop\n        /* \"#utility.yul\":14905:14998   */\n      tag_332\n        /* \"#utility.yul\":14994:14997   */\n      dup3\n        /* \"#utility.yul\":14905:14998   */\n      tag_188\n      jump\t// in\n    tag_332:\n        /* \"#utility.yul\":15023:15025   */\n      0x40\n        /* \"#utility.yul\":15018:15021   */\n      dup3\n        /* \"#utility.yul\":15014:15026   */\n      add\n        /* \"#utility.yul\":15007:15026   */\n      swap1\n      pop\n        /* \"#utility.yul\":14666:15032   */\n      swap2\n      swap1\n      pop\n      jump\t// out\n        /* \"#utility.yul\":15038:15457   */\n    tag_116:\n        /* \"#utility.yul\":15204:15208   */\n      0x00\n        /* \"#utility.yul\":15242:15244   */\n      0x20\n        /* \"#utility.yul\":15231:15240   */\n      dup3\n        /* \"#utility.yul\":15227:15245   */\n      add\n        /* \"#utility.yul\":15219:15245   */\n      swap1\n      pop\n        /* \"#utility.yul\":15291:15300   */\n      dup2\n        /* \"#utility.yul\":15285:15289   */\n      dup2\n        /* \"#utility.yul\":15281:15301   */\n      sub\n        /* \"#utility.yul\":15277:15278   */\n      0x00\n        /* \"#utility.yul\":15266:15275   */\n      dup4\n        /* \"#utility.yul\":15262:15279   */\n      add\n        /* \"#utility.yul\":15255:15302   */\n      mstore\n        /* \"#utility.yul\":15319:15450   */\n      tag_334\n        /* \"#utility.yul\":15445:15449   */\n      dup2\n        /* \"#utility.yul\":15319:15450   */\n      tag_189\n      jump\t// in\n    tag_334:\n        /* \"#utility.yul\":15311:15450   */\n      swap1\n      pop\n        /* \"#utility.yul\":15038:15457   */\n      swap2\n      swap1\n      pop\n      jump\t// out\n        /* \"#utility.yul\":15463:15702   */\n    tag_190:\n        /* \"#utility.yul\":15603:15637   */\n      0x45636f6d6d65726365436f6e74726163743a204661696c656420746f2073656e\n        /* \"#utility.yul\":15599:15600   */\n      0x00\n        /* \"#utility.yul\":15591:15597   */\n      dup3\n        /* \"#utility.yul\":15587:15601   */\n      add\n        /* \"#utility.yul\":15580:15638   */\n      mstore\n        /* \"#utility.yul\":15672:15694   */\n      0x64207072697a6520746f20612077696e6e65722e000000000000000000000000\n        /* \"#utility.yul\":15667:15669   */\n      0x20\n        /* \"#utility.yul\":15659:15665   */\n      dup3\n        /* \"#utility.yul\":15655:15670   */\n      add\n        /* \"#utility.yul\":15648:15695   */\n      mstore\n        /* \"#utility.yul\":15463:15702   */\n      pop\n      jump\t// out\n        /* \"#utility.yul\":15708:16074   */\n    tag_191:\n        /* \"#utility.yul\":15850:15853   */\n      0x00\n        /* \"#utility.yul\":15871:15938   */\n      tag_337\n        /* \"#utility.yul\":15935:15937   */\n      0x34\n        /* \"#utility.yul\":15930:15933   */\n      dup4\n        /* \"#utility.yul\":15871:15938   */\n      tag_170\n      jump\t// in\n    tag_337:\n        /* \"#utility.yul\":15864:15938   */\n      swap2\n      pop\n        /* \"#utility.yul\":15947:16040   */\n      tag_338\n        /* \"#utility.yul\":16036:16039   */\n      dup3\n        /* \"#utility.yul\":15947:16040   */\n      tag_190\n      jump\t// in\n    tag_338:\n        /* \"#utility.yul\":16065:16067   */\n      0x40\n        /* \"#utility.yul\":16060:16063   */\n      dup3\n        /* \"#utility.yul\":16056:16068   */\n      add\n        /* \"#utility.yul\":16049:16068   */\n      swap1\n      pop\n        /* \"#utility.yul\":15708:16074   */\n      swap2\n      swap1\n      pop\n      jump\t// out\n        /* \"#utility.yul\":16080:16499   */\n    tag_128:\n        /* \"#utility.yul\":16246:16250   */\n      0x00\n        /* \"#utility.yul\":16284:16286   */\n      0x20\n        /* \"#utility.yul\":16273:16282   */\n      dup3\n        /* \"#utility.yul\":16269:16287   */\n      add\n        /* \"#utility.yul\":16261:16287   */\n      swap1\n      pop\n        /* \"#utility.yul\":16333:16342   */\n      dup2\n        /* \"#utility.yul\":16327:16331   */\n      dup2\n        /* \"#utility.yul\":16323:16343   */\n      sub\n        /* \"#utility.yul\":16319:16320   */\n      0x00\n        /* \"#utility.yul\":16308:16317   */\n      dup4\n        /* \"#utility.yul\":16304:16321   */\n      add\n        /* \"#utility.yul\":16297:16344   */\n      mstore\n        /* \"#utility.yul\":16361:16492   */\n      tag_340\n        /* \"#utility.yul\":16487:16491   */\n      dup2\n        /* \"#utility.yul\":16361:16492   */\n      tag_191\n      jump\t// in\n    tag_340:\n        /* \"#utility.yul\":16353:16492   */\n      swap1\n      pop\n        /* \"#utility.yul\":16080:16499   */\n      swap2\n      swap1\n      pop\n      jump\t// out\n        /* \"#utility.yul\":16505:16689   */\n    tag_192:\n        /* \"#utility.yul\":16604:16615   */\n      0x00\n        /* \"#utility.yul\":16638:16644   */\n      dup3\n        /* \"#utility.yul\":16633:16636   */\n      dup3\n        /* \"#utility.yul\":16626:16645   */\n      mstore\n        /* \"#utility.yul\":16678:16682   */\n      0x20\n        /* \"#utility.yul\":16673:16676   */\n      dup3\n        /* \"#utility.yul\":16669:16683   */\n      add\n        /* \"#utility.yul\":16654:16683   */\n      swap1\n      pop\n        /* \"#utility.yul\":16505:16689   */\n      swap3\n      swap2\n      pop\n      pop\n      jump\t// out\n        /* \"#utility.yul\":16695:16797   */\n    tag_193:\n        /* \"#utility.yul\":16764:16768   */\n      0x00\n        /* \"#utility.yul\":16787:16790   */\n      dup2\n        /* \"#utility.yul\":16779:16790   */\n      swap1\n      pop\n        /* \"#utility.yul\":16695:16797   */\n      swap2\n      swap1\n      pop\n      jump\t// out\n        /* \"#utility.yul\":16803:16911   */\n    tag_194:\n        /* \"#utility.yul\":16880:16904   */\n      tag_344\n        /* \"#utility.yul\":16898:16903   */\n      dup2\n        /* \"#utility.yul\":16880:16904   */\n      tag_157\n      jump\t// in\n    tag_344:\n        /* \"#utility.yul\":16875:16878   */\n      dup3\n        /* \"#utility.yul\":16868:16905   */\n      mstore\n        /* \"#utility.yul\":16803:16911   */\n      pop\n      pop\n      jump\t// out\n        /* \"#utility.yul\":16917:17096   */\n    tag_195:\n        /* \"#utility.yul\":16986:16996   */\n      0x00\n        /* \"#utility.yul\":17007:17053   */\n      tag_346\n        /* \"#utility.yul\":17049:17052   */\n      dup4\n        /* \"#utility.yul\":17041:17047   */\n      dup4\n        /* \"#utility.yul\":17007:17053   */\n      tag_194\n      jump\t// in\n    tag_346:\n        /* \"#utility.yul\":17085:17089   */\n      0x20\n        /* \"#utility.yul\":17080:17083   */\n      dup4\n        /* \"#utility.yul\":17076:17090   */\n      add\n        /* \"#utility.yul\":17062:17090   */\n      swap1\n      pop\n        /* \"#utility.yul\":16917:17096   */\n      swap3\n      swap2\n      pop\n      pop\n      jump\t// out\n        /* \"#utility.yul\":17102:17224   */\n    tag_196:\n        /* \"#utility.yul\":17154:17159   */\n      0x00\n        /* \"#utility.yul\":17179:17218   */\n      tag_348\n        /* \"#utility.yul\":17214:17216   */\n      0x20\n        /* \"#utility.yul\":17209:17212   */\n      dup5\n        /* \"#utility.yul\":17205:17217   */\n      add\n        /* \"#utility.yul\":17200:17203   */\n      dup5\n        /* \"#utility.yul\":17179:17218   */\n      tag_159\n      jump\t// in\n    tag_348:\n        /* \"#utility.yul\":17170:17218   */\n      swap1\n      pop\n        /* \"#utility.yul\":17102:17224   */\n      swap3\n      swap2\n      pop\n      pop\n      jump\t// out\n        /* \"#utility.yul\":17230:17345   */\n    tag_197:\n        /* \"#utility.yul\":17302:17306   */\n      0x00\n        /* \"#utility.yul\":17334:17338   */\n      0x20\n        /* \"#utility.yul\":17329:17332   */\n      dup3\n        /* \"#utility.yul\":17325:17339   */\n      add\n        /* \"#utility.yul\":17317:17339   */\n      swap1\n      pop\n        /* \"#utility.yul\":17230:17345   */\n      swap2\n      swap1\n      pop\n      jump\t// out\n        /* \"#utility.yul\":17381:18080   */\n    tag_198:\n        /* \"#utility.yul\":17510:17513   */\n      0x00\n        /* \"#utility.yul\":17533:17619   */\n      tag_351\n        /* \"#utility.yul\":17612:17618   */\n      dup4\n        /* \"#utility.yul\":17607:17610   */\n      dup6\n        /* \"#utility.yul\":17533:17619   */\n      tag_192\n      jump\t// in\n    tag_351:\n        /* \"#utility.yul\":17526:17619   */\n      swap4\n      pop\n        /* \"#utility.yul\":17643:17701   */\n      tag_352\n        /* \"#utility.yul\":17695:17700   */\n      dup3\n        /* \"#utility.yul\":17643:17701   */\n      tag_193\n      jump\t// in\n    tag_352:\n        /* \"#utility.yul\":17724:17731   */\n      dup1\n        /* \"#utility.yul\":17755:17756   */\n      0x00\n        /* \"#utility.yul\":17740:18055   */\n    tag_353:\n        /* \"#utility.yul\":17765:17771   */\n      dup6\n        /* \"#utility.yul\":17762:17763   */\n      dup2\n        /* \"#utility.yul\":17759:17772   */\n      lt\n        /* \"#utility.yul\":17740:18055   */\n      iszero\n      tag_355\n      jumpi\n        /* \"#utility.yul\":17835:17877   */\n      tag_356\n        /* \"#utility.yul\":17870:17876   */\n      dup3\n        /* \"#utility.yul\":17861:17868   */\n      dup5\n        /* \"#utility.yul\":17835:17877   */\n      tag_196\n      jump\t// in\n    tag_356:\n        /* \"#utility.yul\":17897:17960   */\n      tag_357\n        /* \"#utility.yul\":17956:17959   */\n      dup9\n        /* \"#utility.yul\":17941:17954   */\n      dup3\n        /* \"#utility.yul\":17897:17960   */\n      tag_195\n      jump\t// in\n    tag_357:\n        /* \"#utility.yul\":17890:17960   */\n      swap8\n      pop\n        /* \"#utility.yul\":17983:18045   */\n      tag_358\n        /* \"#utility.yul\":18038:18044   */\n      dup4\n        /* \"#utility.yul\":17983:18045   */\n      tag_197\n      jump\t// in\n    tag_358:\n        /* \"#utility.yul\":17973:18045   */\n      swap3\n      pop\n        /* \"#utility.yul\":17800:18055   */\n      pop\n        /* \"#utility.yul\":17787:17788   */\n      0x01\n        /* \"#utility.yul\":17784:17785   */\n      dup2\n        /* \"#utility.yul\":17780:17789   */\n      add\n        /* \"#utility.yul\":17775:17789   */\n      swap1\n      pop\n        /* \"#utility.yul\":17740:18055   */\n      jump(tag_353)\n    tag_355:\n        /* \"#utility.yul\":17744:17758   */\n      pop\n        /* \"#utility.yul\":18071:18074   */\n      dup6\n        /* \"#utility.yul\":18064:18074   */\n      swap3\n      pop\n        /* \"#utility.yul\":17515:18080   */\n      pop\n      pop\n        /* \"#utility.yul\":17381:18080   */\n      swap4\n      swap3\n      pop\n      pop\n      pop\n      jump\t// out\n        /* \"#utility.yul\":18086:18270   */\n    tag_199:\n        /* \"#utility.yul\":18185:18196   */\n      0x00\n        /* \"#utility.yul\":18219:18225   */\n      dup3\n        /* \"#utility.yul\":18214:18217   */\n      dup3\n        /* \"#utility.yul\":18207:18226   */\n      mstore\n        /* \"#utility.yul\":18259:18263   */\n      0x20\n        /* \"#utility.yul\":18254:18257   */\n      dup3\n        /* \"#utility.yul\":18250:18264   */\n      add\n        /* \"#utility.yul\":18235:18264   */\n      swap1\n      pop\n        /* \"#utility.yul\":18086:18270   */\n      swap3\n      swap2\n      pop\n      pop\n      jump\t// out\n        /* \"#utility.yul\":18276:18393   */\n    tag_200:\n        /* \"#utility.yul\":18385:18386   */\n      0x00\n        /* \"#utility.yul\":18382:18383   */\n      dup1\n        /* \"#utility.yul\":18375:18387   */\n      revert\n        /* \"#utility.yul\":18399:18497   */\n    tag_201:\n        /* \"#utility.yul\":18483:18489   */\n      dup3\n        /* \"#utility.yul\":18478:18481   */\n      dup2\n        /* \"#utility.yul\":18473:18476   */\n      dup4\n        /* \"#utility.yul\":18460:18490   */\n      calldatacopy\n        /* \"#utility.yul\":18399:18497   */\n      pop\n      pop\n      pop\n      jump\t// out\n        /* \"#utility.yul\":18533:19070   */\n    tag_202:\n        /* \"#utility.yul\":18661:18664   */\n      0x00\n        /* \"#utility.yul\":18682:18768   */\n      tag_363\n        /* \"#utility.yul\":18761:18767   */\n      dup4\n        /* \"#utility.yul\":18756:18759   */\n      dup6\n        /* \"#utility.yul\":18682:18768   */\n      tag_199\n      jump\t// in\n    tag_363:\n        /* \"#utility.yul\":18675:18768   */\n      swap4\n      pop\n        /* \"#utility.yul\":18792:18858   */\n      0x07ffffffffffffffffffffffffffffffffffffffffffffffffffffffffffffff\n        /* \"#utility.yul\":18784:18790   */\n      dup4\n        /* \"#utility.yul\":18781:18859   */\n      gt\n        /* \"#utility.yul\":18778:18943   */\n      iszero\n      tag_364\n      jumpi\n        /* \"#utility.yul\":18862:18941   */\n      tag_365\n      tag_200\n      jump\t// in\n    tag_365:\n        /* \"#utility.yul\":18778:18943   */\n    tag_364:\n        /* \"#utility.yul\":18974:18978   */\n      0x20\n        /* \"#utility.yul\":18966:18972   */\n      dup4\n        /* \"#utility.yul\":18962:18979   */\n      mul\n        /* \"#utility.yul\":18952:18979   */\n      swap3\n      pop\n        /* \"#utility.yul\":18989:19032   */\n      tag_366\n        /* \"#utility.yul\":19025:19031   */\n      dup4\n        /* \"#utility.yul\":19020:19023   */\n      dup6\n        /* \"#utility.yul\":19013:19018   */\n      dup5\n        /* \"#utility.yul\":18989:19032   */\n      tag_201\n      jump\t// in\n    tag_366:\n        /* \"#utility.yul\":19057:19063   */\n      dup3\n        /* \"#utility.yul\":19052:19055   */\n      dup5\n        /* \"#utility.yul\":19048:19064   */\n      add\n        /* \"#utility.yul\":19041:19064   */\n      swap1\n      pop\n        /* \"#utility.yul\":18533:19070   */\n      swap4\n      swap3\n      pop\n      pop\n      pop\n      jump\t// out\n        /* \"#utility.yul\":19076:19750   */\n    tag_131:\n        /* \"#utility.yul\":19317:19321   */\n      0x00\n        /* \"#utility.yul\":19355:19357   */\n      0x40\n        /* \"#utility.yul\":19344:19353   */\n      dup3\n        /* \"#utility.yul\":19340:19358   */\n      add\n        /* \"#utility.yul\":19332:19358   */\n      swap1\n      pop\n        /* \"#utility.yul\":19404:19413   */\n      dup2\n        /* \"#utility.yul\":19398:19402   */\n      dup2\n        /* \"#utility.yul\":19394:19414   */\n      sub\n        /* \"#utility.yul\":19390:19391   */\n      0x00\n        /* \"#utility.yul\":19379:19388   */\n      dup4\n        /* \"#utility.yul\":19375:19392   */\n      add\n        /* \"#utility.yul\":19368:19415   */\n      mstore\n        /* \"#utility.yul\":19432:19550   */\n      tag_368\n        /* \"#utility.yul\":19545:19549   */\n      dup2\n        /* \"#utility.yul\":19536:19542   */\n      dup7\n        /* \"#utility.yul\":19528:19534   */\n      dup9\n        /* \"#utility.yul\":19432:19550   */\n      tag_198\n      jump\t// in\n    tag_368:\n        /* \"#utility.yul\":19424:19550   */\n      swap1\n      pop\n        /* \"#utility.yul\":19597:19606   */\n      dup2\n        /* \"#utility.yul\":19591:19595   */\n      dup2\n        /* \"#utility.yul\":19587:19607   */\n      sub\n        /* \"#utility.yul\":19582:19584   */\n      0x20\n        /* \"#utility.yul\":19571:19580   */\n      dup4\n        /* \"#utility.yul\":19567:19585   */\n      add\n        /* \"#utility.yul\":19560:19608   */\n      mstore\n        /* \"#utility.yul\":19625:19743   */\n      tag_369\n        /* \"#utility.yul\":19738:19742   */\n      dup2\n        /* \"#utility.yul\":19729:19735   */\n      dup5\n        /* \"#utility.yul\":19721:19727   */\n      dup7\n        /* \"#utility.yul\":19625:19743   */\n      tag_202\n      jump\t// in\n    tag_369:\n        /* \"#utility.yul\":19617:19743   */\n      swap1\n      pop\n        /* \"#utility.yul\":19076:19750   */\n      swap6\n      swap5\n      pop\n      pop\n      pop\n      pop\n      pop\n      jump\t// out\n\n    auxdata: 0xa2646970667358221220e3ebdf9516f7687a822adf1f927d731d0a493a9e44bd67fb1cba17e06e8439ee64736f6c63430008140033\n}\n",
				"bytecode": {
					"linkReferences": {},
					"object": "608060405234801562000010575f80fd5b50335f73ffffffffffffffffffffffffffffffffffffffff168173ffffffffffffffffffffffffffffffffffffffff160362000085575f6040517f1e4fbdf70000000000000000000000000000000000000000000000000000000081526004016200007c9190620001a1565b60405180910390fd5b62000096816200009d60201b60201c565b50620001bc565b5f805f9054906101000a900473ffffffffffffffffffffffffffffffffffffffff169050815f806101000a81548173ffffffffffffffffffffffffffffffffffffffff021916908373ffffffffffffffffffffffffffffffffffffffff1602179055508173ffffffffffffffffffffffffffffffffffffffff168173ffffffffffffffffffffffffffffffffffffffff167f8be0079c531659141344cd1fd0a4f28419497f9722a3daafe3b4186f6b6457e060405160405180910390a35050565b5f73ffffffffffffffffffffffffffffffffffffffff82169050919050565b5f62000189826200015e565b9050919050565b6200019b816200017d565b82525050565b5f602082019050620001b65f83018462000190565b92915050565b6114b280620001ca5f395ff3fe608060405260043610610089575f3560e01c80638da5cb5b116100585780638da5cb5b1461010457806390118fb41461012e578063a3d43e481461016a578063b850091c14610194578063f2fde38b146101be57610090565b806325b31a97146100945780633ccfd60b146100b0578063406a378a146100c6578063715018a6146100ee57610090565b3661009057005b5f80fd5b6100ae60048036038101906100a99190610a7e565b6101e6565b005b3480156100bb575f80fd5b506100c4610423565b005b3480156100d1575f80fd5b506100ec60048036038101906100e79190610b5f565b6104dd565b005b3480156100f9575f80fd5b506101026107e1565b005b34801561010f575f80fd5b506101186107f4565b6040516101259190610bec565b60405180910390f35b348015610139575f80fd5b50610154600480360381019061014f9190610a7e565b61081b565b6040516101619190610c1f565b60405180910390f35b348015610175575f80fd5b5061017e610838565b60405161018b9190610c50565b60405180910390f35b34801561019f575f80fd5b506101a861083e565b6040516101b59190610c50565b60405180910390f35b3480156101c9575f80fd5b506101e460048036038101906101df9190610a7e565b610849565b005b66b1a2bc2ec50000341461022f576040517f08c379a000000000000000000000000000000000000000000000000000000000815260040161022690610ce9565b60405180910390fd5b6001805f3373ffffffffffffffffffffffffffffffffffffffff1673ffffffffffffffffffffffffffffffffffffffff1681526020019081526020015f205f6101000a81548160ff0219169083151502179055505f8073ffffffffffffffffffffffffffffffffffffffff168273ffffffffffffffffffffffffffffffffffffffff16141580156102ec57503373ffffffffffffffffffffffffffffffffffffffff168273ffffffffffffffffffffffffffffffffffffffff1614155b156103b8576127106103e8346103029190610d34565b61030c9190610da2565b90505f8273ffffffffffffffffffffffffffffffffffffffff168260405161033390610dff565b5f6040518083038185875af1925050503d805f811461036d576040519150601f19603f3d011682016040523d82523d5f602084013e610372565b606091505b50509050806103b6576040517f08c379a00000000000000000000000000000000000000000000000000000000081526004016103ad90610e83565b60405180910390fd5b505b8173ffffffffffffffffffffffffffffffffffffffff163373ffffffffffffffffffffffffffffffffffffffff167f41dc839b8160b1ba39281669abfad1e88e8a9d5f7e3cb234fe2a8d6067d5b0133484604051610417929190610ea1565b60405180910390a35050565b61042b6108cd565b5f6104346107f4565b73ffffffffffffffffffffffffffffffffffffffff164760405161045790610dff565b5f6040518083038185875af1925050503d805f8114610491576040519150601f19603f3d011682016040523d82523d5f602084013e610496565b606091505b50509050806104da576040517f08c379a00000000000000000000000000000000000000000000000000000000081526004016104d190610f38565b60405180910390fd5b50565b6104e56108cd565b5f848490501161052a576040517f08c379a000000000000000000000000000000000000000000000000000000000815260040161052190610fc6565b60405180910390fd5b818190508484905014610572576040517f08c379a00000000000000000000000000000000000000000000000000000000081526004016105699061107a565b60405180910390fd5b5f805b838390508110156105ba5783838281811061059357610592611098565b5b90506020020135826105a591906110c5565b915080806105b2906110f8565b915050610575565b50804710156105fe576040517f08c379a00000000000000000000000000000000000000000000000000000000081526004016105f5906111d5565b60405180910390fd5b5f5b8585905081101561079c575f73ffffffffffffffffffffffffffffffffffffffff1686868381811061063557610634611098565b5b905060200201602081019061064a9190610a7e565b73ffffffffffffffffffffffffffffffffffffffff16036106a0576040517f08c379a000000000000000000000000000000000000000000000000000000000815260040161069790611263565b60405180910390fd5b5f8686838181106106b4576106b3611098565b5b90506020020160208101906106c99190610a7e565b73ffffffffffffffffffffffffffffffffffffffff168585848181106106f2576106f1611098565b5b9050602002013560405161070590610dff565b5f6040518083038185875af1925050503d805f811461073f576040519150601f19603f3d011682016040523d82523d5f602084013e610744565b606091505b5050905080610788576040517f08c379a000000000000000000000000000000000000000000000000000000000815260040161077f906112f1565b60405180910390fd5b508080610794906110f8565b915050610600565b507ffa3b7284ecb3a03e8f238b69b61f5645294c15019ea509bd4aaee604d60fdc34858585856040516107d29493929190611443565b60405180910390a15050505050565b6107e96108cd565b6107f25f610954565b565b5f805f9054906101000a900473ffffffffffffffffffffffffffffffffffffffff16905090565b6001602052805f5260405f205f915054906101000a900460ff1681565b6103e881565b66b1a2bc2ec5000081565b6108516108cd565b5f73ffffffffffffffffffffffffffffffffffffffff168173ffffffffffffffffffffffffffffffffffffffff16036108c1575f6040517f1e4fbdf70000000000000000000000000000000000000000000000000000000081526004016108b89190610bec565b60405180910390fd5b6108ca81610954565b50565b6108d5610a15565b73ffffffffffffffffffffffffffffffffffffffff166108f36107f4565b73ffffffffffffffffffffffffffffffffffffffff161461095257610916610a15565b6040517f118cdaa70000000000000000000000000000000000000000000000000000000081526004016109499190610bec565b60405180910390fd5b565b5f805f9054906101000a900473ffffffffffffffffffffffffffffffffffffffff169050815f806101000a81548173ffffffffffffffffffffffffffffffffffffffff021916908373ffffffffffffffffffffffffffffffffffffffff1602179055508173ffffffffffffffffffffffffffffffffffffffff168173ffffffffffffffffffffffffffffffffffffffff167f8be0079c531659141344cd1fd0a4f28419497f9722a3daafe3b4186f6b6457e060405160405180910390a35050565b5f33905090565b5f80fd5b5f80fd5b5f73ffffffffffffffffffffffffffffffffffffffff82169050919050565b5f610a4d82610a24565b9050919050565b610a5d81610a43565b8114610a67575f80fd5b50565b5f81359050610a7881610a54565b92915050565b5f60208284031215610a9357610a92610a1c565b5b5f610aa084828501610a6a565b91505092915050565b5f80fd5b5f80fd5b5f80fd5b5f8083601f840112610aca57610ac9610aa9565b5b8235905067ffffffffffffffff811115610ae757610ae6610aad565b5b602083019150836020820283011115610b0357610b02610ab1565b5b9250929050565b5f8083601f840112610b1f57610b1e610aa9565b5b8235905067ffffffffffffffff811115610b3c57610b3b610aad565b5b602083019150836020820283011115610b5857610b57610ab1565b5b9250929050565b5f805f8060408587031215610b7757610b76610a1c565b5b5f85013567ffffffffffffffff811115610b9457610b93610a20565b5b610ba087828801610ab5565b9450945050602085013567ffffffffffffffff811115610bc357610bc2610a20565b5b610bcf87828801610b0a565b925092505092959194509250565b610be681610a43565b82525050565b5f602082019050610bff5f830184610bdd565b92915050565b5f8115159050919050565b610c1981610c05565b82525050565b5f602082019050610c325f830184610c10565b92915050565b5f819050919050565b610c4a81610c38565b82525050565b5f602082019050610c635f830184610c41565b92915050565b5f82825260208201905092915050565b7f45636f6d6d65726365436f6e74726163743a20496e636f727265637420616d6f5f8201527f756e742073656e7420666f722070757263686173652e00000000000000000000602082015250565b5f610cd3603683610c69565b9150610cde82610c79565b604082019050919050565b5f6020820190508181035f830152610d0081610cc7565b9050919050565b7f4e487b71000000000000000000000000000000000000000000000000000000005f52601160045260245ffd5b5f610d3e82610c38565b9150610d4983610c38565b9250828202610d5781610c38565b91508282048414831517610d6e57610d6d610d07565b5b5092915050565b7f4e487b71000000000000000000000000000000000000000000000000000000005f52601260045260245ffd5b5f610dac82610c38565b9150610db783610c38565b925082610dc757610dc6610d75565b5b828204905092915050565b5f81905092915050565b50565b5f610dea5f83610dd2565b9150610df582610ddc565b5f82019050919050565b5f610e0982610ddf565b9150819050919050565b7f45636f6d6d65726365436f6e74726163743a204661696c656420746f2073656e5f8201527f6420636f6d6d697373696f6e2e00000000000000000000000000000000000000602082015250565b5f610e6d602d83610c69565b9150610e7882610e13565b604082019050919050565b5f6020820190508181035f830152610e9a81610e61565b9050919050565b5f604082019050610eb45f830185610c41565b610ec16020830184610c41565b9392505050565b7f45636f6d6d65726365436f6e74726163743a204661696c656420746f207769745f8201527f686472617720636f6e74726163742062616c616e63652e000000000000000000602082015250565b5f610f22603783610c69565b9150610f2d82610ec8565b604082019050919050565b5f6020820190508181035f830152610f4f81610f16565b9050919050565b7f45636f6d6d65726365436f6e74726163743a2057696e6e6572732061727261795f8201527f2063616e6e6f7420626520656d7074792e000000000000000000000000000000602082015250565b5f610fb0603183610c69565b9150610fbb82610f56565b604082019050919050565b5f6020820190508181035f830152610fdd81610fa4565b9050919050565b7f45636f6d6d65726365436f6e74726163743a2057696e6e65727320616e6420615f8201527f6d6f756e747320617272617973206d7573742068617665207468652073616d6560208201527f206c656e6774682e000000000000000000000000000000000000000000000000604082015250565b5f611064604883610c69565b915061106f82610fe4565b606082019050919050565b5f6020820190508181035f83015261109181611058565b9050919050565b7f4e487b71000000000000000000000000000000000000000000000000000000005f52603260045260245ffd5b5f6110cf82610c38565b91506110da83610c38565b92508282019050808211156110f2576110f1610d07565b5b92915050565b5f61110282610c38565b91507fffffffffffffffffffffffffffffffffffffffffffffffffffffffffffffffff820361113457611133610d07565b5b600182019050919050565b7f45636f6d6d65726365436f6e74726163743a20496e73756666696369656e74205f8201527f636f6e74726163742062616c616e636520746f2064697374726962757465207060208201527f72697a65732e0000000000000000000000000000000000000000000000000000604082015250565b5f6111bf604683610c69565b91506111ca8261113f565b606082019050919050565b5f6020820190508181035f8301526111ec816111b3565b9050919050565b7f45636f6d6d65726365436f6e74726163743a2043616e6e6f742073656e6420705f8201527f72697a6520746f20746865207a65726f20616464726573732e00000000000000602082015250565b5f61124d603983610c69565b9150611258826111f3565b604082019050919050565b5f6020820190508181035f83015261127a81611241565b9050919050565b7f45636f6d6d65726365436f6e74726163743a204661696c656420746f2073656e5f8201527f64207072697a6520746f20612077696e6e65722e000000000000000000000000602082015250565b5f6112db603483610c69565b91506112e682611281565b604082019050919050565b5f6020820190508181035f830152611308816112cf565b9050919050565b5f82825260208201905092915050565b5f819050919050565b61133181610a43565b82525050565b5f6113428383611328565b60208301905092915050565b5f61135c6020840184610a6a565b905092915050565b5f602082019050919050565b5f61137b838561130f565b93506113868261131f565b805f5b858110156113be5761139b828461134e565b6113a58882611337565b97506113b083611364565b925050600181019050611389565b5085925050509392505050565b5f82825260208201905092915050565b5f80fd5b82818337505050565b5f6113f383856113cb565b93507f07ffffffffffffffffffffffffffffffffffffffffffffffffffffffffffffff831115611426576114256113db565b5b6020830292506114378385846113df565b82840190509392505050565b5f6040820190508181035f83015261145c818688611370565b905081810360208301526114718184866113e8565b90509594505050505056fea2646970667358221220e3ebdf9516f7687a822adf1f927d731d0a493a9e44bd67fb1cba17e06e8439ee64736f6c63430008140033",
					"opcodes": "PUSH1 0x80 PUSH1 0x40 MSTORE CALLVALUE DUP1 ISZERO PUSH3 0x10 JUMPI PUSH0 DUP1 REVERT JUMPDEST POP CALLER PUSH0 PUSH20 0xFFFFFFFFFFFFFFFFFFFFFFFFFFFFFFFFFFFFFFFF AND DUP2 PUSH20 0xFFFFFFFFFFFFFFFFFFFFFFFFFFFFFFFFFFFFFFFF AND SUB PUSH3 0x85 JUMPI PUSH0 PUSH1 0x40 MLOAD PUSH32 0x1E4FBDF700000000000000000000000000000000000000000000000000000000 DUP2 MSTORE PUSH1 0x4 ADD PUSH3 0x7C SWAP2 SWAP1 PUSH3 0x1A1 JUMP JUMPDEST PUSH1 0x40 MLOAD DUP1 SWAP2 SUB SWAP1 REVERT JUMPDEST PUSH3 0x96 DUP2 PUSH3 0x9D PUSH1 0x20 SHL PUSH1 0x20 SHR JUMP JUMPDEST POP PUSH3 0x1BC JUMP JUMPDEST PUSH0 DUP1 PUSH0 SWAP1 SLOAD SWAP1 PUSH2 0x100 EXP SWAP1 DIV PUSH20 0xFFFFFFFFFFFFFFFFFFFFFFFFFFFFFFFFFFFFFFFF AND SWAP1 POP DUP2 PUSH0 DUP1 PUSH2 0x100 EXP DUP2 SLOAD DUP2 PUSH20 0xFFFFFFFFFFFFFFFFFFFFFFFFFFFFFFFFFFFFFFFF MUL NOT AND SWAP1 DUP4 PUSH20 0xFFFFFFFFFFFFFFFFFFFFFFFFFFFFFFFFFFFFFFFF AND MUL OR SWAP1 SSTORE POP DUP2 PUSH20 0xFFFFFFFFFFFFFFFFFFFFFFFFFFFFFFFFFFFFFFFF AND DUP2 PUSH20 0xFFFFFFFFFFFFFFFFFFFFFFFFFFFFFFFFFFFFFFFF AND PUSH32 0x8BE0079C531659141344CD1FD0A4F28419497F9722A3DAAFE3B4186F6B6457E0 PUSH1 0x40 MLOAD PUSH1 0x40 MLOAD DUP1 SWAP2 SUB SWAP1 LOG3 POP POP JUMP JUMPDEST PUSH0 PUSH20 0xFFFFFFFFFFFFFFFFFFFFFFFFFFFFFFFFFFFFFFFF DUP3 AND SWAP1 POP SWAP2 SWAP1 POP JUMP JUMPDEST PUSH0 PUSH3 0x189 DUP3 PUSH3 0x15E JUMP JUMPDEST SWAP1 POP SWAP2 SWAP1 POP JUMP JUMPDEST PUSH3 0x19B DUP2 PUSH3 0x17D JUMP JUMPDEST DUP3 MSTORE POP POP JUMP JUMPDEST PUSH0 PUSH1 0x20 DUP3 ADD SWAP1 POP PUSH3 0x1B6 PUSH0 DUP4 ADD DUP5 PUSH3 0x190 JUMP JUMPDEST SWAP3 SWAP2 POP POP JUMP JUMPDEST PUSH2 0x14B2 DUP1 PUSH3 0x1CA PUSH0 CODECOPY PUSH0 RETURN INVALID PUSH1 0x80 PUSH1 0x40 MSTORE PUSH1 0x4 CALLDATASIZE LT PUSH2 0x89 JUMPI PUSH0 CALLDATALOAD PUSH1 0xE0 SHR DUP1 PUSH4 0x8DA5CB5B GT PUSH2 0x58 JUMPI DUP1 PUSH4 0x8DA5CB5B EQ PUSH2 0x104 JUMPI DUP1 PUSH4 0x90118FB4 EQ PUSH2 0x12E JUMPI DUP1 PUSH4 0xA3D43E48 EQ PUSH2 0x16A JUMPI DUP1 PUSH4 0xB850091C EQ PUSH2 0x194 JUMPI DUP1 PUSH4 0xF2FDE38B EQ PUSH2 0x1BE JUMPI PUSH2 0x90 JUMP JUMPDEST DUP1 PUSH4 0x25B31A97 EQ PUSH2 0x94 JUMPI DUP1 PUSH4 0x3CCFD60B EQ PUSH2 0xB0 JUMPI DUP1 PUSH4 0x406A378A EQ PUSH2 0xC6 JUMPI DUP1 PUSH4 0x715018A6 EQ PUSH2 0xEE JUMPI PUSH2 0x90 JUMP JUMPDEST CALLDATASIZE PUSH2 0x90 JUMPI STOP JUMPDEST PUSH0 DUP1 REVERT JUMPDEST PUSH2 0xAE PUSH1 0x4 DUP1 CALLDATASIZE SUB DUP2 ADD SWAP1 PUSH2 0xA9 SWAP2 SWAP1 PUSH2 0xA7E JUMP JUMPDEST PUSH2 0x1E6 JUMP JUMPDEST STOP JUMPDEST CALLVALUE DUP1 ISZERO PUSH2 0xBB JUMPI PUSH0 DUP1 REVERT JUMPDEST POP PUSH2 0xC4 PUSH2 0x423 JUMP JUMPDEST STOP JUMPDEST CALLVALUE DUP1 ISZERO PUSH2 0xD1 JUMPI PUSH0 DUP1 REVERT JUMPDEST POP PUSH2 0xEC PUSH1 0x4 DUP1 CALLDATASIZE SUB DUP2 ADD SWAP1 PUSH2 0xE7 SWAP2 SWAP1 PUSH2 0xB5F JUMP JUMPDEST PUSH2 0x4DD JUMP JUMPDEST STOP JUMPDEST CALLVALUE DUP1 ISZERO PUSH2 0xF9 JUMPI PUSH0 DUP1 REVERT JUMPDEST POP PUSH2 0x102 PUSH2 0x7E1 JUMP JUMPDEST STOP JUMPDEST CALLVALUE DUP1 ISZERO PUSH2 0x10F JUMPI PUSH0 DUP1 REVERT JUMPDEST POP PUSH2 0x118 PUSH2 0x7F4 JUMP JUMPDEST PUSH1 0x40 MLOAD PUSH2 0x125 SWAP2 SWAP1 PUSH2 0xBEC JUMP JUMPDEST PUSH1 0x40 MLOAD DUP1 SWAP2 SUB SWAP1 RETURN JUMPDEST CALLVALUE DUP1 ISZERO PUSH2 0x139 JUMPI PUSH0 DUP1 REVERT JUMPDEST POP PUSH2 0x154 PUSH1 0x4 DUP1 CALLDATASIZE SUB DUP2 ADD SWAP1 PUSH2 0x14F SWAP2 SWAP1 PUSH2 0xA7E JUMP JUMPDEST PUSH2 0x81B JUMP JUMPDEST PUSH1 0x40 MLOAD PUSH2 0x161 SWAP2 SWAP1 PUSH2 0xC1F JUMP JUMPDEST PUSH1 0x40 MLOAD DUP1 SWAP2 SUB SWAP1 RETURN JUMPDEST CALLVALUE DUP1 ISZERO PUSH2 0x175 JUMPI PUSH0 DUP1 REVERT JUMPDEST POP PUSH2 0x17E PUSH2 0x838 JUMP JUMPDEST PUSH1 0x40 MLOAD PUSH2 0x18B SWAP2 SWAP1 PUSH2 0xC50 JUMP JUMPDEST PUSH1 0x40 MLOAD DUP1 SWAP2 SUB SWAP1 RETURN JUMPDEST CALLVALUE DUP1 ISZERO PUSH2 0x19F JUMPI PUSH0 DUP1 REVERT JUMPDEST POP PUSH2 0x1A8 PUSH2 0x83E JUMP JUMPDEST PUSH1 0x40 MLOAD PUSH2 0x1B5 SWAP2 SWAP1 PUSH2 0xC50 JUMP JUMPDEST PUSH1 0x40 MLOAD DUP1 SWAP2 SUB SWAP1 RETURN JUMPDEST CALLVALUE DUP1 ISZERO PUSH2 0x1C9 JUMPI PUSH0 DUP1 REVERT JUMPDEST POP PUSH2 0x1E4 PUSH1 0x4 DUP1 CALLDATASIZE SUB DUP2 ADD SWAP1 PUSH2 0x1DF SWAP2 SWAP1 PUSH2 0xA7E JUMP JUMPDEST PUSH2 0x849 JUMP JUMPDEST STOP JUMPDEST PUSH7 0xB1A2BC2EC50000 CALLVALUE EQ PUSH2 0x22F JUMPI PUSH1 0x40 MLOAD PUSH32 0x8C379A000000000000000000000000000000000000000000000000000000000 DUP2 MSTORE PUSH1 0x4 ADD PUSH2 0x226 SWAP1 PUSH2 0xCE9 JUMP JUMPDEST PUSH1 0x40 MLOAD DUP1 SWAP2 SUB SWAP1 REVERT JUMPDEST PUSH1 0x1 DUP1 PUSH0 CALLER PUSH20 0xFFFFFFFFFFFFFFFFFFFFFFFFFFFFFFFFFFFFFFFF AND PUSH20 0xFFFFFFFFFFFFFFFFFFFFFFFFFFFFFFFFFFFFFFFF AND DUP2 MSTORE PUSH1 0x20 ADD SWAP1 DUP2 MSTORE PUSH1 0x20 ADD PUSH0 KECCAK256 PUSH0 PUSH2 0x100 EXP DUP2 SLOAD DUP2 PUSH1 0xFF MUL NOT AND SWAP1 DUP4 ISZERO ISZERO MUL OR SWAP1 SSTORE POP PUSH0 DUP1 PUSH20 0xFFFFFFFFFFFFFFFFFFFFFFFFFFFFFFFFFFFFFFFF AND DUP3 PUSH20 0xFFFFFFFFFFFFFFFFFFFFFFFFFFFFFFFFFFFFFFFF AND EQ ISZERO DUP1 ISZERO PUSH2 0x2EC JUMPI POP CALLER PUSH20 0xFFFFFFFFFFFFFFFFFFFFFFFFFFFFFFFFFFFFFFFF AND DUP3 PUSH20 0xFFFFFFFFFFFFFFFFFFFFFFFFFFFFFFFFFFFFFFFF AND EQ ISZERO JUMPDEST ISZERO PUSH2 0x3B8 JUMPI PUSH2 0x2710 PUSH2 0x3E8 CALLVALUE PUSH2 0x302 SWAP2 SWAP1 PUSH2 0xD34 JUMP JUMPDEST PUSH2 0x30C SWAP2 SWAP1 PUSH2 0xDA2 JUMP JUMPDEST SWAP1 POP PUSH0 DUP3 PUSH20 0xFFFFFFFFFFFFFFFFFFFFFFFFFFFFFFFFFFFFFFFF AND DUP3 PUSH1 0x40 MLOAD PUSH2 0x333 SWAP1 PUSH2 0xDFF JUMP JUMPDEST PUSH0 PUSH1 0x40 MLOAD DUP1 DUP4 SUB DUP2 DUP6 DUP8 GAS CALL SWAP3 POP POP POP RETURNDATASIZE DUP1 PUSH0 DUP2 EQ PUSH2 0x36D JUMPI PUSH1 0x40 MLOAD SWAP2 POP PUSH1 0x1F NOT PUSH1 0x3F RETURNDATASIZE ADD AND DUP3 ADD PUSH1 0x40 MSTORE RETURNDATASIZE DUP3 MSTORE RETURNDATASIZE PUSH0 PUSH1 0x20 DUP5 ADD RETURNDATACOPY PUSH2 0x372 JUMP JUMPDEST PUSH1 0x60 SWAP2 POP JUMPDEST POP POP SWAP1 POP DUP1 PUSH2 0x3B6 JUMPI PUSH1 0x40 MLOAD PUSH32 0x8C379A000000000000000000000000000000000000000000000000000000000 DUP2 MSTORE PUSH1 0x4 ADD PUSH2 0x3AD SWAP1 PUSH2 0xE83 JUMP JUMPDEST PUSH1 0x40 MLOAD DUP1 SWAP2 SUB SWAP1 REVERT JUMPDEST POP JUMPDEST DUP2 PUSH20 0xFFFFFFFFFFFFFFFFFFFFFFFFFFFFFFFFFFFFFFFF AND CALLER PUSH20 0xFFFFFFFFFFFFFFFFFFFFFFFFFFFFFFFFFFFFFFFF AND PUSH32 0x41DC839B8160B1BA39281669ABFAD1E88E8A9D5F7E3CB234FE2A8D6067D5B013 CALLVALUE DUP5 PUSH1 0x40 MLOAD PUSH2 0x417 SWAP3 SWAP2 SWAP1 PUSH2 0xEA1 JUMP JUMPDEST PUSH1 0x40 MLOAD DUP1 SWAP2 SUB SWAP1 LOG3 POP POP JUMP JUMPDEST PUSH2 0x42B PUSH2 0x8CD JUMP JUMPDEST PUSH0 PUSH2 0x434 PUSH2 0x7F4 JUMP JUMPDEST PUSH20 0xFFFFFFFFFFFFFFFFFFFFFFFFFFFFFFFFFFFFFFFF AND SELFBALANCE PUSH1 0x40 MLOAD PUSH2 0x457 SWAP1 PUSH2 0xDFF JUMP JUMPDEST PUSH0 PUSH1 0x40 MLOAD DUP1 DUP4 SUB DUP2 DUP6 DUP8 GAS CALL SWAP3 POP POP POP RETURNDATASIZE DUP1 PUSH0 DUP2 EQ PUSH2 0x491 JUMPI PUSH1 0x40 MLOAD SWAP2 POP PUSH1 0x1F NOT PUSH1 0x3F RETURNDATASIZE ADD AND DUP3 ADD PUSH1 0x40 MSTORE RETURNDATASIZE DUP3 MSTORE RETURNDATASIZE PUSH0 PUSH1 0x20 DUP5 ADD RETURNDATACOPY PUSH2 0x496 JUMP JUMPDEST PUSH1 0x60 SWAP2 POP JUMPDEST POP POP SWAP1 POP DUP1 PUSH2 0x4DA JUMPI PUSH1 0x40 MLOAD PUSH32 0x8C379A000000000000000000000000000000000000000000000000000000000 DUP2 MSTORE PUSH1 0x4 ADD PUSH2 0x4D1 SWAP1 PUSH2 0xF38 JUMP JUMPDEST PUSH1 0x40 MLOAD DUP1 SWAP2 SUB SWAP1 REVERT JUMPDEST POP JUMP JUMPDEST PUSH2 0x4E5 PUSH2 0x8CD JUMP JUMPDEST PUSH0 DUP5 DUP5 SWAP1 POP GT PUSH2 0x52A JUMPI PUSH1 0x40 MLOAD PUSH32 0x8C379A000000000000000000000000000000000000000000000000000000000 DUP2 MSTORE PUSH1 0x4 ADD PUSH2 0x521 SWAP1 PUSH2 0xFC6 JUMP JUMPDEST PUSH1 0x40 MLOAD DUP1 SWAP2 SUB SWAP1 REVERT JUMPDEST DUP2 DUP2 SWAP1 POP DUP5 DUP5 SWAP1 POP EQ PUSH2 0x572 JUMPI PUSH1 0x40 MLOAD PUSH32 0x8C379A000000000000000000000000000000000000000000000000000000000 DUP2 MSTORE PUSH1 0x4 ADD PUSH2 0x569 SWAP1 PUSH2 0x107A JUMP JUMPDEST PUSH1 0x40 MLOAD DUP1 SWAP2 SUB SWAP1 REVERT JUMPDEST PUSH0 DUP1 JUMPDEST DUP4 DUP4 SWAP1 POP DUP2 LT ISZERO PUSH2 0x5BA JUMPI DUP4 DUP4 DUP3 DUP2 DUP2 LT PUSH2 0x593 JUMPI PUSH2 0x592 PUSH2 0x1098 JUMP JUMPDEST JUMPDEST SWAP1 POP PUSH1 0x20 MUL ADD CALLDATALOAD DUP3 PUSH2 0x5A5 SWAP2 SWAP1 PUSH2 0x10C5 JUMP JUMPDEST SWAP2 POP DUP1 DUP1 PUSH2 0x5B2 SWAP1 PUSH2 0x10F8 JUMP JUMPDEST SWAP2 POP POP PUSH2 0x575 JUMP JUMPDEST POP DUP1 SELFBALANCE LT ISZERO PUSH2 0x5FE JUMPI PUSH1 0x40 MLOAD PUSH32 0x8C379A000000000000000000000000000000000000000000000000000000000 DUP2 MSTORE PUSH1 0x4 ADD PUSH2 0x5F5 SWAP1 PUSH2 0x11D5 JUMP JUMPDEST PUSH1 0x40 MLOAD DUP1 SWAP2 SUB SWAP1 REVERT JUMPDEST PUSH0 JUMPDEST DUP6 DUP6 SWAP1 POP DUP2 LT ISZERO PUSH2 0x79C JUMPI PUSH0 PUSH20 0xFFFFFFFFFFFFFFFFFFFFFFFFFFFFFFFFFFFFFFFF AND DUP7 DUP7 DUP4 DUP2 DUP2 LT PUSH2 0x635 JUMPI PUSH2 0x634 PUSH2 0x1098 JUMP JUMPDEST JUMPDEST SWAP1 POP PUSH1 0x20 MUL ADD PUSH1 0x20 DUP2 ADD SWAP1 PUSH2 0x64A SWAP2 SWAP1 PUSH2 0xA7E JUMP JUMPDEST PUSH20 0xFFFFFFFFFFFFFFFFFFFFFFFFFFFFFFFFFFFFFFFF AND SUB PUSH2 0x6A0 JUMPI PUSH1 0x40 MLOAD PUSH32 0x8C379A000000000000000000000000000000000000000000000000000000000 DUP2 MSTORE PUSH1 0x4 ADD PUSH2 0x697 SWAP1 PUSH2 0x1263 JUMP JUMPDEST PUSH1 0x40 MLOAD DUP1 SWAP2 SUB SWAP1 REVERT JUMPDEST PUSH0 DUP7 DUP7 DUP4 DUP2 DUP2 LT PUSH2 0x6B4 JUMPI PUSH2 0x6B3 PUSH2 0x1098 JUMP JUMPDEST JUMPDEST SWAP1 POP PUSH1 0x20 MUL ADD PUSH1 0x20 DUP2 ADD SWAP1 PUSH2 0x6C9 SWAP2 SWAP1 PUSH2 0xA7E JUMP JUMPDEST PUSH20 0xFFFFFFFFFFFFFFFFFFFFFFFFFFFFFFFFFFFFFFFF AND DUP6 DUP6 DUP5 DUP2 DUP2 LT PUSH2 0x6F2 JUMPI PUSH2 0x6F1 PUSH2 0x1098 JUMP JUMPDEST JUMPDEST SWAP1 POP PUSH1 0x20 MUL ADD CALLDATALOAD PUSH1 0x40 MLOAD PUSH2 0x705 SWAP1 PUSH2 0xDFF JUMP JUMPDEST PUSH0 PUSH1 0x40 MLOAD DUP1 DUP4 SUB DUP2 DUP6 DUP8 GAS CALL SWAP3 POP POP POP RETURNDATASIZE DUP1 PUSH0 DUP2 EQ PUSH2 0x73F JUMPI PUSH1 0x40 MLOAD SWAP2 POP PUSH1 0x1F NOT PUSH1 0x3F RETURNDATASIZE ADD AND DUP3 ADD PUSH1 0x40 MSTORE RETURNDATASIZE DUP3 MSTORE RETURNDATASIZE PUSH0 PUSH1 0x20 DUP5 ADD RETURNDATACOPY PUSH2 0x744 JUMP JUMPDEST PUSH1 0x60 SWAP2 POP JUMPDEST POP POP SWAP1 POP DUP1 PUSH2 0x788 JUMPI PUSH1 0x40 MLOAD PUSH32 0x8C379A000000000000000000000000000000000000000000000000000000000 DUP2 MSTORE PUSH1 0x4 ADD PUSH2 0x77F SWAP1 PUSH2 0x12F1 JUMP JUMPDEST PUSH1 0x40 MLOAD DUP1 SWAP2 SUB SWAP1 REVERT JUMPDEST POP DUP1 DUP1 PUSH2 0x794 SWAP1 PUSH2 0x10F8 JUMP JUMPDEST SWAP2 POP POP PUSH2 0x600 JUMP JUMPDEST POP PUSH32 0xFA3B7284ECB3A03E8F238B69B61F5645294C15019EA509BD4AAEE604D60FDC34 DUP6 DUP6 DUP6 DUP6 PUSH1 0x40 MLOAD PUSH2 0x7D2 SWAP5 SWAP4 SWAP3 SWAP2 SWAP1 PUSH2 0x1443 JUMP JUMPDEST PUSH1 0x40 MLOAD DUP1 SWAP2 SUB SWAP1 LOG1 POP POP POP POP POP JUMP JUMPDEST PUSH2 0x7E9 PUSH2 0x8CD JUMP JUMPDEST PUSH2 0x7F2 PUSH0 PUSH2 0x954 JUMP JUMPDEST JUMP JUMPDEST PUSH0 DUP1 PUSH0 SWAP1 SLOAD SWAP1 PUSH2 0x100 EXP SWAP1 DIV PUSH20 0xFFFFFFFFFFFFFFFFFFFFFFFFFFFFFFFFFFFFFFFF AND SWAP1 POP SWAP1 JUMP JUMPDEST PUSH1 0x1 PUSH1 0x20 MSTORE DUP1 PUSH0 MSTORE PUSH1 0x40 PUSH0 KECCAK256 PUSH0 SWAP2 POP SLOAD SWAP1 PUSH2 0x100 EXP SWAP1 DIV PUSH1 0xFF AND DUP2 JUMP JUMPDEST PUSH2 0x3E8 DUP2 JUMP JUMPDEST PUSH7 0xB1A2BC2EC50000 DUP2 JUMP JUMPDEST PUSH2 0x851 PUSH2 0x8CD JUMP JUMPDEST PUSH0 PUSH20 0xFFFFFFFFFFFFFFFFFFFFFFFFFFFFFFFFFFFFFFFF AND DUP2 PUSH20 0xFFFFFFFFFFFFFFFFFFFFFFFFFFFFFFFFFFFFFFFF AND SUB PUSH2 0x8C1 JUMPI PUSH0 PUSH1 0x40 MLOAD PUSH32 0x1E4FBDF700000000000000000000000000000000000000000000000000000000 DUP2 MSTORE PUSH1 0x4 ADD PUSH2 0x8B8 SWAP2 SWAP1 PUSH2 0xBEC JUMP JUMPDEST PUSH1 0x40 MLOAD DUP1 SWAP2 SUB SWAP1 REVERT JUMPDEST PUSH2 0x8CA DUP2 PUSH2 0x954 JUMP JUMPDEST POP JUMP JUMPDEST PUSH2 0x8D5 PUSH2 0xA15 JUMP JUMPDEST PUSH20 0xFFFFFFFFFFFFFFFFFFFFFFFFFFFFFFFFFFFFFFFF AND PUSH2 0x8F3 PUSH2 0x7F4 JUMP JUMPDEST PUSH20 0xFFFFFFFFFFFFFFFFFFFFFFFFFFFFFFFFFFFFFFFF AND EQ PUSH2 0x952 JUMPI PUSH2 0x916 PUSH2 0xA15 JUMP JUMPDEST PUSH1 0x40 MLOAD PUSH32 0x118CDAA700000000000000000000000000000000000000000000000000000000 DUP2 MSTORE PUSH1 0x4 ADD PUSH2 0x949 SWAP2 SWAP1 PUSH2 0xBEC JUMP JUMPDEST PUSH1 0x40 MLOAD DUP1 SWAP2 SUB SWAP1 REVERT JUMPDEST JUMP JUMPDEST PUSH0 DUP1 PUSH0 SWAP1 SLOAD SWAP1 PUSH2 0x100 EXP SWAP1 DIV PUSH20 0xFFFFFFFFFFFFFFFFFFFFFFFFFFFFFFFFFFFFFFFF AND SWAP1 POP DUP2 PUSH0 DUP1 PUSH2 0x100 EXP DUP2 SLOAD DUP2 PUSH20 0xFFFFFFFFFFFFFFFFFFFFFFFFFFFFFFFFFFFFFFFF MUL NOT AND SWAP1 DUP4 PUSH20 0xFFFFFFFFFFFFFFFFFFFFFFFFFFFFFFFFFFFFFFFF AND MUL OR SWAP1 SSTORE POP DUP2 PUSH20 0xFFFFFFFFFFFFFFFFFFFFFFFFFFFFFFFFFFFFFFFF AND DUP2 PUSH20 0xFFFFFFFFFFFFFFFFFFFFFFFFFFFFFFFFFFFFFFFF AND PUSH32 0x8BE0079C531659141344CD1FD0A4F28419497F9722A3DAAFE3B4186F6B6457E0 PUSH1 0x40 MLOAD PUSH1 0x40 MLOAD DUP1 SWAP2 SUB SWAP1 LOG3 POP POP JUMP JUMPDEST PUSH0 CALLER SWAP1 POP SWAP1 JUMP JUMPDEST PUSH0 DUP1 REVERT JUMPDEST PUSH0 DUP1 REVERT JUMPDEST PUSH0 PUSH20 0xFFFFFFFFFFFFFFFFFFFFFFFFFFFFFFFFFFFFFFFF DUP3 AND SWAP1 POP SWAP2 SWAP1 POP JUMP JUMPDEST PUSH0 PUSH2 0xA4D DUP3 PUSH2 0xA24 JUMP JUMPDEST SWAP1 POP SWAP2 SWAP1 POP JUMP JUMPDEST PUSH2 0xA5D DUP2 PUSH2 0xA43 JUMP JUMPDEST DUP2 EQ PUSH2 0xA67 JUMPI PUSH0 DUP1 REVERT JUMPDEST POP JUMP JUMPDEST PUSH0 DUP2 CALLDATALOAD SWAP1 POP PUSH2 0xA78 DUP2 PUSH2 0xA54 JUMP JUMPDEST SWAP3 SWAP2 POP POP JUMP JUMPDEST PUSH0 PUSH1 0x20 DUP3 DUP5 SUB SLT ISZERO PUSH2 0xA93 JUMPI PUSH2 0xA92 PUSH2 0xA1C JUMP JUMPDEST JUMPDEST PUSH0 PUSH2 0xAA0 DUP5 DUP3 DUP6 ADD PUSH2 0xA6A JUMP JUMPDEST SWAP2 POP POP SWAP3 SWAP2 POP POP JUMP JUMPDEST PUSH0 DUP1 REVERT JUMPDEST PUSH0 DUP1 REVERT JUMPDEST PUSH0 DUP1 REVERT JUMPDEST PUSH0 DUP1 DUP4 PUSH1 0x1F DUP5 ADD SLT PUSH2 0xACA JUMPI PUSH2 0xAC9 PUSH2 0xAA9 JUMP JUMPDEST JUMPDEST DUP3 CALLDATALOAD SWAP1 POP PUSH8 0xFFFFFFFFFFFFFFFF DUP2 GT ISZERO PUSH2 0xAE7 JUMPI PUSH2 0xAE6 PUSH2 0xAAD JUMP JUMPDEST JUMPDEST PUSH1 0x20 DUP4 ADD SWAP2 POP DUP4 PUSH1 0x20 DUP3 MUL DUP4 ADD GT ISZERO PUSH2 0xB03 JUMPI PUSH2 0xB02 PUSH2 0xAB1 JUMP JUMPDEST JUMPDEST SWAP3 POP SWAP3 SWAP1 POP JUMP JUMPDEST PUSH0 DUP1 DUP4 PUSH1 0x1F DUP5 ADD SLT PUSH2 0xB1F JUMPI PUSH2 0xB1E PUSH2 0xAA9 JUMP JUMPDEST JUMPDEST DUP3 CALLDATALOAD SWAP1 POP PUSH8 0xFFFFFFFFFFFFFFFF DUP2 GT ISZERO PUSH2 0xB3C JUMPI PUSH2 0xB3B PUSH2 0xAAD JUMP JUMPDEST JUMPDEST PUSH1 0x20 DUP4 ADD SWAP2 POP DUP4 PUSH1 0x20 DUP3 MUL DUP4 ADD GT ISZERO PUSH2 0xB58 JUMPI PUSH2 0xB57 PUSH2 0xAB1 JUMP JUMPDEST JUMPDEST SWAP3 POP SWAP3 SWAP1 POP JUMP JUMPDEST PUSH0 DUP1 PUSH0 DUP1 PUSH1 0x40 DUP6 DUP8 SUB SLT ISZERO PUSH2 0xB77 JUMPI PUSH2 0xB76 PUSH2 0xA1C JUMP JUMPDEST JUMPDEST PUSH0 DUP6 ADD CALLDATALOAD PUSH8 0xFFFFFFFFFFFFFFFF DUP2 GT ISZERO PUSH2 0xB94 JUMPI PUSH2 0xB93 PUSH2 0xA20 JUMP JUMPDEST JUMPDEST PUSH2 0xBA0 DUP8 DUP3 DUP9 ADD PUSH2 0xAB5 JUMP JUMPDEST SWAP5 POP SWAP5 POP POP PUSH1 0x20 DUP6 ADD CALLDATALOAD PUSH8 0xFFFFFFFFFFFFFFFF DUP2 GT ISZERO PUSH2 0xBC3 JUMPI PUSH2 0xBC2 PUSH2 0xA20 JUMP JUMPDEST JUMPDEST PUSH2 0xBCF DUP8 DUP3 DUP9 ADD PUSH2 0xB0A JUMP JUMPDEST SWAP3 POP SWAP3 POP POP SWAP3 SWAP6 SWAP2 SWAP5 POP SWAP3 POP JUMP JUMPDEST PUSH2 0xBE6 DUP2 PUSH2 0xA43 JUMP JUMPDEST DUP3 MSTORE POP POP JUMP JUMPDEST PUSH0 PUSH1 0x20 DUP3 ADD SWAP1 POP PUSH2 0xBFF PUSH0 DUP4 ADD DUP5 PUSH2 0xBDD JUMP JUMPDEST SWAP3 SWAP2 POP POP JUMP JUMPDEST PUSH0 DUP2 ISZERO ISZERO SWAP1 POP SWAP2 SWAP1 POP JUMP JUMPDEST PUSH2 0xC19 DUP2 PUSH2 0xC05 JUMP JUMPDEST DUP3 MSTORE POP POP JUMP JUMPDEST PUSH0 PUSH1 0x20 DUP3 ADD SWAP1 POP PUSH2 0xC32 PUSH0 DUP4 ADD DUP5 PUSH2 0xC10 JUMP JUMPDEST SWAP3 SWAP2 POP POP JUMP JUMPDEST PUSH0 DUP2 SWAP1 POP SWAP2 SWAP1 POP JUMP JUMPDEST PUSH2 0xC4A DUP2 PUSH2 0xC38 JUMP JUMPDEST DUP3 MSTORE POP POP JUMP JUMPDEST PUSH0 PUSH1 0x20 DUP3 ADD SWAP1 POP PUSH2 0xC63 PUSH0 DUP4 ADD DUP5 PUSH2 0xC41 JUMP JUMPDEST SWAP3 SWAP2 POP POP JUMP JUMPDEST PUSH0 DUP3 DUP3 MSTORE PUSH1 0x20 DUP3 ADD SWAP1 POP SWAP3 SWAP2 POP POP JUMP JUMPDEST PUSH32 0x45636F6D6D65726365436F6E74726163743A20496E636F727265637420616D6F PUSH0 DUP3 ADD MSTORE PUSH32 0x756E742073656E7420666F722070757263686173652E00000000000000000000 PUSH1 0x20 DUP3 ADD MSTORE POP JUMP JUMPDEST PUSH0 PUSH2 0xCD3 PUSH1 0x36 DUP4 PUSH2 0xC69 JUMP JUMPDEST SWAP2 POP PUSH2 0xCDE DUP3 PUSH2 0xC79 JUMP JUMPDEST PUSH1 0x40 DUP3 ADD SWAP1 POP SWAP2 SWAP1 POP JUMP JUMPDEST PUSH0 PUSH1 0x20 DUP3 ADD SWAP1 POP DUP2 DUP2 SUB PUSH0 DUP4 ADD MSTORE PUSH2 0xD00 DUP2 PUSH2 0xCC7 JUMP JUMPDEST SWAP1 POP SWAP2 SWAP1 POP JUMP JUMPDEST PUSH32 0x4E487B7100000000000000000000000000000000000000000000000000000000 PUSH0 MSTORE PUSH1 0x11 PUSH1 0x4 MSTORE PUSH1 0x24 PUSH0 REVERT JUMPDEST PUSH0 PUSH2 0xD3E DUP3 PUSH2 0xC38 JUMP JUMPDEST SWAP2 POP PUSH2 0xD49 DUP4 PUSH2 0xC38 JUMP JUMPDEST SWAP3 POP DUP3 DUP3 MUL PUSH2 0xD57 DUP2 PUSH2 0xC38 JUMP JUMPDEST SWAP2 POP DUP3 DUP3 DIV DUP5 EQ DUP4 ISZERO OR PUSH2 0xD6E JUMPI PUSH2 0xD6D PUSH2 0xD07 JUMP JUMPDEST JUMPDEST POP SWAP3 SWAP2 POP POP JUMP JUMPDEST PUSH32 0x4E487B7100000000000000000000000000000000000000000000000000000000 PUSH0 MSTORE PUSH1 0x12 PUSH1 0x4 MSTORE PUSH1 0x24 PUSH0 REVERT JUMPDEST PUSH0 PUSH2 0xDAC DUP3 PUSH2 0xC38 JUMP JUMPDEST SWAP2 POP PUSH2 0xDB7 DUP4 PUSH2 0xC38 JUMP JUMPDEST SWAP3 POP DUP3 PUSH2 0xDC7 JUMPI PUSH2 0xDC6 PUSH2 0xD75 JUMP JUMPDEST JUMPDEST DUP3 DUP3 DIV SWAP1 POP SWAP3 SWAP2 POP POP JUMP JUMPDEST PUSH0 DUP2 SWAP1 POP SWAP3 SWAP2 POP POP JUMP JUMPDEST POP JUMP JUMPDEST PUSH0 PUSH2 0xDEA PUSH0 DUP4 PUSH2 0xDD2 JUMP JUMPDEST SWAP2 POP PUSH2 0xDF5 DUP3 PUSH2 0xDDC JUMP JUMPDEST PUSH0 DUP3 ADD SWAP1 POP SWAP2 SWAP1 POP JUMP JUMPDEST PUSH0 PUSH2 0xE09 DUP3 PUSH2 0xDDF JUMP JUMPDEST SWAP2 POP DUP2 SWAP1 POP SWAP2 SWAP1 POP JUMP JUMPDEST PUSH32 0x45636F6D6D65726365436F6E74726163743A204661696C656420746F2073656E PUSH0 DUP3 ADD MSTORE PUSH32 0x6420636F6D6D697373696F6E2E00000000000000000000000000000000000000 PUSH1 0x20 DUP3 ADD MSTORE POP JUMP JUMPDEST PUSH0 PUSH2 0xE6D PUSH1 0x2D DUP4 PUSH2 0xC69 JUMP JUMPDEST SWAP2 POP PUSH2 0xE78 DUP3 PUSH2 0xE13 JUMP JUMPDEST PUSH1 0x40 DUP3 ADD SWAP1 POP SWAP2 SWAP1 POP JUMP JUMPDEST PUSH0 PUSH1 0x20 DUP3 ADD SWAP1 POP DUP2 DUP2 SUB PUSH0 DUP4 ADD MSTORE PUSH2 0xE9A DUP2 PUSH2 0xE61 JUMP JUMPDEST SWAP1 POP SWAP2 SWAP1 POP JUMP JUMPDEST PUSH0 PUSH1 0x40 DUP3 ADD SWAP1 POP PUSH2 0xEB4 PUSH0 DUP4 ADD DUP6 PUSH2 0xC41 JUMP JUMPDEST PUSH2 0xEC1 PUSH1 0x20 DUP4 ADD DUP5 PUSH2 0xC41 JUMP JUMPDEST SWAP4 SWAP3 POP POP POP JUMP JUMPDEST PUSH32 0x45636F6D6D65726365436F6E74726163743A204661696C656420746F20776974 PUSH0 DUP3 ADD MSTORE PUSH32 0x686472617720636F6E74726163742062616C616E63652E000000000000000000 PUSH1 0x20 DUP3 ADD MSTORE POP JUMP JUMPDEST PUSH0 PUSH2 0xF22 PUSH1 0x37 DUP4 PUSH2 0xC69 JUMP JUMPDEST SWAP2 POP PUSH2 0xF2D DUP3 PUSH2 0xEC8 JUMP JUMPDEST PUSH1 0x40 DUP3 ADD SWAP1 POP SWAP2 SWAP1 POP JUMP JUMPDEST PUSH0 PUSH1 0x20 DUP3 ADD SWAP1 POP DUP2 DUP2 SUB PUSH0 DUP4 ADD MSTORE PUSH2 0xF4F DUP2 PUSH2 0xF16 JUMP JUMPDEST SWAP1 POP SWAP2 SWAP1 POP JUMP JUMPDEST PUSH32 0x45636F6D6D65726365436F6E74726163743A2057696E6E657273206172726179 PUSH0 DUP3 ADD MSTORE PUSH32 0x2063616E6E6F7420626520656D7074792E000000000000000000000000000000 PUSH1 0x20 DUP3 ADD MSTORE POP JUMP JUMPDEST PUSH0 PUSH2 0xFB0 PUSH1 0x31 DUP4 PUSH2 0xC69 JUMP JUMPDEST SWAP2 POP PUSH2 0xFBB DUP3 PUSH2 0xF56 JUMP JUMPDEST PUSH1 0x40 DUP3 ADD SWAP1 POP SWAP2 SWAP1 POP JUMP JUMPDEST PUSH0 PUSH1 0x20 DUP3 ADD SWAP1 POP DUP2 DUP2 SUB PUSH0 DUP4 ADD MSTORE PUSH2 0xFDD DUP2 PUSH2 0xFA4 JUMP JUMPDEST SWAP1 POP SWAP2 SWAP1 POP JUMP JUMPDEST PUSH32 0x45636F6D6D65726365436F6E74726163743A2057696E6E65727320616E642061 PUSH0 DUP3 ADD MSTORE PUSH32 0x6D6F756E747320617272617973206D7573742068617665207468652073616D65 PUSH1 0x20 DUP3 ADD MSTORE PUSH32 0x206C656E6774682E000000000000000000000000000000000000000000000000 PUSH1 0x40 DUP3 ADD MSTORE POP JUMP JUMPDEST PUSH0 PUSH2 0x1064 PUSH1 0x48 DUP4 PUSH2 0xC69 JUMP JUMPDEST SWAP2 POP PUSH2 0x106F DUP3 PUSH2 0xFE4 JUMP JUMPDEST PUSH1 0x60 DUP3 ADD SWAP1 POP SWAP2 SWAP1 POP JUMP JUMPDEST PUSH0 PUSH1 0x20 DUP3 ADD SWAP1 POP DUP2 DUP2 SUB PUSH0 DUP4 ADD MSTORE PUSH2 0x1091 DUP2 PUSH2 0x1058 JUMP JUMPDEST SWAP1 POP SWAP2 SWAP1 POP JUMP JUMPDEST PUSH32 0x4E487B7100000000000000000000000000000000000000000000000000000000 PUSH0 MSTORE PUSH1 0x32 PUSH1 0x4 MSTORE PUSH1 0x24 PUSH0 REVERT JUMPDEST PUSH0 PUSH2 0x10CF DUP3 PUSH2 0xC38 JUMP JUMPDEST SWAP2 POP PUSH2 0x10DA DUP4 PUSH2 0xC38 JUMP JUMPDEST SWAP3 POP DUP3 DUP3 ADD SWAP1 POP DUP1 DUP3 GT ISZERO PUSH2 0x10F2 JUMPI PUSH2 0x10F1 PUSH2 0xD07 JUMP JUMPDEST JUMPDEST SWAP3 SWAP2 POP POP JUMP JUMPDEST PUSH0 PUSH2 0x1102 DUP3 PUSH2 0xC38 JUMP JUMPDEST SWAP2 POP PUSH32 0xFFFFFFFFFFFFFFFFFFFFFFFFFFFFFFFFFFFFFFFFFFFFFFFFFFFFFFFFFFFFFFFF DUP3 SUB PUSH2 0x1134 JUMPI PUSH2 0x1133 PUSH2 0xD07 JUMP JUMPDEST JUMPDEST PUSH1 0x1 DUP3 ADD SWAP1 POP SWAP2 SWAP1 POP JUMP JUMPDEST PUSH32 0x45636F6D6D65726365436F6E74726163743A20496E73756666696369656E7420 PUSH0 DUP3 ADD MSTORE PUSH32 0x636F6E74726163742062616C616E636520746F20646973747269627574652070 PUSH1 0x20 DUP3 ADD MSTORE PUSH32 0x72697A65732E0000000000000000000000000000000000000000000000000000 PUSH1 0x40 DUP3 ADD MSTORE POP JUMP JUMPDEST PUSH0 PUSH2 0x11BF PUSH1 0x46 DUP4 PUSH2 0xC69 JUMP JUMPDEST SWAP2 POP PUSH2 0x11CA DUP3 PUSH2 0x113F JUMP JUMPDEST PUSH1 0x60 DUP3 ADD SWAP1 POP SWAP2 SWAP1 POP JUMP JUMPDEST PUSH0 PUSH1 0x20 DUP3 ADD SWAP1 POP DUP2 DUP2 SUB PUSH0 DUP4 ADD MSTORE PUSH2 0x11EC DUP2 PUSH2 0x11B3 JUMP JUMPDEST SWAP1 POP SWAP2 SWAP1 POP JUMP JUMPDEST PUSH32 0x45636F6D6D65726365436F6E74726163743A2043616E6E6F742073656E642070 PUSH0 DUP3 ADD MSTORE PUSH32 0x72697A6520746F20746865207A65726F20616464726573732E00000000000000 PUSH1 0x20 DUP3 ADD MSTORE POP JUMP JUMPDEST PUSH0 PUSH2 0x124D PUSH1 0x39 DUP4 PUSH2 0xC69 JUMP JUMPDEST SWAP2 POP PUSH2 0x1258 DUP3 PUSH2 0x11F3 JUMP JUMPDEST PUSH1 0x40 DUP3 ADD SWAP1 POP SWAP2 SWAP1 POP JUMP JUMPDEST PUSH0 PUSH1 0x20 DUP3 ADD SWAP1 POP DUP2 DUP2 SUB PUSH0 DUP4 ADD MSTORE PUSH2 0x127A DUP2 PUSH2 0x1241 JUMP JUMPDEST SWAP1 POP SWAP2 SWAP1 POP JUMP JUMPDEST PUSH32 0x45636F6D6D65726365436F6E74726163743A204661696C656420746F2073656E PUSH0 DUP3 ADD MSTORE PUSH32 0x64207072697A6520746F20612077696E6E65722E000000000000000000000000 PUSH1 0x20 DUP3 ADD MSTORE POP JUMP JUMPDEST PUSH0 PUSH2 0x12DB PUSH1 0x34 DUP4 PUSH2 0xC69 JUMP JUMPDEST SWAP2 POP PUSH2 0x12E6 DUP3 PUSH2 0x1281 JUMP JUMPDEST PUSH1 0x40 DUP3 ADD SWAP1 POP SWAP2 SWAP1 POP JUMP JUMPDEST PUSH0 PUSH1 0x20 DUP3 ADD SWAP1 POP DUP2 DUP2 SUB PUSH0 DUP4 ADD MSTORE PUSH2 0x1308 DUP2 PUSH2 0x12CF JUMP JUMPDEST SWAP1 POP SWAP2 SWAP1 POP JUMP JUMPDEST PUSH0 DUP3 DUP3 MSTORE PUSH1 0x20 DUP3 ADD SWAP1 POP SWAP3 SWAP2 POP POP JUMP JUMPDEST PUSH0 DUP2 SWAP1 POP SWAP2 SWAP1 POP JUMP JUMPDEST PUSH2 0x1331 DUP2 PUSH2 0xA43 JUMP JUMPDEST DUP3 MSTORE POP POP JUMP JUMPDEST PUSH0 PUSH2 0x1342 DUP4 DUP4 PUSH2 0x1328 JUMP JUMPDEST PUSH1 0x20 DUP4 ADD SWAP1 POP SWAP3 SWAP2 POP POP JUMP JUMPDEST PUSH0 PUSH2 0x135C PUSH1 0x20 DUP5 ADD DUP5 PUSH2 0xA6A JUMP JUMPDEST SWAP1 POP SWAP3 SWAP2 POP POP JUMP JUMPDEST PUSH0 PUSH1 0x20 DUP3 ADD SWAP1 POP SWAP2 SWAP1 POP JUMP JUMPDEST PUSH0 PUSH2 0x137B DUP4 DUP6 PUSH2 0x130F JUMP JUMPDEST SWAP4 POP PUSH2 0x1386 DUP3 PUSH2 0x131F JUMP JUMPDEST DUP1 PUSH0 JUMPDEST DUP6 DUP2 LT ISZERO PUSH2 0x13BE JUMPI PUSH2 0x139B DUP3 DUP5 PUSH2 0x134E JUMP JUMPDEST PUSH2 0x13A5 DUP9 DUP3 PUSH2 0x1337 JUMP JUMPDEST SWAP8 POP PUSH2 0x13B0 DUP4 PUSH2 0x1364 JUMP JUMPDEST SWAP3 POP POP PUSH1 0x1 DUP2 ADD SWAP1 POP PUSH2 0x1389 JUMP JUMPDEST POP DUP6 SWAP3 POP POP POP SWAP4 SWAP3 POP POP POP JUMP JUMPDEST PUSH0 DUP3 DUP3 MSTORE PUSH1 0x20 DUP3 ADD SWAP1 POP SWAP3 SWAP2 POP POP JUMP JUMPDEST PUSH0 DUP1 REVERT JUMPDEST DUP3 DUP2 DUP4 CALLDATACOPY POP POP POP JUMP JUMPDEST PUSH0 PUSH2 0x13F3 DUP4 DUP6 PUSH2 0x13CB JUMP JUMPDEST SWAP4 POP PUSH32 0x7FFFFFFFFFFFFFFFFFFFFFFFFFFFFFFFFFFFFFFFFFFFFFFFFFFFFFFFFFFFFFF DUP4 GT ISZERO PUSH2 0x1426 JUMPI PUSH2 0x1425 PUSH2 0x13DB JUMP JUMPDEST JUMPDEST PUSH1 0x20 DUP4 MUL SWAP3 POP PUSH2 0x1437 DUP4 DUP6 DUP5 PUSH2 0x13DF JUMP JUMPDEST DUP3 DUP5 ADD SWAP1 POP SWAP4 SWAP3 POP POP POP JUMP JUMPDEST PUSH0 PUSH1 0x40 DUP3 ADD SWAP1 POP DUP2 DUP2 SUB PUSH0 DUP4 ADD MSTORE PUSH2 0x145C DUP2 DUP7 DUP9 PUSH2 0x1370 JUMP JUMPDEST SWAP1 POP DUP2 DUP2 SUB PUSH1 0x20 DUP4 ADD MSTORE PUSH2 0x1471 DUP2 DUP5 DUP7 PUSH2 0x13E8 JUMP JUMPDEST SWAP1 POP SWAP6 SWAP5 POP POP POP POP POP JUMP INVALID LOG2 PUSH5 0x6970667358 0x22 SLT KECCAK256 0xE3 0xEB 0xDF SWAP6 AND 0xF7 PUSH9 0x7A822ADF1F927D731D EXP 0x49 GASPRICE SWAP15 PREVRANDAO 0xBD PUSH8 0xFB1CBA17E06E8439 0xEE PUSH5 0x736F6C6343 STOP ADDMOD EQ STOP CALLER "
				},
				"gasEstimates": {
					"creation": {
						"codeDepositCost": "1059600",
						"executionCost": "infinite",
						"totalCost": "infinite"
					},
					"external": {
						"PRODUCT_PRICE()": "391",
						"REFERRAL_COMMISSION_BPS()": "369",
						"distributePrizes(address[],uint256[])": "infinite",
						"hasPurchased(address)": "2855",
						"owner()": "2515",
						"purchase(address)": "infinite",
						"renounceOwnership()": "infinite",
						"transferOwnership(address)": "infinite",
						"withdraw()": "infinite"
					}
				},
				"methodIdentifiers": {
					"PRODUCT_PRICE()": "b850091c",
					"REFERRAL_COMMISSION_BPS()": "a3d43e48",
					"distributePrizes(address[],uint256[])": "406a378a",
					"hasPurchased(address)": "90118fb4",
					"owner()": "8da5cb5b",
					"purchase(address)": "25b31a97",
					"renounceOwnership()": "715018a6",
					"transferOwnership(address)": "f2fde38b",
					"withdraw()": "3ccfd60b"
				}
			},
			"storageLayout": {
				"storage": [
					{
						"astId": 8,
						"contract": "contracts/EcommerceContract.sol:EcommerceContract",
						"label": "_owner",
						"offset": 0,
						"slot": "0",
						"type": "t_address"
					},
					{
						"astId": 193,
						"contract": "contracts/EcommerceContract.sol:EcommerceContract",
						"label": "hasPurchased",
						"offset": 0,
						"slot": "1",
						"type": "t_mapping(t_address,t_bool)"
					}
				],
				"types": {
					"t_address": {
						"encoding": "inplace",
						"label": "address",
						"numberOfBytes": "20"
					},
					"t_bool": {
						"encoding": "inplace",
						"label": "bool",
						"numberOfBytes": "1"
					},
					"t_mapping(t_address,t_bool)": {
						"encoding": "mapping",
						"key": "t_address",
						"label": "mapping(address => bool)",
						"numberOfBytes": "32",
						"value": "t_bool"
					}
				}
			},
			"userdoc": {
				"kind": "user",
				"methods": {},
				"version": 1
			}
		}
	}
}