{
	"contracts/RoyaltySplitFactory.sol": {
		"RoyaltySplitFactory": {
			"abi": [
				{
					"inputs": [
						{
							"internalType": "address",
							"name": "_provenanceGraphAddress",
							"type": "address"
						}
					],
					"stateMutability": "nonpayable",
					"type": "constructor"
				},
				{
					"inputs": [
						{
							"internalType": "uint256",
							"name": "assetId",
							"type": "uint256"
						}
					],
					"name": "GraphNotFinalized",
					"type": "error"
				},
				{
					"inputs": [
						{
							"internalType": "uint256",
							"name": "assetId",
							"type": "uint256"
						}
					],
					"name": "NoContributors",
					"type": "error"
				},
				{
					"inputs": [
						{
							"internalType": "uint256",
							"name": "assetId",
							"type": "uint256"
						}
					],
					"name": "SplitterAlreadyExists",
					"type": "error"
				},
				{
					"inputs": [],
					"name": "ZeroAddress",
					"type": "error"
				},
				{
					"anonymous": false,
					"inputs": [
						{
							"indexed": true,
							"internalType": "uint256",
							"name": "assetId",
							"type": "uint256"
						},
						{
							"indexed": true,
							"internalType": "address",
							"name": "splitterAddress",
							"type": "address"
						},
						{
							"indexed": false,
							"internalType": "address[]",
							"name": "payees",
							"type": "address[]"
						},
						{
							"indexed": false,
							"internalType": "uint256[]",
							"name": "shares",
							"type": "uint256[]"
						}
					],
					"name": "SplitterCreated",
					"type": "event"
				},
				{
					"inputs": [
						{
							"internalType": "uint256",
							"name": "",
							"type": "uint256"
						}
					],
					"name": "assetIdToSplitter",
					"outputs": [
						{
							"internalType": "address",
							"name": "",
							"type": "address"
						}
					],
					"stateMutability": "view",
					"type": "function"
				},
				{
					"inputs": [
						{
							"internalType": "uint256",
							"name": "_assetId",
							"type": "uint256"
						}
					],
					"name": "createSplitter",
					"outputs": [
						{
							"internalType": "address",
							"name": "splitterAddress",
							"type": "address"
						}
					],
					"stateMutability": "nonpayable",
					"type": "function"
				},
				{
					"inputs": [],
					"name": "provenanceGraph",
					"outputs": [
						{
							"internalType": "contract IProvenanceGraph",
							"name": "",
							"type": "address"
						}
					],
					"stateMutability": "view",
					"type": "function"
				}
			],
			"devdoc": {
				"author": "Your Name",
				"kind": "dev",
				"methods": {
					"createSplitter(uint256)": {
						"details": "Reads contributor data from the finalized ProvenanceGraph for the asset. Can be called by anyone, but only once per finalized asset.",
						"params": {
							"_assetId": "The token ID of the asset for which to create a splitter."
						},
						"returns": {
							"splitterAddress": "The address of the newly deployed PaymentSplitter contract."
						}
					}
				},
				"title": "RoyaltySplitFactory",
				"version": 1
			},
			"evm": {
				"assembly": "    /* \"contracts/RoyaltySplitFactory.sol\":421:3210  contract RoyaltySplitFactory {... */\n  mstore(0x40, 0xa0)\n    /* \"contracts/RoyaltySplitFactory.sol\":1074:1271  constructor(address _provenanceGraphAddress) {... */\n  callvalue\n  dup1\n  iszero\n  tag_1\n  jumpi\n  0x00\n  dup1\n  revert\ntag_1:\n  pop\n  mload(0x40)\n  sub(codesize, bytecodeSize)\n  dup1\n  bytecodeSize\n  dup4\n  codecopy\n  dup2\n  dup2\n  add\n  0x40\n  mstore\n  dup2\n  add\n  swap1\n  tag_2\n  swap2\n  swap1\n  tag_3\n  jump\t// in\ntag_2:\n    /* \"contracts/RoyaltySplitFactory.sol\":1169:1170  0 */\n  0x00\n    /* \"contracts/RoyaltySplitFactory.sol\":1134:1171  _provenanceGraphAddress == address(0) */\n  0xffffffffffffffffffffffffffffffffffffffff\n  and\n    /* \"contracts/RoyaltySplitFactory.sol\":1134:1157  _provenanceGraphAddress */\n  dup2\n    /* \"contracts/RoyaltySplitFactory.sol\":1134:1171  _provenanceGraphAddress == address(0) */\n  0xffffffffffffffffffffffffffffffffffffffff\n  and\n  sub\n    /* \"contracts/RoyaltySplitFactory.sol\":1130:1193  if (_provenanceGraphAddress == address(0)) revert ZeroAddress() */\n  tag_6\n  jumpi\n    /* \"contracts/RoyaltySplitFactory.sol\":1180:1193  ZeroAddress() */\n  mload(0x40)\n  0xd92e233d00000000000000000000000000000000000000000000000000000000\n  dup2\n  mstore\n  0x04\n  add\n  mload(0x40)\n  dup1\n  swap2\n  sub\n  swap1\n  revert\n    /* \"contracts/RoyaltySplitFactory.sol\":1130:1193  if (_provenanceGraphAddress == address(0)) revert ZeroAddress() */\ntag_6:\n    /* \"contracts/RoyaltySplitFactory.sol\":1239:1262  _provenanceGraphAddress */\n  dup1\n    /* \"contracts/RoyaltySplitFactory.sol\":1204:1263  provenanceGraph = IProvenanceGraph(_provenanceGraphAddress) */\n  0xffffffffffffffffffffffffffffffffffffffff\n  and\n  0x80\n  dup2\n  0xffffffffffffffffffffffffffffffffffffffff\n  and\n  dup2\n  mstore\n  pop\n  pop\n    /* \"contracts/RoyaltySplitFactory.sol\":1074:1271  constructor(address _provenanceGraphAddress) {... */\n  pop\n    /* \"contracts/RoyaltySplitFactory.sol\":421:3210  contract RoyaltySplitFactory {... */\n  jump(tag_7)\n    /* \"#utility.yul\":88:205   */\ntag_9:\n    /* \"#utility.yul\":197:198   */\n  0x00\n    /* \"#utility.yul\":194:195   */\n  dup1\n    /* \"#utility.yul\":187:199   */\n  revert\n    /* \"#utility.yul\":334:460   */\ntag_11:\n    /* \"#utility.yul\":371:378   */\n  0x00\n    /* \"#utility.yul\":411:453   */\n  0xffffffffffffffffffffffffffffffffffffffff\n    /* \"#utility.yul\":404:409   */\n  dup3\n    /* \"#utility.yul\":400:454   */\n  and\n    /* \"#utility.yul\":389:454   */\n  swap1\n  pop\n    /* \"#utility.yul\":334:460   */\n  swap2\n  swap1\n  pop\n  jump\t// out\n    /* \"#utility.yul\":466:562   */\ntag_12:\n    /* \"#utility.yul\":503:510   */\n  0x00\n    /* \"#utility.yul\":532:556   */\n  tag_21\n    /* \"#utility.yul\":550:555   */\n  dup3\n    /* \"#utility.yul\":532:556   */\n  tag_11\n  jump\t// in\ntag_21:\n    /* \"#utility.yul\":521:556   */\n  swap1\n  pop\n    /* \"#utility.yul\":466:562   */\n  swap2\n  swap1\n  pop\n  jump\t// out\n    /* \"#utility.yul\":568:690   */\ntag_13:\n    /* \"#utility.yul\":641:665   */\n  tag_23\n    /* \"#utility.yul\":659:664   */\n  dup2\n    /* \"#utility.yul\":641:665   */\n  tag_12\n  jump\t// in\ntag_23:\n    /* \"#utility.yul\":634:639   */\n  dup2\n    /* \"#utility.yul\":631:666   */\n  eq\n    /* \"#utility.yul\":621:684   */\n  tag_24\n  jumpi\n    /* \"#utility.yul\":680:681   */\n  0x00\n    /* \"#utility.yul\":677:678   */\n  dup1\n    /* \"#utility.yul\":670:682   */\n  revert\n    /* \"#utility.yul\":621:684   */\ntag_24:\n    /* \"#utility.yul\":568:690   */\n  pop\n  jump\t// out\n    /* \"#utility.yul\":696:839   */\ntag_14:\n    /* \"#utility.yul\":753:758   */\n  0x00\n    /* \"#utility.yul\":784:790   */\n  dup2\n    /* \"#utility.yul\":778:791   */\n  mload\n    /* \"#utility.yul\":769:791   */\n  swap1\n  pop\n    /* \"#utility.yul\":800:833   */\n  tag_26\n    /* \"#utility.yul\":827:832   */\n  dup2\n    /* \"#utility.yul\":800:833   */\n  tag_13\n  jump\t// in\ntag_26:\n    /* \"#utility.yul\":696:839   */\n  swap3\n  swap2\n  pop\n  pop\n  jump\t// out\n    /* \"#utility.yul\":845:1196   */\ntag_3:\n    /* \"#utility.yul\":915:921   */\n  0x00\n    /* \"#utility.yul\":964:966   */\n  0x20\n    /* \"#utility.yul\":952:961   */\n  dup3\n    /* \"#utility.yul\":943:950   */\n  dup5\n    /* \"#utility.yul\":939:962   */\n  sub\n    /* \"#utility.yul\":935:967   */\n  slt\n    /* \"#utility.yul\":932:1051   */\n  iszero\n  tag_28\n  jumpi\n    /* \"#utility.yul\":970:1049   */\n  tag_29\n  tag_9\n  jump\t// in\ntag_29:\n    /* \"#utility.yul\":932:1051   */\ntag_28:\n    /* \"#utility.yul\":1090:1091   */\n  0x00\n    /* \"#utility.yul\":1115:1179   */\n  tag_30\n    /* \"#utility.yul\":1171:1178   */\n  dup5\n    /* \"#utility.yul\":1162:1168   */\n  dup3\n    /* \"#utility.yul\":1151:1160   */\n  dup6\n    /* \"#utility.yul\":1147:1169   */\n  add\n    /* \"#utility.yul\":1115:1179   */\n  tag_14\n  jump\t// in\ntag_30:\n    /* \"#utility.yul\":1105:1179   */\n  swap2\n  pop\n    /* \"#utility.yul\":1061:1189   */\n  pop\n    /* \"#utility.yul\":845:1196   */\n  swap3\n  swap2\n  pop\n  pop\n  jump\t// out\n    /* \"contracts/RoyaltySplitFactory.sol\":421:3210  contract RoyaltySplitFactory {... */\ntag_7:\n  mload(0x80)\n  codecopy(0x00, dataOffset(sub_0), dataSize(sub_0))\n  0x00\n  assignImmutable(\"0xdefe319dc50e05250759b13bd8d7e9db7bb9ceac4f390379b62a1cc566578ec9\")\n  return(0x00, dataSize(sub_0))\nstop\n\nsub_0: assembly {\n        /* \"contracts/RoyaltySplitFactory.sol\":421:3210  contract RoyaltySplitFactory {... */\n      mstore(0x40, 0x80)\n      callvalue\n      dup1\n      iszero\n      tag_1\n      jumpi\n      0x00\n      dup1\n      revert\n    tag_1:\n      pop\n      jumpi(tag_2, lt(calldatasize, 0x04))\n      shr(0xe0, calldataload(0x00))\n      dup1\n      0x012d6707\n      eq\n      tag_3\n      jumpi\n      dup1\n      0x0abc9786\n      eq\n      tag_4\n      jumpi\n      dup1\n      0x9a3bbed3\n      eq\n      tag_5\n      jumpi\n    tag_2:\n      0x00\n      dup1\n      revert\n        /* \"contracts/RoyaltySplitFactory.sol\":1745:3207  function createSplitter(uint256 _assetId) external returns (address splitterAddress) {... */\n    tag_3:\n      tag_6\n      0x04\n      dup1\n      calldatasize\n      sub\n      dup2\n      add\n      swap1\n      tag_7\n      swap2\n      swap1\n      tag_8\n      jump\t// in\n    tag_7:\n      tag_9\n      jump\t// in\n    tag_6:\n      mload(0x40)\n      tag_10\n      swap2\n      swap1\n      tag_11\n      jump\t// in\n    tag_10:\n      mload(0x40)\n      dup1\n      swap2\n      sub\n      swap1\n      return\n        /* \"contracts/RoyaltySplitFactory.sol\":639:691  mapping(uint256 => address) public assetIdToSplitter */\n    tag_4:\n      tag_12\n      0x04\n      dup1\n      calldatasize\n      sub\n      dup2\n      add\n      swap1\n      tag_13\n      swap2\n      swap1\n      tag_8\n      jump\t// in\n    tag_13:\n      tag_14\n      jump\t// in\n    tag_12:\n      mload(0x40)\n      tag_15\n      swap2\n      swap1\n      tag_11\n      jump\t// in\n    tag_15:\n      mload(0x40)\n      dup1\n      swap2\n      sub\n      swap1\n      return\n        /* \"contracts/RoyaltySplitFactory.sol\":491:540  IProvenanceGraph public immutable provenanceGraph */\n    tag_5:\n      tag_16\n      tag_17\n      jump\t// in\n    tag_16:\n      mload(0x40)\n      tag_18\n      swap2\n      swap1\n      tag_19\n      jump\t// in\n    tag_18:\n      mload(0x40)\n      dup1\n      swap2\n      sub\n      swap1\n      return\n        /* \"contracts/RoyaltySplitFactory.sol\":1745:3207  function createSplitter(uint256 _assetId) external returns (address splitterAddress) {... */\n    tag_9:\n        /* \"contracts/RoyaltySplitFactory.sol\":1805:1828  address splitterAddress */\n      0x00\n        /* \"contracts/RoyaltySplitFactory.sol\":1937:1952  provenanceGraph */\n      immutable(\"0xdefe319dc50e05250759b13bd8d7e9db7bb9ceac4f390379b62a1cc566578ec9\")\n        /* \"contracts/RoyaltySplitFactory.sol\":1937:1964  provenanceGraph.isFinalized */\n      0xffffffffffffffffffffffffffffffffffffffff\n      and\n      0x33727c4d\n        /* \"contracts/RoyaltySplitFactory.sol\":1965:1973  _assetId */\n      dup4\n        /* \"contracts/RoyaltySplitFactory.sol\":1937:1974  provenanceGraph.isFinalized(_assetId) */\n      mload(0x40)\n      dup3\n      0xffffffff\n      and\n      0xe0\n      shl\n      dup2\n      mstore\n      0x04\n      add\n      tag_21\n      swap2\n      swap1\n      tag_22\n      jump\t// in\n    tag_21:\n      0x20\n      mload(0x40)\n      dup1\n      dup4\n      sub\n      dup2\n      dup7\n      gas\n      staticcall\n      iszero\n      dup1\n      iszero\n      tag_24\n      jumpi\n      returndatasize\n      0x00\n      dup1\n      returndatacopy\n      revert(0x00, returndatasize)\n    tag_24:\n      pop\n      pop\n      pop\n      pop\n      mload(0x40)\n      returndatasize\n      not(0x1f)\n      0x1f\n      dup3\n      add\n      and\n      dup3\n      add\n      dup1\n      0x40\n      mstore\n      pop\n      dup2\n      add\n      swap1\n      tag_25\n      swap2\n      swap1\n      tag_26\n      jump\t// in\n    tag_25:\n        /* \"contracts/RoyaltySplitFactory.sol\":1932:2010  if (!provenanceGraph.isFinalized(_assetId)) revert GraphNotFinalized(_assetId) */\n      tag_27\n      jumpi\n        /* \"contracts/RoyaltySplitFactory.sol\":2001:2009  _assetId */\n      dup2\n        /* \"contracts/RoyaltySplitFactory.sol\":1983:2010  GraphNotFinalized(_assetId) */\n      mload(0x40)\n      0x2ca3e24900000000000000000000000000000000000000000000000000000000\n      dup2\n      mstore\n      0x04\n      add\n      tag_28\n      swap2\n      swap1\n      tag_22\n      jump\t// in\n    tag_28:\n      mload(0x40)\n      dup1\n      swap2\n      sub\n      swap1\n      revert\n        /* \"contracts/RoyaltySplitFactory.sol\":1932:2010  if (!provenanceGraph.isFinalized(_assetId)) revert GraphNotFinalized(_assetId) */\n    tag_27:\n        /* \"contracts/RoyaltySplitFactory.sol\":2064:2065  0 */\n      0x00\n        /* \"contracts/RoyaltySplitFactory.sol\":2025:2066  assetIdToSplitter[_assetId] != address(0) */\n      0xffffffffffffffffffffffffffffffffffffffff\n      and\n        /* \"contracts/RoyaltySplitFactory.sol\":2025:2042  assetIdToSplitter */\n      0x00\n        /* \"contracts/RoyaltySplitFactory.sol\":2025:2052  assetIdToSplitter[_assetId] */\n      dup1\n        /* \"contracts/RoyaltySplitFactory.sol\":2043:2051  _assetId */\n      dup5\n        /* \"contracts/RoyaltySplitFactory.sol\":2025:2052  assetIdToSplitter[_assetId] */\n      dup2\n      mstore\n      0x20\n      add\n      swap1\n      dup2\n      mstore\n      0x20\n      add\n      0x00\n      keccak256\n      0x00\n      swap1\n      sload\n      swap1\n      0x0100\n      exp\n      swap1\n      div\n      0xffffffffffffffffffffffffffffffffffffffff\n      and\n        /* \"contracts/RoyaltySplitFactory.sol\":2025:2066  assetIdToSplitter[_assetId] != address(0) */\n      0xffffffffffffffffffffffffffffffffffffffff\n      and\n      eq\n        /* \"contracts/RoyaltySplitFactory.sol\":2021:2106  if (assetIdToSplitter[_assetId] != address(0)) revert SplitterAlreadyExists(_assetId) */\n      tag_29\n      jumpi\n        /* \"contracts/RoyaltySplitFactory.sol\":2097:2105  _assetId */\n      dup2\n        /* \"contracts/RoyaltySplitFactory.sol\":2075:2106  SplitterAlreadyExists(_assetId) */\n      mload(0x40)\n      0x61928f8300000000000000000000000000000000000000000000000000000000\n      dup2\n      mstore\n      0x04\n      add\n      tag_30\n      swap2\n      swap1\n      tag_22\n      jump\t// in\n    tag_30:\n      mload(0x40)\n      dup1\n      swap2\n      sub\n      swap1\n      revert\n        /* \"contracts/RoyaltySplitFactory.sol\":2021:2106  if (assetIdToSplitter[_assetId] != address(0)) revert SplitterAlreadyExists(_assetId) */\n    tag_29:\n        /* \"contracts/RoyaltySplitFactory.sol\":2196:2232  IProvenanceGraph.Edge[] memory edges */\n      0x00\n        /* \"contracts/RoyaltySplitFactory.sol\":2235:2250  provenanceGraph */\n      immutable(\"0xdefe319dc50e05250759b13bd8d7e9db7bb9ceac4f390379b62a1cc566578ec9\")\n        /* \"contracts/RoyaltySplitFactory.sol\":2235:2270  provenanceGraph.getContributorEdges */\n      0xffffffffffffffffffffffffffffffffffffffff\n      and\n      0x5ee7c0f8\n        /* \"contracts/RoyaltySplitFactory.sol\":2271:2279  _assetId */\n      dup5\n        /* \"contracts/RoyaltySplitFactory.sol\":2235:2280  provenanceGraph.getContributorEdges(_assetId) */\n      mload(0x40)\n      dup3\n      0xffffffff\n      and\n      0xe0\n      shl\n      dup2\n      mstore\n      0x04\n      add\n      tag_31\n      swap2\n      swap1\n      tag_22\n      jump\t// in\n    tag_31:\n      0x00\n      mload(0x40)\n      dup1\n      dup4\n      sub\n      dup2\n      dup7\n      gas\n      staticcall\n      iszero\n      dup1\n      iszero\n      tag_33\n      jumpi\n      returndatasize\n      0x00\n      dup1\n      returndatacopy\n      revert(0x00, returndatasize)\n    tag_33:\n      pop\n      pop\n      pop\n      pop\n      mload(0x40)\n      returndatasize\n      0x00\n      dup3\n      returndatacopy\n      returndatasize\n      not(0x1f)\n      0x1f\n      dup3\n      add\n      and\n      dup3\n      add\n      dup1\n      0x40\n      mstore\n      pop\n      dup2\n      add\n      swap1\n      tag_34\n      swap2\n      swap1\n      tag_35\n      jump\t// in\n    tag_34:\n        /* \"contracts/RoyaltySplitFactory.sol\":2196:2280  IProvenanceGraph.Edge[] memory edges = provenanceGraph.getContributorEdges(_assetId) */\n      swap1\n      pop\n        /* \"contracts/RoyaltySplitFactory.sol\":2311:2312  0 */\n      0x00\n        /* \"contracts/RoyaltySplitFactory.sol\":2295:2300  edges */\n      dup2\n        /* \"contracts/RoyaltySplitFactory.sol\":2295:2307  edges.length */\n      mload\n        /* \"contracts/RoyaltySplitFactory.sol\":2295:2312  edges.length == 0 */\n      sub\n        /* \"contracts/RoyaltySplitFactory.sol\":2291:2345  if (edges.length == 0) revert NoContributors(_assetId) */\n      tag_36\n      jumpi\n        /* \"contracts/RoyaltySplitFactory.sol\":2336:2344  _assetId */\n      dup3\n        /* \"contracts/RoyaltySplitFactory.sol\":2321:2345  NoContributors(_assetId) */\n      mload(0x40)\n      0x619bea3e00000000000000000000000000000000000000000000000000000000\n      dup2\n      mstore\n      0x04\n      add\n      tag_37\n      swap2\n      swap1\n      tag_22\n      jump\t// in\n    tag_37:\n      mload(0x40)\n      dup1\n      swap2\n      sub\n      swap1\n      revert\n        /* \"contracts/RoyaltySplitFactory.sol\":2291:2345  if (edges.length == 0) revert NoContributors(_assetId) */\n    tag_36:\n        /* \"contracts/RoyaltySplitFactory.sol\":2435:2458  address[] memory payees */\n      0x00\n        /* \"contracts/RoyaltySplitFactory.sol\":2475:2480  edges */\n      dup2\n        /* \"contracts/RoyaltySplitFactory.sol\":2475:2487  edges.length */\n      mload\n        /* \"contracts/RoyaltySplitFactory.sol\":2461:2488  new address[](edges.length) */\n      0xffffffffffffffff\n      dup2\n      gt\n      iszero\n      tag_38\n      jumpi\n      tag_39\n      tag_40\n      jump\t// in\n    tag_39:\n    tag_38:\n      mload(0x40)\n      swap1\n      dup1\n      dup3\n      mstore\n      dup1\n      0x20\n      mul\n      0x20\n      add\n      dup3\n      add\n      0x40\n      mstore\n      dup1\n      iszero\n      tag_41\n      jumpi\n      dup2\n      0x20\n      add\n      0x20\n      dup3\n      mul\n      dup1\n      calldatasize\n      dup4\n      calldatacopy\n      dup1\n      dup3\n      add\n      swap2\n      pop\n      pop\n      swap1\n      pop\n    tag_41:\n      pop\n        /* \"contracts/RoyaltySplitFactory.sol\":2435:2488  address[] memory payees = new address[](edges.length) */\n      swap1\n      pop\n        /* \"contracts/RoyaltySplitFactory.sol\":2499:2522  uint256[] memory shares */\n      0x00\n        /* \"contracts/RoyaltySplitFactory.sol\":2539:2544  edges */\n      dup3\n        /* \"contracts/RoyaltySplitFactory.sol\":2539:2551  edges.length */\n      mload\n        /* \"contracts/RoyaltySplitFactory.sol\":2525:2552  new uint256[](edges.length) */\n      0xffffffffffffffff\n      dup2\n      gt\n      iszero\n      tag_42\n      jumpi\n      tag_43\n      tag_40\n      jump\t// in\n    tag_43:\n    tag_42:\n      mload(0x40)\n      swap1\n      dup1\n      dup3\n      mstore\n      dup1\n      0x20\n      mul\n      0x20\n      add\n      dup3\n      add\n      0x40\n      mstore\n      dup1\n      iszero\n      tag_44\n      jumpi\n      dup2\n      0x20\n      add\n      0x20\n      dup3\n      mul\n      dup1\n      calldatasize\n      dup4\n      calldatacopy\n      dup1\n      dup3\n      add\n      swap2\n      pop\n      pop\n      swap1\n      pop\n    tag_44:\n      pop\n        /* \"contracts/RoyaltySplitFactory.sol\":2499:2552  uint256[] memory shares = new uint256[](edges.length) */\n      swap1\n      pop\n        /* \"contracts/RoyaltySplitFactory.sol\":2570:2579  uint256 i */\n      0x00\n        /* \"contracts/RoyaltySplitFactory.sol\":2565:2799  for (uint256 i = 0; i < edges.length; i++) {... */\n    tag_45:\n        /* \"contracts/RoyaltySplitFactory.sol\":2589:2594  edges */\n      dup4\n        /* \"contracts/RoyaltySplitFactory.sol\":2589:2601  edges.length */\n      mload\n        /* \"contracts/RoyaltySplitFactory.sol\":2585:2586  i */\n      dup2\n        /* \"contracts/RoyaltySplitFactory.sol\":2585:2601  i < edges.length */\n      lt\n        /* \"contracts/RoyaltySplitFactory.sol\":2565:2799  for (uint256 i = 0; i < edges.length; i++) {... */\n      iszero\n      tag_46\n      jumpi\n        /* \"contracts/RoyaltySplitFactory.sol\":2635:2640  edges */\n      dup4\n        /* \"contracts/RoyaltySplitFactory.sol\":2641:2642  i */\n      dup2\n        /* \"contracts/RoyaltySplitFactory.sol\":2635:2643  edges[i] */\n      dup2\n      mload\n      dup2\n      lt\n      tag_48\n      jumpi\n      tag_49\n      tag_50\n      jump\t// in\n    tag_49:\n    tag_48:\n      0x20\n      mul\n      0x20\n      add\n      add\n      mload\n        /* \"contracts/RoyaltySplitFactory.sol\":2635:2650  edges[i].target */\n      0x00\n      add\n      mload\n        /* \"contracts/RoyaltySplitFactory.sol\":2623:2629  payees */\n      dup4\n        /* \"contracts/RoyaltySplitFactory.sol\":2630:2631  i */\n      dup3\n        /* \"contracts/RoyaltySplitFactory.sol\":2623:2632  payees[i] */\n      dup2\n      mload\n      dup2\n      lt\n      tag_51\n      jumpi\n      tag_52\n      tag_50\n      jump\t// in\n    tag_52:\n    tag_51:\n      0x20\n      mul\n      0x20\n      add\n      add\n        /* \"contracts/RoyaltySplitFactory.sol\":2623:2650  payees[i] = edges[i].target */\n      swap1\n      0xffffffffffffffffffffffffffffffffffffffff\n      and\n      swap1\n      dup2\n      0xffffffffffffffffffffffffffffffffffffffff\n      and\n      dup2\n      mstore\n      pop\n      pop\n        /* \"contracts/RoyaltySplitFactory.sol\":2769:2774  edges */\n      dup4\n        /* \"contracts/RoyaltySplitFactory.sol\":2775:2776  i */\n      dup2\n        /* \"contracts/RoyaltySplitFactory.sol\":2769:2777  edges[i] */\n      dup2\n      mload\n      dup2\n      lt\n      tag_53\n      jumpi\n      tag_54\n      tag_50\n      jump\t// in\n    tag_54:\n    tag_53:\n      0x20\n      mul\n      0x20\n      add\n      add\n      mload\n        /* \"contracts/RoyaltySplitFactory.sol\":2769:2787  edges[i].weightBps */\n      0x20\n      add\n      mload\n        /* \"contracts/RoyaltySplitFactory.sol\":2757:2787  shares[i] = edges[i].weightBps */\n      0xffff\n      and\n        /* \"contracts/RoyaltySplitFactory.sol\":2757:2763  shares */\n      dup3\n        /* \"contracts/RoyaltySplitFactory.sol\":2764:2765  i */\n      dup3\n        /* \"contracts/RoyaltySplitFactory.sol\":2757:2766  shares[i] */\n      dup2\n      mload\n      dup2\n      lt\n      tag_55\n      jumpi\n      tag_56\n      tag_50\n      jump\t// in\n    tag_56:\n    tag_55:\n      0x20\n      mul\n      0x20\n      add\n      add\n        /* \"contracts/RoyaltySplitFactory.sol\":2757:2787  shares[i] = edges[i].weightBps */\n      dup2\n      dup2\n      mstore\n      pop\n      pop\n        /* \"contracts/RoyaltySplitFactory.sol\":2603:2606  i++ */\n      dup1\n      dup1\n      tag_57\n      swap1\n      tag_58\n      jump\t// in\n    tag_57:\n      swap2\n      pop\n      pop\n        /* \"contracts/RoyaltySplitFactory.sol\":2565:2799  for (uint256 i = 0; i < edges.length; i++) {... */\n      jump(tag_45)\n    tag_46:\n      pop\n        /* \"contracts/RoyaltySplitFactory.sol\":2889:2916  PaymentSplitter newSplitter */\n      0x00\n        /* \"contracts/RoyaltySplitFactory.sol\":2939:2945  payees */\n      dup3\n        /* \"contracts/RoyaltySplitFactory.sol\":2947:2953  shares */\n      dup3\n        /* \"contracts/RoyaltySplitFactory.sol\":2919:2954  new PaymentSplitter(payees, shares) */\n      mload(0x40)\n      tag_59\n      swap1\n      tag_60\n      jump\t// in\n    tag_59:\n      tag_61\n      swap3\n      swap2\n      swap1\n      tag_62\n      jump\t// in\n    tag_61:\n      mload(0x40)\n      dup1\n      swap2\n      sub\n      swap1\n      0x00\n      create\n      dup1\n      iszero\n      dup1\n      iszero\n      tag_63\n      jumpi\n      returndatasize\n      0x00\n      dup1\n      returndatacopy\n      revert(0x00, returndatasize)\n    tag_63:\n      pop\n        /* \"contracts/RoyaltySplitFactory.sol\":2889:2954  PaymentSplitter newSplitter = new PaymentSplitter(payees, shares) */\n      swap1\n      pop\n        /* \"contracts/RoyaltySplitFactory.sol\":2991:3002  newSplitter */\n      dup1\n        /* \"contracts/RoyaltySplitFactory.sol\":2965:3003  splitterAddress = address(newSplitter) */\n      swap5\n      pop\n        /* \"contracts/RoyaltySplitFactory.sol\":3108:3123  splitterAddress */\n      dup5\n        /* \"contracts/RoyaltySplitFactory.sol\":3078:3095  assetIdToSplitter */\n      0x00\n        /* \"contracts/RoyaltySplitFactory.sol\":3078:3105  assetIdToSplitter[_assetId] */\n      dup1\n        /* \"contracts/RoyaltySplitFactory.sol\":3096:3104  _assetId */\n      dup9\n        /* \"contracts/RoyaltySplitFactory.sol\":3078:3105  assetIdToSplitter[_assetId] */\n      dup2\n      mstore\n      0x20\n      add\n      swap1\n      dup2\n      mstore\n      0x20\n      add\n      0x00\n      keccak256\n      0x00\n        /* \"contracts/RoyaltySplitFactory.sol\":3078:3123  assetIdToSplitter[_assetId] = splitterAddress */\n      0x0100\n      exp\n      dup2\n      sload\n      dup2\n      0xffffffffffffffffffffffffffffffffffffffff\n      mul\n      not\n      and\n      swap1\n      dup4\n      0xffffffffffffffffffffffffffffffffffffffff\n      and\n      mul\n      or\n      swap1\n      sstore\n      pop\n        /* \"contracts/RoyaltySplitFactory.sol\":3167:3182  splitterAddress */\n      dup5\n        /* \"contracts/RoyaltySplitFactory.sol\":3141:3199  SplitterCreated(_assetId, splitterAddress, payees, shares) */\n      0xffffffffffffffffffffffffffffffffffffffff\n      and\n        /* \"contracts/RoyaltySplitFactory.sol\":3157:3165  _assetId */\n      dup7\n        /* \"contracts/RoyaltySplitFactory.sol\":3141:3199  SplitterCreated(_assetId, splitterAddress, payees, shares) */\n      0x52f9632ff3693d165d9f371628466a9d6cebe353876fca1ccdf358c4e6fa3ec7\n        /* \"contracts/RoyaltySplitFactory.sol\":3184:3190  payees */\n      dup6\n        /* \"contracts/RoyaltySplitFactory.sol\":3192:3198  shares */\n      dup6\n        /* \"contracts/RoyaltySplitFactory.sol\":3141:3199  SplitterCreated(_assetId, splitterAddress, payees, shares) */\n      mload(0x40)\n      tag_64\n      swap3\n      swap2\n      swap1\n      tag_62\n      jump\t// in\n    tag_64:\n      mload(0x40)\n      dup1\n      swap2\n      sub\n      swap1\n      log3\n        /* \"contracts/RoyaltySplitFactory.sol\":1830:3207  {... */\n      pop\n      pop\n      pop\n      pop\n        /* \"contracts/RoyaltySplitFactory.sol\":1745:3207  function createSplitter(uint256 _assetId) external returns (address splitterAddress) {... */\n      swap2\n      swap1\n      pop\n      jump\t// out\n        /* \"contracts/RoyaltySplitFactory.sol\":639:691  mapping(uint256 => address) public assetIdToSplitter */\n    tag_14:\n      mstore(0x20, 0x00)\n      dup1\n      0x00\n      mstore\n      keccak256(0x00, 0x40)\n      0x00\n      swap2\n      pop\n      sload\n      swap1\n      0x0100\n      exp\n      swap1\n      div\n      0xffffffffffffffffffffffffffffffffffffffff\n      and\n      dup2\n      jump\t// out\n        /* \"contracts/RoyaltySplitFactory.sol\":491:540  IProvenanceGraph public immutable provenanceGraph */\n    tag_17:\n      immutable(\"0xdefe319dc50e05250759b13bd8d7e9db7bb9ceac4f390379b62a1cc566578ec9\")\n      dup2\n      jump\t// out\n    tag_60:\n      dataSize(sub_0)\n      dup1\n      dataOffset(sub_0)\n      dup4\n      codecopy\n      add\n      swap1\n      jump\t// out\n        /* \"#utility.yul\":7:82   */\n    tag_65:\n        /* \"#utility.yul\":40:46   */\n      0x00\n        /* \"#utility.yul\":73:75   */\n      0x40\n        /* \"#utility.yul\":67:76   */\n      mload\n        /* \"#utility.yul\":57:76   */\n      swap1\n      pop\n        /* \"#utility.yul\":7:82   */\n      swap1\n      jump\t// out\n        /* \"#utility.yul\":88:205   */\n    tag_66:\n        /* \"#utility.yul\":197:198   */\n      0x00\n        /* \"#utility.yul\":194:195   */\n      dup1\n        /* \"#utility.yul\":187:199   */\n      revert\n        /* \"#utility.yul\":211:328   */\n    tag_67:\n        /* \"#utility.yul\":320:321   */\n      0x00\n        /* \"#utility.yul\":317:318   */\n      dup1\n        /* \"#utility.yul\":310:322   */\n      revert\n        /* \"#utility.yul\":334:411   */\n    tag_68:\n        /* \"#utility.yul\":371:378   */\n      0x00\n        /* \"#utility.yul\":400:405   */\n      dup2\n        /* \"#utility.yul\":389:405   */\n      swap1\n      pop\n        /* \"#utility.yul\":334:411   */\n      swap2\n      swap1\n      pop\n      jump\t// out\n        /* \"#utility.yul\":417:539   */\n    tag_69:\n        /* \"#utility.yul\":490:514   */\n      tag_120\n        /* \"#utility.yul\":508:513   */\n      dup2\n        /* \"#utility.yul\":490:514   */\n      tag_68\n      jump\t// in\n    tag_120:\n        /* \"#utility.yul\":483:488   */\n      dup2\n        /* \"#utility.yul\":480:515   */\n      eq\n        /* \"#utility.yul\":470:533   */\n      tag_121\n      jumpi\n        /* \"#utility.yul\":529:530   */\n      0x00\n        /* \"#utility.yul\":526:527   */\n      dup1\n        /* \"#utility.yul\":519:531   */\n      revert\n        /* \"#utility.yul\":470:533   */\n    tag_121:\n        /* \"#utility.yul\":417:539   */\n      pop\n      jump\t// out\n        /* \"#utility.yul\":545:684   */\n    tag_70:\n        /* \"#utility.yul\":591:596   */\n      0x00\n        /* \"#utility.yul\":629:635   */\n      dup2\n        /* \"#utility.yul\":616:636   */\n      calldataload\n        /* \"#utility.yul\":607:636   */\n      swap1\n      pop\n        /* \"#utility.yul\":645:678   */\n      tag_123\n        /* \"#utility.yul\":672:677   */\n      dup2\n        /* \"#utility.yul\":645:678   */\n      tag_69\n      jump\t// in\n    tag_123:\n        /* \"#utility.yul\":545:684   */\n      swap3\n      swap2\n      pop\n      pop\n      jump\t// out\n        /* \"#utility.yul\":690:1019   */\n    tag_8:\n        /* \"#utility.yul\":749:755   */\n      0x00\n        /* \"#utility.yul\":798:800   */\n      0x20\n        /* \"#utility.yul\":786:795   */\n      dup3\n        /* \"#utility.yul\":777:784   */\n      dup5\n        /* \"#utility.yul\":773:796   */\n      sub\n        /* \"#utility.yul\":769:801   */\n      slt\n        /* \"#utility.yul\":766:885   */\n      iszero\n      tag_125\n      jumpi\n        /* \"#utility.yul\":804:883   */\n      tag_126\n      tag_66\n      jump\t// in\n    tag_126:\n        /* \"#utility.yul\":766:885   */\n    tag_125:\n        /* \"#utility.yul\":924:925   */\n      0x00\n        /* \"#utility.yul\":949:1002   */\n      tag_127\n        /* \"#utility.yul\":994:1001   */\n      dup5\n        /* \"#utility.yul\":985:991   */\n      dup3\n        /* \"#utility.yul\":974:983   */\n      dup6\n        /* \"#utility.yul\":970:992   */\n      add\n        /* \"#utility.yul\":949:1002   */\n      tag_70\n      jump\t// in\n    tag_127:\n        /* \"#utility.yul\":939:1002   */\n      swap2\n      pop\n        /* \"#utility.yul\":895:1012   */\n      pop\n        /* \"#utility.yul\":690:1019   */\n      swap3\n      swap2\n      pop\n      pop\n      jump\t// out\n        /* \"#utility.yul\":1025:1151   */\n    tag_71:\n        /* \"#utility.yul\":1062:1069   */\n      0x00\n        /* \"#utility.yul\":1102:1144   */\n      0xffffffffffffffffffffffffffffffffffffffff\n        /* \"#utility.yul\":1095:1100   */\n      dup3\n        /* \"#utility.yul\":1091:1145   */\n      and\n        /* \"#utility.yul\":1080:1145   */\n      swap1\n      pop\n        /* \"#utility.yul\":1025:1151   */\n      swap2\n      swap1\n      pop\n      jump\t// out\n        /* \"#utility.yul\":1157:1253   */\n    tag_72:\n        /* \"#utility.yul\":1194:1201   */\n      0x00\n        /* \"#utility.yul\":1223:1247   */\n      tag_130\n        /* \"#utility.yul\":1241:1246   */\n      dup3\n        /* \"#utility.yul\":1223:1247   */\n      tag_71\n      jump\t// in\n    tag_130:\n        /* \"#utility.yul\":1212:1247   */\n      swap1\n      pop\n        /* \"#utility.yul\":1157:1253   */\n      swap2\n      swap1\n      pop\n      jump\t// out\n        /* \"#utility.yul\":1259:1377   */\n    tag_73:\n        /* \"#utility.yul\":1346:1370   */\n      tag_132\n        /* \"#utility.yul\":1364:1369   */\n      dup2\n        /* \"#utility.yul\":1346:1370   */\n      tag_72\n      jump\t// in\n    tag_132:\n        /* \"#utility.yul\":1341:1344   */\n      dup3\n        /* \"#utility.yul\":1334:1371   */\n      mstore\n        /* \"#utility.yul\":1259:1377   */\n      pop\n      pop\n      jump\t// out\n        /* \"#utility.yul\":1383:1605   */\n    tag_11:\n        /* \"#utility.yul\":1476:1480   */\n      0x00\n        /* \"#utility.yul\":1514:1516   */\n      0x20\n        /* \"#utility.yul\":1503:1512   */\n      dup3\n        /* \"#utility.yul\":1499:1517   */\n      add\n        /* \"#utility.yul\":1491:1517   */\n      swap1\n      pop\n        /* \"#utility.yul\":1527:1598   */\n      tag_134\n        /* \"#utility.yul\":1595:1596   */\n      0x00\n        /* \"#utility.yul\":1584:1593   */\n      dup4\n        /* \"#utility.yul\":1580:1597   */\n      add\n        /* \"#utility.yul\":1571:1577   */\n      dup5\n        /* \"#utility.yul\":1527:1598   */\n      tag_73\n      jump\t// in\n    tag_134:\n        /* \"#utility.yul\":1383:1605   */\n      swap3\n      swap2\n      pop\n      pop\n      jump\t// out\n        /* \"#utility.yul\":1611:1671   */\n    tag_74:\n        /* \"#utility.yul\":1639:1642   */\n      0x00\n        /* \"#utility.yul\":1660:1665   */\n      dup2\n        /* \"#utility.yul\":1653:1665   */\n      swap1\n      pop\n        /* \"#utility.yul\":1611:1671   */\n      swap2\n      swap1\n      pop\n      jump\t// out\n        /* \"#utility.yul\":1677:1819   */\n    tag_75:\n        /* \"#utility.yul\":1727:1736   */\n      0x00\n        /* \"#utility.yul\":1760:1813   */\n      tag_137\n        /* \"#utility.yul\":1778:1812   */\n      tag_138\n        /* \"#utility.yul\":1787:1811   */\n      tag_139\n        /* \"#utility.yul\":1805:1810   */\n      dup5\n        /* \"#utility.yul\":1787:1811   */\n      tag_71\n      jump\t// in\n    tag_139:\n        /* \"#utility.yul\":1778:1812   */\n      tag_74\n      jump\t// in\n    tag_138:\n        /* \"#utility.yul\":1760:1813   */\n      tag_71\n      jump\t// in\n    tag_137:\n        /* \"#utility.yul\":1747:1813   */\n      swap1\n      pop\n        /* \"#utility.yul\":1677:1819   */\n      swap2\n      swap1\n      pop\n      jump\t// out\n        /* \"#utility.yul\":1825:1951   */\n    tag_76:\n        /* \"#utility.yul\":1875:1884   */\n      0x00\n        /* \"#utility.yul\":1908:1945   */\n      tag_141\n        /* \"#utility.yul\":1939:1944   */\n      dup3\n        /* \"#utility.yul\":1908:1945   */\n      tag_75\n      jump\t// in\n    tag_141:\n        /* \"#utility.yul\":1895:1945   */\n      swap1\n      pop\n        /* \"#utility.yul\":1825:1951   */\n      swap2\n      swap1\n      pop\n      jump\t// out\n        /* \"#utility.yul\":1957:2108   */\n    tag_77:\n        /* \"#utility.yul\":2032:2041   */\n      0x00\n        /* \"#utility.yul\":2065:2102   */\n      tag_143\n        /* \"#utility.yul\":2096:2101   */\n      dup3\n        /* \"#utility.yul\":2065:2102   */\n      tag_76\n      jump\t// in\n    tag_143:\n        /* \"#utility.yul\":2052:2102   */\n      swap1\n      pop\n        /* \"#utility.yul\":1957:2108   */\n      swap2\n      swap1\n      pop\n      jump\t// out\n        /* \"#utility.yul\":2114:2295   */\n    tag_78:\n        /* \"#utility.yul\":2226:2288   */\n      tag_145\n        /* \"#utility.yul\":2282:2287   */\n      dup2\n        /* \"#utility.yul\":2226:2288   */\n      tag_77\n      jump\t// in\n    tag_145:\n        /* \"#utility.yul\":2221:2224   */\n      dup3\n        /* \"#utility.yul\":2214:2289   */\n      mstore\n        /* \"#utility.yul\":2114:2295   */\n      pop\n      pop\n      jump\t// out\n        /* \"#utility.yul\":2301:2573   */\n    tag_19:\n        /* \"#utility.yul\":2419:2423   */\n      0x00\n        /* \"#utility.yul\":2457:2459   */\n      0x20\n        /* \"#utility.yul\":2446:2455   */\n      dup3\n        /* \"#utility.yul\":2442:2460   */\n      add\n        /* \"#utility.yul\":2434:2460   */\n      swap1\n      pop\n        /* \"#utility.yul\":2470:2566   */\n      tag_147\n        /* \"#utility.yul\":2563:2564   */\n      0x00\n        /* \"#utility.yul\":2552:2561   */\n      dup4\n        /* \"#utility.yul\":2548:2565   */\n      add\n        /* \"#utility.yul\":2539:2545   */\n      dup5\n        /* \"#utility.yul\":2470:2566   */\n      tag_78\n      jump\t// in\n    tag_147:\n        /* \"#utility.yul\":2301:2573   */\n      swap3\n      swap2\n      pop\n      pop\n      jump\t// out\n        /* \"#utility.yul\":2579:2697   */\n    tag_79:\n        /* \"#utility.yul\":2666:2690   */\n      tag_149\n        /* \"#utility.yul\":2684:2689   */\n      dup2\n        /* \"#utility.yul\":2666:2690   */\n      tag_68\n      jump\t// in\n    tag_149:\n        /* \"#utility.yul\":2661:2664   */\n      dup3\n        /* \"#utility.yul\":2654:2691   */\n      mstore\n        /* \"#utility.yul\":2579:2697   */\n      pop\n      pop\n      jump\t// out\n        /* \"#utility.yul\":2703:2925   */\n    tag_22:\n        /* \"#utility.yul\":2796:2800   */\n      0x00\n        /* \"#utility.yul\":2834:2836   */\n      0x20\n        /* \"#utility.yul\":2823:2832   */\n      dup3\n        /* \"#utility.yul\":2819:2837   */\n      add\n        /* \"#utility.yul\":2811:2837   */\n      swap1\n      pop\n        /* \"#utility.yul\":2847:2918   */\n      tag_151\n        /* \"#utility.yul\":2915:2916   */\n      0x00\n        /* \"#utility.yul\":2904:2913   */\n      dup4\n        /* \"#utility.yul\":2900:2917   */\n      add\n        /* \"#utility.yul\":2891:2897   */\n      dup5\n        /* \"#utility.yul\":2847:2918   */\n      tag_79\n      jump\t// in\n    tag_151:\n        /* \"#utility.yul\":2703:2925   */\n      swap3\n      swap2\n      pop\n      pop\n      jump\t// out\n        /* \"#utility.yul\":2931:3021   */\n    tag_80:\n        /* \"#utility.yul\":2965:2972   */\n      0x00\n        /* \"#utility.yul\":3008:3013   */\n      dup2\n        /* \"#utility.yul\":3001:3014   */\n      iszero\n        /* \"#utility.yul\":2994:3015   */\n      iszero\n        /* \"#utility.yul\":2983:3015   */\n      swap1\n      pop\n        /* \"#utility.yul\":2931:3021   */\n      swap2\n      swap1\n      pop\n      jump\t// out\n        /* \"#utility.yul\":3027:3143   */\n    tag_81:\n        /* \"#utility.yul\":3097:3118   */\n      tag_154\n        /* \"#utility.yul\":3112:3117   */\n      dup2\n        /* \"#utility.yul\":3097:3118   */\n      tag_80\n      jump\t// in\n    tag_154:\n        /* \"#utility.yul\":3090:3095   */\n      dup2\n        /* \"#utility.yul\":3087:3119   */\n      eq\n        /* \"#utility.yul\":3077:3137   */\n      tag_155\n      jumpi\n        /* \"#utility.yul\":3133:3134   */\n      0x00\n        /* \"#utility.yul\":3130:3131   */\n      dup1\n        /* \"#utility.yul\":3123:3135   */\n      revert\n        /* \"#utility.yul\":3077:3137   */\n    tag_155:\n        /* \"#utility.yul\":3027:3143   */\n      pop\n      jump\t// out\n        /* \"#utility.yul\":3149:3286   */\n    tag_82:\n        /* \"#utility.yul\":3203:3208   */\n      0x00\n        /* \"#utility.yul\":3234:3240   */\n      dup2\n        /* \"#utility.yul\":3228:3241   */\n      mload\n        /* \"#utility.yul\":3219:3241   */\n      swap1\n      pop\n        /* \"#utility.yul\":3250:3280   */\n      tag_157\n        /* \"#utility.yul\":3274:3279   */\n      dup2\n        /* \"#utility.yul\":3250:3280   */\n      tag_81\n      jump\t// in\n    tag_157:\n        /* \"#utility.yul\":3149:3286   */\n      swap3\n      swap2\n      pop\n      pop\n      jump\t// out\n        /* \"#utility.yul\":3292:3637   */\n    tag_26:\n        /* \"#utility.yul\":3359:3365   */\n      0x00\n        /* \"#utility.yul\":3408:3410   */\n      0x20\n        /* \"#utility.yul\":3396:3405   */\n      dup3\n        /* \"#utility.yul\":3387:3394   */\n      dup5\n        /* \"#utility.yul\":3383:3406   */\n      sub\n        /* \"#utility.yul\":3379:3411   */\n      slt\n        /* \"#utility.yul\":3376:3495   */\n      iszero\n      tag_159\n      jumpi\n        /* \"#utility.yul\":3414:3493   */\n      tag_160\n      tag_66\n      jump\t// in\n    tag_160:\n        /* \"#utility.yul\":3376:3495   */\n    tag_159:\n        /* \"#utility.yul\":3534:3535   */\n      0x00\n        /* \"#utility.yul\":3559:3620   */\n      tag_161\n        /* \"#utility.yul\":3612:3619   */\n      dup5\n        /* \"#utility.yul\":3603:3609   */\n      dup3\n        /* \"#utility.yul\":3592:3601   */\n      dup6\n        /* \"#utility.yul\":3588:3610   */\n      add\n        /* \"#utility.yul\":3559:3620   */\n      tag_82\n      jump\t// in\n    tag_161:\n        /* \"#utility.yul\":3549:3620   */\n      swap2\n      pop\n        /* \"#utility.yul\":3505:3630   */\n      pop\n        /* \"#utility.yul\":3292:3637   */\n      swap3\n      swap2\n      pop\n      pop\n      jump\t// out\n        /* \"#utility.yul\":3643:3760   */\n    tag_83:\n        /* \"#utility.yul\":3752:3753   */\n      0x00\n        /* \"#utility.yul\":3749:3750   */\n      dup1\n        /* \"#utility.yul\":3742:3754   */\n      revert\n        /* \"#utility.yul\":3766:3868   */\n    tag_84:\n        /* \"#utility.yul\":3807:3813   */\n      0x00\n        /* \"#utility.yul\":3858:3860   */\n      0x1f\n        /* \"#utility.yul\":3854:3861   */\n      not\n        /* \"#utility.yul\":3849:3851   */\n      0x1f\n        /* \"#utility.yul\":3842:3847   */\n      dup4\n        /* \"#utility.yul\":3838:3852   */\n      add\n        /* \"#utility.yul\":3834:3862   */\n      and\n        /* \"#utility.yul\":3824:3862   */\n      swap1\n      pop\n        /* \"#utility.yul\":3766:3868   */\n      swap2\n      swap1\n      pop\n      jump\t// out\n        /* \"#utility.yul\":3874:4054   */\n    tag_40:\n        /* \"#utility.yul\":3922:3999   */\n      0x4e487b7100000000000000000000000000000000000000000000000000000000\n        /* \"#utility.yul\":3919:3920   */\n      0x00\n        /* \"#utility.yul\":3912:4000   */\n      mstore\n        /* \"#utility.yul\":4019:4023   */\n      0x41\n        /* \"#utility.yul\":4016:4017   */\n      0x04\n        /* \"#utility.yul\":4009:4024   */\n      mstore\n        /* \"#utility.yul\":4043:4047   */\n      0x24\n        /* \"#utility.yul\":4040:4041   */\n      0x00\n        /* \"#utility.yul\":4033:4048   */\n      revert\n        /* \"#utility.yul\":4060:4341   */\n    tag_85:\n        /* \"#utility.yul\":4143:4170   */\n      tag_166\n        /* \"#utility.yul\":4165:4169   */\n      dup3\n        /* \"#utility.yul\":4143:4170   */\n      tag_84\n      jump\t// in\n    tag_166:\n        /* \"#utility.yul\":4135:4141   */\n      dup2\n        /* \"#utility.yul\":4131:4171   */\n      add\n        /* \"#utility.yul\":4273:4279   */\n      dup2\n        /* \"#utility.yul\":4261:4271   */\n      dup2\n        /* \"#utility.yul\":4258:4280   */\n      lt\n        /* \"#utility.yul\":4237:4255   */\n      0xffffffffffffffff\n        /* \"#utility.yul\":4225:4235   */\n      dup3\n        /* \"#utility.yul\":4222:4256   */\n      gt\n        /* \"#utility.yul\":4219:4281   */\n      or\n        /* \"#utility.yul\":4216:4304   */\n      iszero\n      tag_167\n      jumpi\n        /* \"#utility.yul\":4284:4302   */\n      tag_168\n      tag_40\n      jump\t// in\n    tag_168:\n        /* \"#utility.yul\":4216:4304   */\n    tag_167:\n        /* \"#utility.yul\":4324:4334   */\n      dup1\n        /* \"#utility.yul\":4320:4322   */\n      0x40\n        /* \"#utility.yul\":4313:4335   */\n      mstore\n        /* \"#utility.yul\":4103:4341   */\n      pop\n        /* \"#utility.yul\":4060:4341   */\n      pop\n      pop\n      jump\t// out\n        /* \"#utility.yul\":4347:4476   */\n    tag_86:\n        /* \"#utility.yul\":4381:4387   */\n      0x00\n        /* \"#utility.yul\":4408:4428   */\n      tag_170\n      tag_65\n      jump\t// in\n    tag_170:\n        /* \"#utility.yul\":4398:4428   */\n      swap1\n      pop\n        /* \"#utility.yul\":4437:4470   */\n      tag_171\n        /* \"#utility.yul\":4465:4469   */\n      dup3\n        /* \"#utility.yul\":4457:4463   */\n      dup3\n        /* \"#utility.yul\":4437:4470   */\n      tag_85\n      jump\t// in\n    tag_171:\n        /* \"#utility.yul\":4347:4476   */\n      swap2\n      swap1\n      pop\n      jump\t// out\n        /* \"#utility.yul\":4482:4815   */\n    tag_87:\n        /* \"#utility.yul\":4581:4585   */\n      0x00\n        /* \"#utility.yul\":4671:4689   */\n      0xffffffffffffffff\n        /* \"#utility.yul\":4663:4669   */\n      dup3\n        /* \"#utility.yul\":4660:4690   */\n      gt\n        /* \"#utility.yul\":4657:4713   */\n      iszero\n      tag_173\n      jumpi\n        /* \"#utility.yul\":4693:4711   */\n      tag_174\n      tag_40\n      jump\t// in\n    tag_174:\n        /* \"#utility.yul\":4657:4713   */\n    tag_173:\n        /* \"#utility.yul\":4743:4747   */\n      0x20\n        /* \"#utility.yul\":4735:4741   */\n      dup3\n        /* \"#utility.yul\":4731:4748   */\n      mul\n        /* \"#utility.yul\":4723:4748   */\n      swap1\n      pop\n        /* \"#utility.yul\":4803:4807   */\n      0x20\n        /* \"#utility.yul\":4797:4801   */\n      dup2\n        /* \"#utility.yul\":4793:4808   */\n      add\n        /* \"#utility.yul\":4785:4808   */\n      swap1\n      pop\n        /* \"#utility.yul\":4482:4815   */\n      swap2\n      swap1\n      pop\n      jump\t// out\n        /* \"#utility.yul\":4821:4938   */\n    tag_88:\n        /* \"#utility.yul\":4930:4931   */\n      0x00\n        /* \"#utility.yul\":4927:4928   */\n      dup1\n        /* \"#utility.yul\":4920:4932   */\n      revert\n        /* \"#utility.yul\":4944:5061   */\n    tag_89:\n        /* \"#utility.yul\":5053:5054   */\n      0x00\n        /* \"#utility.yul\":5050:5051   */\n      dup1\n        /* \"#utility.yul\":5043:5055   */\n      revert\n        /* \"#utility.yul\":5190:5312   */\n    tag_91:\n        /* \"#utility.yul\":5263:5287   */\n      tag_179\n        /* \"#utility.yul\":5281:5286   */\n      dup2\n        /* \"#utility.yul\":5263:5287   */\n      tag_72\n      jump\t// in\n    tag_179:\n        /* \"#utility.yul\":5256:5261   */\n      dup2\n        /* \"#utility.yul\":5253:5288   */\n      eq\n        /* \"#utility.yul\":5243:5306   */\n      tag_180\n      jumpi\n        /* \"#utility.yul\":5302:5303   */\n      0x00\n        /* \"#utility.yul\":5299:5300   */\n      dup1\n        /* \"#utility.yul\":5292:5304   */\n      revert\n        /* \"#utility.yul\":5243:5306   */\n    tag_180:\n        /* \"#utility.yul\":5190:5312   */\n      pop\n      jump\t// out\n        /* \"#utility.yul\":5318:5461   */\n    tag_92:\n        /* \"#utility.yul\":5375:5380   */\n      0x00\n        /* \"#utility.yul\":5406:5412   */\n      dup2\n        /* \"#utility.yul\":5400:5413   */\n      mload\n        /* \"#utility.yul\":5391:5413   */\n      swap1\n      pop\n        /* \"#utility.yul\":5422:5455   */\n      tag_182\n        /* \"#utility.yul\":5449:5454   */\n      dup2\n        /* \"#utility.yul\":5422:5455   */\n      tag_91\n      jump\t// in\n    tag_182:\n        /* \"#utility.yul\":5318:5461   */\n      swap3\n      swap2\n      pop\n      pop\n      jump\t// out\n        /* \"#utility.yul\":5467:5556   */\n    tag_93:\n        /* \"#utility.yul\":5503:5510   */\n      0x00\n        /* \"#utility.yul\":5543:5549   */\n      0xffff\n        /* \"#utility.yul\":5536:5541   */\n      dup3\n        /* \"#utility.yul\":5532:5550   */\n      and\n        /* \"#utility.yul\":5521:5550   */\n      swap1\n      pop\n        /* \"#utility.yul\":5467:5556   */\n      swap2\n      swap1\n      pop\n      jump\t// out\n        /* \"#utility.yul\":5562:5682   */\n    tag_94:\n        /* \"#utility.yul\":5634:5657   */\n      tag_185\n        /* \"#utility.yul\":5651:5656   */\n      dup2\n        /* \"#utility.yul\":5634:5657   */\n      tag_93\n      jump\t// in\n    tag_185:\n        /* \"#utility.yul\":5627:5632   */\n      dup2\n        /* \"#utility.yul\":5624:5658   */\n      eq\n        /* \"#utility.yul\":5614:5676   */\n      tag_186\n      jumpi\n        /* \"#utility.yul\":5672:5673   */\n      0x00\n        /* \"#utility.yul\":5669:5670   */\n      dup1\n        /* \"#utility.yul\":5662:5674   */\n      revert\n        /* \"#utility.yul\":5614:5676   */\n    tag_186:\n        /* \"#utility.yul\":5562:5682   */\n      pop\n      jump\t// out\n        /* \"#utility.yul\":5688:5829   */\n    tag_95:\n        /* \"#utility.yul\":5744:5749   */\n      0x00\n        /* \"#utility.yul\":5775:5781   */\n      dup2\n        /* \"#utility.yul\":5769:5782   */\n      mload\n        /* \"#utility.yul\":5760:5782   */\n      swap1\n      pop\n        /* \"#utility.yul\":5791:5823   */\n      tag_188\n        /* \"#utility.yul\":5817:5822   */\n      dup2\n        /* \"#utility.yul\":5791:5823   */\n      tag_94\n      jump\t// in\n    tag_188:\n        /* \"#utility.yul\":5688:5829   */\n      swap3\n      swap2\n      pop\n      pop\n      jump\t// out\n        /* \"#utility.yul\":5871:6481   */\n    tag_96:\n        /* \"#utility.yul\":5953:5958   */\n      0x00\n        /* \"#utility.yul\":5997:6001   */\n      0x40\n        /* \"#utility.yul\":5985:5994   */\n      dup3\n        /* \"#utility.yul\":5980:5983   */\n      dup5\n        /* \"#utility.yul\":5976:5995   */\n      sub\n        /* \"#utility.yul\":5972:6002   */\n      slt\n        /* \"#utility.yul\":5969:6086   */\n      iszero\n      tag_190\n      jumpi\n        /* \"#utility.yul\":6005:6084   */\n      tag_191\n      tag_89\n      jump\t// in\n    tag_191:\n        /* \"#utility.yul\":5969:6086   */\n    tag_190:\n        /* \"#utility.yul\":6104:6125   */\n      tag_192\n        /* \"#utility.yul\":6120:6124   */\n      0x40\n        /* \"#utility.yul\":6104:6125   */\n      tag_86\n      jump\t// in\n    tag_192:\n        /* \"#utility.yul\":6095:6125   */\n      swap1\n      pop\n        /* \"#utility.yul\":6186:6187   */\n      0x00\n        /* \"#utility.yul\":6226:6286   */\n      tag_193\n        /* \"#utility.yul\":6282:6285   */\n      dup5\n        /* \"#utility.yul\":6273:6279   */\n      dup3\n        /* \"#utility.yul\":6262:6271   */\n      dup6\n        /* \"#utility.yul\":6258:6280   */\n      add\n        /* \"#utility.yul\":6226:6286   */\n      tag_92\n      jump\t// in\n    tag_193:\n        /* \"#utility.yul\":6219:6223   */\n      0x00\n        /* \"#utility.yul\":6212:6217   */\n      dup4\n        /* \"#utility.yul\":6208:6224   */\n      add\n        /* \"#utility.yul\":6201:6287   */\n      mstore\n        /* \"#utility.yul\":6135:6298   */\n      pop\n        /* \"#utility.yul\":6362:6364   */\n      0x20\n        /* \"#utility.yul\":6403:6462   */\n      tag_194\n        /* \"#utility.yul\":6458:6461   */\n      dup5\n        /* \"#utility.yul\":6449:6455   */\n      dup3\n        /* \"#utility.yul\":6438:6447   */\n      dup6\n        /* \"#utility.yul\":6434:6456   */\n      add\n        /* \"#utility.yul\":6403:6462   */\n      tag_95\n      jump\t// in\n    tag_194:\n        /* \"#utility.yul\":6396:6400   */\n      0x20\n        /* \"#utility.yul\":6389:6394   */\n      dup4\n        /* \"#utility.yul\":6385:6401   */\n      add\n        /* \"#utility.yul\":6378:6463   */\n      mstore\n        /* \"#utility.yul\":6308:6474   */\n      pop\n        /* \"#utility.yul\":5871:6481   */\n      swap3\n      swap2\n      pop\n      pop\n      jump\t// out\n        /* \"#utility.yul\":6525:7323   */\n    tag_97:\n        /* \"#utility.yul\":6654:6659   */\n      0x00\n        /* \"#utility.yul\":6679:6782   */\n      tag_196\n        /* \"#utility.yul\":6695:6781   */\n      tag_197\n        /* \"#utility.yul\":6774:6780   */\n      dup5\n        /* \"#utility.yul\":6695:6781   */\n      tag_87\n      jump\t// in\n    tag_197:\n        /* \"#utility.yul\":6679:6782   */\n      tag_86\n      jump\t// in\n    tag_196:\n        /* \"#utility.yul\":6670:6782   */\n      swap1\n      pop\n        /* \"#utility.yul\":6802:6807   */\n      dup1\n        /* \"#utility.yul\":6831:6837   */\n      dup4\n        /* \"#utility.yul\":6824:6829   */\n      dup3\n        /* \"#utility.yul\":6817:6838   */\n      mstore\n        /* \"#utility.yul\":6865:6869   */\n      0x20\n        /* \"#utility.yul\":6858:6863   */\n      dup3\n        /* \"#utility.yul\":6854:6870   */\n      add\n        /* \"#utility.yul\":6847:6870   */\n      swap1\n      pop\n        /* \"#utility.yul\":6918:6922   */\n      0x40\n        /* \"#utility.yul\":6910:6916   */\n      dup5\n        /* \"#utility.yul\":6906:6923   */\n      mul\n        /* \"#utility.yul\":6898:6904   */\n      dup4\n        /* \"#utility.yul\":6894:6924   */\n      add\n        /* \"#utility.yul\":6947:6950   */\n      dup6\n        /* \"#utility.yul\":6939:6945   */\n      dup2\n        /* \"#utility.yul\":6936:6951   */\n      gt\n        /* \"#utility.yul\":6933:7055   */\n      iszero\n      tag_198\n      jumpi\n        /* \"#utility.yul\":6966:7045   */\n      tag_199\n      tag_88\n      jump\t// in\n    tag_199:\n        /* \"#utility.yul\":6933:7055   */\n    tag_198:\n        /* \"#utility.yul\":7081:7087   */\n      dup4\n        /* \"#utility.yul\":7064:7317   */\n    tag_200:\n        /* \"#utility.yul\":7098:7104   */\n      dup2\n        /* \"#utility.yul\":7093:7096   */\n      dup2\n        /* \"#utility.yul\":7090:7105   */\n      lt\n        /* \"#utility.yul\":7064:7317   */\n      iszero\n      tag_202\n      jumpi\n        /* \"#utility.yul\":7173:7176   */\n      dup1\n        /* \"#utility.yul\":7202:7272   */\n      tag_203\n        /* \"#utility.yul\":7268:7271   */\n      dup9\n        /* \"#utility.yul\":7256:7266   */\n      dup3\n        /* \"#utility.yul\":7202:7272   */\n      tag_96\n      jump\t// in\n    tag_203:\n        /* \"#utility.yul\":7197:7200   */\n      dup5\n        /* \"#utility.yul\":7190:7273   */\n      mstore\n        /* \"#utility.yul\":7302:7306   */\n      0x20\n        /* \"#utility.yul\":7297:7300   */\n      dup5\n        /* \"#utility.yul\":7293:7307   */\n      add\n        /* \"#utility.yul\":7286:7307   */\n      swap4\n      pop\n        /* \"#utility.yul\":7140:7317   */\n      pop\n        /* \"#utility.yul\":7124:7128   */\n      0x40\n        /* \"#utility.yul\":7119:7122   */\n      dup2\n        /* \"#utility.yul\":7115:7129   */\n      add\n        /* \"#utility.yul\":7108:7129   */\n      swap1\n      pop\n        /* \"#utility.yul\":7064:7317   */\n      jump(tag_200)\n    tag_202:\n        /* \"#utility.yul\":7068:7089   */\n      pop\n        /* \"#utility.yul\":6660:7323   */\n      pop\n      pop\n        /* \"#utility.yul\":6525:7323   */\n      swap4\n      swap3\n      pop\n      pop\n      pop\n      jump\t// out\n        /* \"#utility.yul\":7367:7796   */\n    tag_98:\n        /* \"#utility.yul\":7471:7476   */\n      0x00\n        /* \"#utility.yul\":7520:7523   */\n      dup3\n        /* \"#utility.yul\":7513:7517   */\n      0x1f\n        /* \"#utility.yul\":7505:7511   */\n      dup4\n        /* \"#utility.yul\":7501:7518   */\n      add\n        /* \"#utility.yul\":7497:7524   */\n      slt\n        /* \"#utility.yul\":7487:7609   */\n      tag_205\n      jumpi\n        /* \"#utility.yul\":7528:7607   */\n      tag_206\n      tag_83\n      jump\t// in\n    tag_206:\n        /* \"#utility.yul\":7487:7609   */\n    tag_205:\n        /* \"#utility.yul\":7638:7644   */\n      dup2\n        /* \"#utility.yul\":7632:7645   */\n      mload\n        /* \"#utility.yul\":7663:7790   */\n      tag_207\n        /* \"#utility.yul\":7786:7789   */\n      dup5\n        /* \"#utility.yul\":7778:7784   */\n      dup3\n        /* \"#utility.yul\":7771:7775   */\n      0x20\n        /* \"#utility.yul\":7763:7769   */\n      dup7\n        /* \"#utility.yul\":7759:7776   */\n      add\n        /* \"#utility.yul\":7663:7790   */\n      tag_97\n      jump\t// in\n    tag_207:\n        /* \"#utility.yul\":7654:7790   */\n      swap2\n      pop\n        /* \"#utility.yul\":7477:7796   */\n      pop\n        /* \"#utility.yul\":7367:7796   */\n      swap3\n      swap2\n      pop\n      pop\n      jump\t// out\n        /* \"#utility.yul\":7802:8400   */\n    tag_35:\n        /* \"#utility.yul\":7919:7925   */\n      0x00\n        /* \"#utility.yul\":7968:7970   */\n      0x20\n        /* \"#utility.yul\":7956:7965   */\n      dup3\n        /* \"#utility.yul\":7947:7954   */\n      dup5\n        /* \"#utility.yul\":7943:7966   */\n      sub\n        /* \"#utility.yul\":7939:7971   */\n      slt\n        /* \"#utility.yul\":7936:8055   */\n      iszero\n      tag_209\n      jumpi\n        /* \"#utility.yul\":7974:8053   */\n      tag_210\n      tag_66\n      jump\t// in\n    tag_210:\n        /* \"#utility.yul\":7936:8055   */\n    tag_209:\n        /* \"#utility.yul\":8115:8116   */\n      0x00\n        /* \"#utility.yul\":8104:8113   */\n      dup3\n        /* \"#utility.yul\":8100:8117   */\n      add\n        /* \"#utility.yul\":8094:8118   */\n      mload\n        /* \"#utility.yul\":8145:8163   */\n      0xffffffffffffffff\n        /* \"#utility.yul\":8137:8143   */\n      dup2\n        /* \"#utility.yul\":8134:8164   */\n      gt\n        /* \"#utility.yul\":8131:8248   */\n      iszero\n      tag_211\n      jumpi\n        /* \"#utility.yul\":8167:8246   */\n      tag_212\n      tag_67\n      jump\t// in\n    tag_212:\n        /* \"#utility.yul\":8131:8248   */\n    tag_211:\n        /* \"#utility.yul\":8272:8383   */\n      tag_213\n        /* \"#utility.yul\":8375:8382   */\n      dup5\n        /* \"#utility.yul\":8366:8372   */\n      dup3\n        /* \"#utility.yul\":8355:8364   */\n      dup6\n        /* \"#utility.yul\":8351:8373   */\n      add\n        /* \"#utility.yul\":8272:8383   */\n      tag_98\n      jump\t// in\n    tag_213:\n        /* \"#utility.yul\":8262:8383   */\n      swap2\n      pop\n        /* \"#utility.yul\":8065:8393   */\n      pop\n        /* \"#utility.yul\":7802:8400   */\n      swap3\n      swap2\n      pop\n      pop\n      jump\t// out\n        /* \"#utility.yul\":8406:8586   */\n    tag_50:\n        /* \"#utility.yul\":8454:8531   */\n      0x4e487b7100000000000000000000000000000000000000000000000000000000\n        /* \"#utility.yul\":8451:8452   */\n      0x00\n        /* \"#utility.yul\":8444:8532   */\n      mstore\n        /* \"#utility.yul\":8551:8555   */\n      0x32\n        /* \"#utility.yul\":8548:8549   */\n      0x04\n        /* \"#utility.yul\":8541:8556   */\n      mstore\n        /* \"#utility.yul\":8575:8579   */\n      0x24\n        /* \"#utility.yul\":8572:8573   */\n      0x00\n        /* \"#utility.yul\":8565:8580   */\n      revert\n        /* \"#utility.yul\":8592:8772   */\n    tag_99:\n        /* \"#utility.yul\":8640:8717   */\n      0x4e487b7100000000000000000000000000000000000000000000000000000000\n        /* \"#utility.yul\":8637:8638   */\n      0x00\n        /* \"#utility.yul\":8630:8718   */\n      mstore\n        /* \"#utility.yul\":8737:8741   */\n      0x11\n        /* \"#utility.yul\":8734:8735   */\n      0x04\n        /* \"#utility.yul\":8727:8742   */\n      mstore\n        /* \"#utility.yul\":8761:8765   */\n      0x24\n        /* \"#utility.yul\":8758:8759   */\n      0x00\n        /* \"#utility.yul\":8751:8766   */\n      revert\n        /* \"#utility.yul\":8778:9011   */\n    tag_58:\n        /* \"#utility.yul\":8817:8820   */\n      0x00\n        /* \"#utility.yul\":8840:8864   */\n      tag_217\n        /* \"#utility.yul\":8858:8863   */\n      dup3\n        /* \"#utility.yul\":8840:8864   */\n      tag_68\n      jump\t// in\n    tag_217:\n        /* \"#utility.yul\":8831:8864   */\n      swap2\n      pop\n        /* \"#utility.yul\":8886:8952   */\n      0xffffffffffffffffffffffffffffffffffffffffffffffffffffffffffffffff\n        /* \"#utility.yul\":8879:8884   */\n      dup3\n        /* \"#utility.yul\":8876:8953   */\n      sub\n        /* \"#utility.yul\":8873:8976   */\n      tag_218\n      jumpi\n        /* \"#utility.yul\":8956:8974   */\n      tag_219\n      tag_99\n      jump\t// in\n    tag_219:\n        /* \"#utility.yul\":8873:8976   */\n    tag_218:\n        /* \"#utility.yul\":9003:9004   */\n      0x01\n        /* \"#utility.yul\":8996:9001   */\n      dup3\n        /* \"#utility.yul\":8992:9005   */\n      add\n        /* \"#utility.yul\":8985:9005   */\n      swap1\n      pop\n        /* \"#utility.yul\":8778:9011   */\n      swap2\n      swap1\n      pop\n      jump\t// out\n        /* \"#utility.yul\":9017:9131   */\n    tag_100:\n        /* \"#utility.yul\":9084:9090   */\n      0x00\n        /* \"#utility.yul\":9118:9123   */\n      dup2\n        /* \"#utility.yul\":9112:9124   */\n      mload\n        /* \"#utility.yul\":9102:9124   */\n      swap1\n      pop\n        /* \"#utility.yul\":9017:9131   */\n      swap2\n      swap1\n      pop\n      jump\t// out\n        /* \"#utility.yul\":9137:9321   */\n    tag_101:\n        /* \"#utility.yul\":9236:9247   */\n      0x00\n        /* \"#utility.yul\":9270:9276   */\n      dup3\n        /* \"#utility.yul\":9265:9268   */\n      dup3\n        /* \"#utility.yul\":9258:9277   */\n      mstore\n        /* \"#utility.yul\":9310:9314   */\n      0x20\n        /* \"#utility.yul\":9305:9308   */\n      dup3\n        /* \"#utility.yul\":9301:9315   */\n      add\n        /* \"#utility.yul\":9286:9315   */\n      swap1\n      pop\n        /* \"#utility.yul\":9137:9321   */\n      swap3\n      swap2\n      pop\n      pop\n      jump\t// out\n        /* \"#utility.yul\":9327:9459   */\n    tag_102:\n        /* \"#utility.yul\":9394:9398   */\n      0x00\n        /* \"#utility.yul\":9417:9420   */\n      dup2\n        /* \"#utility.yul\":9409:9420   */\n      swap1\n      pop\n        /* \"#utility.yul\":9447:9451   */\n      0x20\n        /* \"#utility.yul\":9442:9445   */\n      dup3\n        /* \"#utility.yul\":9438:9452   */\n      add\n        /* \"#utility.yul\":9430:9452   */\n      swap1\n      pop\n        /* \"#utility.yul\":9327:9459   */\n      swap2\n      swap1\n      pop\n      jump\t// out\n        /* \"#utility.yul\":9465:9573   */\n    tag_103:\n        /* \"#utility.yul\":9542:9566   */\n      tag_224\n        /* \"#utility.yul\":9560:9565   */\n      dup2\n        /* \"#utility.yul\":9542:9566   */\n      tag_72\n      jump\t// in\n    tag_224:\n        /* \"#utility.yul\":9537:9540   */\n      dup3\n        /* \"#utility.yul\":9530:9567   */\n      mstore\n        /* \"#utility.yul\":9465:9573   */\n      pop\n      pop\n      jump\t// out\n        /* \"#utility.yul\":9579:9758   */\n    tag_104:\n        /* \"#utility.yul\":9648:9658   */\n      0x00\n        /* \"#utility.yul\":9669:9715   */\n      tag_226\n        /* \"#utility.yul\":9711:9714   */\n      dup4\n        /* \"#utility.yul\":9703:9709   */\n      dup4\n        /* \"#utility.yul\":9669:9715   */\n      tag_103\n      jump\t// in\n    tag_226:\n        /* \"#utility.yul\":9747:9751   */\n      0x20\n        /* \"#utility.yul\":9742:9745   */\n      dup4\n        /* \"#utility.yul\":9738:9752   */\n      add\n        /* \"#utility.yul\":9724:9752   */\n      swap1\n      pop\n        /* \"#utility.yul\":9579:9758   */\n      swap3\n      swap2\n      pop\n      pop\n      jump\t// out\n        /* \"#utility.yul\":9764:9877   */\n    tag_105:\n        /* \"#utility.yul\":9834:9838   */\n      0x00\n        /* \"#utility.yul\":9866:9870   */\n      0x20\n        /* \"#utility.yul\":9861:9864   */\n      dup3\n        /* \"#utility.yul\":9857:9871   */\n      add\n        /* \"#utility.yul\":9849:9871   */\n      swap1\n      pop\n        /* \"#utility.yul\":9764:9877   */\n      swap2\n      swap1\n      pop\n      jump\t// out\n        /* \"#utility.yul\":9913:10645   */\n    tag_106:\n        /* \"#utility.yul\":10032:10035   */\n      0x00\n        /* \"#utility.yul\":10061:10115   */\n      tag_229\n        /* \"#utility.yul\":10109:10114   */\n      dup3\n        /* \"#utility.yul\":10061:10115   */\n      tag_100\n      jump\t// in\n    tag_229:\n        /* \"#utility.yul\":10131:10217   */\n      tag_230\n        /* \"#utility.yul\":10210:10216   */\n      dup2\n        /* \"#utility.yul\":10205:10208   */\n      dup6\n        /* \"#utility.yul\":10131:10217   */\n      tag_101\n      jump\t// in\n    tag_230:\n        /* \"#utility.yul\":10124:10217   */\n      swap4\n      pop\n        /* \"#utility.yul\":10241:10297   */\n      tag_231\n        /* \"#utility.yul\":10291:10296   */\n      dup4\n        /* \"#utility.yul\":10241:10297   */\n      tag_102\n      jump\t// in\n    tag_231:\n        /* \"#utility.yul\":10320:10327   */\n      dup1\n        /* \"#utility.yul\":10351:10352   */\n      0x00\n        /* \"#utility.yul\":10336:10620   */\n    tag_232:\n        /* \"#utility.yul\":10361:10367   */\n      dup4\n        /* \"#utility.yul\":10358:10359   */\n      dup2\n        /* \"#utility.yul\":10355:10368   */\n      lt\n        /* \"#utility.yul\":10336:10620   */\n      iszero\n      tag_234\n      jumpi\n        /* \"#utility.yul\":10437:10443   */\n      dup2\n        /* \"#utility.yul\":10431:10444   */\n      mload\n        /* \"#utility.yul\":10464:10527   */\n      tag_235\n        /* \"#utility.yul\":10523:10526   */\n      dup9\n        /* \"#utility.yul\":10508:10521   */\n      dup3\n        /* \"#utility.yul\":10464:10527   */\n      tag_104\n      jump\t// in\n    tag_235:\n        /* \"#utility.yul\":10457:10527   */\n      swap8\n      pop\n        /* \"#utility.yul\":10550:10610   */\n      tag_236\n        /* \"#utility.yul\":10603:10609   */\n      dup4\n        /* \"#utility.yul\":10550:10610   */\n      tag_105\n      jump\t// in\n    tag_236:\n        /* \"#utility.yul\":10540:10610   */\n      swap3\n      pop\n        /* \"#utility.yul\":10396:10620   */\n      pop\n        /* \"#utility.yul\":10383:10384   */\n      0x01\n        /* \"#utility.yul\":10380:10381   */\n      dup2\n        /* \"#utility.yul\":10376:10385   */\n      add\n        /* \"#utility.yul\":10371:10385   */\n      swap1\n      pop\n        /* \"#utility.yul\":10336:10620   */\n      jump(tag_232)\n    tag_234:\n        /* \"#utility.yul\":10340:10354   */\n      pop\n        /* \"#utility.yul\":10636:10639   */\n      dup6\n        /* \"#utility.yul\":10629:10639   */\n      swap4\n      pop\n        /* \"#utility.yul\":10037:10645   */\n      pop\n      pop\n      pop\n        /* \"#utility.yul\":9913:10645   */\n      swap3\n      swap2\n      pop\n      pop\n      jump\t// out\n        /* \"#utility.yul\":10651:10765   */\n    tag_107:\n        /* \"#utility.yul\":10718:10724   */\n      0x00\n        /* \"#utility.yul\":10752:10757   */\n      dup2\n        /* \"#utility.yul\":10746:10758   */\n      mload\n        /* \"#utility.yul\":10736:10758   */\n      swap1\n      pop\n        /* \"#utility.yul\":10651:10765   */\n      swap2\n      swap1\n      pop\n      jump\t// out\n        /* \"#utility.yul\":10771:10955   */\n    tag_108:\n        /* \"#utility.yul\":10870:10881   */\n      0x00\n        /* \"#utility.yul\":10904:10910   */\n      dup3\n        /* \"#utility.yul\":10899:10902   */\n      dup3\n        /* \"#utility.yul\":10892:10911   */\n      mstore\n        /* \"#utility.yul\":10944:10948   */\n      0x20\n        /* \"#utility.yul\":10939:10942   */\n      dup3\n        /* \"#utility.yul\":10935:10949   */\n      add\n        /* \"#utility.yul\":10920:10949   */\n      swap1\n      pop\n        /* \"#utility.yul\":10771:10955   */\n      swap3\n      swap2\n      pop\n      pop\n      jump\t// out\n        /* \"#utility.yul\":10961:11093   */\n    tag_109:\n        /* \"#utility.yul\":11028:11032   */\n      0x00\n        /* \"#utility.yul\":11051:11054   */\n      dup2\n        /* \"#utility.yul\":11043:11054   */\n      swap1\n      pop\n        /* \"#utility.yul\":11081:11085   */\n      0x20\n        /* \"#utility.yul\":11076:11079   */\n      dup3\n        /* \"#utility.yul\":11072:11086   */\n      add\n        /* \"#utility.yul\":11064:11086   */\n      swap1\n      pop\n        /* \"#utility.yul\":10961:11093   */\n      swap2\n      swap1\n      pop\n      jump\t// out\n        /* \"#utility.yul\":11099:11207   */\n    tag_110:\n        /* \"#utility.yul\":11176:11200   */\n      tag_241\n        /* \"#utility.yul\":11194:11199   */\n      dup2\n        /* \"#utility.yul\":11176:11200   */\n      tag_68\n      jump\t// in\n    tag_241:\n        /* \"#utility.yul\":11171:11174   */\n      dup3\n        /* \"#utility.yul\":11164:11201   */\n      mstore\n        /* \"#utility.yul\":11099:11207   */\n      pop\n      pop\n      jump\t// out\n        /* \"#utility.yul\":11213:11392   */\n    tag_111:\n        /* \"#utility.yul\":11282:11292   */\n      0x00\n        /* \"#utility.yul\":11303:11349   */\n      tag_243\n        /* \"#utility.yul\":11345:11348   */\n      dup4\n        /* \"#utility.yul\":11337:11343   */\n      dup4\n        /* \"#utility.yul\":11303:11349   */\n      tag_110\n      jump\t// in\n    tag_243:\n        /* \"#utility.yul\":11381:11385   */\n      0x20\n        /* \"#utility.yul\":11376:11379   */\n      dup4\n        /* \"#utility.yul\":11372:11386   */\n      add\n        /* \"#utility.yul\":11358:11386   */\n      swap1\n      pop\n        /* \"#utility.yul\":11213:11392   */\n      swap3\n      swap2\n      pop\n      pop\n      jump\t// out\n        /* \"#utility.yul\":11398:11511   */\n    tag_112:\n        /* \"#utility.yul\":11468:11472   */\n      0x00\n        /* \"#utility.yul\":11500:11504   */\n      0x20\n        /* \"#utility.yul\":11495:11498   */\n      dup3\n        /* \"#utility.yul\":11491:11505   */\n      add\n        /* \"#utility.yul\":11483:11505   */\n      swap1\n      pop\n        /* \"#utility.yul\":11398:11511   */\n      swap2\n      swap1\n      pop\n      jump\t// out\n        /* \"#utility.yul\":11547:12279   */\n    tag_113:\n        /* \"#utility.yul\":11666:11669   */\n      0x00\n        /* \"#utility.yul\":11695:11749   */\n      tag_246\n        /* \"#utility.yul\":11743:11748   */\n      dup3\n        /* \"#utility.yul\":11695:11749   */\n      tag_107\n      jump\t// in\n    tag_246:\n        /* \"#utility.yul\":11765:11851   */\n      tag_247\n        /* \"#utility.yul\":11844:11850   */\n      dup2\n        /* \"#utility.yul\":11839:11842   */\n      dup6\n        /* \"#utility.yul\":11765:11851   */\n      tag_108\n      jump\t// in\n    tag_247:\n        /* \"#utility.yul\":11758:11851   */\n      swap4\n      pop\n        /* \"#utility.yul\":11875:11931   */\n      tag_248\n        /* \"#utility.yul\":11925:11930   */\n      dup4\n        /* \"#utility.yul\":11875:11931   */\n      tag_109\n      jump\t// in\n    tag_248:\n        /* \"#utility.yul\":11954:11961   */\n      dup1\n        /* \"#utility.yul\":11985:11986   */\n      0x00\n        /* \"#utility.yul\":11970:12254   */\n    tag_249:\n        /* \"#utility.yul\":11995:12001   */\n      dup4\n        /* \"#utility.yul\":11992:11993   */\n      dup2\n        /* \"#utility.yul\":11989:12002   */\n      lt\n        /* \"#utility.yul\":11970:12254   */\n      iszero\n      tag_251\n      jumpi\n        /* \"#utility.yul\":12071:12077   */\n      dup2\n        /* \"#utility.yul\":12065:12078   */\n      mload\n        /* \"#utility.yul\":12098:12161   */\n      tag_252\n        /* \"#utility.yul\":12157:12160   */\n      dup9\n        /* \"#utility.yul\":12142:12155   */\n      dup3\n        /* \"#utility.yul\":12098:12161   */\n      tag_111\n      jump\t// in\n    tag_252:\n        /* \"#utility.yul\":12091:12161   */\n      swap8\n      pop\n        /* \"#utility.yul\":12184:12244   */\n      tag_253\n        /* \"#utility.yul\":12237:12243   */\n      dup4\n        /* \"#utility.yul\":12184:12244   */\n      tag_112\n      jump\t// in\n    tag_253:\n        /* \"#utility.yul\":12174:12244   */\n      swap3\n      pop\n        /* \"#utility.yul\":12030:12254   */\n      pop\n        /* \"#utility.yul\":12017:12018   */\n      0x01\n        /* \"#utility.yul\":12014:12015   */\n      dup2\n        /* \"#utility.yul\":12010:12019   */\n      add\n        /* \"#utility.yul\":12005:12019   */\n      swap1\n      pop\n        /* \"#utility.yul\":11970:12254   */\n      jump(tag_249)\n    tag_251:\n        /* \"#utility.yul\":11974:11988   */\n      pop\n        /* \"#utility.yul\":12270:12273   */\n      dup6\n        /* \"#utility.yul\":12263:12273   */\n      swap4\n      pop\n        /* \"#utility.yul\":11671:12279   */\n      pop\n      pop\n      pop\n        /* \"#utility.yul\":11547:12279   */\n      swap3\n      swap2\n      pop\n      pop\n      jump\t// out\n        /* \"#utility.yul\":12285:12919   */\n    tag_62:\n        /* \"#utility.yul\":12506:12510   */\n      0x00\n        /* \"#utility.yul\":12544:12546   */\n      0x40\n        /* \"#utility.yul\":12533:12542   */\n      dup3\n        /* \"#utility.yul\":12529:12547   */\n      add\n        /* \"#utility.yul\":12521:12547   */\n      swap1\n      pop\n        /* \"#utility.yul\":12593:12602   */\n      dup2\n        /* \"#utility.yul\":12587:12591   */\n      dup2\n        /* \"#utility.yul\":12583:12603   */\n      sub\n        /* \"#utility.yul\":12579:12580   */\n      0x00\n        /* \"#utility.yul\":12568:12577   */\n      dup4\n        /* \"#utility.yul\":12564:12581   */\n      add\n        /* \"#utility.yul\":12557:12604   */\n      mstore\n        /* \"#utility.yul\":12621:12729   */\n      tag_255\n        /* \"#utility.yul\":12724:12728   */\n      dup2\n        /* \"#utility.yul\":12715:12721   */\n      dup6\n        /* \"#utility.yul\":12621:12729   */\n      tag_106\n      jump\t// in\n    tag_255:\n        /* \"#utility.yul\":12613:12729   */\n      swap1\n      pop\n        /* \"#utility.yul\":12776:12785   */\n      dup2\n        /* \"#utility.yul\":12770:12774   */\n      dup2\n        /* \"#utility.yul\":12766:12786   */\n      sub\n        /* \"#utility.yul\":12761:12763   */\n      0x20\n        /* \"#utility.yul\":12750:12759   */\n      dup4\n        /* \"#utility.yul\":12746:12764   */\n      add\n        /* \"#utility.yul\":12739:12787   */\n      mstore\n        /* \"#utility.yul\":12804:12912   */\n      tag_256\n        /* \"#utility.yul\":12907:12911   */\n      dup2\n        /* \"#utility.yul\":12898:12904   */\n      dup5\n        /* \"#utility.yul\":12804:12912   */\n      tag_113\n      jump\t// in\n    tag_256:\n        /* \"#utility.yul\":12796:12912   */\n      swap1\n      pop\n        /* \"#utility.yul\":12285:12919   */\n      swap4\n      swap3\n      pop\n      pop\n      pop\n      jump\t// out\n    stop\n\n    sub_0: assembly {\n            /* \"@openzeppelin/contracts/finance/PaymentSplitter.sol\":1471:8571  contract PaymentSplitter is Context {... */\n          mstore(0x40, 0x80)\n            /* \"@openzeppelin/contracts/finance/PaymentSplitter.sol\":2448:2807  constructor(address[] memory payees, uint256[] memory shares_) payable {... */\n          mload(0x40)\n          sub(codesize, bytecodeSize)\n          dup1\n          bytecodeSize\n          dup4\n          codecopy\n          dup2\n          dup2\n          add\n          0x40\n          mstore\n          dup2\n          add\n          swap1\n          tag_1\n          swap2\n          swap1\n          tag_2\n          jump\t// in\n        tag_1:\n            /* \"@openzeppelin/contracts/finance/PaymentSplitter.sol\":2554:2561  shares_ */\n          dup1\n            /* \"@openzeppelin/contracts/finance/PaymentSplitter.sol\":2554:2568  shares_.length */\n          mload\n            /* \"@openzeppelin/contracts/finance/PaymentSplitter.sol\":2537:2543  payees */\n          dup3\n            /* \"@openzeppelin/contracts/finance/PaymentSplitter.sol\":2537:2550  payees.length */\n          mload\n            /* \"@openzeppelin/contracts/finance/PaymentSplitter.sol\":2537:2568  payees.length == shares_.length */\n          eq\n            /* \"@openzeppelin/contracts/finance/PaymentSplitter.sol\":2529:2623  require(payees.length == shares_.length, \"PaymentSplitter: payees and shares length mismatch\") */\n          tag_5\n          jumpi\n          mload(0x40)\n          0x08c379a000000000000000000000000000000000000000000000000000000000\n          dup2\n          mstore\n          0x04\n          add\n          tag_6\n          swap1\n          tag_7\n          jump\t// in\n        tag_6:\n          mload(0x40)\n          dup1\n          swap2\n          sub\n          swap1\n          revert\n        tag_5:\n            /* \"@openzeppelin/contracts/finance/PaymentSplitter.sol\":2657:2658  0 */\n          0x00\n            /* \"@openzeppelin/contracts/finance/PaymentSplitter.sol\":2641:2647  payees */\n          dup3\n            /* \"@openzeppelin/contracts/finance/PaymentSplitter.sol\":2641:2654  payees.length */\n          mload\n            /* \"@openzeppelin/contracts/finance/PaymentSplitter.sol\":2641:2658  payees.length > 0 */\n          gt\n            /* \"@openzeppelin/contracts/finance/PaymentSplitter.sol\":2633:2689  require(payees.length > 0, \"PaymentSplitter: no payees\") */\n          tag_8\n          jumpi\n          mload(0x40)\n          0x08c379a000000000000000000000000000000000000000000000000000000000\n          dup2\n          mstore\n          0x04\n          add\n          tag_9\n          swap1\n          tag_10\n          jump\t// in\n        tag_9:\n          mload(0x40)\n          dup1\n          swap2\n          sub\n          swap1\n          revert\n        tag_8:\n            /* \"@openzeppelin/contracts/finance/PaymentSplitter.sol\":2705:2714  uint256 i */\n          0x00\n            /* \"@openzeppelin/contracts/finance/PaymentSplitter.sol\":2700:2801  for (uint256 i = 0; i < payees.length; i++) {... */\n        tag_11:\n            /* \"@openzeppelin/contracts/finance/PaymentSplitter.sol\":2724:2730  payees */\n          dup3\n            /* \"@openzeppelin/contracts/finance/PaymentSplitter.sol\":2724:2737  payees.length */\n          mload\n            /* \"@openzeppelin/contracts/finance/PaymentSplitter.sol\":2720:2721  i */\n          dup2\n            /* \"@openzeppelin/contracts/finance/PaymentSplitter.sol\":2720:2737  i < payees.length */\n          lt\n            /* \"@openzeppelin/contracts/finance/PaymentSplitter.sol\":2700:2801  for (uint256 i = 0; i < payees.length; i++) {... */\n          iszero\n          tag_12\n          jumpi\n            /* \"@openzeppelin/contracts/finance/PaymentSplitter.sol\":2758:2790  _addPayee(payees[i], shares_[i]) */\n          tag_14\n            /* \"@openzeppelin/contracts/finance/PaymentSplitter.sol\":2768:2774  payees */\n          dup4\n            /* \"@openzeppelin/contracts/finance/PaymentSplitter.sol\":2775:2776  i */\n          dup3\n            /* \"@openzeppelin/contracts/finance/PaymentSplitter.sol\":2768:2777  payees[i] */\n          dup2\n          mload\n          dup2\n          lt\n          tag_15\n          jumpi\n          tag_16\n          tag_17\n          jump\t// in\n        tag_16:\n        tag_15:\n          0x20\n          mul\n          0x20\n          add\n          add\n          mload\n            /* \"@openzeppelin/contracts/finance/PaymentSplitter.sol\":2779:2786  shares_ */\n          dup4\n            /* \"@openzeppelin/contracts/finance/PaymentSplitter.sol\":2787:2788  i */\n          dup4\n            /* \"@openzeppelin/contracts/finance/PaymentSplitter.sol\":2779:2789  shares_[i] */\n          dup2\n          mload\n          dup2\n          lt\n          tag_18\n          jumpi\n          tag_19\n          tag_17\n          jump\t// in\n        tag_19:\n        tag_18:\n          0x20\n          mul\n          0x20\n          add\n          add\n          mload\n            /* \"@openzeppelin/contracts/finance/PaymentSplitter.sol\":2758:2767  _addPayee */\n          shl(0x20, tag_20)\n            /* \"@openzeppelin/contracts/finance/PaymentSplitter.sol\":2758:2790  _addPayee(payees[i], shares_[i]) */\n          0x20\n          shr\n          jump\t// in\n        tag_14:\n            /* \"@openzeppelin/contracts/finance/PaymentSplitter.sol\":2739:2742  i++ */\n          dup1\n          dup1\n          tag_21\n          swap1\n          tag_22\n          jump\t// in\n        tag_21:\n          swap2\n          pop\n          pop\n            /* \"@openzeppelin/contracts/finance/PaymentSplitter.sol\":2700:2801  for (uint256 i = 0; i < payees.length; i++) {... */\n          jump(tag_11)\n        tag_12:\n          pop\n            /* \"@openzeppelin/contracts/finance/PaymentSplitter.sol\":2448:2807  constructor(address[] memory payees, uint256[] memory shares_) payable {... */\n          pop\n          pop\n            /* \"@openzeppelin/contracts/finance/PaymentSplitter.sol\":1471:8571  contract PaymentSplitter is Context {... */\n          jump(tag_23)\n            /* \"@openzeppelin/contracts/finance/PaymentSplitter.sol\":8105:8569  function _addPayee(address account, uint256 shares_) private {... */\n        tag_20:\n            /* \"@openzeppelin/contracts/finance/PaymentSplitter.sol\":8203:8204  0 */\n          0x00\n            /* \"@openzeppelin/contracts/finance/PaymentSplitter.sol\":8184:8205  account != address(0) */\n          0xffffffffffffffffffffffffffffffffffffffff\n          and\n            /* \"@openzeppelin/contracts/finance/PaymentSplitter.sol\":8184:8191  account */\n          dup3\n            /* \"@openzeppelin/contracts/finance/PaymentSplitter.sol\":8184:8205  account != address(0) */\n          0xffffffffffffffffffffffffffffffffffffffff\n          and\n          sub\n            /* \"@openzeppelin/contracts/finance/PaymentSplitter.sol\":8176:8254  require(account != address(0), \"PaymentSplitter: account is the zero address\") */\n          tag_25\n          jumpi\n          mload(0x40)\n          0x08c379a000000000000000000000000000000000000000000000000000000000\n          dup2\n          mstore\n          0x04\n          add\n          tag_26\n          swap1\n          tag_27\n          jump\t// in\n        tag_26:\n          mload(0x40)\n          dup1\n          swap2\n          sub\n          swap1\n          revert\n        tag_25:\n            /* \"@openzeppelin/contracts/finance/PaymentSplitter.sol\":8282:8283  0 */\n          0x00\n            /* \"@openzeppelin/contracts/finance/PaymentSplitter.sol\":8272:8279  shares_ */\n          dup2\n            /* \"@openzeppelin/contracts/finance/PaymentSplitter.sol\":8272:8283  shares_ > 0 */\n          gt\n            /* \"@openzeppelin/contracts/finance/PaymentSplitter.sol\":8264:8317  require(shares_ > 0, \"PaymentSplitter: shares are 0\") */\n          tag_28\n          jumpi\n          mload(0x40)\n          0x08c379a000000000000000000000000000000000000000000000000000000000\n          dup2\n          mstore\n          0x04\n          add\n          tag_29\n          swap1\n          tag_30\n          jump\t// in\n        tag_29:\n          mload(0x40)\n          dup1\n          swap2\n          sub\n          swap1\n          revert\n        tag_28:\n            /* \"@openzeppelin/contracts/finance/PaymentSplitter.sol\":8355:8356  0 */\n          0x00\n            /* \"@openzeppelin/contracts/finance/PaymentSplitter.sol\":8335:8342  _shares */\n          0x02\n            /* \"@openzeppelin/contracts/finance/PaymentSplitter.sol\":8335:8351  _shares[account] */\n          0x00\n            /* \"@openzeppelin/contracts/finance/PaymentSplitter.sol\":8343:8350  account */\n          dup5\n            /* \"@openzeppelin/contracts/finance/PaymentSplitter.sol\":8335:8351  _shares[account] */\n          0xffffffffffffffffffffffffffffffffffffffff\n          and\n          0xffffffffffffffffffffffffffffffffffffffff\n          and\n          dup2\n          mstore\n          0x20\n          add\n          swap1\n          dup2\n          mstore\n          0x20\n          add\n          0x00\n          keccak256\n          sload\n            /* \"@openzeppelin/contracts/finance/PaymentSplitter.sol\":8335:8356  _shares[account] == 0 */\n          eq\n            /* \"@openzeppelin/contracts/finance/PaymentSplitter.sol\":8327:8404  require(_shares[account] == 0, \"PaymentSplitter: account already has shares\") */\n          tag_31\n          jumpi\n          mload(0x40)\n          0x08c379a000000000000000000000000000000000000000000000000000000000\n          dup2\n          mstore\n          0x04\n          add\n          tag_32\n          swap1\n          tag_33\n          jump\t// in\n        tag_32:\n          mload(0x40)\n          dup1\n          swap2\n          sub\n          swap1\n          revert\n        tag_31:\n            /* \"@openzeppelin/contracts/finance/PaymentSplitter.sol\":8415:8422  _payees */\n          0x04\n            /* \"@openzeppelin/contracts/finance/PaymentSplitter.sol\":8428:8435  account */\n          dup3\n            /* \"@openzeppelin/contracts/finance/PaymentSplitter.sol\":8415:8436  _payees.push(account) */\n          swap1\n          dup1\n          0x01\n          dup2\n          sload\n          add\n          dup1\n          dup3\n          sstore\n          dup1\n          swap2\n          pop\n          pop\n          0x01\n          swap1\n          sub\n          swap1\n          0x00\n          mstore\n          keccak256(0x00, 0x20)\n          add\n          0x00\n          swap1\n          swap2\n          swap1\n          swap2\n          swap1\n          swap2\n          0x0100\n          exp\n          dup2\n          sload\n          dup2\n          0xffffffffffffffffffffffffffffffffffffffff\n          mul\n          not\n          and\n          swap1\n          dup4\n          0xffffffffffffffffffffffffffffffffffffffff\n          and\n          mul\n          or\n          swap1\n          sstore\n          pop\n            /* \"@openzeppelin/contracts/finance/PaymentSplitter.sol\":8465:8472  shares_ */\n          dup1\n            /* \"@openzeppelin/contracts/finance/PaymentSplitter.sol\":8446:8453  _shares */\n          0x02\n            /* \"@openzeppelin/contracts/finance/PaymentSplitter.sol\":8446:8462  _shares[account] */\n          0x00\n            /* \"@openzeppelin/contracts/finance/PaymentSplitter.sol\":8454:8461  account */\n          dup5\n            /* \"@openzeppelin/contracts/finance/PaymentSplitter.sol\":8446:8462  _shares[account] */\n          0xffffffffffffffffffffffffffffffffffffffff\n          and\n          0xffffffffffffffffffffffffffffffffffffffff\n          and\n          dup2\n          mstore\n          0x20\n          add\n          swap1\n          dup2\n          mstore\n          0x20\n          add\n          0x00\n          keccak256\n            /* \"@openzeppelin/contracts/finance/PaymentSplitter.sol\":8446:8472  _shares[account] = shares_ */\n          dup2\n          swap1\n          sstore\n          pop\n            /* \"@openzeppelin/contracts/finance/PaymentSplitter.sol\":8512:8519  shares_ */\n          dup1\n            /* \"@openzeppelin/contracts/finance/PaymentSplitter.sol\":8497:8509  _totalShares */\n          sload(0x00)\n            /* \"@openzeppelin/contracts/finance/PaymentSplitter.sol\":8497:8519  _totalShares + shares_ */\n          tag_35\n          swap2\n          swap1\n          tag_36\n          jump\t// in\n        tag_35:\n            /* \"@openzeppelin/contracts/finance/PaymentSplitter.sol\":8482:8494  _totalShares */\n          0x00\n            /* \"@openzeppelin/contracts/finance/PaymentSplitter.sol\":8482:8519  _totalShares = _totalShares + shares_ */\n          dup2\n          swap1\n          sstore\n          pop\n            /* \"@openzeppelin/contracts/finance/PaymentSplitter.sol\":8534:8562  PayeeAdded(account, shares_) */\n          0x40c340f65e17194d14ddddb073d3c9f888e3cb52b5aae0c6c7706b4fbc905fac\n            /* \"@openzeppelin/contracts/finance/PaymentSplitter.sol\":8545:8552  account */\n          dup3\n            /* \"@openzeppelin/contracts/finance/PaymentSplitter.sol\":8554:8561  shares_ */\n          dup3\n            /* \"@openzeppelin/contracts/finance/PaymentSplitter.sol\":8534:8562  PayeeAdded(account, shares_) */\n          mload(0x40)\n          tag_37\n          swap3\n          swap2\n          swap1\n          tag_38\n          jump\t// in\n        tag_37:\n          mload(0x40)\n          dup1\n          swap2\n          sub\n          swap1\n          log1\n            /* \"@openzeppelin/contracts/finance/PaymentSplitter.sol\":8105:8569  function _addPayee(address account, uint256 shares_) private {... */\n          pop\n          pop\n          jump\t// out\n            /* \"#utility.yul\":7:82   */\n        tag_39:\n            /* \"#utility.yul\":40:46   */\n          0x00\n            /* \"#utility.yul\":73:75   */\n          0x40\n            /* \"#utility.yul\":67:76   */\n          mload\n            /* \"#utility.yul\":57:76   */\n          swap1\n          pop\n            /* \"#utility.yul\":7:82   */\n          swap1\n          jump\t// out\n            /* \"#utility.yul\":88:205   */\n        tag_40:\n            /* \"#utility.yul\":197:198   */\n          0x00\n            /* \"#utility.yul\":194:195   */\n          dup1\n            /* \"#utility.yul\":187:199   */\n          revert\n            /* \"#utility.yul\":211:328   */\n        tag_41:\n            /* \"#utility.yul\":320:321   */\n          0x00\n            /* \"#utility.yul\":317:318   */\n          dup1\n            /* \"#utility.yul\":310:322   */\n          revert\n            /* \"#utility.yul\":334:451   */\n        tag_42:\n            /* \"#utility.yul\":443:444   */\n          0x00\n            /* \"#utility.yul\":440:441   */\n          dup1\n            /* \"#utility.yul\":433:445   */\n          revert\n            /* \"#utility.yul\":457:559   */\n        tag_43:\n            /* \"#utility.yul\":498:504   */\n          0x00\n            /* \"#utility.yul\":549:551   */\n          0x1f\n            /* \"#utility.yul\":545:552   */\n          not\n            /* \"#utility.yul\":540:542   */\n          0x1f\n            /* \"#utility.yul\":533:538   */\n          dup4\n            /* \"#utility.yul\":529:543   */\n          add\n            /* \"#utility.yul\":525:553   */\n          and\n            /* \"#utility.yul\":515:553   */\n          swap1\n          pop\n            /* \"#utility.yul\":457:559   */\n          swap2\n          swap1\n          pop\n          jump\t// out\n            /* \"#utility.yul\":565:745   */\n        tag_44:\n            /* \"#utility.yul\":613:690   */\n          0x4e487b7100000000000000000000000000000000000000000000000000000000\n            /* \"#utility.yul\":610:611   */\n          0x00\n            /* \"#utility.yul\":603:691   */\n          mstore\n            /* \"#utility.yul\":710:714   */\n          0x41\n            /* \"#utility.yul\":707:708   */\n          0x04\n            /* \"#utility.yul\":700:715   */\n          mstore\n            /* \"#utility.yul\":734:738   */\n          0x24\n            /* \"#utility.yul\":731:732   */\n          0x00\n            /* \"#utility.yul\":724:739   */\n          revert\n            /* \"#utility.yul\":751:1032   */\n        tag_45:\n            /* \"#utility.yul\":834:861   */\n          tag_83\n            /* \"#utility.yul\":856:860   */\n          dup3\n            /* \"#utility.yul\":834:861   */\n          tag_43\n          jump\t// in\n        tag_83:\n            /* \"#utility.yul\":826:832   */\n          dup2\n            /* \"#utility.yul\":822:862   */\n          add\n            /* \"#utility.yul\":964:970   */\n          dup2\n            /* \"#utility.yul\":952:962   */\n          dup2\n            /* \"#utility.yul\":949:971   */\n          lt\n            /* \"#utility.yul\":928:946   */\n          0xffffffffffffffff\n            /* \"#utility.yul\":916:926   */\n          dup3\n            /* \"#utility.yul\":913:947   */\n          gt\n            /* \"#utility.yul\":910:972   */\n          or\n            /* \"#utility.yul\":907:995   */\n          iszero\n          tag_84\n          jumpi\n            /* \"#utility.yul\":975:993   */\n          tag_85\n          tag_44\n          jump\t// in\n        tag_85:\n            /* \"#utility.yul\":907:995   */\n        tag_84:\n            /* \"#utility.yul\":1015:1025   */\n          dup1\n            /* \"#utility.yul\":1011:1013   */\n          0x40\n            /* \"#utility.yul\":1004:1026   */\n          mstore\n            /* \"#utility.yul\":794:1032   */\n          pop\n            /* \"#utility.yul\":751:1032   */\n          pop\n          pop\n          jump\t// out\n            /* \"#utility.yul\":1038:1167   */\n        tag_46:\n            /* \"#utility.yul\":1072:1078   */\n          0x00\n            /* \"#utility.yul\":1099:1119   */\n          tag_87\n          tag_39\n          jump\t// in\n        tag_87:\n            /* \"#utility.yul\":1089:1119   */\n          swap1\n          pop\n            /* \"#utility.yul\":1128:1161   */\n          tag_88\n            /* \"#utility.yul\":1156:1160   */\n          dup3\n            /* \"#utility.yul\":1148:1154   */\n          dup3\n            /* \"#utility.yul\":1128:1161   */\n          tag_45\n          jump\t// in\n        tag_88:\n            /* \"#utility.yul\":1038:1167   */\n          swap2\n          swap1\n          pop\n          jump\t// out\n            /* \"#utility.yul\":1173:1484   */\n        tag_47:\n            /* \"#utility.yul\":1250:1254   */\n          0x00\n            /* \"#utility.yul\":1340:1358   */\n          0xffffffffffffffff\n            /* \"#utility.yul\":1332:1338   */\n          dup3\n            /* \"#utility.yul\":1329:1359   */\n          gt\n            /* \"#utility.yul\":1326:1382   */\n          iszero\n          tag_90\n          jumpi\n            /* \"#utility.yul\":1362:1380   */\n          tag_91\n          tag_44\n          jump\t// in\n        tag_91:\n            /* \"#utility.yul\":1326:1382   */\n        tag_90:\n            /* \"#utility.yul\":1412:1416   */\n          0x20\n            /* \"#utility.yul\":1404:1410   */\n          dup3\n            /* \"#utility.yul\":1400:1417   */\n          mul\n            /* \"#utility.yul\":1392:1417   */\n          swap1\n          pop\n            /* \"#utility.yul\":1472:1476   */\n          0x20\n            /* \"#utility.yul\":1466:1470   */\n          dup2\n            /* \"#utility.yul\":1462:1477   */\n          add\n            /* \"#utility.yul\":1454:1477   */\n          swap1\n          pop\n            /* \"#utility.yul\":1173:1484   */\n          swap2\n          swap1\n          pop\n          jump\t// out\n            /* \"#utility.yul\":1490:1607   */\n        tag_48:\n            /* \"#utility.yul\":1599:1600   */\n          0x00\n            /* \"#utility.yul\":1596:1597   */\n          dup1\n            /* \"#utility.yul\":1589:1601   */\n          revert\n            /* \"#utility.yul\":1613:1739   */\n        tag_49:\n            /* \"#utility.yul\":1650:1657   */\n          0x00\n            /* \"#utility.yul\":1690:1732   */\n          0xffffffffffffffffffffffffffffffffffffffff\n            /* \"#utility.yul\":1683:1688   */\n          dup3\n            /* \"#utility.yul\":1679:1733   */\n          and\n            /* \"#utility.yul\":1668:1733   */\n          swap1\n          pop\n            /* \"#utility.yul\":1613:1739   */\n          swap2\n          swap1\n          pop\n          jump\t// out\n            /* \"#utility.yul\":1745:1841   */\n        tag_50:\n            /* \"#utility.yul\":1782:1789   */\n          0x00\n            /* \"#utility.yul\":1811:1835   */\n          tag_95\n            /* \"#utility.yul\":1829:1834   */\n          dup3\n            /* \"#utility.yul\":1811:1835   */\n          tag_49\n          jump\t// in\n        tag_95:\n            /* \"#utility.yul\":1800:1835   */\n          swap1\n          pop\n            /* \"#utility.yul\":1745:1841   */\n          swap2\n          swap1\n          pop\n          jump\t// out\n            /* \"#utility.yul\":1847:1969   */\n        tag_51:\n            /* \"#utility.yul\":1920:1944   */\n          tag_97\n            /* \"#utility.yul\":1938:1943   */\n          dup2\n            /* \"#utility.yul\":1920:1944   */\n          tag_50\n          jump\t// in\n        tag_97:\n            /* \"#utility.yul\":1913:1918   */\n          dup2\n            /* \"#utility.yul\":1910:1945   */\n          eq\n            /* \"#utility.yul\":1900:1963   */\n          tag_98\n          jumpi\n            /* \"#utility.yul\":1959:1960   */\n          0x00\n            /* \"#utility.yul\":1956:1957   */\n          dup1\n            /* \"#utility.yul\":1949:1961   */\n          revert\n            /* \"#utility.yul\":1900:1963   */\n        tag_98:\n            /* \"#utility.yul\":1847:1969   */\n          pop\n          jump\t// out\n            /* \"#utility.yul\":1975:2118   */\n        tag_52:\n            /* \"#utility.yul\":2032:2037   */\n          0x00\n            /* \"#utility.yul\":2063:2069   */\n          dup2\n            /* \"#utility.yul\":2057:2070   */\n          mload\n            /* \"#utility.yul\":2048:2070   */\n          swap1\n          pop\n            /* \"#utility.yul\":2079:2112   */\n          tag_100\n            /* \"#utility.yul\":2106:2111   */\n          dup2\n            /* \"#utility.yul\":2079:2112   */\n          tag_51\n          jump\t// in\n        tag_100:\n            /* \"#utility.yul\":1975:2118   */\n          swap3\n          swap2\n          pop\n          pop\n          jump\t// out\n            /* \"#utility.yul\":2141:2873   */\n        tag_53:\n            /* \"#utility.yul\":2248:2253   */\n          0x00\n            /* \"#utility.yul\":2273:2354   */\n          tag_102\n            /* \"#utility.yul\":2289:2353   */\n          tag_103\n            /* \"#utility.yul\":2346:2352   */\n          dup5\n            /* \"#utility.yul\":2289:2353   */\n          tag_47\n          jump\t// in\n        tag_103:\n            /* \"#utility.yul\":2273:2354   */\n          tag_46\n          jump\t// in\n        tag_102:\n            /* \"#utility.yul\":2264:2354   */\n          swap1\n          pop\n            /* \"#utility.yul\":2374:2379   */\n          dup1\n            /* \"#utility.yul\":2403:2409   */\n          dup4\n            /* \"#utility.yul\":2396:2401   */\n          dup3\n            /* \"#utility.yul\":2389:2410   */\n          mstore\n            /* \"#utility.yul\":2437:2441   */\n          0x20\n            /* \"#utility.yul\":2430:2435   */\n          dup3\n            /* \"#utility.yul\":2426:2442   */\n          add\n            /* \"#utility.yul\":2419:2442   */\n          swap1\n          pop\n            /* \"#utility.yul\":2490:2494   */\n          0x20\n            /* \"#utility.yul\":2482:2488   */\n          dup5\n            /* \"#utility.yul\":2478:2495   */\n          mul\n            /* \"#utility.yul\":2470:2476   */\n          dup4\n            /* \"#utility.yul\":2466:2496   */\n          add\n            /* \"#utility.yul\":2519:2522   */\n          dup6\n            /* \"#utility.yul\":2511:2517   */\n          dup2\n            /* \"#utility.yul\":2508:2523   */\n          gt\n            /* \"#utility.yul\":2505:2627   */\n          iszero\n          tag_104\n          jumpi\n            /* \"#utility.yul\":2538:2617   */\n          tag_105\n          tag_48\n          jump\t// in\n        tag_105:\n            /* \"#utility.yul\":2505:2627   */\n        tag_104:\n            /* \"#utility.yul\":2653:2659   */\n          dup4\n            /* \"#utility.yul\":2636:2867   */\n        tag_106:\n            /* \"#utility.yul\":2670:2676   */\n          dup2\n            /* \"#utility.yul\":2665:2668   */\n          dup2\n            /* \"#utility.yul\":2662:2677   */\n          lt\n            /* \"#utility.yul\":2636:2867   */\n          iszero\n          tag_108\n          jumpi\n            /* \"#utility.yul\":2745:2748   */\n          dup1\n            /* \"#utility.yul\":2774:2822   */\n          tag_109\n            /* \"#utility.yul\":2818:2821   */\n          dup9\n            /* \"#utility.yul\":2806:2816   */\n          dup3\n            /* \"#utility.yul\":2774:2822   */\n          tag_52\n          jump\t// in\n        tag_109:\n            /* \"#utility.yul\":2769:2772   */\n          dup5\n            /* \"#utility.yul\":2762:2823   */\n          mstore\n            /* \"#utility.yul\":2852:2856   */\n          0x20\n            /* \"#utility.yul\":2847:2850   */\n          dup5\n            /* \"#utility.yul\":2843:2857   */\n          add\n            /* \"#utility.yul\":2836:2857   */\n          swap4\n          pop\n            /* \"#utility.yul\":2712:2867   */\n          pop\n            /* \"#utility.yul\":2696:2700   */\n          0x20\n            /* \"#utility.yul\":2691:2694   */\n          dup2\n            /* \"#utility.yul\":2687:2701   */\n          add\n            /* \"#utility.yul\":2680:2701   */\n          swap1\n          pop\n            /* \"#utility.yul\":2636:2867   */\n          jump(tag_106)\n        tag_108:\n            /* \"#utility.yul\":2640:2661   */\n          pop\n            /* \"#utility.yul\":2254:2873   */\n          pop\n          pop\n            /* \"#utility.yul\":2141:2873   */\n          swap4\n          swap3\n          pop\n          pop\n          pop\n          jump\t// out\n            /* \"#utility.yul\":2896:3281   */\n        tag_54:\n            /* \"#utility.yul\":2978:2983   */\n          0x00\n            /* \"#utility.yul\":3027:3030   */\n          dup3\n            /* \"#utility.yul\":3020:3024   */\n          0x1f\n            /* \"#utility.yul\":3012:3018   */\n          dup4\n            /* \"#utility.yul\":3008:3025   */\n          add\n            /* \"#utility.yul\":3004:3031   */\n          slt\n            /* \"#utility.yul\":2994:3116   */\n          tag_111\n          jumpi\n            /* \"#utility.yul\":3035:3114   */\n          tag_112\n          tag_42\n          jump\t// in\n        tag_112:\n            /* \"#utility.yul\":2994:3116   */\n        tag_111:\n            /* \"#utility.yul\":3145:3151   */\n          dup2\n            /* \"#utility.yul\":3139:3152   */\n          mload\n            /* \"#utility.yul\":3170:3275   */\n          tag_113\n            /* \"#utility.yul\":3271:3274   */\n          dup5\n            /* \"#utility.yul\":3263:3269   */\n          dup3\n            /* \"#utility.yul\":3256:3260   */\n          0x20\n            /* \"#utility.yul\":3248:3254   */\n          dup7\n            /* \"#utility.yul\":3244:3261   */\n          add\n            /* \"#utility.yul\":3170:3275   */\n          tag_53\n          jump\t// in\n        tag_113:\n            /* \"#utility.yul\":3161:3275   */\n          swap2\n          pop\n            /* \"#utility.yul\":2984:3281   */\n          pop\n            /* \"#utility.yul\":2896:3281   */\n          swap3\n          swap2\n          pop\n          pop\n          jump\t// out\n            /* \"#utility.yul\":3287:3598   */\n        tag_55:\n            /* \"#utility.yul\":3364:3368   */\n          0x00\n            /* \"#utility.yul\":3454:3472   */\n          0xffffffffffffffff\n            /* \"#utility.yul\":3446:3452   */\n          dup3\n            /* \"#utility.yul\":3443:3473   */\n          gt\n            /* \"#utility.yul\":3440:3496   */\n          iszero\n          tag_115\n          jumpi\n            /* \"#utility.yul\":3476:3494   */\n          tag_116\n          tag_44\n          jump\t// in\n        tag_116:\n            /* \"#utility.yul\":3440:3496   */\n        tag_115:\n            /* \"#utility.yul\":3526:3530   */\n          0x20\n            /* \"#utility.yul\":3518:3524   */\n          dup3\n            /* \"#utility.yul\":3514:3531   */\n          mul\n            /* \"#utility.yul\":3506:3531   */\n          swap1\n          pop\n            /* \"#utility.yul\":3586:3590   */\n          0x20\n            /* \"#utility.yul\":3580:3584   */\n          dup2\n            /* \"#utility.yul\":3576:3591   */\n          add\n            /* \"#utility.yul\":3568:3591   */\n          swap1\n          pop\n            /* \"#utility.yul\":3287:3598   */\n          swap2\n          swap1\n          pop\n          jump\t// out\n            /* \"#utility.yul\":3604:3681   */\n        tag_56:\n            /* \"#utility.yul\":3641:3648   */\n          0x00\n            /* \"#utility.yul\":3670:3675   */\n          dup2\n            /* \"#utility.yul\":3659:3675   */\n          swap1\n          pop\n            /* \"#utility.yul\":3604:3681   */\n          swap2\n          swap1\n          pop\n          jump\t// out\n            /* \"#utility.yul\":3687:3809   */\n        tag_57:\n            /* \"#utility.yul\":3760:3784   */\n          tag_119\n            /* \"#utility.yul\":3778:3783   */\n          dup2\n            /* \"#utility.yul\":3760:3784   */\n          tag_56\n          jump\t// in\n        tag_119:\n            /* \"#utility.yul\":3753:3758   */\n          dup2\n            /* \"#utility.yul\":3750:3785   */\n          eq\n            /* \"#utility.yul\":3740:3803   */\n          tag_120\n          jumpi\n            /* \"#utility.yul\":3799:3800   */\n          0x00\n            /* \"#utility.yul\":3796:3797   */\n          dup1\n            /* \"#utility.yul\":3789:3801   */\n          revert\n            /* \"#utility.yul\":3740:3803   */\n        tag_120:\n            /* \"#utility.yul\":3687:3809   */\n          pop\n          jump\t// out\n            /* \"#utility.yul\":3815:3958   */\n        tag_58:\n            /* \"#utility.yul\":3872:3877   */\n          0x00\n            /* \"#utility.yul\":3903:3909   */\n          dup2\n            /* \"#utility.yul\":3897:3910   */\n          mload\n            /* \"#utility.yul\":3888:3910   */\n          swap1\n          pop\n            /* \"#utility.yul\":3919:3952   */\n          tag_122\n            /* \"#utility.yul\":3946:3951   */\n          dup2\n            /* \"#utility.yul\":3919:3952   */\n          tag_57\n          jump\t// in\n        tag_122:\n            /* \"#utility.yul\":3815:3958   */\n          swap3\n          swap2\n          pop\n          pop\n          jump\t// out\n            /* \"#utility.yul\":3981:4713   */\n        tag_59:\n            /* \"#utility.yul\":4088:4093   */\n          0x00\n            /* \"#utility.yul\":4113:4194   */\n          tag_124\n            /* \"#utility.yul\":4129:4193   */\n          tag_125\n            /* \"#utility.yul\":4186:4192   */\n          dup5\n            /* \"#utility.yul\":4129:4193   */\n          tag_55\n          jump\t// in\n        tag_125:\n            /* \"#utility.yul\":4113:4194   */\n          tag_46\n          jump\t// in\n        tag_124:\n            /* \"#utility.yul\":4104:4194   */\n          swap1\n          pop\n            /* \"#utility.yul\":4214:4219   */\n          dup1\n            /* \"#utility.yul\":4243:4249   */\n          dup4\n            /* \"#utility.yul\":4236:4241   */\n          dup3\n            /* \"#utility.yul\":4229:4250   */\n          mstore\n            /* \"#utility.yul\":4277:4281   */\n          0x20\n            /* \"#utility.yul\":4270:4275   */\n          dup3\n            /* \"#utility.yul\":4266:4282   */\n          add\n            /* \"#utility.yul\":4259:4282   */\n          swap1\n          pop\n            /* \"#utility.yul\":4330:4334   */\n          0x20\n            /* \"#utility.yul\":4322:4328   */\n          dup5\n            /* \"#utility.yul\":4318:4335   */\n          mul\n            /* \"#utility.yul\":4310:4316   */\n          dup4\n            /* \"#utility.yul\":4306:4336   */\n          add\n            /* \"#utility.yul\":4359:4362   */\n          dup6\n            /* \"#utility.yul\":4351:4357   */\n          dup2\n            /* \"#utility.yul\":4348:4363   */\n          gt\n            /* \"#utility.yul\":4345:4467   */\n          iszero\n          tag_126\n          jumpi\n            /* \"#utility.yul\":4378:4457   */\n          tag_127\n          tag_48\n          jump\t// in\n        tag_127:\n            /* \"#utility.yul\":4345:4467   */\n        tag_126:\n            /* \"#utility.yul\":4493:4499   */\n          dup4\n            /* \"#utility.yul\":4476:4707   */\n        tag_128:\n            /* \"#utility.yul\":4510:4516   */\n          dup2\n            /* \"#utility.yul\":4505:4508   */\n          dup2\n            /* \"#utility.yul\":4502:4517   */\n          lt\n            /* \"#utility.yul\":4476:4707   */\n          iszero\n          tag_130\n          jumpi\n            /* \"#utility.yul\":4585:4588   */\n          dup1\n            /* \"#utility.yul\":4614:4662   */\n          tag_131\n            /* \"#utility.yul\":4658:4661   */\n          dup9\n            /* \"#utility.yul\":4646:4656   */\n          dup3\n            /* \"#utility.yul\":4614:4662   */\n          tag_58\n          jump\t// in\n        tag_131:\n            /* \"#utility.yul\":4609:4612   */\n          dup5\n            /* \"#utility.yul\":4602:4663   */\n          mstore\n            /* \"#utility.yul\":4692:4696   */\n          0x20\n            /* \"#utility.yul\":4687:4690   */\n          dup5\n            /* \"#utility.yul\":4683:4697   */\n          add\n            /* \"#utility.yul\":4676:4697   */\n          swap4\n          pop\n            /* \"#utility.yul\":4552:4707   */\n          pop\n            /* \"#utility.yul\":4536:4540   */\n          0x20\n            /* \"#utility.yul\":4531:4534   */\n          dup2\n            /* \"#utility.yul\":4527:4541   */\n          add\n            /* \"#utility.yul\":4520:4541   */\n          swap1\n          pop\n            /* \"#utility.yul\":4476:4707   */\n          jump(tag_128)\n        tag_130:\n            /* \"#utility.yul\":4480:4501   */\n          pop\n            /* \"#utility.yul\":4094:4713   */\n          pop\n          pop\n            /* \"#utility.yul\":3981:4713   */\n          swap4\n          swap3\n          pop\n          pop\n          pop\n          jump\t// out\n            /* \"#utility.yul\":4736:5121   */\n        tag_60:\n            /* \"#utility.yul\":4818:4823   */\n          0x00\n            /* \"#utility.yul\":4867:4870   */\n          dup3\n            /* \"#utility.yul\":4860:4864   */\n          0x1f\n            /* \"#utility.yul\":4852:4858   */\n          dup4\n            /* \"#utility.yul\":4848:4865   */\n          add\n            /* \"#utility.yul\":4844:4871   */\n          slt\n            /* \"#utility.yul\":4834:4956   */\n          tag_133\n          jumpi\n            /* \"#utility.yul\":4875:4954   */\n          tag_134\n          tag_42\n          jump\t// in\n        tag_134:\n            /* \"#utility.yul\":4834:4956   */\n        tag_133:\n            /* \"#utility.yul\":4985:4991   */\n          dup2\n            /* \"#utility.yul\":4979:4992   */\n          mload\n            /* \"#utility.yul\":5010:5115   */\n          tag_135\n            /* \"#utility.yul\":5111:5114   */\n          dup5\n            /* \"#utility.yul\":5103:5109   */\n          dup3\n            /* \"#utility.yul\":5096:5100   */\n          0x20\n            /* \"#utility.yul\":5088:5094   */\n          dup7\n            /* \"#utility.yul\":5084:5101   */\n          add\n            /* \"#utility.yul\":5010:5115   */\n          tag_59\n          jump\t// in\n        tag_135:\n            /* \"#utility.yul\":5001:5115   */\n          swap2\n          pop\n            /* \"#utility.yul\":4824:5121   */\n          pop\n            /* \"#utility.yul\":4736:5121   */\n          swap3\n          swap2\n          pop\n          pop\n          jump\t// out\n            /* \"#utility.yul\":5127:6040   */\n        tag_2:\n            /* \"#utility.yul\":5256:5262   */\n          0x00\n            /* \"#utility.yul\":5264:5270   */\n          dup1\n            /* \"#utility.yul\":5313:5315   */\n          0x40\n            /* \"#utility.yul\":5301:5310   */\n          dup4\n            /* \"#utility.yul\":5292:5299   */\n          dup6\n            /* \"#utility.yul\":5288:5311   */\n          sub\n            /* \"#utility.yul\":5284:5316   */\n          slt\n            /* \"#utility.yul\":5281:5400   */\n          iszero\n          tag_137\n          jumpi\n            /* \"#utility.yul\":5319:5398   */\n          tag_138\n          tag_40\n          jump\t// in\n        tag_138:\n            /* \"#utility.yul\":5281:5400   */\n        tag_137:\n            /* \"#utility.yul\":5460:5461   */\n          0x00\n            /* \"#utility.yul\":5449:5458   */\n          dup4\n            /* \"#utility.yul\":5445:5462   */\n          add\n            /* \"#utility.yul\":5439:5463   */\n          mload\n            /* \"#utility.yul\":5490:5508   */\n          0xffffffffffffffff\n            /* \"#utility.yul\":5482:5488   */\n          dup2\n            /* \"#utility.yul\":5479:5509   */\n          gt\n            /* \"#utility.yul\":5476:5593   */\n          iszero\n          tag_139\n          jumpi\n            /* \"#utility.yul\":5512:5591   */\n          tag_140\n          tag_41\n          jump\t// in\n        tag_140:\n            /* \"#utility.yul\":5476:5593   */\n        tag_139:\n            /* \"#utility.yul\":5617:5706   */\n          tag_141\n            /* \"#utility.yul\":5698:5705   */\n          dup6\n            /* \"#utility.yul\":5689:5695   */\n          dup3\n            /* \"#utility.yul\":5678:5687   */\n          dup7\n            /* \"#utility.yul\":5674:5696   */\n          add\n            /* \"#utility.yul\":5617:5706   */\n          tag_54\n          jump\t// in\n        tag_141:\n            /* \"#utility.yul\":5607:5706   */\n          swap3\n          pop\n            /* \"#utility.yul\":5410:5716   */\n          pop\n            /* \"#utility.yul\":5776:5778   */\n          0x20\n            /* \"#utility.yul\":5765:5774   */\n          dup4\n            /* \"#utility.yul\":5761:5779   */\n          add\n            /* \"#utility.yul\":5755:5780   */\n          mload\n            /* \"#utility.yul\":5807:5825   */\n          0xffffffffffffffff\n            /* \"#utility.yul\":5799:5805   */\n          dup2\n            /* \"#utility.yul\":5796:5826   */\n          gt\n            /* \"#utility.yul\":5793:5910   */\n          iszero\n          tag_142\n          jumpi\n            /* \"#utility.yul\":5829:5908   */\n          tag_143\n          tag_41\n          jump\t// in\n        tag_143:\n            /* \"#utility.yul\":5793:5910   */\n        tag_142:\n            /* \"#utility.yul\":5934:6023   */\n          tag_144\n            /* \"#utility.yul\":6015:6022   */\n          dup6\n            /* \"#utility.yul\":6006:6012   */\n          dup3\n            /* \"#utility.yul\":5995:6004   */\n          dup7\n            /* \"#utility.yul\":5991:6013   */\n          add\n            /* \"#utility.yul\":5934:6023   */\n          tag_60\n          jump\t// in\n        tag_144:\n            /* \"#utility.yul\":5924:6023   */\n          swap2\n          pop\n            /* \"#utility.yul\":5726:6033   */\n          pop\n            /* \"#utility.yul\":5127:6040   */\n          swap3\n          pop\n          swap3\n          swap1\n          pop\n          jump\t// out\n            /* \"#utility.yul\":6046:6215   */\n        tag_61:\n            /* \"#utility.yul\":6130:6141   */\n          0x00\n            /* \"#utility.yul\":6164:6170   */\n          dup3\n            /* \"#utility.yul\":6159:6162   */\n          dup3\n            /* \"#utility.yul\":6152:6171   */\n          mstore\n            /* \"#utility.yul\":6204:6208   */\n          0x20\n            /* \"#utility.yul\":6199:6202   */\n          dup3\n            /* \"#utility.yul\":6195:6209   */\n          add\n            /* \"#utility.yul\":6180:6209   */\n          swap1\n          pop\n            /* \"#utility.yul\":6046:6215   */\n          swap3\n          swap2\n          pop\n          pop\n          jump\t// out\n            /* \"#utility.yul\":6221:6458   */\n        tag_62:\n            /* \"#utility.yul\":6361:6395   */\n          0x5061796d656e7453706c69747465723a2070617965657320616e642073686172\n            /* \"#utility.yul\":6357:6358   */\n          0x00\n            /* \"#utility.yul\":6349:6355   */\n          dup3\n            /* \"#utility.yul\":6345:6359   */\n          add\n            /* \"#utility.yul\":6338:6396   */\n          mstore\n            /* \"#utility.yul\":6430:6450   */\n          0x6573206c656e677468206d69736d617463680000000000000000000000000000\n            /* \"#utility.yul\":6425:6427   */\n          0x20\n            /* \"#utility.yul\":6417:6423   */\n          dup3\n            /* \"#utility.yul\":6413:6428   */\n          add\n            /* \"#utility.yul\":6406:6451   */\n          mstore\n            /* \"#utility.yul\":6221:6458   */\n          pop\n          jump\t// out\n            /* \"#utility.yul\":6464:6830   */\n        tag_63:\n            /* \"#utility.yul\":6606:6609   */\n          0x00\n            /* \"#utility.yul\":6627:6694   */\n          tag_148\n            /* \"#utility.yul\":6691:6693   */\n          0x32\n            /* \"#utility.yul\":6686:6689   */\n          dup4\n            /* \"#utility.yul\":6627:6694   */\n          tag_61\n          jump\t// in\n        tag_148:\n            /* \"#utility.yul\":6620:6694   */\n          swap2\n          pop\n            /* \"#utility.yul\":6703:6796   */\n          tag_149\n            /* \"#utility.yul\":6792:6795   */\n          dup3\n            /* \"#utility.yul\":6703:6796   */\n          tag_62\n          jump\t// in\n        tag_149:\n            /* \"#utility.yul\":6821:6823   */\n          0x40\n            /* \"#utility.yul\":6816:6819   */\n          dup3\n            /* \"#utility.yul\":6812:6824   */\n          add\n            /* \"#utility.yul\":6805:6824   */\n          swap1\n          pop\n            /* \"#utility.yul\":6464:6830   */\n          swap2\n          swap1\n          pop\n          jump\t// out\n            /* \"#utility.yul\":6836:7255   */\n        tag_7:\n            /* \"#utility.yul\":7002:7006   */\n          0x00\n            /* \"#utility.yul\":7040:7042   */\n          0x20\n            /* \"#utility.yul\":7029:7038   */\n          dup3\n            /* \"#utility.yul\":7025:7043   */\n          add\n            /* \"#utility.yul\":7017:7043   */\n          swap1\n          pop\n            /* \"#utility.yul\":7089:7098   */\n          dup2\n            /* \"#utility.yul\":7083:7087   */\n          dup2\n            /* \"#utility.yul\":7079:7099   */\n          sub\n            /* \"#utility.yul\":7075:7076   */\n          0x00\n            /* \"#utility.yul\":7064:7073   */\n          dup4\n            /* \"#utility.yul\":7060:7077   */\n          add\n            /* \"#utility.yul\":7053:7100   */\n          mstore\n            /* \"#utility.yul\":7117:7248   */\n          tag_151\n            /* \"#utility.yul\":7243:7247   */\n          dup2\n            /* \"#utility.yul\":7117:7248   */\n          tag_63\n          jump\t// in\n        tag_151:\n            /* \"#utility.yul\":7109:7248   */\n          swap1\n          pop\n            /* \"#utility.yul\":6836:7255   */\n          swap2\n          swap1\n          pop\n          jump\t// out\n            /* \"#utility.yul\":7261:7437   */\n        tag_64:\n            /* \"#utility.yul\":7401:7429   */\n          0x5061796d656e7453706c69747465723a206e6f20706179656573000000000000\n            /* \"#utility.yul\":7397:7398   */\n          0x00\n            /* \"#utility.yul\":7389:7395   */\n          dup3\n            /* \"#utility.yul\":7385:7399   */\n          add\n            /* \"#utility.yul\":7378:7430   */\n          mstore\n            /* \"#utility.yul\":7261:7437   */\n          pop\n          jump\t// out\n            /* \"#utility.yul\":7443:7809   */\n        tag_65:\n            /* \"#utility.yul\":7585:7588   */\n          0x00\n            /* \"#utility.yul\":7606:7673   */\n          tag_154\n            /* \"#utility.yul\":7670:7672   */\n          0x1a\n            /* \"#utility.yul\":7665:7668   */\n          dup4\n            /* \"#utility.yul\":7606:7673   */\n          tag_61\n          jump\t// in\n        tag_154:\n            /* \"#utility.yul\":7599:7673   */\n          swap2\n          pop\n            /* \"#utility.yul\":7682:7775   */\n          tag_155\n            /* \"#utility.yul\":7771:7774   */\n          dup3\n            /* \"#utility.yul\":7682:7775   */\n          tag_64\n          jump\t// in\n        tag_155:\n            /* \"#utility.yul\":7800:7802   */\n          0x20\n            /* \"#utility.yul\":7795:7798   */\n          dup3\n            /* \"#utility.yul\":7791:7803   */\n          add\n            /* \"#utility.yul\":7784:7803   */\n          swap1\n          pop\n            /* \"#utility.yul\":7443:7809   */\n          swap2\n          swap1\n          pop\n          jump\t// out\n            /* \"#utility.yul\":7815:8234   */\n        tag_10:\n            /* \"#utility.yul\":7981:7985   */\n          0x00\n            /* \"#utility.yul\":8019:8021   */\n          0x20\n            /* \"#utility.yul\":8008:8017   */\n          dup3\n            /* \"#utility.yul\":8004:8022   */\n          add\n            /* \"#utility.yul\":7996:8022   */\n          swap1\n          pop\n            /* \"#utility.yul\":8068:8077   */\n          dup2\n            /* \"#utility.yul\":8062:8066   */\n          dup2\n            /* \"#utility.yul\":8058:8078   */\n          sub\n            /* \"#utility.yul\":8054:8055   */\n          0x00\n            /* \"#utility.yul\":8043:8052   */\n          dup4\n            /* \"#utility.yul\":8039:8056   */\n          add\n            /* \"#utility.yul\":8032:8079   */\n          mstore\n            /* \"#utility.yul\":8096:8227   */\n          tag_157\n            /* \"#utility.yul\":8222:8226   */\n          dup2\n            /* \"#utility.yul\":8096:8227   */\n          tag_65\n          jump\t// in\n        tag_157:\n            /* \"#utility.yul\":8088:8227   */\n          swap1\n          pop\n            /* \"#utility.yul\":7815:8234   */\n          swap2\n          swap1\n          pop\n          jump\t// out\n            /* \"#utility.yul\":8240:8420   */\n        tag_17:\n            /* \"#utility.yul\":8288:8365   */\n          0x4e487b7100000000000000000000000000000000000000000000000000000000\n            /* \"#utility.yul\":8285:8286   */\n          0x00\n            /* \"#utility.yul\":8278:8366   */\n          mstore\n            /* \"#utility.yul\":8385:8389   */\n          0x32\n            /* \"#utility.yul\":8382:8383   */\n          0x04\n            /* \"#utility.yul\":8375:8390   */\n          mstore\n            /* \"#utility.yul\":8409:8413   */\n          0x24\n            /* \"#utility.yul\":8406:8407   */\n          0x00\n            /* \"#utility.yul\":8399:8414   */\n          revert\n            /* \"#utility.yul\":8426:8606   */\n        tag_66:\n            /* \"#utility.yul\":8474:8551   */\n          0x4e487b7100000000000000000000000000000000000000000000000000000000\n            /* \"#utility.yul\":8471:8472   */\n          0x00\n            /* \"#utility.yul\":8464:8552   */\n          mstore\n            /* \"#utility.yul\":8571:8575   */\n          0x11\n            /* \"#utility.yul\":8568:8569   */\n          0x04\n            /* \"#utility.yul\":8561:8576   */\n          mstore\n            /* \"#utility.yul\":8595:8599   */\n          0x24\n            /* \"#utility.yul\":8592:8593   */\n          0x00\n            /* \"#utility.yul\":8585:8600   */\n          revert\n            /* \"#utility.yul\":8612:8845   */\n        tag_22:\n            /* \"#utility.yul\":8651:8654   */\n          0x00\n            /* \"#utility.yul\":8674:8698   */\n          tag_161\n            /* \"#utility.yul\":8692:8697   */\n          dup3\n            /* \"#utility.yul\":8674:8698   */\n          tag_56\n          jump\t// in\n        tag_161:\n            /* \"#utility.yul\":8665:8698   */\n          swap2\n          pop\n            /* \"#utility.yul\":8720:8786   */\n          0xffffffffffffffffffffffffffffffffffffffffffffffffffffffffffffffff\n            /* \"#utility.yul\":8713:8718   */\n          dup3\n            /* \"#utility.yul\":8710:8787   */\n          sub\n            /* \"#utility.yul\":8707:8810   */\n          tag_162\n          jumpi\n            /* \"#utility.yul\":8790:8808   */\n          tag_163\n          tag_66\n          jump\t// in\n        tag_163:\n            /* \"#utility.yul\":8707:8810   */\n        tag_162:\n            /* \"#utility.yul\":8837:8838   */\n          0x01\n            /* \"#utility.yul\":8830:8835   */\n          dup3\n            /* \"#utility.yul\":8826:8839   */\n          add\n            /* \"#utility.yul\":8819:8839   */\n          swap1\n          pop\n            /* \"#utility.yul\":8612:8845   */\n          swap2\n          swap1\n          pop\n          jump\t// out\n            /* \"#utility.yul\":8851:9082   */\n        tag_67:\n            /* \"#utility.yul\":8991:9025   */\n          0x5061796d656e7453706c69747465723a206163636f756e742069732074686520\n            /* \"#utility.yul\":8987:8988   */\n          0x00\n            /* \"#utility.yul\":8979:8985   */\n          dup3\n            /* \"#utility.yul\":8975:8989   */\n          add\n            /* \"#utility.yul\":8968:9026   */\n          mstore\n            /* \"#utility.yul\":9060:9074   */\n          0x7a65726f20616464726573730000000000000000000000000000000000000000\n            /* \"#utility.yul\":9055:9057   */\n          0x20\n            /* \"#utility.yul\":9047:9053   */\n          dup3\n            /* \"#utility.yul\":9043:9058   */\n          add\n            /* \"#utility.yul\":9036:9075   */\n          mstore\n            /* \"#utility.yul\":8851:9082   */\n          pop\n          jump\t// out\n            /* \"#utility.yul\":9088:9454   */\n        tag_68:\n            /* \"#utility.yul\":9230:9233   */\n          0x00\n            /* \"#utility.yul\":9251:9318   */\n          tag_166\n            /* \"#utility.yul\":9315:9317   */\n          0x2c\n            /* \"#utility.yul\":9310:9313   */\n          dup4\n            /* \"#utility.yul\":9251:9318   */\n          tag_61\n          jump\t// in\n        tag_166:\n            /* \"#utility.yul\":9244:9318   */\n          swap2\n          pop\n            /* \"#utility.yul\":9327:9420   */\n          tag_167\n            /* \"#utility.yul\":9416:9419   */\n          dup3\n            /* \"#utility.yul\":9327:9420   */\n          tag_67\n          jump\t// in\n        tag_167:\n            /* \"#utility.yul\":9445:9447   */\n          0x40\n            /* \"#utility.yul\":9440:9443   */\n          dup3\n            /* \"#utility.yul\":9436:9448   */\n          add\n            /* \"#utility.yul\":9429:9448   */\n          swap1\n          pop\n            /* \"#utility.yul\":9088:9454   */\n          swap2\n          swap1\n          pop\n          jump\t// out\n            /* \"#utility.yul\":9460:9879   */\n        tag_27:\n            /* \"#utility.yul\":9626:9630   */\n          0x00\n            /* \"#utility.yul\":9664:9666   */\n          0x20\n            /* \"#utility.yul\":9653:9662   */\n          dup3\n            /* \"#utility.yul\":9649:9667   */\n          add\n            /* \"#utility.yul\":9641:9667   */\n          swap1\n          pop\n            /* \"#utility.yul\":9713:9722   */\n          dup2\n            /* \"#utility.yul\":9707:9711   */\n          dup2\n            /* \"#utility.yul\":9703:9723   */\n          sub\n            /* \"#utility.yul\":9699:9700   */\n          0x00\n            /* \"#utility.yul\":9688:9697   */\n          dup4\n            /* \"#utility.yul\":9684:9701   */\n          add\n            /* \"#utility.yul\":9677:9724   */\n          mstore\n            /* \"#utility.yul\":9741:9872   */\n          tag_169\n            /* \"#utility.yul\":9867:9871   */\n          dup2\n            /* \"#utility.yul\":9741:9872   */\n          tag_68\n          jump\t// in\n        tag_169:\n            /* \"#utility.yul\":9733:9872   */\n          swap1\n          pop\n            /* \"#utility.yul\":9460:9879   */\n          swap2\n          swap1\n          pop\n          jump\t// out\n            /* \"#utility.yul\":9885:10064   */\n        tag_69:\n            /* \"#utility.yul\":10025:10056   */\n          0x5061796d656e7453706c69747465723a20736861726573206172652030000000\n            /* \"#utility.yul\":10021:10022   */\n          0x00\n            /* \"#utility.yul\":10013:10019   */\n          dup3\n            /* \"#utility.yul\":10009:10023   */\n          add\n            /* \"#utility.yul\":10002:10057   */\n          mstore\n            /* \"#utility.yul\":9885:10064   */\n          pop\n          jump\t// out\n            /* \"#utility.yul\":10070:10436   */\n        tag_70:\n            /* \"#utility.yul\":10212:10215   */\n          0x00\n            /* \"#utility.yul\":10233:10300   */\n          tag_172\n            /* \"#utility.yul\":10297:10299   */\n          0x1d\n            /* \"#utility.yul\":10292:10295   */\n          dup4\n            /* \"#utility.yul\":10233:10300   */\n          tag_61\n          jump\t// in\n        tag_172:\n            /* \"#utility.yul\":10226:10300   */\n          swap2\n          pop\n            /* \"#utility.yul\":10309:10402   */\n          tag_173\n            /* \"#utility.yul\":10398:10401   */\n          dup3\n            /* \"#utility.yul\":10309:10402   */\n          tag_69\n          jump\t// in\n        tag_173:\n            /* \"#utility.yul\":10427:10429   */\n          0x20\n            /* \"#utility.yul\":10422:10425   */\n          dup3\n            /* \"#utility.yul\":10418:10430   */\n          add\n            /* \"#utility.yul\":10411:10430   */\n          swap1\n          pop\n            /* \"#utility.yul\":10070:10436   */\n          swap2\n          swap1\n          pop\n          jump\t// out\n            /* \"#utility.yul\":10442:10861   */\n        tag_30:\n            /* \"#utility.yul\":10608:10612   */\n          0x00\n            /* \"#utility.yul\":10646:10648   */\n          0x20\n            /* \"#utility.yul\":10635:10644   */\n          dup3\n            /* \"#utility.yul\":10631:10649   */\n          add\n            /* \"#utility.yul\":10623:10649   */\n          swap1\n          pop\n            /* \"#utility.yul\":10695:10704   */\n          dup2\n            /* \"#utility.yul\":10689:10693   */\n          dup2\n            /* \"#utility.yul\":10685:10705   */\n          sub\n            /* \"#utility.yul\":10681:10682   */\n          0x00\n            /* \"#utility.yul\":10670:10679   */\n          dup4\n            /* \"#utility.yul\":10666:10683   */\n          add\n            /* \"#utility.yul\":10659:10706   */\n          mstore\n            /* \"#utility.yul\":10723:10854   */\n          tag_175\n            /* \"#utility.yul\":10849:10853   */\n          dup2\n            /* \"#utility.yul\":10723:10854   */\n          tag_70\n          jump\t// in\n        tag_175:\n            /* \"#utility.yul\":10715:10854   */\n          swap1\n          pop\n            /* \"#utility.yul\":10442:10861   */\n          swap2\n          swap1\n          pop\n          jump\t// out\n            /* \"#utility.yul\":10867:11097   */\n        tag_71:\n            /* \"#utility.yul\":11007:11041   */\n          0x5061796d656e7453706c69747465723a206163636f756e7420616c7265616479\n            /* \"#utility.yul\":11003:11004   */\n          0x00\n            /* \"#utility.yul\":10995:11001   */\n          dup3\n            /* \"#utility.yul\":10991:11005   */\n          add\n            /* \"#utility.yul\":10984:11042   */\n          mstore\n            /* \"#utility.yul\":11076:11089   */\n          0x2068617320736861726573000000000000000000000000000000000000000000\n            /* \"#utility.yul\":11071:11073   */\n          0x20\n            /* \"#utility.yul\":11063:11069   */\n          dup3\n            /* \"#utility.yul\":11059:11074   */\n          add\n            /* \"#utility.yul\":11052:11090   */\n          mstore\n            /* \"#utility.yul\":10867:11097   */\n          pop\n          jump\t// out\n            /* \"#utility.yul\":11103:11469   */\n        tag_72:\n            /* \"#utility.yul\":11245:11248   */\n          0x00\n            /* \"#utility.yul\":11266:11333   */\n          tag_178\n            /* \"#utility.yul\":11330:11332   */\n          0x2b\n            /* \"#utility.yul\":11325:11328   */\n          dup4\n            /* \"#utility.yul\":11266:11333   */\n          tag_61\n          jump\t// in\n        tag_178:\n            /* \"#utility.yul\":11259:11333   */\n          swap2\n          pop\n            /* \"#utility.yul\":11342:11435   */\n          tag_179\n            /* \"#utility.yul\":11431:11434   */\n          dup3\n            /* \"#utility.yul\":11342:11435   */\n          tag_71\n          jump\t// in\n        tag_179:\n            /* \"#utility.yul\":11460:11462   */\n          0x40\n            /* \"#utility.yul\":11455:11458   */\n          dup3\n            /* \"#utility.yul\":11451:11463   */\n          add\n            /* \"#utility.yul\":11444:11463   */\n          swap1\n          pop\n            /* \"#utility.yul\":11103:11469   */\n          swap2\n          swap1\n          pop\n          jump\t// out\n            /* \"#utility.yul\":11475:11894   */\n        tag_33:\n            /* \"#utility.yul\":11641:11645   */\n          0x00\n            /* \"#utility.yul\":11679:11681   */\n          0x20\n            /* \"#utility.yul\":11668:11677   */\n          dup3\n            /* \"#utility.yul\":11664:11682   */\n          add\n            /* \"#utility.yul\":11656:11682   */\n          swap1\n          pop\n            /* \"#utility.yul\":11728:11737   */\n          dup2\n            /* \"#utility.yul\":11722:11726   */\n          dup2\n            /* \"#utility.yul\":11718:11738   */\n          sub\n            /* \"#utility.yul\":11714:11715   */\n          0x00\n            /* \"#utility.yul\":11703:11712   */\n          dup4\n            /* \"#utility.yul\":11699:11716   */\n          add\n            /* \"#utility.yul\":11692:11739   */\n          mstore\n            /* \"#utility.yul\":11756:11887   */\n          tag_181\n            /* \"#utility.yul\":11882:11886   */\n          dup2\n            /* \"#utility.yul\":11756:11887   */\n          tag_72\n          jump\t// in\n        tag_181:\n            /* \"#utility.yul\":11748:11887   */\n          swap1\n          pop\n            /* \"#utility.yul\":11475:11894   */\n          swap2\n          swap1\n          pop\n          jump\t// out\n            /* \"#utility.yul\":11900:12091   */\n        tag_36:\n            /* \"#utility.yul\":11940:11943   */\n          0x00\n            /* \"#utility.yul\":11959:11979   */\n          tag_183\n            /* \"#utility.yul\":11977:11978   */\n          dup3\n            /* \"#utility.yul\":11959:11979   */\n          tag_56\n          jump\t// in\n        tag_183:\n            /* \"#utility.yul\":11954:11979   */\n          swap2\n          pop\n            /* \"#utility.yul\":11993:12013   */\n          tag_184\n            /* \"#utility.yul\":12011:12012   */\n          dup4\n            /* \"#utility.yul\":11993:12013   */\n          tag_56\n          jump\t// in\n        tag_184:\n            /* \"#utility.yul\":11988:12013   */\n          swap3\n          pop\n            /* \"#utility.yul\":12036:12037   */\n          dup3\n            /* \"#utility.yul\":12033:12034   */\n          dup3\n            /* \"#utility.yul\":12029:12038   */\n          add\n            /* \"#utility.yul\":12022:12038   */\n          swap1\n          pop\n            /* \"#utility.yul\":12057:12060   */\n          dup1\n            /* \"#utility.yul\":12054:12055   */\n          dup3\n            /* \"#utility.yul\":12051:12061   */\n          gt\n            /* \"#utility.yul\":12048:12084   */\n          iszero\n          tag_185\n          jumpi\n            /* \"#utility.yul\":12064:12082   */\n          tag_186\n          tag_66\n          jump\t// in\n        tag_186:\n            /* \"#utility.yul\":12048:12084   */\n        tag_185:\n            /* \"#utility.yul\":11900:12091   */\n          swap3\n          swap2\n          pop\n          pop\n          jump\t// out\n            /* \"#utility.yul\":12097:12215   */\n        tag_73:\n            /* \"#utility.yul\":12184:12208   */\n          tag_188\n            /* \"#utility.yul\":12202:12207   */\n          dup2\n            /* \"#utility.yul\":12184:12208   */\n          tag_50\n          jump\t// in\n        tag_188:\n            /* \"#utility.yul\":12179:12182   */\n          dup3\n            /* \"#utility.yul\":12172:12209   */\n          mstore\n            /* \"#utility.yul\":12097:12215   */\n          pop\n          pop\n          jump\t// out\n            /* \"#utility.yul\":12221:12339   */\n        tag_74:\n            /* \"#utility.yul\":12308:12332   */\n          tag_190\n            /* \"#utility.yul\":12326:12331   */\n          dup2\n            /* \"#utility.yul\":12308:12332   */\n          tag_56\n          jump\t// in\n        tag_190:\n            /* \"#utility.yul\":12303:12306   */\n          dup3\n            /* \"#utility.yul\":12296:12333   */\n          mstore\n            /* \"#utility.yul\":12221:12339   */\n          pop\n          pop\n          jump\t// out\n            /* \"#utility.yul\":12345:12677   */\n        tag_38:\n            /* \"#utility.yul\":12466:12470   */\n          0x00\n            /* \"#utility.yul\":12504:12506   */\n          0x40\n            /* \"#utility.yul\":12493:12502   */\n          dup3\n            /* \"#utility.yul\":12489:12507   */\n          add\n            /* \"#utility.yul\":12481:12507   */\n          swap1\n          pop\n            /* \"#utility.yul\":12517:12588   */\n          tag_192\n            /* \"#utility.yul\":12585:12586   */\n          0x00\n            /* \"#utility.yul\":12574:12583   */\n          dup4\n            /* \"#utility.yul\":12570:12587   */\n          add\n            /* \"#utility.yul\":12561:12567   */\n          dup6\n            /* \"#utility.yul\":12517:12588   */\n          tag_73\n          jump\t// in\n        tag_192:\n            /* \"#utility.yul\":12598:12670   */\n          tag_193\n            /* \"#utility.yul\":12666:12668   */\n          0x20\n            /* \"#utility.yul\":12655:12664   */\n          dup4\n            /* \"#utility.yul\":12651:12669   */\n          add\n            /* \"#utility.yul\":12642:12648   */\n          dup5\n            /* \"#utility.yul\":12598:12670   */\n          tag_74\n          jump\t// in\n        tag_193:\n            /* \"#utility.yul\":12345:12677   */\n          swap4\n          swap3\n          pop\n          pop\n          pop\n          jump\t// out\n            /* \"@openzeppelin/contracts/finance/PaymentSplitter.sol\":1471:8571  contract PaymentSplitter is Context {... */\n        tag_23:\n          dataSize(sub_0)\n          dup1\n          dataOffset(sub_0)\n          0x00\n          codecopy\n          0x00\n          return\n        stop\n\n        sub_0: assembly {\n                /* \"@openzeppelin/contracts/finance/PaymentSplitter.sol\":1471:8571  contract PaymentSplitter is Context {... */\n              mstore(0x40, 0x80)\n              jumpi(tag_1, lt(calldatasize, 0x04))\n              shr(0xe0, calldataload(0x00))\n              dup1\n              0x9852595c\n              gt\n              tag_14\n              jumpi\n              dup1\n              0x9852595c\n              eq\n              tag_8\n              jumpi\n              dup1\n              0xa3f8eace\n              eq\n              tag_9\n              jumpi\n              dup1\n              0xc45ac050\n              eq\n              tag_10\n              jumpi\n              dup1\n              0xce7c2ac2\n              eq\n              tag_11\n              jumpi\n              dup1\n              0xd79779b2\n              eq\n              tag_12\n              jumpi\n              dup1\n              0xe33b7de3\n              eq\n              tag_13\n              jumpi\n              jump(tag_2)\n            tag_14:\n              dup1\n              0x19165587\n              eq\n              tag_3\n              jumpi\n              dup1\n              0x3a98ef39\n              eq\n              tag_4\n              jumpi\n              dup1\n              0x406072a9\n              eq\n              tag_5\n              jumpi\n              dup1\n              0x48b75044\n              eq\n              tag_6\n              jumpi\n              dup1\n              0x8b83209b\n              eq\n              tag_7\n              jumpi\n              jump(tag_2)\n            tag_1:\n              jumpi(tag_2, calldatasize)\n                /* \"@openzeppelin/contracts/finance/PaymentSplitter.sol\":3369:3409  PaymentReceived(_msgSender(), msg.value) */\n              0x6ef95f06320e7a25a04a175ca677b7052bdd97131872c2192525a629f51be770\n                /* \"@openzeppelin/contracts/finance/PaymentSplitter.sol\":3385:3397  _msgSender() */\n              tag_17\n                /* \"@openzeppelin/contracts/finance/PaymentSplitter.sol\":3385:3395  _msgSender */\n              tag_18\n                /* \"@openzeppelin/contracts/finance/PaymentSplitter.sol\":3385:3397  _msgSender() */\n              jump\t// in\n            tag_17:\n                /* \"@openzeppelin/contracts/finance/PaymentSplitter.sol\":3399:3408  msg.value */\n              callvalue\n                /* \"@openzeppelin/contracts/finance/PaymentSplitter.sol\":3369:3409  PaymentReceived(_msgSender(), msg.value) */\n              mload(0x40)\n              tag_19\n              swap3\n              swap2\n              swap1\n              tag_20\n              jump\t// in\n            tag_19:\n              mload(0x40)\n              dup1\n              swap2\n              sub\n              swap1\n              log1\n                /* \"@openzeppelin/contracts/finance/PaymentSplitter.sol\":1471:8571  contract PaymentSplitter is Context {... */\n              stop\n            tag_2:\n              0x00\n              dup1\n              revert\n                /* \"@openzeppelin/contracts/finance/PaymentSplitter.sol\":5815:6470  function release(address payable account) public virtual {... */\n            tag_3:\n              callvalue\n              dup1\n              iszero\n              tag_21\n              jumpi\n              0x00\n              dup1\n              revert\n            tag_21:\n              pop\n              tag_22\n              0x04\n              dup1\n              calldatasize\n              sub\n              dup2\n              add\n              swap1\n              tag_23\n              swap2\n              swap1\n              tag_24\n              jump\t// in\n            tag_23:\n              tag_25\n              jump\t// in\n            tag_22:\n              stop\n                /* \"@openzeppelin/contracts/finance/PaymentSplitter.sol\":3494:3583  function totalShares() public view returns (uint256) {... */\n            tag_4:\n              callvalue\n              dup1\n              iszero\n              tag_26\n              jumpi\n              0x00\n              dup1\n              revert\n            tag_26:\n              pop\n              tag_27\n              tag_28\n              jump\t// in\n            tag_27:\n              mload(0x40)\n              tag_29\n              swap2\n              swap1\n              tag_30\n              jump\t// in\n            tag_29:\n              mload(0x40)\n              dup1\n              swap2\n              sub\n              swap1\n              return\n                /* \"@openzeppelin/contracts/finance/PaymentSplitter.sol\":4586:4719  function released(IERC20 token, address account) public view returns (uint256) {... */\n            tag_5:\n              callvalue\n              dup1\n              iszero\n              tag_31\n              jumpi\n              0x00\n              dup1\n              revert\n            tag_31:\n              pop\n              tag_32\n              0x04\n              dup1\n              calldatasize\n              sub\n              dup2\n              add\n              swap1\n              tag_33\n              swap2\n              swap1\n              tag_34\n              jump\t// in\n            tag_33:\n              tag_35\n              jump\t// in\n            tag_32:\n              mload(0x40)\n              tag_36\n              swap2\n              swap1\n              tag_30\n              jump\t// in\n            tag_36:\n              mload(0x40)\n              dup1\n              swap2\n              sub\n              swap1\n              return\n                /* \"@openzeppelin/contracts/finance/PaymentSplitter.sol\":6731:7506  function release(IERC20 token, address account) public virtual {... */\n            tag_6:\n              callvalue\n              dup1\n              iszero\n              tag_37\n              jumpi\n              0x00\n              dup1\n              revert\n            tag_37:\n              pop\n              tag_38\n              0x04\n              dup1\n              calldatasize\n              sub\n              dup2\n              add\n              swap1\n              tag_39\n              swap2\n              swap1\n              tag_34\n              jump\t// in\n            tag_39:\n              tag_40\n              jump\t// in\n            tag_38:\n              stop\n                /* \"@openzeppelin/contracts/finance/PaymentSplitter.sol\":4805:4903  function payee(uint256 index) public view returns (address) {... */\n            tag_7:\n              callvalue\n              dup1\n              iszero\n              tag_41\n              jumpi\n              0x00\n              dup1\n              revert\n            tag_41:\n              pop\n              tag_42\n              0x04\n              dup1\n              calldatasize\n              sub\n              dup2\n              add\n              swap1\n              tag_43\n              swap2\n              swap1\n              tag_44\n              jump\t// in\n            tag_43:\n              tag_45\n              jump\t// in\n            tag_42:\n              mload(0x40)\n              tag_46\n              swap2\n              swap1\n              tag_47\n              jump\t// in\n            tag_46:\n              mload(0x40)\n              dup1\n              swap2\n              sub\n              swap1\n              return\n                /* \"@openzeppelin/contracts/finance/PaymentSplitter.sol\":4316:4423  function released(address account) public view returns (uint256) {... */\n            tag_8:\n              callvalue\n              dup1\n              iszero\n              tag_48\n              jumpi\n              0x00\n              dup1\n              revert\n            tag_48:\n              pop\n              tag_49\n              0x04\n              dup1\n              calldatasize\n              sub\n              dup2\n              add\n              swap1\n              tag_50\n              swap2\n              swap1\n              tag_51\n              jump\t// in\n            tag_50:\n              tag_52\n              jump\t// in\n            tag_49:\n              mload(0x40)\n              tag_53\n              swap2\n              swap1\n              tag_30\n              jump\t// in\n            tag_53:\n              mload(0x40)\n              dup1\n              swap2\n              sub\n              swap1\n              return\n                /* \"@openzeppelin/contracts/finance/PaymentSplitter.sol\":4988:5210  function releasable(address account) public view returns (uint256) {... */\n            tag_9:\n              callvalue\n              dup1\n              iszero\n              tag_54\n              jumpi\n              0x00\n              dup1\n              revert\n            tag_54:\n              pop\n              tag_55\n              0x04\n              dup1\n              calldatasize\n              sub\n              dup2\n              add\n              swap1\n              tag_56\n              swap2\n              swap1\n              tag_51\n              jump\t// in\n            tag_56:\n              tag_57\n              jump\t// in\n            tag_55:\n              mload(0x40)\n              tag_58\n              swap2\n              swap1\n              tag_30\n              jump\t// in\n            tag_58:\n              mload(0x40)\n              dup1\n              swap2\n              sub\n              swap1\n              return\n                /* \"@openzeppelin/contracts/finance/PaymentSplitter.sol\":5364:5621  function releasable(IERC20 token, address account) public view returns (uint256) {... */\n            tag_10:\n              callvalue\n              dup1\n              iszero\n              tag_59\n              jumpi\n              0x00\n              dup1\n              revert\n            tag_59:\n              pop\n              tag_60\n              0x04\n              dup1\n              calldatasize\n              sub\n              dup2\n              add\n              swap1\n              tag_61\n              swap2\n              swap1\n              tag_34\n              jump\t// in\n            tag_61:\n              tag_62\n              jump\t// in\n            tag_60:\n              mload(0x40)\n              tag_63\n              swap2\n              swap1\n              tag_30\n              jump\t// in\n            tag_63:\n              mload(0x40)\n              dup1\n              swap2\n              sub\n              swap1\n              return\n                /* \"@openzeppelin/contracts/finance/PaymentSplitter.sol\":4119:4222  function shares(address account) public view returns (uint256) {... */\n            tag_11:\n              callvalue\n              dup1\n              iszero\n              tag_64\n              jumpi\n              0x00\n              dup1\n              revert\n            tag_64:\n              pop\n              tag_65\n              0x04\n              dup1\n              calldatasize\n              sub\n              dup2\n              add\n              swap1\n              tag_66\n              swap2\n              swap1\n              tag_51\n              jump\t// in\n            tag_66:\n              tag_67\n              jump\t// in\n            tag_65:\n              mload(0x40)\n              tag_68\n              swap2\n              swap1\n              tag_30\n              jump\t// in\n            tag_68:\n              mload(0x40)\n              dup1\n              swap2\n              sub\n              swap1\n              return\n                /* \"@openzeppelin/contracts/finance/PaymentSplitter.sol\":3916:4033  function totalReleased(IERC20 token) public view returns (uint256) {... */\n            tag_12:\n              callvalue\n              dup1\n              iszero\n              tag_69\n              jumpi\n              0x00\n              dup1\n              revert\n            tag_69:\n              pop\n              tag_70\n              0x04\n              dup1\n              calldatasize\n              sub\n              dup2\n              add\n              swap1\n              tag_71\n              swap2\n              swap1\n              tag_72\n              jump\t// in\n            tag_71:\n              tag_73\n              jump\t// in\n            tag_70:\n              mload(0x40)\n              tag_74\n              swap2\n              swap1\n              tag_30\n              jump\t// in\n            tag_74:\n              mload(0x40)\n              dup1\n              swap2\n              sub\n              swap1\n              return\n                /* \"@openzeppelin/contracts/finance/PaymentSplitter.sol\":3672:3765  function totalReleased() public view returns (uint256) {... */\n            tag_13:\n              callvalue\n              dup1\n              iszero\n              tag_75\n              jumpi\n              0x00\n              dup1\n              revert\n            tag_75:\n              pop\n              tag_76\n              tag_77\n              jump\t// in\n            tag_76:\n              mload(0x40)\n              tag_78\n              swap2\n              swap1\n              tag_30\n              jump\t// in\n            tag_78:\n              mload(0x40)\n              dup1\n              swap2\n              sub\n              swap1\n              return\n                /* \"@openzeppelin/contracts/utils/Context.sol\":656:752  function _msgSender() internal view virtual returns (address) {... */\n            tag_18:\n                /* \"@openzeppelin/contracts/utils/Context.sol\":709:716  address */\n              0x00\n                /* \"@openzeppelin/contracts/utils/Context.sol\":735:745  msg.sender */\n              caller\n                /* \"@openzeppelin/contracts/utils/Context.sol\":728:745  return msg.sender */\n              swap1\n              pop\n                /* \"@openzeppelin/contracts/utils/Context.sol\":656:752  function _msgSender() internal view virtual returns (address) {... */\n              swap1\n              jump\t// out\n                /* \"@openzeppelin/contracts/finance/PaymentSplitter.sol\":5815:6470  function release(address payable account) public virtual {... */\n            tag_25:\n                /* \"@openzeppelin/contracts/finance/PaymentSplitter.sol\":5909:5910  0 */\n              0x00\n                /* \"@openzeppelin/contracts/finance/PaymentSplitter.sol\":5890:5897  _shares */\n              0x02\n                /* \"@openzeppelin/contracts/finance/PaymentSplitter.sol\":5890:5906  _shares[account] */\n              0x00\n                /* \"@openzeppelin/contracts/finance/PaymentSplitter.sol\":5898:5905  account */\n              dup4\n                /* \"@openzeppelin/contracts/finance/PaymentSplitter.sol\":5890:5906  _shares[account] */\n              0xffffffffffffffffffffffffffffffffffffffff\n              and\n              0xffffffffffffffffffffffffffffffffffffffff\n              and\n              dup2\n              mstore\n              0x20\n              add\n              swap1\n              dup2\n              mstore\n              0x20\n              add\n              0x00\n              keccak256\n              sload\n                /* \"@openzeppelin/contracts/finance/PaymentSplitter.sol\":5890:5910  _shares[account] > 0 */\n              gt\n                /* \"@openzeppelin/contracts/finance/PaymentSplitter.sol\":5882:5953  require(_shares[account] > 0, \"PaymentSplitter: account has no shares\") */\n              tag_81\n              jumpi\n              mload(0x40)\n              0x08c379a000000000000000000000000000000000000000000000000000000000\n              dup2\n              mstore\n              0x04\n              add\n              tag_82\n              swap1\n              tag_83\n              jump\t// in\n            tag_82:\n              mload(0x40)\n              dup1\n              swap2\n              sub\n              swap1\n              revert\n            tag_81:\n                /* \"@openzeppelin/contracts/finance/PaymentSplitter.sol\":5964:5979  uint256 payment */\n              0x00\n                /* \"@openzeppelin/contracts/finance/PaymentSplitter.sol\":5982:6001  releasable(account) */\n              tag_84\n                /* \"@openzeppelin/contracts/finance/PaymentSplitter.sol\":5993:6000  account */\n              dup3\n                /* \"@openzeppelin/contracts/finance/PaymentSplitter.sol\":5982:5992  releasable */\n              tag_57\n                /* \"@openzeppelin/contracts/finance/PaymentSplitter.sol\":5982:6001  releasable(account) */\n              jump\t// in\n            tag_84:\n                /* \"@openzeppelin/contracts/finance/PaymentSplitter.sol\":5964:6001  uint256 payment = releasable(account) */\n              swap1\n              pop\n                /* \"@openzeppelin/contracts/finance/PaymentSplitter.sol\":6031:6032  0 */\n              0x00\n                /* \"@openzeppelin/contracts/finance/PaymentSplitter.sol\":6020:6027  payment */\n              dup2\n                /* \"@openzeppelin/contracts/finance/PaymentSplitter.sol\":6020:6032  payment != 0 */\n              sub\n                /* \"@openzeppelin/contracts/finance/PaymentSplitter.sol\":6012:6080  require(payment != 0, \"PaymentSplitter: account is not due payment\") */\n              tag_85\n              jumpi\n              mload(0x40)\n              0x08c379a000000000000000000000000000000000000000000000000000000000\n              dup2\n              mstore\n              0x04\n              add\n              tag_86\n              swap1\n              tag_87\n              jump\t// in\n            tag_86:\n              mload(0x40)\n              dup1\n              swap2\n              sub\n              swap1\n              revert\n            tag_85:\n                /* \"@openzeppelin/contracts/finance/PaymentSplitter.sol\":6289:6296  payment */\n              dup1\n                /* \"@openzeppelin/contracts/finance/PaymentSplitter.sol\":6271:6285  _totalReleased */\n              0x01\n              0x00\n                /* \"@openzeppelin/contracts/finance/PaymentSplitter.sol\":6271:6296  _totalReleased += payment */\n              dup3\n              dup3\n              sload\n              tag_88\n              swap2\n              swap1\n              tag_89\n              jump\t// in\n            tag_88:\n              swap3\n              pop\n              pop\n              dup2\n              swap1\n              sstore\n              pop\n                /* \"@openzeppelin/contracts/finance/PaymentSplitter.sol\":6352:6359  payment */\n              dup1\n                /* \"@openzeppelin/contracts/finance/PaymentSplitter.sol\":6330:6339  _released */\n              0x03\n                /* \"@openzeppelin/contracts/finance/PaymentSplitter.sol\":6330:6348  _released[account] */\n              0x00\n                /* \"@openzeppelin/contracts/finance/PaymentSplitter.sol\":6340:6347  account */\n              dup5\n                /* \"@openzeppelin/contracts/finance/PaymentSplitter.sol\":6330:6348  _released[account] */\n              0xffffffffffffffffffffffffffffffffffffffff\n              and\n              0xffffffffffffffffffffffffffffffffffffffff\n              and\n              dup2\n              mstore\n              0x20\n              add\n              swap1\n              dup2\n              mstore\n              0x20\n              add\n              0x00\n              keccak256\n              0x00\n                /* \"@openzeppelin/contracts/finance/PaymentSplitter.sol\":6330:6359  _released[account] += payment */\n              dup3\n              dup3\n              sload\n              add\n              swap3\n              pop\n              pop\n              dup2\n              swap1\n              sstore\n              pop\n                /* \"@openzeppelin/contracts/finance/PaymentSplitter.sol\":6380:6415  Address.sendValue(account, payment) */\n              tag_90\n                /* \"@openzeppelin/contracts/finance/PaymentSplitter.sol\":6398:6405  account */\n              dup3\n                /* \"@openzeppelin/contracts/finance/PaymentSplitter.sol\":6407:6414  payment */\n              dup3\n                /* \"@openzeppelin/contracts/finance/PaymentSplitter.sol\":6380:6397  Address.sendValue */\n              tag_91\n                /* \"@openzeppelin/contracts/finance/PaymentSplitter.sol\":6380:6415  Address.sendValue(account, payment) */\n              jump\t// in\n            tag_90:\n                /* \"@openzeppelin/contracts/finance/PaymentSplitter.sol\":6430:6463  PaymentReleased(account, payment) */\n              0xdf20fd1e76bc69d672e4814fafb2c449bba3a5369d8359adf9e05e6fde87b056\n                /* \"@openzeppelin/contracts/finance/PaymentSplitter.sol\":6446:6453  account */\n              dup3\n                /* \"@openzeppelin/contracts/finance/PaymentSplitter.sol\":6455:6462  payment */\n              dup3\n                /* \"@openzeppelin/contracts/finance/PaymentSplitter.sol\":6430:6463  PaymentReleased(account, payment) */\n              mload(0x40)\n              tag_92\n              swap3\n              swap2\n              swap1\n              tag_93\n              jump\t// in\n            tag_92:\n              mload(0x40)\n              dup1\n              swap2\n              sub\n              swap1\n              log1\n                /* \"@openzeppelin/contracts/finance/PaymentSplitter.sol\":5872:6470  {... */\n              pop\n                /* \"@openzeppelin/contracts/finance/PaymentSplitter.sol\":5815:6470  function release(address payable account) public virtual {... */\n              pop\n              jump\t// out\n                /* \"@openzeppelin/contracts/finance/PaymentSplitter.sol\":3494:3583  function totalShares() public view returns (uint256) {... */\n            tag_28:\n                /* \"@openzeppelin/contracts/finance/PaymentSplitter.sol\":3538:3545  uint256 */\n              0x00\n                /* \"@openzeppelin/contracts/finance/PaymentSplitter.sol\":3564:3576  _totalShares */\n              dup1\n              sload\n                /* \"@openzeppelin/contracts/finance/PaymentSplitter.sol\":3557:3576  return _totalShares */\n              swap1\n              pop\n                /* \"@openzeppelin/contracts/finance/PaymentSplitter.sol\":3494:3583  function totalShares() public view returns (uint256) {... */\n              swap1\n              jump\t// out\n                /* \"@openzeppelin/contracts/finance/PaymentSplitter.sol\":4586:4719  function released(IERC20 token, address account) public view returns (uint256) {... */\n            tag_35:\n                /* \"@openzeppelin/contracts/finance/PaymentSplitter.sol\":4656:4663  uint256 */\n              0x00\n                /* \"@openzeppelin/contracts/finance/PaymentSplitter.sol\":4682:4696  _erc20Released */\n              0x06\n                /* \"@openzeppelin/contracts/finance/PaymentSplitter.sol\":4682:4703  _erc20Released[token] */\n              0x00\n                /* \"@openzeppelin/contracts/finance/PaymentSplitter.sol\":4697:4702  token */\n              dup5\n                /* \"@openzeppelin/contracts/finance/PaymentSplitter.sol\":4682:4703  _erc20Released[token] */\n              0xffffffffffffffffffffffffffffffffffffffff\n              and\n              0xffffffffffffffffffffffffffffffffffffffff\n              and\n              dup2\n              mstore\n              0x20\n              add\n              swap1\n              dup2\n              mstore\n              0x20\n              add\n              0x00\n              keccak256\n                /* \"@openzeppelin/contracts/finance/PaymentSplitter.sol\":4682:4712  _erc20Released[token][account] */\n              0x00\n                /* \"@openzeppelin/contracts/finance/PaymentSplitter.sol\":4704:4711  account */\n              dup4\n                /* \"@openzeppelin/contracts/finance/PaymentSplitter.sol\":4682:4712  _erc20Released[token][account] */\n              0xffffffffffffffffffffffffffffffffffffffff\n              and\n              0xffffffffffffffffffffffffffffffffffffffff\n              and\n              dup2\n              mstore\n              0x20\n              add\n              swap1\n              dup2\n              mstore\n              0x20\n              add\n              0x00\n              keccak256\n              sload\n                /* \"@openzeppelin/contracts/finance/PaymentSplitter.sol\":4675:4712  return _erc20Released[token][account] */\n              swap1\n              pop\n                /* \"@openzeppelin/contracts/finance/PaymentSplitter.sol\":4586:4719  function released(IERC20 token, address account) public view returns (uint256) {... */\n              swap3\n              swap2\n              pop\n              pop\n              jump\t// out\n                /* \"@openzeppelin/contracts/finance/PaymentSplitter.sol\":6731:7506  function release(IERC20 token, address account) public virtual {... */\n            tag_40:\n                /* \"@openzeppelin/contracts/finance/PaymentSplitter.sol\":6831:6832  0 */\n              0x00\n                /* \"@openzeppelin/contracts/finance/PaymentSplitter.sol\":6812:6819  _shares */\n              0x02\n                /* \"@openzeppelin/contracts/finance/PaymentSplitter.sol\":6812:6828  _shares[account] */\n              0x00\n                /* \"@openzeppelin/contracts/finance/PaymentSplitter.sol\":6820:6827  account */\n              dup4\n                /* \"@openzeppelin/contracts/finance/PaymentSplitter.sol\":6812:6828  _shares[account] */\n              0xffffffffffffffffffffffffffffffffffffffff\n              and\n              0xffffffffffffffffffffffffffffffffffffffff\n              and\n              dup2\n              mstore\n              0x20\n              add\n              swap1\n              dup2\n              mstore\n              0x20\n              add\n              0x00\n              keccak256\n              sload\n                /* \"@openzeppelin/contracts/finance/PaymentSplitter.sol\":6812:6832  _shares[account] > 0 */\n              gt\n                /* \"@openzeppelin/contracts/finance/PaymentSplitter.sol\":6804:6875  require(_shares[account] > 0, \"PaymentSplitter: account has no shares\") */\n              tag_97\n              jumpi\n              mload(0x40)\n              0x08c379a000000000000000000000000000000000000000000000000000000000\n              dup2\n              mstore\n              0x04\n              add\n              tag_98\n              swap1\n              tag_83\n              jump\t// in\n            tag_98:\n              mload(0x40)\n              dup1\n              swap2\n              sub\n              swap1\n              revert\n            tag_97:\n                /* \"@openzeppelin/contracts/finance/PaymentSplitter.sol\":6886:6901  uint256 payment */\n              0x00\n                /* \"@openzeppelin/contracts/finance/PaymentSplitter.sol\":6904:6930  releasable(token, account) */\n              tag_99\n                /* \"@openzeppelin/contracts/finance/PaymentSplitter.sol\":6915:6920  token */\n              dup4\n                /* \"@openzeppelin/contracts/finance/PaymentSplitter.sol\":6922:6929  account */\n              dup4\n                /* \"@openzeppelin/contracts/finance/PaymentSplitter.sol\":6904:6914  releasable */\n              tag_62\n                /* \"@openzeppelin/contracts/finance/PaymentSplitter.sol\":6904:6930  releasable(token, account) */\n              jump\t// in\n            tag_99:\n                /* \"@openzeppelin/contracts/finance/PaymentSplitter.sol\":6886:6930  uint256 payment = releasable(token, account) */\n              swap1\n              pop\n                /* \"@openzeppelin/contracts/finance/PaymentSplitter.sol\":6960:6961  0 */\n              0x00\n                /* \"@openzeppelin/contracts/finance/PaymentSplitter.sol\":6949:6956  payment */\n              dup2\n                /* \"@openzeppelin/contracts/finance/PaymentSplitter.sol\":6949:6961  payment != 0 */\n              sub\n                /* \"@openzeppelin/contracts/finance/PaymentSplitter.sol\":6941:7009  require(payment != 0, \"PaymentSplitter: account is not due payment\") */\n              tag_100\n              jumpi\n              mload(0x40)\n              0x08c379a000000000000000000000000000000000000000000000000000000000\n              dup2\n              mstore\n              0x04\n              add\n              tag_101\n              swap1\n              tag_87\n              jump\t// in\n            tag_101:\n              mload(0x40)\n              dup1\n              swap2\n              sub\n              swap1\n              revert\n            tag_100:\n                /* \"@openzeppelin/contracts/finance/PaymentSplitter.sol\":7289:7296  payment */\n              dup1\n                /* \"@openzeppelin/contracts/finance/PaymentSplitter.sol\":7259:7278  _erc20TotalReleased */\n              0x05\n                /* \"@openzeppelin/contracts/finance/PaymentSplitter.sol\":7259:7285  _erc20TotalReleased[token] */\n              0x00\n                /* \"@openzeppelin/contracts/finance/PaymentSplitter.sol\":7279:7284  token */\n              dup6\n                /* \"@openzeppelin/contracts/finance/PaymentSplitter.sol\":7259:7285  _erc20TotalReleased[token] */\n              0xffffffffffffffffffffffffffffffffffffffff\n              and\n              0xffffffffffffffffffffffffffffffffffffffff\n              and\n              dup2\n              mstore\n              0x20\n              add\n              swap1\n              dup2\n              mstore\n              0x20\n              add\n              0x00\n              keccak256\n              0x00\n                /* \"@openzeppelin/contracts/finance/PaymentSplitter.sol\":7259:7296  _erc20TotalReleased[token] += payment */\n              dup3\n              dup3\n              sload\n              tag_102\n              swap2\n              swap1\n              tag_89\n              jump\t// in\n            tag_102:\n              swap3\n              pop\n              pop\n              dup2\n              swap1\n              sstore\n              pop\n                /* \"@openzeppelin/contracts/finance/PaymentSplitter.sol\":7364:7371  payment */\n              dup1\n                /* \"@openzeppelin/contracts/finance/PaymentSplitter.sol\":7330:7344  _erc20Released */\n              0x06\n                /* \"@openzeppelin/contracts/finance/PaymentSplitter.sol\":7330:7351  _erc20Released[token] */\n              0x00\n                /* \"@openzeppelin/contracts/finance/PaymentSplitter.sol\":7345:7350  token */\n              dup6\n                /* \"@openzeppelin/contracts/finance/PaymentSplitter.sol\":7330:7351  _erc20Released[token] */\n              0xffffffffffffffffffffffffffffffffffffffff\n              and\n              0xffffffffffffffffffffffffffffffffffffffff\n              and\n              dup2\n              mstore\n              0x20\n              add\n              swap1\n              dup2\n              mstore\n              0x20\n              add\n              0x00\n              keccak256\n                /* \"@openzeppelin/contracts/finance/PaymentSplitter.sol\":7330:7360  _erc20Released[token][account] */\n              0x00\n                /* \"@openzeppelin/contracts/finance/PaymentSplitter.sol\":7352:7359  account */\n              dup5\n                /* \"@openzeppelin/contracts/finance/PaymentSplitter.sol\":7330:7360  _erc20Released[token][account] */\n              0xffffffffffffffffffffffffffffffffffffffff\n              and\n              0xffffffffffffffffffffffffffffffffffffffff\n              and\n              dup2\n              mstore\n              0x20\n              add\n              swap1\n              dup2\n              mstore\n              0x20\n              add\n              0x00\n              keccak256\n              0x00\n                /* \"@openzeppelin/contracts/finance/PaymentSplitter.sol\":7330:7371  _erc20Released[token][account] += payment */\n              dup3\n              dup3\n              sload\n              add\n              swap3\n              pop\n              pop\n              dup2\n              swap1\n              sstore\n              pop\n                /* \"@openzeppelin/contracts/finance/PaymentSplitter.sol\":7392:7439  SafeERC20.safeTransfer(token, account, payment) */\n              tag_103\n                /* \"@openzeppelin/contracts/finance/PaymentSplitter.sol\":7415:7420  token */\n              dup4\n                /* \"@openzeppelin/contracts/finance/PaymentSplitter.sol\":7422:7429  account */\n              dup4\n                /* \"@openzeppelin/contracts/finance/PaymentSplitter.sol\":7431:7438  payment */\n              dup4\n                /* \"@openzeppelin/contracts/finance/PaymentSplitter.sol\":7392:7414  SafeERC20.safeTransfer */\n              tag_104\n                /* \"@openzeppelin/contracts/finance/PaymentSplitter.sol\":7392:7439  SafeERC20.safeTransfer(token, account, payment) */\n              jump\t// in\n            tag_103:\n                /* \"@openzeppelin/contracts/finance/PaymentSplitter.sol\":7475:7480  token */\n              dup3\n                /* \"@openzeppelin/contracts/finance/PaymentSplitter.sol\":7454:7499  ERC20PaymentReleased(token, account, payment) */\n              0xffffffffffffffffffffffffffffffffffffffff\n              and\n              0x3be5b7a71e84ed12875d241991c70855ac5817d847039e17a9d895c1ceb0f18a\n                /* \"@openzeppelin/contracts/finance/PaymentSplitter.sol\":7482:7489  account */\n              dup4\n                /* \"@openzeppelin/contracts/finance/PaymentSplitter.sol\":7491:7498  payment */\n              dup4\n                /* \"@openzeppelin/contracts/finance/PaymentSplitter.sol\":7454:7499  ERC20PaymentReleased(token, account, payment) */\n              mload(0x40)\n              tag_105\n              swap3\n              swap2\n              swap1\n              tag_20\n              jump\t// in\n            tag_105:\n              mload(0x40)\n              dup1\n              swap2\n              sub\n              swap1\n              log2\n                /* \"@openzeppelin/contracts/finance/PaymentSplitter.sol\":6794:7506  {... */\n              pop\n                /* \"@openzeppelin/contracts/finance/PaymentSplitter.sol\":6731:7506  function release(IERC20 token, address account) public virtual {... */\n              pop\n              pop\n              jump\t// out\n                /* \"@openzeppelin/contracts/finance/PaymentSplitter.sol\":4805:4903  function payee(uint256 index) public view returns (address) {... */\n            tag_45:\n                /* \"@openzeppelin/contracts/finance/PaymentSplitter.sol\":4856:4863  address */\n              0x00\n                /* \"@openzeppelin/contracts/finance/PaymentSplitter.sol\":4882:4889  _payees */\n              0x04\n                /* \"@openzeppelin/contracts/finance/PaymentSplitter.sol\":4890:4895  index */\n              dup3\n                /* \"@openzeppelin/contracts/finance/PaymentSplitter.sol\":4882:4896  _payees[index] */\n              dup2\n              sload\n              dup2\n              lt\n              tag_107\n              jumpi\n              tag_108\n              tag_109\n              jump\t// in\n            tag_108:\n            tag_107:\n              swap1\n              0x00\n              mstore\n              keccak256(0x00, 0x20)\n              add\n              0x00\n              swap1\n              sload\n              swap1\n              0x0100\n              exp\n              swap1\n              div\n              0xffffffffffffffffffffffffffffffffffffffff\n              and\n                /* \"@openzeppelin/contracts/finance/PaymentSplitter.sol\":4875:4896  return _payees[index] */\n              swap1\n              pop\n                /* \"@openzeppelin/contracts/finance/PaymentSplitter.sol\":4805:4903  function payee(uint256 index) public view returns (address) {... */\n              swap2\n              swap1\n              pop\n              jump\t// out\n                /* \"@openzeppelin/contracts/finance/PaymentSplitter.sol\":4316:4423  function released(address account) public view returns (uint256) {... */\n            tag_52:\n                /* \"@openzeppelin/contracts/finance/PaymentSplitter.sol\":4372:4379  uint256 */\n              0x00\n                /* \"@openzeppelin/contracts/finance/PaymentSplitter.sol\":4398:4407  _released */\n              0x03\n                /* \"@openzeppelin/contracts/finance/PaymentSplitter.sol\":4398:4416  _released[account] */\n              0x00\n                /* \"@openzeppelin/contracts/finance/PaymentSplitter.sol\":4408:4415  account */\n              dup4\n                /* \"@openzeppelin/contracts/finance/PaymentSplitter.sol\":4398:4416  _released[account] */\n              0xffffffffffffffffffffffffffffffffffffffff\n              and\n              0xffffffffffffffffffffffffffffffffffffffff\n              and\n              dup2\n              mstore\n              0x20\n              add\n              swap1\n              dup2\n              mstore\n              0x20\n              add\n              0x00\n              keccak256\n              sload\n                /* \"@openzeppelin/contracts/finance/PaymentSplitter.sol\":4391:4416  return _released[account] */\n              swap1\n              pop\n                /* \"@openzeppelin/contracts/finance/PaymentSplitter.sol\":4316:4423  function released(address account) public view returns (uint256) {... */\n              swap2\n              swap1\n              pop\n              jump\t// out\n                /* \"@openzeppelin/contracts/finance/PaymentSplitter.sol\":4988:5210  function releasable(address account) public view returns (uint256) {... */\n            tag_57:\n                /* \"@openzeppelin/contracts/finance/PaymentSplitter.sol\":5046:5053  uint256 */\n              0x00\n                /* \"@openzeppelin/contracts/finance/PaymentSplitter.sol\":5065:5086  uint256 totalReceived */\n              dup1\n                /* \"@openzeppelin/contracts/finance/PaymentSplitter.sol\":5113:5128  totalReleased() */\n              tag_113\n                /* \"@openzeppelin/contracts/finance/PaymentSplitter.sol\":5113:5126  totalReleased */\n              tag_77\n                /* \"@openzeppelin/contracts/finance/PaymentSplitter.sol\":5113:5128  totalReleased() */\n              jump\t// in\n            tag_113:\n                /* \"@openzeppelin/contracts/finance/PaymentSplitter.sol\":5089:5110  address(this).balance */\n              selfbalance\n                /* \"@openzeppelin/contracts/finance/PaymentSplitter.sol\":5089:5128  address(this).balance + totalReleased() */\n              tag_114\n              swap2\n              swap1\n              tag_89\n              jump\t// in\n            tag_114:\n                /* \"@openzeppelin/contracts/finance/PaymentSplitter.sol\":5065:5128  uint256 totalReceived = address(this).balance + totalReleased() */\n              swap1\n              pop\n                /* \"@openzeppelin/contracts/finance/PaymentSplitter.sol\":5145:5203  _pendingPayment(account, totalReceived, released(account)) */\n              tag_115\n                /* \"@openzeppelin/contracts/finance/PaymentSplitter.sol\":5161:5168  account */\n              dup4\n                /* \"@openzeppelin/contracts/finance/PaymentSplitter.sol\":5170:5183  totalReceived */\n              dup3\n                /* \"@openzeppelin/contracts/finance/PaymentSplitter.sol\":5185:5202  released(account) */\n              tag_116\n                /* \"@openzeppelin/contracts/finance/PaymentSplitter.sol\":5194:5201  account */\n              dup7\n                /* \"@openzeppelin/contracts/finance/PaymentSplitter.sol\":5185:5193  released */\n              tag_52\n                /* \"@openzeppelin/contracts/finance/PaymentSplitter.sol\":5185:5202  released(account) */\n              jump\t// in\n            tag_116:\n                /* \"@openzeppelin/contracts/finance/PaymentSplitter.sol\":5145:5160  _pendingPayment */\n              tag_117\n                /* \"@openzeppelin/contracts/finance/PaymentSplitter.sol\":5145:5203  _pendingPayment(account, totalReceived, released(account)) */\n              jump\t// in\n            tag_115:\n                /* \"@openzeppelin/contracts/finance/PaymentSplitter.sol\":5138:5203  return _pendingPayment(account, totalReceived, released(account)) */\n              swap2\n              pop\n              pop\n                /* \"@openzeppelin/contracts/finance/PaymentSplitter.sol\":4988:5210  function releasable(address account) public view returns (uint256) {... */\n              swap2\n              swap1\n              pop\n              jump\t// out\n                /* \"@openzeppelin/contracts/finance/PaymentSplitter.sol\":5364:5621  function releasable(IERC20 token, address account) public view returns (uint256) {... */\n            tag_62:\n                /* \"@openzeppelin/contracts/finance/PaymentSplitter.sol\":5436:5443  uint256 */\n              0x00\n                /* \"@openzeppelin/contracts/finance/PaymentSplitter.sol\":5455:5476  uint256 totalReceived */\n              dup1\n                /* \"@openzeppelin/contracts/finance/PaymentSplitter.sol\":5512:5532  totalReleased(token) */\n              tag_119\n                /* \"@openzeppelin/contracts/finance/PaymentSplitter.sol\":5526:5531  token */\n              dup5\n                /* \"@openzeppelin/contracts/finance/PaymentSplitter.sol\":5512:5525  totalReleased */\n              tag_73\n                /* \"@openzeppelin/contracts/finance/PaymentSplitter.sol\":5512:5532  totalReleased(token) */\n              jump\t// in\n            tag_119:\n                /* \"@openzeppelin/contracts/finance/PaymentSplitter.sol\":5479:5484  token */\n              dup5\n                /* \"@openzeppelin/contracts/finance/PaymentSplitter.sol\":5479:5494  token.balanceOf */\n              0xffffffffffffffffffffffffffffffffffffffff\n              and\n              0x70a08231\n                /* \"@openzeppelin/contracts/finance/PaymentSplitter.sol\":5503:5507  this */\n              address\n                /* \"@openzeppelin/contracts/finance/PaymentSplitter.sol\":5479:5509  token.balanceOf(address(this)) */\n              mload(0x40)\n              dup3\n              0xffffffff\n              and\n              0xe0\n              shl\n              dup2\n              mstore\n              0x04\n              add\n              tag_120\n              swap2\n              swap1\n              tag_47\n              jump\t// in\n            tag_120:\n              0x20\n              mload(0x40)\n              dup1\n              dup4\n              sub\n              dup2\n              dup7\n              gas\n              staticcall\n              iszero\n              dup1\n              iszero\n              tag_122\n              jumpi\n              returndatasize\n              0x00\n              dup1\n              returndatacopy\n              revert(0x00, returndatasize)\n            tag_122:\n              pop\n              pop\n              pop\n              pop\n              mload(0x40)\n              returndatasize\n              not(0x1f)\n              0x1f\n              dup3\n              add\n              and\n              dup3\n              add\n              dup1\n              0x40\n              mstore\n              pop\n              dup2\n              add\n              swap1\n              tag_123\n              swap2\n              swap1\n              tag_124\n              jump\t// in\n            tag_123:\n                /* \"@openzeppelin/contracts/finance/PaymentSplitter.sol\":5479:5532  token.balanceOf(address(this)) + totalReleased(token) */\n              tag_125\n              swap2\n              swap1\n              tag_89\n              jump\t// in\n            tag_125:\n                /* \"@openzeppelin/contracts/finance/PaymentSplitter.sol\":5455:5532  uint256 totalReceived = token.balanceOf(address(this)) + totalReleased(token) */\n              swap1\n              pop\n                /* \"@openzeppelin/contracts/finance/PaymentSplitter.sol\":5549:5614  _pendingPayment(account, totalReceived, released(token, account)) */\n              tag_126\n                /* \"@openzeppelin/contracts/finance/PaymentSplitter.sol\":5565:5572  account */\n              dup4\n                /* \"@openzeppelin/contracts/finance/PaymentSplitter.sol\":5574:5587  totalReceived */\n              dup3\n                /* \"@openzeppelin/contracts/finance/PaymentSplitter.sol\":5589:5613  released(token, account) */\n              tag_127\n                /* \"@openzeppelin/contracts/finance/PaymentSplitter.sol\":5598:5603  token */\n              dup8\n                /* \"@openzeppelin/contracts/finance/PaymentSplitter.sol\":5605:5612  account */\n              dup8\n                /* \"@openzeppelin/contracts/finance/PaymentSplitter.sol\":5589:5597  released */\n              tag_35\n                /* \"@openzeppelin/contracts/finance/PaymentSplitter.sol\":5589:5613  released(token, account) */\n              jump\t// in\n            tag_127:\n                /* \"@openzeppelin/contracts/finance/PaymentSplitter.sol\":5549:5564  _pendingPayment */\n              tag_117\n                /* \"@openzeppelin/contracts/finance/PaymentSplitter.sol\":5549:5614  _pendingPayment(account, totalReceived, released(token, account)) */\n              jump\t// in\n            tag_126:\n                /* \"@openzeppelin/contracts/finance/PaymentSplitter.sol\":5542:5614  return _pendingPayment(account, totalReceived, released(token, account)) */\n              swap2\n              pop\n              pop\n                /* \"@openzeppelin/contracts/finance/PaymentSplitter.sol\":5364:5621  function releasable(IERC20 token, address account) public view returns (uint256) {... */\n              swap3\n              swap2\n              pop\n              pop\n              jump\t// out\n                /* \"@openzeppelin/contracts/finance/PaymentSplitter.sol\":4119:4222  function shares(address account) public view returns (uint256) {... */\n            tag_67:\n                /* \"@openzeppelin/contracts/finance/PaymentSplitter.sol\":4173:4180  uint256 */\n              0x00\n                /* \"@openzeppelin/contracts/finance/PaymentSplitter.sol\":4199:4206  _shares */\n              0x02\n                /* \"@openzeppelin/contracts/finance/PaymentSplitter.sol\":4199:4215  _shares[account] */\n              0x00\n                /* \"@openzeppelin/contracts/finance/PaymentSplitter.sol\":4207:4214  account */\n              dup4\n                /* \"@openzeppelin/contracts/finance/PaymentSplitter.sol\":4199:4215  _shares[account] */\n              0xffffffffffffffffffffffffffffffffffffffff\n              and\n              0xffffffffffffffffffffffffffffffffffffffff\n              and\n              dup2\n              mstore\n              0x20\n              add\n              swap1\n              dup2\n              mstore\n              0x20\n              add\n              0x00\n              keccak256\n              sload\n                /* \"@openzeppelin/contracts/finance/PaymentSplitter.sol\":4192:4215  return _shares[account] */\n              swap1\n              pop\n                /* \"@openzeppelin/contracts/finance/PaymentSplitter.sol\":4119:4222  function shares(address account) public view returns (uint256) {... */\n              swap2\n              swap1\n              pop\n              jump\t// out\n                /* \"@openzeppelin/contracts/finance/PaymentSplitter.sol\":3916:4033  function totalReleased(IERC20 token) public view returns (uint256) {... */\n            tag_73:\n                /* \"@openzeppelin/contracts/finance/PaymentSplitter.sol\":3974:3981  uint256 */\n              0x00\n                /* \"@openzeppelin/contracts/finance/PaymentSplitter.sol\":4000:4019  _erc20TotalReleased */\n              0x05\n                /* \"@openzeppelin/contracts/finance/PaymentSplitter.sol\":4000:4026  _erc20TotalReleased[token] */\n              0x00\n                /* \"@openzeppelin/contracts/finance/PaymentSplitter.sol\":4020:4025  token */\n              dup4\n                /* \"@openzeppelin/contracts/finance/PaymentSplitter.sol\":4000:4026  _erc20TotalReleased[token] */\n              0xffffffffffffffffffffffffffffffffffffffff\n              and\n              0xffffffffffffffffffffffffffffffffffffffff\n              and\n              dup2\n              mstore\n              0x20\n              add\n              swap1\n              dup2\n              mstore\n              0x20\n              add\n              0x00\n              keccak256\n              sload\n                /* \"@openzeppelin/contracts/finance/PaymentSplitter.sol\":3993:4026  return _erc20TotalReleased[token] */\n              swap1\n              pop\n                /* \"@openzeppelin/contracts/finance/PaymentSplitter.sol\":3916:4033  function totalReleased(IERC20 token) public view returns (uint256) {... */\n              swap2\n              swap1\n              pop\n              jump\t// out\n                /* \"@openzeppelin/contracts/finance/PaymentSplitter.sol\":3672:3765  function totalReleased() public view returns (uint256) {... */\n            tag_77:\n                /* \"@openzeppelin/contracts/finance/PaymentSplitter.sol\":3718:3725  uint256 */\n              0x00\n                /* \"@openzeppelin/contracts/finance/PaymentSplitter.sol\":3744:3758  _totalReleased */\n              sload(0x01)\n                /* \"@openzeppelin/contracts/finance/PaymentSplitter.sol\":3737:3758  return _totalReleased */\n              swap1\n              pop\n                /* \"@openzeppelin/contracts/finance/PaymentSplitter.sol\":3672:3765  function totalReleased() public view returns (uint256) {... */\n              swap1\n              jump\t// out\n                /* \"@openzeppelin/contracts/utils/Address.sol\":1290:1655  function sendValue(address payable recipient, uint256 amount) internal {... */\n            tag_91:\n                /* \"@openzeppelin/contracts/utils/Address.sol\":1399:1405  amount */\n              dup1\n                /* \"@openzeppelin/contracts/utils/Address.sol\":1375:1396  address(this).balance */\n              selfbalance\n                /* \"@openzeppelin/contracts/utils/Address.sol\":1375:1405  address(this).balance < amount */\n              lt\n                /* \"@openzeppelin/contracts/utils/Address.sol\":1371:1496  if (address(this).balance < amount) {... */\n              iszero\n              tag_132\n              jumpi\n                /* \"@openzeppelin/contracts/utils/Address.sol\":1455:1476  address(this).balance */\n              selfbalance\n                /* \"@openzeppelin/contracts/utils/Address.sol\":1478:1484  amount */\n              dup2\n                /* \"@openzeppelin/contracts/utils/Address.sol\":1428:1485  Errors.InsufficientBalance(address(this).balance, amount) */\n              mload(0x40)\n              0xcf47918100000000000000000000000000000000000000000000000000000000\n              dup2\n              mstore\n              0x04\n              add\n              tag_133\n              swap3\n              swap2\n              swap1\n              tag_134\n              jump\t// in\n            tag_133:\n              mload(0x40)\n              dup1\n              swap2\n              sub\n              swap1\n              revert\n                /* \"@openzeppelin/contracts/utils/Address.sol\":1371:1496  if (address(this).balance < amount) {... */\n            tag_132:\n                /* \"@openzeppelin/contracts/utils/Address.sol\":1507:1519  bool success */\n              0x00\n                /* \"@openzeppelin/contracts/utils/Address.sol\":1521:1544  bytes memory returndata */\n              dup1\n                /* \"@openzeppelin/contracts/utils/Address.sol\":1548:1557  recipient */\n              dup4\n                /* \"@openzeppelin/contracts/utils/Address.sol\":1548:1562  recipient.call */\n              0xffffffffffffffffffffffffffffffffffffffff\n              and\n                /* \"@openzeppelin/contracts/utils/Address.sol\":1570:1576  amount */\n              dup4\n                /* \"@openzeppelin/contracts/utils/Address.sol\":1548:1581  recipient.call{value: amount}(\"\") */\n              mload(0x40)\n              tag_135\n              swap1\n              tag_136\n              jump\t// in\n            tag_135:\n              0x00\n              mload(0x40)\n              dup1\n              dup4\n              sub\n              dup2\n              dup6\n              dup8\n              gas\n              call\n              swap3\n              pop\n              pop\n              pop\n              returndatasize\n              dup1\n              0x00\n              dup2\n              eq\n              tag_139\n              jumpi\n              mload(0x40)\n              swap2\n              pop\n              and(add(returndatasize, 0x3f), not(0x1f))\n              dup3\n              add\n              0x40\n              mstore\n              returndatasize\n              dup3\n              mstore\n              returndatasize\n              0x00\n              0x20\n              dup5\n              add\n              returndatacopy\n              jump(tag_138)\n            tag_139:\n              0x60\n              swap2\n              pop\n            tag_138:\n              pop\n                /* \"@openzeppelin/contracts/utils/Address.sol\":1506:1581  (bool success, bytes memory returndata) = recipient.call{value: amount}(\"\") */\n              swap2\n              pop\n              swap2\n              pop\n                /* \"@openzeppelin/contracts/utils/Address.sol\":1596:1603  success */\n              dup2\n                /* \"@openzeppelin/contracts/utils/Address.sol\":1591:1649  if (!success) {... */\n              tag_140\n              jumpi\n                /* \"@openzeppelin/contracts/utils/Address.sol\":1619:1638  _revert(returndata) */\n              tag_141\n                /* \"@openzeppelin/contracts/utils/Address.sol\":1627:1637  returndata */\n              dup2\n                /* \"@openzeppelin/contracts/utils/Address.sol\":1619:1626  _revert */\n              tag_142\n                /* \"@openzeppelin/contracts/utils/Address.sol\":1619:1638  _revert(returndata) */\n              jump\t// in\n            tag_141:\n                /* \"@openzeppelin/contracts/utils/Address.sol\":1591:1649  if (!success) {... */\n            tag_140:\n                /* \"@openzeppelin/contracts/utils/Address.sol\":1361:1655  {... */\n              pop\n              pop\n                /* \"@openzeppelin/contracts/utils/Address.sol\":1290:1655  function sendValue(address payable recipient, uint256 amount) internal {... */\n              pop\n              pop\n              jump\t// out\n                /* \"@openzeppelin/contracts/token/ERC20/utils/SafeERC20.sol\":1219:1379  function safeTransfer(IERC20 token, address to, uint256 value) internal {... */\n            tag_104:\n                /* \"@openzeppelin/contracts/token/ERC20/utils/SafeERC20.sol\":1301:1372  _callOptionalReturn(token, abi.encodeCall(token.transfer, (to, value))) */\n              tag_144\n                /* \"@openzeppelin/contracts/token/ERC20/utils/SafeERC20.sol\":1321:1326  token */\n              dup4\n                /* \"@openzeppelin/contracts/token/ERC20/utils/SafeERC20.sol\":1343:1348  token */\n              dup5\n                /* \"@openzeppelin/contracts/token/ERC20/utils/SafeERC20.sol\":1343:1357  token.transfer */\n              0xffffffffffffffffffffffffffffffffffffffff\n              and\n              0xa9059cbb\n                /* \"@openzeppelin/contracts/token/ERC20/utils/SafeERC20.sol\":1360:1362  to */\n              dup6\n                /* \"@openzeppelin/contracts/token/ERC20/utils/SafeERC20.sol\":1364:1369  value */\n              dup6\n                /* \"@openzeppelin/contracts/token/ERC20/utils/SafeERC20.sol\":1328:1371  abi.encodeCall(token.transfer, (to, value)) */\n              add(0x24, mload(0x40))\n              tag_145\n              swap3\n              swap2\n              swap1\n              tag_20\n              jump\t// in\n            tag_145:\n              mload(0x40)\n              0x20\n              dup2\n              dup4\n              sub\n              sub\n              dup2\n              mstore\n              swap1\n              0x40\n              mstore\n              swap2\n              pop\n              0xe0\n              shl\n              0x20\n              dup3\n              add\n              dup1\n              mload\n              0xffffffffffffffffffffffffffffffffffffffffffffffffffffffff\n              dup4\n              dup2\n              dup4\n              and\n              or\n              dup4\n              mstore\n              pop\n              pop\n              pop\n              pop\n                /* \"@openzeppelin/contracts/token/ERC20/utils/SafeERC20.sol\":1301:1320  _callOptionalReturn */\n              tag_146\n                /* \"@openzeppelin/contracts/token/ERC20/utils/SafeERC20.sol\":1301:1372  _callOptionalReturn(token, abi.encodeCall(token.transfer, (to, value))) */\n              jump\t// in\n            tag_144:\n                /* \"@openzeppelin/contracts/token/ERC20/utils/SafeERC20.sol\":1219:1379  function safeTransfer(IERC20 token, address to, uint256 value) internal {... */\n              pop\n              pop\n              pop\n              jump\t// out\n                /* \"@openzeppelin/contracts/finance/PaymentSplitter.sol\":7678:7920  function _pendingPayment(... */\n            tag_117:\n                /* \"@openzeppelin/contracts/finance/PaymentSplitter.sol\":7820:7827  uint256 */\n              0x00\n                /* \"@openzeppelin/contracts/finance/PaymentSplitter.sol\":7898:7913  alreadyReleased */\n              dup2\n                /* \"@openzeppelin/contracts/finance/PaymentSplitter.sol\":7883:7895  _totalShares */\n              sload(0x00)\n                /* \"@openzeppelin/contracts/finance/PaymentSplitter.sol\":7863:7870  _shares */\n              0x02\n                /* \"@openzeppelin/contracts/finance/PaymentSplitter.sol\":7863:7879  _shares[account] */\n              0x00\n                /* \"@openzeppelin/contracts/finance/PaymentSplitter.sol\":7871:7878  account */\n              dup8\n                /* \"@openzeppelin/contracts/finance/PaymentSplitter.sol\":7863:7879  _shares[account] */\n              0xffffffffffffffffffffffffffffffffffffffff\n              and\n              0xffffffffffffffffffffffffffffffffffffffff\n              and\n              dup2\n              mstore\n              0x20\n              add\n              swap1\n              dup2\n              mstore\n              0x20\n              add\n              0x00\n              keccak256\n              sload\n                /* \"@openzeppelin/contracts/finance/PaymentSplitter.sol\":7847:7860  totalReceived */\n              dup6\n                /* \"@openzeppelin/contracts/finance/PaymentSplitter.sol\":7847:7879  totalReceived * _shares[account] */\n              tag_148\n              swap2\n              swap1\n              tag_149\n              jump\t// in\n            tag_148:\n                /* \"@openzeppelin/contracts/finance/PaymentSplitter.sol\":7846:7895  (totalReceived * _shares[account]) / _totalShares */\n              tag_150\n              swap2\n              swap1\n              tag_151\n              jump\t// in\n            tag_150:\n                /* \"@openzeppelin/contracts/finance/PaymentSplitter.sol\":7846:7913  (totalReceived * _shares[account]) / _totalShares - alreadyReleased */\n              tag_152\n              swap2\n              swap1\n              tag_153\n              jump\t// in\n            tag_152:\n                /* \"@openzeppelin/contracts/finance/PaymentSplitter.sol\":7839:7913  return (totalReceived * _shares[account]) / _totalShares - alreadyReleased */\n              swap1\n              pop\n                /* \"@openzeppelin/contracts/finance/PaymentSplitter.sol\":7678:7920  function _pendingPayment(... */\n              swap4\n              swap3\n              pop\n              pop\n              pop\n              jump\t// out\n                /* \"@openzeppelin/contracts/utils/Address.sol\":5559:5993  function _revert(bytes memory returndata) private pure {... */\n            tag_142:\n                /* \"@openzeppelin/contracts/utils/Address.sol\":5710:5711  0 */\n              0x00\n                /* \"@openzeppelin/contracts/utils/Address.sol\":5690:5700  returndata */\n              dup2\n                /* \"@openzeppelin/contracts/utils/Address.sol\":5690:5707  returndata.length */\n              mload\n                /* \"@openzeppelin/contracts/utils/Address.sol\":5690:5711  returndata.length > 0 */\n              gt\n                /* \"@openzeppelin/contracts/utils/Address.sol\":5686:5987  if (returndata.length > 0) {... */\n              iszero\n              tag_155\n              jumpi\n                /* \"@openzeppelin/contracts/utils/Address.sol\":5894:5904  returndata */\n              dup1\n                /* \"@openzeppelin/contracts/utils/Address.sol\":5888:5905  mload(returndata) */\n              mload\n                /* \"@openzeppelin/contracts/utils/Address.sol\":5881:5885  0x20 */\n              0x20\n                /* \"@openzeppelin/contracts/utils/Address.sol\":5869:5879  returndata */\n              dup3\n                /* \"@openzeppelin/contracts/utils/Address.sol\":5865:5886  add(returndata, 0x20) */\n              add\n                /* \"@openzeppelin/contracts/utils/Address.sol\":5858:5906  revert(add(returndata, 0x20), mload(returndata)) */\n              revert\n                /* \"@openzeppelin/contracts/utils/Address.sol\":5686:5987  if (returndata.length > 0) {... */\n            tag_155:\n                /* \"@openzeppelin/contracts/utils/Address.sol\":5957:5976  Errors.FailedCall() */\n              mload(0x40)\n              0xd6bda27500000000000000000000000000000000000000000000000000000000\n              dup2\n              mstore\n              0x04\n              add\n              mload(0x40)\n              dup1\n              swap2\n              sub\n              swap1\n              revert\n                /* \"@openzeppelin/contracts/token/ERC20/utils/SafeERC20.sol\":8370:9090  function _callOptionalReturn(IERC20 token, bytes memory data) private {... */\n            tag_146:\n                /* \"@openzeppelin/contracts/token/ERC20/utils/SafeERC20.sol\":8450:8468  uint256 returnSize */\n              0x00\n                /* \"@openzeppelin/contracts/token/ERC20/utils/SafeERC20.sol\":8478:8497  uint256 returnValue */\n              dup1\n                /* \"@openzeppelin/contracts/token/ERC20/utils/SafeERC20.sol\":8616:8620  0x20 */\n              0x20\n                /* \"@openzeppelin/contracts/token/ERC20/utils/SafeERC20.sol\":8613:8614  0 */\n              0x00\n                /* \"@openzeppelin/contracts/token/ERC20/utils/SafeERC20.sol\":8606:8610  data */\n              dup5\n                /* \"@openzeppelin/contracts/token/ERC20/utils/SafeERC20.sol\":8600:8611  mload(data) */\n              mload\n                /* \"@openzeppelin/contracts/token/ERC20/utils/SafeERC20.sol\":8593:8597  0x20 */\n              0x20\n                /* \"@openzeppelin/contracts/token/ERC20/utils/SafeERC20.sol\":8587:8591  data */\n              dup7\n                /* \"@openzeppelin/contracts/token/ERC20/utils/SafeERC20.sol\":8583:8598  add(data, 0x20) */\n              add\n                /* \"@openzeppelin/contracts/token/ERC20/utils/SafeERC20.sol\":8580:8581  0 */\n              0x00\n                /* \"@openzeppelin/contracts/token/ERC20/utils/SafeERC20.sol\":8573:8578  token */\n              dup9\n                /* \"@openzeppelin/contracts/token/ERC20/utils/SafeERC20.sol\":8566:8571  gas() */\n              gas\n                /* \"@openzeppelin/contracts/token/ERC20/utils/SafeERC20.sol\":8561:8621  call(gas(), token, 0, add(data, 0x20), mload(data), 0, 0x20) */\n              call\n                /* \"@openzeppelin/contracts/token/ERC20/utils/SafeERC20.sol\":8673:8680  success */\n              dup1\n                /* \"@openzeppelin/contracts/token/ERC20/utils/SafeERC20.sol\":8663:8839  if iszero(success) {... */\n              tag_158\n              jumpi\n                /* \"@openzeppelin/contracts/token/ERC20/utils/SafeERC20.sol\":8717:8721  0x40 */\n              0x40\n                /* \"@openzeppelin/contracts/token/ERC20/utils/SafeERC20.sol\":8711:8722  mload(0x40) */\n              mload\n                /* \"@openzeppelin/contracts/token/ERC20/utils/SafeERC20.sol\":8762:8778  returndatasize() */\n              returndatasize\n                /* \"@openzeppelin/contracts/token/ERC20/utils/SafeERC20.sol\":8759:8760  0 */\n              0x00\n                /* \"@openzeppelin/contracts/token/ERC20/utils/SafeERC20.sol\":8754:8757  ptr */\n              dup3\n                /* \"@openzeppelin/contracts/token/ERC20/utils/SafeERC20.sol\":8739:8779  returndatacopy(ptr, 0, returndatasize()) */\n              returndatacopy\n                /* \"@openzeppelin/contracts/token/ERC20/utils/SafeERC20.sol\":8808:8824  returndatasize() */\n              returndatasize\n                /* \"@openzeppelin/contracts/token/ERC20/utils/SafeERC20.sol\":8803:8806  ptr */\n              dup2\n                /* \"@openzeppelin/contracts/token/ERC20/utils/SafeERC20.sol\":8796:8825  revert(ptr, returndatasize()) */\n              revert\n                /* \"@openzeppelin/contracts/token/ERC20/utils/SafeERC20.sol\":8663:8839  if iszero(success) {... */\n            tag_158:\n                /* \"@openzeppelin/contracts/token/ERC20/utils/SafeERC20.sol\":8866:8882  returndatasize() */\n              returndatasize\n                /* \"@openzeppelin/contracts/token/ERC20/utils/SafeERC20.sol\":8852:8882  returnSize := returndatasize() */\n              swap3\n              pop\n                /* \"@openzeppelin/contracts/token/ERC20/utils/SafeERC20.sol\":8916:8917  0 */\n              0x00\n                /* \"@openzeppelin/contracts/token/ERC20/utils/SafeERC20.sol\":8910:8918  mload(0) */\n              mload\n                /* \"@openzeppelin/contracts/token/ERC20/utils/SafeERC20.sol\":8895:8918  returnValue := mload(0) */\n              swap2\n              pop\n                /* \"@openzeppelin/contracts/token/ERC20/utils/SafeERC20.sol\":8532:8928  {... */\n              pop\n                /* \"@openzeppelin/contracts/token/ERC20/utils/SafeERC20.sol\":8956:8957  0 */\n              0x00\n                /* \"@openzeppelin/contracts/token/ERC20/utils/SafeERC20.sol\":8942:8952  returnSize */\n              dup3\n                /* \"@openzeppelin/contracts/token/ERC20/utils/SafeERC20.sol\":8942:8957  returnSize == 0 */\n              eq\n                /* \"@openzeppelin/contracts/token/ERC20/utils/SafeERC20.sol\":8942:9010  returnSize == 0 ? address(token).code.length == 0 : returnValue != 1 */\n              tag_159\n              jumpi\n                /* \"@openzeppelin/contracts/token/ERC20/utils/SafeERC20.sol\":9009:9010  1 */\n              0x01\n                /* \"@openzeppelin/contracts/token/ERC20/utils/SafeERC20.sol\":8994:9005  returnValue */\n              dup2\n                /* \"@openzeppelin/contracts/token/ERC20/utils/SafeERC20.sol\":8994:9010  returnValue != 1 */\n              eq\n              iszero\n                /* \"@openzeppelin/contracts/token/ERC20/utils/SafeERC20.sol\":8942:9010  returnSize == 0 ? address(token).code.length == 0 : returnValue != 1 */\n              jump(tag_160)\n            tag_159:\n                /* \"@openzeppelin/contracts/token/ERC20/utils/SafeERC20.sol\":8990:8991  0 */\n              0x00\n                /* \"@openzeppelin/contracts/token/ERC20/utils/SafeERC20.sol\":8968:8973  token */\n              dup5\n                /* \"@openzeppelin/contracts/token/ERC20/utils/SafeERC20.sol\":8960:8986  address(token).code.length */\n              0xffffffffffffffffffffffffffffffffffffffff\n              and\n              extcodesize\n                /* \"@openzeppelin/contracts/token/ERC20/utils/SafeERC20.sol\":8960:8991  address(token).code.length == 0 */\n              eq\n                /* \"@openzeppelin/contracts/token/ERC20/utils/SafeERC20.sol\":8942:9010  returnSize == 0 ? address(token).code.length == 0 : returnValue != 1 */\n            tag_160:\n                /* \"@openzeppelin/contracts/token/ERC20/utils/SafeERC20.sol\":8938:9084  if (returnSize == 0 ? address(token).code.length == 0 : returnValue != 1) {... */\n              iszero\n              tag_161\n              jumpi\n                /* \"@openzeppelin/contracts/token/ERC20/utils/SafeERC20.sol\":9066:9071  token */\n              dup4\n                /* \"@openzeppelin/contracts/token/ERC20/utils/SafeERC20.sol\":9033:9073  SafeERC20FailedOperation(address(token)) */\n              mload(0x40)\n              0x5274afe700000000000000000000000000000000000000000000000000000000\n              dup2\n              mstore\n              0x04\n              add\n              tag_162\n              swap2\n              swap1\n              tag_47\n              jump\t// in\n            tag_162:\n              mload(0x40)\n              dup1\n              swap2\n              sub\n              swap1\n              revert\n                /* \"@openzeppelin/contracts/token/ERC20/utils/SafeERC20.sol\":8938:9084  if (returnSize == 0 ? address(token).code.length == 0 : returnValue != 1) {... */\n            tag_161:\n                /* \"@openzeppelin/contracts/token/ERC20/utils/SafeERC20.sol\":8440:9090  {... */\n              pop\n              pop\n                /* \"@openzeppelin/contracts/token/ERC20/utils/SafeERC20.sol\":8370:9090  function _callOptionalReturn(IERC20 token, bytes memory data) private {... */\n              pop\n              pop\n              jump\t// out\n                /* \"#utility.yul\":7:133   */\n            tag_163:\n                /* \"#utility.yul\":44:51   */\n              0x00\n                /* \"#utility.yul\":84:126   */\n              0xffffffffffffffffffffffffffffffffffffffff\n                /* \"#utility.yul\":77:82   */\n              dup3\n                /* \"#utility.yul\":73:127   */\n              and\n                /* \"#utility.yul\":62:127   */\n              swap1\n              pop\n                /* \"#utility.yul\":7:133   */\n              swap2\n              swap1\n              pop\n              jump\t// out\n                /* \"#utility.yul\":139:235   */\n            tag_164:\n                /* \"#utility.yul\":176:183   */\n              0x00\n                /* \"#utility.yul\":205:229   */\n              tag_200\n                /* \"#utility.yul\":223:228   */\n              dup3\n                /* \"#utility.yul\":205:229   */\n              tag_163\n              jump\t// in\n            tag_200:\n                /* \"#utility.yul\":194:229   */\n              swap1\n              pop\n                /* \"#utility.yul\":139:235   */\n              swap2\n              swap1\n              pop\n              jump\t// out\n                /* \"#utility.yul\":241:359   */\n            tag_165:\n                /* \"#utility.yul\":328:352   */\n              tag_202\n                /* \"#utility.yul\":346:351   */\n              dup2\n                /* \"#utility.yul\":328:352   */\n              tag_164\n              jump\t// in\n            tag_202:\n                /* \"#utility.yul\":323:326   */\n              dup3\n                /* \"#utility.yul\":316:353   */\n              mstore\n                /* \"#utility.yul\":241:359   */\n              pop\n              pop\n              jump\t// out\n                /* \"#utility.yul\":365:442   */\n            tag_166:\n                /* \"#utility.yul\":402:409   */\n              0x00\n                /* \"#utility.yul\":431:436   */\n              dup2\n                /* \"#utility.yul\":420:436   */\n              swap1\n              pop\n                /* \"#utility.yul\":365:442   */\n              swap2\n              swap1\n              pop\n              jump\t// out\n                /* \"#utility.yul\":448:566   */\n            tag_167:\n                /* \"#utility.yul\":535:559   */\n              tag_205\n                /* \"#utility.yul\":553:558   */\n              dup2\n                /* \"#utility.yul\":535:559   */\n              tag_166\n              jump\t// in\n            tag_205:\n                /* \"#utility.yul\":530:533   */\n              dup3\n                /* \"#utility.yul\":523:560   */\n              mstore\n                /* \"#utility.yul\":448:566   */\n              pop\n              pop\n              jump\t// out\n                /* \"#utility.yul\":572:904   */\n            tag_20:\n                /* \"#utility.yul\":693:697   */\n              0x00\n                /* \"#utility.yul\":731:733   */\n              0x40\n                /* \"#utility.yul\":720:729   */\n              dup3\n                /* \"#utility.yul\":716:734   */\n              add\n                /* \"#utility.yul\":708:734   */\n              swap1\n              pop\n                /* \"#utility.yul\":744:815   */\n              tag_207\n                /* \"#utility.yul\":812:813   */\n              0x00\n                /* \"#utility.yul\":801:810   */\n              dup4\n                /* \"#utility.yul\":797:814   */\n              add\n                /* \"#utility.yul\":788:794   */\n              dup6\n                /* \"#utility.yul\":744:815   */\n              tag_165\n              jump\t// in\n            tag_207:\n                /* \"#utility.yul\":825:897   */\n              tag_208\n                /* \"#utility.yul\":893:895   */\n              0x20\n                /* \"#utility.yul\":882:891   */\n              dup4\n                /* \"#utility.yul\":878:896   */\n              add\n                /* \"#utility.yul\":869:875   */\n              dup5\n                /* \"#utility.yul\":825:897   */\n              tag_167\n              jump\t// in\n            tag_208:\n                /* \"#utility.yul\":572:904   */\n              swap4\n              swap3\n              pop\n              pop\n              pop\n              jump\t// out\n                /* \"#utility.yul\":991:1108   */\n            tag_169:\n                /* \"#utility.yul\":1100:1101   */\n              0x00\n                /* \"#utility.yul\":1097:1098   */\n              dup1\n                /* \"#utility.yul\":1090:1102   */\n              revert\n                /* \"#utility.yul\":1237:1341   */\n            tag_171:\n                /* \"#utility.yul\":1282:1289   */\n              0x00\n                /* \"#utility.yul\":1311:1335   */\n              tag_213\n                /* \"#utility.yul\":1329:1334   */\n              dup3\n                /* \"#utility.yul\":1311:1335   */\n              tag_163\n              jump\t// in\n            tag_213:\n                /* \"#utility.yul\":1300:1335   */\n              swap1\n              pop\n                /* \"#utility.yul\":1237:1341   */\n              swap2\n              swap1\n              pop\n              jump\t// out\n                /* \"#utility.yul\":1347:1485   */\n            tag_172:\n                /* \"#utility.yul\":1428:1460   */\n              tag_215\n                /* \"#utility.yul\":1454:1459   */\n              dup2\n                /* \"#utility.yul\":1428:1460   */\n              tag_171\n              jump\t// in\n            tag_215:\n                /* \"#utility.yul\":1421:1426   */\n              dup2\n                /* \"#utility.yul\":1418:1461   */\n              eq\n                /* \"#utility.yul\":1408:1479   */\n              tag_216\n              jumpi\n                /* \"#utility.yul\":1475:1476   */\n              0x00\n                /* \"#utility.yul\":1472:1473   */\n              dup1\n                /* \"#utility.yul\":1465:1477   */\n              revert\n                /* \"#utility.yul\":1408:1479   */\n            tag_216:\n                /* \"#utility.yul\":1347:1485   */\n              pop\n              jump\t// out\n                /* \"#utility.yul\":1491:1646   */\n            tag_173:\n                /* \"#utility.yul\":1545:1550   */\n              0x00\n                /* \"#utility.yul\":1583:1589   */\n              dup2\n                /* \"#utility.yul\":1570:1590   */\n              calldataload\n                /* \"#utility.yul\":1561:1590   */\n              swap1\n              pop\n                /* \"#utility.yul\":1599:1640   */\n              tag_218\n                /* \"#utility.yul\":1634:1639   */\n              dup2\n                /* \"#utility.yul\":1599:1640   */\n              tag_172\n              jump\t// in\n            tag_218:\n                /* \"#utility.yul\":1491:1646   */\n              swap3\n              swap2\n              pop\n              pop\n              jump\t// out\n                /* \"#utility.yul\":1652:1997   */\n            tag_24:\n                /* \"#utility.yul\":1719:1725   */\n              0x00\n                /* \"#utility.yul\":1768:1770   */\n              0x20\n                /* \"#utility.yul\":1756:1765   */\n              dup3\n                /* \"#utility.yul\":1747:1754   */\n              dup5\n                /* \"#utility.yul\":1743:1766   */\n              sub\n                /* \"#utility.yul\":1739:1771   */\n              slt\n                /* \"#utility.yul\":1736:1855   */\n              iszero\n              tag_220\n              jumpi\n                /* \"#utility.yul\":1774:1853   */\n              tag_221\n              tag_169\n              jump\t// in\n            tag_221:\n                /* \"#utility.yul\":1736:1855   */\n            tag_220:\n                /* \"#utility.yul\":1894:1895   */\n              0x00\n                /* \"#utility.yul\":1919:1980   */\n              tag_222\n                /* \"#utility.yul\":1972:1979   */\n              dup5\n                /* \"#utility.yul\":1963:1969   */\n              dup3\n                /* \"#utility.yul\":1952:1961   */\n              dup6\n                /* \"#utility.yul\":1948:1970   */\n              add\n                /* \"#utility.yul\":1919:1980   */\n              tag_173\n              jump\t// in\n            tag_222:\n                /* \"#utility.yul\":1909:1980   */\n              swap2\n              pop\n                /* \"#utility.yul\":1865:1990   */\n              pop\n                /* \"#utility.yul\":1652:1997   */\n              swap3\n              swap2\n              pop\n              pop\n              jump\t// out\n                /* \"#utility.yul\":2003:2225   */\n            tag_30:\n                /* \"#utility.yul\":2096:2100   */\n              0x00\n                /* \"#utility.yul\":2134:2136   */\n              0x20\n                /* \"#utility.yul\":2123:2132   */\n              dup3\n                /* \"#utility.yul\":2119:2137   */\n              add\n                /* \"#utility.yul\":2111:2137   */\n              swap1\n              pop\n                /* \"#utility.yul\":2147:2218   */\n              tag_224\n                /* \"#utility.yul\":2215:2216   */\n              0x00\n                /* \"#utility.yul\":2204:2213   */\n              dup4\n                /* \"#utility.yul\":2200:2217   */\n              add\n                /* \"#utility.yul\":2191:2197   */\n              dup5\n                /* \"#utility.yul\":2147:2218   */\n              tag_167\n              jump\t// in\n            tag_224:\n                /* \"#utility.yul\":2003:2225   */\n              swap3\n              swap2\n              pop\n              pop\n              jump\t// out\n                /* \"#utility.yul\":2231:2341   */\n            tag_174:\n                /* \"#utility.yul\":2282:2289   */\n              0x00\n                /* \"#utility.yul\":2311:2335   */\n              tag_226\n                /* \"#utility.yul\":2329:2334   */\n              dup3\n                /* \"#utility.yul\":2311:2335   */\n              tag_164\n              jump\t// in\n            tag_226:\n                /* \"#utility.yul\":2300:2335   */\n              swap1\n              pop\n                /* \"#utility.yul\":2231:2341   */\n              swap2\n              swap1\n              pop\n              jump\t// out\n                /* \"#utility.yul\":2347:2497   */\n            tag_175:\n                /* \"#utility.yul\":2434:2472   */\n              tag_228\n                /* \"#utility.yul\":2466:2471   */\n              dup2\n                /* \"#utility.yul\":2434:2472   */\n              tag_174\n              jump\t// in\n            tag_228:\n                /* \"#utility.yul\":2427:2432   */\n              dup2\n                /* \"#utility.yul\":2424:2473   */\n              eq\n                /* \"#utility.yul\":2414:2491   */\n              tag_229\n              jumpi\n                /* \"#utility.yul\":2487:2488   */\n              0x00\n                /* \"#utility.yul\":2484:2485   */\n              dup1\n                /* \"#utility.yul\":2477:2489   */\n              revert\n                /* \"#utility.yul\":2414:2491   */\n            tag_229:\n                /* \"#utility.yul\":2347:2497   */\n              pop\n              jump\t// out\n                /* \"#utility.yul\":2503:2670   */\n            tag_176:\n                /* \"#utility.yul\":2563:2568   */\n              0x00\n                /* \"#utility.yul\":2601:2607   */\n              dup2\n                /* \"#utility.yul\":2588:2608   */\n              calldataload\n                /* \"#utility.yul\":2579:2608   */\n              swap1\n              pop\n                /* \"#utility.yul\":2617:2664   */\n              tag_231\n                /* \"#utility.yul\":2658:2663   */\n              dup2\n                /* \"#utility.yul\":2617:2664   */\n              tag_175\n              jump\t// in\n            tag_231:\n                /* \"#utility.yul\":2503:2670   */\n              swap3\n              swap2\n              pop\n              pop\n              jump\t// out\n                /* \"#utility.yul\":2676:2798   */\n            tag_177:\n                /* \"#utility.yul\":2749:2773   */\n              tag_233\n                /* \"#utility.yul\":2767:2772   */\n              dup2\n                /* \"#utility.yul\":2749:2773   */\n              tag_164\n              jump\t// in\n            tag_233:\n                /* \"#utility.yul\":2742:2747   */\n              dup2\n                /* \"#utility.yul\":2739:2774   */\n              eq\n                /* \"#utility.yul\":2729:2792   */\n              tag_234\n              jumpi\n                /* \"#utility.yul\":2788:2789   */\n              0x00\n                /* \"#utility.yul\":2785:2786   */\n              dup1\n                /* \"#utility.yul\":2778:2790   */\n              revert\n                /* \"#utility.yul\":2729:2792   */\n            tag_234:\n                /* \"#utility.yul\":2676:2798   */\n              pop\n              jump\t// out\n                /* \"#utility.yul\":2804:2943   */\n            tag_178:\n                /* \"#utility.yul\":2850:2855   */\n              0x00\n                /* \"#utility.yul\":2888:2894   */\n              dup2\n                /* \"#utility.yul\":2875:2895   */\n              calldataload\n                /* \"#utility.yul\":2866:2895   */\n              swap1\n              pop\n                /* \"#utility.yul\":2904:2937   */\n              tag_236\n                /* \"#utility.yul\":2931:2936   */\n              dup2\n                /* \"#utility.yul\":2904:2937   */\n              tag_177\n              jump\t// in\n            tag_236:\n                /* \"#utility.yul\":2804:2943   */\n              swap3\n              swap2\n              pop\n              pop\n              jump\t// out\n                /* \"#utility.yul\":2949:3451   */\n            tag_34:\n                /* \"#utility.yul\":3031:3037   */\n              0x00\n                /* \"#utility.yul\":3039:3045   */\n              dup1\n                /* \"#utility.yul\":3088:3090   */\n              0x40\n                /* \"#utility.yul\":3076:3085   */\n              dup4\n                /* \"#utility.yul\":3067:3074   */\n              dup6\n                /* \"#utility.yul\":3063:3086   */\n              sub\n                /* \"#utility.yul\":3059:3091   */\n              slt\n                /* \"#utility.yul\":3056:3175   */\n              iszero\n              tag_238\n              jumpi\n                /* \"#utility.yul\":3094:3173   */\n              tag_239\n              tag_169\n              jump\t// in\n            tag_239:\n                /* \"#utility.yul\":3056:3175   */\n            tag_238:\n                /* \"#utility.yul\":3214:3215   */\n              0x00\n                /* \"#utility.yul\":3239:3306   */\n              tag_240\n                /* \"#utility.yul\":3298:3305   */\n              dup6\n                /* \"#utility.yul\":3289:3295   */\n              dup3\n                /* \"#utility.yul\":3278:3287   */\n              dup7\n                /* \"#utility.yul\":3274:3296   */\n              add\n                /* \"#utility.yul\":3239:3306   */\n              tag_176\n              jump\t// in\n            tag_240:\n                /* \"#utility.yul\":3229:3306   */\n              swap3\n              pop\n                /* \"#utility.yul\":3185:3316   */\n              pop\n                /* \"#utility.yul\":3355:3357   */\n              0x20\n                /* \"#utility.yul\":3381:3434   */\n              tag_241\n                /* \"#utility.yul\":3426:3433   */\n              dup6\n                /* \"#utility.yul\":3417:3423   */\n              dup3\n                /* \"#utility.yul\":3406:3415   */\n              dup7\n                /* \"#utility.yul\":3402:3424   */\n              add\n                /* \"#utility.yul\":3381:3434   */\n              tag_178\n              jump\t// in\n            tag_241:\n                /* \"#utility.yul\":3371:3434   */\n              swap2\n              pop\n                /* \"#utility.yul\":3326:3444   */\n              pop\n                /* \"#utility.yul\":2949:3451   */\n              swap3\n              pop\n              swap3\n              swap1\n              pop\n              jump\t// out\n                /* \"#utility.yul\":3457:3579   */\n            tag_179:\n                /* \"#utility.yul\":3530:3554   */\n              tag_243\n                /* \"#utility.yul\":3548:3553   */\n              dup2\n                /* \"#utility.yul\":3530:3554   */\n              tag_166\n              jump\t// in\n            tag_243:\n                /* \"#utility.yul\":3523:3528   */\n              dup2\n                /* \"#utility.yul\":3520:3555   */\n              eq\n                /* \"#utility.yul\":3510:3573   */\n              tag_244\n              jumpi\n                /* \"#utility.yul\":3569:3570   */\n              0x00\n                /* \"#utility.yul\":3566:3567   */\n              dup1\n                /* \"#utility.yul\":3559:3571   */\n              revert\n                /* \"#utility.yul\":3510:3573   */\n            tag_244:\n                /* \"#utility.yul\":3457:3579   */\n              pop\n              jump\t// out\n                /* \"#utility.yul\":3585:3724   */\n            tag_180:\n                /* \"#utility.yul\":3631:3636   */\n              0x00\n                /* \"#utility.yul\":3669:3675   */\n              dup2\n                /* \"#utility.yul\":3656:3676   */\n              calldataload\n                /* \"#utility.yul\":3647:3676   */\n              swap1\n              pop\n                /* \"#utility.yul\":3685:3718   */\n              tag_246\n                /* \"#utility.yul\":3712:3717   */\n              dup2\n                /* \"#utility.yul\":3685:3718   */\n              tag_179\n              jump\t// in\n            tag_246:\n                /* \"#utility.yul\":3585:3724   */\n              swap3\n              swap2\n              pop\n              pop\n              jump\t// out\n                /* \"#utility.yul\":3730:4059   */\n            tag_44:\n                /* \"#utility.yul\":3789:3795   */\n              0x00\n                /* \"#utility.yul\":3838:3840   */\n              0x20\n                /* \"#utility.yul\":3826:3835   */\n              dup3\n                /* \"#utility.yul\":3817:3824   */\n              dup5\n                /* \"#utility.yul\":3813:3836   */\n              sub\n                /* \"#utility.yul\":3809:3841   */\n              slt\n                /* \"#utility.yul\":3806:3925   */\n              iszero\n              tag_248\n              jumpi\n                /* \"#utility.yul\":3844:3923   */\n              tag_249\n              tag_169\n              jump\t// in\n            tag_249:\n                /* \"#utility.yul\":3806:3925   */\n            tag_248:\n                /* \"#utility.yul\":3964:3965   */\n              0x00\n                /* \"#utility.yul\":3989:4042   */\n              tag_250\n                /* \"#utility.yul\":4034:4041   */\n              dup5\n                /* \"#utility.yul\":4025:4031   */\n              dup3\n                /* \"#utility.yul\":4014:4023   */\n              dup6\n                /* \"#utility.yul\":4010:4032   */\n              add\n                /* \"#utility.yul\":3989:4042   */\n              tag_180\n              jump\t// in\n            tag_250:\n                /* \"#utility.yul\":3979:4042   */\n              swap2\n              pop\n                /* \"#utility.yul\":3935:4052   */\n              pop\n                /* \"#utility.yul\":3730:4059   */\n              swap3\n              swap2\n              pop\n              pop\n              jump\t// out\n                /* \"#utility.yul\":4065:4287   */\n            tag_47:\n                /* \"#utility.yul\":4158:4162   */\n              0x00\n                /* \"#utility.yul\":4196:4198   */\n              0x20\n                /* \"#utility.yul\":4185:4194   */\n              dup3\n                /* \"#utility.yul\":4181:4199   */\n              add\n                /* \"#utility.yul\":4173:4199   */\n              swap1\n              pop\n                /* \"#utility.yul\":4209:4280   */\n              tag_252\n                /* \"#utility.yul\":4277:4278   */\n              0x00\n                /* \"#utility.yul\":4266:4275   */\n              dup4\n                /* \"#utility.yul\":4262:4279   */\n              add\n                /* \"#utility.yul\":4253:4259   */\n              dup5\n                /* \"#utility.yul\":4209:4280   */\n              tag_165\n              jump\t// in\n            tag_252:\n                /* \"#utility.yul\":4065:4287   */\n              swap3\n              swap2\n              pop\n              pop\n              jump\t// out\n                /* \"#utility.yul\":4293:4622   */\n            tag_51:\n                /* \"#utility.yul\":4352:4358   */\n              0x00\n                /* \"#utility.yul\":4401:4403   */\n              0x20\n                /* \"#utility.yul\":4389:4398   */\n              dup3\n                /* \"#utility.yul\":4380:4387   */\n              dup5\n                /* \"#utility.yul\":4376:4399   */\n              sub\n                /* \"#utility.yul\":4372:4404   */\n              slt\n                /* \"#utility.yul\":4369:4488   */\n              iszero\n              tag_254\n              jumpi\n                /* \"#utility.yul\":4407:4486   */\n              tag_255\n              tag_169\n              jump\t// in\n            tag_255:\n                /* \"#utility.yul\":4369:4488   */\n            tag_254:\n                /* \"#utility.yul\":4527:4528   */\n              0x00\n                /* \"#utility.yul\":4552:4605   */\n              tag_256\n                /* \"#utility.yul\":4597:4604   */\n              dup5\n                /* \"#utility.yul\":4588:4594   */\n              dup3\n                /* \"#utility.yul\":4577:4586   */\n              dup6\n                /* \"#utility.yul\":4573:4595   */\n              add\n                /* \"#utility.yul\":4552:4605   */\n              tag_178\n              jump\t// in\n            tag_256:\n                /* \"#utility.yul\":4542:4605   */\n              swap2\n              pop\n                /* \"#utility.yul\":4498:4615   */\n              pop\n                /* \"#utility.yul\":4293:4622   */\n              swap3\n              swap2\n              pop\n              pop\n              jump\t// out\n                /* \"#utility.yul\":4628:4985   */\n            tag_72:\n                /* \"#utility.yul\":4701:4707   */\n              0x00\n                /* \"#utility.yul\":4750:4752   */\n              0x20\n                /* \"#utility.yul\":4738:4747   */\n              dup3\n                /* \"#utility.yul\":4729:4736   */\n              dup5\n                /* \"#utility.yul\":4725:4748   */\n              sub\n                /* \"#utility.yul\":4721:4753   */\n              slt\n                /* \"#utility.yul\":4718:4837   */\n              iszero\n              tag_258\n              jumpi\n                /* \"#utility.yul\":4756:4835   */\n              tag_259\n              tag_169\n              jump\t// in\n            tag_259:\n                /* \"#utility.yul\":4718:4837   */\n            tag_258:\n                /* \"#utility.yul\":4876:4877   */\n              0x00\n                /* \"#utility.yul\":4901:4968   */\n              tag_260\n                /* \"#utility.yul\":4960:4967   */\n              dup5\n                /* \"#utility.yul\":4951:4957   */\n              dup3\n                /* \"#utility.yul\":4940:4949   */\n              dup6\n                /* \"#utility.yul\":4936:4958   */\n              add\n                /* \"#utility.yul\":4901:4968   */\n              tag_176\n              jump\t// in\n            tag_260:\n                /* \"#utility.yul\":4891:4968   */\n              swap2\n              pop\n                /* \"#utility.yul\":4847:4978   */\n              pop\n                /* \"#utility.yul\":4628:4985   */\n              swap3\n              swap2\n              pop\n              pop\n              jump\t// out\n                /* \"#utility.yul\":4991:5160   */\n            tag_181:\n                /* \"#utility.yul\":5075:5086   */\n              0x00\n                /* \"#utility.yul\":5109:5115   */\n              dup3\n                /* \"#utility.yul\":5104:5107   */\n              dup3\n                /* \"#utility.yul\":5097:5116   */\n              mstore\n                /* \"#utility.yul\":5149:5153   */\n              0x20\n                /* \"#utility.yul\":5144:5147   */\n              dup3\n                /* \"#utility.yul\":5140:5154   */\n              add\n                /* \"#utility.yul\":5125:5154   */\n              swap1\n              pop\n                /* \"#utility.yul\":4991:5160   */\n              swap3\n              swap2\n              pop\n              pop\n              jump\t// out\n                /* \"#utility.yul\":5166:5391   */\n            tag_182:\n                /* \"#utility.yul\":5306:5340   */\n              0x5061796d656e7453706c69747465723a206163636f756e7420686173206e6f20\n                /* \"#utility.yul\":5302:5303   */\n              0x00\n                /* \"#utility.yul\":5294:5300   */\n              dup3\n                /* \"#utility.yul\":5290:5304   */\n              add\n                /* \"#utility.yul\":5283:5341   */\n              mstore\n                /* \"#utility.yul\":5375:5383   */\n              0x7368617265730000000000000000000000000000000000000000000000000000\n                /* \"#utility.yul\":5370:5372   */\n              0x20\n                /* \"#utility.yul\":5362:5368   */\n              dup3\n                /* \"#utility.yul\":5358:5373   */\n              add\n                /* \"#utility.yul\":5351:5384   */\n              mstore\n                /* \"#utility.yul\":5166:5391   */\n              pop\n              jump\t// out\n                /* \"#utility.yul\":5397:5763   */\n            tag_183:\n                /* \"#utility.yul\":5539:5542   */\n              0x00\n                /* \"#utility.yul\":5560:5627   */\n              tag_264\n                /* \"#utility.yul\":5624:5626   */\n              0x26\n                /* \"#utility.yul\":5619:5622   */\n              dup4\n                /* \"#utility.yul\":5560:5627   */\n              tag_181\n              jump\t// in\n            tag_264:\n                /* \"#utility.yul\":5553:5627   */\n              swap2\n              pop\n                /* \"#utility.yul\":5636:5729   */\n              tag_265\n                /* \"#utility.yul\":5725:5728   */\n              dup3\n                /* \"#utility.yul\":5636:5729   */\n              tag_182\n              jump\t// in\n            tag_265:\n                /* \"#utility.yul\":5754:5756   */\n              0x40\n                /* \"#utility.yul\":5749:5752   */\n              dup3\n                /* \"#utility.yul\":5745:5757   */\n              add\n                /* \"#utility.yul\":5738:5757   */\n              swap1\n              pop\n                /* \"#utility.yul\":5397:5763   */\n              swap2\n              swap1\n              pop\n              jump\t// out\n                /* \"#utility.yul\":5769:6188   */\n            tag_83:\n                /* \"#utility.yul\":5935:5939   */\n              0x00\n                /* \"#utility.yul\":5973:5975   */\n              0x20\n                /* \"#utility.yul\":5962:5971   */\n              dup3\n                /* \"#utility.yul\":5958:5976   */\n              add\n                /* \"#utility.yul\":5950:5976   */\n              swap1\n              pop\n                /* \"#utility.yul\":6022:6031   */\n              dup2\n                /* \"#utility.yul\":6016:6020   */\n              dup2\n                /* \"#utility.yul\":6012:6032   */\n              sub\n                /* \"#utility.yul\":6008:6009   */\n              0x00\n                /* \"#utility.yul\":5997:6006   */\n              dup4\n                /* \"#utility.yul\":5993:6010   */\n              add\n                /* \"#utility.yul\":5986:6033   */\n              mstore\n                /* \"#utility.yul\":6050:6181   */\n              tag_267\n                /* \"#utility.yul\":6176:6180   */\n              dup2\n                /* \"#utility.yul\":6050:6181   */\n              tag_183\n              jump\t// in\n            tag_267:\n                /* \"#utility.yul\":6042:6181   */\n              swap1\n              pop\n                /* \"#utility.yul\":5769:6188   */\n              swap2\n              swap1\n              pop\n              jump\t// out\n                /* \"#utility.yul\":6194:6424   */\n            tag_184:\n                /* \"#utility.yul\":6334:6368   */\n              0x5061796d656e7453706c69747465723a206163636f756e74206973206e6f7420\n                /* \"#utility.yul\":6330:6331   */\n              0x00\n                /* \"#utility.yul\":6322:6328   */\n              dup3\n                /* \"#utility.yul\":6318:6332   */\n              add\n                /* \"#utility.yul\":6311:6369   */\n              mstore\n                /* \"#utility.yul\":6403:6416   */\n              0x647565207061796d656e74000000000000000000000000000000000000000000\n                /* \"#utility.yul\":6398:6400   */\n              0x20\n                /* \"#utility.yul\":6390:6396   */\n              dup3\n                /* \"#utility.yul\":6386:6401   */\n              add\n                /* \"#utility.yul\":6379:6417   */\n              mstore\n                /* \"#utility.yul\":6194:6424   */\n              pop\n              jump\t// out\n                /* \"#utility.yul\":6430:6796   */\n            tag_185:\n                /* \"#utility.yul\":6572:6575   */\n              0x00\n                /* \"#utility.yul\":6593:6660   */\n              tag_270\n                /* \"#utility.yul\":6657:6659   */\n              0x2b\n                /* \"#utility.yul\":6652:6655   */\n              dup4\n                /* \"#utility.yul\":6593:6660   */\n              tag_181\n              jump\t// in\n            tag_270:\n                /* \"#utility.yul\":6586:6660   */\n              swap2\n              pop\n                /* \"#utility.yul\":6669:6762   */\n              tag_271\n                /* \"#utility.yul\":6758:6761   */\n              dup3\n                /* \"#utility.yul\":6669:6762   */\n              tag_184\n              jump\t// in\n            tag_271:\n                /* \"#utility.yul\":6787:6789   */\n              0x40\n                /* \"#utility.yul\":6782:6785   */\n              dup3\n                /* \"#utility.yul\":6778:6790   */\n              add\n                /* \"#utility.yul\":6771:6790   */\n              swap1\n              pop\n                /* \"#utility.yul\":6430:6796   */\n              swap2\n              swap1\n              pop\n              jump\t// out\n                /* \"#utility.yul\":6802:7221   */\n            tag_87:\n                /* \"#utility.yul\":6968:6972   */\n              0x00\n                /* \"#utility.yul\":7006:7008   */\n              0x20\n                /* \"#utility.yul\":6995:7004   */\n              dup3\n                /* \"#utility.yul\":6991:7009   */\n              add\n                /* \"#utility.yul\":6983:7009   */\n              swap1\n              pop\n                /* \"#utility.yul\":7055:7064   */\n              dup2\n                /* \"#utility.yul\":7049:7053   */\n              dup2\n                /* \"#utility.yul\":7045:7065   */\n              sub\n                /* \"#utility.yul\":7041:7042   */\n              0x00\n                /* \"#utility.yul\":7030:7039   */\n              dup4\n                /* \"#utility.yul\":7026:7043   */\n              add\n                /* \"#utility.yul\":7019:7066   */\n              mstore\n                /* \"#utility.yul\":7083:7214   */\n              tag_273\n                /* \"#utility.yul\":7209:7213   */\n              dup2\n                /* \"#utility.yul\":7083:7214   */\n              tag_185\n              jump\t// in\n            tag_273:\n                /* \"#utility.yul\":7075:7214   */\n              swap1\n              pop\n                /* \"#utility.yul\":6802:7221   */\n              swap2\n              swap1\n              pop\n              jump\t// out\n                /* \"#utility.yul\":7227:7407   */\n            tag_186:\n                /* \"#utility.yul\":7275:7352   */\n              0x4e487b7100000000000000000000000000000000000000000000000000000000\n                /* \"#utility.yul\":7272:7273   */\n              0x00\n                /* \"#utility.yul\":7265:7353   */\n              mstore\n                /* \"#utility.yul\":7372:7376   */\n              0x11\n                /* \"#utility.yul\":7369:7370   */\n              0x04\n                /* \"#utility.yul\":7362:7377   */\n              mstore\n                /* \"#utility.yul\":7396:7400   */\n              0x24\n                /* \"#utility.yul\":7393:7394   */\n              0x00\n                /* \"#utility.yul\":7386:7401   */\n              revert\n                /* \"#utility.yul\":7413:7604   */\n            tag_89:\n                /* \"#utility.yul\":7453:7456   */\n              0x00\n                /* \"#utility.yul\":7472:7492   */\n              tag_276\n                /* \"#utility.yul\":7490:7491   */\n              dup3\n                /* \"#utility.yul\":7472:7492   */\n              tag_166\n              jump\t// in\n            tag_276:\n                /* \"#utility.yul\":7467:7492   */\n              swap2\n              pop\n                /* \"#utility.yul\":7506:7526   */\n              tag_277\n                /* \"#utility.yul\":7524:7525   */\n              dup4\n                /* \"#utility.yul\":7506:7526   */\n              tag_166\n              jump\t// in\n            tag_277:\n                /* \"#utility.yul\":7501:7526   */\n              swap3\n              pop\n                /* \"#utility.yul\":7549:7550   */\n              dup3\n                /* \"#utility.yul\":7546:7547   */\n              dup3\n                /* \"#utility.yul\":7542:7551   */\n              add\n                /* \"#utility.yul\":7535:7551   */\n              swap1\n              pop\n                /* \"#utility.yul\":7570:7573   */\n              dup1\n                /* \"#utility.yul\":7567:7568   */\n              dup3\n                /* \"#utility.yul\":7564:7574   */\n              gt\n                /* \"#utility.yul\":7561:7597   */\n              iszero\n              tag_278\n              jumpi\n                /* \"#utility.yul\":7577:7595   */\n              tag_279\n              tag_186\n              jump\t// in\n            tag_279:\n                /* \"#utility.yul\":7561:7597   */\n            tag_278:\n                /* \"#utility.yul\":7413:7604   */\n              swap3\n              swap2\n              pop\n              pop\n              jump\t// out\n                /* \"#utility.yul\":7610:7670   */\n            tag_187:\n                /* \"#utility.yul\":7638:7641   */\n              0x00\n                /* \"#utility.yul\":7659:7664   */\n              dup2\n                /* \"#utility.yul\":7652:7664   */\n              swap1\n              pop\n                /* \"#utility.yul\":7610:7670   */\n              swap2\n              swap1\n              pop\n              jump\t// out\n                /* \"#utility.yul\":7676:7818   */\n            tag_188:\n                /* \"#utility.yul\":7726:7735   */\n              0x00\n                /* \"#utility.yul\":7759:7812   */\n              tag_282\n                /* \"#utility.yul\":7777:7811   */\n              tag_283\n                /* \"#utility.yul\":7786:7810   */\n              tag_284\n                /* \"#utility.yul\":7804:7809   */\n              dup5\n                /* \"#utility.yul\":7786:7810   */\n              tag_163\n              jump\t// in\n            tag_284:\n                /* \"#utility.yul\":7777:7811   */\n              tag_187\n              jump\t// in\n            tag_283:\n                /* \"#utility.yul\":7759:7812   */\n              tag_163\n              jump\t// in\n            tag_282:\n                /* \"#utility.yul\":7746:7812   */\n              swap1\n              pop\n                /* \"#utility.yul\":7676:7818   */\n              swap2\n              swap1\n              pop\n              jump\t// out\n                /* \"#utility.yul\":7824:7950   */\n            tag_189:\n                /* \"#utility.yul\":7874:7883   */\n              0x00\n                /* \"#utility.yul\":7907:7944   */\n              tag_286\n                /* \"#utility.yul\":7938:7943   */\n              dup3\n                /* \"#utility.yul\":7907:7944   */\n              tag_188\n              jump\t// in\n            tag_286:\n                /* \"#utility.yul\":7894:7944   */\n              swap1\n              pop\n                /* \"#utility.yul\":7824:7950   */\n              swap2\n              swap1\n              pop\n              jump\t// out\n                /* \"#utility.yul\":7956:8090   */\n            tag_190:\n                /* \"#utility.yul\":8014:8023   */\n              0x00\n                /* \"#utility.yul\":8047:8084   */\n              tag_288\n                /* \"#utility.yul\":8078:8083   */\n              dup3\n                /* \"#utility.yul\":8047:8084   */\n              tag_189\n              jump\t// in\n            tag_288:\n                /* \"#utility.yul\":8034:8084   */\n              swap1\n              pop\n                /* \"#utility.yul\":7956:8090   */\n              swap2\n              swap1\n              pop\n              jump\t// out\n                /* \"#utility.yul\":8096:8243   */\n            tag_191:\n                /* \"#utility.yul\":8191:8236   */\n              tag_290\n                /* \"#utility.yul\":8230:8235   */\n              dup2\n                /* \"#utility.yul\":8191:8236   */\n              tag_190\n              jump\t// in\n            tag_290:\n                /* \"#utility.yul\":8186:8189   */\n              dup3\n                /* \"#utility.yul\":8179:8237   */\n              mstore\n                /* \"#utility.yul\":8096:8243   */\n              pop\n              pop\n              jump\t// out\n                /* \"#utility.yul\":8249:8597   */\n            tag_93:\n                /* \"#utility.yul\":8378:8382   */\n              0x00\n                /* \"#utility.yul\":8416:8418   */\n              0x40\n                /* \"#utility.yul\":8405:8414   */\n              dup3\n                /* \"#utility.yul\":8401:8419   */\n              add\n                /* \"#utility.yul\":8393:8419   */\n              swap1\n              pop\n                /* \"#utility.yul\":8429:8508   */\n              tag_292\n                /* \"#utility.yul\":8505:8506   */\n              0x00\n                /* \"#utility.yul\":8494:8503   */\n              dup4\n                /* \"#utility.yul\":8490:8507   */\n              add\n                /* \"#utility.yul\":8481:8487   */\n              dup6\n                /* \"#utility.yul\":8429:8508   */\n              tag_191\n              jump\t// in\n            tag_292:\n                /* \"#utility.yul\":8518:8590   */\n              tag_293\n                /* \"#utility.yul\":8586:8588   */\n              0x20\n                /* \"#utility.yul\":8575:8584   */\n              dup4\n                /* \"#utility.yul\":8571:8589   */\n              add\n                /* \"#utility.yul\":8562:8568   */\n              dup5\n                /* \"#utility.yul\":8518:8590   */\n              tag_167\n              jump\t// in\n            tag_293:\n                /* \"#utility.yul\":8249:8597   */\n              swap4\n              swap3\n              pop\n              pop\n              pop\n              jump\t// out\n                /* \"#utility.yul\":8603:8783   */\n            tag_109:\n                /* \"#utility.yul\":8651:8728   */\n              0x4e487b7100000000000000000000000000000000000000000000000000000000\n                /* \"#utility.yul\":8648:8649   */\n              0x00\n                /* \"#utility.yul\":8641:8729   */\n              mstore\n                /* \"#utility.yul\":8748:8752   */\n              0x32\n                /* \"#utility.yul\":8745:8746   */\n              0x04\n                /* \"#utility.yul\":8738:8753   */\n              mstore\n                /* \"#utility.yul\":8772:8776   */\n              0x24\n                /* \"#utility.yul\":8769:8770   */\n              0x00\n                /* \"#utility.yul\":8762:8777   */\n              revert\n                /* \"#utility.yul\":8789:8932   */\n            tag_192:\n                /* \"#utility.yul\":8846:8851   */\n              0x00\n                /* \"#utility.yul\":8877:8883   */\n              dup2\n                /* \"#utility.yul\":8871:8884   */\n              mload\n                /* \"#utility.yul\":8862:8884   */\n              swap1\n              pop\n                /* \"#utility.yul\":8893:8926   */\n              tag_296\n                /* \"#utility.yul\":8920:8925   */\n              dup2\n                /* \"#utility.yul\":8893:8926   */\n              tag_179\n              jump\t// in\n            tag_296:\n                /* \"#utility.yul\":8789:8932   */\n              swap3\n              swap2\n              pop\n              pop\n              jump\t// out\n                /* \"#utility.yul\":8938:9289   */\n            tag_124:\n                /* \"#utility.yul\":9008:9014   */\n              0x00\n                /* \"#utility.yul\":9057:9059   */\n              0x20\n                /* \"#utility.yul\":9045:9054   */\n              dup3\n                /* \"#utility.yul\":9036:9043   */\n              dup5\n                /* \"#utility.yul\":9032:9055   */\n              sub\n                /* \"#utility.yul\":9028:9060   */\n              slt\n                /* \"#utility.yul\":9025:9144   */\n              iszero\n              tag_298\n              jumpi\n                /* \"#utility.yul\":9063:9142   */\n              tag_299\n              tag_169\n              jump\t// in\n            tag_299:\n                /* \"#utility.yul\":9025:9144   */\n            tag_298:\n                /* \"#utility.yul\":9183:9184   */\n              0x00\n                /* \"#utility.yul\":9208:9272   */\n              tag_300\n                /* \"#utility.yul\":9264:9271   */\n              dup5\n                /* \"#utility.yul\":9255:9261   */\n              dup3\n                /* \"#utility.yul\":9244:9253   */\n              dup6\n                /* \"#utility.yul\":9240:9262   */\n              add\n                /* \"#utility.yul\":9208:9272   */\n              tag_192\n              jump\t// in\n            tag_300:\n                /* \"#utility.yul\":9198:9272   */\n              swap2\n              pop\n                /* \"#utility.yul\":9154:9282   */\n              pop\n                /* \"#utility.yul\":8938:9289   */\n              swap3\n              swap2\n              pop\n              pop\n              jump\t// out\n                /* \"#utility.yul\":9295:9627   */\n            tag_134:\n                /* \"#utility.yul\":9416:9420   */\n              0x00\n                /* \"#utility.yul\":9454:9456   */\n              0x40\n                /* \"#utility.yul\":9443:9452   */\n              dup3\n                /* \"#utility.yul\":9439:9457   */\n              add\n                /* \"#utility.yul\":9431:9457   */\n              swap1\n              pop\n                /* \"#utility.yul\":9467:9538   */\n              tag_302\n                /* \"#utility.yul\":9535:9536   */\n              0x00\n                /* \"#utility.yul\":9524:9533   */\n              dup4\n                /* \"#utility.yul\":9520:9537   */\n              add\n                /* \"#utility.yul\":9511:9517   */\n              dup6\n                /* \"#utility.yul\":9467:9538   */\n              tag_167\n              jump\t// in\n            tag_302:\n                /* \"#utility.yul\":9548:9620   */\n              tag_303\n                /* \"#utility.yul\":9616:9618   */\n              0x20\n                /* \"#utility.yul\":9605:9614   */\n              dup4\n                /* \"#utility.yul\":9601:9619   */\n              add\n                /* \"#utility.yul\":9592:9598   */\n              dup5\n                /* \"#utility.yul\":9548:9620   */\n              tag_167\n              jump\t// in\n            tag_303:\n                /* \"#utility.yul\":9295:9627   */\n              swap4\n              swap3\n              pop\n              pop\n              pop\n              jump\t// out\n                /* \"#utility.yul\":9633:9780   */\n            tag_193:\n                /* \"#utility.yul\":9734:9745   */\n              0x00\n                /* \"#utility.yul\":9771:9774   */\n              dup2\n                /* \"#utility.yul\":9756:9774   */\n              swap1\n              pop\n                /* \"#utility.yul\":9633:9780   */\n              swap3\n              swap2\n              pop\n              pop\n              jump\t// out\n                /* \"#utility.yul\":9786:9900   */\n            tag_194:\n              pop\n              jump\t// out\n                /* \"#utility.yul\":9906:10304   */\n            tag_195:\n                /* \"#utility.yul\":10065:10068   */\n              0x00\n                /* \"#utility.yul\":10086:10169   */\n              tag_307\n                /* \"#utility.yul\":10167:10168   */\n              0x00\n                /* \"#utility.yul\":10162:10165   */\n              dup4\n                /* \"#utility.yul\":10086:10169   */\n              tag_193\n              jump\t// in\n            tag_307:\n                /* \"#utility.yul\":10079:10169   */\n              swap2\n              pop\n                /* \"#utility.yul\":10178:10271   */\n              tag_308\n                /* \"#utility.yul\":10267:10270   */\n              dup3\n                /* \"#utility.yul\":10178:10271   */\n              tag_194\n              jump\t// in\n            tag_308:\n                /* \"#utility.yul\":10296:10297   */\n              0x00\n                /* \"#utility.yul\":10291:10294   */\n              dup3\n                /* \"#utility.yul\":10287:10298   */\n              add\n                /* \"#utility.yul\":10280:10298   */\n              swap1\n              pop\n                /* \"#utility.yul\":9906:10304   */\n              swap2\n              swap1\n              pop\n              jump\t// out\n                /* \"#utility.yul\":10310:10689   */\n            tag_136:\n                /* \"#utility.yul\":10494:10497   */\n              0x00\n                /* \"#utility.yul\":10516:10663   */\n              tag_310\n                /* \"#utility.yul\":10659:10662   */\n              dup3\n                /* \"#utility.yul\":10516:10663   */\n              tag_195\n              jump\t// in\n            tag_310:\n                /* \"#utility.yul\":10509:10663   */\n              swap2\n              pop\n                /* \"#utility.yul\":10680:10683   */\n              dup2\n                /* \"#utility.yul\":10673:10683   */\n              swap1\n              pop\n                /* \"#utility.yul\":10310:10689   */\n              swap2\n              swap1\n              pop\n              jump\t// out\n                /* \"#utility.yul\":10695:11105   */\n            tag_149:\n                /* \"#utility.yul\":10735:10742   */\n              0x00\n                /* \"#utility.yul\":10758:10778   */\n              tag_312\n                /* \"#utility.yul\":10776:10777   */\n              dup3\n                /* \"#utility.yul\":10758:10778   */\n              tag_166\n              jump\t// in\n            tag_312:\n                /* \"#utility.yul\":10753:10778   */\n              swap2\n              pop\n                /* \"#utility.yul\":10792:10812   */\n              tag_313\n                /* \"#utility.yul\":10810:10811   */\n              dup4\n                /* \"#utility.yul\":10792:10812   */\n              tag_166\n              jump\t// in\n            tag_313:\n                /* \"#utility.yul\":10787:10812   */\n              swap3\n              pop\n                /* \"#utility.yul\":10847:10848   */\n              dup3\n                /* \"#utility.yul\":10844:10845   */\n              dup3\n                /* \"#utility.yul\":10840:10849   */\n              mul\n                /* \"#utility.yul\":10869:10899   */\n              tag_314\n                /* \"#utility.yul\":10887:10898   */\n              dup2\n                /* \"#utility.yul\":10869:10899   */\n              tag_166\n              jump\t// in\n            tag_314:\n                /* \"#utility.yul\":10858:10899   */\n              swap2\n              pop\n                /* \"#utility.yul\":11048:11049   */\n              dup3\n                /* \"#utility.yul\":11039:11046   */\n              dup3\n                /* \"#utility.yul\":11035:11050   */\n              div\n                /* \"#utility.yul\":11032:11033   */\n              dup5\n                /* \"#utility.yul\":11029:11051   */\n              eq\n                /* \"#utility.yul\":11009:11010   */\n              dup4\n                /* \"#utility.yul\":11002:11011   */\n              iszero\n                /* \"#utility.yul\":10982:11065   */\n              or\n                /* \"#utility.yul\":10959:11098   */\n              tag_315\n              jumpi\n                /* \"#utility.yul\":11078:11096   */\n              tag_316\n              tag_186\n              jump\t// in\n            tag_316:\n                /* \"#utility.yul\":10959:11098   */\n            tag_315:\n                /* \"#utility.yul\":10743:11105   */\n              pop\n                /* \"#utility.yul\":10695:11105   */\n              swap3\n              swap2\n              pop\n              pop\n              jump\t// out\n                /* \"#utility.yul\":11111:11291   */\n            tag_196:\n                /* \"#utility.yul\":11159:11236   */\n              0x4e487b7100000000000000000000000000000000000000000000000000000000\n                /* \"#utility.yul\":11156:11157   */\n              0x00\n                /* \"#utility.yul\":11149:11237   */\n              mstore\n                /* \"#utility.yul\":11256:11260   */\n              0x12\n                /* \"#utility.yul\":11253:11254   */\n              0x04\n                /* \"#utility.yul\":11246:11261   */\n              mstore\n                /* \"#utility.yul\":11280:11284   */\n              0x24\n                /* \"#utility.yul\":11277:11278   */\n              0x00\n                /* \"#utility.yul\":11270:11285   */\n              revert\n                /* \"#utility.yul\":11297:11482   */\n            tag_151:\n                /* \"#utility.yul\":11337:11338   */\n              0x00\n                /* \"#utility.yul\":11354:11374   */\n              tag_319\n                /* \"#utility.yul\":11372:11373   */\n              dup3\n                /* \"#utility.yul\":11354:11374   */\n              tag_166\n              jump\t// in\n            tag_319:\n                /* \"#utility.yul\":11349:11374   */\n              swap2\n              pop\n                /* \"#utility.yul\":11388:11408   */\n              tag_320\n                /* \"#utility.yul\":11406:11407   */\n              dup4\n                /* \"#utility.yul\":11388:11408   */\n              tag_166\n              jump\t// in\n            tag_320:\n                /* \"#utility.yul\":11383:11408   */\n              swap3\n              pop\n                /* \"#utility.yul\":11427:11428   */\n              dup3\n                /* \"#utility.yul\":11417:11452   */\n              tag_321\n              jumpi\n                /* \"#utility.yul\":11432:11450   */\n              tag_322\n              tag_196\n              jump\t// in\n            tag_322:\n                /* \"#utility.yul\":11417:11452   */\n            tag_321:\n                /* \"#utility.yul\":11474:11475   */\n              dup3\n                /* \"#utility.yul\":11471:11472   */\n              dup3\n                /* \"#utility.yul\":11467:11476   */\n              div\n                /* \"#utility.yul\":11462:11476   */\n              swap1\n              pop\n                /* \"#utility.yul\":11297:11482   */\n              swap3\n              swap2\n              pop\n              pop\n              jump\t// out\n                /* \"#utility.yul\":11488:11682   */\n            tag_153:\n                /* \"#utility.yul\":11528:11532   */\n              0x00\n                /* \"#utility.yul\":11548:11568   */\n              tag_324\n                /* \"#utility.yul\":11566:11567   */\n              dup3\n                /* \"#utility.yul\":11548:11568   */\n              tag_166\n              jump\t// in\n            tag_324:\n                /* \"#utility.yul\":11543:11568   */\n              swap2\n              pop\n                /* \"#utility.yul\":11582:11602   */\n              tag_325\n                /* \"#utility.yul\":11600:11601   */\n              dup4\n                /* \"#utility.yul\":11582:11602   */\n              tag_166\n              jump\t// in\n            tag_325:\n                /* \"#utility.yul\":11577:11602   */\n              swap3\n              pop\n                /* \"#utility.yul\":11626:11627   */\n              dup3\n                /* \"#utility.yul\":11623:11624   */\n              dup3\n                /* \"#utility.yul\":11619:11628   */\n              sub\n                /* \"#utility.yul\":11611:11628   */\n              swap1\n              pop\n                /* \"#utility.yul\":11650:11651   */\n              dup2\n                /* \"#utility.yul\":11644:11648   */\n              dup2\n                /* \"#utility.yul\":11641:11652   */\n              gt\n                /* \"#utility.yul\":11638:11675   */\n              iszero\n              tag_326\n              jumpi\n                /* \"#utility.yul\":11655:11673   */\n              tag_327\n              tag_186\n              jump\t// in\n            tag_327:\n                /* \"#utility.yul\":11638:11675   */\n            tag_326:\n                /* \"#utility.yul\":11488:11682   */\n              swap3\n              swap2\n              pop\n              pop\n              jump\t// out\n\n            auxdata: 0xa264697066735822122016c553eab52de56a679c8ef39ee0a6292ce4fb694cee284a566cb2db64cf4d2264736f6c63430008140033\n        }\n    }\n\n    auxdata: 0xa2646970667358221220ce4668f599e0a49d08e28c1c25072c456a871ad249347cd1b27fed4b8de282fd64736f6c63430008140033\n}\n",
				"bytecode": {
					"linkReferences": {},
					"object": "60a060405234801561000f575f80fd5b5060405162002b6238038062002b6283398181016040528101906100339190610130565b5f73ffffffffffffffffffffffffffffffffffffffff168173ffffffffffffffffffffffffffffffffffffffff1603610098576040517fd92e233d00000000000000000000000000000000000000000000000000000000815260040160405180910390fd5b8073ffffffffffffffffffffffffffffffffffffffff1660808173ffffffffffffffffffffffffffffffffffffffff16815250505061015b565b5f80fd5b5f73ffffffffffffffffffffffffffffffffffffffff82169050919050565b5f6100ff826100d6565b9050919050565b61010f816100f5565b8114610119575f80fd5b50565b5f8151905061012a81610106565b92915050565b5f60208284031215610145576101446100d2565b5b5f6101528482850161011c565b91505092915050565b6080516129e1620001815f395f818160d90152818161025d01526105dc01526129e15ff3fe608060405234801562000010575f80fd5b506004361062000044575f3560e01c8063012d670714620000485780630abc9786146200007e5780639a3bbed314620000b4575b5f80fd5b62000066600480360381019062000060919062000655565b620000d6565b604051620000759190620006c8565b60405180910390f35b6200009c600480360381019062000096919062000655565b620005ab565b604051620000ab9190620006c8565b60405180910390f35b620000be620005da565b604051620000cd91906200074a565b60405180910390f35b5f7f000000000000000000000000000000000000000000000000000000000000000073ffffffffffffffffffffffffffffffffffffffff166333727c4d836040518263ffffffff1660e01b815260040162000132919062000776565b602060405180830381865afa1580156200014e573d5f803e3d5ffd5b505050506040513d601f19601f82011682018060405250810190620001749190620007cb565b620001b857816040517f2ca3e249000000000000000000000000000000000000000000000000000000008152600401620001af919062000776565b60405180910390fd5b5f73ffffffffffffffffffffffffffffffffffffffff165f808481526020019081526020015f205f9054906101000a900473ffffffffffffffffffffffffffffffffffffffff1673ffffffffffffffffffffffffffffffffffffffff16146200025a57816040517f61928f8300000000000000000000000000000000000000000000000000000000815260040162000251919062000776565b60405180910390fd5b5f7f000000000000000000000000000000000000000000000000000000000000000073ffffffffffffffffffffffffffffffffffffffff16635ee7c0f8846040518263ffffffff1660e01b8152600401620002b6919062000776565b5f60405180830381865afa158015620002d1573d5f803e3d5ffd5b505050506040513d5f823e3d601f19601f82011682018060405250810190620002fb919062000a2c565b90505f8151036200034557826040517f619bea3e0000000000000000000000000000000000000000000000000000000081526004016200033c919062000776565b60405180910390fd5b5f815167ffffffffffffffff8111156200036457620003636200080f565b5b604051908082528060200260200182016040528015620003935781602001602082028036833780820191505090505b5090505f825167ffffffffffffffff811115620003b557620003b46200080f565b5b604051908082528060200260200182016040528015620003e45781602001602082028036833780820191505090505b5090505f5b8351811015620004c25783818151811062000409576200040862000a7b565b5b60200260200101515f01518382815181106200042a576200042962000a7b565b5b602002602001019073ffffffffffffffffffffffffffffffffffffffff16908173ffffffffffffffffffffffffffffffffffffffff16815250508381815181106200047a576200047962000a7b565b5b60200260200101516020015161ffff16828281518110620004a0576200049f62000a7b565b5b6020026020010181815250508080620004b99062000ad5565b915050620003e9565b505f8282604051620004d490620005fe565b620004e192919062000caf565b604051809103905ff080158015620004fb573d5f803e3d5ffd5b509050809450845f808881526020019081526020015f205f6101000a81548173ffffffffffffffffffffffffffffffffffffffff021916908373ffffffffffffffffffffffffffffffffffffffff1602179055508473ffffffffffffffffffffffffffffffffffffffff16867f52f9632ff3693d165d9f371628466a9d6cebe353876fca1ccdf358c4e6fa3ec785856040516200059a92919062000caf565b60405180910390a350505050919050565b5f602052805f5260405f205f915054906101000a900473ffffffffffffffffffffffffffffffffffffffff1681565b7f000000000000000000000000000000000000000000000000000000000000000081565b611cc38062000ce983390190565b5f604051905090565b5f80fd5b5f80fd5b5f819050919050565b62000631816200061d565b81146200063c575f80fd5b50565b5f813590506200064f8162000626565b92915050565b5f602082840312156200066d576200066c62000615565b5b5f6200067c848285016200063f565b91505092915050565b5f73ffffffffffffffffffffffffffffffffffffffff82169050919050565b5f620006b08262000685565b9050919050565b620006c281620006a4565b82525050565b5f602082019050620006dd5f830184620006b7565b92915050565b5f819050919050565b5f6200070c62000706620007008462000685565b620006e3565b62000685565b9050919050565b5f6200071f82620006ec565b9050919050565b5f620007328262000713565b9050919050565b620007448162000726565b82525050565b5f6020820190506200075f5f83018462000739565b92915050565b62000770816200061d565b82525050565b5f6020820190506200078b5f83018462000765565b92915050565b5f8115159050919050565b620007a78162000791565b8114620007b2575f80fd5b50565b5f81519050620007c5816200079c565b92915050565b5f60208284031215620007e357620007e262000615565b5b5f620007f284828501620007b5565b91505092915050565b5f80fd5b5f601f19601f8301169050919050565b7f4e487b71000000000000000000000000000000000000000000000000000000005f52604160045260245ffd5b6200084782620007ff565b810181811067ffffffffffffffff821117156200086957620008686200080f565b5b80604052505050565b5f6200087d6200060c565b90506200088b82826200083c565b919050565b5f67ffffffffffffffff821115620008ad57620008ac6200080f565b5b602082029050602081019050919050565b5f80fd5b5f80fd5b620008d181620006a4565b8114620008dc575f80fd5b50565b5f81519050620008ef81620008c6565b92915050565b5f61ffff82169050919050565b6200090d81620008f5565b811462000918575f80fd5b50565b5f815190506200092b8162000902565b92915050565b5f60408284031215620009495762000948620008c2565b5b62000955604062000872565b90505f6200096684828501620008df565b5f8301525060206200097b848285016200091b565b60208301525092915050565b5f6200099d620009978462000890565b62000872565b90508083825260208201905060408402830185811115620009c357620009c2620008be565b5b835b81811015620009f05780620009db888262000931565b845260208401935050604081019050620009c5565b5050509392505050565b5f82601f83011262000a115762000a10620007fb565b5b815162000a2384826020860162000987565b91505092915050565b5f6020828403121562000a445762000a4362000615565b5b5f82015167ffffffffffffffff81111562000a645762000a6362000619565b5b62000a7284828501620009fa565b91505092915050565b7f4e487b71000000000000000000000000000000000000000000000000000000005f52603260045260245ffd5b7f4e487b71000000000000000000000000000000000000000000000000000000005f52601160045260245ffd5b5f62000ae1826200061d565b91507fffffffffffffffffffffffffffffffffffffffffffffffffffffffffffffffff820362000b165762000b1562000aa8565b5b600182019050919050565b5f81519050919050565b5f82825260208201905092915050565b5f819050602082019050919050565b62000b5581620006a4565b82525050565b5f62000b68838362000b4a565b60208301905092915050565b5f602082019050919050565b5f62000b8c8262000b21565b62000b98818562000b2b565b935062000ba58362000b3b565b805f5b8381101562000bdb57815162000bbf888262000b5b565b975062000bcc8362000b74565b92505060018101905062000ba8565b5085935050505092915050565b5f81519050919050565b5f82825260208201905092915050565b5f819050602082019050919050565b62000c1c816200061d565b82525050565b5f62000c2f838362000c11565b60208301905092915050565b5f602082019050919050565b5f62000c538262000be8565b62000c5f818562000bf2565b935062000c6c8362000c02565b805f5b8381101562000ca257815162000c86888262000c22565b975062000c938362000c3b565b92505060018101905062000c6f565b5085935050505092915050565b5f6040820190508181035f83015262000cc9818562000b80565b9050818103602083015262000cdf818462000c47565b9050939250505056fe608060405260405162001cc338038062001cc3833981810160405281019062000029919062000643565b805182511462000070576040517f08c379a000000000000000000000000000000000000000000000000000000000815260040162000067906200074a565b60405180910390fd5b5f825111620000b6576040517f08c379a0000000000000000000000000000000000000000000000000000000008152600401620000ad90620007b8565b60405180910390fd5b5f5b825181101562000124576200010e838281518110620000dc57620000db620007d8565b5b6020026020010151838381518110620000fa57620000f9620007d8565b5b60200260200101516200012d60201b60201c565b80806200011b9062000832565b915050620000b8565b50505062000a9b565b5f73ffffffffffffffffffffffffffffffffffffffff168273ffffffffffffffffffffffffffffffffffffffff16036200019e576040517f08c379a00000000000000000000000000000000000000000000000000000000081526004016200019590620008f2565b60405180910390fd5b5f8111620001e3576040517f08c379a0000000000000000000000000000000000000000000000000000000008152600401620001da9062000960565b60405180910390fd5b5f60025f8473ffffffffffffffffffffffffffffffffffffffff1673ffffffffffffffffffffffffffffffffffffffff1681526020019081526020015f20541462000265576040517f08c379a00000000000000000000000000000000000000000000000000000000081526004016200025c90620009f4565b60405180910390fd5b600482908060018154018082558091505060019003905f5260205f20015f9091909190916101000a81548173ffffffffffffffffffffffffffffffffffffffff021916908373ffffffffffffffffffffffffffffffffffffffff1602179055508060025f8473ffffffffffffffffffffffffffffffffffffffff1673ffffffffffffffffffffffffffffffffffffffff1681526020019081526020015f2081905550805f5462000316919062000a14565b5f819055507f40c340f65e17194d14ddddb073d3c9f888e3cb52b5aae0c6c7706b4fbc905fac82826040516200034e92919062000a70565b60405180910390a15050565b5f604051905090565b5f80fd5b5f80fd5b5f80fd5b5f601f19601f8301169050919050565b7f4e487b71000000000000000000000000000000000000000000000000000000005f52604160045260245ffd5b620003b7826200036f565b810181811067ffffffffffffffff82111715620003d957620003d86200037f565b5b80604052505050565b5f620003ed6200035a565b9050620003fb8282620003ac565b919050565b5f67ffffffffffffffff8211156200041d576200041c6200037f565b5b602082029050602081019050919050565b5f80fd5b5f73ffffffffffffffffffffffffffffffffffffffff82169050919050565b5f6200045d8262000432565b9050919050565b6200046f8162000451565b81146200047a575f80fd5b50565b5f815190506200048d8162000464565b92915050565b5f620004a9620004a38462000400565b620003e2565b90508083825260208201905060208402830185811115620004cf57620004ce6200042e565b5b835b81811015620004fc5780620004e788826200047d565b845260208401935050602081019050620004d1565b5050509392505050565b5f82601f8301126200051d576200051c6200036b565b5b81516200052f84826020860162000493565b91505092915050565b5f67ffffffffffffffff8211156200055557620005546200037f565b5b602082029050602081019050919050565b5f819050919050565b6200057a8162000566565b811462000585575f80fd5b50565b5f8151905062000598816200056f565b92915050565b5f620005b4620005ae8462000538565b620003e2565b90508083825260208201905060208402830185811115620005da57620005d96200042e565b5b835b81811015620006075780620005f2888262000588565b845260208401935050602081019050620005dc565b5050509392505050565b5f82601f8301126200062857620006276200036b565b5b81516200063a8482602086016200059e565b91505092915050565b5f80604083850312156200065c576200065b62000363565b5b5f83015167ffffffffffffffff8111156200067c576200067b62000367565b5b6200068a8582860162000506565b925050602083015167ffffffffffffffff811115620006ae57620006ad62000367565b5b620006bc8582860162000611565b9150509250929050565b5f82825260208201905092915050565b7f5061796d656e7453706c69747465723a2070617965657320616e6420736861725f8201527f6573206c656e677468206d69736d617463680000000000000000000000000000602082015250565b5f62000732603283620006c6565b91506200073f82620006d6565b604082019050919050565b5f6020820190508181035f830152620007638162000724565b9050919050565b7f5061796d656e7453706c69747465723a206e6f207061796565730000000000005f82015250565b5f620007a0601a83620006c6565b9150620007ad826200076a565b602082019050919050565b5f6020820190508181035f830152620007d18162000792565b9050919050565b7f4e487b71000000000000000000000000000000000000000000000000000000005f52603260045260245ffd5b7f4e487b71000000000000000000000000000000000000000000000000000000005f52601160045260245ffd5b5f6200083e8262000566565b91507fffffffffffffffffffffffffffffffffffffffffffffffffffffffffffffffff820362000873576200087262000805565b5b600182019050919050565b7f5061796d656e7453706c69747465723a206163636f756e7420697320746865205f8201527f7a65726f20616464726573730000000000000000000000000000000000000000602082015250565b5f620008da602c83620006c6565b9150620008e7826200087e565b604082019050919050565b5f6020820190508181035f8301526200090b81620008cc565b9050919050565b7f5061796d656e7453706c69747465723a207368617265732061726520300000005f82015250565b5f62000948601d83620006c6565b9150620009558262000912565b602082019050919050565b5f6020820190508181035f83015262000979816200093a565b9050919050565b7f5061796d656e7453706c69747465723a206163636f756e7420616c72656164795f8201527f2068617320736861726573000000000000000000000000000000000000000000602082015250565b5f620009dc602b83620006c6565b9150620009e98262000980565b604082019050919050565b5f6020820190508181035f83015262000a0d81620009ce565b9050919050565b5f62000a208262000566565b915062000a2d8362000566565b925082820190508082111562000a485762000a4762000805565b5b92915050565b62000a598162000451565b82525050565b62000a6a8162000566565b82525050565b5f60408201905062000a855f83018562000a4e565b62000a94602083018462000a5f565b9392505050565b61121a8062000aa95f395ff3fe60806040526004361061009f575f3560e01c80639852595c116100635780639852595c146101dc578063a3f8eace14610218578063c45ac05014610254578063ce7c2ac214610290578063d79779b2146102cc578063e33b7de314610308576100e6565b806319165587146100ea5780633a98ef3914610112578063406072a91461013c57806348b75044146101785780638b83209b146101a0576100e6565b366100e6577f6ef95f06320e7a25a04a175ca677b7052bdd97131872c2192525a629f51be7706100cd610332565b346040516100dc929190610c20565b60405180910390a1005b5f80fd5b3480156100f5575f80fd5b50610110600480360381019061010b9190610c86565b610339565b005b34801561011d575f80fd5b506101266104af565b6040516101339190610cb1565b60405180910390f35b348015610147575f80fd5b50610162600480360381019061015d9190610d2f565b6104b7565b60405161016f9190610cb1565b60405180910390f35b348015610183575f80fd5b5061019e60048036038101906101999190610d2f565b610539565b005b3480156101ab575f80fd5b506101c660048036038101906101c19190610d97565b61073f565b6040516101d39190610dc2565b60405180910390f35b3480156101e7575f80fd5b5061020260048036038101906101fd9190610ddb565b610783565b60405161020f9190610cb1565b60405180910390f35b348015610223575f80fd5b5061023e60048036038101906102399190610ddb565b6107c9565b60405161024b9190610cb1565b60405180910390f35b34801561025f575f80fd5b5061027a60048036038101906102759190610d2f565b6107fb565b6040516102879190610cb1565b60405180910390f35b34801561029b575f80fd5b506102b660048036038101906102b19190610ddb565b6108a7565b6040516102c39190610cb1565b60405180910390f35b3480156102d7575f80fd5b506102f260048036038101906102ed9190610e06565b6108ed565b6040516102ff9190610cb1565b60405180910390f35b348015610313575f80fd5b5061031c610933565b6040516103299190610cb1565b60405180910390f35b5f33905090565b5f60025f8373ffffffffffffffffffffffffffffffffffffffff1673ffffffffffffffffffffffffffffffffffffffff1681526020019081526020015f2054116103b8576040517f08c379a00000000000000000000000000000000000000000000000000000000081526004016103af90610eb1565b60405180910390fd5b5f6103c2826107c9565b90505f8103610406576040517f08c379a00000000000000000000000000000000000000000000000000000000081526004016103fd90610f3f565b60405180910390fd5b8060015f8282546104179190610f8a565b925050819055508060035f8473ffffffffffffffffffffffffffffffffffffffff1673ffffffffffffffffffffffffffffffffffffffff1681526020019081526020015f205f8282540192505081905550610472828261093c565b7fdf20fd1e76bc69d672e4814fafb2c449bba3a5369d8359adf9e05e6fde87b05682826040516104a3929190611018565b60405180910390a15050565b5f8054905090565b5f60065f8473ffffffffffffffffffffffffffffffffffffffff1673ffffffffffffffffffffffffffffffffffffffff1681526020019081526020015f205f8373ffffffffffffffffffffffffffffffffffffffff1673ffffffffffffffffffffffffffffffffffffffff1681526020019081526020015f2054905092915050565b5f60025f8373ffffffffffffffffffffffffffffffffffffffff1673ffffffffffffffffffffffffffffffffffffffff1681526020019081526020015f2054116105b8576040517f08c379a00000000000000000000000000000000000000000000000000000000081526004016105af90610eb1565b60405180910390fd5b5f6105c383836107fb565b90505f8103610607576040517f08c379a00000000000000000000000000000000000000000000000000000000081526004016105fe90610f3f565b60405180910390fd5b8060055f8573ffffffffffffffffffffffffffffffffffffffff1673ffffffffffffffffffffffffffffffffffffffff1681526020019081526020015f205f8282546106539190610f8a565b925050819055508060065f8573ffffffffffffffffffffffffffffffffffffffff1673ffffffffffffffffffffffffffffffffffffffff1681526020019081526020015f205f8473ffffffffffffffffffffffffffffffffffffffff1673ffffffffffffffffffffffffffffffffffffffff1681526020019081526020015f205f82825401925050819055506106ea838383610a02565b8273ffffffffffffffffffffffffffffffffffffffff167f3be5b7a71e84ed12875d241991c70855ac5817d847039e17a9d895c1ceb0f18a8383604051610732929190610c20565b60405180910390a2505050565b5f600482815481106107545761075361103f565b5b905f5260205f20015f9054906101000a900473ffffffffffffffffffffffffffffffffffffffff169050919050565b5f60035f8373ffffffffffffffffffffffffffffffffffffffff1673ffffffffffffffffffffffffffffffffffffffff1681526020019081526020015f20549050919050565b5f806107d3610933565b476107de9190610f8a565b90506107f383826107ee86610783565b610a81565b915050919050565b5f80610806846108ed565b8473ffffffffffffffffffffffffffffffffffffffff166370a08231306040518263ffffffff1660e01b815260040161083f9190610dc2565b602060405180830381865afa15801561085a573d5f803e3d5ffd5b505050506040513d601f19601f8201168201806040525081019061087e9190611080565b6108889190610f8a565b905061089e838261089987876104b7565b610a81565b91505092915050565b5f60025f8373ffffffffffffffffffffffffffffffffffffffff1673ffffffffffffffffffffffffffffffffffffffff1681526020019081526020015f20549050919050565b5f60055f8373ffffffffffffffffffffffffffffffffffffffff1673ffffffffffffffffffffffffffffffffffffffff1681526020019081526020015f20549050919050565b5f600154905090565b804710156109835747816040517fcf47918100000000000000000000000000000000000000000000000000000000815260040161097a9291906110ab565b60405180910390fd5b5f808373ffffffffffffffffffffffffffffffffffffffff16836040516109a9906110ff565b5f6040518083038185875af1925050503d805f81146109e3576040519150601f19603f3d011682016040523d82523d5f602084013e6109e8565b606091505b5091509150816109fc576109fb81610aeb565b5b50505050565b610a7c838473ffffffffffffffffffffffffffffffffffffffff1663a9059cbb8585604051602401610a35929190610c20565b604051602081830303815290604052915060e01b6020820180517bffffffffffffffffffffffffffffffffffffffffffffffffffffffff8381831617835250505050610b2e565b505050565b5f815f5460025f8773ffffffffffffffffffffffffffffffffffffffff1673ffffffffffffffffffffffffffffffffffffffff1681526020019081526020015f205485610ace9190611113565b610ad89190611181565b610ae291906111b1565b90509392505050565b5f81511115610afc57805160208201fd5b6040517fd6bda27500000000000000000000000000000000000000000000000000000000815260040160405180910390fd5b5f8060205f8451602086015f885af180610b4d576040513d5f823e3d81fd5b3d92505f519150505f8214610b66576001811415610b81565b5f8473ffffffffffffffffffffffffffffffffffffffff163b145b15610bc357836040517f5274afe7000000000000000000000000000000000000000000000000000000008152600401610bba9190610dc2565b60405180910390fd5b50505050565b5f73ffffffffffffffffffffffffffffffffffffffff82169050919050565b5f610bf282610bc9565b9050919050565b610c0281610be8565b82525050565b5f819050919050565b610c1a81610c08565b82525050565b5f604082019050610c335f830185610bf9565b610c406020830184610c11565b9392505050565b5f80fd5b5f610c5582610bc9565b9050919050565b610c6581610c4b565b8114610c6f575f80fd5b50565b5f81359050610c8081610c5c565b92915050565b5f60208284031215610c9b57610c9a610c47565b5b5f610ca884828501610c72565b91505092915050565b5f602082019050610cc45f830184610c11565b92915050565b5f610cd482610be8565b9050919050565b610ce481610cca565b8114610cee575f80fd5b50565b5f81359050610cff81610cdb565b92915050565b610d0e81610be8565b8114610d18575f80fd5b50565b5f81359050610d2981610d05565b92915050565b5f8060408385031215610d4557610d44610c47565b5b5f610d5285828601610cf1565b9250506020610d6385828601610d1b565b9150509250929050565b610d7681610c08565b8114610d80575f80fd5b50565b5f81359050610d9181610d6d565b92915050565b5f60208284031215610dac57610dab610c47565b5b5f610db984828501610d83565b91505092915050565b5f602082019050610dd55f830184610bf9565b92915050565b5f60208284031215610df057610def610c47565b5b5f610dfd84828501610d1b565b91505092915050565b5f60208284031215610e1b57610e1a610c47565b5b5f610e2884828501610cf1565b91505092915050565b5f82825260208201905092915050565b7f5061796d656e7453706c69747465723a206163636f756e7420686173206e6f205f8201527f7368617265730000000000000000000000000000000000000000000000000000602082015250565b5f610e9b602683610e31565b9150610ea682610e41565b604082019050919050565b5f6020820190508181035f830152610ec881610e8f565b9050919050565b7f5061796d656e7453706c69747465723a206163636f756e74206973206e6f74205f8201527f647565207061796d656e74000000000000000000000000000000000000000000602082015250565b5f610f29602b83610e31565b9150610f3482610ecf565b604082019050919050565b5f6020820190508181035f830152610f5681610f1d565b9050919050565b7f4e487b71000000000000000000000000000000000000000000000000000000005f52601160045260245ffd5b5f610f9482610c08565b9150610f9f83610c08565b9250828201905080821115610fb757610fb6610f5d565b5b92915050565b5f819050919050565b5f610fe0610fdb610fd684610bc9565b610fbd565b610bc9565b9050919050565b5f610ff182610fc6565b9050919050565b5f61100282610fe7565b9050919050565b61101281610ff8565b82525050565b5f60408201905061102b5f830185611009565b6110386020830184610c11565b9392505050565b7f4e487b71000000000000000000000000000000000000000000000000000000005f52603260045260245ffd5b5f8151905061107a81610d6d565b92915050565b5f6020828403121561109557611094610c47565b5b5f6110a28482850161106c565b91505092915050565b5f6040820190506110be5f830185610c11565b6110cb6020830184610c11565b9392505050565b5f81905092915050565b50565b5f6110ea5f836110d2565b91506110f5826110dc565b5f82019050919050565b5f611109826110df565b9150819050919050565b5f61111d82610c08565b915061112883610c08565b925082820261113681610c08565b9150828204841483151761114d5761114c610f5d565b5b5092915050565b7f4e487b71000000000000000000000000000000000000000000000000000000005f52601260045260245ffd5b5f61118b82610c08565b915061119683610c08565b9250826111a6576111a5611154565b5b828204905092915050565b5f6111bb82610c08565b91506111c683610c08565b92508282039050818111156111de576111dd610f5d565b5b9291505056fea264697066735822122016c553eab52de56a679c8ef39ee0a6292ce4fb694cee284a566cb2db64cf4d2264736f6c63430008140033a2646970667358221220ce4668f599e0a49d08e28c1c25072c456a871ad249347cd1b27fed4b8de282fd64736f6c63430008140033",
					"opcodes": "PUSH1 0xA0 PUSH1 0x40 MSTORE CALLVALUE DUP1 ISZERO PUSH2 0xF JUMPI PUSH0 DUP1 REVERT JUMPDEST POP PUSH1 0x40 MLOAD PUSH3 0x2B62 CODESIZE SUB DUP1 PUSH3 0x2B62 DUP4 CODECOPY DUP2 DUP2 ADD PUSH1 0x40 MSTORE DUP2 ADD SWAP1 PUSH2 0x33 SWAP2 SWAP1 PUSH2 0x130 JUMP JUMPDEST PUSH0 PUSH20 0xFFFFFFFFFFFFFFFFFFFFFFFFFFFFFFFFFFFFFFFF AND DUP2 PUSH20 0xFFFFFFFFFFFFFFFFFFFFFFFFFFFFFFFFFFFFFFFF AND SUB PUSH2 0x98 JUMPI PUSH1 0x40 MLOAD PUSH32 0xD92E233D00000000000000000000000000000000000000000000000000000000 DUP2 MSTORE PUSH1 0x4 ADD PUSH1 0x40 MLOAD DUP1 SWAP2 SUB SWAP1 REVERT JUMPDEST DUP1 PUSH20 0xFFFFFFFFFFFFFFFFFFFFFFFFFFFFFFFFFFFFFFFF AND PUSH1 0x80 DUP2 PUSH20 0xFFFFFFFFFFFFFFFFFFFFFFFFFFFFFFFFFFFFFFFF AND DUP2 MSTORE POP POP POP PUSH2 0x15B JUMP JUMPDEST PUSH0 DUP1 REVERT JUMPDEST PUSH0 PUSH20 0xFFFFFFFFFFFFFFFFFFFFFFFFFFFFFFFFFFFFFFFF DUP3 AND SWAP1 POP SWAP2 SWAP1 POP JUMP JUMPDEST PUSH0 PUSH2 0xFF DUP3 PUSH2 0xD6 JUMP JUMPDEST SWAP1 POP SWAP2 SWAP1 POP JUMP JUMPDEST PUSH2 0x10F DUP2 PUSH2 0xF5 JUMP JUMPDEST DUP2 EQ PUSH2 0x119 JUMPI PUSH0 DUP1 REVERT JUMPDEST POP JUMP JUMPDEST PUSH0 DUP2 MLOAD SWAP1 POP PUSH2 0x12A DUP2 PUSH2 0x106 JUMP JUMPDEST SWAP3 SWAP2 POP POP JUMP JUMPDEST PUSH0 PUSH1 0x20 DUP3 DUP5 SUB SLT ISZERO PUSH2 0x145 JUMPI PUSH2 0x144 PUSH2 0xD2 JUMP JUMPDEST JUMPDEST PUSH0 PUSH2 0x152 DUP5 DUP3 DUP6 ADD PUSH2 0x11C JUMP JUMPDEST SWAP2 POP POP SWAP3 SWAP2 POP POP JUMP JUMPDEST PUSH1 0x80 MLOAD PUSH2 0x29E1 PUSH3 0x181 PUSH0 CODECOPY PUSH0 DUP2 DUP2 PUSH1 0xD9 ADD MSTORE DUP2 DUP2 PUSH2 0x25D ADD MSTORE PUSH2 0x5DC ADD MSTORE PUSH2 0x29E1 PUSH0 RETURN INVALID PUSH1 0x80 PUSH1 0x40 MSTORE CALLVALUE DUP1 ISZERO PUSH3 0x10 JUMPI PUSH0 DUP1 REVERT JUMPDEST POP PUSH1 0x4 CALLDATASIZE LT PUSH3 0x44 JUMPI PUSH0 CALLDATALOAD PUSH1 0xE0 SHR DUP1 PUSH4 0x12D6707 EQ PUSH3 0x48 JUMPI DUP1 PUSH4 0xABC9786 EQ PUSH3 0x7E JUMPI DUP1 PUSH4 0x9A3BBED3 EQ PUSH3 0xB4 JUMPI JUMPDEST PUSH0 DUP1 REVERT JUMPDEST PUSH3 0x66 PUSH1 0x4 DUP1 CALLDATASIZE SUB DUP2 ADD SWAP1 PUSH3 0x60 SWAP2 SWAP1 PUSH3 0x655 JUMP JUMPDEST PUSH3 0xD6 JUMP JUMPDEST PUSH1 0x40 MLOAD PUSH3 0x75 SWAP2 SWAP1 PUSH3 0x6C8 JUMP JUMPDEST PUSH1 0x40 MLOAD DUP1 SWAP2 SUB SWAP1 RETURN JUMPDEST PUSH3 0x9C PUSH1 0x4 DUP1 CALLDATASIZE SUB DUP2 ADD SWAP1 PUSH3 0x96 SWAP2 SWAP1 PUSH3 0x655 JUMP JUMPDEST PUSH3 0x5AB JUMP JUMPDEST PUSH1 0x40 MLOAD PUSH3 0xAB SWAP2 SWAP1 PUSH3 0x6C8 JUMP JUMPDEST PUSH1 0x40 MLOAD DUP1 SWAP2 SUB SWAP1 RETURN JUMPDEST PUSH3 0xBE PUSH3 0x5DA JUMP JUMPDEST PUSH1 0x40 MLOAD PUSH3 0xCD SWAP2 SWAP1 PUSH3 0x74A JUMP JUMPDEST PUSH1 0x40 MLOAD DUP1 SWAP2 SUB SWAP1 RETURN JUMPDEST PUSH0 PUSH32 0x0 PUSH20 0xFFFFFFFFFFFFFFFFFFFFFFFFFFFFFFFFFFFFFFFF AND PUSH4 0x33727C4D DUP4 PUSH1 0x40 MLOAD DUP3 PUSH4 0xFFFFFFFF AND PUSH1 0xE0 SHL DUP2 MSTORE PUSH1 0x4 ADD PUSH3 0x132 SWAP2 SWAP1 PUSH3 0x776 JUMP JUMPDEST PUSH1 0x20 PUSH1 0x40 MLOAD DUP1 DUP4 SUB DUP2 DUP7 GAS STATICCALL ISZERO DUP1 ISZERO PUSH3 0x14E JUMPI RETURNDATASIZE PUSH0 DUP1 RETURNDATACOPY RETURNDATASIZE PUSH0 REVERT JUMPDEST POP POP POP POP PUSH1 0x40 MLOAD RETURNDATASIZE PUSH1 0x1F NOT PUSH1 0x1F DUP3 ADD AND DUP3 ADD DUP1 PUSH1 0x40 MSTORE POP DUP2 ADD SWAP1 PUSH3 0x174 SWAP2 SWAP1 PUSH3 0x7CB JUMP JUMPDEST PUSH3 0x1B8 JUMPI DUP2 PUSH1 0x40 MLOAD PUSH32 0x2CA3E24900000000000000000000000000000000000000000000000000000000 DUP2 MSTORE PUSH1 0x4 ADD PUSH3 0x1AF SWAP2 SWAP1 PUSH3 0x776 JUMP JUMPDEST PUSH1 0x40 MLOAD DUP1 SWAP2 SUB SWAP1 REVERT JUMPDEST PUSH0 PUSH20 0xFFFFFFFFFFFFFFFFFFFFFFFFFFFFFFFFFFFFFFFF AND PUSH0 DUP1 DUP5 DUP2 MSTORE PUSH1 0x20 ADD SWAP1 DUP2 MSTORE PUSH1 0x20 ADD PUSH0 KECCAK256 PUSH0 SWAP1 SLOAD SWAP1 PUSH2 0x100 EXP SWAP1 DIV PUSH20 0xFFFFFFFFFFFFFFFFFFFFFFFFFFFFFFFFFFFFFFFF AND PUSH20 0xFFFFFFFFFFFFFFFFFFFFFFFFFFFFFFFFFFFFFFFF AND EQ PUSH3 0x25A JUMPI DUP2 PUSH1 0x40 MLOAD PUSH32 0x61928F8300000000000000000000000000000000000000000000000000000000 DUP2 MSTORE PUSH1 0x4 ADD PUSH3 0x251 SWAP2 SWAP1 PUSH3 0x776 JUMP JUMPDEST PUSH1 0x40 MLOAD DUP1 SWAP2 SUB SWAP1 REVERT JUMPDEST PUSH0 PUSH32 0x0 PUSH20 0xFFFFFFFFFFFFFFFFFFFFFFFFFFFFFFFFFFFFFFFF AND PUSH4 0x5EE7C0F8 DUP5 PUSH1 0x40 MLOAD DUP3 PUSH4 0xFFFFFFFF AND PUSH1 0xE0 SHL DUP2 MSTORE PUSH1 0x4 ADD PUSH3 0x2B6 SWAP2 SWAP1 PUSH3 0x776 JUMP JUMPDEST PUSH0 PUSH1 0x40 MLOAD DUP1 DUP4 SUB DUP2 DUP7 GAS STATICCALL ISZERO DUP1 ISZERO PUSH3 0x2D1 JUMPI RETURNDATASIZE PUSH0 DUP1 RETURNDATACOPY RETURNDATASIZE PUSH0 REVERT JUMPDEST POP POP POP POP PUSH1 0x40 MLOAD RETURNDATASIZE PUSH0 DUP3 RETURNDATACOPY RETURNDATASIZE PUSH1 0x1F NOT PUSH1 0x1F DUP3 ADD AND DUP3 ADD DUP1 PUSH1 0x40 MSTORE POP DUP2 ADD SWAP1 PUSH3 0x2FB SWAP2 SWAP1 PUSH3 0xA2C JUMP JUMPDEST SWAP1 POP PUSH0 DUP2 MLOAD SUB PUSH3 0x345 JUMPI DUP3 PUSH1 0x40 MLOAD PUSH32 0x619BEA3E00000000000000000000000000000000000000000000000000000000 DUP2 MSTORE PUSH1 0x4 ADD PUSH3 0x33C SWAP2 SWAP1 PUSH3 0x776 JUMP JUMPDEST PUSH1 0x40 MLOAD DUP1 SWAP2 SUB SWAP1 REVERT JUMPDEST PUSH0 DUP2 MLOAD PUSH8 0xFFFFFFFFFFFFFFFF DUP2 GT ISZERO PUSH3 0x364 JUMPI PUSH3 0x363 PUSH3 0x80F JUMP JUMPDEST JUMPDEST PUSH1 0x40 MLOAD SWAP1 DUP1 DUP3 MSTORE DUP1 PUSH1 0x20 MUL PUSH1 0x20 ADD DUP3 ADD PUSH1 0x40 MSTORE DUP1 ISZERO PUSH3 0x393 JUMPI DUP2 PUSH1 0x20 ADD PUSH1 0x20 DUP3 MUL DUP1 CALLDATASIZE DUP4 CALLDATACOPY DUP1 DUP3 ADD SWAP2 POP POP SWAP1 POP JUMPDEST POP SWAP1 POP PUSH0 DUP3 MLOAD PUSH8 0xFFFFFFFFFFFFFFFF DUP2 GT ISZERO PUSH3 0x3B5 JUMPI PUSH3 0x3B4 PUSH3 0x80F JUMP JUMPDEST JUMPDEST PUSH1 0x40 MLOAD SWAP1 DUP1 DUP3 MSTORE DUP1 PUSH1 0x20 MUL PUSH1 0x20 ADD DUP3 ADD PUSH1 0x40 MSTORE DUP1 ISZERO PUSH3 0x3E4 JUMPI DUP2 PUSH1 0x20 ADD PUSH1 0x20 DUP3 MUL DUP1 CALLDATASIZE DUP4 CALLDATACOPY DUP1 DUP3 ADD SWAP2 POP POP SWAP1 POP JUMPDEST POP SWAP1 POP PUSH0 JUMPDEST DUP4 MLOAD DUP2 LT ISZERO PUSH3 0x4C2 JUMPI DUP4 DUP2 DUP2 MLOAD DUP2 LT PUSH3 0x409 JUMPI PUSH3 0x408 PUSH3 0xA7B JUMP JUMPDEST JUMPDEST PUSH1 0x20 MUL PUSH1 0x20 ADD ADD MLOAD PUSH0 ADD MLOAD DUP4 DUP3 DUP2 MLOAD DUP2 LT PUSH3 0x42A JUMPI PUSH3 0x429 PUSH3 0xA7B JUMP JUMPDEST JUMPDEST PUSH1 0x20 MUL PUSH1 0x20 ADD ADD SWAP1 PUSH20 0xFFFFFFFFFFFFFFFFFFFFFFFFFFFFFFFFFFFFFFFF AND SWAP1 DUP2 PUSH20 0xFFFFFFFFFFFFFFFFFFFFFFFFFFFFFFFFFFFFFFFF AND DUP2 MSTORE POP POP DUP4 DUP2 DUP2 MLOAD DUP2 LT PUSH3 0x47A JUMPI PUSH3 0x479 PUSH3 0xA7B JUMP JUMPDEST JUMPDEST PUSH1 0x20 MUL PUSH1 0x20 ADD ADD MLOAD PUSH1 0x20 ADD MLOAD PUSH2 0xFFFF AND DUP3 DUP3 DUP2 MLOAD DUP2 LT PUSH3 0x4A0 JUMPI PUSH3 0x49F PUSH3 0xA7B JUMP JUMPDEST JUMPDEST PUSH1 0x20 MUL PUSH1 0x20 ADD ADD DUP2 DUP2 MSTORE POP POP DUP1 DUP1 PUSH3 0x4B9 SWAP1 PUSH3 0xAD5 JUMP JUMPDEST SWAP2 POP POP PUSH3 0x3E9 JUMP JUMPDEST POP PUSH0 DUP3 DUP3 PUSH1 0x40 MLOAD PUSH3 0x4D4 SWAP1 PUSH3 0x5FE JUMP JUMPDEST PUSH3 0x4E1 SWAP3 SWAP2 SWAP1 PUSH3 0xCAF JUMP JUMPDEST PUSH1 0x40 MLOAD DUP1 SWAP2 SUB SWAP1 PUSH0 CREATE DUP1 ISZERO DUP1 ISZERO PUSH3 0x4FB JUMPI RETURNDATASIZE PUSH0 DUP1 RETURNDATACOPY RETURNDATASIZE PUSH0 REVERT JUMPDEST POP SWAP1 POP DUP1 SWAP5 POP DUP5 PUSH0 DUP1 DUP9 DUP2 MSTORE PUSH1 0x20 ADD SWAP1 DUP2 MSTORE PUSH1 0x20 ADD PUSH0 KECCAK256 PUSH0 PUSH2 0x100 EXP DUP2 SLOAD DUP2 PUSH20 0xFFFFFFFFFFFFFFFFFFFFFFFFFFFFFFFFFFFFFFFF MUL NOT AND SWAP1 DUP4 PUSH20 0xFFFFFFFFFFFFFFFFFFFFFFFFFFFFFFFFFFFFFFFF AND MUL OR SWAP1 SSTORE POP DUP5 PUSH20 0xFFFFFFFFFFFFFFFFFFFFFFFFFFFFFFFFFFFFFFFF AND DUP7 PUSH32 0x52F9632FF3693D165D9F371628466A9D6CEBE353876FCA1CCDF358C4E6FA3EC7 DUP6 DUP6 PUSH1 0x40 MLOAD PUSH3 0x59A SWAP3 SWAP2 SWAP1 PUSH3 0xCAF JUMP JUMPDEST PUSH1 0x40 MLOAD DUP1 SWAP2 SUB SWAP1 LOG3 POP POP POP POP SWAP2 SWAP1 POP JUMP JUMPDEST PUSH0 PUSH1 0x20 MSTORE DUP1 PUSH0 MSTORE PUSH1 0x40 PUSH0 KECCAK256 PUSH0 SWAP2 POP SLOAD SWAP1 PUSH2 0x100 EXP SWAP1 DIV PUSH20 0xFFFFFFFFFFFFFFFFFFFFFFFFFFFFFFFFFFFFFFFF AND DUP2 JUMP JUMPDEST PUSH32 0x0 DUP2 JUMP JUMPDEST PUSH2 0x1CC3 DUP1 PUSH3 0xCE9 DUP4 CODECOPY ADD SWAP1 JUMP JUMPDEST PUSH0 PUSH1 0x40 MLOAD SWAP1 POP SWAP1 JUMP JUMPDEST PUSH0 DUP1 REVERT JUMPDEST PUSH0 DUP1 REVERT JUMPDEST PUSH0 DUP2 SWAP1 POP SWAP2 SWAP1 POP JUMP JUMPDEST PUSH3 0x631 DUP2 PUSH3 0x61D JUMP JUMPDEST DUP2 EQ PUSH3 0x63C JUMPI PUSH0 DUP1 REVERT JUMPDEST POP JUMP JUMPDEST PUSH0 DUP2 CALLDATALOAD SWAP1 POP PUSH3 0x64F DUP2 PUSH3 0x626 JUMP JUMPDEST SWAP3 SWAP2 POP POP JUMP JUMPDEST PUSH0 PUSH1 0x20 DUP3 DUP5 SUB SLT ISZERO PUSH3 0x66D JUMPI PUSH3 0x66C PUSH3 0x615 JUMP JUMPDEST JUMPDEST PUSH0 PUSH3 0x67C DUP5 DUP3 DUP6 ADD PUSH3 0x63F JUMP JUMPDEST SWAP2 POP POP SWAP3 SWAP2 POP POP JUMP JUMPDEST PUSH0 PUSH20 0xFFFFFFFFFFFFFFFFFFFFFFFFFFFFFFFFFFFFFFFF DUP3 AND SWAP1 POP SWAP2 SWAP1 POP JUMP JUMPDEST PUSH0 PUSH3 0x6B0 DUP3 PUSH3 0x685 JUMP JUMPDEST SWAP1 POP SWAP2 SWAP1 POP JUMP JUMPDEST PUSH3 0x6C2 DUP2 PUSH3 0x6A4 JUMP JUMPDEST DUP3 MSTORE POP POP JUMP JUMPDEST PUSH0 PUSH1 0x20 DUP3 ADD SWAP1 POP PUSH3 0x6DD PUSH0 DUP4 ADD DUP5 PUSH3 0x6B7 JUMP JUMPDEST SWAP3 SWAP2 POP POP JUMP JUMPDEST PUSH0 DUP2 SWAP1 POP SWAP2 SWAP1 POP JUMP JUMPDEST PUSH0 PUSH3 0x70C PUSH3 0x706 PUSH3 0x700 DUP5 PUSH3 0x685 JUMP JUMPDEST PUSH3 0x6E3 JUMP JUMPDEST PUSH3 0x685 JUMP JUMPDEST SWAP1 POP SWAP2 SWAP1 POP JUMP JUMPDEST PUSH0 PUSH3 0x71F DUP3 PUSH3 0x6EC JUMP JUMPDEST SWAP1 POP SWAP2 SWAP1 POP JUMP JUMPDEST PUSH0 PUSH3 0x732 DUP3 PUSH3 0x713 JUMP JUMPDEST SWAP1 POP SWAP2 SWAP1 POP JUMP JUMPDEST PUSH3 0x744 DUP2 PUSH3 0x726 JUMP JUMPDEST DUP3 MSTORE POP POP JUMP JUMPDEST PUSH0 PUSH1 0x20 DUP3 ADD SWAP1 POP PUSH3 0x75F PUSH0 DUP4 ADD DUP5 PUSH3 0x739 JUMP JUMPDEST SWAP3 SWAP2 POP POP JUMP JUMPDEST PUSH3 0x770 DUP2 PUSH3 0x61D JUMP JUMPDEST DUP3 MSTORE POP POP JUMP JUMPDEST PUSH0 PUSH1 0x20 DUP3 ADD SWAP1 POP PUSH3 0x78B PUSH0 DUP4 ADD DUP5 PUSH3 0x765 JUMP JUMPDEST SWAP3 SWAP2 POP POP JUMP JUMPDEST PUSH0 DUP2 ISZERO ISZERO SWAP1 POP SWAP2 SWAP1 POP JUMP JUMPDEST PUSH3 0x7A7 DUP2 PUSH3 0x791 JUMP JUMPDEST DUP2 EQ PUSH3 0x7B2 JUMPI PUSH0 DUP1 REVERT JUMPDEST POP JUMP JUMPDEST PUSH0 DUP2 MLOAD SWAP1 POP PUSH3 0x7C5 DUP2 PUSH3 0x79C JUMP JUMPDEST SWAP3 SWAP2 POP POP JUMP JUMPDEST PUSH0 PUSH1 0x20 DUP3 DUP5 SUB SLT ISZERO PUSH3 0x7E3 JUMPI PUSH3 0x7E2 PUSH3 0x615 JUMP JUMPDEST JUMPDEST PUSH0 PUSH3 0x7F2 DUP5 DUP3 DUP6 ADD PUSH3 0x7B5 JUMP JUMPDEST SWAP2 POP POP SWAP3 SWAP2 POP POP JUMP JUMPDEST PUSH0 DUP1 REVERT JUMPDEST PUSH0 PUSH1 0x1F NOT PUSH1 0x1F DUP4 ADD AND SWAP1 POP SWAP2 SWAP1 POP JUMP JUMPDEST PUSH32 0x4E487B7100000000000000000000000000000000000000000000000000000000 PUSH0 MSTORE PUSH1 0x41 PUSH1 0x4 MSTORE PUSH1 0x24 PUSH0 REVERT JUMPDEST PUSH3 0x847 DUP3 PUSH3 0x7FF JUMP JUMPDEST DUP2 ADD DUP2 DUP2 LT PUSH8 0xFFFFFFFFFFFFFFFF DUP3 GT OR ISZERO PUSH3 0x869 JUMPI PUSH3 0x868 PUSH3 0x80F JUMP JUMPDEST JUMPDEST DUP1 PUSH1 0x40 MSTORE POP POP POP JUMP JUMPDEST PUSH0 PUSH3 0x87D PUSH3 0x60C JUMP JUMPDEST SWAP1 POP PUSH3 0x88B DUP3 DUP3 PUSH3 0x83C JUMP JUMPDEST SWAP2 SWAP1 POP JUMP JUMPDEST PUSH0 PUSH8 0xFFFFFFFFFFFFFFFF DUP3 GT ISZERO PUSH3 0x8AD JUMPI PUSH3 0x8AC PUSH3 0x80F JUMP JUMPDEST JUMPDEST PUSH1 0x20 DUP3 MUL SWAP1 POP PUSH1 0x20 DUP2 ADD SWAP1 POP SWAP2 SWAP1 POP JUMP JUMPDEST PUSH0 DUP1 REVERT JUMPDEST PUSH0 DUP1 REVERT JUMPDEST PUSH3 0x8D1 DUP2 PUSH3 0x6A4 JUMP JUMPDEST DUP2 EQ PUSH3 0x8DC JUMPI PUSH0 DUP1 REVERT JUMPDEST POP JUMP JUMPDEST PUSH0 DUP2 MLOAD SWAP1 POP PUSH3 0x8EF DUP2 PUSH3 0x8C6 JUMP JUMPDEST SWAP3 SWAP2 POP POP JUMP JUMPDEST PUSH0 PUSH2 0xFFFF DUP3 AND SWAP1 POP SWAP2 SWAP1 POP JUMP JUMPDEST PUSH3 0x90D DUP2 PUSH3 0x8F5 JUMP JUMPDEST DUP2 EQ PUSH3 0x918 JUMPI PUSH0 DUP1 REVERT JUMPDEST POP JUMP JUMPDEST PUSH0 DUP2 MLOAD SWAP1 POP PUSH3 0x92B DUP2 PUSH3 0x902 JUMP JUMPDEST SWAP3 SWAP2 POP POP JUMP JUMPDEST PUSH0 PUSH1 0x40 DUP3 DUP5 SUB SLT ISZERO PUSH3 0x949 JUMPI PUSH3 0x948 PUSH3 0x8C2 JUMP JUMPDEST JUMPDEST PUSH3 0x955 PUSH1 0x40 PUSH3 0x872 JUMP JUMPDEST SWAP1 POP PUSH0 PUSH3 0x966 DUP5 DUP3 DUP6 ADD PUSH3 0x8DF JUMP JUMPDEST PUSH0 DUP4 ADD MSTORE POP PUSH1 0x20 PUSH3 0x97B DUP5 DUP3 DUP6 ADD PUSH3 0x91B JUMP JUMPDEST PUSH1 0x20 DUP4 ADD MSTORE POP SWAP3 SWAP2 POP POP JUMP JUMPDEST PUSH0 PUSH3 0x99D PUSH3 0x997 DUP5 PUSH3 0x890 JUMP JUMPDEST PUSH3 0x872 JUMP JUMPDEST SWAP1 POP DUP1 DUP4 DUP3 MSTORE PUSH1 0x20 DUP3 ADD SWAP1 POP PUSH1 0x40 DUP5 MUL DUP4 ADD DUP6 DUP2 GT ISZERO PUSH3 0x9C3 JUMPI PUSH3 0x9C2 PUSH3 0x8BE JUMP JUMPDEST JUMPDEST DUP4 JUMPDEST DUP2 DUP2 LT ISZERO PUSH3 0x9F0 JUMPI DUP1 PUSH3 0x9DB DUP9 DUP3 PUSH3 0x931 JUMP JUMPDEST DUP5 MSTORE PUSH1 0x20 DUP5 ADD SWAP4 POP POP PUSH1 0x40 DUP2 ADD SWAP1 POP PUSH3 0x9C5 JUMP JUMPDEST POP POP POP SWAP4 SWAP3 POP POP POP JUMP JUMPDEST PUSH0 DUP3 PUSH1 0x1F DUP4 ADD SLT PUSH3 0xA11 JUMPI PUSH3 0xA10 PUSH3 0x7FB JUMP JUMPDEST JUMPDEST DUP2 MLOAD PUSH3 0xA23 DUP5 DUP3 PUSH1 0x20 DUP7 ADD PUSH3 0x987 JUMP JUMPDEST SWAP2 POP POP SWAP3 SWAP2 POP POP JUMP JUMPDEST PUSH0 PUSH1 0x20 DUP3 DUP5 SUB SLT ISZERO PUSH3 0xA44 JUMPI PUSH3 0xA43 PUSH3 0x615 JUMP JUMPDEST JUMPDEST PUSH0 DUP3 ADD MLOAD PUSH8 0xFFFFFFFFFFFFFFFF DUP2 GT ISZERO PUSH3 0xA64 JUMPI PUSH3 0xA63 PUSH3 0x619 JUMP JUMPDEST JUMPDEST PUSH3 0xA72 DUP5 DUP3 DUP6 ADD PUSH3 0x9FA JUMP JUMPDEST SWAP2 POP POP SWAP3 SWAP2 POP POP JUMP JUMPDEST PUSH32 0x4E487B7100000000000000000000000000000000000000000000000000000000 PUSH0 MSTORE PUSH1 0x32 PUSH1 0x4 MSTORE PUSH1 0x24 PUSH0 REVERT JUMPDEST PUSH32 0x4E487B7100000000000000000000000000000000000000000000000000000000 PUSH0 MSTORE PUSH1 0x11 PUSH1 0x4 MSTORE PUSH1 0x24 PUSH0 REVERT JUMPDEST PUSH0 PUSH3 0xAE1 DUP3 PUSH3 0x61D JUMP JUMPDEST SWAP2 POP PUSH32 0xFFFFFFFFFFFFFFFFFFFFFFFFFFFFFFFFFFFFFFFFFFFFFFFFFFFFFFFFFFFFFFFF DUP3 SUB PUSH3 0xB16 JUMPI PUSH3 0xB15 PUSH3 0xAA8 JUMP JUMPDEST JUMPDEST PUSH1 0x1 DUP3 ADD SWAP1 POP SWAP2 SWAP1 POP JUMP JUMPDEST PUSH0 DUP2 MLOAD SWAP1 POP SWAP2 SWAP1 POP JUMP JUMPDEST PUSH0 DUP3 DUP3 MSTORE PUSH1 0x20 DUP3 ADD SWAP1 POP SWAP3 SWAP2 POP POP JUMP JUMPDEST PUSH0 DUP2 SWAP1 POP PUSH1 0x20 DUP3 ADD SWAP1 POP SWAP2 SWAP1 POP JUMP JUMPDEST PUSH3 0xB55 DUP2 PUSH3 0x6A4 JUMP JUMPDEST DUP3 MSTORE POP POP JUMP JUMPDEST PUSH0 PUSH3 0xB68 DUP4 DUP4 PUSH3 0xB4A JUMP JUMPDEST PUSH1 0x20 DUP4 ADD SWAP1 POP SWAP3 SWAP2 POP POP JUMP JUMPDEST PUSH0 PUSH1 0x20 DUP3 ADD SWAP1 POP SWAP2 SWAP1 POP JUMP JUMPDEST PUSH0 PUSH3 0xB8C DUP3 PUSH3 0xB21 JUMP JUMPDEST PUSH3 0xB98 DUP2 DUP6 PUSH3 0xB2B JUMP JUMPDEST SWAP4 POP PUSH3 0xBA5 DUP4 PUSH3 0xB3B JUMP JUMPDEST DUP1 PUSH0 JUMPDEST DUP4 DUP2 LT ISZERO PUSH3 0xBDB JUMPI DUP2 MLOAD PUSH3 0xBBF DUP9 DUP3 PUSH3 0xB5B JUMP JUMPDEST SWAP8 POP PUSH3 0xBCC DUP4 PUSH3 0xB74 JUMP JUMPDEST SWAP3 POP POP PUSH1 0x1 DUP2 ADD SWAP1 POP PUSH3 0xBA8 JUMP JUMPDEST POP DUP6 SWAP4 POP POP POP POP SWAP3 SWAP2 POP POP JUMP JUMPDEST PUSH0 DUP2 MLOAD SWAP1 POP SWAP2 SWAP1 POP JUMP JUMPDEST PUSH0 DUP3 DUP3 MSTORE PUSH1 0x20 DUP3 ADD SWAP1 POP SWAP3 SWAP2 POP POP JUMP JUMPDEST PUSH0 DUP2 SWAP1 POP PUSH1 0x20 DUP3 ADD SWAP1 POP SWAP2 SWAP1 POP JUMP JUMPDEST PUSH3 0xC1C DUP2 PUSH3 0x61D JUMP JUMPDEST DUP3 MSTORE POP POP JUMP JUMPDEST PUSH0 PUSH3 0xC2F DUP4 DUP4 PUSH3 0xC11 JUMP JUMPDEST PUSH1 0x20 DUP4 ADD SWAP1 POP SWAP3 SWAP2 POP POP JUMP JUMPDEST PUSH0 PUSH1 0x20 DUP3 ADD SWAP1 POP SWAP2 SWAP1 POP JUMP JUMPDEST PUSH0 PUSH3 0xC53 DUP3 PUSH3 0xBE8 JUMP JUMPDEST PUSH3 0xC5F DUP2 DUP6 PUSH3 0xBF2 JUMP JUMPDEST SWAP4 POP PUSH3 0xC6C DUP4 PUSH3 0xC02 JUMP JUMPDEST DUP1 PUSH0 JUMPDEST DUP4 DUP2 LT ISZERO PUSH3 0xCA2 JUMPI DUP2 MLOAD PUSH3 0xC86 DUP9 DUP3 PUSH3 0xC22 JUMP JUMPDEST SWAP8 POP PUSH3 0xC93 DUP4 PUSH3 0xC3B JUMP JUMPDEST SWAP3 POP POP PUSH1 0x1 DUP2 ADD SWAP1 POP PUSH3 0xC6F JUMP JUMPDEST POP DUP6 SWAP4 POP POP POP POP SWAP3 SWAP2 POP POP JUMP JUMPDEST PUSH0 PUSH1 0x40 DUP3 ADD SWAP1 POP DUP2 DUP2 SUB PUSH0 DUP4 ADD MSTORE PUSH3 0xCC9 DUP2 DUP6 PUSH3 0xB80 JUMP JUMPDEST SWAP1 POP DUP2 DUP2 SUB PUSH1 0x20 DUP4 ADD MSTORE PUSH3 0xCDF DUP2 DUP5 PUSH3 0xC47 JUMP JUMPDEST SWAP1 POP SWAP4 SWAP3 POP POP POP JUMP INVALID PUSH1 0x80 PUSH1 0x40 MSTORE PUSH1 0x40 MLOAD PUSH3 0x1CC3 CODESIZE SUB DUP1 PUSH3 0x1CC3 DUP4 CODECOPY DUP2 DUP2 ADD PUSH1 0x40 MSTORE DUP2 ADD SWAP1 PUSH3 0x29 SWAP2 SWAP1 PUSH3 0x643 JUMP JUMPDEST DUP1 MLOAD DUP3 MLOAD EQ PUSH3 0x70 JUMPI PUSH1 0x40 MLOAD PUSH32 0x8C379A000000000000000000000000000000000000000000000000000000000 DUP2 MSTORE PUSH1 0x4 ADD PUSH3 0x67 SWAP1 PUSH3 0x74A JUMP JUMPDEST PUSH1 0x40 MLOAD DUP1 SWAP2 SUB SWAP1 REVERT JUMPDEST PUSH0 DUP3 MLOAD GT PUSH3 0xB6 JUMPI PUSH1 0x40 MLOAD PUSH32 0x8C379A000000000000000000000000000000000000000000000000000000000 DUP2 MSTORE PUSH1 0x4 ADD PUSH3 0xAD SWAP1 PUSH3 0x7B8 JUMP JUMPDEST PUSH1 0x40 MLOAD DUP1 SWAP2 SUB SWAP1 REVERT JUMPDEST PUSH0 JUMPDEST DUP3 MLOAD DUP2 LT ISZERO PUSH3 0x124 JUMPI PUSH3 0x10E DUP4 DUP3 DUP2 MLOAD DUP2 LT PUSH3 0xDC JUMPI PUSH3 0xDB PUSH3 0x7D8 JUMP JUMPDEST JUMPDEST PUSH1 0x20 MUL PUSH1 0x20 ADD ADD MLOAD DUP4 DUP4 DUP2 MLOAD DUP2 LT PUSH3 0xFA JUMPI PUSH3 0xF9 PUSH3 0x7D8 JUMP JUMPDEST JUMPDEST PUSH1 0x20 MUL PUSH1 0x20 ADD ADD MLOAD PUSH3 0x12D PUSH1 0x20 SHL PUSH1 0x20 SHR JUMP JUMPDEST DUP1 DUP1 PUSH3 0x11B SWAP1 PUSH3 0x832 JUMP JUMPDEST SWAP2 POP POP PUSH3 0xB8 JUMP JUMPDEST POP POP POP PUSH3 0xA9B JUMP JUMPDEST PUSH0 PUSH20 0xFFFFFFFFFFFFFFFFFFFFFFFFFFFFFFFFFFFFFFFF AND DUP3 PUSH20 0xFFFFFFFFFFFFFFFFFFFFFFFFFFFFFFFFFFFFFFFF AND SUB PUSH3 0x19E JUMPI PUSH1 0x40 MLOAD PUSH32 0x8C379A000000000000000000000000000000000000000000000000000000000 DUP2 MSTORE PUSH1 0x4 ADD PUSH3 0x195 SWAP1 PUSH3 0x8F2 JUMP JUMPDEST PUSH1 0x40 MLOAD DUP1 SWAP2 SUB SWAP1 REVERT JUMPDEST PUSH0 DUP2 GT PUSH3 0x1E3 JUMPI PUSH1 0x40 MLOAD PUSH32 0x8C379A000000000000000000000000000000000000000000000000000000000 DUP2 MSTORE PUSH1 0x4 ADD PUSH3 0x1DA SWAP1 PUSH3 0x960 JUMP JUMPDEST PUSH1 0x40 MLOAD DUP1 SWAP2 SUB SWAP1 REVERT JUMPDEST PUSH0 PUSH1 0x2 PUSH0 DUP5 PUSH20 0xFFFFFFFFFFFFFFFFFFFFFFFFFFFFFFFFFFFFFFFF AND PUSH20 0xFFFFFFFFFFFFFFFFFFFFFFFFFFFFFFFFFFFFFFFF AND DUP2 MSTORE PUSH1 0x20 ADD SWAP1 DUP2 MSTORE PUSH1 0x20 ADD PUSH0 KECCAK256 SLOAD EQ PUSH3 0x265 JUMPI PUSH1 0x40 MLOAD PUSH32 0x8C379A000000000000000000000000000000000000000000000000000000000 DUP2 MSTORE PUSH1 0x4 ADD PUSH3 0x25C SWAP1 PUSH3 0x9F4 JUMP JUMPDEST PUSH1 0x40 MLOAD DUP1 SWAP2 SUB SWAP1 REVERT JUMPDEST PUSH1 0x4 DUP3 SWAP1 DUP1 PUSH1 0x1 DUP2 SLOAD ADD DUP1 DUP3 SSTORE DUP1 SWAP2 POP POP PUSH1 0x1 SWAP1 SUB SWAP1 PUSH0 MSTORE PUSH1 0x20 PUSH0 KECCAK256 ADD PUSH0 SWAP1 SWAP2 SWAP1 SWAP2 SWAP1 SWAP2 PUSH2 0x100 EXP DUP2 SLOAD DUP2 PUSH20 0xFFFFFFFFFFFFFFFFFFFFFFFFFFFFFFFFFFFFFFFF MUL NOT AND SWAP1 DUP4 PUSH20 0xFFFFFFFFFFFFFFFFFFFFFFFFFFFFFFFFFFFFFFFF AND MUL OR SWAP1 SSTORE POP DUP1 PUSH1 0x2 PUSH0 DUP5 PUSH20 0xFFFFFFFFFFFFFFFFFFFFFFFFFFFFFFFFFFFFFFFF AND PUSH20 0xFFFFFFFFFFFFFFFFFFFFFFFFFFFFFFFFFFFFFFFF AND DUP2 MSTORE PUSH1 0x20 ADD SWAP1 DUP2 MSTORE PUSH1 0x20 ADD PUSH0 KECCAK256 DUP2 SWAP1 SSTORE POP DUP1 PUSH0 SLOAD PUSH3 0x316 SWAP2 SWAP1 PUSH3 0xA14 JUMP JUMPDEST PUSH0 DUP2 SWAP1 SSTORE POP PUSH32 0x40C340F65E17194D14DDDDB073D3C9F888E3CB52B5AAE0C6C7706B4FBC905FAC DUP3 DUP3 PUSH1 0x40 MLOAD PUSH3 0x34E SWAP3 SWAP2 SWAP1 PUSH3 0xA70 JUMP JUMPDEST PUSH1 0x40 MLOAD DUP1 SWAP2 SUB SWAP1 LOG1 POP POP JUMP JUMPDEST PUSH0 PUSH1 0x40 MLOAD SWAP1 POP SWAP1 JUMP JUMPDEST PUSH0 DUP1 REVERT JUMPDEST PUSH0 DUP1 REVERT JUMPDEST PUSH0 DUP1 REVERT JUMPDEST PUSH0 PUSH1 0x1F NOT PUSH1 0x1F DUP4 ADD AND SWAP1 POP SWAP2 SWAP1 POP JUMP JUMPDEST PUSH32 0x4E487B7100000000000000000000000000000000000000000000000000000000 PUSH0 MSTORE PUSH1 0x41 PUSH1 0x4 MSTORE PUSH1 0x24 PUSH0 REVERT JUMPDEST PUSH3 0x3B7 DUP3 PUSH3 0x36F JUMP JUMPDEST DUP2 ADD DUP2 DUP2 LT PUSH8 0xFFFFFFFFFFFFFFFF DUP3 GT OR ISZERO PUSH3 0x3D9 JUMPI PUSH3 0x3D8 PUSH3 0x37F JUMP JUMPDEST JUMPDEST DUP1 PUSH1 0x40 MSTORE POP POP POP JUMP JUMPDEST PUSH0 PUSH3 0x3ED PUSH3 0x35A JUMP JUMPDEST SWAP1 POP PUSH3 0x3FB DUP3 DUP3 PUSH3 0x3AC JUMP JUMPDEST SWAP2 SWAP1 POP JUMP JUMPDEST PUSH0 PUSH8 0xFFFFFFFFFFFFFFFF DUP3 GT ISZERO PUSH3 0x41D JUMPI PUSH3 0x41C PUSH3 0x37F JUMP JUMPDEST JUMPDEST PUSH1 0x20 DUP3 MUL SWAP1 POP PUSH1 0x20 DUP2 ADD SWAP1 POP SWAP2 SWAP1 POP JUMP JUMPDEST PUSH0 DUP1 REVERT JUMPDEST PUSH0 PUSH20 0xFFFFFFFFFFFFFFFFFFFFFFFFFFFFFFFFFFFFFFFF DUP3 AND SWAP1 POP SWAP2 SWAP1 POP JUMP JUMPDEST PUSH0 PUSH3 0x45D DUP3 PUSH3 0x432 JUMP JUMPDEST SWAP1 POP SWAP2 SWAP1 POP JUMP JUMPDEST PUSH3 0x46F DUP2 PUSH3 0x451 JUMP JUMPDEST DUP2 EQ PUSH3 0x47A JUMPI PUSH0 DUP1 REVERT JUMPDEST POP JUMP JUMPDEST PUSH0 DUP2 MLOAD SWAP1 POP PUSH3 0x48D DUP2 PUSH3 0x464 JUMP JUMPDEST SWAP3 SWAP2 POP POP JUMP JUMPDEST PUSH0 PUSH3 0x4A9 PUSH3 0x4A3 DUP5 PUSH3 0x400 JUMP JUMPDEST PUSH3 0x3E2 JUMP JUMPDEST SWAP1 POP DUP1 DUP4 DUP3 MSTORE PUSH1 0x20 DUP3 ADD SWAP1 POP PUSH1 0x20 DUP5 MUL DUP4 ADD DUP6 DUP2 GT ISZERO PUSH3 0x4CF JUMPI PUSH3 0x4CE PUSH3 0x42E JUMP JUMPDEST JUMPDEST DUP4 JUMPDEST DUP2 DUP2 LT ISZERO PUSH3 0x4FC JUMPI DUP1 PUSH3 0x4E7 DUP9 DUP3 PUSH3 0x47D JUMP JUMPDEST DUP5 MSTORE PUSH1 0x20 DUP5 ADD SWAP4 POP POP PUSH1 0x20 DUP2 ADD SWAP1 POP PUSH3 0x4D1 JUMP JUMPDEST POP POP POP SWAP4 SWAP3 POP POP POP JUMP JUMPDEST PUSH0 DUP3 PUSH1 0x1F DUP4 ADD SLT PUSH3 0x51D JUMPI PUSH3 0x51C PUSH3 0x36B JUMP JUMPDEST JUMPDEST DUP2 MLOAD PUSH3 0x52F DUP5 DUP3 PUSH1 0x20 DUP7 ADD PUSH3 0x493 JUMP JUMPDEST SWAP2 POP POP SWAP3 SWAP2 POP POP JUMP JUMPDEST PUSH0 PUSH8 0xFFFFFFFFFFFFFFFF DUP3 GT ISZERO PUSH3 0x555 JUMPI PUSH3 0x554 PUSH3 0x37F JUMP JUMPDEST JUMPDEST PUSH1 0x20 DUP3 MUL SWAP1 POP PUSH1 0x20 DUP2 ADD SWAP1 POP SWAP2 SWAP1 POP JUMP JUMPDEST PUSH0 DUP2 SWAP1 POP SWAP2 SWAP1 POP JUMP JUMPDEST PUSH3 0x57A DUP2 PUSH3 0x566 JUMP JUMPDEST DUP2 EQ PUSH3 0x585 JUMPI PUSH0 DUP1 REVERT JUMPDEST POP JUMP JUMPDEST PUSH0 DUP2 MLOAD SWAP1 POP PUSH3 0x598 DUP2 PUSH3 0x56F JUMP JUMPDEST SWAP3 SWAP2 POP POP JUMP JUMPDEST PUSH0 PUSH3 0x5B4 PUSH3 0x5AE DUP5 PUSH3 0x538 JUMP JUMPDEST PUSH3 0x3E2 JUMP JUMPDEST SWAP1 POP DUP1 DUP4 DUP3 MSTORE PUSH1 0x20 DUP3 ADD SWAP1 POP PUSH1 0x20 DUP5 MUL DUP4 ADD DUP6 DUP2 GT ISZERO PUSH3 0x5DA JUMPI PUSH3 0x5D9 PUSH3 0x42E JUMP JUMPDEST JUMPDEST DUP4 JUMPDEST DUP2 DUP2 LT ISZERO PUSH3 0x607 JUMPI DUP1 PUSH3 0x5F2 DUP9 DUP3 PUSH3 0x588 JUMP JUMPDEST DUP5 MSTORE PUSH1 0x20 DUP5 ADD SWAP4 POP POP PUSH1 0x20 DUP2 ADD SWAP1 POP PUSH3 0x5DC JUMP JUMPDEST POP POP POP SWAP4 SWAP3 POP POP POP JUMP JUMPDEST PUSH0 DUP3 PUSH1 0x1F DUP4 ADD SLT PUSH3 0x628 JUMPI PUSH3 0x627 PUSH3 0x36B JUMP JUMPDEST JUMPDEST DUP2 MLOAD PUSH3 0x63A DUP5 DUP3 PUSH1 0x20 DUP7 ADD PUSH3 0x59E JUMP JUMPDEST SWAP2 POP POP SWAP3 SWAP2 POP POP JUMP JUMPDEST PUSH0 DUP1 PUSH1 0x40 DUP4 DUP6 SUB SLT ISZERO PUSH3 0x65C JUMPI PUSH3 0x65B PUSH3 0x363 JUMP JUMPDEST JUMPDEST PUSH0 DUP4 ADD MLOAD PUSH8 0xFFFFFFFFFFFFFFFF DUP2 GT ISZERO PUSH3 0x67C JUMPI PUSH3 0x67B PUSH3 0x367 JUMP JUMPDEST JUMPDEST PUSH3 0x68A DUP6 DUP3 DUP7 ADD PUSH3 0x506 JUMP JUMPDEST SWAP3 POP POP PUSH1 0x20 DUP4 ADD MLOAD PUSH8 0xFFFFFFFFFFFFFFFF DUP2 GT ISZERO PUSH3 0x6AE JUMPI PUSH3 0x6AD PUSH3 0x367 JUMP JUMPDEST JUMPDEST PUSH3 0x6BC DUP6 DUP3 DUP7 ADD PUSH3 0x611 JUMP JUMPDEST SWAP2 POP POP SWAP3 POP SWAP3 SWAP1 POP JUMP JUMPDEST PUSH0 DUP3 DUP3 MSTORE PUSH1 0x20 DUP3 ADD SWAP1 POP SWAP3 SWAP2 POP POP JUMP JUMPDEST PUSH32 0x5061796D656E7453706C69747465723A2070617965657320616E642073686172 PUSH0 DUP3 ADD MSTORE PUSH32 0x6573206C656E677468206D69736D617463680000000000000000000000000000 PUSH1 0x20 DUP3 ADD MSTORE POP JUMP JUMPDEST PUSH0 PUSH3 0x732 PUSH1 0x32 DUP4 PUSH3 0x6C6 JUMP JUMPDEST SWAP2 POP PUSH3 0x73F DUP3 PUSH3 0x6D6 JUMP JUMPDEST PUSH1 0x40 DUP3 ADD SWAP1 POP SWAP2 SWAP1 POP JUMP JUMPDEST PUSH0 PUSH1 0x20 DUP3 ADD SWAP1 POP DUP2 DUP2 SUB PUSH0 DUP4 ADD MSTORE PUSH3 0x763 DUP2 PUSH3 0x724 JUMP JUMPDEST SWAP1 POP SWAP2 SWAP1 POP JUMP JUMPDEST PUSH32 0x5061796D656E7453706C69747465723A206E6F20706179656573000000000000 PUSH0 DUP3 ADD MSTORE POP JUMP JUMPDEST PUSH0 PUSH3 0x7A0 PUSH1 0x1A DUP4 PUSH3 0x6C6 JUMP JUMPDEST SWAP2 POP PUSH3 0x7AD DUP3 PUSH3 0x76A JUMP JUMPDEST PUSH1 0x20 DUP3 ADD SWAP1 POP SWAP2 SWAP1 POP JUMP JUMPDEST PUSH0 PUSH1 0x20 DUP3 ADD SWAP1 POP DUP2 DUP2 SUB PUSH0 DUP4 ADD MSTORE PUSH3 0x7D1 DUP2 PUSH3 0x792 JUMP JUMPDEST SWAP1 POP SWAP2 SWAP1 POP JUMP JUMPDEST PUSH32 0x4E487B7100000000000000000000000000000000000000000000000000000000 PUSH0 MSTORE PUSH1 0x32 PUSH1 0x4 MSTORE PUSH1 0x24 PUSH0 REVERT JUMPDEST PUSH32 0x4E487B7100000000000000000000000000000000000000000000000000000000 PUSH0 MSTORE PUSH1 0x11 PUSH1 0x4 MSTORE PUSH1 0x24 PUSH0 REVERT JUMPDEST PUSH0 PUSH3 0x83E DUP3 PUSH3 0x566 JUMP JUMPDEST SWAP2 POP PUSH32 0xFFFFFFFFFFFFFFFFFFFFFFFFFFFFFFFFFFFFFFFFFFFFFFFFFFFFFFFFFFFFFFFF DUP3 SUB PUSH3 0x873 JUMPI PUSH3 0x872 PUSH3 0x805 JUMP JUMPDEST JUMPDEST PUSH1 0x1 DUP3 ADD SWAP1 POP SWAP2 SWAP1 POP JUMP JUMPDEST PUSH32 0x5061796D656E7453706C69747465723A206163636F756E742069732074686520 PUSH0 DUP3 ADD MSTORE PUSH32 0x7A65726F20616464726573730000000000000000000000000000000000000000 PUSH1 0x20 DUP3 ADD MSTORE POP JUMP JUMPDEST PUSH0 PUSH3 0x8DA PUSH1 0x2C DUP4 PUSH3 0x6C6 JUMP JUMPDEST SWAP2 POP PUSH3 0x8E7 DUP3 PUSH3 0x87E JUMP JUMPDEST PUSH1 0x40 DUP3 ADD SWAP1 POP SWAP2 SWAP1 POP JUMP JUMPDEST PUSH0 PUSH1 0x20 DUP3 ADD SWAP1 POP DUP2 DUP2 SUB PUSH0 DUP4 ADD MSTORE PUSH3 0x90B DUP2 PUSH3 0x8CC JUMP JUMPDEST SWAP1 POP SWAP2 SWAP1 POP JUMP JUMPDEST PUSH32 0x5061796D656E7453706C69747465723A20736861726573206172652030000000 PUSH0 DUP3 ADD MSTORE POP JUMP JUMPDEST PUSH0 PUSH3 0x948 PUSH1 0x1D DUP4 PUSH3 0x6C6 JUMP JUMPDEST SWAP2 POP PUSH3 0x955 DUP3 PUSH3 0x912 JUMP JUMPDEST PUSH1 0x20 DUP3 ADD SWAP1 POP SWAP2 SWAP1 POP JUMP JUMPDEST PUSH0 PUSH1 0x20 DUP3 ADD SWAP1 POP DUP2 DUP2 SUB PUSH0 DUP4 ADD MSTORE PUSH3 0x979 DUP2 PUSH3 0x93A JUMP JUMPDEST SWAP1 POP SWAP2 SWAP1 POP JUMP JUMPDEST PUSH32 0x5061796D656E7453706C69747465723A206163636F756E7420616C7265616479 PUSH0 DUP3 ADD MSTORE PUSH32 0x2068617320736861726573000000000000000000000000000000000000000000 PUSH1 0x20 DUP3 ADD MSTORE POP JUMP JUMPDEST PUSH0 PUSH3 0x9DC PUSH1 0x2B DUP4 PUSH3 0x6C6 JUMP JUMPDEST SWAP2 POP PUSH3 0x9E9 DUP3 PUSH3 0x980 JUMP JUMPDEST PUSH1 0x40 DUP3 ADD SWAP1 POP SWAP2 SWAP1 POP JUMP JUMPDEST PUSH0 PUSH1 0x20 DUP3 ADD SWAP1 POP DUP2 DUP2 SUB PUSH0 DUP4 ADD MSTORE PUSH3 0xA0D DUP2 PUSH3 0x9CE JUMP JUMPDEST SWAP1 POP SWAP2 SWAP1 POP JUMP JUMPDEST PUSH0 PUSH3 0xA20 DUP3 PUSH3 0x566 JUMP JUMPDEST SWAP2 POP PUSH3 0xA2D DUP4 PUSH3 0x566 JUMP JUMPDEST SWAP3 POP DUP3 DUP3 ADD SWAP1 POP DUP1 DUP3 GT ISZERO PUSH3 0xA48 JUMPI PUSH3 0xA47 PUSH3 0x805 JUMP JUMPDEST JUMPDEST SWAP3 SWAP2 POP POP JUMP JUMPDEST PUSH3 0xA59 DUP2 PUSH3 0x451 JUMP JUMPDEST DUP3 MSTORE POP POP JUMP JUMPDEST PUSH3 0xA6A DUP2 PUSH3 0x566 JUMP JUMPDEST DUP3 MSTORE POP POP JUMP JUMPDEST PUSH0 PUSH1 0x40 DUP3 ADD SWAP1 POP PUSH3 0xA85 PUSH0 DUP4 ADD DUP6 PUSH3 0xA4E JUMP JUMPDEST PUSH3 0xA94 PUSH1 0x20 DUP4 ADD DUP5 PUSH3 0xA5F JUMP JUMPDEST SWAP4 SWAP3 POP POP POP JUMP JUMPDEST PUSH2 0x121A DUP1 PUSH3 0xAA9 PUSH0 CODECOPY PUSH0 RETURN INVALID PUSH1 0x80 PUSH1 0x40 MSTORE PUSH1 0x4 CALLDATASIZE LT PUSH2 0x9F JUMPI PUSH0 CALLDATALOAD PUSH1 0xE0 SHR DUP1 PUSH4 0x9852595C GT PUSH2 0x63 JUMPI DUP1 PUSH4 0x9852595C EQ PUSH2 0x1DC JUMPI DUP1 PUSH4 0xA3F8EACE EQ PUSH2 0x218 JUMPI DUP1 PUSH4 0xC45AC050 EQ PUSH2 0x254 JUMPI DUP1 PUSH4 0xCE7C2AC2 EQ PUSH2 0x290 JUMPI DUP1 PUSH4 0xD79779B2 EQ PUSH2 0x2CC JUMPI DUP1 PUSH4 0xE33B7DE3 EQ PUSH2 0x308 JUMPI PUSH2 0xE6 JUMP JUMPDEST DUP1 PUSH4 0x19165587 EQ PUSH2 0xEA JUMPI DUP1 PUSH4 0x3A98EF39 EQ PUSH2 0x112 JUMPI DUP1 PUSH4 0x406072A9 EQ PUSH2 0x13C JUMPI DUP1 PUSH4 0x48B75044 EQ PUSH2 0x178 JUMPI DUP1 PUSH4 0x8B83209B EQ PUSH2 0x1A0 JUMPI PUSH2 0xE6 JUMP JUMPDEST CALLDATASIZE PUSH2 0xE6 JUMPI PUSH32 0x6EF95F06320E7A25A04A175CA677B7052BDD97131872C2192525A629F51BE770 PUSH2 0xCD PUSH2 0x332 JUMP JUMPDEST CALLVALUE PUSH1 0x40 MLOAD PUSH2 0xDC SWAP3 SWAP2 SWAP1 PUSH2 0xC20 JUMP JUMPDEST PUSH1 0x40 MLOAD DUP1 SWAP2 SUB SWAP1 LOG1 STOP JUMPDEST PUSH0 DUP1 REVERT JUMPDEST CALLVALUE DUP1 ISZERO PUSH2 0xF5 JUMPI PUSH0 DUP1 REVERT JUMPDEST POP PUSH2 0x110 PUSH1 0x4 DUP1 CALLDATASIZE SUB DUP2 ADD SWAP1 PUSH2 0x10B SWAP2 SWAP1 PUSH2 0xC86 JUMP JUMPDEST PUSH2 0x339 JUMP JUMPDEST STOP JUMPDEST CALLVALUE DUP1 ISZERO PUSH2 0x11D JUMPI PUSH0 DUP1 REVERT JUMPDEST POP PUSH2 0x126 PUSH2 0x4AF JUMP JUMPDEST PUSH1 0x40 MLOAD PUSH2 0x133 SWAP2 SWAP1 PUSH2 0xCB1 JUMP JUMPDEST PUSH1 0x40 MLOAD DUP1 SWAP2 SUB SWAP1 RETURN JUMPDEST CALLVALUE DUP1 ISZERO PUSH2 0x147 JUMPI PUSH0 DUP1 REVERT JUMPDEST POP PUSH2 0x162 PUSH1 0x4 DUP1 CALLDATASIZE SUB DUP2 ADD SWAP1 PUSH2 0x15D SWAP2 SWAP1 PUSH2 0xD2F JUMP JUMPDEST PUSH2 0x4B7 JUMP JUMPDEST PUSH1 0x40 MLOAD PUSH2 0x16F SWAP2 SWAP1 PUSH2 0xCB1 JUMP JUMPDEST PUSH1 0x40 MLOAD DUP1 SWAP2 SUB SWAP1 RETURN JUMPDEST CALLVALUE DUP1 ISZERO PUSH2 0x183 JUMPI PUSH0 DUP1 REVERT JUMPDEST POP PUSH2 0x19E PUSH1 0x4 DUP1 CALLDATASIZE SUB DUP2 ADD SWAP1 PUSH2 0x199 SWAP2 SWAP1 PUSH2 0xD2F JUMP JUMPDEST PUSH2 0x539 JUMP JUMPDEST STOP JUMPDEST CALLVALUE DUP1 ISZERO PUSH2 0x1AB JUMPI PUSH0 DUP1 REVERT JUMPDEST POP PUSH2 0x1C6 PUSH1 0x4 DUP1 CALLDATASIZE SUB DUP2 ADD SWAP1 PUSH2 0x1C1 SWAP2 SWAP1 PUSH2 0xD97 JUMP JUMPDEST PUSH2 0x73F JUMP JUMPDEST PUSH1 0x40 MLOAD PUSH2 0x1D3 SWAP2 SWAP1 PUSH2 0xDC2 JUMP JUMPDEST PUSH1 0x40 MLOAD DUP1 SWAP2 SUB SWAP1 RETURN JUMPDEST CALLVALUE DUP1 ISZERO PUSH2 0x1E7 JUMPI PUSH0 DUP1 REVERT JUMPDEST POP PUSH2 0x202 PUSH1 0x4 DUP1 CALLDATASIZE SUB DUP2 ADD SWAP1 PUSH2 0x1FD SWAP2 SWAP1 PUSH2 0xDDB JUMP JUMPDEST PUSH2 0x783 JUMP JUMPDEST PUSH1 0x40 MLOAD PUSH2 0x20F SWAP2 SWAP1 PUSH2 0xCB1 JUMP JUMPDEST PUSH1 0x40 MLOAD DUP1 SWAP2 SUB SWAP1 RETURN JUMPDEST CALLVALUE DUP1 ISZERO PUSH2 0x223 JUMPI PUSH0 DUP1 REVERT JUMPDEST POP PUSH2 0x23E PUSH1 0x4 DUP1 CALLDATASIZE SUB DUP2 ADD SWAP1 PUSH2 0x239 SWAP2 SWAP1 PUSH2 0xDDB JUMP JUMPDEST PUSH2 0x7C9 JUMP JUMPDEST PUSH1 0x40 MLOAD PUSH2 0x24B SWAP2 SWAP1 PUSH2 0xCB1 JUMP JUMPDEST PUSH1 0x40 MLOAD DUP1 SWAP2 SUB SWAP1 RETURN JUMPDEST CALLVALUE DUP1 ISZERO PUSH2 0x25F JUMPI PUSH0 DUP1 REVERT JUMPDEST POP PUSH2 0x27A PUSH1 0x4 DUP1 CALLDATASIZE SUB DUP2 ADD SWAP1 PUSH2 0x275 SWAP2 SWAP1 PUSH2 0xD2F JUMP JUMPDEST PUSH2 0x7FB JUMP JUMPDEST PUSH1 0x40 MLOAD PUSH2 0x287 SWAP2 SWAP1 PUSH2 0xCB1 JUMP JUMPDEST PUSH1 0x40 MLOAD DUP1 SWAP2 SUB SWAP1 RETURN JUMPDEST CALLVALUE DUP1 ISZERO PUSH2 0x29B JUMPI PUSH0 DUP1 REVERT JUMPDEST POP PUSH2 0x2B6 PUSH1 0x4 DUP1 CALLDATASIZE SUB DUP2 ADD SWAP1 PUSH2 0x2B1 SWAP2 SWAP1 PUSH2 0xDDB JUMP JUMPDEST PUSH2 0x8A7 JUMP JUMPDEST PUSH1 0x40 MLOAD PUSH2 0x2C3 SWAP2 SWAP1 PUSH2 0xCB1 JUMP JUMPDEST PUSH1 0x40 MLOAD DUP1 SWAP2 SUB SWAP1 RETURN JUMPDEST CALLVALUE DUP1 ISZERO PUSH2 0x2D7 JUMPI PUSH0 DUP1 REVERT JUMPDEST POP PUSH2 0x2F2 PUSH1 0x4 DUP1 CALLDATASIZE SUB DUP2 ADD SWAP1 PUSH2 0x2ED SWAP2 SWAP1 PUSH2 0xE06 JUMP JUMPDEST PUSH2 0x8ED JUMP JUMPDEST PUSH1 0x40 MLOAD PUSH2 0x2FF SWAP2 SWAP1 PUSH2 0xCB1 JUMP JUMPDEST PUSH1 0x40 MLOAD DUP1 SWAP2 SUB SWAP1 RETURN JUMPDEST CALLVALUE DUP1 ISZERO PUSH2 0x313 JUMPI PUSH0 DUP1 REVERT JUMPDEST POP PUSH2 0x31C PUSH2 0x933 JUMP JUMPDEST PUSH1 0x40 MLOAD PUSH2 0x329 SWAP2 SWAP1 PUSH2 0xCB1 JUMP JUMPDEST PUSH1 0x40 MLOAD DUP1 SWAP2 SUB SWAP1 RETURN JUMPDEST PUSH0 CALLER SWAP1 POP SWAP1 JUMP JUMPDEST PUSH0 PUSH1 0x2 PUSH0 DUP4 PUSH20 0xFFFFFFFFFFFFFFFFFFFFFFFFFFFFFFFFFFFFFFFF AND PUSH20 0xFFFFFFFFFFFFFFFFFFFFFFFFFFFFFFFFFFFFFFFF AND DUP2 MSTORE PUSH1 0x20 ADD SWAP1 DUP2 MSTORE PUSH1 0x20 ADD PUSH0 KECCAK256 SLOAD GT PUSH2 0x3B8 JUMPI PUSH1 0x40 MLOAD PUSH32 0x8C379A000000000000000000000000000000000000000000000000000000000 DUP2 MSTORE PUSH1 0x4 ADD PUSH2 0x3AF SWAP1 PUSH2 0xEB1 JUMP JUMPDEST PUSH1 0x40 MLOAD DUP1 SWAP2 SUB SWAP1 REVERT JUMPDEST PUSH0 PUSH2 0x3C2 DUP3 PUSH2 0x7C9 JUMP JUMPDEST SWAP1 POP PUSH0 DUP2 SUB PUSH2 0x406 JUMPI PUSH1 0x40 MLOAD PUSH32 0x8C379A000000000000000000000000000000000000000000000000000000000 DUP2 MSTORE PUSH1 0x4 ADD PUSH2 0x3FD SWAP1 PUSH2 0xF3F JUMP JUMPDEST PUSH1 0x40 MLOAD DUP1 SWAP2 SUB SWAP1 REVERT JUMPDEST DUP1 PUSH1 0x1 PUSH0 DUP3 DUP3 SLOAD PUSH2 0x417 SWAP2 SWAP1 PUSH2 0xF8A JUMP JUMPDEST SWAP3 POP POP DUP2 SWAP1 SSTORE POP DUP1 PUSH1 0x3 PUSH0 DUP5 PUSH20 0xFFFFFFFFFFFFFFFFFFFFFFFFFFFFFFFFFFFFFFFF AND PUSH20 0xFFFFFFFFFFFFFFFFFFFFFFFFFFFFFFFFFFFFFFFF AND DUP2 MSTORE PUSH1 0x20 ADD SWAP1 DUP2 MSTORE PUSH1 0x20 ADD PUSH0 KECCAK256 PUSH0 DUP3 DUP3 SLOAD ADD SWAP3 POP POP DUP2 SWAP1 SSTORE POP PUSH2 0x472 DUP3 DUP3 PUSH2 0x93C JUMP JUMPDEST PUSH32 0xDF20FD1E76BC69D672E4814FAFB2C449BBA3A5369D8359ADF9E05E6FDE87B056 DUP3 DUP3 PUSH1 0x40 MLOAD PUSH2 0x4A3 SWAP3 SWAP2 SWAP1 PUSH2 0x1018 JUMP JUMPDEST PUSH1 0x40 MLOAD DUP1 SWAP2 SUB SWAP1 LOG1 POP POP JUMP JUMPDEST PUSH0 DUP1 SLOAD SWAP1 POP SWAP1 JUMP JUMPDEST PUSH0 PUSH1 0x6 PUSH0 DUP5 PUSH20 0xFFFFFFFFFFFFFFFFFFFFFFFFFFFFFFFFFFFFFFFF AND PUSH20 0xFFFFFFFFFFFFFFFFFFFFFFFFFFFFFFFFFFFFFFFF AND DUP2 MSTORE PUSH1 0x20 ADD SWAP1 DUP2 MSTORE PUSH1 0x20 ADD PUSH0 KECCAK256 PUSH0 DUP4 PUSH20 0xFFFFFFFFFFFFFFFFFFFFFFFFFFFFFFFFFFFFFFFF AND PUSH20 0xFFFFFFFFFFFFFFFFFFFFFFFFFFFFFFFFFFFFFFFF AND DUP2 MSTORE PUSH1 0x20 ADD SWAP1 DUP2 MSTORE PUSH1 0x20 ADD PUSH0 KECCAK256 SLOAD SWAP1 POP SWAP3 SWAP2 POP POP JUMP JUMPDEST PUSH0 PUSH1 0x2 PUSH0 DUP4 PUSH20 0xFFFFFFFFFFFFFFFFFFFFFFFFFFFFFFFFFFFFFFFF AND PUSH20 0xFFFFFFFFFFFFFFFFFFFFFFFFFFFFFFFFFFFFFFFF AND DUP2 MSTORE PUSH1 0x20 ADD SWAP1 DUP2 MSTORE PUSH1 0x20 ADD PUSH0 KECCAK256 SLOAD GT PUSH2 0x5B8 JUMPI PUSH1 0x40 MLOAD PUSH32 0x8C379A000000000000000000000000000000000000000000000000000000000 DUP2 MSTORE PUSH1 0x4 ADD PUSH2 0x5AF SWAP1 PUSH2 0xEB1 JUMP JUMPDEST PUSH1 0x40 MLOAD DUP1 SWAP2 SUB SWAP1 REVERT JUMPDEST PUSH0 PUSH2 0x5C3 DUP4 DUP4 PUSH2 0x7FB JUMP JUMPDEST SWAP1 POP PUSH0 DUP2 SUB PUSH2 0x607 JUMPI PUSH1 0x40 MLOAD PUSH32 0x8C379A000000000000000000000000000000000000000000000000000000000 DUP2 MSTORE PUSH1 0x4 ADD PUSH2 0x5FE SWAP1 PUSH2 0xF3F JUMP JUMPDEST PUSH1 0x40 MLOAD DUP1 SWAP2 SUB SWAP1 REVERT JUMPDEST DUP1 PUSH1 0x5 PUSH0 DUP6 PUSH20 0xFFFFFFFFFFFFFFFFFFFFFFFFFFFFFFFFFFFFFFFF AND PUSH20 0xFFFFFFFFFFFFFFFFFFFFFFFFFFFFFFFFFFFFFFFF AND DUP2 MSTORE PUSH1 0x20 ADD SWAP1 DUP2 MSTORE PUSH1 0x20 ADD PUSH0 KECCAK256 PUSH0 DUP3 DUP3 SLOAD PUSH2 0x653 SWAP2 SWAP1 PUSH2 0xF8A JUMP JUMPDEST SWAP3 POP POP DUP2 SWAP1 SSTORE POP DUP1 PUSH1 0x6 PUSH0 DUP6 PUSH20 0xFFFFFFFFFFFFFFFFFFFFFFFFFFFFFFFFFFFFFFFF AND PUSH20 0xFFFFFFFFFFFFFFFFFFFFFFFFFFFFFFFFFFFFFFFF AND DUP2 MSTORE PUSH1 0x20 ADD SWAP1 DUP2 MSTORE PUSH1 0x20 ADD PUSH0 KECCAK256 PUSH0 DUP5 PUSH20 0xFFFFFFFFFFFFFFFFFFFFFFFFFFFFFFFFFFFFFFFF AND PUSH20 0xFFFFFFFFFFFFFFFFFFFFFFFFFFFFFFFFFFFFFFFF AND DUP2 MSTORE PUSH1 0x20 ADD SWAP1 DUP2 MSTORE PUSH1 0x20 ADD PUSH0 KECCAK256 PUSH0 DUP3 DUP3 SLOAD ADD SWAP3 POP POP DUP2 SWAP1 SSTORE POP PUSH2 0x6EA DUP4 DUP4 DUP4 PUSH2 0xA02 JUMP JUMPDEST DUP3 PUSH20 0xFFFFFFFFFFFFFFFFFFFFFFFFFFFFFFFFFFFFFFFF AND PUSH32 0x3BE5B7A71E84ED12875D241991C70855AC5817D847039E17A9D895C1CEB0F18A DUP4 DUP4 PUSH1 0x40 MLOAD PUSH2 0x732 SWAP3 SWAP2 SWAP1 PUSH2 0xC20 JUMP JUMPDEST PUSH1 0x40 MLOAD DUP1 SWAP2 SUB SWAP1 LOG2 POP POP POP JUMP JUMPDEST PUSH0 PUSH1 0x4 DUP3 DUP2 SLOAD DUP2 LT PUSH2 0x754 JUMPI PUSH2 0x753 PUSH2 0x103F JUMP JUMPDEST JUMPDEST SWAP1 PUSH0 MSTORE PUSH1 0x20 PUSH0 KECCAK256 ADD PUSH0 SWAP1 SLOAD SWAP1 PUSH2 0x100 EXP SWAP1 DIV PUSH20 0xFFFFFFFFFFFFFFFFFFFFFFFFFFFFFFFFFFFFFFFF AND SWAP1 POP SWAP2 SWAP1 POP JUMP JUMPDEST PUSH0 PUSH1 0x3 PUSH0 DUP4 PUSH20 0xFFFFFFFFFFFFFFFFFFFFFFFFFFFFFFFFFFFFFFFF AND PUSH20 0xFFFFFFFFFFFFFFFFFFFFFFFFFFFFFFFFFFFFFFFF AND DUP2 MSTORE PUSH1 0x20 ADD SWAP1 DUP2 MSTORE PUSH1 0x20 ADD PUSH0 KECCAK256 SLOAD SWAP1 POP SWAP2 SWAP1 POP JUMP JUMPDEST PUSH0 DUP1 PUSH2 0x7D3 PUSH2 0x933 JUMP JUMPDEST SELFBALANCE PUSH2 0x7DE SWAP2 SWAP1 PUSH2 0xF8A JUMP JUMPDEST SWAP1 POP PUSH2 0x7F3 DUP4 DUP3 PUSH2 0x7EE DUP7 PUSH2 0x783 JUMP JUMPDEST PUSH2 0xA81 JUMP JUMPDEST SWAP2 POP POP SWAP2 SWAP1 POP JUMP JUMPDEST PUSH0 DUP1 PUSH2 0x806 DUP5 PUSH2 0x8ED JUMP JUMPDEST DUP5 PUSH20 0xFFFFFFFFFFFFFFFFFFFFFFFFFFFFFFFFFFFFFFFF AND PUSH4 0x70A08231 ADDRESS PUSH1 0x40 MLOAD DUP3 PUSH4 0xFFFFFFFF AND PUSH1 0xE0 SHL DUP2 MSTORE PUSH1 0x4 ADD PUSH2 0x83F SWAP2 SWAP1 PUSH2 0xDC2 JUMP JUMPDEST PUSH1 0x20 PUSH1 0x40 MLOAD DUP1 DUP4 SUB DUP2 DUP7 GAS STATICCALL ISZERO DUP1 ISZERO PUSH2 0x85A JUMPI RETURNDATASIZE PUSH0 DUP1 RETURNDATACOPY RETURNDATASIZE PUSH0 REVERT JUMPDEST POP POP POP POP PUSH1 0x40 MLOAD RETURNDATASIZE PUSH1 0x1F NOT PUSH1 0x1F DUP3 ADD AND DUP3 ADD DUP1 PUSH1 0x40 MSTORE POP DUP2 ADD SWAP1 PUSH2 0x87E SWAP2 SWAP1 PUSH2 0x1080 JUMP JUMPDEST PUSH2 0x888 SWAP2 SWAP1 PUSH2 0xF8A JUMP JUMPDEST SWAP1 POP PUSH2 0x89E DUP4 DUP3 PUSH2 0x899 DUP8 DUP8 PUSH2 0x4B7 JUMP JUMPDEST PUSH2 0xA81 JUMP JUMPDEST SWAP2 POP POP SWAP3 SWAP2 POP POP JUMP JUMPDEST PUSH0 PUSH1 0x2 PUSH0 DUP4 PUSH20 0xFFFFFFFFFFFFFFFFFFFFFFFFFFFFFFFFFFFFFFFF AND PUSH20 0xFFFFFFFFFFFFFFFFFFFFFFFFFFFFFFFFFFFFFFFF AND DUP2 MSTORE PUSH1 0x20 ADD SWAP1 DUP2 MSTORE PUSH1 0x20 ADD PUSH0 KECCAK256 SLOAD SWAP1 POP SWAP2 SWAP1 POP JUMP JUMPDEST PUSH0 PUSH1 0x5 PUSH0 DUP4 PUSH20 0xFFFFFFFFFFFFFFFFFFFFFFFFFFFFFFFFFFFFFFFF AND PUSH20 0xFFFFFFFFFFFFFFFFFFFFFFFFFFFFFFFFFFFFFFFF AND DUP2 MSTORE PUSH1 0x20 ADD SWAP1 DUP2 MSTORE PUSH1 0x20 ADD PUSH0 KECCAK256 SLOAD SWAP1 POP SWAP2 SWAP1 POP JUMP JUMPDEST PUSH0 PUSH1 0x1 SLOAD SWAP1 POP SWAP1 JUMP JUMPDEST DUP1 SELFBALANCE LT ISZERO PUSH2 0x983 JUMPI SELFBALANCE DUP2 PUSH1 0x40 MLOAD PUSH32 0xCF47918100000000000000000000000000000000000000000000000000000000 DUP2 MSTORE PUSH1 0x4 ADD PUSH2 0x97A SWAP3 SWAP2 SWAP1 PUSH2 0x10AB JUMP JUMPDEST PUSH1 0x40 MLOAD DUP1 SWAP2 SUB SWAP1 REVERT JUMPDEST PUSH0 DUP1 DUP4 PUSH20 0xFFFFFFFFFFFFFFFFFFFFFFFFFFFFFFFFFFFFFFFF AND DUP4 PUSH1 0x40 MLOAD PUSH2 0x9A9 SWAP1 PUSH2 0x10FF JUMP JUMPDEST PUSH0 PUSH1 0x40 MLOAD DUP1 DUP4 SUB DUP2 DUP6 DUP8 GAS CALL SWAP3 POP POP POP RETURNDATASIZE DUP1 PUSH0 DUP2 EQ PUSH2 0x9E3 JUMPI PUSH1 0x40 MLOAD SWAP2 POP PUSH1 0x1F NOT PUSH1 0x3F RETURNDATASIZE ADD AND DUP3 ADD PUSH1 0x40 MSTORE RETURNDATASIZE DUP3 MSTORE RETURNDATASIZE PUSH0 PUSH1 0x20 DUP5 ADD RETURNDATACOPY PUSH2 0x9E8 JUMP JUMPDEST PUSH1 0x60 SWAP2 POP JUMPDEST POP SWAP2 POP SWAP2 POP DUP2 PUSH2 0x9FC JUMPI PUSH2 0x9FB DUP2 PUSH2 0xAEB JUMP JUMPDEST JUMPDEST POP POP POP POP JUMP JUMPDEST PUSH2 0xA7C DUP4 DUP5 PUSH20 0xFFFFFFFFFFFFFFFFFFFFFFFFFFFFFFFFFFFFFFFF AND PUSH4 0xA9059CBB DUP6 DUP6 PUSH1 0x40 MLOAD PUSH1 0x24 ADD PUSH2 0xA35 SWAP3 SWAP2 SWAP1 PUSH2 0xC20 JUMP JUMPDEST PUSH1 0x40 MLOAD PUSH1 0x20 DUP2 DUP4 SUB SUB DUP2 MSTORE SWAP1 PUSH1 0x40 MSTORE SWAP2 POP PUSH1 0xE0 SHL PUSH1 0x20 DUP3 ADD DUP1 MLOAD PUSH28 0xFFFFFFFFFFFFFFFFFFFFFFFFFFFFFFFFFFFFFFFFFFFFFFFFFFFFFFFF DUP4 DUP2 DUP4 AND OR DUP4 MSTORE POP POP POP POP PUSH2 0xB2E JUMP JUMPDEST POP POP POP JUMP JUMPDEST PUSH0 DUP2 PUSH0 SLOAD PUSH1 0x2 PUSH0 DUP8 PUSH20 0xFFFFFFFFFFFFFFFFFFFFFFFFFFFFFFFFFFFFFFFF AND PUSH20 0xFFFFFFFFFFFFFFFFFFFFFFFFFFFFFFFFFFFFFFFF AND DUP2 MSTORE PUSH1 0x20 ADD SWAP1 DUP2 MSTORE PUSH1 0x20 ADD PUSH0 KECCAK256 SLOAD DUP6 PUSH2 0xACE SWAP2 SWAP1 PUSH2 0x1113 JUMP JUMPDEST PUSH2 0xAD8 SWAP2 SWAP1 PUSH2 0x1181 JUMP JUMPDEST PUSH2 0xAE2 SWAP2 SWAP1 PUSH2 0x11B1 JUMP JUMPDEST SWAP1 POP SWAP4 SWAP3 POP POP POP JUMP JUMPDEST PUSH0 DUP2 MLOAD GT ISZERO PUSH2 0xAFC JUMPI DUP1 MLOAD PUSH1 0x20 DUP3 ADD REVERT JUMPDEST PUSH1 0x40 MLOAD PUSH32 0xD6BDA27500000000000000000000000000000000000000000000000000000000 DUP2 MSTORE PUSH1 0x4 ADD PUSH1 0x40 MLOAD DUP1 SWAP2 SUB SWAP1 REVERT JUMPDEST PUSH0 DUP1 PUSH1 0x20 PUSH0 DUP5 MLOAD PUSH1 0x20 DUP7 ADD PUSH0 DUP9 GAS CALL DUP1 PUSH2 0xB4D JUMPI PUSH1 0x40 MLOAD RETURNDATASIZE PUSH0 DUP3 RETURNDATACOPY RETURNDATASIZE DUP2 REVERT JUMPDEST RETURNDATASIZE SWAP3 POP PUSH0 MLOAD SWAP2 POP POP PUSH0 DUP3 EQ PUSH2 0xB66 JUMPI PUSH1 0x1 DUP2 EQ ISZERO PUSH2 0xB81 JUMP JUMPDEST PUSH0 DUP5 PUSH20 0xFFFFFFFFFFFFFFFFFFFFFFFFFFFFFFFFFFFFFFFF AND EXTCODESIZE EQ JUMPDEST ISZERO PUSH2 0xBC3 JUMPI DUP4 PUSH1 0x40 MLOAD PUSH32 0x5274AFE700000000000000000000000000000000000000000000000000000000 DUP2 MSTORE PUSH1 0x4 ADD PUSH2 0xBBA SWAP2 SWAP1 PUSH2 0xDC2 JUMP JUMPDEST PUSH1 0x40 MLOAD DUP1 SWAP2 SUB SWAP1 REVERT JUMPDEST POP POP POP POP JUMP JUMPDEST PUSH0 PUSH20 0xFFFFFFFFFFFFFFFFFFFFFFFFFFFFFFFFFFFFFFFF DUP3 AND SWAP1 POP SWAP2 SWAP1 POP JUMP JUMPDEST PUSH0 PUSH2 0xBF2 DUP3 PUSH2 0xBC9 JUMP JUMPDEST SWAP1 POP SWAP2 SWAP1 POP JUMP JUMPDEST PUSH2 0xC02 DUP2 PUSH2 0xBE8 JUMP JUMPDEST DUP3 MSTORE POP POP JUMP JUMPDEST PUSH0 DUP2 SWAP1 POP SWAP2 SWAP1 POP JUMP JUMPDEST PUSH2 0xC1A DUP2 PUSH2 0xC08 JUMP JUMPDEST DUP3 MSTORE POP POP JUMP JUMPDEST PUSH0 PUSH1 0x40 DUP3 ADD SWAP1 POP PUSH2 0xC33 PUSH0 DUP4 ADD DUP6 PUSH2 0xBF9 JUMP JUMPDEST PUSH2 0xC40 PUSH1 0x20 DUP4 ADD DUP5 PUSH2 0xC11 JUMP JUMPDEST SWAP4 SWAP3 POP POP POP JUMP JUMPDEST PUSH0 DUP1 REVERT JUMPDEST PUSH0 PUSH2 0xC55 DUP3 PUSH2 0xBC9 JUMP JUMPDEST SWAP1 POP SWAP2 SWAP1 POP JUMP JUMPDEST PUSH2 0xC65 DUP2 PUSH2 0xC4B JUMP JUMPDEST DUP2 EQ PUSH2 0xC6F JUMPI PUSH0 DUP1 REVERT JUMPDEST POP JUMP JUMPDEST PUSH0 DUP2 CALLDATALOAD SWAP1 POP PUSH2 0xC80 DUP2 PUSH2 0xC5C JUMP JUMPDEST SWAP3 SWAP2 POP POP JUMP JUMPDEST PUSH0 PUSH1 0x20 DUP3 DUP5 SUB SLT ISZERO PUSH2 0xC9B JUMPI PUSH2 0xC9A PUSH2 0xC47 JUMP JUMPDEST JUMPDEST PUSH0 PUSH2 0xCA8 DUP5 DUP3 DUP6 ADD PUSH2 0xC72 JUMP JUMPDEST SWAP2 POP POP SWAP3 SWAP2 POP POP JUMP JUMPDEST PUSH0 PUSH1 0x20 DUP3 ADD SWAP1 POP PUSH2 0xCC4 PUSH0 DUP4 ADD DUP5 PUSH2 0xC11 JUMP JUMPDEST SWAP3 SWAP2 POP POP JUMP JUMPDEST PUSH0 PUSH2 0xCD4 DUP3 PUSH2 0xBE8 JUMP JUMPDEST SWAP1 POP SWAP2 SWAP1 POP JUMP JUMPDEST PUSH2 0xCE4 DUP2 PUSH2 0xCCA JUMP JUMPDEST DUP2 EQ PUSH2 0xCEE JUMPI PUSH0 DUP1 REVERT JUMPDEST POP JUMP JUMPDEST PUSH0 DUP2 CALLDATALOAD SWAP1 POP PUSH2 0xCFF DUP2 PUSH2 0xCDB JUMP JUMPDEST SWAP3 SWAP2 POP POP JUMP JUMPDEST PUSH2 0xD0E DUP2 PUSH2 0xBE8 JUMP JUMPDEST DUP2 EQ PUSH2 0xD18 JUMPI PUSH0 DUP1 REVERT JUMPDEST POP JUMP JUMPDEST PUSH0 DUP2 CALLDATALOAD SWAP1 POP PUSH2 0xD29 DUP2 PUSH2 0xD05 JUMP JUMPDEST SWAP3 SWAP2 POP POP JUMP JUMPDEST PUSH0 DUP1 PUSH1 0x40 DUP4 DUP6 SUB SLT ISZERO PUSH2 0xD45 JUMPI PUSH2 0xD44 PUSH2 0xC47 JUMP JUMPDEST JUMPDEST PUSH0 PUSH2 0xD52 DUP6 DUP3 DUP7 ADD PUSH2 0xCF1 JUMP JUMPDEST SWAP3 POP POP PUSH1 0x20 PUSH2 0xD63 DUP6 DUP3 DUP7 ADD PUSH2 0xD1B JUMP JUMPDEST SWAP2 POP POP SWAP3 POP SWAP3 SWAP1 POP JUMP JUMPDEST PUSH2 0xD76 DUP2 PUSH2 0xC08 JUMP JUMPDEST DUP2 EQ PUSH2 0xD80 JUMPI PUSH0 DUP1 REVERT JUMPDEST POP JUMP JUMPDEST PUSH0 DUP2 CALLDATALOAD SWAP1 POP PUSH2 0xD91 DUP2 PUSH2 0xD6D JUMP JUMPDEST SWAP3 SWAP2 POP POP JUMP JUMPDEST PUSH0 PUSH1 0x20 DUP3 DUP5 SUB SLT ISZERO PUSH2 0xDAC JUMPI PUSH2 0xDAB PUSH2 0xC47 JUMP JUMPDEST JUMPDEST PUSH0 PUSH2 0xDB9 DUP5 DUP3 DUP6 ADD PUSH2 0xD83 JUMP JUMPDEST SWAP2 POP POP SWAP3 SWAP2 POP POP JUMP JUMPDEST PUSH0 PUSH1 0x20 DUP3 ADD SWAP1 POP PUSH2 0xDD5 PUSH0 DUP4 ADD DUP5 PUSH2 0xBF9 JUMP JUMPDEST SWAP3 SWAP2 POP POP JUMP JUMPDEST PUSH0 PUSH1 0x20 DUP3 DUP5 SUB SLT ISZERO PUSH2 0xDF0 JUMPI PUSH2 0xDEF PUSH2 0xC47 JUMP JUMPDEST JUMPDEST PUSH0 PUSH2 0xDFD DUP5 DUP3 DUP6 ADD PUSH2 0xD1B JUMP JUMPDEST SWAP2 POP POP SWAP3 SWAP2 POP POP JUMP JUMPDEST PUSH0 PUSH1 0x20 DUP3 DUP5 SUB SLT ISZERO PUSH2 0xE1B JUMPI PUSH2 0xE1A PUSH2 0xC47 JUMP JUMPDEST JUMPDEST PUSH0 PUSH2 0xE28 DUP5 DUP3 DUP6 ADD PUSH2 0xCF1 JUMP JUMPDEST SWAP2 POP POP SWAP3 SWAP2 POP POP JUMP JUMPDEST PUSH0 DUP3 DUP3 MSTORE PUSH1 0x20 DUP3 ADD SWAP1 POP SWAP3 SWAP2 POP POP JUMP JUMPDEST PUSH32 0x5061796D656E7453706C69747465723A206163636F756E7420686173206E6F20 PUSH0 DUP3 ADD MSTORE PUSH32 0x7368617265730000000000000000000000000000000000000000000000000000 PUSH1 0x20 DUP3 ADD MSTORE POP JUMP JUMPDEST PUSH0 PUSH2 0xE9B PUSH1 0x26 DUP4 PUSH2 0xE31 JUMP JUMPDEST SWAP2 POP PUSH2 0xEA6 DUP3 PUSH2 0xE41 JUMP JUMPDEST PUSH1 0x40 DUP3 ADD SWAP1 POP SWAP2 SWAP1 POP JUMP JUMPDEST PUSH0 PUSH1 0x20 DUP3 ADD SWAP1 POP DUP2 DUP2 SUB PUSH0 DUP4 ADD MSTORE PUSH2 0xEC8 DUP2 PUSH2 0xE8F JUMP JUMPDEST SWAP1 POP SWAP2 SWAP1 POP JUMP JUMPDEST PUSH32 0x5061796D656E7453706C69747465723A206163636F756E74206973206E6F7420 PUSH0 DUP3 ADD MSTORE PUSH32 0x647565207061796D656E74000000000000000000000000000000000000000000 PUSH1 0x20 DUP3 ADD MSTORE POP JUMP JUMPDEST PUSH0 PUSH2 0xF29 PUSH1 0x2B DUP4 PUSH2 0xE31 JUMP JUMPDEST SWAP2 POP PUSH2 0xF34 DUP3 PUSH2 0xECF JUMP JUMPDEST PUSH1 0x40 DUP3 ADD SWAP1 POP SWAP2 SWAP1 POP JUMP JUMPDEST PUSH0 PUSH1 0x20 DUP3 ADD SWAP1 POP DUP2 DUP2 SUB PUSH0 DUP4 ADD MSTORE PUSH2 0xF56 DUP2 PUSH2 0xF1D JUMP JUMPDEST SWAP1 POP SWAP2 SWAP1 POP JUMP JUMPDEST PUSH32 0x4E487B7100000000000000000000000000000000000000000000000000000000 PUSH0 MSTORE PUSH1 0x11 PUSH1 0x4 MSTORE PUSH1 0x24 PUSH0 REVERT JUMPDEST PUSH0 PUSH2 0xF94 DUP3 PUSH2 0xC08 JUMP JUMPDEST SWAP2 POP PUSH2 0xF9F DUP4 PUSH2 0xC08 JUMP JUMPDEST SWAP3 POP DUP3 DUP3 ADD SWAP1 POP DUP1 DUP3 GT ISZERO PUSH2 0xFB7 JUMPI PUSH2 0xFB6 PUSH2 0xF5D JUMP JUMPDEST JUMPDEST SWAP3 SWAP2 POP POP JUMP JUMPDEST PUSH0 DUP2 SWAP1 POP SWAP2 SWAP1 POP JUMP JUMPDEST PUSH0 PUSH2 0xFE0 PUSH2 0xFDB PUSH2 0xFD6 DUP5 PUSH2 0xBC9 JUMP JUMPDEST PUSH2 0xFBD JUMP JUMPDEST PUSH2 0xBC9 JUMP JUMPDEST SWAP1 POP SWAP2 SWAP1 POP JUMP JUMPDEST PUSH0 PUSH2 0xFF1 DUP3 PUSH2 0xFC6 JUMP JUMPDEST SWAP1 POP SWAP2 SWAP1 POP JUMP JUMPDEST PUSH0 PUSH2 0x1002 DUP3 PUSH2 0xFE7 JUMP JUMPDEST SWAP1 POP SWAP2 SWAP1 POP JUMP JUMPDEST PUSH2 0x1012 DUP2 PUSH2 0xFF8 JUMP JUMPDEST DUP3 MSTORE POP POP JUMP JUMPDEST PUSH0 PUSH1 0x40 DUP3 ADD SWAP1 POP PUSH2 0x102B PUSH0 DUP4 ADD DUP6 PUSH2 0x1009 JUMP JUMPDEST PUSH2 0x1038 PUSH1 0x20 DUP4 ADD DUP5 PUSH2 0xC11 JUMP JUMPDEST SWAP4 SWAP3 POP POP POP JUMP JUMPDEST PUSH32 0x4E487B7100000000000000000000000000000000000000000000000000000000 PUSH0 MSTORE PUSH1 0x32 PUSH1 0x4 MSTORE PUSH1 0x24 PUSH0 REVERT JUMPDEST PUSH0 DUP2 MLOAD SWAP1 POP PUSH2 0x107A DUP2 PUSH2 0xD6D JUMP JUMPDEST SWAP3 SWAP2 POP POP JUMP JUMPDEST PUSH0 PUSH1 0x20 DUP3 DUP5 SUB SLT ISZERO PUSH2 0x1095 JUMPI PUSH2 0x1094 PUSH2 0xC47 JUMP JUMPDEST JUMPDEST PUSH0 PUSH2 0x10A2 DUP5 DUP3 DUP6 ADD PUSH2 0x106C JUMP JUMPDEST SWAP2 POP POP SWAP3 SWAP2 POP POP JUMP JUMPDEST PUSH0 PUSH1 0x40 DUP3 ADD SWAP1 POP PUSH2 0x10BE PUSH0 DUP4 ADD DUP6 PUSH2 0xC11 JUMP JUMPDEST PUSH2 0x10CB PUSH1 0x20 DUP4 ADD DUP5 PUSH2 0xC11 JUMP JUMPDEST SWAP4 SWAP3 POP POP POP JUMP JUMPDEST PUSH0 DUP2 SWAP1 POP SWAP3 SWAP2 POP POP JUMP JUMPDEST POP JUMP JUMPDEST PUSH0 PUSH2 0x10EA PUSH0 DUP4 PUSH2 0x10D2 JUMP JUMPDEST SWAP2 POP PUSH2 0x10F5 DUP3 PUSH2 0x10DC JUMP JUMPDEST PUSH0 DUP3 ADD SWAP1 POP SWAP2 SWAP1 POP JUMP JUMPDEST PUSH0 PUSH2 0x1109 DUP3 PUSH2 0x10DF JUMP JUMPDEST SWAP2 POP DUP2 SWAP1 POP SWAP2 SWAP1 POP JUMP JUMPDEST PUSH0 PUSH2 0x111D DUP3 PUSH2 0xC08 JUMP JUMPDEST SWAP2 POP PUSH2 0x1128 DUP4 PUSH2 0xC08 JUMP JUMPDEST SWAP3 POP DUP3 DUP3 MUL PUSH2 0x1136 DUP2 PUSH2 0xC08 JUMP JUMPDEST SWAP2 POP DUP3 DUP3 DIV DUP5 EQ DUP4 ISZERO OR PUSH2 0x114D JUMPI PUSH2 0x114C PUSH2 0xF5D JUMP JUMPDEST JUMPDEST POP SWAP3 SWAP2 POP POP JUMP JUMPDEST PUSH32 0x4E487B7100000000000000000000000000000000000000000000000000000000 PUSH0 MSTORE PUSH1 0x12 PUSH1 0x4 MSTORE PUSH1 0x24 PUSH0 REVERT JUMPDEST PUSH0 PUSH2 0x118B DUP3 PUSH2 0xC08 JUMP JUMPDEST SWAP2 POP PUSH2 0x1196 DUP4 PUSH2 0xC08 JUMP JUMPDEST SWAP3 POP DUP3 PUSH2 0x11A6 JUMPI PUSH2 0x11A5 PUSH2 0x1154 JUMP JUMPDEST JUMPDEST DUP3 DUP3 DIV SWAP1 POP SWAP3 SWAP2 POP POP JUMP JUMPDEST PUSH0 PUSH2 0x11BB DUP3 PUSH2 0xC08 JUMP JUMPDEST SWAP2 POP PUSH2 0x11C6 DUP4 PUSH2 0xC08 JUMP JUMPDEST SWAP3 POP DUP3 DUP3 SUB SWAP1 POP DUP2 DUP2 GT ISZERO PUSH2 0x11DE JUMPI PUSH2 0x11DD PUSH2 0xF5D JUMP JUMPDEST JUMPDEST SWAP3 SWAP2 POP POP JUMP INVALID LOG2 PUSH5 0x6970667358 0x22 SLT KECCAK256 AND 0xC5 MSTORE8 0xEA 0xB5 0x2D 0xE5 PUSH11 0x679C8EF39EE0A6292CE4FB PUSH10 0x4CEE284A566CB2DB64CF 0x4D 0x22 PUSH5 0x736F6C6343 STOP ADDMOD EQ STOP CALLER LOG2 PUSH5 0x6970667358 0x22 SLT KECCAK256 0xCE CHAINID PUSH9 0xF599E0A49D08E28C1C 0x25 SMOD 0x2C GASLIMIT PUSH11 0x871AD249347CD1B27FED4B DUP14 0xE2 DUP3 REVERT PUSH5 0x736F6C6343 STOP ADDMOD EQ STOP CALLER "
				},
				"gasEstimates": {
					"creation": {
						"codeDepositCost": "2144200",
						"executionCost": "infinite",
						"totalCost": "infinite"
					},
					"external": {
						"assetIdToSplitter(uint256)": "2826",
						"createSplitter(uint256)": "infinite",
						"provenanceGraph()": "infinite"
					}
				},
				"methodIdentifiers": {
					"assetIdToSplitter(uint256)": "0abc9786",
					"createSplitter(uint256)": "012d6707",
					"provenanceGraph()": "9a3bbed3"
				}
			},
			"storageLayout": {
				"storage": [
					{
						"astId": 1440,
						"contract": "contracts/RoyaltySplitFactory.sol:RoyaltySplitFactory",
						"label": "assetIdToSplitter",
						"offset": 0,
						"slot": "0",
						"type": "t_mapping(t_uint256,t_address)"
					}
				],
				"types": {
					"t_address": {
						"encoding": "inplace",
						"label": "address",
						"numberOfBytes": "20"
					},
					"t_mapping(t_uint256,t_address)": {
						"encoding": "mapping",
						"key": "t_uint256",
						"label": "mapping(uint256 => address)",
						"numberOfBytes": "32",
						"value": "t_address"
					},
					"t_uint256": {
						"encoding": "inplace",
						"label": "uint256",
						"numberOfBytes": "32"
					}
				}
			},
			"userdoc": {
				"kind": "user",
				"methods": {
					"createSplitter(uint256)": {
						"notice": "Deploys a new PaymentSplitter contract for a given asset."
					}
				},
				"notice": "A factory contract that deploys a unique PaymentSplitter for each finalized asset. This contract reads provenance data to create on-chain royalty distribution mechanisms.",
				"version": 1
			}
		}
	}
}