{
	"contracts/Escrow.sol": {
		"Escrow": {
			"abi": [
				{
					"inputs": [
						{
							"internalType": "address",
							"name": "_admin",
							"type": "address"
						},
						{
							"internalType": "address",
							"name": "_arbiter",
							"type": "address"
						},
						{
							"internalType": "address",
							"name": "_verifier",
							"type": "address"
						},
						{
							"internalType": "address",
							"name": "_usdcAddress",
							"type": "address"
						},
						{
							"internalType": "address",
							"name": "_feeTreasuryAddress",
							"type": "address"
						}
					],
					"stateMutability": "nonpayable",
					"type": "constructor"
				},
				{
					"inputs": [],
					"name": "AccessControlBadConfirmation",
					"type": "error"
				},
				{
					"inputs": [
						{
							"internalType": "address",
							"name": "account",
							"type": "address"
						},
						{
							"internalType": "bytes32",
							"name": "neededRole",
							"type": "bytes32"
						}
					],
					"name": "AccessControlUnauthorizedAccount",
					"type": "error"
				},
				{
					"inputs": [],
					"name": "DisputeWindowClosed",
					"type": "error"
				},
				{
					"inputs": [],
					"name": "HoldPeriodNotOver",
					"type": "error"
				},
				{
					"inputs": [],
					"name": "InvalidStatus",
					"type": "error"
				},
				{
					"inputs": [],
					"name": "NotAuthorized",
					"type": "error"
				},
				{
					"inputs": [
						{
							"internalType": "address",
							"name": "token",
							"type": "address"
						}
					],
					"name": "SafeERC20FailedOperation",
					"type": "error"
				},
				{
					"inputs": [],
					"name": "ZeroAddress",
					"type": "error"
				},
				{
					"anonymous": false,
					"inputs": [
						{
							"indexed": true,
							"internalType": "uint256",
							"name": "escrowId",
							"type": "uint256"
						}
					],
					"name": "DisputeOpened",
					"type": "event"
				},
				{
					"anonymous": false,
					"inputs": [
						{
							"indexed": true,
							"internalType": "uint256",
							"name": "escrowId",
							"type": "uint256"
						},
						{
							"indexed": true,
							"internalType": "uint256",
							"name": "assetId",
							"type": "uint256"
						},
						{
							"indexed": true,
							"internalType": "address",
							"name": "user",
							"type": "address"
						},
						{
							"indexed": false,
							"internalType": "uint256",
							"name": "amount",
							"type": "uint256"
						}
					],
					"name": "PaymentHeld",
					"type": "event"
				},
				{
					"anonymous": false,
					"inputs": [
						{
							"indexed": true,
							"internalType": "uint256",
							"name": "escrowId",
							"type": "uint256"
						}
					],
					"name": "PaymentRefunded",
					"type": "event"
				},
				{
					"anonymous": false,
					"inputs": [
						{
							"indexed": true,
							"internalType": "uint256",
							"name": "escrowId",
							"type": "uint256"
						},
						{
							"indexed": false,
							"internalType": "uint256",
							"name": "amountToContributors",
							"type": "uint256"
						},
						{
							"indexed": false,
							"internalType": "uint256",
							"name": "protocolFee",
							"type": "uint256"
						}
					],
					"name": "PaymentReleased",
					"type": "event"
				},
				{
					"anonymous": false,
					"inputs": [
						{
							"indexed": true,
							"internalType": "bytes32",
							"name": "role",
							"type": "bytes32"
						},
						{
							"indexed": true,
							"internalType": "bytes32",
							"name": "previousAdminRole",
							"type": "bytes32"
						},
						{
							"indexed": true,
							"internalType": "bytes32",
							"name": "newAdminRole",
							"type": "bytes32"
						}
					],
					"name": "RoleAdminChanged",
					"type": "event"
				},
				{
					"anonymous": false,
					"inputs": [
						{
							"indexed": true,
							"internalType": "bytes32",
							"name": "role",
							"type": "bytes32"
						},
						{
							"indexed": true,
							"internalType": "address",
							"name": "account",
							"type": "address"
						},
						{
							"indexed": true,
							"internalType": "address",
							"name": "sender",
							"type": "address"
						}
					],
					"name": "RoleGranted",
					"type": "event"
				},
				{
					"anonymous": false,
					"inputs": [
						{
							"indexed": true,
							"internalType": "bytes32",
							"name": "role",
							"type": "bytes32"
						},
						{
							"indexed": true,
							"internalType": "address",
							"name": "account",
							"type": "address"
						},
						{
							"indexed": true,
							"internalType": "address",
							"name": "sender",
							"type": "address"
						}
					],
					"name": "RoleRevoked",
					"type": "event"
				},
				{
					"inputs": [],
					"name": "ARBITER_ROLE",
					"outputs": [
						{
							"internalType": "bytes32",
							"name": "",
							"type": "bytes32"
						}
					],
					"stateMutability": "view",
					"type": "function"
				},
				{
					"inputs": [],
					"name": "DEFAULT_ADMIN_ROLE",
					"outputs": [
						{
							"internalType": "bytes32",
							"name": "",
							"type": "bytes32"
						}
					],
					"stateMutability": "view",
					"type": "function"
				},
				{
					"inputs": [],
					"name": "HOLD_PERIOD",
					"outputs": [
						{
							"internalType": "uint256",
							"name": "",
							"type": "uint256"
						}
					],
					"stateMutability": "view",
					"type": "function"
				},
				{
					"inputs": [],
					"name": "VERIFIER_ROLE",
					"outputs": [
						{
							"internalType": "bytes32",
							"name": "",
							"type": "bytes32"
						}
					],
					"stateMutability": "view",
					"type": "function"
				},
				{
					"inputs": [
						{
							"internalType": "uint256",
							"name": "",
							"type": "uint256"
						}
					],
					"name": "escrows",
					"outputs": [
						{
							"internalType": "uint256",
							"name": "id",
							"type": "uint256"
						},
						{
							"internalType": "address",
							"name": "user",
							"type": "address"
						},
						{
							"internalType": "uint256",
							"name": "assetId",
							"type": "uint256"
						},
						{
							"internalType": "uint256",
							"name": "amount",
							"type": "uint256"
						},
						{
							"internalType": "address",
							"name": "paymentSplitter",
							"type": "address"
						},
						{
							"internalType": "uint256",
							"name": "releaseTime",
							"type": "uint256"
						},
						{
							"internalType": "enum Escrow.Status",
							"name": "status",
							"type": "uint8"
						}
					],
					"stateMutability": "view",
					"type": "function"
				},
				{
					"inputs": [],
					"name": "feeTreasury",
					"outputs": [
						{
							"internalType": "contract IFeeTreasury",
							"name": "",
							"type": "address"
						}
					],
					"stateMutability": "view",
					"type": "function"
				},
				{
					"inputs": [
						{
							"internalType": "bytes32",
							"name": "role",
							"type": "bytes32"
						}
					],
					"name": "getRoleAdmin",
					"outputs": [
						{
							"internalType": "bytes32",
							"name": "",
							"type": "bytes32"
						}
					],
					"stateMutability": "view",
					"type": "function"
				},
				{
					"inputs": [
						{
							"internalType": "bytes32",
							"name": "role",
							"type": "bytes32"
						},
						{
							"internalType": "address",
							"name": "account",
							"type": "address"
						}
					],
					"name": "grantRole",
					"outputs": [],
					"stateMutability": "nonpayable",
					"type": "function"
				},
				{
					"inputs": [
						{
							"internalType": "bytes32",
							"name": "role",
							"type": "bytes32"
						},
						{
							"internalType": "address",
							"name": "account",
							"type": "address"
						}
					],
					"name": "hasRole",
					"outputs": [
						{
							"internalType": "bool",
							"name": "",
							"type": "bool"
						}
					],
					"stateMutability": "view",
					"type": "function"
				},
				{
					"inputs": [
						{
							"internalType": "uint256",
							"name": "_assetId",
							"type": "uint256"
						},
						{
							"internalType": "address",
							"name": "_user",
							"type": "address"
						},
						{
							"internalType": "uint256",
							"name": "_amount",
							"type": "uint256"
						},
						{
							"internalType": "address",
							"name": "_paymentSplitter",
							"type": "address"
						}
					],
					"name": "holdPayment",
					"outputs": [],
					"stateMutability": "nonpayable",
					"type": "function"
				},
				{
					"inputs": [
						{
							"internalType": "uint256",
							"name": "_escrowId",
							"type": "uint256"
						}
					],
					"name": "openDispute",
					"outputs": [],
					"stateMutability": "nonpayable",
					"type": "function"
				},
				{
					"inputs": [
						{
							"internalType": "uint256",
							"name": "_escrowId",
							"type": "uint256"
						}
					],
					"name": "release",
					"outputs": [],
					"stateMutability": "nonpayable",
					"type": "function"
				},
				{
					"inputs": [
						{
							"internalType": "bytes32",
							"name": "role",
							"type": "bytes32"
						},
						{
							"internalType": "address",
							"name": "callerConfirmation",
							"type": "address"
						}
					],
					"name": "renounceRole",
					"outputs": [],
					"stateMutability": "nonpayable",
					"type": "function"
				},
				{
					"inputs": [
						{
							"internalType": "uint256",
							"name": "_escrowId",
							"type": "uint256"
						},
						{
							"internalType": "bool",
							"name": "_refundToUser",
							"type": "bool"
						}
					],
					"name": "resolveDispute",
					"outputs": [],
					"stateMutability": "nonpayable",
					"type": "function"
				},
				{
					"inputs": [
						{
							"internalType": "bytes32",
							"name": "role",
							"type": "bytes32"
						},
						{
							"internalType": "address",
							"name": "account",
							"type": "address"
						}
					],
					"name": "revokeRole",
					"outputs": [],
					"stateMutability": "nonpayable",
					"type": "function"
				},
				{
					"inputs": [
						{
							"internalType": "bytes4",
							"name": "interfaceId",
							"type": "bytes4"
						}
					],
					"name": "supportsInterface",
					"outputs": [
						{
							"internalType": "bool",
							"name": "",
							"type": "bool"
						}
					],
					"stateMutability": "view",
					"type": "function"
				},
				{
					"inputs": [],
					"name": "usdc",
					"outputs": [
						{
							"internalType": "contract IERC20",
							"name": "",
							"type": "address"
						}
					],
					"stateMutability": "view",
					"type": "function"
				}
			],
			"devdoc": {
				"author": "Hassan Ali",
				"errors": {
					"AccessControlBadConfirmation()": [
						{
							"details": "The caller of a function is not the expected one. NOTE: Don't confuse with {AccessControlUnauthorizedAccount}."
						}
					],
					"AccessControlUnauthorizedAccount(address,bytes32)": [
						{
							"details": "The `account` is missing a role."
						}
					],
					"SafeERC20FailedOperation(address)": [
						{
							"details": "An operation with an ERC-20 token failed."
						}
					]
				},
				"events": {
					"RoleAdminChanged(bytes32,bytes32,bytes32)": {
						"details": "Emitted when `newAdminRole` is set as ``role``'s admin role, replacing `previousAdminRole` `DEFAULT_ADMIN_ROLE` is the starting admin for all roles, despite {RoleAdminChanged} not being emitted to signal this."
					},
					"RoleGranted(bytes32,address,address)": {
						"details": "Emitted when `account` is granted `role`. `sender` is the account that originated the contract call. This account bears the admin role (for the granted role). Expected in cases where the role was granted using the internal {AccessControl-_grantRole}."
					},
					"RoleRevoked(bytes32,address,address)": {
						"details": "Emitted when `account` is revoked `role`. `sender` is the account that originated the contract call:   - if using `revokeRole`, it is the admin role bearer   - if using `renounceRole`, it is the role bearer (i.e. `account`)"
					}
				},
				"kind": "dev",
				"methods": {
					"getRoleAdmin(bytes32)": {
						"details": "Returns the admin role that controls `role`. See {grantRole} and {revokeRole}. To change a role's admin, use {_setRoleAdmin}."
					},
					"grantRole(bytes32,address)": {
						"details": "Grants `role` to `account`. If `account` had not been already granted `role`, emits a {RoleGranted} event. Requirements: - the caller must have ``role``'s admin role. May emit a {RoleGranted} event."
					},
					"hasRole(bytes32,address)": {
						"details": "Returns `true` if `account` has been granted `role`."
					},
					"holdPayment(uint256,address,uint256,address)": {
						"details": "Can only be called by a trusted Verifier contract."
					},
					"openDispute(uint256)": {
						"details": "Can only be called by the user who made the payment, and only while status is Held."
					},
					"release(uint256)": {
						"details": "Can be called by anyone, but only executes if status is Held and time is up. This function will split the payment between the contributors and the protocol treasury."
					},
					"renounceRole(bytes32,address)": {
						"details": "Revokes `role` from the calling account. Roles are often managed via {grantRole} and {revokeRole}: this function's purpose is to provide a mechanism for accounts to lose their privileges if they are compromised (such as when a trusted device is misplaced). If the calling account had been revoked `role`, emits a {RoleRevoked} event. Requirements: - the caller must be `callerConfirmation`. May emit a {RoleRevoked} event."
					},
					"resolveDispute(uint256,bool)": {
						"details": "Can only be called by an Arbiter."
					},
					"revokeRole(bytes32,address)": {
						"details": "Revokes `role` from `account`. If `account` had been granted `role`, emits a {RoleRevoked} event. Requirements: - the caller must have ``role``'s admin role. May emit a {RoleRevoked} event."
					},
					"supportsInterface(bytes4)": {
						"details": "Returns true if this contract implements the interface defined by `interfaceId`. See the corresponding https://eips.ethereum.org/EIPS/eip-165#how-interfaces-are-identified[ERC section] to learn more about how these ids are created. This function call must use less than 30 000 gas."
					}
				},
				"title": "Escrow",
				"version": 1
			},
			"evm": {
				"assembly": "    /* \"contracts/Escrow.sol\":481:6064  contract Escrow is AccessControl {... */\n  mstore(0x40, 0xc0)\n    /* \"contracts/Escrow.sol\":1906:2589  constructor(... */\n  callvalue\n  dup1\n  iszero\n  tag_1\n  jumpi\n  0x00\n  dup1\n  revert\ntag_1:\n  pop\n  mload(0x40)\n  sub(codesize, bytecodeSize)\n  dup1\n  bytecodeSize\n  dup4\n  codecopy\n  dup2\n  dup2\n  add\n  0x40\n  mstore\n  dup2\n  add\n  swap1\n  tag_2\n  swap2\n  swap1\n  tag_3\n  jump\t// in\ntag_2:\n    /* \"contracts/Escrow.sol\":2137:2138  0 */\n  0x00\n    /* \"contracts/Escrow.sol\":2119:2139  _admin == address(0) */\n  0xffffffffffffffffffffffffffffffffffffffff\n  and\n    /* \"contracts/Escrow.sol\":2119:2125  _admin */\n  dup6\n    /* \"contracts/Escrow.sol\":2119:2139  _admin == address(0) */\n  0xffffffffffffffffffffffffffffffffffffffff\n  and\n  eq\n    /* \"contracts/Escrow.sol\":2119:2165  _admin == address(0) || _arbiter == address(0) */\n  dup1\n  tag_6\n  jumpi\n  pop\n    /* \"contracts/Escrow.sol\":2163:2164  0 */\n  0x00\n    /* \"contracts/Escrow.sol\":2143:2165  _arbiter == address(0) */\n  0xffffffffffffffffffffffffffffffffffffffff\n  and\n    /* \"contracts/Escrow.sol\":2143:2151  _arbiter */\n  dup5\n    /* \"contracts/Escrow.sol\":2143:2165  _arbiter == address(0) */\n  0xffffffffffffffffffffffffffffffffffffffff\n  and\n  eq\n    /* \"contracts/Escrow.sol\":2119:2165  _admin == address(0) || _arbiter == address(0) */\ntag_6:\n    /* \"contracts/Escrow.sol\":2119:2192  _admin == address(0) || _arbiter == address(0) || _verifier == address(0) */\n  dup1\n  tag_7\n  jumpi\n  pop\n    /* \"contracts/Escrow.sol\":2190:2191  0 */\n  0x00\n    /* \"contracts/Escrow.sol\":2169:2192  _verifier == address(0) */\n  0xffffffffffffffffffffffffffffffffffffffff\n  and\n    /* \"contracts/Escrow.sol\":2169:2178  _verifier */\n  dup4\n    /* \"contracts/Escrow.sol\":2169:2192  _verifier == address(0) */\n  0xffffffffffffffffffffffffffffffffffffffff\n  and\n  eq\n    /* \"contracts/Escrow.sol\":2119:2192  _admin == address(0) || _arbiter == address(0) || _verifier == address(0) */\ntag_7:\n    /* \"contracts/Escrow.sol\":2119:2222  _admin == address(0) || _arbiter == address(0) || _verifier == address(0) || _usdcAddress == address(0) */\n  dup1\n  tag_8\n  jumpi\n  pop\n    /* \"contracts/Escrow.sol\":2220:2221  0 */\n  0x00\n    /* \"contracts/Escrow.sol\":2196:2222  _usdcAddress == address(0) */\n  0xffffffffffffffffffffffffffffffffffffffff\n  and\n    /* \"contracts/Escrow.sol\":2196:2208  _usdcAddress */\n  dup3\n    /* \"contracts/Escrow.sol\":2196:2222  _usdcAddress == address(0) */\n  0xffffffffffffffffffffffffffffffffffffffff\n  and\n  eq\n    /* \"contracts/Escrow.sol\":2119:2222  _admin == address(0) || _arbiter == address(0) || _verifier == address(0) || _usdcAddress == address(0) */\ntag_8:\n    /* \"contracts/Escrow.sol\":2119:2259  _admin == address(0) || _arbiter == address(0) || _verifier == address(0) || _usdcAddress == address(0) || _feeTreasuryAddress == address(0) */\n  dup1\n  tag_9\n  jumpi\n  pop\n    /* \"contracts/Escrow.sol\":2257:2258  0 */\n  0x00\n    /* \"contracts/Escrow.sol\":2226:2259  _feeTreasuryAddress == address(0) */\n  0xffffffffffffffffffffffffffffffffffffffff\n  and\n    /* \"contracts/Escrow.sol\":2226:2245  _feeTreasuryAddress */\n  dup2\n    /* \"contracts/Escrow.sol\":2226:2259  _feeTreasuryAddress == address(0) */\n  0xffffffffffffffffffffffffffffffffffffffff\n  and\n  eq\n    /* \"contracts/Escrow.sol\":2119:2259  _admin == address(0) || _arbiter == address(0) || _verifier == address(0) || _usdcAddress == address(0) || _feeTreasuryAddress == address(0) */\ntag_9:\n    /* \"contracts/Escrow.sol\":2115:2308  if (_admin == address(0) || _arbiter == address(0) || _verifier == address(0) || _usdcAddress == address(0) || _feeTreasuryAddress == address(0)) {... */\n  iszero\n  tag_10\n  jumpi\n    /* \"contracts/Escrow.sol\":2283:2296  ZeroAddress() */\n  mload(0x40)\n  0xd92e233d00000000000000000000000000000000000000000000000000000000\n  dup2\n  mstore\n  0x04\n  add\n  mload(0x40)\n  dup1\n  swap2\n  sub\n  swap1\n  revert\n    /* \"contracts/Escrow.sol\":2115:2308  if (_admin == address(0) || _arbiter == address(0) || _verifier == address(0) || _usdcAddress == address(0) || _feeTreasuryAddress == address(0)) {... */\ntag_10:\n    /* \"contracts/Escrow.sol\":2320:2358  _grantRole(DEFAULT_ADMIN_ROLE, _admin) */\n  tag_11\n    /* \"@openzeppelin/contracts/access/AccessControl.sol\":2241:2245  0x00 */\n  0x00\n    /* \"contracts/Escrow.sol\":2331:2349  DEFAULT_ADMIN_ROLE */\n  dup1\n  shl\n    /* \"contracts/Escrow.sol\":2351:2357  _admin */\n  dup7\n    /* \"contracts/Escrow.sol\":2320:2330  _grantRole */\n  shl(0x20, tag_12)\n    /* \"contracts/Escrow.sol\":2320:2358  _grantRole(DEFAULT_ADMIN_ROLE, _admin) */\n  0x20\n  shr\n  jump\t// in\ntag_11:\n  pop\n    /* \"contracts/Escrow.sol\":2369:2403  _grantRole(ARBITER_ROLE, _arbiter) */\n  tag_13\n    /* \"contracts/Escrow.sol\":999:1024  keccak256(\"ARBITER_ROLE\") */\n  0xbb08418a67729a078f87bbc8d02a770929bb68f5bfdf134ae2ead6ed38e2f4ae\n    /* \"contracts/Escrow.sol\":2394:2402  _arbiter */\n  dup6\n    /* \"contracts/Escrow.sol\":2369:2379  _grantRole */\n  shl(0x20, tag_12)\n    /* \"contracts/Escrow.sol\":2369:2403  _grantRole(ARBITER_ROLE, _arbiter) */\n  0x20\n  shr\n  jump\t// in\ntag_13:\n  pop\n    /* \"contracts/Escrow.sol\":2414:2450  _grantRole(VERIFIER_ROLE, _verifier) */\n  tag_14\n    /* \"contracts/Escrow.sol\":927:953  keccak256(\"VERIFIER_ROLE\") */\n  0x0ce23c3e399818cfee81a7ab0880f714e53d7672b08df0fa62f2843416e1ea09\n    /* \"contracts/Escrow.sol\":2440:2449  _verifier */\n  dup5\n    /* \"contracts/Escrow.sol\":2414:2424  _grantRole */\n  shl(0x20, tag_12)\n    /* \"contracts/Escrow.sol\":2414:2450  _grantRole(VERIFIER_ROLE, _verifier) */\n  0x20\n  shr\n  jump\t// in\ntag_14:\n  pop\n    /* \"contracts/Escrow.sol\":2477:2489  _usdcAddress */\n  dup2\n    /* \"contracts/Escrow.sol\":2463:2490  usdc = IERC20(_usdcAddress) */\n  0xffffffffffffffffffffffffffffffffffffffff\n  and\n  0x80\n  dup2\n  0xffffffffffffffffffffffffffffffffffffffff\n  and\n  dup2\n  mstore\n  pop\n  pop\n    /* \"contracts/Escrow.sol\":2528:2547  _feeTreasuryAddress */\n  dup1\n    /* \"contracts/Escrow.sol\":2501:2548  feeTreasury = IFeeTreasury(_feeTreasuryAddress) */\n  0xffffffffffffffffffffffffffffffffffffffff\n  and\n  0xa0\n  dup2\n  0xffffffffffffffffffffffffffffffffffffffff\n  and\n  dup2\n  mstore\n  pop\n  pop\n    /* \"contracts/Escrow.sol\":1906:2589  constructor(... */\n  pop\n  pop\n  pop\n  pop\n  pop\n    /* \"contracts/Escrow.sol\":481:6064  contract Escrow is AccessControl {... */\n  jump(tag_15)\n    /* \"@openzeppelin/contracts/access/AccessControl.sol\":6155:6471  function _grantRole(bytes32 role, address account) internal virtual returns (bool) {... */\ntag_12:\n    /* \"@openzeppelin/contracts/access/AccessControl.sol\":6232:6236  bool */\n  0x00\n    /* \"@openzeppelin/contracts/access/AccessControl.sol\":6253:6275  hasRole(role, account) */\n  tag_17\n    /* \"@openzeppelin/contracts/access/AccessControl.sol\":6261:6265  role */\n  dup4\n    /* \"@openzeppelin/contracts/access/AccessControl.sol\":6267:6274  account */\n  dup4\n    /* \"@openzeppelin/contracts/access/AccessControl.sol\":6253:6260  hasRole */\n  shl(0x20, tag_18)\n    /* \"@openzeppelin/contracts/access/AccessControl.sol\":6253:6275  hasRole(role, account) */\n  0x20\n  shr\n  jump\t// in\ntag_17:\n    /* \"@openzeppelin/contracts/access/AccessControl.sol\":6248:6465  if (!hasRole(role, account)) {... */\n  tag_19\n  jumpi\n    /* \"@openzeppelin/contracts/access/AccessControl.sol\":6323:6327  true */\n  0x01\n    /* \"@openzeppelin/contracts/access/AccessControl.sol\":6291:6297  _roles */\n  0x00\n    /* \"@openzeppelin/contracts/access/AccessControl.sol\":6291:6303  _roles[role] */\n  dup1\n    /* \"@openzeppelin/contracts/access/AccessControl.sol\":6298:6302  role */\n  dup6\n    /* \"@openzeppelin/contracts/access/AccessControl.sol\":6291:6303  _roles[role] */\n  dup2\n  mstore\n  0x20\n  add\n  swap1\n  dup2\n  mstore\n  0x20\n  add\n  0x00\n  keccak256\n    /* \"@openzeppelin/contracts/access/AccessControl.sol\":6291:6311  _roles[role].hasRole */\n  0x00\n  add\n    /* \"@openzeppelin/contracts/access/AccessControl.sol\":6291:6320  _roles[role].hasRole[account] */\n  0x00\n    /* \"@openzeppelin/contracts/access/AccessControl.sol\":6312:6319  account */\n  dup5\n    /* \"@openzeppelin/contracts/access/AccessControl.sol\":6291:6320  _roles[role].hasRole[account] */\n  0xffffffffffffffffffffffffffffffffffffffff\n  and\n  0xffffffffffffffffffffffffffffffffffffffff\n  and\n  dup2\n  mstore\n  0x20\n  add\n  swap1\n  dup2\n  mstore\n  0x20\n  add\n  0x00\n  keccak256\n  0x00\n    /* \"@openzeppelin/contracts/access/AccessControl.sol\":6291:6327  _roles[role].hasRole[account] = true */\n  0x0100\n  exp\n  dup2\n  sload\n  dup2\n  0xff\n  mul\n  not\n  and\n  swap1\n  dup4\n  iszero\n  iszero\n  mul\n  or\n  swap1\n  sstore\n  pop\n    /* \"@openzeppelin/contracts/access/AccessControl.sol\":6373:6385  _msgSender() */\n  tag_20\n    /* \"@openzeppelin/contracts/access/AccessControl.sol\":6373:6383  _msgSender */\n  shl(0x20, tag_21)\n    /* \"@openzeppelin/contracts/access/AccessControl.sol\":6373:6385  _msgSender() */\n  0x20\n  shr\n  jump\t// in\ntag_20:\n    /* \"@openzeppelin/contracts/access/AccessControl.sol\":6346:6386  RoleGranted(role, account, _msgSender()) */\n  0xffffffffffffffffffffffffffffffffffffffff\n  and\n    /* \"@openzeppelin/contracts/access/AccessControl.sol\":6364:6371  account */\n  dup3\n    /* \"@openzeppelin/contracts/access/AccessControl.sol\":6346:6386  RoleGranted(role, account, _msgSender()) */\n  0xffffffffffffffffffffffffffffffffffffffff\n  and\n    /* \"@openzeppelin/contracts/access/AccessControl.sol\":6358:6362  role */\n  dup5\n    /* \"@openzeppelin/contracts/access/AccessControl.sol\":6346:6386  RoleGranted(role, account, _msgSender()) */\n  0x2f8788117e7eff1d82e926ec794901d17c78024a50270940304540a733656f0d\n  mload(0x40)\n  mload(0x40)\n  dup1\n  swap2\n  sub\n  swap1\n  log4\n    /* \"@openzeppelin/contracts/access/AccessControl.sol\":6407:6411  true */\n  0x01\n    /* \"@openzeppelin/contracts/access/AccessControl.sol\":6400:6411  return true */\n  swap1\n  pop\n  jump(tag_16)\n    /* \"@openzeppelin/contracts/access/AccessControl.sol\":6248:6465  if (!hasRole(role, account)) {... */\ntag_19:\n    /* \"@openzeppelin/contracts/access/AccessControl.sol\":6449:6454  false */\n  0x00\n    /* \"@openzeppelin/contracts/access/AccessControl.sol\":6442:6454  return false */\n  swap1\n  pop\n    /* \"@openzeppelin/contracts/access/AccessControl.sol\":6155:6471  function _grantRole(bytes32 role, address account) internal virtual returns (bool) {... */\ntag_16:\n  swap3\n  swap2\n  pop\n  pop\n  jump\t// out\n    /* \"@openzeppelin/contracts/access/AccessControl.sol\":2830:2966  function hasRole(bytes32 role, address account) public view virtual returns (bool) {... */\ntag_18:\n    /* \"@openzeppelin/contracts/access/AccessControl.sol\":2907:2911  bool */\n  0x00\n    /* \"@openzeppelin/contracts/access/AccessControl.sol\":2930:2936  _roles */\n  dup1\n    /* \"@openzeppelin/contracts/access/AccessControl.sol\":2930:2942  _roles[role] */\n  0x00\n    /* \"@openzeppelin/contracts/access/AccessControl.sol\":2937:2941  role */\n  dup5\n    /* \"@openzeppelin/contracts/access/AccessControl.sol\":2930:2942  _roles[role] */\n  dup2\n  mstore\n  0x20\n  add\n  swap1\n  dup2\n  mstore\n  0x20\n  add\n  0x00\n  keccak256\n    /* \"@openzeppelin/contracts/access/AccessControl.sol\":2930:2950  _roles[role].hasRole */\n  0x00\n  add\n    /* \"@openzeppelin/contracts/access/AccessControl.sol\":2930:2959  _roles[role].hasRole[account] */\n  0x00\n    /* \"@openzeppelin/contracts/access/AccessControl.sol\":2951:2958  account */\n  dup4\n    /* \"@openzeppelin/contracts/access/AccessControl.sol\":2930:2959  _roles[role].hasRole[account] */\n  0xffffffffffffffffffffffffffffffffffffffff\n  and\n  0xffffffffffffffffffffffffffffffffffffffff\n  and\n  dup2\n  mstore\n  0x20\n  add\n  swap1\n  dup2\n  mstore\n  0x20\n  add\n  0x00\n  keccak256\n  0x00\n  swap1\n  sload\n  swap1\n  0x0100\n  exp\n  swap1\n  div\n  0xff\n  and\n    /* \"@openzeppelin/contracts/access/AccessControl.sol\":2923:2959  return _roles[role].hasRole[account] */\n  swap1\n  pop\n    /* \"@openzeppelin/contracts/access/AccessControl.sol\":2830:2966  function hasRole(bytes32 role, address account) public view virtual returns (bool) {... */\n  swap3\n  swap2\n  pop\n  pop\n  jump\t// out\n    /* \"@openzeppelin/contracts/utils/Context.sol\":656:752  function _msgSender() internal view virtual returns (address) {... */\ntag_21:\n    /* \"@openzeppelin/contracts/utils/Context.sol\":709:716  address */\n  0x00\n    /* \"@openzeppelin/contracts/utils/Context.sol\":735:745  msg.sender */\n  caller\n    /* \"@openzeppelin/contracts/utils/Context.sol\":728:745  return msg.sender */\n  swap1\n  pop\n    /* \"@openzeppelin/contracts/utils/Context.sol\":656:752  function _msgSender() internal view virtual returns (address) {... */\n  swap1\n  jump\t// out\n    /* \"#utility.yul\":88:205   */\ntag_26:\n    /* \"#utility.yul\":197:198   */\n  0x00\n    /* \"#utility.yul\":194:195   */\n  dup1\n    /* \"#utility.yul\":187:199   */\n  revert\n    /* \"#utility.yul\":334:460   */\ntag_28:\n    /* \"#utility.yul\":371:378   */\n  0x00\n    /* \"#utility.yul\":411:453   */\n  0xffffffffffffffffffffffffffffffffffffffff\n    /* \"#utility.yul\":404:409   */\n  dup3\n    /* \"#utility.yul\":400:454   */\n  and\n    /* \"#utility.yul\":389:454   */\n  swap1\n  pop\n    /* \"#utility.yul\":334:460   */\n  swap2\n  swap1\n  pop\n  jump\t// out\n    /* \"#utility.yul\":466:562   */\ntag_29:\n    /* \"#utility.yul\":503:510   */\n  0x00\n    /* \"#utility.yul\":532:556   */\n  tag_38\n    /* \"#utility.yul\":550:555   */\n  dup3\n    /* \"#utility.yul\":532:556   */\n  tag_28\n  jump\t// in\ntag_38:\n    /* \"#utility.yul\":521:556   */\n  swap1\n  pop\n    /* \"#utility.yul\":466:562   */\n  swap2\n  swap1\n  pop\n  jump\t// out\n    /* \"#utility.yul\":568:690   */\ntag_30:\n    /* \"#utility.yul\":641:665   */\n  tag_40\n    /* \"#utility.yul\":659:664   */\n  dup2\n    /* \"#utility.yul\":641:665   */\n  tag_29\n  jump\t// in\ntag_40:\n    /* \"#utility.yul\":634:639   */\n  dup2\n    /* \"#utility.yul\":631:666   */\n  eq\n    /* \"#utility.yul\":621:684   */\n  tag_41\n  jumpi\n    /* \"#utility.yul\":680:681   */\n  0x00\n    /* \"#utility.yul\":677:678   */\n  dup1\n    /* \"#utility.yul\":670:682   */\n  revert\n    /* \"#utility.yul\":621:684   */\ntag_41:\n    /* \"#utility.yul\":568:690   */\n  pop\n  jump\t// out\n    /* \"#utility.yul\":696:839   */\ntag_31:\n    /* \"#utility.yul\":753:758   */\n  0x00\n    /* \"#utility.yul\":784:790   */\n  dup2\n    /* \"#utility.yul\":778:791   */\n  mload\n    /* \"#utility.yul\":769:791   */\n  swap1\n  pop\n    /* \"#utility.yul\":800:833   */\n  tag_43\n    /* \"#utility.yul\":827:832   */\n  dup2\n    /* \"#utility.yul\":800:833   */\n  tag_30\n  jump\t// in\ntag_43:\n    /* \"#utility.yul\":696:839   */\n  swap3\n  swap2\n  pop\n  pop\n  jump\t// out\n    /* \"#utility.yul\":845:1822   */\ntag_3:\n    /* \"#utility.yul\":951:957   */\n  0x00\n    /* \"#utility.yul\":959:965   */\n  dup1\n    /* \"#utility.yul\":967:973   */\n  0x00\n    /* \"#utility.yul\":975:981   */\n  dup1\n    /* \"#utility.yul\":983:989   */\n  0x00\n    /* \"#utility.yul\":1032:1035   */\n  0xa0\n    /* \"#utility.yul\":1020:1029   */\n  dup7\n    /* \"#utility.yul\":1011:1018   */\n  dup9\n    /* \"#utility.yul\":1007:1030   */\n  sub\n    /* \"#utility.yul\":1003:1036   */\n  slt\n    /* \"#utility.yul\":1000:1120   */\n  iszero\n  tag_45\n  jumpi\n    /* \"#utility.yul\":1039:1118   */\n  tag_46\n  tag_26\n  jump\t// in\ntag_46:\n    /* \"#utility.yul\":1000:1120   */\ntag_45:\n    /* \"#utility.yul\":1159:1160   */\n  0x00\n    /* \"#utility.yul\":1184:1248   */\n  tag_47\n    /* \"#utility.yul\":1240:1247   */\n  dup9\n    /* \"#utility.yul\":1231:1237   */\n  dup3\n    /* \"#utility.yul\":1220:1229   */\n  dup10\n    /* \"#utility.yul\":1216:1238   */\n  add\n    /* \"#utility.yul\":1184:1248   */\n  tag_31\n  jump\t// in\ntag_47:\n    /* \"#utility.yul\":1174:1248   */\n  swap6\n  pop\n    /* \"#utility.yul\":1130:1258   */\n  pop\n    /* \"#utility.yul\":1297:1299   */\n  0x20\n    /* \"#utility.yul\":1323:1387   */\n  tag_48\n    /* \"#utility.yul\":1379:1386   */\n  dup9\n    /* \"#utility.yul\":1370:1376   */\n  dup3\n    /* \"#utility.yul\":1359:1368   */\n  dup10\n    /* \"#utility.yul\":1355:1377   */\n  add\n    /* \"#utility.yul\":1323:1387   */\n  tag_31\n  jump\t// in\ntag_48:\n    /* \"#utility.yul\":1313:1387   */\n  swap5\n  pop\n    /* \"#utility.yul\":1268:1397   */\n  pop\n    /* \"#utility.yul\":1436:1438   */\n  0x40\n    /* \"#utility.yul\":1462:1526   */\n  tag_49\n    /* \"#utility.yul\":1518:1525   */\n  dup9\n    /* \"#utility.yul\":1509:1515   */\n  dup3\n    /* \"#utility.yul\":1498:1507   */\n  dup10\n    /* \"#utility.yul\":1494:1516   */\n  add\n    /* \"#utility.yul\":1462:1526   */\n  tag_31\n  jump\t// in\ntag_49:\n    /* \"#utility.yul\":1452:1526   */\n  swap4\n  pop\n    /* \"#utility.yul\":1407:1536   */\n  pop\n    /* \"#utility.yul\":1575:1577   */\n  0x60\n    /* \"#utility.yul\":1601:1665   */\n  tag_50\n    /* \"#utility.yul\":1657:1664   */\n  dup9\n    /* \"#utility.yul\":1648:1654   */\n  dup3\n    /* \"#utility.yul\":1637:1646   */\n  dup10\n    /* \"#utility.yul\":1633:1655   */\n  add\n    /* \"#utility.yul\":1601:1665   */\n  tag_31\n  jump\t// in\ntag_50:\n    /* \"#utility.yul\":1591:1665   */\n  swap3\n  pop\n    /* \"#utility.yul\":1546:1675   */\n  pop\n    /* \"#utility.yul\":1714:1717   */\n  0x80\n    /* \"#utility.yul\":1741:1805   */\n  tag_51\n    /* \"#utility.yul\":1797:1804   */\n  dup9\n    /* \"#utility.yul\":1788:1794   */\n  dup3\n    /* \"#utility.yul\":1777:1786   */\n  dup10\n    /* \"#utility.yul\":1773:1795   */\n  add\n    /* \"#utility.yul\":1741:1805   */\n  tag_31\n  jump\t// in\ntag_51:\n    /* \"#utility.yul\":1731:1805   */\n  swap2\n  pop\n    /* \"#utility.yul\":1685:1815   */\n  pop\n    /* \"#utility.yul\":845:1822   */\n  swap3\n  swap6\n  pop\n  swap3\n  swap6\n  swap1\n  swap4\n  pop\n  jump\t// out\n    /* \"contracts/Escrow.sol\":481:6064  contract Escrow is AccessControl {... */\ntag_15:\n  mload(0x80)\n  mload(0xa0)\n  codecopy(0x00, dataOffset(sub_0), dataSize(sub_0))\n  0x00\n  assignImmutable(\"0xea1c3a463a334d4502a6bc7c1ce6676ab071cb26e08d8d603278a360d97dc14c\")\n  0x00\n  assignImmutable(\"0x9b67abc7a7f76ccc26ad76abed83eb7d77aa7a9a12352409554da899fc785375\")\n  return(0x00, dataSize(sub_0))\nstop\n\nsub_0: assembly {\n        /* \"contracts/Escrow.sol\":481:6064  contract Escrow is AccessControl {... */\n      mstore(0x40, 0x80)\n      callvalue\n      dup1\n      iszero\n      tag_1\n      jumpi\n      0x00\n      dup1\n      revert\n    tag_1:\n      pop\n      jumpi(tag_2, lt(calldatasize, 0x04))\n      shr(0xe0, calldataload(0x00))\n      dup1\n      0x3e413bee\n      gt\n      tag_20\n      jumpi\n      dup1\n      0xa217fddf\n      gt\n      tag_21\n      jumpi\n      dup1\n      0xa217fddf\n      eq\n      tag_15\n      jumpi\n      dup1\n      0xd547741f\n      eq\n      tag_16\n      jumpi\n      dup1\n      0xe317ce7a\n      eq\n      tag_17\n      jumpi\n      dup1\n      0xe7705db6\n      eq\n      tag_18\n      jumpi\n      dup1\n      0xe86ca065\n      eq\n      tag_19\n      jumpi\n      jump(tag_2)\n    tag_21:\n      dup1\n      0x3e413bee\n      eq\n      tag_11\n      jumpi\n      dup1\n      0x4d104adf\n      eq\n      tag_12\n      jumpi\n      dup1\n      0x60dc2340\n      eq\n      tag_13\n      jumpi\n      dup1\n      0x91d14854\n      eq\n      tag_14\n      jumpi\n      jump(tag_2)\n    tag_20:\n      dup1\n      0x2f2ff15d\n      gt\n      tag_22\n      jumpi\n      dup1\n      0x2f2ff15d\n      eq\n      tag_7\n      jumpi\n      dup1\n      0x34b25ee2\n      eq\n      tag_8\n      jumpi\n      dup1\n      0x36568abe\n      eq\n      tag_9\n      jumpi\n      dup1\n      0x37bdc99b\n      eq\n      tag_10\n      jumpi\n      jump(tag_2)\n    tag_22:\n      dup1\n      0x012f52ee\n      eq\n      tag_3\n      jumpi\n      dup1\n      0x01ffc9a7\n      eq\n      tag_4\n      jumpi\n      dup1\n      0x248a9ca3\n      eq\n      tag_5\n      jumpi\n      dup1\n      0x27d00fb0\n      eq\n      tag_6\n      jumpi\n    tag_2:\n      0x00\n      dup1\n      revert\n        /* \"contracts/Escrow.sol\":1184:1229  mapping(uint256 => EscrowItem) public escrows */\n    tag_3:\n      tag_23\n      0x04\n      dup1\n      calldatasize\n      sub\n      dup2\n      add\n      swap1\n      tag_24\n      swap2\n      swap1\n      tag_25\n      jump\t// in\n    tag_24:\n      tag_26\n      jump\t// in\n    tag_23:\n      mload(0x40)\n      tag_27\n      swap8\n      swap7\n      swap6\n      swap5\n      swap4\n      swap3\n      swap2\n      swap1\n      tag_28\n      jump\t// in\n    tag_27:\n      mload(0x40)\n      dup1\n      swap2\n      sub\n      swap1\n      return\n        /* \"@openzeppelin/contracts/access/AccessControl.sol\":2541:2743  function supportsInterface(bytes4 interfaceId) public view virtual override returns (bool) {... */\n    tag_4:\n      tag_29\n      0x04\n      dup1\n      calldatasize\n      sub\n      dup2\n      add\n      swap1\n      tag_30\n      swap2\n      swap1\n      tag_31\n      jump\t// in\n    tag_30:\n      tag_32\n      jump\t// in\n    tag_29:\n      mload(0x40)\n      tag_33\n      swap2\n      swap1\n      tag_34\n      jump\t// in\n    tag_33:\n      mload(0x40)\n      dup1\n      swap2\n      sub\n      swap1\n      return\n        /* \"@openzeppelin/contracts/access/AccessControl.sol\":3786:3906  function getRoleAdmin(bytes32 role) public view virtual returns (bytes32) {... */\n    tag_5:\n      tag_35\n      0x04\n      dup1\n      calldatasize\n      sub\n      dup2\n      add\n      swap1\n      tag_36\n      swap2\n      swap1\n      tag_37\n      jump\t// in\n    tag_36:\n      tag_38\n      jump\t// in\n    tag_35:\n      mload(0x40)\n      tag_39\n      swap2\n      swap1\n      tag_40\n      jump\t// in\n    tag_39:\n      mload(0x40)\n      dup1\n      swap2\n      sub\n      swap1\n      return\n        /* \"contracts/Escrow.sol\":3540:3940  function openDispute(uint256 _escrowId) external {... */\n    tag_6:\n      tag_41\n      0x04\n      dup1\n      calldatasize\n      sub\n      dup2\n      add\n      swap1\n      tag_42\n      swap2\n      swap1\n      tag_25\n      jump\t// in\n    tag_42:\n      tag_43\n      jump\t// in\n    tag_41:\n      stop\n        /* \"@openzeppelin/contracts/access/AccessControl.sol\":4202:4338  function grantRole(bytes32 role, address account) public virtual onlyRole(getRoleAdmin(role)) {... */\n    tag_7:\n      tag_44\n      0x04\n      dup1\n      calldatasize\n      sub\n      dup2\n      add\n      swap1\n      tag_45\n      swap2\n      swap1\n      tag_46\n      jump\t// in\n    tag_45:\n      tag_47\n      jump\t// in\n    tag_44:\n      stop\n        /* \"contracts/Escrow.sol\":4701:5254  function resolveDispute(uint256 _escrowId, bool _refundToUser) external onlyRole(ARBITER_ROLE) {... */\n    tag_8:\n      tag_48\n      0x04\n      dup1\n      calldatasize\n      sub\n      dup2\n      add\n      swap1\n      tag_49\n      swap2\n      swap1\n      tag_50\n      jump\t// in\n    tag_49:\n      tag_51\n      jump\t// in\n    tag_48:\n      stop\n        /* \"@openzeppelin/contracts/access/AccessControl.sol\":5304:5549  function renounceRole(bytes32 role, address callerConfirmation) public virtual {... */\n    tag_9:\n      tag_52\n      0x04\n      dup1\n      calldatasize\n      sub\n      dup2\n      add\n      swap1\n      tag_53\n      swap2\n      swap1\n      tag_46\n      jump\t// in\n    tag_53:\n      tag_54\n      jump\t// in\n    tag_52:\n      stop\n        /* \"contracts/Escrow.sol\":4223:4588  function release(uint256 _escrowId) external {... */\n    tag_10:\n      tag_55\n      0x04\n      dup1\n      calldatasize\n      sub\n      dup2\n      add\n      swap1\n      tag_56\n      swap2\n      swap1\n      tag_25\n      jump\t// in\n    tag_56:\n      tag_57\n      jump\t// in\n    tag_55:\n      stop\n        /* \"contracts/Escrow.sol\":1065:1093  IERC20 public immutable usdc */\n    tag_11:\n      tag_58\n      tag_59\n      jump\t// in\n    tag_58:\n      mload(0x40)\n      tag_60\n      swap2\n      swap1\n      tag_61\n      jump\t// in\n    tag_60:\n      mload(0x40)\n      dup1\n      swap2\n      sub\n      swap1\n      return\n        /* \"contracts/Escrow.sol\":960:1024  bytes32 public constant ARBITER_ROLE = keccak256(\"ARBITER_ROLE\") */\n    tag_12:\n      tag_62\n      tag_63\n      jump\t// in\n    tag_62:\n      mload(0x40)\n      tag_64\n      swap2\n      swap1\n      tag_40\n      jump\t// in\n    tag_64:\n      mload(0x40)\n      dup1\n      swap2\n      sub\n      swap1\n      return\n        /* \"contracts/Escrow.sol\":1100:1141  IFeeTreasury public immutable feeTreasury */\n    tag_13:\n      tag_65\n      tag_66\n      jump\t// in\n    tag_65:\n      mload(0x40)\n      tag_67\n      swap2\n      swap1\n      tag_68\n      jump\t// in\n    tag_67:\n      mload(0x40)\n      dup1\n      swap2\n      sub\n      swap1\n      return\n        /* \"@openzeppelin/contracts/access/AccessControl.sol\":2830:2966  function hasRole(bytes32 role, address account) public view virtual returns (bool) {... */\n    tag_14:\n      tag_69\n      0x04\n      dup1\n      calldatasize\n      sub\n      dup2\n      add\n      swap1\n      tag_70\n      swap2\n      swap1\n      tag_46\n      jump\t// in\n    tag_70:\n      tag_71\n      jump\t// in\n    tag_69:\n      mload(0x40)\n      tag_72\n      swap2\n      swap1\n      tag_34\n      jump\t// in\n    tag_72:\n      mload(0x40)\n      dup1\n      swap2\n      sub\n      swap1\n      return\n        /* \"@openzeppelin/contracts/access/AccessControl.sol\":2196:2245  bytes32 public constant DEFAULT_ADMIN_ROLE = 0x00 */\n    tag_15:\n      tag_73\n      tag_74\n      jump\t// in\n    tag_73:\n      mload(0x40)\n      tag_75\n      swap2\n      swap1\n      tag_40\n      jump\t// in\n    tag_75:\n      mload(0x40)\n      dup1\n      swap2\n      sub\n      swap1\n      return\n        /* \"@openzeppelin/contracts/access/AccessControl.sol\":4618:4756  function revokeRole(bytes32 role, address account) public virtual onlyRole(getRoleAdmin(role)) {... */\n    tag_16:\n      tag_76\n      0x04\n      dup1\n      calldatasize\n      sub\n      dup2\n      add\n      swap1\n      tag_77\n      swap2\n      swap1\n      tag_46\n      jump\t// in\n    tag_77:\n      tag_78\n      jump\t// in\n    tag_76:\n      stop\n        /* \"contracts/Escrow.sol\":2755:3355  function holdPayment(... */\n    tag_17:\n      tag_79\n      0x04\n      dup1\n      calldatasize\n      sub\n      dup2\n      add\n      swap1\n      tag_80\n      swap2\n      swap1\n      tag_81\n      jump\t// in\n    tag_80:\n      tag_82\n      jump\t// in\n    tag_79:\n      stop\n        /* \"contracts/Escrow.sol\":887:953  bytes32 public constant VERIFIER_ROLE = keccak256(\"VERIFIER_ROLE\") */\n    tag_18:\n      tag_83\n      tag_84\n      jump\t// in\n    tag_83:\n      mload(0x40)\n      tag_85\n      swap2\n      swap1\n      tag_40\n      jump\t// in\n    tag_85:\n      mload(0x40)\n      dup1\n      swap2\n      sub\n      swap1\n      return\n        /* \"contracts/Escrow.sol\":1303:1347  uint256 public constant HOLD_PERIOD = 3 days */\n    tag_19:\n      tag_86\n      tag_87\n      jump\t// in\n    tag_86:\n      mload(0x40)\n      tag_88\n      swap2\n      swap1\n      tag_89\n      jump\t// in\n    tag_88:\n      mload(0x40)\n      dup1\n      swap2\n      sub\n      swap1\n      return\n        /* \"contracts/Escrow.sol\":1184:1229  mapping(uint256 => EscrowItem) public escrows */\n    tag_26:\n      mstore(0x20, 0x01)\n      dup1\n      0x00\n      mstore\n      keccak256(0x00, 0x40)\n      0x00\n      swap2\n      pop\n      swap1\n      pop\n      dup1\n      0x00\n      add\n      sload\n      swap1\n      dup1\n      0x01\n      add\n      0x00\n      swap1\n      sload\n      swap1\n      0x0100\n      exp\n      swap1\n      div\n      0xffffffffffffffffffffffffffffffffffffffff\n      and\n      swap1\n      dup1\n      0x02\n      add\n      sload\n      swap1\n      dup1\n      0x03\n      add\n      sload\n      swap1\n      dup1\n      0x04\n      add\n      0x00\n      swap1\n      sload\n      swap1\n      0x0100\n      exp\n      swap1\n      div\n      0xffffffffffffffffffffffffffffffffffffffff\n      and\n      swap1\n      dup1\n      0x05\n      add\n      sload\n      swap1\n      dup1\n      0x06\n      add\n      0x00\n      swap1\n      sload\n      swap1\n      0x0100\n      exp\n      swap1\n      div\n      0xff\n      and\n      swap1\n      pop\n      dup8\n      jump\t// out\n        /* \"@openzeppelin/contracts/access/AccessControl.sol\":2541:2743  function supportsInterface(bytes4 interfaceId) public view virtual override returns (bool) {... */\n    tag_32:\n        /* \"@openzeppelin/contracts/access/AccessControl.sol\":2626:2630  bool */\n      0x00\n        /* \"@openzeppelin/contracts/access/AccessControl.sol\":2664:2696  type(IAccessControl).interfaceId */\n      0x7965db0b00000000000000000000000000000000000000000000000000000000\n        /* \"@openzeppelin/contracts/access/AccessControl.sol\":2649:2696  interfaceId == type(IAccessControl).interfaceId */\n      not(0xffffffffffffffffffffffffffffffffffffffffffffffffffffffff)\n      and\n        /* \"@openzeppelin/contracts/access/AccessControl.sol\":2649:2660  interfaceId */\n      dup3\n        /* \"@openzeppelin/contracts/access/AccessControl.sol\":2649:2696  interfaceId == type(IAccessControl).interfaceId */\n      not(0xffffffffffffffffffffffffffffffffffffffffffffffffffffffff)\n      and\n      eq\n        /* \"@openzeppelin/contracts/access/AccessControl.sol\":2649:2736  interfaceId == type(IAccessControl).interfaceId || super.supportsInterface(interfaceId) */\n      dup1\n      tag_91\n      jumpi\n      pop\n        /* \"@openzeppelin/contracts/access/AccessControl.sol\":2700:2736  super.supportsInterface(interfaceId) */\n      tag_92\n        /* \"@openzeppelin/contracts/access/AccessControl.sol\":2724:2735  interfaceId */\n      dup3\n        /* \"@openzeppelin/contracts/access/AccessControl.sol\":2700:2723  super.supportsInterface */\n      tag_93\n        /* \"@openzeppelin/contracts/access/AccessControl.sol\":2700:2736  super.supportsInterface(interfaceId) */\n      jump\t// in\n    tag_92:\n        /* \"@openzeppelin/contracts/access/AccessControl.sol\":2649:2736  interfaceId == type(IAccessControl).interfaceId || super.supportsInterface(interfaceId) */\n    tag_91:\n        /* \"@openzeppelin/contracts/access/AccessControl.sol\":2642:2736  return interfaceId == type(IAccessControl).interfaceId || super.supportsInterface(interfaceId) */\n      swap1\n      pop\n        /* \"@openzeppelin/contracts/access/AccessControl.sol\":2541:2743  function supportsInterface(bytes4 interfaceId) public view virtual override returns (bool) {... */\n      swap2\n      swap1\n      pop\n      jump\t// out\n        /* \"@openzeppelin/contracts/access/AccessControl.sol\":3786:3906  function getRoleAdmin(bytes32 role) public view virtual returns (bytes32) {... */\n    tag_38:\n        /* \"@openzeppelin/contracts/access/AccessControl.sol\":3851:3858  bytes32 */\n      0x00\n        /* \"@openzeppelin/contracts/access/AccessControl.sol\":3877:3883  _roles */\n      dup1\n        /* \"@openzeppelin/contracts/access/AccessControl.sol\":3877:3889  _roles[role] */\n      0x00\n        /* \"@openzeppelin/contracts/access/AccessControl.sol\":3884:3888  role */\n      dup4\n        /* \"@openzeppelin/contracts/access/AccessControl.sol\":3877:3889  _roles[role] */\n      dup2\n      mstore\n      0x20\n      add\n      swap1\n      dup2\n      mstore\n      0x20\n      add\n      0x00\n      keccak256\n        /* \"@openzeppelin/contracts/access/AccessControl.sol\":3877:3899  _roles[role].adminRole */\n      0x01\n      add\n      sload\n        /* \"@openzeppelin/contracts/access/AccessControl.sol\":3870:3899  return _roles[role].adminRole */\n      swap1\n      pop\n        /* \"@openzeppelin/contracts/access/AccessControl.sol\":3786:3906  function getRoleAdmin(bytes32 role) public view virtual returns (bytes32) {... */\n      swap2\n      swap1\n      pop\n      jump\t// out\n        /* \"contracts/Escrow.sol\":3540:3940  function openDispute(uint256 _escrowId) external {... */\n    tag_43:\n        /* \"contracts/Escrow.sol\":3600:3623  EscrowItem storage item */\n      0x00\n        /* \"contracts/Escrow.sol\":3626:3633  escrows */\n      0x01\n        /* \"contracts/Escrow.sol\":3626:3644  escrows[_escrowId] */\n      0x00\n        /* \"contracts/Escrow.sol\":3634:3643  _escrowId */\n      dup4\n        /* \"contracts/Escrow.sol\":3626:3644  escrows[_escrowId] */\n      dup2\n      mstore\n      0x20\n      add\n      swap1\n      dup2\n      mstore\n      0x20\n      add\n      0x00\n      keccak256\n        /* \"contracts/Escrow.sol\":3600:3644  EscrowItem storage item = escrows[_escrowId] */\n      swap1\n      pop\n        /* \"contracts/Escrow.sol\":3672:3682  msg.sender */\n      caller\n        /* \"contracts/Escrow.sol\":3659:3682  item.user != msg.sender */\n      0xffffffffffffffffffffffffffffffffffffffff\n      and\n        /* \"contracts/Escrow.sol\":3659:3663  item */\n      dup2\n        /* \"contracts/Escrow.sol\":3659:3668  item.user */\n      0x01\n      add\n      0x00\n      swap1\n      sload\n      swap1\n      0x0100\n      exp\n      swap1\n      div\n      0xffffffffffffffffffffffffffffffffffffffff\n      and\n        /* \"contracts/Escrow.sol\":3659:3682  item.user != msg.sender */\n      0xffffffffffffffffffffffffffffffffffffffff\n      and\n      eq\n        /* \"contracts/Escrow.sol\":3655:3706  if (item.user != msg.sender) revert NotAuthorized() */\n      tag_96\n      jumpi\n        /* \"contracts/Escrow.sol\":3691:3706  NotAuthorized() */\n      mload(0x40)\n      0xea8e4eb500000000000000000000000000000000000000000000000000000000\n      dup2\n      mstore\n      0x04\n      add\n      mload(0x40)\n      dup1\n      swap2\n      sub\n      swap1\n      revert\n        /* \"contracts/Escrow.sol\":3655:3706  if (item.user != msg.sender) revert NotAuthorized() */\n    tag_96:\n        /* \"contracts/Escrow.sol\":3736:3747  Status.Held */\n      0x00\n        /* \"contracts/Escrow.sol\":3721:3747  item.status != Status.Held */\n      0x03\n      dup2\n      gt\n      iszero\n      tag_97\n      jumpi\n      tag_98\n      tag_99\n      jump\t// in\n    tag_98:\n    tag_97:\n        /* \"contracts/Escrow.sol\":3721:3725  item */\n      dup2\n        /* \"contracts/Escrow.sol\":3721:3732  item.status */\n      0x06\n      add\n      0x00\n      swap1\n      sload\n      swap1\n      0x0100\n      exp\n      swap1\n      div\n      0xff\n      and\n        /* \"contracts/Escrow.sol\":3721:3747  item.status != Status.Held */\n      0x03\n      dup2\n      gt\n      iszero\n      tag_100\n      jumpi\n      tag_101\n      tag_99\n      jump\t// in\n    tag_101:\n    tag_100:\n      eq\n        /* \"contracts/Escrow.sol\":3717:3771  if (item.status != Status.Held) revert InvalidStatus() */\n      tag_102\n      jumpi\n        /* \"contracts/Escrow.sol\":3756:3771  InvalidStatus() */\n      mload(0x40)\n      0xf525e32000000000000000000000000000000000000000000000000000000000\n      dup2\n      mstore\n      0x04\n      add\n      mload(0x40)\n      dup1\n      swap2\n      sub\n      swap1\n      revert\n        /* \"contracts/Escrow.sol\":3717:3771  if (item.status != Status.Held) revert InvalidStatus() */\n    tag_102:\n        /* \"contracts/Escrow.sol\":3804:3808  item */\n      dup1\n        /* \"contracts/Escrow.sol\":3804:3820  item.releaseTime */\n      0x05\n      add\n      sload\n        /* \"contracts/Escrow.sol\":3786:3801  block.timestamp */\n      timestamp\n        /* \"contracts/Escrow.sol\":3786:3820  block.timestamp > item.releaseTime */\n      gt\n        /* \"contracts/Escrow.sol\":3782:3850  if (block.timestamp > item.releaseTime) revert DisputeWindowClosed() */\n      iszero\n      tag_103\n      jumpi\n        /* \"contracts/Escrow.sol\":3829:3850  DisputeWindowClosed() */\n      mload(0x40)\n      0x435a3cfe00000000000000000000000000000000000000000000000000000000\n      dup2\n      mstore\n      0x04\n      add\n      mload(0x40)\n      dup1\n      swap2\n      sub\n      swap1\n      revert\n        /* \"contracts/Escrow.sol\":3782:3850  if (block.timestamp > item.releaseTime) revert DisputeWindowClosed() */\n    tag_103:\n        /* \"contracts/Escrow.sol\":3877:3892  Status.Disputed */\n      0x01\n        /* \"contracts/Escrow.sol\":3863:3867  item */\n      dup2\n        /* \"contracts/Escrow.sol\":3863:3874  item.status */\n      0x06\n      add\n      0x00\n        /* \"contracts/Escrow.sol\":3863:3892  item.status = Status.Disputed */\n      0x0100\n      exp\n      dup2\n      sload\n      dup2\n      0xff\n      mul\n      not\n      and\n      swap1\n      dup4\n      0x03\n      dup2\n      gt\n      iszero\n      tag_104\n      jumpi\n      tag_105\n      tag_99\n      jump\t// in\n    tag_105:\n    tag_104:\n      mul\n      or\n      swap1\n      sstore\n      pop\n        /* \"contracts/Escrow.sol\":3922:3931  _escrowId */\n      dup2\n        /* \"contracts/Escrow.sol\":3908:3932  DisputeOpened(_escrowId) */\n      0xed50123fe46d12537dcaae53f33aee1c64bcc9e4f222560f3bae6c0824040dd3\n      mload(0x40)\n      mload(0x40)\n      dup1\n      swap2\n      sub\n      swap1\n      log2\n        /* \"contracts/Escrow.sol\":3589:3940  {... */\n      pop\n        /* \"contracts/Escrow.sol\":3540:3940  function openDispute(uint256 _escrowId) external {... */\n      pop\n      jump\t// out\n        /* \"@openzeppelin/contracts/access/AccessControl.sol\":4202:4338  function grantRole(bytes32 role, address account) public virtual onlyRole(getRoleAdmin(role)) {... */\n    tag_47:\n        /* \"@openzeppelin/contracts/access/AccessControl.sol\":4276:4294  getRoleAdmin(role) */\n      tag_106\n        /* \"@openzeppelin/contracts/access/AccessControl.sol\":4289:4293  role */\n      dup3\n        /* \"@openzeppelin/contracts/access/AccessControl.sol\":4276:4288  getRoleAdmin */\n      tag_38\n        /* \"@openzeppelin/contracts/access/AccessControl.sol\":4276:4294  getRoleAdmin(role) */\n      jump\t// in\n    tag_106:\n        /* \"@openzeppelin/contracts/access/AccessControl.sol\":2473:2489  _checkRole(role) */\n      tag_108\n        /* \"@openzeppelin/contracts/access/AccessControl.sol\":2484:2488  role */\n      dup2\n        /* \"@openzeppelin/contracts/access/AccessControl.sol\":2473:2483  _checkRole */\n      tag_109\n        /* \"@openzeppelin/contracts/access/AccessControl.sol\":2473:2489  _checkRole(role) */\n      jump\t// in\n    tag_108:\n        /* \"@openzeppelin/contracts/access/AccessControl.sol\":4306:4331  _grantRole(role, account) */\n      tag_111\n        /* \"@openzeppelin/contracts/access/AccessControl.sol\":4317:4321  role */\n      dup4\n        /* \"@openzeppelin/contracts/access/AccessControl.sol\":4323:4330  account */\n      dup4\n        /* \"@openzeppelin/contracts/access/AccessControl.sol\":4306:4316  _grantRole */\n      tag_112\n        /* \"@openzeppelin/contracts/access/AccessControl.sol\":4306:4331  _grantRole(role, account) */\n      jump\t// in\n    tag_111:\n      pop\n        /* \"@openzeppelin/contracts/access/AccessControl.sol\":4202:4338  function grantRole(bytes32 role, address account) public virtual onlyRole(getRoleAdmin(role)) {... */\n      pop\n      pop\n      pop\n      jump\t// out\n        /* \"contracts/Escrow.sol\":4701:5254  function resolveDispute(uint256 _escrowId, bool _refundToUser) external onlyRole(ARBITER_ROLE) {... */\n    tag_51:\n        /* \"contracts/Escrow.sol\":999:1024  keccak256(\"ARBITER_ROLE\") */\n      0xbb08418a67729a078f87bbc8d02a770929bb68f5bfdf134ae2ead6ed38e2f4ae\n        /* \"@openzeppelin/contracts/access/AccessControl.sol\":2473:2489  _checkRole(role) */\n      tag_114\n        /* \"@openzeppelin/contracts/access/AccessControl.sol\":2484:2488  role */\n      dup2\n        /* \"@openzeppelin/contracts/access/AccessControl.sol\":2473:2483  _checkRole */\n      tag_109\n        /* \"@openzeppelin/contracts/access/AccessControl.sol\":2473:2489  _checkRole(role) */\n      jump\t// in\n    tag_114:\n        /* \"contracts/Escrow.sol\":4807:4830  EscrowItem storage item */\n      0x00\n        /* \"contracts/Escrow.sol\":4833:4840  escrows */\n      0x01\n        /* \"contracts/Escrow.sol\":4833:4851  escrows[_escrowId] */\n      0x00\n        /* \"contracts/Escrow.sol\":4841:4850  _escrowId */\n      dup6\n        /* \"contracts/Escrow.sol\":4833:4851  escrows[_escrowId] */\n      dup2\n      mstore\n      0x20\n      add\n      swap1\n      dup2\n      mstore\n      0x20\n      add\n      0x00\n      keccak256\n        /* \"contracts/Escrow.sol\":4807:4851  EscrowItem storage item = escrows[_escrowId] */\n      swap1\n      pop\n        /* \"contracts/Escrow.sol\":4881:4896  Status.Disputed */\n      0x01\n        /* \"contracts/Escrow.sol\":4866:4896  item.status != Status.Disputed */\n      0x03\n      dup2\n      gt\n      iszero\n      tag_116\n      jumpi\n      tag_117\n      tag_99\n      jump\t// in\n    tag_117:\n    tag_116:\n        /* \"contracts/Escrow.sol\":4866:4870  item */\n      dup2\n        /* \"contracts/Escrow.sol\":4866:4877  item.status */\n      0x06\n      add\n      0x00\n      swap1\n      sload\n      swap1\n      0x0100\n      exp\n      swap1\n      div\n      0xff\n      and\n        /* \"contracts/Escrow.sol\":4866:4896  item.status != Status.Disputed */\n      0x03\n      dup2\n      gt\n      iszero\n      tag_118\n      jumpi\n      tag_119\n      tag_99\n      jump\t// in\n    tag_119:\n    tag_118:\n      eq\n        /* \"contracts/Escrow.sol\":4862:4920  if (item.status != Status.Disputed) revert InvalidStatus() */\n      tag_120\n      jumpi\n        /* \"contracts/Escrow.sol\":4905:4920  InvalidStatus() */\n      mload(0x40)\n      0xf525e32000000000000000000000000000000000000000000000000000000000\n      dup2\n      mstore\n      0x04\n      add\n      mload(0x40)\n      dup1\n      swap2\n      sub\n      swap1\n      revert\n        /* \"contracts/Escrow.sol\":4862:4920  if (item.status != Status.Disputed) revert InvalidStatus() */\n    tag_120:\n        /* \"contracts/Escrow.sol\":4937:4950  _refundToUser */\n      dup3\n        /* \"contracts/Escrow.sol\":4933:5247  if (_refundToUser) {... */\n      iszero\n      tag_121\n      jumpi\n        /* \"contracts/Escrow.sol\":4981:4996  Status.Refunded */\n      0x03\n        /* \"contracts/Escrow.sol\":4967:4971  item */\n      dup2\n        /* \"contracts/Escrow.sol\":4967:4978  item.status */\n      0x06\n      add\n      0x00\n        /* \"contracts/Escrow.sol\":4967:4996  item.status = Status.Refunded */\n      0x0100\n      exp\n      dup2\n      sload\n      dup2\n      0xff\n      mul\n      not\n      and\n      swap1\n      dup4\n      0x03\n      dup2\n      gt\n      iszero\n      tag_122\n      jumpi\n      tag_123\n      tag_99\n      jump\t// in\n    tag_123:\n    tag_122:\n      mul\n      or\n      swap1\n      sstore\n      pop\n        /* \"contracts/Escrow.sol\":5011:5052  usdc.safeTransfer(item.user, item.amount) */\n      tag_124\n        /* \"contracts/Escrow.sol\":5029:5033  item */\n      dup2\n        /* \"contracts/Escrow.sol\":5029:5038  item.user */\n      0x01\n      add\n      0x00\n      swap1\n      sload\n      swap1\n      0x0100\n      exp\n      swap1\n      div\n      0xffffffffffffffffffffffffffffffffffffffff\n      and\n        /* \"contracts/Escrow.sol\":5040:5044  item */\n      dup3\n        /* \"contracts/Escrow.sol\":5040:5051  item.amount */\n      0x03\n      add\n      sload\n        /* \"contracts/Escrow.sol\":5011:5015  usdc */\n      immutable(\"0x9b67abc7a7f76ccc26ad76abed83eb7d77aa7a9a12352409554da899fc785375\")\n        /* \"contracts/Escrow.sol\":5011:5028  usdc.safeTransfer */\n      0xffffffffffffffffffffffffffffffffffffffff\n      and\n      tag_125\n      swap1\n        /* \"contracts/Escrow.sol\":5011:5052  usdc.safeTransfer(item.user, item.amount) */\n      swap3\n      swap2\n      swap1\n      0xffffffff\n      and\n      jump\t// in\n    tag_124:\n        /* \"contracts/Escrow.sol\":5088:5097  _escrowId */\n      dup4\n        /* \"contracts/Escrow.sol\":5072:5098  PaymentRefunded(_escrowId) */\n      0xc12258dbc8f5aaf21f9b7ef40fbfb87befc7c46ac42dccc2c5cc565347e56ee6\n      mload(0x40)\n      mload(0x40)\n      dup1\n      swap2\n      sub\n      swap1\n      log2\n        /* \"contracts/Escrow.sol\":4933:5247  if (_refundToUser) {... */\n      jump(tag_126)\n    tag_121:\n        /* \"contracts/Escrow.sol\":5145:5160  Status.Released */\n      0x02\n        /* \"contracts/Escrow.sol\":5131:5135  item */\n      dup2\n        /* \"contracts/Escrow.sol\":5131:5142  item.status */\n      0x06\n      add\n      0x00\n        /* \"contracts/Escrow.sol\":5131:5160  item.status = Status.Released */\n      0x0100\n      exp\n      dup2\n      sload\n      dup2\n      0xff\n      mul\n      not\n      and\n      swap1\n      dup4\n      0x03\n      dup2\n      gt\n      iszero\n      tag_127\n      jumpi\n      tag_128\n      tag_99\n      jump\t// in\n    tag_128:\n    tag_127:\n      mul\n      or\n      swap1\n      sstore\n      pop\n        /* \"contracts/Escrow.sol\":5175:5194  _splitAndSend(item) */\n      tag_129\n        /* \"contracts/Escrow.sol\":5189:5193  item */\n      dup2\n        /* \"contracts/Escrow.sol\":5175:5188  _splitAndSend */\n      tag_130\n        /* \"contracts/Escrow.sol\":5175:5194  _splitAndSend(item) */\n      jump\t// in\n    tag_129:\n        /* \"contracts/Escrow.sol\":4933:5247  if (_refundToUser) {... */\n    tag_126:\n        /* \"contracts/Escrow.sol\":4796:5254  {... */\n      pop\n        /* \"contracts/Escrow.sol\":4701:5254  function resolveDispute(uint256 _escrowId, bool _refundToUser) external onlyRole(ARBITER_ROLE) {... */\n      pop\n      pop\n      pop\n      jump\t// out\n        /* \"@openzeppelin/contracts/access/AccessControl.sol\":5304:5549  function renounceRole(bytes32 role, address callerConfirmation) public virtual {... */\n    tag_54:\n        /* \"@openzeppelin/contracts/access/AccessControl.sol\":5419:5431  _msgSender() */\n      tag_132\n        /* \"@openzeppelin/contracts/access/AccessControl.sol\":5419:5429  _msgSender */\n      tag_133\n        /* \"@openzeppelin/contracts/access/AccessControl.sol\":5419:5431  _msgSender() */\n      jump\t// in\n    tag_132:\n        /* \"@openzeppelin/contracts/access/AccessControl.sol\":5397:5431  callerConfirmation != _msgSender() */\n      0xffffffffffffffffffffffffffffffffffffffff\n      and\n        /* \"@openzeppelin/contracts/access/AccessControl.sol\":5397:5415  callerConfirmation */\n      dup2\n        /* \"@openzeppelin/contracts/access/AccessControl.sol\":5397:5431  callerConfirmation != _msgSender() */\n      0xffffffffffffffffffffffffffffffffffffffff\n      and\n      eq\n        /* \"@openzeppelin/contracts/access/AccessControl.sol\":5393:5495  if (callerConfirmation != _msgSender()) {... */\n      tag_134\n      jumpi\n        /* \"@openzeppelin/contracts/access/AccessControl.sol\":5454:5484  AccessControlBadConfirmation() */\n      mload(0x40)\n      0x6697b23200000000000000000000000000000000000000000000000000000000\n      dup2\n      mstore\n      0x04\n      add\n      mload(0x40)\n      dup1\n      swap2\n      sub\n      swap1\n      revert\n        /* \"@openzeppelin/contracts/access/AccessControl.sol\":5393:5495  if (callerConfirmation != _msgSender()) {... */\n    tag_134:\n        /* \"@openzeppelin/contracts/access/AccessControl.sol\":5505:5542  _revokeRole(role, callerConfirmation) */\n      tag_135\n        /* \"@openzeppelin/contracts/access/AccessControl.sol\":5517:5521  role */\n      dup3\n        /* \"@openzeppelin/contracts/access/AccessControl.sol\":5523:5541  callerConfirmation */\n      dup3\n        /* \"@openzeppelin/contracts/access/AccessControl.sol\":5505:5516  _revokeRole */\n      tag_136\n        /* \"@openzeppelin/contracts/access/AccessControl.sol\":5505:5542  _revokeRole(role, callerConfirmation) */\n      jump\t// in\n    tag_135:\n      pop\n        /* \"@openzeppelin/contracts/access/AccessControl.sol\":5304:5549  function renounceRole(bytes32 role, address callerConfirmation) public virtual {... */\n      pop\n      pop\n      jump\t// out\n        /* \"contracts/Escrow.sol\":4223:4588  function release(uint256 _escrowId) external {... */\n    tag_57:\n        /* \"contracts/Escrow.sol\":4279:4302  EscrowItem storage item */\n      0x00\n        /* \"contracts/Escrow.sol\":4305:4312  escrows */\n      0x01\n        /* \"contracts/Escrow.sol\":4305:4323  escrows[_escrowId] */\n      0x00\n        /* \"contracts/Escrow.sol\":4313:4322  _escrowId */\n      dup4\n        /* \"contracts/Escrow.sol\":4305:4323  escrows[_escrowId] */\n      dup2\n      mstore\n      0x20\n      add\n      swap1\n      dup2\n      mstore\n      0x20\n      add\n      0x00\n      keccak256\n        /* \"contracts/Escrow.sol\":4279:4323  EscrowItem storage item = escrows[_escrowId] */\n      swap1\n      pop\n        /* \"contracts/Escrow.sol\":4353:4364  Status.Held */\n      0x00\n        /* \"contracts/Escrow.sol\":4338:4364  item.status != Status.Held */\n      0x03\n      dup2\n      gt\n      iszero\n      tag_138\n      jumpi\n      tag_139\n      tag_99\n      jump\t// in\n    tag_139:\n    tag_138:\n        /* \"contracts/Escrow.sol\":4338:4342  item */\n      dup2\n        /* \"contracts/Escrow.sol\":4338:4349  item.status */\n      0x06\n      add\n      0x00\n      swap1\n      sload\n      swap1\n      0x0100\n      exp\n      swap1\n      div\n      0xff\n      and\n        /* \"contracts/Escrow.sol\":4338:4364  item.status != Status.Held */\n      0x03\n      dup2\n      gt\n      iszero\n      tag_140\n      jumpi\n      tag_141\n      tag_99\n      jump\t// in\n    tag_141:\n    tag_140:\n      eq\n        /* \"contracts/Escrow.sol\":4334:4388  if (item.status != Status.Held) revert InvalidStatus() */\n      tag_142\n      jumpi\n        /* \"contracts/Escrow.sol\":4373:4388  InvalidStatus() */\n      mload(0x40)\n      0xf525e32000000000000000000000000000000000000000000000000000000000\n      dup2\n      mstore\n      0x04\n      add\n      mload(0x40)\n      dup1\n      swap2\n      sub\n      swap1\n      revert\n        /* \"contracts/Escrow.sol\":4334:4388  if (item.status != Status.Held) revert InvalidStatus() */\n    tag_142:\n        /* \"contracts/Escrow.sol\":4421:4425  item */\n      dup1\n        /* \"contracts/Escrow.sol\":4421:4437  item.releaseTime */\n      0x05\n      add\n      sload\n        /* \"contracts/Escrow.sol\":4403:4418  block.timestamp */\n      timestamp\n        /* \"contracts/Escrow.sol\":4403:4437  block.timestamp < item.releaseTime */\n      lt\n        /* \"contracts/Escrow.sol\":4399:4465  if (block.timestamp < item.releaseTime) revert HoldPeriodNotOver() */\n      iszero\n      tag_143\n      jumpi\n        /* \"contracts/Escrow.sol\":4446:4465  HoldPeriodNotOver() */\n      mload(0x40)\n      0x5d5690e000000000000000000000000000000000000000000000000000000000\n      dup2\n      mstore\n      0x04\n      add\n      mload(0x40)\n      dup1\n      swap2\n      sub\n      swap1\n      revert\n        /* \"contracts/Escrow.sol\":4399:4465  if (block.timestamp < item.releaseTime) revert HoldPeriodNotOver() */\n    tag_143:\n        /* \"contracts/Escrow.sol\":4478:4497  _splitAndSend(item) */\n      tag_144\n        /* \"contracts/Escrow.sol\":4492:4496  item */\n      dup2\n        /* \"contracts/Escrow.sol\":4478:4491  _splitAndSend */\n      tag_130\n        /* \"contracts/Escrow.sol\":4478:4497  _splitAndSend(item) */\n      jump\t// in\n    tag_144:\n        /* \"contracts/Escrow.sol\":4565:4580  Status.Released */\n      0x02\n        /* \"contracts/Escrow.sol\":4551:4555  item */\n      dup2\n        /* \"contracts/Escrow.sol\":4551:4562  item.status */\n      0x06\n      add\n      0x00\n        /* \"contracts/Escrow.sol\":4551:4580  item.status = Status.Released */\n      0x0100\n      exp\n      dup2\n      sload\n      dup2\n      0xff\n      mul\n      not\n      and\n      swap1\n      dup4\n      0x03\n      dup2\n      gt\n      iszero\n      tag_145\n      jumpi\n      tag_146\n      tag_99\n      jump\t// in\n    tag_146:\n    tag_145:\n      mul\n      or\n      swap1\n      sstore\n      pop\n        /* \"contracts/Escrow.sol\":4268:4588  {... */\n      pop\n        /* \"contracts/Escrow.sol\":4223:4588  function release(uint256 _escrowId) external {... */\n      pop\n      jump\t// out\n        /* \"contracts/Escrow.sol\":1065:1093  IERC20 public immutable usdc */\n    tag_59:\n      immutable(\"0x9b67abc7a7f76ccc26ad76abed83eb7d77aa7a9a12352409554da899fc785375\")\n      dup2\n      jump\t// out\n        /* \"contracts/Escrow.sol\":960:1024  bytes32 public constant ARBITER_ROLE = keccak256(\"ARBITER_ROLE\") */\n    tag_63:\n        /* \"contracts/Escrow.sol\":999:1024  keccak256(\"ARBITER_ROLE\") */\n      0xbb08418a67729a078f87bbc8d02a770929bb68f5bfdf134ae2ead6ed38e2f4ae\n        /* \"contracts/Escrow.sol\":960:1024  bytes32 public constant ARBITER_ROLE = keccak256(\"ARBITER_ROLE\") */\n      dup2\n      jump\t// out\n        /* \"contracts/Escrow.sol\":1100:1141  IFeeTreasury public immutable feeTreasury */\n    tag_66:\n      immutable(\"0xea1c3a463a334d4502a6bc7c1ce6676ab071cb26e08d8d603278a360d97dc14c\")\n      dup2\n      jump\t// out\n        /* \"@openzeppelin/contracts/access/AccessControl.sol\":2830:2966  function hasRole(bytes32 role, address account) public view virtual returns (bool) {... */\n    tag_71:\n        /* \"@openzeppelin/contracts/access/AccessControl.sol\":2907:2911  bool */\n      0x00\n        /* \"@openzeppelin/contracts/access/AccessControl.sol\":2930:2936  _roles */\n      dup1\n        /* \"@openzeppelin/contracts/access/AccessControl.sol\":2930:2942  _roles[role] */\n      0x00\n        /* \"@openzeppelin/contracts/access/AccessControl.sol\":2937:2941  role */\n      dup5\n        /* \"@openzeppelin/contracts/access/AccessControl.sol\":2930:2942  _roles[role] */\n      dup2\n      mstore\n      0x20\n      add\n      swap1\n      dup2\n      mstore\n      0x20\n      add\n      0x00\n      keccak256\n        /* \"@openzeppelin/contracts/access/AccessControl.sol\":2930:2950  _roles[role].hasRole */\n      0x00\n      add\n        /* \"@openzeppelin/contracts/access/AccessControl.sol\":2930:2959  _roles[role].hasRole[account] */\n      0x00\n        /* \"@openzeppelin/contracts/access/AccessControl.sol\":2951:2958  account */\n      dup4\n        /* \"@openzeppelin/contracts/access/AccessControl.sol\":2930:2959  _roles[role].hasRole[account] */\n      0xffffffffffffffffffffffffffffffffffffffff\n      and\n      0xffffffffffffffffffffffffffffffffffffffff\n      and\n      dup2\n      mstore\n      0x20\n      add\n      swap1\n      dup2\n      mstore\n      0x20\n      add\n      0x00\n      keccak256\n      0x00\n      swap1\n      sload\n      swap1\n      0x0100\n      exp\n      swap1\n      div\n      0xff\n      and\n        /* \"@openzeppelin/contracts/access/AccessControl.sol\":2923:2959  return _roles[role].hasRole[account] */\n      swap1\n      pop\n        /* \"@openzeppelin/contracts/access/AccessControl.sol\":2830:2966  function hasRole(bytes32 role, address account) public view virtual returns (bool) {... */\n      swap3\n      swap2\n      pop\n      pop\n      jump\t// out\n        /* \"@openzeppelin/contracts/access/AccessControl.sol\":2196:2245  bytes32 public constant DEFAULT_ADMIN_ROLE = 0x00 */\n    tag_74:\n        /* \"@openzeppelin/contracts/access/AccessControl.sol\":2241:2245  0x00 */\n      0x00\n        /* \"@openzeppelin/contracts/access/AccessControl.sol\":2196:2245  bytes32 public constant DEFAULT_ADMIN_ROLE = 0x00 */\n      dup1\n      shl\n      dup2\n      jump\t// out\n        /* \"@openzeppelin/contracts/access/AccessControl.sol\":4618:4756  function revokeRole(bytes32 role, address account) public virtual onlyRole(getRoleAdmin(role)) {... */\n    tag_78:\n        /* \"@openzeppelin/contracts/access/AccessControl.sol\":4693:4711  getRoleAdmin(role) */\n      tag_148\n        /* \"@openzeppelin/contracts/access/AccessControl.sol\":4706:4710  role */\n      dup3\n        /* \"@openzeppelin/contracts/access/AccessControl.sol\":4693:4705  getRoleAdmin */\n      tag_38\n        /* \"@openzeppelin/contracts/access/AccessControl.sol\":4693:4711  getRoleAdmin(role) */\n      jump\t// in\n    tag_148:\n        /* \"@openzeppelin/contracts/access/AccessControl.sol\":2473:2489  _checkRole(role) */\n      tag_150\n        /* \"@openzeppelin/contracts/access/AccessControl.sol\":2484:2488  role */\n      dup2\n        /* \"@openzeppelin/contracts/access/AccessControl.sol\":2473:2483  _checkRole */\n      tag_109\n        /* \"@openzeppelin/contracts/access/AccessControl.sol\":2473:2489  _checkRole(role) */\n      jump\t// in\n    tag_150:\n        /* \"@openzeppelin/contracts/access/AccessControl.sol\":4723:4749  _revokeRole(role, account) */\n      tag_152\n        /* \"@openzeppelin/contracts/access/AccessControl.sol\":4735:4739  role */\n      dup4\n        /* \"@openzeppelin/contracts/access/AccessControl.sol\":4741:4748  account */\n      dup4\n        /* \"@openzeppelin/contracts/access/AccessControl.sol\":4723:4734  _revokeRole */\n      tag_136\n        /* \"@openzeppelin/contracts/access/AccessControl.sol\":4723:4749  _revokeRole(role, account) */\n      jump\t// in\n    tag_152:\n      pop\n        /* \"@openzeppelin/contracts/access/AccessControl.sol\":4618:4756  function revokeRole(bytes32 role, address account) public virtual onlyRole(getRoleAdmin(role)) {... */\n      pop\n      pop\n      pop\n      jump\t// out\n        /* \"contracts/Escrow.sol\":2755:3355  function holdPayment(... */\n    tag_82:\n        /* \"contracts/Escrow.sol\":927:953  keccak256(\"VERIFIER_ROLE\") */\n      0x0ce23c3e399818cfee81a7ab0880f714e53d7672b08df0fa62f2843416e1ea09\n        /* \"@openzeppelin/contracts/access/AccessControl.sol\":2473:2489  _checkRole(role) */\n      tag_154\n        /* \"@openzeppelin/contracts/access/AccessControl.sol\":2484:2488  role */\n      dup2\n        /* \"@openzeppelin/contracts/access/AccessControl.sol\":2473:2483  _checkRole */\n      tag_109\n        /* \"@openzeppelin/contracts/access/AccessControl.sol\":2473:2489  _checkRole(role) */\n      jump\t// in\n    tag_154:\n        /* \"contracts/Escrow.sol\":2939:2955  uint256 escrowId */\n      0x00\n        /* \"contracts/Escrow.sol\":2960:2976  _escrowIdCounter */\n      0x02\n      0x00\n        /* \"contracts/Escrow.sol\":2958:2976  ++_escrowIdCounter */\n      dup2\n      sload\n      tag_156\n      swap1\n      tag_157\n      jump\t// in\n    tag_156:\n      swap2\n      swap1\n      pop\n      dup2\n      swap1\n      sstore\n        /* \"contracts/Escrow.sol\":2939:2976  uint256 escrowId = ++_escrowIdCounter */\n      swap1\n      pop\n        /* \"contracts/Escrow.sol\":3007:3284  EscrowItem({... */\n      mload(0x40)\n      dup1\n      0xe0\n      add\n      0x40\n      mstore\n      dup1\n        /* \"contracts/Escrow.sol\":3037:3045  escrowId */\n      dup3\n        /* \"contracts/Escrow.sol\":3007:3284  EscrowItem({... */\n      dup2\n      mstore\n      0x20\n      add\n        /* \"contracts/Escrow.sol\":3066:3071  _user */\n      dup7\n        /* \"contracts/Escrow.sol\":3007:3284  EscrowItem({... */\n      0xffffffffffffffffffffffffffffffffffffffff\n      and\n      dup2\n      mstore\n      0x20\n      add\n        /* \"contracts/Escrow.sol\":3095:3103  _assetId */\n      dup8\n        /* \"contracts/Escrow.sol\":3007:3284  EscrowItem({... */\n      dup2\n      mstore\n      0x20\n      add\n        /* \"contracts/Escrow.sol\":3126:3133  _amount */\n      dup6\n        /* \"contracts/Escrow.sol\":3007:3284  EscrowItem({... */\n      dup2\n      mstore\n      0x20\n      add\n        /* \"contracts/Escrow.sol\":3165:3181  _paymentSplitter */\n      dup5\n        /* \"contracts/Escrow.sol\":3007:3284  EscrowItem({... */\n      0xffffffffffffffffffffffffffffffffffffffff\n      and\n      dup2\n      mstore\n      0x20\n      add\n        /* \"contracts/Escrow.sol\":1341:1347  3 days */\n      0x03f480\n        /* \"contracts/Escrow.sol\":3209:3224  block.timestamp */\n      timestamp\n        /* \"contracts/Escrow.sol\":3209:3238  block.timestamp + HOLD_PERIOD */\n      tag_158\n      swap2\n      swap1\n      tag_159\n      jump\t// in\n    tag_158:\n        /* \"contracts/Escrow.sol\":3007:3284  EscrowItem({... */\n      dup2\n      mstore\n      0x20\n      add\n        /* \"contracts/Escrow.sol\":3261:3272  Status.Held */\n      0x00\n        /* \"contracts/Escrow.sol\":3007:3284  EscrowItem({... */\n      0x03\n      dup2\n      gt\n      iszero\n      tag_160\n      jumpi\n      tag_161\n      tag_99\n      jump\t// in\n    tag_161:\n    tag_160:\n      dup2\n      mstore\n      pop\n        /* \"contracts/Escrow.sol\":2987:2994  escrows */\n      0x01\n        /* \"contracts/Escrow.sol\":2987:3004  escrows[escrowId] */\n      0x00\n        /* \"contracts/Escrow.sol\":2995:3003  escrowId */\n      dup4\n        /* \"contracts/Escrow.sol\":2987:3004  escrows[escrowId] */\n      dup2\n      mstore\n      0x20\n      add\n      swap1\n      dup2\n      mstore\n      0x20\n      add\n      0x00\n      keccak256\n        /* \"contracts/Escrow.sol\":2987:3284  escrows[escrowId] = EscrowItem({... */\n      0x00\n      dup3\n      add\n      mload\n      dup2\n      0x00\n      add\n      sstore\n      0x20\n      dup3\n      add\n      mload\n      dup2\n      0x01\n      add\n      exp(0x0100, 0x00)\n      dup2\n      sload\n      dup2\n      0xffffffffffffffffffffffffffffffffffffffff\n      mul\n      not\n      and\n      swap1\n      dup4\n      0xffffffffffffffffffffffffffffffffffffffff\n      and\n      mul\n      or\n      swap1\n      sstore\n      pop\n      0x40\n      dup3\n      add\n      mload\n      dup2\n      0x02\n      add\n      sstore\n      0x60\n      dup3\n      add\n      mload\n      dup2\n      0x03\n      add\n      sstore\n      0x80\n      dup3\n      add\n      mload\n      dup2\n      0x04\n      add\n      exp(0x0100, 0x00)\n      dup2\n      sload\n      dup2\n      0xffffffffffffffffffffffffffffffffffffffff\n      mul\n      not\n      and\n      swap1\n      dup4\n      0xffffffffffffffffffffffffffffffffffffffff\n      and\n      mul\n      or\n      swap1\n      sstore\n      pop\n      0xa0\n      dup3\n      add\n      mload\n      dup2\n      0x05\n      add\n      sstore\n      0xc0\n      dup3\n      add\n      mload\n      dup2\n      0x06\n      add\n      exp(0x0100, 0x00)\n      dup2\n      sload\n      dup2\n      0xff\n      mul\n      not\n      and\n      swap1\n      dup4\n      0x03\n      dup2\n      gt\n      iszero\n      tag_162\n      jumpi\n      tag_163\n      tag_99\n      jump\t// in\n    tag_163:\n    tag_162:\n      mul\n      or\n      swap1\n      sstore\n      pop\n      swap1\n      pop\n      pop\n        /* \"contracts/Escrow.sol\":3332:3337  _user */\n      dup5\n        /* \"contracts/Escrow.sol\":3300:3347  PaymentHeld(escrowId, _assetId, _user, _amount) */\n      0xffffffffffffffffffffffffffffffffffffffff\n      and\n        /* \"contracts/Escrow.sol\":3322:3330  _assetId */\n      dup7\n        /* \"contracts/Escrow.sol\":3312:3320  escrowId */\n      dup3\n        /* \"contracts/Escrow.sol\":3300:3347  PaymentHeld(escrowId, _assetId, _user, _amount) */\n      0x43984c1e017ed0311ce2b121da72130b77d64f8b0652c8c80d70a31ead3e2904\n        /* \"contracts/Escrow.sol\":3339:3346  _amount */\n      dup8\n        /* \"contracts/Escrow.sol\":3300:3347  PaymentHeld(escrowId, _assetId, _user, _amount) */\n      mload(0x40)\n      tag_164\n      swap2\n      swap1\n      tag_89\n      jump\t// in\n    tag_164:\n      mload(0x40)\n      dup1\n      swap2\n      sub\n      swap1\n      log4\n        /* \"contracts/Escrow.sol\":2928:3355  {... */\n      pop\n        /* \"contracts/Escrow.sol\":2755:3355  function holdPayment(... */\n      pop\n      pop\n      pop\n      pop\n      pop\n      jump\t// out\n        /* \"contracts/Escrow.sol\":887:953  bytes32 public constant VERIFIER_ROLE = keccak256(\"VERIFIER_ROLE\") */\n    tag_84:\n        /* \"contracts/Escrow.sol\":927:953  keccak256(\"VERIFIER_ROLE\") */\n      0x0ce23c3e399818cfee81a7ab0880f714e53d7672b08df0fa62f2843416e1ea09\n        /* \"contracts/Escrow.sol\":887:953  bytes32 public constant VERIFIER_ROLE = keccak256(\"VERIFIER_ROLE\") */\n      dup2\n      jump\t// out\n        /* \"contracts/Escrow.sol\":1303:1347  uint256 public constant HOLD_PERIOD = 3 days */\n    tag_87:\n        /* \"contracts/Escrow.sol\":1341:1347  3 days */\n      0x03f480\n        /* \"contracts/Escrow.sol\":1303:1347  uint256 public constant HOLD_PERIOD = 3 days */\n      dup2\n      jump\t// out\n        /* \"@openzeppelin/contracts/utils/introspection/ERC165.sol\":730:876  function supportsInterface(bytes4 interfaceId) public view virtual returns (bool) {... */\n    tag_93:\n        /* \"@openzeppelin/contracts/utils/introspection/ERC165.sol\":806:810  bool */\n      0x00\n        /* \"@openzeppelin/contracts/utils/introspection/ERC165.sol\":844:869  type(IERC165).interfaceId */\n      0x01ffc9a700000000000000000000000000000000000000000000000000000000\n        /* \"@openzeppelin/contracts/utils/introspection/ERC165.sol\":829:869  interfaceId == type(IERC165).interfaceId */\n      not(0xffffffffffffffffffffffffffffffffffffffffffffffffffffffff)\n      and\n        /* \"@openzeppelin/contracts/utils/introspection/ERC165.sol\":829:840  interfaceId */\n      dup3\n        /* \"@openzeppelin/contracts/utils/introspection/ERC165.sol\":829:869  interfaceId == type(IERC165).interfaceId */\n      not(0xffffffffffffffffffffffffffffffffffffffffffffffffffffffff)\n      and\n      eq\n        /* \"@openzeppelin/contracts/utils/introspection/ERC165.sol\":822:869  return interfaceId == type(IERC165).interfaceId */\n      swap1\n      pop\n        /* \"@openzeppelin/contracts/utils/introspection/ERC165.sol\":730:876  function supportsInterface(bytes4 interfaceId) public view virtual returns (bool) {... */\n      swap2\n      swap1\n      pop\n      jump\t// out\n        /* \"@openzeppelin/contracts/access/AccessControl.sol\":3175:3278  function _checkRole(bytes32 role) internal view virtual {... */\n    tag_109:\n        /* \"@openzeppelin/contracts/access/AccessControl.sol\":3241:3271  _checkRole(role, _msgSender()) */\n      tag_167\n        /* \"@openzeppelin/contracts/access/AccessControl.sol\":3252:3256  role */\n      dup2\n        /* \"@openzeppelin/contracts/access/AccessControl.sol\":3258:3270  _msgSender() */\n      tag_168\n        /* \"@openzeppelin/contracts/access/AccessControl.sol\":3258:3268  _msgSender */\n      tag_133\n        /* \"@openzeppelin/contracts/access/AccessControl.sol\":3258:3270  _msgSender() */\n      jump\t// in\n    tag_168:\n        /* \"@openzeppelin/contracts/access/AccessControl.sol\":3241:3251  _checkRole */\n      tag_169\n        /* \"@openzeppelin/contracts/access/AccessControl.sol\":3241:3271  _checkRole(role, _msgSender()) */\n      jump\t// in\n    tag_167:\n        /* \"@openzeppelin/contracts/access/AccessControl.sol\":3175:3278  function _checkRole(bytes32 role) internal view virtual {... */\n      pop\n      jump\t// out\n        /* \"@openzeppelin/contracts/access/AccessControl.sol\":6155:6471  function _grantRole(bytes32 role, address account) internal virtual returns (bool) {... */\n    tag_112:\n        /* \"@openzeppelin/contracts/access/AccessControl.sol\":6232:6236  bool */\n      0x00\n        /* \"@openzeppelin/contracts/access/AccessControl.sol\":6253:6275  hasRole(role, account) */\n      tag_171\n        /* \"@openzeppelin/contracts/access/AccessControl.sol\":6261:6265  role */\n      dup4\n        /* \"@openzeppelin/contracts/access/AccessControl.sol\":6267:6274  account */\n      dup4\n        /* \"@openzeppelin/contracts/access/AccessControl.sol\":6253:6260  hasRole */\n      tag_71\n        /* \"@openzeppelin/contracts/access/AccessControl.sol\":6253:6275  hasRole(role, account) */\n      jump\t// in\n    tag_171:\n        /* \"@openzeppelin/contracts/access/AccessControl.sol\":6248:6465  if (!hasRole(role, account)) {... */\n      tag_172\n      jumpi\n        /* \"@openzeppelin/contracts/access/AccessControl.sol\":6323:6327  true */\n      0x01\n        /* \"@openzeppelin/contracts/access/AccessControl.sol\":6291:6297  _roles */\n      0x00\n        /* \"@openzeppelin/contracts/access/AccessControl.sol\":6291:6303  _roles[role] */\n      dup1\n        /* \"@openzeppelin/contracts/access/AccessControl.sol\":6298:6302  role */\n      dup6\n        /* \"@openzeppelin/contracts/access/AccessControl.sol\":6291:6303  _roles[role] */\n      dup2\n      mstore\n      0x20\n      add\n      swap1\n      dup2\n      mstore\n      0x20\n      add\n      0x00\n      keccak256\n        /* \"@openzeppelin/contracts/access/AccessControl.sol\":6291:6311  _roles[role].hasRole */\n      0x00\n      add\n        /* \"@openzeppelin/contracts/access/AccessControl.sol\":6291:6320  _roles[role].hasRole[account] */\n      0x00\n        /* \"@openzeppelin/contracts/access/AccessControl.sol\":6312:6319  account */\n      dup5\n        /* \"@openzeppelin/contracts/access/AccessControl.sol\":6291:6320  _roles[role].hasRole[account] */\n      0xffffffffffffffffffffffffffffffffffffffff\n      and\n      0xffffffffffffffffffffffffffffffffffffffff\n      and\n      dup2\n      mstore\n      0x20\n      add\n      swap1\n      dup2\n      mstore\n      0x20\n      add\n      0x00\n      keccak256\n      0x00\n        /* \"@openzeppelin/contracts/access/AccessControl.sol\":6291:6327  _roles[role].hasRole[account] = true */\n      0x0100\n      exp\n      dup2\n      sload\n      dup2\n      0xff\n      mul\n      not\n      and\n      swap1\n      dup4\n      iszero\n      iszero\n      mul\n      or\n      swap1\n      sstore\n      pop\n        /* \"@openzeppelin/contracts/access/AccessControl.sol\":6373:6385  _msgSender() */\n      tag_173\n        /* \"@openzeppelin/contracts/access/AccessControl.sol\":6373:6383  _msgSender */\n      tag_133\n        /* \"@openzeppelin/contracts/access/AccessControl.sol\":6373:6385  _msgSender() */\n      jump\t// in\n    tag_173:\n        /* \"@openzeppelin/contracts/access/AccessControl.sol\":6346:6386  RoleGranted(role, account, _msgSender()) */\n      0xffffffffffffffffffffffffffffffffffffffff\n      and\n        /* \"@openzeppelin/contracts/access/AccessControl.sol\":6364:6371  account */\n      dup3\n        /* \"@openzeppelin/contracts/access/AccessControl.sol\":6346:6386  RoleGranted(role, account, _msgSender()) */\n      0xffffffffffffffffffffffffffffffffffffffff\n      and\n        /* \"@openzeppelin/contracts/access/AccessControl.sol\":6358:6362  role */\n      dup5\n        /* \"@openzeppelin/contracts/access/AccessControl.sol\":6346:6386  RoleGranted(role, account, _msgSender()) */\n      0x2f8788117e7eff1d82e926ec794901d17c78024a50270940304540a733656f0d\n      mload(0x40)\n      mload(0x40)\n      dup1\n      swap2\n      sub\n      swap1\n      log4\n        /* \"@openzeppelin/contracts/access/AccessControl.sol\":6407:6411  true */\n      0x01\n        /* \"@openzeppelin/contracts/access/AccessControl.sol\":6400:6411  return true */\n      swap1\n      pop\n      jump(tag_170)\n        /* \"@openzeppelin/contracts/access/AccessControl.sol\":6248:6465  if (!hasRole(role, account)) {... */\n    tag_172:\n        /* \"@openzeppelin/contracts/access/AccessControl.sol\":6449:6454  false */\n      0x00\n        /* \"@openzeppelin/contracts/access/AccessControl.sol\":6442:6454  return false */\n      swap1\n      pop\n        /* \"@openzeppelin/contracts/access/AccessControl.sol\":6155:6471  function _grantRole(bytes32 role, address account) internal virtual returns (bool) {... */\n    tag_170:\n      swap3\n      swap2\n      pop\n      pop\n      jump\t// out\n        /* \"@openzeppelin/contracts/token/ERC20/utils/SafeERC20.sol\":1219:1379  function safeTransfer(IERC20 token, address to, uint256 value) internal {... */\n    tag_125:\n        /* \"@openzeppelin/contracts/token/ERC20/utils/SafeERC20.sol\":1301:1372  _callOptionalReturn(token, abi.encodeCall(token.transfer, (to, value))) */\n      tag_176\n        /* \"@openzeppelin/contracts/token/ERC20/utils/SafeERC20.sol\":1321:1326  token */\n      dup4\n        /* \"@openzeppelin/contracts/token/ERC20/utils/SafeERC20.sol\":1343:1348  token */\n      dup5\n        /* \"@openzeppelin/contracts/token/ERC20/utils/SafeERC20.sol\":1343:1357  token.transfer */\n      0xffffffffffffffffffffffffffffffffffffffff\n      and\n      0xa9059cbb\n        /* \"@openzeppelin/contracts/token/ERC20/utils/SafeERC20.sol\":1360:1362  to */\n      dup6\n        /* \"@openzeppelin/contracts/token/ERC20/utils/SafeERC20.sol\":1364:1369  value */\n      dup6\n        /* \"@openzeppelin/contracts/token/ERC20/utils/SafeERC20.sol\":1328:1371  abi.encodeCall(token.transfer, (to, value)) */\n      add(0x24, mload(0x40))\n      tag_177\n      swap3\n      swap2\n      swap1\n      tag_178\n      jump\t// in\n    tag_177:\n      mload(0x40)\n      0x20\n      dup2\n      dup4\n      sub\n      sub\n      dup2\n      mstore\n      swap1\n      0x40\n      mstore\n      swap2\n      pop\n      0xe0\n      shl\n      0x20\n      dup3\n      add\n      dup1\n      mload\n      0xffffffffffffffffffffffffffffffffffffffffffffffffffffffff\n      dup4\n      dup2\n      dup4\n      and\n      or\n      dup4\n      mstore\n      pop\n      pop\n      pop\n      pop\n        /* \"@openzeppelin/contracts/token/ERC20/utils/SafeERC20.sol\":1301:1320  _callOptionalReturn */\n      tag_179\n        /* \"@openzeppelin/contracts/token/ERC20/utils/SafeERC20.sol\":1301:1372  _callOptionalReturn(token, abi.encodeCall(token.transfer, (to, value))) */\n      jump\t// in\n    tag_176:\n        /* \"@openzeppelin/contracts/token/ERC20/utils/SafeERC20.sol\":1219:1379  function safeTransfer(IERC20 token, address to, uint256 value) internal {... */\n      pop\n      pop\n      pop\n      jump\t// out\n        /* \"contracts/Escrow.sol\":5450:6061  function _splitAndSend(EscrowItem storage _item) internal {... */\n    tag_130:\n        /* \"contracts/Escrow.sol\":5519:5539  uint16 currentFeeBps */\n      0x00\n        /* \"contracts/Escrow.sol\":5542:5553  feeTreasury */\n      immutable(\"0xea1c3a463a334d4502a6bc7c1ce6676ab071cb26e08d8d603278a360d97dc14c\")\n        /* \"contracts/Escrow.sol\":5542:5560  feeTreasury.feeBps */\n      0xffffffffffffffffffffffffffffffffffffffff\n      and\n      0x24a9d853\n        /* \"contracts/Escrow.sol\":5542:5562  feeTreasury.feeBps() */\n      mload(0x40)\n      dup2\n      0xffffffff\n      and\n      0xe0\n      shl\n      dup2\n      mstore\n      0x04\n      add\n      0x20\n      mload(0x40)\n      dup1\n      dup4\n      sub\n      dup2\n      dup7\n      gas\n      staticcall\n      iszero\n      dup1\n      iszero\n      tag_182\n      jumpi\n      returndatasize\n      0x00\n      dup1\n      returndatacopy\n      revert(0x00, returndatasize)\n    tag_182:\n      pop\n      pop\n      pop\n      pop\n      mload(0x40)\n      returndatasize\n      not(0x1f)\n      0x1f\n      dup3\n      add\n      and\n      dup3\n      add\n      dup1\n      0x40\n      mstore\n      pop\n      dup2\n      add\n      swap1\n      tag_183\n      swap2\n      swap1\n      tag_184\n      jump\t// in\n    tag_183:\n        /* \"contracts/Escrow.sol\":5519:5562  uint16 currentFeeBps = feeTreasury.feeBps() */\n      swap1\n      pop\n        /* \"contracts/Escrow.sol\":5573:5589  address multisig */\n      0x00\n        /* \"contracts/Escrow.sol\":5592:5603  feeTreasury */\n      immutable(\"0xea1c3a463a334d4502a6bc7c1ce6676ab071cb26e08d8d603278a360d97dc14c\")\n        /* \"contracts/Escrow.sol\":5592:5620  feeTreasury.treasuryMultisig */\n      0xffffffffffffffffffffffffffffffffffffffff\n      and\n      0xbf628408\n        /* \"contracts/Escrow.sol\":5592:5622  feeTreasury.treasuryMultisig() */\n      mload(0x40)\n      dup2\n      0xffffffff\n      and\n      0xe0\n      shl\n      dup2\n      mstore\n      0x04\n      add\n      0x20\n      mload(0x40)\n      dup1\n      dup4\n      sub\n      dup2\n      dup7\n      gas\n      staticcall\n      iszero\n      dup1\n      iszero\n      tag_186\n      jumpi\n      returndatasize\n      0x00\n      dup1\n      returndatacopy\n      revert(0x00, returndatasize)\n    tag_186:\n      pop\n      pop\n      pop\n      pop\n      mload(0x40)\n      returndatasize\n      not(0x1f)\n      0x1f\n      dup3\n      add\n      and\n      dup3\n      add\n      dup1\n      0x40\n      mstore\n      pop\n      dup2\n      add\n      swap1\n      tag_187\n      swap2\n      swap1\n      tag_188\n      jump\t// in\n    tag_187:\n        /* \"contracts/Escrow.sol\":5573:5622  address multisig = feeTreasury.treasuryMultisig() */\n      swap1\n      pop\n        /* \"contracts/Escrow.sol\":5643:5662  uint256 totalAmount */\n      0x00\n        /* \"contracts/Escrow.sol\":5665:5670  _item */\n      dup4\n        /* \"contracts/Escrow.sol\":5665:5677  _item.amount */\n      0x03\n      add\n      sload\n        /* \"contracts/Escrow.sol\":5643:5677  uint256 totalAmount = _item.amount */\n      swap1\n      pop\n        /* \"contracts/Escrow.sol\":5688:5707  uint256 protocolFee */\n      0x00\n        /* \"contracts/Escrow.sol\":5742:5747  10000 */\n      0x2710\n        /* \"contracts/Escrow.sol\":5725:5738  currentFeeBps */\n      dup5\n        /* \"contracts/Escrow.sol\":5711:5738  totalAmount * currentFeeBps */\n      0xffff\n      and\n        /* \"contracts/Escrow.sol\":5711:5722  totalAmount */\n      dup4\n        /* \"contracts/Escrow.sol\":5711:5738  totalAmount * currentFeeBps */\n      tag_189\n      swap2\n      swap1\n      tag_190\n      jump\t// in\n    tag_189:\n        /* \"contracts/Escrow.sol\":5710:5747  (totalAmount * currentFeeBps) / 10000 */\n      tag_191\n      swap2\n      swap1\n      tag_192\n      jump\t// in\n    tag_191:\n        /* \"contracts/Escrow.sol\":5688:5747  uint256 protocolFee = (totalAmount * currentFeeBps) / 10000 */\n      swap1\n      pop\n        /* \"contracts/Escrow.sol\":5758:5786  uint256 amountToContributors */\n      0x00\n        /* \"contracts/Escrow.sol\":5803:5814  protocolFee */\n      dup2\n        /* \"contracts/Escrow.sol\":5789:5800  totalAmount */\n      dup4\n        /* \"contracts/Escrow.sol\":5789:5814  totalAmount - protocolFee */\n      tag_193\n      swap2\n      swap1\n      tag_194\n      jump\t// in\n    tag_193:\n        /* \"contracts/Escrow.sol\":5758:5814  uint256 amountToContributors = totalAmount - protocolFee */\n      swap1\n      pop\n        /* \"contracts/Escrow.sol\":5854:5894  usdc.safeTransfer(multisig, protocolFee) */\n      tag_195\n        /* \"contracts/Escrow.sol\":5872:5880  multisig */\n      dup5\n        /* \"contracts/Escrow.sol\":5882:5893  protocolFee */\n      dup4\n        /* \"contracts/Escrow.sol\":5854:5858  usdc */\n      immutable(\"0x9b67abc7a7f76ccc26ad76abed83eb7d77aa7a9a12352409554da899fc785375\")\n        /* \"contracts/Escrow.sol\":5854:5871  usdc.safeTransfer */\n      0xffffffffffffffffffffffffffffffffffffffff\n      and\n      tag_125\n      swap1\n        /* \"contracts/Escrow.sol\":5854:5894  usdc.safeTransfer(multisig, protocolFee) */\n      swap3\n      swap2\n      swap1\n      0xffffffff\n      and\n      jump\t// in\n    tag_195:\n        /* \"contracts/Escrow.sol\":5905:5967  usdc.safeTransfer(_item.paymentSplitter, amountToContributors) */\n      tag_196\n        /* \"contracts/Escrow.sol\":5923:5928  _item */\n      dup7\n        /* \"contracts/Escrow.sol\":5923:5944  _item.paymentSplitter */\n      0x04\n      add\n      0x00\n      swap1\n      sload\n      swap1\n      0x0100\n      exp\n      swap1\n      div\n      0xffffffffffffffffffffffffffffffffffffffff\n      and\n        /* \"contracts/Escrow.sol\":5946:5966  amountToContributors */\n      dup3\n        /* \"contracts/Escrow.sol\":5905:5909  usdc */\n      immutable(\"0x9b67abc7a7f76ccc26ad76abed83eb7d77aa7a9a12352409554da899fc785375\")\n        /* \"contracts/Escrow.sol\":5905:5922  usdc.safeTransfer */\n      0xffffffffffffffffffffffffffffffffffffffff\n      and\n      tag_125\n      swap1\n        /* \"contracts/Escrow.sol\":5905:5967  usdc.safeTransfer(_item.paymentSplitter, amountToContributors) */\n      swap3\n      swap2\n      swap1\n      0xffffffff\n      and\n      jump\t// in\n    tag_196:\n        /* \"contracts/Escrow.sol\":6009:6014  _item */\n      dup6\n        /* \"contracts/Escrow.sol\":6009:6017  _item.id */\n      0x00\n      add\n      sload\n        /* \"contracts/Escrow.sol\":5993:6053  PaymentReleased(_item.id, amountToContributors, protocolFee) */\n      0x3c70b1e8034b5738ec77fbfdaa4d28906a0b3160018d67a2dc7b534e53e33fe0\n        /* \"contracts/Escrow.sol\":6019:6039  amountToContributors */\n      dup3\n        /* \"contracts/Escrow.sol\":6041:6052  protocolFee */\n      dup5\n        /* \"contracts/Escrow.sol\":5993:6053  PaymentReleased(_item.id, amountToContributors, protocolFee) */\n      mload(0x40)\n      tag_197\n      swap3\n      swap2\n      swap1\n      tag_198\n      jump\t// in\n    tag_197:\n      mload(0x40)\n      dup1\n      swap2\n      sub\n      swap1\n      log2\n        /* \"contracts/Escrow.sol\":5508:6061  {... */\n      pop\n      pop\n      pop\n      pop\n      pop\n        /* \"contracts/Escrow.sol\":5450:6061  function _splitAndSend(EscrowItem storage _item) internal {... */\n      pop\n      jump\t// out\n        /* \"@openzeppelin/contracts/utils/Context.sol\":656:752  function _msgSender() internal view virtual returns (address) {... */\n    tag_133:\n        /* \"@openzeppelin/contracts/utils/Context.sol\":709:716  address */\n      0x00\n        /* \"@openzeppelin/contracts/utils/Context.sol\":735:745  msg.sender */\n      caller\n        /* \"@openzeppelin/contracts/utils/Context.sol\":728:745  return msg.sender */\n      swap1\n      pop\n        /* \"@openzeppelin/contracts/utils/Context.sol\":656:752  function _msgSender() internal view virtual returns (address) {... */\n      swap1\n      jump\t// out\n        /* \"@openzeppelin/contracts/access/AccessControl.sol\":6708:7025  function _revokeRole(bytes32 role, address account) internal virtual returns (bool) {... */\n    tag_136:\n        /* \"@openzeppelin/contracts/access/AccessControl.sol\":6786:6790  bool */\n      0x00\n        /* \"@openzeppelin/contracts/access/AccessControl.sol\":6806:6828  hasRole(role, account) */\n      tag_201\n        /* \"@openzeppelin/contracts/access/AccessControl.sol\":6814:6818  role */\n      dup4\n        /* \"@openzeppelin/contracts/access/AccessControl.sol\":6820:6827  account */\n      dup4\n        /* \"@openzeppelin/contracts/access/AccessControl.sol\":6806:6813  hasRole */\n      tag_71\n        /* \"@openzeppelin/contracts/access/AccessControl.sol\":6806:6828  hasRole(role, account) */\n      jump\t// in\n    tag_201:\n        /* \"@openzeppelin/contracts/access/AccessControl.sol\":6802:7019  if (hasRole(role, account)) {... */\n      iszero\n      tag_202\n      jumpi\n        /* \"@openzeppelin/contracts/access/AccessControl.sol\":6876:6881  false */\n      0x00\n        /* \"@openzeppelin/contracts/access/AccessControl.sol\":6844:6850  _roles */\n      dup1\n        /* \"@openzeppelin/contracts/access/AccessControl.sol\":6844:6856  _roles[role] */\n      0x00\n        /* \"@openzeppelin/contracts/access/AccessControl.sol\":6851:6855  role */\n      dup6\n        /* \"@openzeppelin/contracts/access/AccessControl.sol\":6844:6856  _roles[role] */\n      dup2\n      mstore\n      0x20\n      add\n      swap1\n      dup2\n      mstore\n      0x20\n      add\n      0x00\n      keccak256\n        /* \"@openzeppelin/contracts/access/AccessControl.sol\":6844:6864  _roles[role].hasRole */\n      0x00\n      add\n        /* \"@openzeppelin/contracts/access/AccessControl.sol\":6844:6873  _roles[role].hasRole[account] */\n      0x00\n        /* \"@openzeppelin/contracts/access/AccessControl.sol\":6865:6872  account */\n      dup5\n        /* \"@openzeppelin/contracts/access/AccessControl.sol\":6844:6873  _roles[role].hasRole[account] */\n      0xffffffffffffffffffffffffffffffffffffffff\n      and\n      0xffffffffffffffffffffffffffffffffffffffff\n      and\n      dup2\n      mstore\n      0x20\n      add\n      swap1\n      dup2\n      mstore\n      0x20\n      add\n      0x00\n      keccak256\n      0x00\n        /* \"@openzeppelin/contracts/access/AccessControl.sol\":6844:6881  _roles[role].hasRole[account] = false */\n      0x0100\n      exp\n      dup2\n      sload\n      dup2\n      0xff\n      mul\n      not\n      and\n      swap1\n      dup4\n      iszero\n      iszero\n      mul\n      or\n      swap1\n      sstore\n      pop\n        /* \"@openzeppelin/contracts/access/AccessControl.sol\":6927:6939  _msgSender() */\n      tag_203\n        /* \"@openzeppelin/contracts/access/AccessControl.sol\":6927:6937  _msgSender */\n      tag_133\n        /* \"@openzeppelin/contracts/access/AccessControl.sol\":6927:6939  _msgSender() */\n      jump\t// in\n    tag_203:\n        /* \"@openzeppelin/contracts/access/AccessControl.sol\":6900:6940  RoleRevoked(role, account, _msgSender()) */\n      0xffffffffffffffffffffffffffffffffffffffff\n      and\n        /* \"@openzeppelin/contracts/access/AccessControl.sol\":6918:6925  account */\n      dup3\n        /* \"@openzeppelin/contracts/access/AccessControl.sol\":6900:6940  RoleRevoked(role, account, _msgSender()) */\n      0xffffffffffffffffffffffffffffffffffffffff\n      and\n        /* \"@openzeppelin/contracts/access/AccessControl.sol\":6912:6916  role */\n      dup5\n        /* \"@openzeppelin/contracts/access/AccessControl.sol\":6900:6940  RoleRevoked(role, account, _msgSender()) */\n      0xf6391f5c32d9c69d2a47ea670b442974b53935d1edc7fd64eb21e047a839171b\n      mload(0x40)\n      mload(0x40)\n      dup1\n      swap2\n      sub\n      swap1\n      log4\n        /* \"@openzeppelin/contracts/access/AccessControl.sol\":6961:6965  true */\n      0x01\n        /* \"@openzeppelin/contracts/access/AccessControl.sol\":6954:6965  return true */\n      swap1\n      pop\n      jump(tag_200)\n        /* \"@openzeppelin/contracts/access/AccessControl.sol\":6802:7019  if (hasRole(role, account)) {... */\n    tag_202:\n        /* \"@openzeppelin/contracts/access/AccessControl.sol\":7003:7008  false */\n      0x00\n        /* \"@openzeppelin/contracts/access/AccessControl.sol\":6996:7008  return false */\n      swap1\n      pop\n        /* \"@openzeppelin/contracts/access/AccessControl.sol\":6708:7025  function _revokeRole(bytes32 role, address account) internal virtual returns (bool) {... */\n    tag_200:\n      swap3\n      swap2\n      pop\n      pop\n      jump\t// out\n        /* \"@openzeppelin/contracts/access/AccessControl.sol\":3408:3605  function _checkRole(bytes32 role, address account) internal view virtual {... */\n    tag_169:\n        /* \"@openzeppelin/contracts/access/AccessControl.sol\":3496:3518  hasRole(role, account) */\n      tag_206\n        /* \"@openzeppelin/contracts/access/AccessControl.sol\":3504:3508  role */\n      dup3\n        /* \"@openzeppelin/contracts/access/AccessControl.sol\":3510:3517  account */\n      dup3\n        /* \"@openzeppelin/contracts/access/AccessControl.sol\":3496:3503  hasRole */\n      tag_71\n        /* \"@openzeppelin/contracts/access/AccessControl.sol\":3496:3518  hasRole(role, account) */\n      jump\t// in\n    tag_206:\n        /* \"@openzeppelin/contracts/access/AccessControl.sol\":3491:3599  if (!hasRole(role, account)) {... */\n      tag_207\n      jumpi\n        /* \"@openzeppelin/contracts/access/AccessControl.sol\":3574:3581  account */\n      dup1\n        /* \"@openzeppelin/contracts/access/AccessControl.sol\":3583:3587  role */\n      dup3\n        /* \"@openzeppelin/contracts/access/AccessControl.sol\":3541:3588  AccessControlUnauthorizedAccount(account, role) */\n      mload(0x40)\n      0xe2517d3f00000000000000000000000000000000000000000000000000000000\n      dup2\n      mstore\n      0x04\n      add\n      tag_208\n      swap3\n      swap2\n      swap1\n      tag_209\n      jump\t// in\n    tag_208:\n      mload(0x40)\n      dup1\n      swap2\n      sub\n      swap1\n      revert\n        /* \"@openzeppelin/contracts/access/AccessControl.sol\":3491:3599  if (!hasRole(role, account)) {... */\n    tag_207:\n        /* \"@openzeppelin/contracts/access/AccessControl.sol\":3408:3605  function _checkRole(bytes32 role, address account) internal view virtual {... */\n      pop\n      pop\n      jump\t// out\n        /* \"@openzeppelin/contracts/token/ERC20/utils/SafeERC20.sol\":8370:9090  function _callOptionalReturn(IERC20 token, bytes memory data) private {... */\n    tag_179:\n        /* \"@openzeppelin/contracts/token/ERC20/utils/SafeERC20.sol\":8450:8468  uint256 returnSize */\n      0x00\n        /* \"@openzeppelin/contracts/token/ERC20/utils/SafeERC20.sol\":8478:8497  uint256 returnValue */\n      dup1\n        /* \"@openzeppelin/contracts/token/ERC20/utils/SafeERC20.sol\":8616:8620  0x20 */\n      0x20\n        /* \"@openzeppelin/contracts/token/ERC20/utils/SafeERC20.sol\":8613:8614  0 */\n      0x00\n        /* \"@openzeppelin/contracts/token/ERC20/utils/SafeERC20.sol\":8606:8610  data */\n      dup5\n        /* \"@openzeppelin/contracts/token/ERC20/utils/SafeERC20.sol\":8600:8611  mload(data) */\n      mload\n        /* \"@openzeppelin/contracts/token/ERC20/utils/SafeERC20.sol\":8593:8597  0x20 */\n      0x20\n        /* \"@openzeppelin/contracts/token/ERC20/utils/SafeERC20.sol\":8587:8591  data */\n      dup7\n        /* \"@openzeppelin/contracts/token/ERC20/utils/SafeERC20.sol\":8583:8598  add(data, 0x20) */\n      add\n        /* \"@openzeppelin/contracts/token/ERC20/utils/SafeERC20.sol\":8580:8581  0 */\n      0x00\n        /* \"@openzeppelin/contracts/token/ERC20/utils/SafeERC20.sol\":8573:8578  token */\n      dup9\n        /* \"@openzeppelin/contracts/token/ERC20/utils/SafeERC20.sol\":8566:8571  gas() */\n      gas\n        /* \"@openzeppelin/contracts/token/ERC20/utils/SafeERC20.sol\":8561:8621  call(gas(), token, 0, add(data, 0x20), mload(data), 0, 0x20) */\n      call\n        /* \"@openzeppelin/contracts/token/ERC20/utils/SafeERC20.sol\":8673:8680  success */\n      dup1\n        /* \"@openzeppelin/contracts/token/ERC20/utils/SafeERC20.sol\":8663:8839  if iszero(success) {... */\n      tag_211\n      jumpi\n        /* \"@openzeppelin/contracts/token/ERC20/utils/SafeERC20.sol\":8717:8721  0x40 */\n      0x40\n        /* \"@openzeppelin/contracts/token/ERC20/utils/SafeERC20.sol\":8711:8722  mload(0x40) */\n      mload\n        /* \"@openzeppelin/contracts/token/ERC20/utils/SafeERC20.sol\":8762:8778  returndatasize() */\n      returndatasize\n        /* \"@openzeppelin/contracts/token/ERC20/utils/SafeERC20.sol\":8759:8760  0 */\n      0x00\n        /* \"@openzeppelin/contracts/token/ERC20/utils/SafeERC20.sol\":8754:8757  ptr */\n      dup3\n        /* \"@openzeppelin/contracts/token/ERC20/utils/SafeERC20.sol\":8739:8779  returndatacopy(ptr, 0, returndatasize()) */\n      returndatacopy\n        /* \"@openzeppelin/contracts/token/ERC20/utils/SafeERC20.sol\":8808:8824  returndatasize() */\n      returndatasize\n        /* \"@openzeppelin/contracts/token/ERC20/utils/SafeERC20.sol\":8803:8806  ptr */\n      dup2\n        /* \"@openzeppelin/contracts/token/ERC20/utils/SafeERC20.sol\":8796:8825  revert(ptr, returndatasize()) */\n      revert\n        /* \"@openzeppelin/contracts/token/ERC20/utils/SafeERC20.sol\":8663:8839  if iszero(success) {... */\n    tag_211:\n        /* \"@openzeppelin/contracts/token/ERC20/utils/SafeERC20.sol\":8866:8882  returndatasize() */\n      returndatasize\n        /* \"@openzeppelin/contracts/token/ERC20/utils/SafeERC20.sol\":8852:8882  returnSize := returndatasize() */\n      swap3\n      pop\n        /* \"@openzeppelin/contracts/token/ERC20/utils/SafeERC20.sol\":8916:8917  0 */\n      0x00\n        /* \"@openzeppelin/contracts/token/ERC20/utils/SafeERC20.sol\":8910:8918  mload(0) */\n      mload\n        /* \"@openzeppelin/contracts/token/ERC20/utils/SafeERC20.sol\":8895:8918  returnValue := mload(0) */\n      swap2\n      pop\n        /* \"@openzeppelin/contracts/token/ERC20/utils/SafeERC20.sol\":8532:8928  {... */\n      pop\n        /* \"@openzeppelin/contracts/token/ERC20/utils/SafeERC20.sol\":8956:8957  0 */\n      0x00\n        /* \"@openzeppelin/contracts/token/ERC20/utils/SafeERC20.sol\":8942:8952  returnSize */\n      dup3\n        /* \"@openzeppelin/contracts/token/ERC20/utils/SafeERC20.sol\":8942:8957  returnSize == 0 */\n      eq\n        /* \"@openzeppelin/contracts/token/ERC20/utils/SafeERC20.sol\":8942:9010  returnSize == 0 ? address(token).code.length == 0 : returnValue != 1 */\n      tag_212\n      jumpi\n        /* \"@openzeppelin/contracts/token/ERC20/utils/SafeERC20.sol\":9009:9010  1 */\n      0x01\n        /* \"@openzeppelin/contracts/token/ERC20/utils/SafeERC20.sol\":8994:9005  returnValue */\n      dup2\n        /* \"@openzeppelin/contracts/token/ERC20/utils/SafeERC20.sol\":8994:9010  returnValue != 1 */\n      eq\n      iszero\n        /* \"@openzeppelin/contracts/token/ERC20/utils/SafeERC20.sol\":8942:9010  returnSize == 0 ? address(token).code.length == 0 : returnValue != 1 */\n      jump(tag_213)\n    tag_212:\n        /* \"@openzeppelin/contracts/token/ERC20/utils/SafeERC20.sol\":8990:8991  0 */\n      0x00\n        /* \"@openzeppelin/contracts/token/ERC20/utils/SafeERC20.sol\":8968:8973  token */\n      dup5\n        /* \"@openzeppelin/contracts/token/ERC20/utils/SafeERC20.sol\":8960:8986  address(token).code.length */\n      0xffffffffffffffffffffffffffffffffffffffff\n      and\n      extcodesize\n        /* \"@openzeppelin/contracts/token/ERC20/utils/SafeERC20.sol\":8960:8991  address(token).code.length == 0 */\n      eq\n        /* \"@openzeppelin/contracts/token/ERC20/utils/SafeERC20.sol\":8942:9010  returnSize == 0 ? address(token).code.length == 0 : returnValue != 1 */\n    tag_213:\n        /* \"@openzeppelin/contracts/token/ERC20/utils/SafeERC20.sol\":8938:9084  if (returnSize == 0 ? address(token).code.length == 0 : returnValue != 1) {... */\n      iszero\n      tag_214\n      jumpi\n        /* \"@openzeppelin/contracts/token/ERC20/utils/SafeERC20.sol\":9066:9071  token */\n      dup4\n        /* \"@openzeppelin/contracts/token/ERC20/utils/SafeERC20.sol\":9033:9073  SafeERC20FailedOperation(address(token)) */\n      mload(0x40)\n      0x5274afe700000000000000000000000000000000000000000000000000000000\n      dup2\n      mstore\n      0x04\n      add\n      tag_215\n      swap2\n      swap1\n      tag_216\n      jump\t// in\n    tag_215:\n      mload(0x40)\n      dup1\n      swap2\n      sub\n      swap1\n      revert\n        /* \"@openzeppelin/contracts/token/ERC20/utils/SafeERC20.sol\":8938:9084  if (returnSize == 0 ? address(token).code.length == 0 : returnValue != 1) {... */\n    tag_214:\n        /* \"@openzeppelin/contracts/token/ERC20/utils/SafeERC20.sol\":8440:9090  {... */\n      pop\n      pop\n        /* \"@openzeppelin/contracts/token/ERC20/utils/SafeERC20.sol\":8370:9090  function _callOptionalReturn(IERC20 token, bytes memory data) private {... */\n      pop\n      pop\n      jump\t// out\n        /* \"#utility.yul\":88:205   */\n    tag_218:\n        /* \"#utility.yul\":197:198   */\n      0x00\n        /* \"#utility.yul\":194:195   */\n      dup1\n        /* \"#utility.yul\":187:199   */\n      revert\n        /* \"#utility.yul\":334:411   */\n    tag_220:\n        /* \"#utility.yul\":371:378   */\n      0x00\n        /* \"#utility.yul\":400:405   */\n      dup2\n        /* \"#utility.yul\":389:405   */\n      swap1\n      pop\n        /* \"#utility.yul\":334:411   */\n      swap2\n      swap1\n      pop\n      jump\t// out\n        /* \"#utility.yul\":417:539   */\n    tag_221:\n        /* \"#utility.yul\":490:514   */\n      tag_263\n        /* \"#utility.yul\":508:513   */\n      dup2\n        /* \"#utility.yul\":490:514   */\n      tag_220\n      jump\t// in\n    tag_263:\n        /* \"#utility.yul\":483:488   */\n      dup2\n        /* \"#utility.yul\":480:515   */\n      eq\n        /* \"#utility.yul\":470:533   */\n      tag_264\n      jumpi\n        /* \"#utility.yul\":529:530   */\n      0x00\n        /* \"#utility.yul\":526:527   */\n      dup1\n        /* \"#utility.yul\":519:531   */\n      revert\n        /* \"#utility.yul\":470:533   */\n    tag_264:\n        /* \"#utility.yul\":417:539   */\n      pop\n      jump\t// out\n        /* \"#utility.yul\":545:684   */\n    tag_222:\n        /* \"#utility.yul\":591:596   */\n      0x00\n        /* \"#utility.yul\":629:635   */\n      dup2\n        /* \"#utility.yul\":616:636   */\n      calldataload\n        /* \"#utility.yul\":607:636   */\n      swap1\n      pop\n        /* \"#utility.yul\":645:678   */\n      tag_266\n        /* \"#utility.yul\":672:677   */\n      dup2\n        /* \"#utility.yul\":645:678   */\n      tag_221\n      jump\t// in\n    tag_266:\n        /* \"#utility.yul\":545:684   */\n      swap3\n      swap2\n      pop\n      pop\n      jump\t// out\n        /* \"#utility.yul\":690:1019   */\n    tag_25:\n        /* \"#utility.yul\":749:755   */\n      0x00\n        /* \"#utility.yul\":798:800   */\n      0x20\n        /* \"#utility.yul\":786:795   */\n      dup3\n        /* \"#utility.yul\":777:784   */\n      dup5\n        /* \"#utility.yul\":773:796   */\n      sub\n        /* \"#utility.yul\":769:801   */\n      slt\n        /* \"#utility.yul\":766:885   */\n      iszero\n      tag_268\n      jumpi\n        /* \"#utility.yul\":804:883   */\n      tag_269\n      tag_218\n      jump\t// in\n    tag_269:\n        /* \"#utility.yul\":766:885   */\n    tag_268:\n        /* \"#utility.yul\":924:925   */\n      0x00\n        /* \"#utility.yul\":949:1002   */\n      tag_270\n        /* \"#utility.yul\":994:1001   */\n      dup5\n        /* \"#utility.yul\":985:991   */\n      dup3\n        /* \"#utility.yul\":974:983   */\n      dup6\n        /* \"#utility.yul\":970:992   */\n      add\n        /* \"#utility.yul\":949:1002   */\n      tag_222\n      jump\t// in\n    tag_270:\n        /* \"#utility.yul\":939:1002   */\n      swap2\n      pop\n        /* \"#utility.yul\":895:1012   */\n      pop\n        /* \"#utility.yul\":690:1019   */\n      swap3\n      swap2\n      pop\n      pop\n      jump\t// out\n        /* \"#utility.yul\":1025:1143   */\n    tag_223:\n        /* \"#utility.yul\":1112:1136   */\n      tag_272\n        /* \"#utility.yul\":1130:1135   */\n      dup2\n        /* \"#utility.yul\":1112:1136   */\n      tag_220\n      jump\t// in\n    tag_272:\n        /* \"#utility.yul\":1107:1110   */\n      dup3\n        /* \"#utility.yul\":1100:1137   */\n      mstore\n        /* \"#utility.yul\":1025:1143   */\n      pop\n      pop\n      jump\t// out\n        /* \"#utility.yul\":1149:1275   */\n    tag_224:\n        /* \"#utility.yul\":1186:1193   */\n      0x00\n        /* \"#utility.yul\":1226:1268   */\n      0xffffffffffffffffffffffffffffffffffffffff\n        /* \"#utility.yul\":1219:1224   */\n      dup3\n        /* \"#utility.yul\":1215:1269   */\n      and\n        /* \"#utility.yul\":1204:1269   */\n      swap1\n      pop\n        /* \"#utility.yul\":1149:1275   */\n      swap2\n      swap1\n      pop\n      jump\t// out\n        /* \"#utility.yul\":1281:1377   */\n    tag_225:\n        /* \"#utility.yul\":1318:1325   */\n      0x00\n        /* \"#utility.yul\":1347:1371   */\n      tag_275\n        /* \"#utility.yul\":1365:1370   */\n      dup3\n        /* \"#utility.yul\":1347:1371   */\n      tag_224\n      jump\t// in\n    tag_275:\n        /* \"#utility.yul\":1336:1371   */\n      swap1\n      pop\n        /* \"#utility.yul\":1281:1377   */\n      swap2\n      swap1\n      pop\n      jump\t// out\n        /* \"#utility.yul\":1383:1501   */\n    tag_226:\n        /* \"#utility.yul\":1470:1494   */\n      tag_277\n        /* \"#utility.yul\":1488:1493   */\n      dup2\n        /* \"#utility.yul\":1470:1494   */\n      tag_225\n      jump\t// in\n    tag_277:\n        /* \"#utility.yul\":1465:1468   */\n      dup3\n        /* \"#utility.yul\":1458:1495   */\n      mstore\n        /* \"#utility.yul\":1383:1501   */\n      pop\n      pop\n      jump\t// out\n        /* \"#utility.yul\":1507:1687   */\n    tag_99:\n        /* \"#utility.yul\":1555:1632   */\n      0x4e487b7100000000000000000000000000000000000000000000000000000000\n        /* \"#utility.yul\":1552:1553   */\n      0x00\n        /* \"#utility.yul\":1545:1633   */\n      mstore\n        /* \"#utility.yul\":1652:1656   */\n      0x21\n        /* \"#utility.yul\":1649:1650   */\n      0x04\n        /* \"#utility.yul\":1642:1657   */\n      mstore\n        /* \"#utility.yul\":1676:1680   */\n      0x24\n        /* \"#utility.yul\":1673:1674   */\n      0x00\n        /* \"#utility.yul\":1666:1681   */\n      revert\n        /* \"#utility.yul\":1693:1809   */\n    tag_227:\n        /* \"#utility.yul\":1777:1778   */\n      0x04\n        /* \"#utility.yul\":1770:1775   */\n      dup2\n        /* \"#utility.yul\":1767:1779   */\n      lt\n        /* \"#utility.yul\":1757:1803   */\n      tag_280\n      jumpi\n        /* \"#utility.yul\":1783:1801   */\n      tag_281\n      tag_99\n      jump\t// in\n    tag_281:\n        /* \"#utility.yul\":1757:1803   */\n    tag_280:\n        /* \"#utility.yul\":1693:1809   */\n      pop\n      jump\t// out\n        /* \"#utility.yul\":1815:1948   */\n    tag_228:\n        /* \"#utility.yul\":1863:1870   */\n      0x00\n        /* \"#utility.yul\":1892:1897   */\n      dup2\n        /* \"#utility.yul\":1881:1897   */\n      swap1\n      pop\n        /* \"#utility.yul\":1898:1942   */\n      tag_283\n        /* \"#utility.yul\":1936:1941   */\n      dup3\n        /* \"#utility.yul\":1898:1942   */\n      tag_227\n      jump\t// in\n    tag_283:\n        /* \"#utility.yul\":1815:1948   */\n      swap2\n      swap1\n      pop\n      jump\t// out\n        /* \"#utility.yul\":1954:2087   */\n    tag_229:\n        /* \"#utility.yul\":2013:2022   */\n      0x00\n        /* \"#utility.yul\":2046:2081   */\n      tag_285\n        /* \"#utility.yul\":2075:2080   */\n      dup3\n        /* \"#utility.yul\":2046:2081   */\n      tag_228\n      jump\t// in\n    tag_285:\n        /* \"#utility.yul\":2033:2081   */\n      swap1\n      pop\n        /* \"#utility.yul\":1954:2087   */\n      swap2\n      swap1\n      pop\n      jump\t// out\n        /* \"#utility.yul\":2093:2242   */\n    tag_230:\n        /* \"#utility.yul\":2189:2235   */\n      tag_287\n        /* \"#utility.yul\":2229:2234   */\n      dup2\n        /* \"#utility.yul\":2189:2235   */\n      tag_229\n      jump\t// in\n    tag_287:\n        /* \"#utility.yul\":2184:2187   */\n      dup3\n        /* \"#utility.yul\":2177:2236   */\n      mstore\n        /* \"#utility.yul\":2093:2242   */\n      pop\n      pop\n      jump\t// out\n        /* \"#utility.yul\":2248:3152   */\n    tag_28:\n        /* \"#utility.yul\":2518:2522   */\n      0x00\n        /* \"#utility.yul\":2556:2559   */\n      0xe0\n        /* \"#utility.yul\":2545:2554   */\n      dup3\n        /* \"#utility.yul\":2541:2560   */\n      add\n        /* \"#utility.yul\":2533:2560   */\n      swap1\n      pop\n        /* \"#utility.yul\":2570:2641   */\n      tag_289\n        /* \"#utility.yul\":2638:2639   */\n      0x00\n        /* \"#utility.yul\":2627:2636   */\n      dup4\n        /* \"#utility.yul\":2623:2640   */\n      add\n        /* \"#utility.yul\":2614:2620   */\n      dup11\n        /* \"#utility.yul\":2570:2641   */\n      tag_223\n      jump\t// in\n    tag_289:\n        /* \"#utility.yul\":2651:2723   */\n      tag_290\n        /* \"#utility.yul\":2719:2721   */\n      0x20\n        /* \"#utility.yul\":2708:2717   */\n      dup4\n        /* \"#utility.yul\":2704:2722   */\n      add\n        /* \"#utility.yul\":2695:2701   */\n      dup10\n        /* \"#utility.yul\":2651:2723   */\n      tag_226\n      jump\t// in\n    tag_290:\n        /* \"#utility.yul\":2733:2805   */\n      tag_291\n        /* \"#utility.yul\":2801:2803   */\n      0x40\n        /* \"#utility.yul\":2790:2799   */\n      dup4\n        /* \"#utility.yul\":2786:2804   */\n      add\n        /* \"#utility.yul\":2777:2783   */\n      dup9\n        /* \"#utility.yul\":2733:2805   */\n      tag_223\n      jump\t// in\n    tag_291:\n        /* \"#utility.yul\":2815:2887   */\n      tag_292\n        /* \"#utility.yul\":2883:2885   */\n      0x60\n        /* \"#utility.yul\":2872:2881   */\n      dup4\n        /* \"#utility.yul\":2868:2886   */\n      add\n        /* \"#utility.yul\":2859:2865   */\n      dup8\n        /* \"#utility.yul\":2815:2887   */\n      tag_223\n      jump\t// in\n    tag_292:\n        /* \"#utility.yul\":2897:2970   */\n      tag_293\n        /* \"#utility.yul\":2965:2968   */\n      0x80\n        /* \"#utility.yul\":2954:2963   */\n      dup4\n        /* \"#utility.yul\":2950:2969   */\n      add\n        /* \"#utility.yul\":2941:2947   */\n      dup7\n        /* \"#utility.yul\":2897:2970   */\n      tag_226\n      jump\t// in\n    tag_293:\n        /* \"#utility.yul\":2980:3053   */\n      tag_294\n        /* \"#utility.yul\":3048:3051   */\n      0xa0\n        /* \"#utility.yul\":3037:3046   */\n      dup4\n        /* \"#utility.yul\":3033:3052   */\n      add\n        /* \"#utility.yul\":3024:3030   */\n      dup6\n        /* \"#utility.yul\":2980:3053   */\n      tag_223\n      jump\t// in\n    tag_294:\n        /* \"#utility.yul\":3063:3145   */\n      tag_295\n        /* \"#utility.yul\":3140:3143   */\n      0xc0\n        /* \"#utility.yul\":3129:3138   */\n      dup4\n        /* \"#utility.yul\":3125:3144   */\n      add\n        /* \"#utility.yul\":3116:3122   */\n      dup5\n        /* \"#utility.yul\":3063:3145   */\n      tag_230\n      jump\t// in\n    tag_295:\n        /* \"#utility.yul\":2248:3152   */\n      swap9\n      swap8\n      pop\n      pop\n      pop\n      pop\n      pop\n      pop\n      pop\n      pop\n      jump\t// out\n        /* \"#utility.yul\":3158:3307   */\n    tag_231:\n        /* \"#utility.yul\":3194:3201   */\n      0x00\n        /* \"#utility.yul\":3234:3300   */\n      0xffffffff00000000000000000000000000000000000000000000000000000000\n        /* \"#utility.yul\":3227:3232   */\n      dup3\n        /* \"#utility.yul\":3223:3301   */\n      and\n        /* \"#utility.yul\":3212:3301   */\n      swap1\n      pop\n        /* \"#utility.yul\":3158:3307   */\n      swap2\n      swap1\n      pop\n      jump\t// out\n        /* \"#utility.yul\":3313:3433   */\n    tag_232:\n        /* \"#utility.yul\":3385:3408   */\n      tag_298\n        /* \"#utility.yul\":3402:3407   */\n      dup2\n        /* \"#utility.yul\":3385:3408   */\n      tag_231\n      jump\t// in\n    tag_298:\n        /* \"#utility.yul\":3378:3383   */\n      dup2\n        /* \"#utility.yul\":3375:3409   */\n      eq\n        /* \"#utility.yul\":3365:3427   */\n      tag_299\n      jumpi\n        /* \"#utility.yul\":3423:3424   */\n      0x00\n        /* \"#utility.yul\":3420:3421   */\n      dup1\n        /* \"#utility.yul\":3413:3425   */\n      revert\n        /* \"#utility.yul\":3365:3427   */\n    tag_299:\n        /* \"#utility.yul\":3313:3433   */\n      pop\n      jump\t// out\n        /* \"#utility.yul\":3439:3576   */\n    tag_233:\n        /* \"#utility.yul\":3484:3489   */\n      0x00\n        /* \"#utility.yul\":3522:3528   */\n      dup2\n        /* \"#utility.yul\":3509:3529   */\n      calldataload\n        /* \"#utility.yul\":3500:3529   */\n      swap1\n      pop\n        /* \"#utility.yul\":3538:3570   */\n      tag_301\n        /* \"#utility.yul\":3564:3569   */\n      dup2\n        /* \"#utility.yul\":3538:3570   */\n      tag_232\n      jump\t// in\n    tag_301:\n        /* \"#utility.yul\":3439:3576   */\n      swap3\n      swap2\n      pop\n      pop\n      jump\t// out\n        /* \"#utility.yul\":3582:3909   */\n    tag_31:\n        /* \"#utility.yul\":3640:3646   */\n      0x00\n        /* \"#utility.yul\":3689:3691   */\n      0x20\n        /* \"#utility.yul\":3677:3686   */\n      dup3\n        /* \"#utility.yul\":3668:3675   */\n      dup5\n        /* \"#utility.yul\":3664:3687   */\n      sub\n        /* \"#utility.yul\":3660:3692   */\n      slt\n        /* \"#utility.yul\":3657:3776   */\n      iszero\n      tag_303\n      jumpi\n        /* \"#utility.yul\":3695:3774   */\n      tag_304\n      tag_218\n      jump\t// in\n    tag_304:\n        /* \"#utility.yul\":3657:3776   */\n    tag_303:\n        /* \"#utility.yul\":3815:3816   */\n      0x00\n        /* \"#utility.yul\":3840:3892   */\n      tag_305\n        /* \"#utility.yul\":3884:3891   */\n      dup5\n        /* \"#utility.yul\":3875:3881   */\n      dup3\n        /* \"#utility.yul\":3864:3873   */\n      dup6\n        /* \"#utility.yul\":3860:3882   */\n      add\n        /* \"#utility.yul\":3840:3892   */\n      tag_233\n      jump\t// in\n    tag_305:\n        /* \"#utility.yul\":3830:3892   */\n      swap2\n      pop\n        /* \"#utility.yul\":3786:3902   */\n      pop\n        /* \"#utility.yul\":3582:3909   */\n      swap3\n      swap2\n      pop\n      pop\n      jump\t// out\n        /* \"#utility.yul\":3915:4005   */\n    tag_234:\n        /* \"#utility.yul\":3949:3956   */\n      0x00\n        /* \"#utility.yul\":3992:3997   */\n      dup2\n        /* \"#utility.yul\":3985:3998   */\n      iszero\n        /* \"#utility.yul\":3978:3999   */\n      iszero\n        /* \"#utility.yul\":3967:3999   */\n      swap1\n      pop\n        /* \"#utility.yul\":3915:4005   */\n      swap2\n      swap1\n      pop\n      jump\t// out\n        /* \"#utility.yul\":4011:4120   */\n    tag_235:\n        /* \"#utility.yul\":4092:4113   */\n      tag_308\n        /* \"#utility.yul\":4107:4112   */\n      dup2\n        /* \"#utility.yul\":4092:4113   */\n      tag_234\n      jump\t// in\n    tag_308:\n        /* \"#utility.yul\":4087:4090   */\n      dup3\n        /* \"#utility.yul\":4080:4114   */\n      mstore\n        /* \"#utility.yul\":4011:4120   */\n      pop\n      pop\n      jump\t// out\n        /* \"#utility.yul\":4126:4336   */\n    tag_34:\n        /* \"#utility.yul\":4213:4217   */\n      0x00\n        /* \"#utility.yul\":4251:4253   */\n      0x20\n        /* \"#utility.yul\":4240:4249   */\n      dup3\n        /* \"#utility.yul\":4236:4254   */\n      add\n        /* \"#utility.yul\":4228:4254   */\n      swap1\n      pop\n        /* \"#utility.yul\":4264:4329   */\n      tag_310\n        /* \"#utility.yul\":4326:4327   */\n      0x00\n        /* \"#utility.yul\":4315:4324   */\n      dup4\n        /* \"#utility.yul\":4311:4328   */\n      add\n        /* \"#utility.yul\":4302:4308   */\n      dup5\n        /* \"#utility.yul\":4264:4329   */\n      tag_235\n      jump\t// in\n    tag_310:\n        /* \"#utility.yul\":4126:4336   */\n      swap3\n      swap2\n      pop\n      pop\n      jump\t// out\n        /* \"#utility.yul\":4342:4419   */\n    tag_236:\n        /* \"#utility.yul\":4379:4386   */\n      0x00\n        /* \"#utility.yul\":4408:4413   */\n      dup2\n        /* \"#utility.yul\":4397:4413   */\n      swap1\n      pop\n        /* \"#utility.yul\":4342:4419   */\n      swap2\n      swap1\n      pop\n      jump\t// out\n        /* \"#utility.yul\":4425:4547   */\n    tag_237:\n        /* \"#utility.yul\":4498:4522   */\n      tag_313\n        /* \"#utility.yul\":4516:4521   */\n      dup2\n        /* \"#utility.yul\":4498:4522   */\n      tag_236\n      jump\t// in\n    tag_313:\n        /* \"#utility.yul\":4491:4496   */\n      dup2\n        /* \"#utility.yul\":4488:4523   */\n      eq\n        /* \"#utility.yul\":4478:4541   */\n      tag_314\n      jumpi\n        /* \"#utility.yul\":4537:4538   */\n      0x00\n        /* \"#utility.yul\":4534:4535   */\n      dup1\n        /* \"#utility.yul\":4527:4539   */\n      revert\n        /* \"#utility.yul\":4478:4541   */\n    tag_314:\n        /* \"#utility.yul\":4425:4547   */\n      pop\n      jump\t// out\n        /* \"#utility.yul\":4553:4692   */\n    tag_238:\n        /* \"#utility.yul\":4599:4604   */\n      0x00\n        /* \"#utility.yul\":4637:4643   */\n      dup2\n        /* \"#utility.yul\":4624:4644   */\n      calldataload\n        /* \"#utility.yul\":4615:4644   */\n      swap1\n      pop\n        /* \"#utility.yul\":4653:4686   */\n      tag_316\n        /* \"#utility.yul\":4680:4685   */\n      dup2\n        /* \"#utility.yul\":4653:4686   */\n      tag_237\n      jump\t// in\n    tag_316:\n        /* \"#utility.yul\":4553:4692   */\n      swap3\n      swap2\n      pop\n      pop\n      jump\t// out\n        /* \"#utility.yul\":4698:5027   */\n    tag_37:\n        /* \"#utility.yul\":4757:4763   */\n      0x00\n        /* \"#utility.yul\":4806:4808   */\n      0x20\n        /* \"#utility.yul\":4794:4803   */\n      dup3\n        /* \"#utility.yul\":4785:4792   */\n      dup5\n        /* \"#utility.yul\":4781:4804   */\n      sub\n        /* \"#utility.yul\":4777:4809   */\n      slt\n        /* \"#utility.yul\":4774:4893   */\n      iszero\n      tag_318\n      jumpi\n        /* \"#utility.yul\":4812:4891   */\n      tag_319\n      tag_218\n      jump\t// in\n    tag_319:\n        /* \"#utility.yul\":4774:4893   */\n    tag_318:\n        /* \"#utility.yul\":4932:4933   */\n      0x00\n        /* \"#utility.yul\":4957:5010   */\n      tag_320\n        /* \"#utility.yul\":5002:5009   */\n      dup5\n        /* \"#utility.yul\":4993:4999   */\n      dup3\n        /* \"#utility.yul\":4982:4991   */\n      dup6\n        /* \"#utility.yul\":4978:5000   */\n      add\n        /* \"#utility.yul\":4957:5010   */\n      tag_238\n      jump\t// in\n    tag_320:\n        /* \"#utility.yul\":4947:5010   */\n      swap2\n      pop\n        /* \"#utility.yul\":4903:5020   */\n      pop\n        /* \"#utility.yul\":4698:5027   */\n      swap3\n      swap2\n      pop\n      pop\n      jump\t// out\n        /* \"#utility.yul\":5033:5151   */\n    tag_239:\n        /* \"#utility.yul\":5120:5144   */\n      tag_322\n        /* \"#utility.yul\":5138:5143   */\n      dup2\n        /* \"#utility.yul\":5120:5144   */\n      tag_236\n      jump\t// in\n    tag_322:\n        /* \"#utility.yul\":5115:5118   */\n      dup3\n        /* \"#utility.yul\":5108:5145   */\n      mstore\n        /* \"#utility.yul\":5033:5151   */\n      pop\n      pop\n      jump\t// out\n        /* \"#utility.yul\":5157:5379   */\n    tag_40:\n        /* \"#utility.yul\":5250:5254   */\n      0x00\n        /* \"#utility.yul\":5288:5290   */\n      0x20\n        /* \"#utility.yul\":5277:5286   */\n      dup3\n        /* \"#utility.yul\":5273:5291   */\n      add\n        /* \"#utility.yul\":5265:5291   */\n      swap1\n      pop\n        /* \"#utility.yul\":5301:5372   */\n      tag_324\n        /* \"#utility.yul\":5369:5370   */\n      0x00\n        /* \"#utility.yul\":5358:5367   */\n      dup4\n        /* \"#utility.yul\":5354:5371   */\n      add\n        /* \"#utility.yul\":5345:5351   */\n      dup5\n        /* \"#utility.yul\":5301:5372   */\n      tag_239\n      jump\t// in\n    tag_324:\n        /* \"#utility.yul\":5157:5379   */\n      swap3\n      swap2\n      pop\n      pop\n      jump\t// out\n        /* \"#utility.yul\":5385:5507   */\n    tag_240:\n        /* \"#utility.yul\":5458:5482   */\n      tag_326\n        /* \"#utility.yul\":5476:5481   */\n      dup2\n        /* \"#utility.yul\":5458:5482   */\n      tag_225\n      jump\t// in\n    tag_326:\n        /* \"#utility.yul\":5451:5456   */\n      dup2\n        /* \"#utility.yul\":5448:5483   */\n      eq\n        /* \"#utility.yul\":5438:5501   */\n      tag_327\n      jumpi\n        /* \"#utility.yul\":5497:5498   */\n      0x00\n        /* \"#utility.yul\":5494:5495   */\n      dup1\n        /* \"#utility.yul\":5487:5499   */\n      revert\n        /* \"#utility.yul\":5438:5501   */\n    tag_327:\n        /* \"#utility.yul\":5385:5507   */\n      pop\n      jump\t// out\n        /* \"#utility.yul\":5513:5652   */\n    tag_241:\n        /* \"#utility.yul\":5559:5564   */\n      0x00\n        /* \"#utility.yul\":5597:5603   */\n      dup2\n        /* \"#utility.yul\":5584:5604   */\n      calldataload\n        /* \"#utility.yul\":5575:5604   */\n      swap1\n      pop\n        /* \"#utility.yul\":5613:5646   */\n      tag_329\n        /* \"#utility.yul\":5640:5645   */\n      dup2\n        /* \"#utility.yul\":5613:5646   */\n      tag_240\n      jump\t// in\n    tag_329:\n        /* \"#utility.yul\":5513:5652   */\n      swap3\n      swap2\n      pop\n      pop\n      jump\t// out\n        /* \"#utility.yul\":5658:6132   */\n    tag_46:\n        /* \"#utility.yul\":5726:5732   */\n      0x00\n        /* \"#utility.yul\":5734:5740   */\n      dup1\n        /* \"#utility.yul\":5783:5785   */\n      0x40\n        /* \"#utility.yul\":5771:5780   */\n      dup4\n        /* \"#utility.yul\":5762:5769   */\n      dup6\n        /* \"#utility.yul\":5758:5781   */\n      sub\n        /* \"#utility.yul\":5754:5786   */\n      slt\n        /* \"#utility.yul\":5751:5870   */\n      iszero\n      tag_331\n      jumpi\n        /* \"#utility.yul\":5789:5868   */\n      tag_332\n      tag_218\n      jump\t// in\n    tag_332:\n        /* \"#utility.yul\":5751:5870   */\n    tag_331:\n        /* \"#utility.yul\":5909:5910   */\n      0x00\n        /* \"#utility.yul\":5934:5987   */\n      tag_333\n        /* \"#utility.yul\":5979:5986   */\n      dup6\n        /* \"#utility.yul\":5970:5976   */\n      dup3\n        /* \"#utility.yul\":5959:5968   */\n      dup7\n        /* \"#utility.yul\":5955:5977   */\n      add\n        /* \"#utility.yul\":5934:5987   */\n      tag_238\n      jump\t// in\n    tag_333:\n        /* \"#utility.yul\":5924:5987   */\n      swap3\n      pop\n        /* \"#utility.yul\":5880:5997   */\n      pop\n        /* \"#utility.yul\":6036:6038   */\n      0x20\n        /* \"#utility.yul\":6062:6115   */\n      tag_334\n        /* \"#utility.yul\":6107:6114   */\n      dup6\n        /* \"#utility.yul\":6098:6104   */\n      dup3\n        /* \"#utility.yul\":6087:6096   */\n      dup7\n        /* \"#utility.yul\":6083:6105   */\n      add\n        /* \"#utility.yul\":6062:6115   */\n      tag_241\n      jump\t// in\n    tag_334:\n        /* \"#utility.yul\":6052:6115   */\n      swap2\n      pop\n        /* \"#utility.yul\":6007:6125   */\n      pop\n        /* \"#utility.yul\":5658:6132   */\n      swap3\n      pop\n      swap3\n      swap1\n      pop\n      jump\t// out\n        /* \"#utility.yul\":6138:6254   */\n    tag_242:\n        /* \"#utility.yul\":6208:6229   */\n      tag_336\n        /* \"#utility.yul\":6223:6228   */\n      dup2\n        /* \"#utility.yul\":6208:6229   */\n      tag_234\n      jump\t// in\n    tag_336:\n        /* \"#utility.yul\":6201:6206   */\n      dup2\n        /* \"#utility.yul\":6198:6230   */\n      eq\n        /* \"#utility.yul\":6188:6248   */\n      tag_337\n      jumpi\n        /* \"#utility.yul\":6244:6245   */\n      0x00\n        /* \"#utility.yul\":6241:6242   */\n      dup1\n        /* \"#utility.yul\":6234:6246   */\n      revert\n        /* \"#utility.yul\":6188:6248   */\n    tag_337:\n        /* \"#utility.yul\":6138:6254   */\n      pop\n      jump\t// out\n        /* \"#utility.yul\":6260:6393   */\n    tag_243:\n        /* \"#utility.yul\":6303:6308   */\n      0x00\n        /* \"#utility.yul\":6341:6347   */\n      dup2\n        /* \"#utility.yul\":6328:6348   */\n      calldataload\n        /* \"#utility.yul\":6319:6348   */\n      swap1\n      pop\n        /* \"#utility.yul\":6357:6387   */\n      tag_339\n        /* \"#utility.yul\":6381:6386   */\n      dup2\n        /* \"#utility.yul\":6357:6387   */\n      tag_242\n      jump\t// in\n    tag_339:\n        /* \"#utility.yul\":6260:6393   */\n      swap3\n      swap2\n      pop\n      pop\n      jump\t// out\n        /* \"#utility.yul\":6399:6867   */\n    tag_50:\n        /* \"#utility.yul\":6464:6470   */\n      0x00\n        /* \"#utility.yul\":6472:6478   */\n      dup1\n        /* \"#utility.yul\":6521:6523   */\n      0x40\n        /* \"#utility.yul\":6509:6518   */\n      dup4\n        /* \"#utility.yul\":6500:6507   */\n      dup6\n        /* \"#utility.yul\":6496:6519   */\n      sub\n        /* \"#utility.yul\":6492:6524   */\n      slt\n        /* \"#utility.yul\":6489:6608   */\n      iszero\n      tag_341\n      jumpi\n        /* \"#utility.yul\":6527:6606   */\n      tag_342\n      tag_218\n      jump\t// in\n    tag_342:\n        /* \"#utility.yul\":6489:6608   */\n    tag_341:\n        /* \"#utility.yul\":6647:6648   */\n      0x00\n        /* \"#utility.yul\":6672:6725   */\n      tag_343\n        /* \"#utility.yul\":6717:6724   */\n      dup6\n        /* \"#utility.yul\":6708:6714   */\n      dup3\n        /* \"#utility.yul\":6697:6706   */\n      dup7\n        /* \"#utility.yul\":6693:6715   */\n      add\n        /* \"#utility.yul\":6672:6725   */\n      tag_222\n      jump\t// in\n    tag_343:\n        /* \"#utility.yul\":6662:6725   */\n      swap3\n      pop\n        /* \"#utility.yul\":6618:6735   */\n      pop\n        /* \"#utility.yul\":6774:6776   */\n      0x20\n        /* \"#utility.yul\":6800:6850   */\n      tag_344\n        /* \"#utility.yul\":6842:6849   */\n      dup6\n        /* \"#utility.yul\":6833:6839   */\n      dup3\n        /* \"#utility.yul\":6822:6831   */\n      dup7\n        /* \"#utility.yul\":6818:6840   */\n      add\n        /* \"#utility.yul\":6800:6850   */\n      tag_243\n      jump\t// in\n    tag_344:\n        /* \"#utility.yul\":6790:6850   */\n      swap2\n      pop\n        /* \"#utility.yul\":6745:6860   */\n      pop\n        /* \"#utility.yul\":6399:6867   */\n      swap3\n      pop\n      swap3\n      swap1\n      pop\n      jump\t// out\n        /* \"#utility.yul\":6873:6933   */\n    tag_244:\n        /* \"#utility.yul\":6901:6904   */\n      0x00\n        /* \"#utility.yul\":6922:6927   */\n      dup2\n        /* \"#utility.yul\":6915:6927   */\n      swap1\n      pop\n        /* \"#utility.yul\":6873:6933   */\n      swap2\n      swap1\n      pop\n      jump\t// out\n        /* \"#utility.yul\":6939:7081   */\n    tag_245:\n        /* \"#utility.yul\":6989:6998   */\n      0x00\n        /* \"#utility.yul\":7022:7075   */\n      tag_347\n        /* \"#utility.yul\":7040:7074   */\n      tag_348\n        /* \"#utility.yul\":7049:7073   */\n      tag_349\n        /* \"#utility.yul\":7067:7072   */\n      dup5\n        /* \"#utility.yul\":7049:7073   */\n      tag_224\n      jump\t// in\n    tag_349:\n        /* \"#utility.yul\":7040:7074   */\n      tag_244\n      jump\t// in\n    tag_348:\n        /* \"#utility.yul\":7022:7075   */\n      tag_224\n      jump\t// in\n    tag_347:\n        /* \"#utility.yul\":7009:7075   */\n      swap1\n      pop\n        /* \"#utility.yul\":6939:7081   */\n      swap2\n      swap1\n      pop\n      jump\t// out\n        /* \"#utility.yul\":7087:7213   */\n    tag_246:\n        /* \"#utility.yul\":7137:7146   */\n      0x00\n        /* \"#utility.yul\":7170:7207   */\n      tag_351\n        /* \"#utility.yul\":7201:7206   */\n      dup3\n        /* \"#utility.yul\":7170:7207   */\n      tag_245\n      jump\t// in\n    tag_351:\n        /* \"#utility.yul\":7157:7207   */\n      swap1\n      pop\n        /* \"#utility.yul\":7087:7213   */\n      swap2\n      swap1\n      pop\n      jump\t// out\n        /* \"#utility.yul\":7219:7359   */\n    tag_247:\n        /* \"#utility.yul\":7283:7292   */\n      0x00\n        /* \"#utility.yul\":7316:7353   */\n      tag_353\n        /* \"#utility.yul\":7347:7352   */\n      dup3\n        /* \"#utility.yul\":7316:7353   */\n      tag_246\n      jump\t// in\n    tag_353:\n        /* \"#utility.yul\":7303:7353   */\n      swap1\n      pop\n        /* \"#utility.yul\":7219:7359   */\n      swap2\n      swap1\n      pop\n      jump\t// out\n        /* \"#utility.yul\":7365:7524   */\n    tag_248:\n        /* \"#utility.yul\":7466:7517   */\n      tag_355\n        /* \"#utility.yul\":7511:7516   */\n      dup2\n        /* \"#utility.yul\":7466:7517   */\n      tag_247\n      jump\t// in\n    tag_355:\n        /* \"#utility.yul\":7461:7464   */\n      dup3\n        /* \"#utility.yul\":7454:7518   */\n      mstore\n        /* \"#utility.yul\":7365:7524   */\n      pop\n      pop\n      jump\t// out\n        /* \"#utility.yul\":7530:7780   */\n    tag_61:\n        /* \"#utility.yul\":7637:7641   */\n      0x00\n        /* \"#utility.yul\":7675:7677   */\n      0x20\n        /* \"#utility.yul\":7664:7673   */\n      dup3\n        /* \"#utility.yul\":7660:7678   */\n      add\n        /* \"#utility.yul\":7652:7678   */\n      swap1\n      pop\n        /* \"#utility.yul\":7688:7773   */\n      tag_357\n        /* \"#utility.yul\":7770:7771   */\n      0x00\n        /* \"#utility.yul\":7759:7768   */\n      dup4\n        /* \"#utility.yul\":7755:7772   */\n      add\n        /* \"#utility.yul\":7746:7752   */\n      dup5\n        /* \"#utility.yul\":7688:7773   */\n      tag_248\n      jump\t// in\n    tag_357:\n        /* \"#utility.yul\":7530:7780   */\n      swap3\n      swap2\n      pop\n      pop\n      jump\t// out\n        /* \"#utility.yul\":7786:7933   */\n    tag_249:\n        /* \"#utility.yul\":7857:7866   */\n      0x00\n        /* \"#utility.yul\":7890:7927   */\n      tag_359\n        /* \"#utility.yul\":7921:7926   */\n      dup3\n        /* \"#utility.yul\":7890:7927   */\n      tag_246\n      jump\t// in\n    tag_359:\n        /* \"#utility.yul\":7877:7927   */\n      swap1\n      pop\n        /* \"#utility.yul\":7786:7933   */\n      swap2\n      swap1\n      pop\n      jump\t// out\n        /* \"#utility.yul\":7939:8112   */\n    tag_250:\n        /* \"#utility.yul\":8047:8105   */\n      tag_361\n        /* \"#utility.yul\":8099:8104   */\n      dup2\n        /* \"#utility.yul\":8047:8105   */\n      tag_249\n      jump\t// in\n    tag_361:\n        /* \"#utility.yul\":8042:8045   */\n      dup3\n        /* \"#utility.yul\":8035:8106   */\n      mstore\n        /* \"#utility.yul\":7939:8112   */\n      pop\n      pop\n      jump\t// out\n        /* \"#utility.yul\":8118:8382   */\n    tag_68:\n        /* \"#utility.yul\":8232:8236   */\n      0x00\n        /* \"#utility.yul\":8270:8272   */\n      0x20\n        /* \"#utility.yul\":8259:8268   */\n      dup3\n        /* \"#utility.yul\":8255:8273   */\n      add\n        /* \"#utility.yul\":8247:8273   */\n      swap1\n      pop\n        /* \"#utility.yul\":8283:8375   */\n      tag_363\n        /* \"#utility.yul\":8372:8373   */\n      0x00\n        /* \"#utility.yul\":8361:8370   */\n      dup4\n        /* \"#utility.yul\":8357:8374   */\n      add\n        /* \"#utility.yul\":8348:8354   */\n      dup5\n        /* \"#utility.yul\":8283:8375   */\n      tag_250\n      jump\t// in\n    tag_363:\n        /* \"#utility.yul\":8118:8382   */\n      swap3\n      swap2\n      pop\n      pop\n      jump\t// out\n        /* \"#utility.yul\":8388:9153   */\n    tag_81:\n        /* \"#utility.yul\":8474:8480   */\n      0x00\n        /* \"#utility.yul\":8482:8488   */\n      dup1\n        /* \"#utility.yul\":8490:8496   */\n      0x00\n        /* \"#utility.yul\":8498:8504   */\n      dup1\n        /* \"#utility.yul\":8547:8550   */\n      0x80\n        /* \"#utility.yul\":8535:8544   */\n      dup6\n        /* \"#utility.yul\":8526:8533   */\n      dup8\n        /* \"#utility.yul\":8522:8545   */\n      sub\n        /* \"#utility.yul\":8518:8551   */\n      slt\n        /* \"#utility.yul\":8515:8635   */\n      iszero\n      tag_365\n      jumpi\n        /* \"#utility.yul\":8554:8633   */\n      tag_366\n      tag_218\n      jump\t// in\n    tag_366:\n        /* \"#utility.yul\":8515:8635   */\n    tag_365:\n        /* \"#utility.yul\":8674:8675   */\n      0x00\n        /* \"#utility.yul\":8699:8752   */\n      tag_367\n        /* \"#utility.yul\":8744:8751   */\n      dup8\n        /* \"#utility.yul\":8735:8741   */\n      dup3\n        /* \"#utility.yul\":8724:8733   */\n      dup9\n        /* \"#utility.yul\":8720:8742   */\n      add\n        /* \"#utility.yul\":8699:8752   */\n      tag_222\n      jump\t// in\n    tag_367:\n        /* \"#utility.yul\":8689:8752   */\n      swap5\n      pop\n        /* \"#utility.yul\":8645:8762   */\n      pop\n        /* \"#utility.yul\":8801:8803   */\n      0x20\n        /* \"#utility.yul\":8827:8880   */\n      tag_368\n        /* \"#utility.yul\":8872:8879   */\n      dup8\n        /* \"#utility.yul\":8863:8869   */\n      dup3\n        /* \"#utility.yul\":8852:8861   */\n      dup9\n        /* \"#utility.yul\":8848:8870   */\n      add\n        /* \"#utility.yul\":8827:8880   */\n      tag_241\n      jump\t// in\n    tag_368:\n        /* \"#utility.yul\":8817:8880   */\n      swap4\n      pop\n        /* \"#utility.yul\":8772:8890   */\n      pop\n        /* \"#utility.yul\":8929:8931   */\n      0x40\n        /* \"#utility.yul\":8955:9008   */\n      tag_369\n        /* \"#utility.yul\":9000:9007   */\n      dup8\n        /* \"#utility.yul\":8991:8997   */\n      dup3\n        /* \"#utility.yul\":8980:8989   */\n      dup9\n        /* \"#utility.yul\":8976:8998   */\n      add\n        /* \"#utility.yul\":8955:9008   */\n      tag_222\n      jump\t// in\n    tag_369:\n        /* \"#utility.yul\":8945:9008   */\n      swap3\n      pop\n        /* \"#utility.yul\":8900:9018   */\n      pop\n        /* \"#utility.yul\":9057:9059   */\n      0x60\n        /* \"#utility.yul\":9083:9136   */\n      tag_370\n        /* \"#utility.yul\":9128:9135   */\n      dup8\n        /* \"#utility.yul\":9119:9125   */\n      dup3\n        /* \"#utility.yul\":9108:9117   */\n      dup9\n        /* \"#utility.yul\":9104:9126   */\n      add\n        /* \"#utility.yul\":9083:9136   */\n      tag_241\n      jump\t// in\n    tag_370:\n        /* \"#utility.yul\":9073:9136   */\n      swap2\n      pop\n        /* \"#utility.yul\":9028:9146   */\n      pop\n        /* \"#utility.yul\":8388:9153   */\n      swap3\n      swap6\n      swap2\n      swap5\n      pop\n      swap3\n      pop\n      jump\t// out\n        /* \"#utility.yul\":9159:9381   */\n    tag_89:\n        /* \"#utility.yul\":9252:9256   */\n      0x00\n        /* \"#utility.yul\":9290:9292   */\n      0x20\n        /* \"#utility.yul\":9279:9288   */\n      dup3\n        /* \"#utility.yul\":9275:9293   */\n      add\n        /* \"#utility.yul\":9267:9293   */\n      swap1\n      pop\n        /* \"#utility.yul\":9303:9374   */\n      tag_372\n        /* \"#utility.yul\":9371:9372   */\n      0x00\n        /* \"#utility.yul\":9360:9369   */\n      dup4\n        /* \"#utility.yul\":9356:9373   */\n      add\n        /* \"#utility.yul\":9347:9353   */\n      dup5\n        /* \"#utility.yul\":9303:9374   */\n      tag_223\n      jump\t// in\n    tag_372:\n        /* \"#utility.yul\":9159:9381   */\n      swap3\n      swap2\n      pop\n      pop\n      jump\t// out\n        /* \"#utility.yul\":9387:9567   */\n    tag_251:\n        /* \"#utility.yul\":9435:9512   */\n      0x4e487b7100000000000000000000000000000000000000000000000000000000\n        /* \"#utility.yul\":9432:9433   */\n      0x00\n        /* \"#utility.yul\":9425:9513   */\n      mstore\n        /* \"#utility.yul\":9532:9536   */\n      0x11\n        /* \"#utility.yul\":9529:9530   */\n      0x04\n        /* \"#utility.yul\":9522:9537   */\n      mstore\n        /* \"#utility.yul\":9556:9560   */\n      0x24\n        /* \"#utility.yul\":9553:9554   */\n      0x00\n        /* \"#utility.yul\":9546:9561   */\n      revert\n        /* \"#utility.yul\":9573:9806   */\n    tag_157:\n        /* \"#utility.yul\":9612:9615   */\n      0x00\n        /* \"#utility.yul\":9635:9659   */\n      tag_375\n        /* \"#utility.yul\":9653:9658   */\n      dup3\n        /* \"#utility.yul\":9635:9659   */\n      tag_220\n      jump\t// in\n    tag_375:\n        /* \"#utility.yul\":9626:9659   */\n      swap2\n      pop\n        /* \"#utility.yul\":9681:9747   */\n      0xffffffffffffffffffffffffffffffffffffffffffffffffffffffffffffffff\n        /* \"#utility.yul\":9674:9679   */\n      dup3\n        /* \"#utility.yul\":9671:9748   */\n      sub\n        /* \"#utility.yul\":9668:9771   */\n      tag_376\n      jumpi\n        /* \"#utility.yul\":9751:9769   */\n      tag_377\n      tag_251\n      jump\t// in\n    tag_377:\n        /* \"#utility.yul\":9668:9771   */\n    tag_376:\n        /* \"#utility.yul\":9798:9799   */\n      0x01\n        /* \"#utility.yul\":9791:9796   */\n      dup3\n        /* \"#utility.yul\":9787:9800   */\n      add\n        /* \"#utility.yul\":9780:9800   */\n      swap1\n      pop\n        /* \"#utility.yul\":9573:9806   */\n      swap2\n      swap1\n      pop\n      jump\t// out\n        /* \"#utility.yul\":9812:10003   */\n    tag_159:\n        /* \"#utility.yul\":9852:9855   */\n      0x00\n        /* \"#utility.yul\":9871:9891   */\n      tag_379\n        /* \"#utility.yul\":9889:9890   */\n      dup3\n        /* \"#utility.yul\":9871:9891   */\n      tag_220\n      jump\t// in\n    tag_379:\n        /* \"#utility.yul\":9866:9891   */\n      swap2\n      pop\n        /* \"#utility.yul\":9905:9925   */\n      tag_380\n        /* \"#utility.yul\":9923:9924   */\n      dup4\n        /* \"#utility.yul\":9905:9925   */\n      tag_220\n      jump\t// in\n    tag_380:\n        /* \"#utility.yul\":9900:9925   */\n      swap3\n      pop\n        /* \"#utility.yul\":9948:9949   */\n      dup3\n        /* \"#utility.yul\":9945:9946   */\n      dup3\n        /* \"#utility.yul\":9941:9950   */\n      add\n        /* \"#utility.yul\":9934:9950   */\n      swap1\n      pop\n        /* \"#utility.yul\":9969:9972   */\n      dup1\n        /* \"#utility.yul\":9966:9967   */\n      dup3\n        /* \"#utility.yul\":9963:9973   */\n      gt\n        /* \"#utility.yul\":9960:9996   */\n      iszero\n      tag_381\n      jumpi\n        /* \"#utility.yul\":9976:9994   */\n      tag_382\n      tag_251\n      jump\t// in\n    tag_382:\n        /* \"#utility.yul\":9960:9996   */\n    tag_381:\n        /* \"#utility.yul\":9812:10003   */\n      swap3\n      swap2\n      pop\n      pop\n      jump\t// out\n        /* \"#utility.yul\":10009:10341   */\n    tag_178:\n        /* \"#utility.yul\":10130:10134   */\n      0x00\n        /* \"#utility.yul\":10168:10170   */\n      0x40\n        /* \"#utility.yul\":10157:10166   */\n      dup3\n        /* \"#utility.yul\":10153:10171   */\n      add\n        /* \"#utility.yul\":10145:10171   */\n      swap1\n      pop\n        /* \"#utility.yul\":10181:10252   */\n      tag_384\n        /* \"#utility.yul\":10249:10250   */\n      0x00\n        /* \"#utility.yul\":10238:10247   */\n      dup4\n        /* \"#utility.yul\":10234:10251   */\n      add\n        /* \"#utility.yul\":10225:10231   */\n      dup6\n        /* \"#utility.yul\":10181:10252   */\n      tag_226\n      jump\t// in\n    tag_384:\n        /* \"#utility.yul\":10262:10334   */\n      tag_385\n        /* \"#utility.yul\":10330:10332   */\n      0x20\n        /* \"#utility.yul\":10319:10328   */\n      dup4\n        /* \"#utility.yul\":10315:10333   */\n      add\n        /* \"#utility.yul\":10306:10312   */\n      dup5\n        /* \"#utility.yul\":10262:10334   */\n      tag_223\n      jump\t// in\n    tag_385:\n        /* \"#utility.yul\":10009:10341   */\n      swap4\n      swap3\n      pop\n      pop\n      pop\n      jump\t// out\n        /* \"#utility.yul\":10347:10436   */\n    tag_252:\n        /* \"#utility.yul\":10383:10390   */\n      0x00\n        /* \"#utility.yul\":10423:10429   */\n      0xffff\n        /* \"#utility.yul\":10416:10421   */\n      dup3\n        /* \"#utility.yul\":10412:10430   */\n      and\n        /* \"#utility.yul\":10401:10430   */\n      swap1\n      pop\n        /* \"#utility.yul\":10347:10436   */\n      swap2\n      swap1\n      pop\n      jump\t// out\n        /* \"#utility.yul\":10442:10562   */\n    tag_253:\n        /* \"#utility.yul\":10514:10537   */\n      tag_388\n        /* \"#utility.yul\":10531:10536   */\n      dup2\n        /* \"#utility.yul\":10514:10537   */\n      tag_252\n      jump\t// in\n    tag_388:\n        /* \"#utility.yul\":10507:10512   */\n      dup2\n        /* \"#utility.yul\":10504:10538   */\n      eq\n        /* \"#utility.yul\":10494:10556   */\n      tag_389\n      jumpi\n        /* \"#utility.yul\":10552:10553   */\n      0x00\n        /* \"#utility.yul\":10549:10550   */\n      dup1\n        /* \"#utility.yul\":10542:10554   */\n      revert\n        /* \"#utility.yul\":10494:10556   */\n    tag_389:\n        /* \"#utility.yul\":10442:10562   */\n      pop\n      jump\t// out\n        /* \"#utility.yul\":10568:10709   */\n    tag_254:\n        /* \"#utility.yul\":10624:10629   */\n      0x00\n        /* \"#utility.yul\":10655:10661   */\n      dup2\n        /* \"#utility.yul\":10649:10662   */\n      mload\n        /* \"#utility.yul\":10640:10662   */\n      swap1\n      pop\n        /* \"#utility.yul\":10671:10703   */\n      tag_391\n        /* \"#utility.yul\":10697:10702   */\n      dup2\n        /* \"#utility.yul\":10671:10703   */\n      tag_253\n      jump\t// in\n    tag_391:\n        /* \"#utility.yul\":10568:10709   */\n      swap3\n      swap2\n      pop\n      pop\n      jump\t// out\n        /* \"#utility.yul\":10715:11064   */\n    tag_184:\n        /* \"#utility.yul\":10784:10790   */\n      0x00\n        /* \"#utility.yul\":10833:10835   */\n      0x20\n        /* \"#utility.yul\":10821:10830   */\n      dup3\n        /* \"#utility.yul\":10812:10819   */\n      dup5\n        /* \"#utility.yul\":10808:10831   */\n      sub\n        /* \"#utility.yul\":10804:10836   */\n      slt\n        /* \"#utility.yul\":10801:10920   */\n      iszero\n      tag_393\n      jumpi\n        /* \"#utility.yul\":10839:10918   */\n      tag_394\n      tag_218\n      jump\t// in\n    tag_394:\n        /* \"#utility.yul\":10801:10920   */\n    tag_393:\n        /* \"#utility.yul\":10959:10960   */\n      0x00\n        /* \"#utility.yul\":10984:11047   */\n      tag_395\n        /* \"#utility.yul\":11039:11046   */\n      dup5\n        /* \"#utility.yul\":11030:11036   */\n      dup3\n        /* \"#utility.yul\":11019:11028   */\n      dup6\n        /* \"#utility.yul\":11015:11037   */\n      add\n        /* \"#utility.yul\":10984:11047   */\n      tag_254\n      jump\t// in\n    tag_395:\n        /* \"#utility.yul\":10974:11047   */\n      swap2\n      pop\n        /* \"#utility.yul\":10930:11057   */\n      pop\n        /* \"#utility.yul\":10715:11064   */\n      swap3\n      swap2\n      pop\n      pop\n      jump\t// out\n        /* \"#utility.yul\":11070:11213   */\n    tag_255:\n        /* \"#utility.yul\":11127:11132   */\n      0x00\n        /* \"#utility.yul\":11158:11164   */\n      dup2\n        /* \"#utility.yul\":11152:11165   */\n      mload\n        /* \"#utility.yul\":11143:11165   */\n      swap1\n      pop\n        /* \"#utility.yul\":11174:11207   */\n      tag_397\n        /* \"#utility.yul\":11201:11206   */\n      dup2\n        /* \"#utility.yul\":11174:11207   */\n      tag_240\n      jump\t// in\n    tag_397:\n        /* \"#utility.yul\":11070:11213   */\n      swap3\n      swap2\n      pop\n      pop\n      jump\t// out\n        /* \"#utility.yul\":11219:11570   */\n    tag_188:\n        /* \"#utility.yul\":11289:11295   */\n      0x00\n        /* \"#utility.yul\":11338:11340   */\n      0x20\n        /* \"#utility.yul\":11326:11335   */\n      dup3\n        /* \"#utility.yul\":11317:11324   */\n      dup5\n        /* \"#utility.yul\":11313:11336   */\n      sub\n        /* \"#utility.yul\":11309:11341   */\n      slt\n        /* \"#utility.yul\":11306:11425   */\n      iszero\n      tag_399\n      jumpi\n        /* \"#utility.yul\":11344:11423   */\n      tag_400\n      tag_218\n      jump\t// in\n    tag_400:\n        /* \"#utility.yul\":11306:11425   */\n    tag_399:\n        /* \"#utility.yul\":11464:11465   */\n      0x00\n        /* \"#utility.yul\":11489:11553   */\n      tag_401\n        /* \"#utility.yul\":11545:11552   */\n      dup5\n        /* \"#utility.yul\":11536:11542   */\n      dup3\n        /* \"#utility.yul\":11525:11534   */\n      dup6\n        /* \"#utility.yul\":11521:11543   */\n      add\n        /* \"#utility.yul\":11489:11553   */\n      tag_255\n      jump\t// in\n    tag_401:\n        /* \"#utility.yul\":11479:11553   */\n      swap2\n      pop\n        /* \"#utility.yul\":11435:11563   */\n      pop\n        /* \"#utility.yul\":11219:11570   */\n      swap3\n      swap2\n      pop\n      pop\n      jump\t// out\n        /* \"#utility.yul\":11576:11986   */\n    tag_190:\n        /* \"#utility.yul\":11616:11623   */\n      0x00\n        /* \"#utility.yul\":11639:11659   */\n      tag_403\n        /* \"#utility.yul\":11657:11658   */\n      dup3\n        /* \"#utility.yul\":11639:11659   */\n      tag_220\n      jump\t// in\n    tag_403:\n        /* \"#utility.yul\":11634:11659   */\n      swap2\n      pop\n        /* \"#utility.yul\":11673:11693   */\n      tag_404\n        /* \"#utility.yul\":11691:11692   */\n      dup4\n        /* \"#utility.yul\":11673:11693   */\n      tag_220\n      jump\t// in\n    tag_404:\n        /* \"#utility.yul\":11668:11693   */\n      swap3\n      pop\n        /* \"#utility.yul\":11728:11729   */\n      dup3\n        /* \"#utility.yul\":11725:11726   */\n      dup3\n        /* \"#utility.yul\":11721:11730   */\n      mul\n        /* \"#utility.yul\":11750:11780   */\n      tag_405\n        /* \"#utility.yul\":11768:11779   */\n      dup2\n        /* \"#utility.yul\":11750:11780   */\n      tag_220\n      jump\t// in\n    tag_405:\n        /* \"#utility.yul\":11739:11780   */\n      swap2\n      pop\n        /* \"#utility.yul\":11929:11930   */\n      dup3\n        /* \"#utility.yul\":11920:11927   */\n      dup3\n        /* \"#utility.yul\":11916:11931   */\n      div\n        /* \"#utility.yul\":11913:11914   */\n      dup5\n        /* \"#utility.yul\":11910:11932   */\n      eq\n        /* \"#utility.yul\":11890:11891   */\n      dup4\n        /* \"#utility.yul\":11883:11892   */\n      iszero\n        /* \"#utility.yul\":11863:11946   */\n      or\n        /* \"#utility.yul\":11840:11979   */\n      tag_406\n      jumpi\n        /* \"#utility.yul\":11959:11977   */\n      tag_407\n      tag_251\n      jump\t// in\n    tag_407:\n        /* \"#utility.yul\":11840:11979   */\n    tag_406:\n        /* \"#utility.yul\":11624:11986   */\n      pop\n        /* \"#utility.yul\":11576:11986   */\n      swap3\n      swap2\n      pop\n      pop\n      jump\t// out\n        /* \"#utility.yul\":11992:12172   */\n    tag_256:\n        /* \"#utility.yul\":12040:12117   */\n      0x4e487b7100000000000000000000000000000000000000000000000000000000\n        /* \"#utility.yul\":12037:12038   */\n      0x00\n        /* \"#utility.yul\":12030:12118   */\n      mstore\n        /* \"#utility.yul\":12137:12141   */\n      0x12\n        /* \"#utility.yul\":12134:12135   */\n      0x04\n        /* \"#utility.yul\":12127:12142   */\n      mstore\n        /* \"#utility.yul\":12161:12165   */\n      0x24\n        /* \"#utility.yul\":12158:12159   */\n      0x00\n        /* \"#utility.yul\":12151:12166   */\n      revert\n        /* \"#utility.yul\":12178:12363   */\n    tag_192:\n        /* \"#utility.yul\":12218:12219   */\n      0x00\n        /* \"#utility.yul\":12235:12255   */\n      tag_410\n        /* \"#utility.yul\":12253:12254   */\n      dup3\n        /* \"#utility.yul\":12235:12255   */\n      tag_220\n      jump\t// in\n    tag_410:\n        /* \"#utility.yul\":12230:12255   */\n      swap2\n      pop\n        /* \"#utility.yul\":12269:12289   */\n      tag_411\n        /* \"#utility.yul\":12287:12288   */\n      dup4\n        /* \"#utility.yul\":12269:12289   */\n      tag_220\n      jump\t// in\n    tag_411:\n        /* \"#utility.yul\":12264:12289   */\n      swap3\n      pop\n        /* \"#utility.yul\":12308:12309   */\n      dup3\n        /* \"#utility.yul\":12298:12333   */\n      tag_412\n      jumpi\n        /* \"#utility.yul\":12313:12331   */\n      tag_413\n      tag_256\n      jump\t// in\n    tag_413:\n        /* \"#utility.yul\":12298:12333   */\n    tag_412:\n        /* \"#utility.yul\":12355:12356   */\n      dup3\n        /* \"#utility.yul\":12352:12353   */\n      dup3\n        /* \"#utility.yul\":12348:12357   */\n      div\n        /* \"#utility.yul\":12343:12357   */\n      swap1\n      pop\n        /* \"#utility.yul\":12178:12363   */\n      swap3\n      swap2\n      pop\n      pop\n      jump\t// out\n        /* \"#utility.yul\":12369:12563   */\n    tag_194:\n        /* \"#utility.yul\":12409:12413   */\n      0x00\n        /* \"#utility.yul\":12429:12449   */\n      tag_415\n        /* \"#utility.yul\":12447:12448   */\n      dup3\n        /* \"#utility.yul\":12429:12449   */\n      tag_220\n      jump\t// in\n    tag_415:\n        /* \"#utility.yul\":12424:12449   */\n      swap2\n      pop\n        /* \"#utility.yul\":12463:12483   */\n      tag_416\n        /* \"#utility.yul\":12481:12482   */\n      dup4\n        /* \"#utility.yul\":12463:12483   */\n      tag_220\n      jump\t// in\n    tag_416:\n        /* \"#utility.yul\":12458:12483   */\n      swap3\n      pop\n        /* \"#utility.yul\":12507:12508   */\n      dup3\n        /* \"#utility.yul\":12504:12505   */\n      dup3\n        /* \"#utility.yul\":12500:12509   */\n      sub\n        /* \"#utility.yul\":12492:12509   */\n      swap1\n      pop\n        /* \"#utility.yul\":12531:12532   */\n      dup2\n        /* \"#utility.yul\":12525:12529   */\n      dup2\n        /* \"#utility.yul\":12522:12533   */\n      gt\n        /* \"#utility.yul\":12519:12556   */\n      iszero\n      tag_417\n      jumpi\n        /* \"#utility.yul\":12536:12554   */\n      tag_418\n      tag_251\n      jump\t// in\n    tag_418:\n        /* \"#utility.yul\":12519:12556   */\n    tag_417:\n        /* \"#utility.yul\":12369:12563   */\n      swap3\n      swap2\n      pop\n      pop\n      jump\t// out\n        /* \"#utility.yul\":12569:12901   */\n    tag_198:\n        /* \"#utility.yul\":12690:12694   */\n      0x00\n        /* \"#utility.yul\":12728:12730   */\n      0x40\n        /* \"#utility.yul\":12717:12726   */\n      dup3\n        /* \"#utility.yul\":12713:12731   */\n      add\n        /* \"#utility.yul\":12705:12731   */\n      swap1\n      pop\n        /* \"#utility.yul\":12741:12812   */\n      tag_420\n        /* \"#utility.yul\":12809:12810   */\n      0x00\n        /* \"#utility.yul\":12798:12807   */\n      dup4\n        /* \"#utility.yul\":12794:12811   */\n      add\n        /* \"#utility.yul\":12785:12791   */\n      dup6\n        /* \"#utility.yul\":12741:12812   */\n      tag_223\n      jump\t// in\n    tag_420:\n        /* \"#utility.yul\":12822:12894   */\n      tag_421\n        /* \"#utility.yul\":12890:12892   */\n      0x20\n        /* \"#utility.yul\":12879:12888   */\n      dup4\n        /* \"#utility.yul\":12875:12893   */\n      add\n        /* \"#utility.yul\":12866:12872   */\n      dup5\n        /* \"#utility.yul\":12822:12894   */\n      tag_223\n      jump\t// in\n    tag_421:\n        /* \"#utility.yul\":12569:12901   */\n      swap4\n      swap3\n      pop\n      pop\n      pop\n      jump\t// out\n        /* \"#utility.yul\":12907:13239   */\n    tag_209:\n        /* \"#utility.yul\":13028:13032   */\n      0x00\n        /* \"#utility.yul\":13066:13068   */\n      0x40\n        /* \"#utility.yul\":13055:13064   */\n      dup3\n        /* \"#utility.yul\":13051:13069   */\n      add\n        /* \"#utility.yul\":13043:13069   */\n      swap1\n      pop\n        /* \"#utility.yul\":13079:13150   */\n      tag_423\n        /* \"#utility.yul\":13147:13148   */\n      0x00\n        /* \"#utility.yul\":13136:13145   */\n      dup4\n        /* \"#utility.yul\":13132:13149   */\n      add\n        /* \"#utility.yul\":13123:13129   */\n      dup6\n        /* \"#utility.yul\":13079:13150   */\n      tag_226\n      jump\t// in\n    tag_423:\n        /* \"#utility.yul\":13160:13232   */\n      tag_424\n        /* \"#utility.yul\":13228:13230   */\n      0x20\n        /* \"#utility.yul\":13217:13226   */\n      dup4\n        /* \"#utility.yul\":13213:13231   */\n      add\n        /* \"#utility.yul\":13204:13210   */\n      dup5\n        /* \"#utility.yul\":13160:13232   */\n      tag_239\n      jump\t// in\n    tag_424:\n        /* \"#utility.yul\":12907:13239   */\n      swap4\n      swap3\n      pop\n      pop\n      pop\n      jump\t// out\n        /* \"#utility.yul\":13245:13467   */\n    tag_216:\n        /* \"#utility.yul\":13338:13342   */\n      0x00\n        /* \"#utility.yul\":13376:13378   */\n      0x20\n        /* \"#utility.yul\":13365:13374   */\n      dup3\n        /* \"#utility.yul\":13361:13379   */\n      add\n        /* \"#utility.yul\":13353:13379   */\n      swap1\n      pop\n        /* \"#utility.yul\":13389:13460   */\n      tag_426\n        /* \"#utility.yul\":13457:13458   */\n      0x00\n        /* \"#utility.yul\":13446:13455   */\n      dup4\n        /* \"#utility.yul\":13442:13459   */\n      add\n        /* \"#utility.yul\":13433:13439   */\n      dup5\n        /* \"#utility.yul\":13389:13460   */\n      tag_226\n      jump\t// in\n    tag_426:\n        /* \"#utility.yul\":13245:13467   */\n      swap3\n      swap2\n      pop\n      pop\n      jump\t// out\n\n    auxdata: 0xa2646970667358221220c2cf9c58448e78312d05779cb88ea3f9d0a466d5a64312957702df16b59b6d5464736f6c63430008140033\n}\n",
				"bytecode": {
					"linkReferences": {},
					"object": "60c060405234801562000010575f80fd5b5060405162001f3e38038062001f3e833981810160405281019062000036919062000431565b5f73ffffffffffffffffffffffffffffffffffffffff168573ffffffffffffffffffffffffffffffffffffffff1614806200009c57505f73ffffffffffffffffffffffffffffffffffffffff168473ffffffffffffffffffffffffffffffffffffffff16145b80620000d357505f73ffffffffffffffffffffffffffffffffffffffff168373ffffffffffffffffffffffffffffffffffffffff16145b806200010a57505f73ffffffffffffffffffffffffffffffffffffffff168273ffffffffffffffffffffffffffffffffffffffff16145b806200014157505f73ffffffffffffffffffffffffffffffffffffffff168173ffffffffffffffffffffffffffffffffffffffff16145b1562000179576040517fd92e233d00000000000000000000000000000000000000000000000000000000815260040160405180910390fd5b6200018d5f801b866200026760201b60201c565b50620001c07fbb08418a67729a078f87bbc8d02a770929bb68f5bfdf134ae2ead6ed38e2f4ae856200026760201b60201c565b50620001f37f0ce23c3e399818cfee81a7ab0880f714e53d7672b08df0fa62f2843416e1ea09846200026760201b60201c565b508173ffffffffffffffffffffffffffffffffffffffff1660808173ffffffffffffffffffffffffffffffffffffffff16815250508073ffffffffffffffffffffffffffffffffffffffff1660a08173ffffffffffffffffffffffffffffffffffffffff16815250505050505050620004b5565b5f6200027a83836200036260201b60201c565b620003585760015f808581526020019081526020015f205f015f8473ffffffffffffffffffffffffffffffffffffffff1673ffffffffffffffffffffffffffffffffffffffff1681526020019081526020015f205f6101000a81548160ff021916908315150217905550620002f4620003c560201b60201c565b73ffffffffffffffffffffffffffffffffffffffff168273ffffffffffffffffffffffffffffffffffffffff16847f2f8788117e7eff1d82e926ec794901d17c78024a50270940304540a733656f0d60405160405180910390a4600190506200035c565b5f90505b92915050565b5f805f8481526020019081526020015f205f015f8373ffffffffffffffffffffffffffffffffffffffff1673ffffffffffffffffffffffffffffffffffffffff1681526020019081526020015f205f9054906101000a900460ff16905092915050565b5f33905090565b5f80fd5b5f73ffffffffffffffffffffffffffffffffffffffff82169050919050565b5f620003fb82620003d0565b9050919050565b6200040d81620003ef565b811462000418575f80fd5b50565b5f815190506200042b8162000402565b92915050565b5f805f805f60a086880312156200044d576200044c620003cc565b5b5f6200045c888289016200041b565b95505060206200046f888289016200041b565b945050604062000482888289016200041b565b935050606062000495888289016200041b565b9250506080620004a8888289016200041b565b9150509295509295909350565b60805160a051611a44620004fa5f395f81816109a901528181610e760152610f0601525f818161073a0152818161096101528181610fd1015261103f0152611a445ff3fe608060405234801561000f575f80fd5b5060043610610109575f3560e01c80633e413bee116100a0578063a217fddf1161006f578063a217fddf146102b9578063d547741f146102d7578063e317ce7a146102f3578063e7705db61461030f578063e86ca0651461032d57610109565b80633e413bee1461022f5780634d104adf1461024d57806360dc23401461026b57806391d148541461028957610109565b80632f2ff15d116100dc5780632f2ff15d146101bf57806334b25ee2146101db57806336568abe146101f757806337bdc99b1461021357610109565b8063012f52ee1461010d57806301ffc9a714610143578063248a9ca31461017357806327d00fb0146101a3575b5f80fd5b610127600480360381019061012291906112db565b61034b565b60405161013a97969594939291906113c7565b60405180910390f35b61015d60048036038101906101589190611489565b6103d3565b60405161016a91906114ce565b60405180910390f35b61018d6004803603810190610188919061151a565b61044c565b60405161019a9190611554565b60405180910390f35b6101bd60048036038101906101b891906112db565b610468565b005b6101d960048036038101906101d49190611597565b61060c565b005b6101f560048036038101906101f091906115ff565b61062e565b005b610211600480360381019061020c9190611597565b6107ec565b005b61022d600480360381019061022891906112db565b610867565b005b61023761095f565b6040516102449190611698565b60405180910390f35b610255610983565b6040516102629190611554565b60405180910390f35b6102736109a7565b60405161028091906116d1565b60405180910390f35b6102a3600480360381019061029e9190611597565b6109cb565b6040516102b091906114ce565b60405180910390f35b6102c1610a2e565b6040516102ce9190611554565b60405180910390f35b6102f160048036038101906102ec9190611597565b610a34565b005b61030d600480360381019061030891906116ea565b610a56565b005b610317610c63565b6040516103249190611554565b60405180910390f35b610335610c87565b604051610342919061174e565b60405180910390f35b6001602052805f5260405f205f91509050805f015490806001015f9054906101000a900473ffffffffffffffffffffffffffffffffffffffff1690806002015490806003015490806004015f9054906101000a900473ffffffffffffffffffffffffffffffffffffffff1690806005015490806006015f9054906101000a900460ff16905087565b5f7f7965db0b000000000000000000000000000000000000000000000000000000007bffffffffffffffffffffffffffffffffffffffffffffffffffffffff1916827bffffffffffffffffffffffffffffffffffffffffffffffffffffffff19161480610445575061044482610c8e565b5b9050919050565b5f805f8381526020019081526020015f20600101549050919050565b5f60015f8381526020019081526020015f2090503373ffffffffffffffffffffffffffffffffffffffff16816001015f9054906101000a900473ffffffffffffffffffffffffffffffffffffffff1673ffffffffffffffffffffffffffffffffffffffff1614610504576040517fea8e4eb500000000000000000000000000000000000000000000000000000000815260040160405180910390fd5b5f600381111561051757610516611354565b5b816006015f9054906101000a900460ff16600381111561053a57610539611354565b5b14610571576040517ff525e32000000000000000000000000000000000000000000000000000000000815260040160405180910390fd5b80600501544211156105af576040517f435a3cfe00000000000000000000000000000000000000000000000000000000815260040160405180910390fd5b6001816006015f6101000a81548160ff021916908360038111156105d6576105d5611354565b5b0217905550817fed50123fe46d12537dcaae53f33aee1c64bcc9e4f222560f3bae6c0824040dd360405160405180910390a25050565b6106158261044c565b61061e81610cf7565b6106288383610d0b565b50505050565b7fbb08418a67729a078f87bbc8d02a770929bb68f5bfdf134ae2ead6ed38e2f4ae61065881610cf7565b5f60015f8581526020019081526020015f209050600160038111156106805761067f611354565b5b816006015f9054906101000a900460ff1660038111156106a3576106a2611354565b5b146106da576040517ff525e32000000000000000000000000000000000000000000000000000000000815260040160405180910390fd5b82156107b0576003816006015f6101000a81548160ff0219169083600381111561070757610706611354565b5b021790555061077e816001015f9054906101000a900473ffffffffffffffffffffffffffffffffffffffff1682600301547f000000000000000000000000000000000000000000000000000000000000000073ffffffffffffffffffffffffffffffffffffffff16610df49092919063ffffffff16565b837fc12258dbc8f5aaf21f9b7ef40fbfb87befc7c46ac42dccc2c5cc565347e56ee660405160405180910390a26107e6565b6002816006015f6101000a81548160ff021916908360038111156107d7576107d6611354565b5b02179055506107e581610e73565b5b50505050565b6107f46110c8565b73ffffffffffffffffffffffffffffffffffffffff168173ffffffffffffffffffffffffffffffffffffffff1614610858576040517f6697b23200000000000000000000000000000000000000000000000000000000815260040160405180910390fd5b61086282826110cf565b505050565b5f60015f8381526020019081526020015f2090505f600381111561088e5761088d611354565b5b816006015f9054906101000a900460ff1660038111156108b1576108b0611354565b5b146108e8576040517ff525e32000000000000000000000000000000000000000000000000000000000815260040160405180910390fd5b8060050154421015610926576040517f5d5690e000000000000000000000000000000000000000000000000000000000815260040160405180910390fd5b61092f81610e73565b6002816006015f6101000a81548160ff0219169083600381111561095657610955611354565b5b02179055505050565b7f000000000000000000000000000000000000000000000000000000000000000081565b7fbb08418a67729a078f87bbc8d02a770929bb68f5bfdf134ae2ead6ed38e2f4ae81565b7f000000000000000000000000000000000000000000000000000000000000000081565b5f805f8481526020019081526020015f205f015f8373ffffffffffffffffffffffffffffffffffffffff1673ffffffffffffffffffffffffffffffffffffffff1681526020019081526020015f205f9054906101000a900460ff16905092915050565b5f801b81565b610a3d8261044c565b610a4681610cf7565b610a5083836110cf565b50505050565b7f0ce23c3e399818cfee81a7ab0880f714e53d7672b08df0fa62f2843416e1ea09610a8081610cf7565b5f60025f8154610a8f90611794565b91905081905590506040518060e001604052808281526020018673ffffffffffffffffffffffffffffffffffffffff1681526020018781526020018581526020018473ffffffffffffffffffffffffffffffffffffffff1681526020016203f48042610afb91906117db565b81526020015f6003811115610b1357610b12611354565b5b81525060015f8381526020019081526020015f205f820151815f01556020820151816001015f6101000a81548173ffffffffffffffffffffffffffffffffffffffff021916908373ffffffffffffffffffffffffffffffffffffffff16021790555060408201518160020155606082015181600301556080820151816004015f6101000a81548173ffffffffffffffffffffffffffffffffffffffff021916908373ffffffffffffffffffffffffffffffffffffffff16021790555060a0820151816005015560c0820151816006015f6101000a81548160ff02191690836003811115610c0357610c02611354565b5b02179055509050508473ffffffffffffffffffffffffffffffffffffffff1686827f43984c1e017ed0311ce2b121da72130b77d64f8b0652c8c80d70a31ead3e290487604051610c53919061174e565b60405180910390a4505050505050565b7f0ce23c3e399818cfee81a7ab0880f714e53d7672b08df0fa62f2843416e1ea0981565b6203f48081565b5f7f01ffc9a7000000000000000000000000000000000000000000000000000000007bffffffffffffffffffffffffffffffffffffffffffffffffffffffff1916827bffffffffffffffffffffffffffffffffffffffffffffffffffffffff1916149050919050565b610d0881610d036110c8565b6111b8565b50565b5f610d1683836109cb565b610dea5760015f808581526020019081526020015f205f015f8473ffffffffffffffffffffffffffffffffffffffff1673ffffffffffffffffffffffffffffffffffffffff1681526020019081526020015f205f6101000a81548160ff021916908315150217905550610d876110c8565b73ffffffffffffffffffffffffffffffffffffffff168273ffffffffffffffffffffffffffffffffffffffff16847f2f8788117e7eff1d82e926ec794901d17c78024a50270940304540a733656f0d60405160405180910390a460019050610dee565b5f90505b92915050565b610e6e838473ffffffffffffffffffffffffffffffffffffffff1663a9059cbb8585604051602401610e2792919061180e565b604051602081830303815290604052915060e01b6020820180517bffffffffffffffffffffffffffffffffffffffffffffffffffffffff8381831617835250505050611209565b505050565b5f7f000000000000000000000000000000000000000000000000000000000000000073ffffffffffffffffffffffffffffffffffffffff166324a9d8536040518163ffffffff1660e01b8152600401602060405180830381865afa158015610edd573d5f803e3d5ffd5b505050506040513d601f19601f82011682018060405250810190610f01919061186c565b90505f7f000000000000000000000000000000000000000000000000000000000000000073ffffffffffffffffffffffffffffffffffffffff1663bf6284086040518163ffffffff1660e01b8152600401602060405180830381865afa158015610f6d573d5f803e3d5ffd5b505050506040513d601f19601f82011682018060405250810190610f9191906118ab565b90505f836003015490505f6127108461ffff1683610faf91906118d6565b610fb99190611944565b90505f8183610fc89190611974565b905061101584837f000000000000000000000000000000000000000000000000000000000000000073ffffffffffffffffffffffffffffffffffffffff16610df49092919063ffffffff16565b611083866004015f9054906101000a900473ffffffffffffffffffffffffffffffffffffffff16827f000000000000000000000000000000000000000000000000000000000000000073ffffffffffffffffffffffffffffffffffffffff16610df49092919063ffffffff16565b855f01547f3c70b1e8034b5738ec77fbfdaa4d28906a0b3160018d67a2dc7b534e53e33fe082846040516110b89291906119a7565b60405180910390a2505050505050565b5f33905090565b5f6110da83836109cb565b156111ae575f805f8581526020019081526020015f205f015f8473ffffffffffffffffffffffffffffffffffffffff1673ffffffffffffffffffffffffffffffffffffffff1681526020019081526020015f205f6101000a81548160ff02191690831515021790555061114b6110c8565b73ffffffffffffffffffffffffffffffffffffffff168273ffffffffffffffffffffffffffffffffffffffff16847ff6391f5c32d9c69d2a47ea670b442974b53935d1edc7fd64eb21e047a839171b60405160405180910390a4600190506111b2565b5f90505b92915050565b6111c282826109cb565b6112055780826040517fe2517d3f0000000000000000000000000000000000000000000000000000000081526004016111fc9291906119ce565b60405180910390fd5b5050565b5f8060205f8451602086015f885af180611228576040513d5f823e3d81fd5b3d92505f519150505f821461124157600181141561125c565b5f8473ffffffffffffffffffffffffffffffffffffffff163b145b1561129e57836040517f5274afe700000000000000000000000000000000000000000000000000000000815260040161129591906119f5565b60405180910390fd5b50505050565b5f80fd5b5f819050919050565b6112ba816112a8565b81146112c4575f80fd5b50565b5f813590506112d5816112b1565b92915050565b5f602082840312156112f0576112ef6112a4565b5b5f6112fd848285016112c7565b91505092915050565b61130f816112a8565b82525050565b5f73ffffffffffffffffffffffffffffffffffffffff82169050919050565b5f61133e82611315565b9050919050565b61134e81611334565b82525050565b7f4e487b71000000000000000000000000000000000000000000000000000000005f52602160045260245ffd5b6004811061139257611391611354565b5b50565b5f8190506113a282611381565b919050565b5f6113b182611395565b9050919050565b6113c1816113a7565b82525050565b5f60e0820190506113da5f83018a611306565b6113e76020830189611345565b6113f46040830188611306565b6114016060830187611306565b61140e6080830186611345565b61141b60a0830185611306565b61142860c08301846113b8565b98975050505050505050565b5f7fffffffff0000000000000000000000000000000000000000000000000000000082169050919050565b61146881611434565b8114611472575f80fd5b50565b5f813590506114838161145f565b92915050565b5f6020828403121561149e5761149d6112a4565b5b5f6114ab84828501611475565b91505092915050565b5f8115159050919050565b6114c8816114b4565b82525050565b5f6020820190506114e15f8301846114bf565b92915050565b5f819050919050565b6114f9816114e7565b8114611503575f80fd5b50565b5f81359050611514816114f0565b92915050565b5f6020828403121561152f5761152e6112a4565b5b5f61153c84828501611506565b91505092915050565b61154e816114e7565b82525050565b5f6020820190506115675f830184611545565b92915050565b61157681611334565b8114611580575f80fd5b50565b5f813590506115918161156d565b92915050565b5f80604083850312156115ad576115ac6112a4565b5b5f6115ba85828601611506565b92505060206115cb85828601611583565b9150509250929050565b6115de816114b4565b81146115e8575f80fd5b50565b5f813590506115f9816115d5565b92915050565b5f8060408385031215611615576116146112a4565b5b5f611622858286016112c7565b9250506020611633858286016115eb565b9150509250929050565b5f819050919050565b5f61166061165b61165684611315565b61163d565b611315565b9050919050565b5f61167182611646565b9050919050565b5f61168282611667565b9050919050565b61169281611678565b82525050565b5f6020820190506116ab5f830184611689565b92915050565b5f6116bb82611667565b9050919050565b6116cb816116b1565b82525050565b5f6020820190506116e45f8301846116c2565b92915050565b5f805f8060808587031215611702576117016112a4565b5b5f61170f878288016112c7565b945050602061172087828801611583565b9350506040611731878288016112c7565b925050606061174287828801611583565b91505092959194509250565b5f6020820190506117615f830184611306565b92915050565b7f4e487b71000000000000000000000000000000000000000000000000000000005f52601160045260245ffd5b5f61179e826112a8565b91507fffffffffffffffffffffffffffffffffffffffffffffffffffffffffffffffff82036117d0576117cf611767565b5b600182019050919050565b5f6117e5826112a8565b91506117f0836112a8565b925082820190508082111561180857611807611767565b5b92915050565b5f6040820190506118215f830185611345565b61182e6020830184611306565b9392505050565b5f61ffff82169050919050565b61184b81611835565b8114611855575f80fd5b50565b5f8151905061186681611842565b92915050565b5f60208284031215611881576118806112a4565b5b5f61188e84828501611858565b91505092915050565b5f815190506118a58161156d565b92915050565b5f602082840312156118c0576118bf6112a4565b5b5f6118cd84828501611897565b91505092915050565b5f6118e0826112a8565b91506118eb836112a8565b92508282026118f9816112a8565b915082820484148315176119105761190f611767565b5b5092915050565b7f4e487b71000000000000000000000000000000000000000000000000000000005f52601260045260245ffd5b5f61194e826112a8565b9150611959836112a8565b92508261196957611968611917565b5b828204905092915050565b5f61197e826112a8565b9150611989836112a8565b92508282039050818111156119a1576119a0611767565b5b92915050565b5f6040820190506119ba5f830185611306565b6119c76020830184611306565b9392505050565b5f6040820190506119e15f830185611345565b6119ee6020830184611545565b9392505050565b5f602082019050611a085f830184611345565b9291505056fea2646970667358221220c2cf9c58448e78312d05779cb88ea3f9d0a466d5a64312957702df16b59b6d5464736f6c63430008140033",
					"opcodes": "PUSH1 0xC0 PUSH1 0x40 MSTORE CALLVALUE DUP1 ISZERO PUSH3 0x10 JUMPI PUSH0 DUP1 REVERT JUMPDEST POP PUSH1 0x40 MLOAD PUSH3 0x1F3E CODESIZE SUB DUP1 PUSH3 0x1F3E DUP4 CODECOPY DUP2 DUP2 ADD PUSH1 0x40 MSTORE DUP2 ADD SWAP1 PUSH3 0x36 SWAP2 SWAP1 PUSH3 0x431 JUMP JUMPDEST PUSH0 PUSH20 0xFFFFFFFFFFFFFFFFFFFFFFFFFFFFFFFFFFFFFFFF AND DUP6 PUSH20 0xFFFFFFFFFFFFFFFFFFFFFFFFFFFFFFFFFFFFFFFF AND EQ DUP1 PUSH3 0x9C JUMPI POP PUSH0 PUSH20 0xFFFFFFFFFFFFFFFFFFFFFFFFFFFFFFFFFFFFFFFF AND DUP5 PUSH20 0xFFFFFFFFFFFFFFFFFFFFFFFFFFFFFFFFFFFFFFFF AND EQ JUMPDEST DUP1 PUSH3 0xD3 JUMPI POP PUSH0 PUSH20 0xFFFFFFFFFFFFFFFFFFFFFFFFFFFFFFFFFFFFFFFF AND DUP4 PUSH20 0xFFFFFFFFFFFFFFFFFFFFFFFFFFFFFFFFFFFFFFFF AND EQ JUMPDEST DUP1 PUSH3 0x10A JUMPI POP PUSH0 PUSH20 0xFFFFFFFFFFFFFFFFFFFFFFFFFFFFFFFFFFFFFFFF AND DUP3 PUSH20 0xFFFFFFFFFFFFFFFFFFFFFFFFFFFFFFFFFFFFFFFF AND EQ JUMPDEST DUP1 PUSH3 0x141 JUMPI POP PUSH0 PUSH20 0xFFFFFFFFFFFFFFFFFFFFFFFFFFFFFFFFFFFFFFFF AND DUP2 PUSH20 0xFFFFFFFFFFFFFFFFFFFFFFFFFFFFFFFFFFFFFFFF AND EQ JUMPDEST ISZERO PUSH3 0x179 JUMPI PUSH1 0x40 MLOAD PUSH32 0xD92E233D00000000000000000000000000000000000000000000000000000000 DUP2 MSTORE PUSH1 0x4 ADD PUSH1 0x40 MLOAD DUP1 SWAP2 SUB SWAP1 REVERT JUMPDEST PUSH3 0x18D PUSH0 DUP1 SHL DUP7 PUSH3 0x267 PUSH1 0x20 SHL PUSH1 0x20 SHR JUMP JUMPDEST POP PUSH3 0x1C0 PUSH32 0xBB08418A67729A078F87BBC8D02A770929BB68F5BFDF134AE2EAD6ED38E2F4AE DUP6 PUSH3 0x267 PUSH1 0x20 SHL PUSH1 0x20 SHR JUMP JUMPDEST POP PUSH3 0x1F3 PUSH32 0xCE23C3E399818CFEE81A7AB0880F714E53D7672B08DF0FA62F2843416E1EA09 DUP5 PUSH3 0x267 PUSH1 0x20 SHL PUSH1 0x20 SHR JUMP JUMPDEST POP DUP2 PUSH20 0xFFFFFFFFFFFFFFFFFFFFFFFFFFFFFFFFFFFFFFFF AND PUSH1 0x80 DUP2 PUSH20 0xFFFFFFFFFFFFFFFFFFFFFFFFFFFFFFFFFFFFFFFF AND DUP2 MSTORE POP POP DUP1 PUSH20 0xFFFFFFFFFFFFFFFFFFFFFFFFFFFFFFFFFFFFFFFF AND PUSH1 0xA0 DUP2 PUSH20 0xFFFFFFFFFFFFFFFFFFFFFFFFFFFFFFFFFFFFFFFF AND DUP2 MSTORE POP POP POP POP POP POP POP PUSH3 0x4B5 JUMP JUMPDEST PUSH0 PUSH3 0x27A DUP4 DUP4 PUSH3 0x362 PUSH1 0x20 SHL PUSH1 0x20 SHR JUMP JUMPDEST PUSH3 0x358 JUMPI PUSH1 0x1 PUSH0 DUP1 DUP6 DUP2 MSTORE PUSH1 0x20 ADD SWAP1 DUP2 MSTORE PUSH1 0x20 ADD PUSH0 KECCAK256 PUSH0 ADD PUSH0 DUP5 PUSH20 0xFFFFFFFFFFFFFFFFFFFFFFFFFFFFFFFFFFFFFFFF AND PUSH20 0xFFFFFFFFFFFFFFFFFFFFFFFFFFFFFFFFFFFFFFFF AND DUP2 MSTORE PUSH1 0x20 ADD SWAP1 DUP2 MSTORE PUSH1 0x20 ADD PUSH0 KECCAK256 PUSH0 PUSH2 0x100 EXP DUP2 SLOAD DUP2 PUSH1 0xFF MUL NOT AND SWAP1 DUP4 ISZERO ISZERO MUL OR SWAP1 SSTORE POP PUSH3 0x2F4 PUSH3 0x3C5 PUSH1 0x20 SHL PUSH1 0x20 SHR JUMP JUMPDEST PUSH20 0xFFFFFFFFFFFFFFFFFFFFFFFFFFFFFFFFFFFFFFFF AND DUP3 PUSH20 0xFFFFFFFFFFFFFFFFFFFFFFFFFFFFFFFFFFFFFFFF AND DUP5 PUSH32 0x2F8788117E7EFF1D82E926EC794901D17C78024A50270940304540A733656F0D PUSH1 0x40 MLOAD PUSH1 0x40 MLOAD DUP1 SWAP2 SUB SWAP1 LOG4 PUSH1 0x1 SWAP1 POP PUSH3 0x35C JUMP JUMPDEST PUSH0 SWAP1 POP JUMPDEST SWAP3 SWAP2 POP POP JUMP JUMPDEST PUSH0 DUP1 PUSH0 DUP5 DUP2 MSTORE PUSH1 0x20 ADD SWAP1 DUP2 MSTORE PUSH1 0x20 ADD PUSH0 KECCAK256 PUSH0 ADD PUSH0 DUP4 PUSH20 0xFFFFFFFFFFFFFFFFFFFFFFFFFFFFFFFFFFFFFFFF AND PUSH20 0xFFFFFFFFFFFFFFFFFFFFFFFFFFFFFFFFFFFFFFFF AND DUP2 MSTORE PUSH1 0x20 ADD SWAP1 DUP2 MSTORE PUSH1 0x20 ADD PUSH0 KECCAK256 PUSH0 SWAP1 SLOAD SWAP1 PUSH2 0x100 EXP SWAP1 DIV PUSH1 0xFF AND SWAP1 POP SWAP3 SWAP2 POP POP JUMP JUMPDEST PUSH0 CALLER SWAP1 POP SWAP1 JUMP JUMPDEST PUSH0 DUP1 REVERT JUMPDEST PUSH0 PUSH20 0xFFFFFFFFFFFFFFFFFFFFFFFFFFFFFFFFFFFFFFFF DUP3 AND SWAP1 POP SWAP2 SWAP1 POP JUMP JUMPDEST PUSH0 PUSH3 0x3FB DUP3 PUSH3 0x3D0 JUMP JUMPDEST SWAP1 POP SWAP2 SWAP1 POP JUMP JUMPDEST PUSH3 0x40D DUP2 PUSH3 0x3EF JUMP JUMPDEST DUP2 EQ PUSH3 0x418 JUMPI PUSH0 DUP1 REVERT JUMPDEST POP JUMP JUMPDEST PUSH0 DUP2 MLOAD SWAP1 POP PUSH3 0x42B DUP2 PUSH3 0x402 JUMP JUMPDEST SWAP3 SWAP2 POP POP JUMP JUMPDEST PUSH0 DUP1 PUSH0 DUP1 PUSH0 PUSH1 0xA0 DUP7 DUP9 SUB SLT ISZERO PUSH3 0x44D JUMPI PUSH3 0x44C PUSH3 0x3CC JUMP JUMPDEST JUMPDEST PUSH0 PUSH3 0x45C DUP9 DUP3 DUP10 ADD PUSH3 0x41B JUMP JUMPDEST SWAP6 POP POP PUSH1 0x20 PUSH3 0x46F DUP9 DUP3 DUP10 ADD PUSH3 0x41B JUMP JUMPDEST SWAP5 POP POP PUSH1 0x40 PUSH3 0x482 DUP9 DUP3 DUP10 ADD PUSH3 0x41B JUMP JUMPDEST SWAP4 POP POP PUSH1 0x60 PUSH3 0x495 DUP9 DUP3 DUP10 ADD PUSH3 0x41B JUMP JUMPDEST SWAP3 POP POP PUSH1 0x80 PUSH3 0x4A8 DUP9 DUP3 DUP10 ADD PUSH3 0x41B JUMP JUMPDEST SWAP2 POP POP SWAP3 SWAP6 POP SWAP3 SWAP6 SWAP1 SWAP4 POP JUMP JUMPDEST PUSH1 0x80 MLOAD PUSH1 0xA0 MLOAD PUSH2 0x1A44 PUSH3 0x4FA PUSH0 CODECOPY PUSH0 DUP2 DUP2 PUSH2 0x9A9 ADD MSTORE DUP2 DUP2 PUSH2 0xE76 ADD MSTORE PUSH2 0xF06 ADD MSTORE PUSH0 DUP2 DUP2 PUSH2 0x73A ADD MSTORE DUP2 DUP2 PUSH2 0x961 ADD MSTORE DUP2 DUP2 PUSH2 0xFD1 ADD MSTORE PUSH2 0x103F ADD MSTORE PUSH2 0x1A44 PUSH0 RETURN INVALID PUSH1 0x80 PUSH1 0x40 MSTORE CALLVALUE DUP1 ISZERO PUSH2 0xF JUMPI PUSH0 DUP1 REVERT JUMPDEST POP PUSH1 0x4 CALLDATASIZE LT PUSH2 0x109 JUMPI PUSH0 CALLDATALOAD PUSH1 0xE0 SHR DUP1 PUSH4 0x3E413BEE GT PUSH2 0xA0 JUMPI DUP1 PUSH4 0xA217FDDF GT PUSH2 0x6F JUMPI DUP1 PUSH4 0xA217FDDF EQ PUSH2 0x2B9 JUMPI DUP1 PUSH4 0xD547741F EQ PUSH2 0x2D7 JUMPI DUP1 PUSH4 0xE317CE7A EQ PUSH2 0x2F3 JUMPI DUP1 PUSH4 0xE7705DB6 EQ PUSH2 0x30F JUMPI DUP1 PUSH4 0xE86CA065 EQ PUSH2 0x32D JUMPI PUSH2 0x109 JUMP JUMPDEST DUP1 PUSH4 0x3E413BEE EQ PUSH2 0x22F JUMPI DUP1 PUSH4 0x4D104ADF EQ PUSH2 0x24D JUMPI DUP1 PUSH4 0x60DC2340 EQ PUSH2 0x26B JUMPI DUP1 PUSH4 0x91D14854 EQ PUSH2 0x289 JUMPI PUSH2 0x109 JUMP JUMPDEST DUP1 PUSH4 0x2F2FF15D GT PUSH2 0xDC JUMPI DUP1 PUSH4 0x2F2FF15D EQ PUSH2 0x1BF JUMPI DUP1 PUSH4 0x34B25EE2 EQ PUSH2 0x1DB JUMPI DUP1 PUSH4 0x36568ABE EQ PUSH2 0x1F7 JUMPI DUP1 PUSH4 0x37BDC99B EQ PUSH2 0x213 JUMPI PUSH2 0x109 JUMP JUMPDEST DUP1 PUSH4 0x12F52EE EQ PUSH2 0x10D JUMPI DUP1 PUSH4 0x1FFC9A7 EQ PUSH2 0x143 JUMPI DUP1 PUSH4 0x248A9CA3 EQ PUSH2 0x173 JUMPI DUP1 PUSH4 0x27D00FB0 EQ PUSH2 0x1A3 JUMPI JUMPDEST PUSH0 DUP1 REVERT JUMPDEST PUSH2 0x127 PUSH1 0x4 DUP1 CALLDATASIZE SUB DUP2 ADD SWAP1 PUSH2 0x122 SWAP2 SWAP1 PUSH2 0x12DB JUMP JUMPDEST PUSH2 0x34B JUMP JUMPDEST PUSH1 0x40 MLOAD PUSH2 0x13A SWAP8 SWAP7 SWAP6 SWAP5 SWAP4 SWAP3 SWAP2 SWAP1 PUSH2 0x13C7 JUMP JUMPDEST PUSH1 0x40 MLOAD DUP1 SWAP2 SUB SWAP1 RETURN JUMPDEST PUSH2 0x15D PUSH1 0x4 DUP1 CALLDATASIZE SUB DUP2 ADD SWAP1 PUSH2 0x158 SWAP2 SWAP1 PUSH2 0x1489 JUMP JUMPDEST PUSH2 0x3D3 JUMP JUMPDEST PUSH1 0x40 MLOAD PUSH2 0x16A SWAP2 SWAP1 PUSH2 0x14CE JUMP JUMPDEST PUSH1 0x40 MLOAD DUP1 SWAP2 SUB SWAP1 RETURN JUMPDEST PUSH2 0x18D PUSH1 0x4 DUP1 CALLDATASIZE SUB DUP2 ADD SWAP1 PUSH2 0x188 SWAP2 SWAP1 PUSH2 0x151A JUMP JUMPDEST PUSH2 0x44C JUMP JUMPDEST PUSH1 0x40 MLOAD PUSH2 0x19A SWAP2 SWAP1 PUSH2 0x1554 JUMP JUMPDEST PUSH1 0x40 MLOAD DUP1 SWAP2 SUB SWAP1 RETURN JUMPDEST PUSH2 0x1BD PUSH1 0x4 DUP1 CALLDATASIZE SUB DUP2 ADD SWAP1 PUSH2 0x1B8 SWAP2 SWAP1 PUSH2 0x12DB JUMP JUMPDEST PUSH2 0x468 JUMP JUMPDEST STOP JUMPDEST PUSH2 0x1D9 PUSH1 0x4 DUP1 CALLDATASIZE SUB DUP2 ADD SWAP1 PUSH2 0x1D4 SWAP2 SWAP1 PUSH2 0x1597 JUMP JUMPDEST PUSH2 0x60C JUMP JUMPDEST STOP JUMPDEST PUSH2 0x1F5 PUSH1 0x4 DUP1 CALLDATASIZE SUB DUP2 ADD SWAP1 PUSH2 0x1F0 SWAP2 SWAP1 PUSH2 0x15FF JUMP JUMPDEST PUSH2 0x62E JUMP JUMPDEST STOP JUMPDEST PUSH2 0x211 PUSH1 0x4 DUP1 CALLDATASIZE SUB DUP2 ADD SWAP1 PUSH2 0x20C SWAP2 SWAP1 PUSH2 0x1597 JUMP JUMPDEST PUSH2 0x7EC JUMP JUMPDEST STOP JUMPDEST PUSH2 0x22D PUSH1 0x4 DUP1 CALLDATASIZE SUB DUP2 ADD SWAP1 PUSH2 0x228 SWAP2 SWAP1 PUSH2 0x12DB JUMP JUMPDEST PUSH2 0x867 JUMP JUMPDEST STOP JUMPDEST PUSH2 0x237 PUSH2 0x95F JUMP JUMPDEST PUSH1 0x40 MLOAD PUSH2 0x244 SWAP2 SWAP1 PUSH2 0x1698 JUMP JUMPDEST PUSH1 0x40 MLOAD DUP1 SWAP2 SUB SWAP1 RETURN JUMPDEST PUSH2 0x255 PUSH2 0x983 JUMP JUMPDEST PUSH1 0x40 MLOAD PUSH2 0x262 SWAP2 SWAP1 PUSH2 0x1554 JUMP JUMPDEST PUSH1 0x40 MLOAD DUP1 SWAP2 SUB SWAP1 RETURN JUMPDEST PUSH2 0x273 PUSH2 0x9A7 JUMP JUMPDEST PUSH1 0x40 MLOAD PUSH2 0x280 SWAP2 SWAP1 PUSH2 0x16D1 JUMP JUMPDEST PUSH1 0x40 MLOAD DUP1 SWAP2 SUB SWAP1 RETURN JUMPDEST PUSH2 0x2A3 PUSH1 0x4 DUP1 CALLDATASIZE SUB DUP2 ADD SWAP1 PUSH2 0x29E SWAP2 SWAP1 PUSH2 0x1597 JUMP JUMPDEST PUSH2 0x9CB JUMP JUMPDEST PUSH1 0x40 MLOAD PUSH2 0x2B0 SWAP2 SWAP1 PUSH2 0x14CE JUMP JUMPDEST PUSH1 0x40 MLOAD DUP1 SWAP2 SUB SWAP1 RETURN JUMPDEST PUSH2 0x2C1 PUSH2 0xA2E JUMP JUMPDEST PUSH1 0x40 MLOAD PUSH2 0x2CE SWAP2 SWAP1 PUSH2 0x1554 JUMP JUMPDEST PUSH1 0x40 MLOAD DUP1 SWAP2 SUB SWAP1 RETURN JUMPDEST PUSH2 0x2F1 PUSH1 0x4 DUP1 CALLDATASIZE SUB DUP2 ADD SWAP1 PUSH2 0x2EC SWAP2 SWAP1 PUSH2 0x1597 JUMP JUMPDEST PUSH2 0xA34 JUMP JUMPDEST STOP JUMPDEST PUSH2 0x30D PUSH1 0x4 DUP1 CALLDATASIZE SUB DUP2 ADD SWAP1 PUSH2 0x308 SWAP2 SWAP1 PUSH2 0x16EA JUMP JUMPDEST PUSH2 0xA56 JUMP JUMPDEST STOP JUMPDEST PUSH2 0x317 PUSH2 0xC63 JUMP JUMPDEST PUSH1 0x40 MLOAD PUSH2 0x324 SWAP2 SWAP1 PUSH2 0x1554 JUMP JUMPDEST PUSH1 0x40 MLOAD DUP1 SWAP2 SUB SWAP1 RETURN JUMPDEST PUSH2 0x335 PUSH2 0xC87 JUMP JUMPDEST PUSH1 0x40 MLOAD PUSH2 0x342 SWAP2 SWAP1 PUSH2 0x174E JUMP JUMPDEST PUSH1 0x40 MLOAD DUP1 SWAP2 SUB SWAP1 RETURN JUMPDEST PUSH1 0x1 PUSH1 0x20 MSTORE DUP1 PUSH0 MSTORE PUSH1 0x40 PUSH0 KECCAK256 PUSH0 SWAP2 POP SWAP1 POP DUP1 PUSH0 ADD SLOAD SWAP1 DUP1 PUSH1 0x1 ADD PUSH0 SWAP1 SLOAD SWAP1 PUSH2 0x100 EXP SWAP1 DIV PUSH20 0xFFFFFFFFFFFFFFFFFFFFFFFFFFFFFFFFFFFFFFFF AND SWAP1 DUP1 PUSH1 0x2 ADD SLOAD SWAP1 DUP1 PUSH1 0x3 ADD SLOAD SWAP1 DUP1 PUSH1 0x4 ADD PUSH0 SWAP1 SLOAD SWAP1 PUSH2 0x100 EXP SWAP1 DIV PUSH20 0xFFFFFFFFFFFFFFFFFFFFFFFFFFFFFFFFFFFFFFFF AND SWAP1 DUP1 PUSH1 0x5 ADD SLOAD SWAP1 DUP1 PUSH1 0x6 ADD PUSH0 SWAP1 SLOAD SWAP1 PUSH2 0x100 EXP SWAP1 DIV PUSH1 0xFF AND SWAP1 POP DUP8 JUMP JUMPDEST PUSH0 PUSH32 0x7965DB0B00000000000000000000000000000000000000000000000000000000 PUSH28 0xFFFFFFFFFFFFFFFFFFFFFFFFFFFFFFFFFFFFFFFFFFFFFFFFFFFFFFFF NOT AND DUP3 PUSH28 0xFFFFFFFFFFFFFFFFFFFFFFFFFFFFFFFFFFFFFFFFFFFFFFFFFFFFFFFF NOT AND EQ DUP1 PUSH2 0x445 JUMPI POP PUSH2 0x444 DUP3 PUSH2 0xC8E JUMP JUMPDEST JUMPDEST SWAP1 POP SWAP2 SWAP1 POP JUMP JUMPDEST PUSH0 DUP1 PUSH0 DUP4 DUP2 MSTORE PUSH1 0x20 ADD SWAP1 DUP2 MSTORE PUSH1 0x20 ADD PUSH0 KECCAK256 PUSH1 0x1 ADD SLOAD SWAP1 POP SWAP2 SWAP1 POP JUMP JUMPDEST PUSH0 PUSH1 0x1 PUSH0 DUP4 DUP2 MSTORE PUSH1 0x20 ADD SWAP1 DUP2 MSTORE PUSH1 0x20 ADD PUSH0 KECCAK256 SWAP1 POP CALLER PUSH20 0xFFFFFFFFFFFFFFFFFFFFFFFFFFFFFFFFFFFFFFFF AND DUP2 PUSH1 0x1 ADD PUSH0 SWAP1 SLOAD SWAP1 PUSH2 0x100 EXP SWAP1 DIV PUSH20 0xFFFFFFFFFFFFFFFFFFFFFFFFFFFFFFFFFFFFFFFF AND PUSH20 0xFFFFFFFFFFFFFFFFFFFFFFFFFFFFFFFFFFFFFFFF AND EQ PUSH2 0x504 JUMPI PUSH1 0x40 MLOAD PUSH32 0xEA8E4EB500000000000000000000000000000000000000000000000000000000 DUP2 MSTORE PUSH1 0x4 ADD PUSH1 0x40 MLOAD DUP1 SWAP2 SUB SWAP1 REVERT JUMPDEST PUSH0 PUSH1 0x3 DUP2 GT ISZERO PUSH2 0x517 JUMPI PUSH2 0x516 PUSH2 0x1354 JUMP JUMPDEST JUMPDEST DUP2 PUSH1 0x6 ADD PUSH0 SWAP1 SLOAD SWAP1 PUSH2 0x100 EXP SWAP1 DIV PUSH1 0xFF AND PUSH1 0x3 DUP2 GT ISZERO PUSH2 0x53A JUMPI PUSH2 0x539 PUSH2 0x1354 JUMP JUMPDEST JUMPDEST EQ PUSH2 0x571 JUMPI PUSH1 0x40 MLOAD PUSH32 0xF525E32000000000000000000000000000000000000000000000000000000000 DUP2 MSTORE PUSH1 0x4 ADD PUSH1 0x40 MLOAD DUP1 SWAP2 SUB SWAP1 REVERT JUMPDEST DUP1 PUSH1 0x5 ADD SLOAD TIMESTAMP GT ISZERO PUSH2 0x5AF JUMPI PUSH1 0x40 MLOAD PUSH32 0x435A3CFE00000000000000000000000000000000000000000000000000000000 DUP2 MSTORE PUSH1 0x4 ADD PUSH1 0x40 MLOAD DUP1 SWAP2 SUB SWAP1 REVERT JUMPDEST PUSH1 0x1 DUP2 PUSH1 0x6 ADD PUSH0 PUSH2 0x100 EXP DUP2 SLOAD DUP2 PUSH1 0xFF MUL NOT AND SWAP1 DUP4 PUSH1 0x3 DUP2 GT ISZERO PUSH2 0x5D6 JUMPI PUSH2 0x5D5 PUSH2 0x1354 JUMP JUMPDEST JUMPDEST MUL OR SWAP1 SSTORE POP DUP2 PUSH32 0xED50123FE46D12537DCAAE53F33AEE1C64BCC9E4F222560F3BAE6C0824040DD3 PUSH1 0x40 MLOAD PUSH1 0x40 MLOAD DUP1 SWAP2 SUB SWAP1 LOG2 POP POP JUMP JUMPDEST PUSH2 0x615 DUP3 PUSH2 0x44C JUMP JUMPDEST PUSH2 0x61E DUP2 PUSH2 0xCF7 JUMP JUMPDEST PUSH2 0x628 DUP4 DUP4 PUSH2 0xD0B JUMP JUMPDEST POP POP POP POP JUMP JUMPDEST PUSH32 0xBB08418A67729A078F87BBC8D02A770929BB68F5BFDF134AE2EAD6ED38E2F4AE PUSH2 0x658 DUP2 PUSH2 0xCF7 JUMP JUMPDEST PUSH0 PUSH1 0x1 PUSH0 DUP6 DUP2 MSTORE PUSH1 0x20 ADD SWAP1 DUP2 MSTORE PUSH1 0x20 ADD PUSH0 KECCAK256 SWAP1 POP PUSH1 0x1 PUSH1 0x3 DUP2 GT ISZERO PUSH2 0x680 JUMPI PUSH2 0x67F PUSH2 0x1354 JUMP JUMPDEST JUMPDEST DUP2 PUSH1 0x6 ADD PUSH0 SWAP1 SLOAD SWAP1 PUSH2 0x100 EXP SWAP1 DIV PUSH1 0xFF AND PUSH1 0x3 DUP2 GT ISZERO PUSH2 0x6A3 JUMPI PUSH2 0x6A2 PUSH2 0x1354 JUMP JUMPDEST JUMPDEST EQ PUSH2 0x6DA JUMPI PUSH1 0x40 MLOAD PUSH32 0xF525E32000000000000000000000000000000000000000000000000000000000 DUP2 MSTORE PUSH1 0x4 ADD PUSH1 0x40 MLOAD DUP1 SWAP2 SUB SWAP1 REVERT JUMPDEST DUP3 ISZERO PUSH2 0x7B0 JUMPI PUSH1 0x3 DUP2 PUSH1 0x6 ADD PUSH0 PUSH2 0x100 EXP DUP2 SLOAD DUP2 PUSH1 0xFF MUL NOT AND SWAP1 DUP4 PUSH1 0x3 DUP2 GT ISZERO PUSH2 0x707 JUMPI PUSH2 0x706 PUSH2 0x1354 JUMP JUMPDEST JUMPDEST MUL OR SWAP1 SSTORE POP PUSH2 0x77E DUP2 PUSH1 0x1 ADD PUSH0 SWAP1 SLOAD SWAP1 PUSH2 0x100 EXP SWAP1 DIV PUSH20 0xFFFFFFFFFFFFFFFFFFFFFFFFFFFFFFFFFFFFFFFF AND DUP3 PUSH1 0x3 ADD SLOAD PUSH32 0x0 PUSH20 0xFFFFFFFFFFFFFFFFFFFFFFFFFFFFFFFFFFFFFFFF AND PUSH2 0xDF4 SWAP1 SWAP3 SWAP2 SWAP1 PUSH4 0xFFFFFFFF AND JUMP JUMPDEST DUP4 PUSH32 0xC12258DBC8F5AAF21F9B7EF40FBFB87BEFC7C46AC42DCCC2C5CC565347E56EE6 PUSH1 0x40 MLOAD PUSH1 0x40 MLOAD DUP1 SWAP2 SUB SWAP1 LOG2 PUSH2 0x7E6 JUMP JUMPDEST PUSH1 0x2 DUP2 PUSH1 0x6 ADD PUSH0 PUSH2 0x100 EXP DUP2 SLOAD DUP2 PUSH1 0xFF MUL NOT AND SWAP1 DUP4 PUSH1 0x3 DUP2 GT ISZERO PUSH2 0x7D7 JUMPI PUSH2 0x7D6 PUSH2 0x1354 JUMP JUMPDEST JUMPDEST MUL OR SWAP1 SSTORE POP PUSH2 0x7E5 DUP2 PUSH2 0xE73 JUMP JUMPDEST JUMPDEST POP POP POP POP JUMP JUMPDEST PUSH2 0x7F4 PUSH2 0x10C8 JUMP JUMPDEST PUSH20 0xFFFFFFFFFFFFFFFFFFFFFFFFFFFFFFFFFFFFFFFF AND DUP2 PUSH20 0xFFFFFFFFFFFFFFFFFFFFFFFFFFFFFFFFFFFFFFFF AND EQ PUSH2 0x858 JUMPI PUSH1 0x40 MLOAD PUSH32 0x6697B23200000000000000000000000000000000000000000000000000000000 DUP2 MSTORE PUSH1 0x4 ADD PUSH1 0x40 MLOAD DUP1 SWAP2 SUB SWAP1 REVERT JUMPDEST PUSH2 0x862 DUP3 DUP3 PUSH2 0x10CF JUMP JUMPDEST POP POP POP JUMP JUMPDEST PUSH0 PUSH1 0x1 PUSH0 DUP4 DUP2 MSTORE PUSH1 0x20 ADD SWAP1 DUP2 MSTORE PUSH1 0x20 ADD PUSH0 KECCAK256 SWAP1 POP PUSH0 PUSH1 0x3 DUP2 GT ISZERO PUSH2 0x88E JUMPI PUSH2 0x88D PUSH2 0x1354 JUMP JUMPDEST JUMPDEST DUP2 PUSH1 0x6 ADD PUSH0 SWAP1 SLOAD SWAP1 PUSH2 0x100 EXP SWAP1 DIV PUSH1 0xFF AND PUSH1 0x3 DUP2 GT ISZERO PUSH2 0x8B1 JUMPI PUSH2 0x8B0 PUSH2 0x1354 JUMP JUMPDEST JUMPDEST EQ PUSH2 0x8E8 JUMPI PUSH1 0x40 MLOAD PUSH32 0xF525E32000000000000000000000000000000000000000000000000000000000 DUP2 MSTORE PUSH1 0x4 ADD PUSH1 0x40 MLOAD DUP1 SWAP2 SUB SWAP1 REVERT JUMPDEST DUP1 PUSH1 0x5 ADD SLOAD TIMESTAMP LT ISZERO PUSH2 0x926 JUMPI PUSH1 0x40 MLOAD PUSH32 0x5D5690E000000000000000000000000000000000000000000000000000000000 DUP2 MSTORE PUSH1 0x4 ADD PUSH1 0x40 MLOAD DUP1 SWAP2 SUB SWAP1 REVERT JUMPDEST PUSH2 0x92F DUP2 PUSH2 0xE73 JUMP JUMPDEST PUSH1 0x2 DUP2 PUSH1 0x6 ADD PUSH0 PUSH2 0x100 EXP DUP2 SLOAD DUP2 PUSH1 0xFF MUL NOT AND SWAP1 DUP4 PUSH1 0x3 DUP2 GT ISZERO PUSH2 0x956 JUMPI PUSH2 0x955 PUSH2 0x1354 JUMP JUMPDEST JUMPDEST MUL OR SWAP1 SSTORE POP POP POP JUMP JUMPDEST PUSH32 0x0 DUP2 JUMP JUMPDEST PUSH32 0xBB08418A67729A078F87BBC8D02A770929BB68F5BFDF134AE2EAD6ED38E2F4AE DUP2 JUMP JUMPDEST PUSH32 0x0 DUP2 JUMP JUMPDEST PUSH0 DUP1 PUSH0 DUP5 DUP2 MSTORE PUSH1 0x20 ADD SWAP1 DUP2 MSTORE PUSH1 0x20 ADD PUSH0 KECCAK256 PUSH0 ADD PUSH0 DUP4 PUSH20 0xFFFFFFFFFFFFFFFFFFFFFFFFFFFFFFFFFFFFFFFF AND PUSH20 0xFFFFFFFFFFFFFFFFFFFFFFFFFFFFFFFFFFFFFFFF AND DUP2 MSTORE PUSH1 0x20 ADD SWAP1 DUP2 MSTORE PUSH1 0x20 ADD PUSH0 KECCAK256 PUSH0 SWAP1 SLOAD SWAP1 PUSH2 0x100 EXP SWAP1 DIV PUSH1 0xFF AND SWAP1 POP SWAP3 SWAP2 POP POP JUMP JUMPDEST PUSH0 DUP1 SHL DUP2 JUMP JUMPDEST PUSH2 0xA3D DUP3 PUSH2 0x44C JUMP JUMPDEST PUSH2 0xA46 DUP2 PUSH2 0xCF7 JUMP JUMPDEST PUSH2 0xA50 DUP4 DUP4 PUSH2 0x10CF JUMP JUMPDEST POP POP POP POP JUMP JUMPDEST PUSH32 0xCE23C3E399818CFEE81A7AB0880F714E53D7672B08DF0FA62F2843416E1EA09 PUSH2 0xA80 DUP2 PUSH2 0xCF7 JUMP JUMPDEST PUSH0 PUSH1 0x2 PUSH0 DUP2 SLOAD PUSH2 0xA8F SWAP1 PUSH2 0x1794 JUMP JUMPDEST SWAP2 SWAP1 POP DUP2 SWAP1 SSTORE SWAP1 POP PUSH1 0x40 MLOAD DUP1 PUSH1 0xE0 ADD PUSH1 0x40 MSTORE DUP1 DUP3 DUP2 MSTORE PUSH1 0x20 ADD DUP7 PUSH20 0xFFFFFFFFFFFFFFFFFFFFFFFFFFFFFFFFFFFFFFFF AND DUP2 MSTORE PUSH1 0x20 ADD DUP8 DUP2 MSTORE PUSH1 0x20 ADD DUP6 DUP2 MSTORE PUSH1 0x20 ADD DUP5 PUSH20 0xFFFFFFFFFFFFFFFFFFFFFFFFFFFFFFFFFFFFFFFF AND DUP2 MSTORE PUSH1 0x20 ADD PUSH3 0x3F480 TIMESTAMP PUSH2 0xAFB SWAP2 SWAP1 PUSH2 0x17DB JUMP JUMPDEST DUP2 MSTORE PUSH1 0x20 ADD PUSH0 PUSH1 0x3 DUP2 GT ISZERO PUSH2 0xB13 JUMPI PUSH2 0xB12 PUSH2 0x1354 JUMP JUMPDEST JUMPDEST DUP2 MSTORE POP PUSH1 0x1 PUSH0 DUP4 DUP2 MSTORE PUSH1 0x20 ADD SWAP1 DUP2 MSTORE PUSH1 0x20 ADD PUSH0 KECCAK256 PUSH0 DUP3 ADD MLOAD DUP2 PUSH0 ADD SSTORE PUSH1 0x20 DUP3 ADD MLOAD DUP2 PUSH1 0x1 ADD PUSH0 PUSH2 0x100 EXP DUP2 SLOAD DUP2 PUSH20 0xFFFFFFFFFFFFFFFFFFFFFFFFFFFFFFFFFFFFFFFF MUL NOT AND SWAP1 DUP4 PUSH20 0xFFFFFFFFFFFFFFFFFFFFFFFFFFFFFFFFFFFFFFFF AND MUL OR SWAP1 SSTORE POP PUSH1 0x40 DUP3 ADD MLOAD DUP2 PUSH1 0x2 ADD SSTORE PUSH1 0x60 DUP3 ADD MLOAD DUP2 PUSH1 0x3 ADD SSTORE PUSH1 0x80 DUP3 ADD MLOAD DUP2 PUSH1 0x4 ADD PUSH0 PUSH2 0x100 EXP DUP2 SLOAD DUP2 PUSH20 0xFFFFFFFFFFFFFFFFFFFFFFFFFFFFFFFFFFFFFFFF MUL NOT AND SWAP1 DUP4 PUSH20 0xFFFFFFFFFFFFFFFFFFFFFFFFFFFFFFFFFFFFFFFF AND MUL OR SWAP1 SSTORE POP PUSH1 0xA0 DUP3 ADD MLOAD DUP2 PUSH1 0x5 ADD SSTORE PUSH1 0xC0 DUP3 ADD MLOAD DUP2 PUSH1 0x6 ADD PUSH0 PUSH2 0x100 EXP DUP2 SLOAD DUP2 PUSH1 0xFF MUL NOT AND SWAP1 DUP4 PUSH1 0x3 DUP2 GT ISZERO PUSH2 0xC03 JUMPI PUSH2 0xC02 PUSH2 0x1354 JUMP JUMPDEST JUMPDEST MUL OR SWAP1 SSTORE POP SWAP1 POP POP DUP5 PUSH20 0xFFFFFFFFFFFFFFFFFFFFFFFFFFFFFFFFFFFFFFFF AND DUP7 DUP3 PUSH32 0x43984C1E017ED0311CE2B121DA72130B77D64F8B0652C8C80D70A31EAD3E2904 DUP8 PUSH1 0x40 MLOAD PUSH2 0xC53 SWAP2 SWAP1 PUSH2 0x174E JUMP JUMPDEST PUSH1 0x40 MLOAD DUP1 SWAP2 SUB SWAP1 LOG4 POP POP POP POP POP POP JUMP JUMPDEST PUSH32 0xCE23C3E399818CFEE81A7AB0880F714E53D7672B08DF0FA62F2843416E1EA09 DUP2 JUMP JUMPDEST PUSH3 0x3F480 DUP2 JUMP JUMPDEST PUSH0 PUSH32 0x1FFC9A700000000000000000000000000000000000000000000000000000000 PUSH28 0xFFFFFFFFFFFFFFFFFFFFFFFFFFFFFFFFFFFFFFFFFFFFFFFFFFFFFFFF NOT AND DUP3 PUSH28 0xFFFFFFFFFFFFFFFFFFFFFFFFFFFFFFFFFFFFFFFFFFFFFFFFFFFFFFFF NOT AND EQ SWAP1 POP SWAP2 SWAP1 POP JUMP JUMPDEST PUSH2 0xD08 DUP2 PUSH2 0xD03 PUSH2 0x10C8 JUMP JUMPDEST PUSH2 0x11B8 JUMP JUMPDEST POP JUMP JUMPDEST PUSH0 PUSH2 0xD16 DUP4 DUP4 PUSH2 0x9CB JUMP JUMPDEST PUSH2 0xDEA JUMPI PUSH1 0x1 PUSH0 DUP1 DUP6 DUP2 MSTORE PUSH1 0x20 ADD SWAP1 DUP2 MSTORE PUSH1 0x20 ADD PUSH0 KECCAK256 PUSH0 ADD PUSH0 DUP5 PUSH20 0xFFFFFFFFFFFFFFFFFFFFFFFFFFFFFFFFFFFFFFFF AND PUSH20 0xFFFFFFFFFFFFFFFFFFFFFFFFFFFFFFFFFFFFFFFF AND DUP2 MSTORE PUSH1 0x20 ADD SWAP1 DUP2 MSTORE PUSH1 0x20 ADD PUSH0 KECCAK256 PUSH0 PUSH2 0x100 EXP DUP2 SLOAD DUP2 PUSH1 0xFF MUL NOT AND SWAP1 DUP4 ISZERO ISZERO MUL OR SWAP1 SSTORE POP PUSH2 0xD87 PUSH2 0x10C8 JUMP JUMPDEST PUSH20 0xFFFFFFFFFFFFFFFFFFFFFFFFFFFFFFFFFFFFFFFF AND DUP3 PUSH20 0xFFFFFFFFFFFFFFFFFFFFFFFFFFFFFFFFFFFFFFFF AND DUP5 PUSH32 0x2F8788117E7EFF1D82E926EC794901D17C78024A50270940304540A733656F0D PUSH1 0x40 MLOAD PUSH1 0x40 MLOAD DUP1 SWAP2 SUB SWAP1 LOG4 PUSH1 0x1 SWAP1 POP PUSH2 0xDEE JUMP JUMPDEST PUSH0 SWAP1 POP JUMPDEST SWAP3 SWAP2 POP POP JUMP JUMPDEST PUSH2 0xE6E DUP4 DUP5 PUSH20 0xFFFFFFFFFFFFFFFFFFFFFFFFFFFFFFFFFFFFFFFF AND PUSH4 0xA9059CBB DUP6 DUP6 PUSH1 0x40 MLOAD PUSH1 0x24 ADD PUSH2 0xE27 SWAP3 SWAP2 SWAP1 PUSH2 0x180E JUMP JUMPDEST PUSH1 0x40 MLOAD PUSH1 0x20 DUP2 DUP4 SUB SUB DUP2 MSTORE SWAP1 PUSH1 0x40 MSTORE SWAP2 POP PUSH1 0xE0 SHL PUSH1 0x20 DUP3 ADD DUP1 MLOAD PUSH28 0xFFFFFFFFFFFFFFFFFFFFFFFFFFFFFFFFFFFFFFFFFFFFFFFFFFFFFFFF DUP4 DUP2 DUP4 AND OR DUP4 MSTORE POP POP POP POP PUSH2 0x1209 JUMP JUMPDEST POP POP POP JUMP JUMPDEST PUSH0 PUSH32 0x0 PUSH20 0xFFFFFFFFFFFFFFFFFFFFFFFFFFFFFFFFFFFFFFFF AND PUSH4 0x24A9D853 PUSH1 0x40 MLOAD DUP2 PUSH4 0xFFFFFFFF AND PUSH1 0xE0 SHL DUP2 MSTORE PUSH1 0x4 ADD PUSH1 0x20 PUSH1 0x40 MLOAD DUP1 DUP4 SUB DUP2 DUP7 GAS STATICCALL ISZERO DUP1 ISZERO PUSH2 0xEDD JUMPI RETURNDATASIZE PUSH0 DUP1 RETURNDATACOPY RETURNDATASIZE PUSH0 REVERT JUMPDEST POP POP POP POP PUSH1 0x40 MLOAD RETURNDATASIZE PUSH1 0x1F NOT PUSH1 0x1F DUP3 ADD AND DUP3 ADD DUP1 PUSH1 0x40 MSTORE POP DUP2 ADD SWAP1 PUSH2 0xF01 SWAP2 SWAP1 PUSH2 0x186C JUMP JUMPDEST SWAP1 POP PUSH0 PUSH32 0x0 PUSH20 0xFFFFFFFFFFFFFFFFFFFFFFFFFFFFFFFFFFFFFFFF AND PUSH4 0xBF628408 PUSH1 0x40 MLOAD DUP2 PUSH4 0xFFFFFFFF AND PUSH1 0xE0 SHL DUP2 MSTORE PUSH1 0x4 ADD PUSH1 0x20 PUSH1 0x40 MLOAD DUP1 DUP4 SUB DUP2 DUP7 GAS STATICCALL ISZERO DUP1 ISZERO PUSH2 0xF6D JUMPI RETURNDATASIZE PUSH0 DUP1 RETURNDATACOPY RETURNDATASIZE PUSH0 REVERT JUMPDEST POP POP POP POP PUSH1 0x40 MLOAD RETURNDATASIZE PUSH1 0x1F NOT PUSH1 0x1F DUP3 ADD AND DUP3 ADD DUP1 PUSH1 0x40 MSTORE POP DUP2 ADD SWAP1 PUSH2 0xF91 SWAP2 SWAP1 PUSH2 0x18AB JUMP JUMPDEST SWAP1 POP PUSH0 DUP4 PUSH1 0x3 ADD SLOAD SWAP1 POP PUSH0 PUSH2 0x2710 DUP5 PUSH2 0xFFFF AND DUP4 PUSH2 0xFAF SWAP2 SWAP1 PUSH2 0x18D6 JUMP JUMPDEST PUSH2 0xFB9 SWAP2 SWAP1 PUSH2 0x1944 JUMP JUMPDEST SWAP1 POP PUSH0 DUP2 DUP4 PUSH2 0xFC8 SWAP2 SWAP1 PUSH2 0x1974 JUMP JUMPDEST SWAP1 POP PUSH2 0x1015 DUP5 DUP4 PUSH32 0x0 PUSH20 0xFFFFFFFFFFFFFFFFFFFFFFFFFFFFFFFFFFFFFFFF AND PUSH2 0xDF4 SWAP1 SWAP3 SWAP2 SWAP1 PUSH4 0xFFFFFFFF AND JUMP JUMPDEST PUSH2 0x1083 DUP7 PUSH1 0x4 ADD PUSH0 SWAP1 SLOAD SWAP1 PUSH2 0x100 EXP SWAP1 DIV PUSH20 0xFFFFFFFFFFFFFFFFFFFFFFFFFFFFFFFFFFFFFFFF AND DUP3 PUSH32 0x0 PUSH20 0xFFFFFFFFFFFFFFFFFFFFFFFFFFFFFFFFFFFFFFFF AND PUSH2 0xDF4 SWAP1 SWAP3 SWAP2 SWAP1 PUSH4 0xFFFFFFFF AND JUMP JUMPDEST DUP6 PUSH0 ADD SLOAD PUSH32 0x3C70B1E8034B5738EC77FBFDAA4D28906A0B3160018D67A2DC7B534E53E33FE0 DUP3 DUP5 PUSH1 0x40 MLOAD PUSH2 0x10B8 SWAP3 SWAP2 SWAP1 PUSH2 0x19A7 JUMP JUMPDEST PUSH1 0x40 MLOAD DUP1 SWAP2 SUB SWAP1 LOG2 POP POP POP POP POP POP JUMP JUMPDEST PUSH0 CALLER SWAP1 POP SWAP1 JUMP JUMPDEST PUSH0 PUSH2 0x10DA DUP4 DUP4 PUSH2 0x9CB JUMP JUMPDEST ISZERO PUSH2 0x11AE JUMPI PUSH0 DUP1 PUSH0 DUP6 DUP2 MSTORE PUSH1 0x20 ADD SWAP1 DUP2 MSTORE PUSH1 0x20 ADD PUSH0 KECCAK256 PUSH0 ADD PUSH0 DUP5 PUSH20 0xFFFFFFFFFFFFFFFFFFFFFFFFFFFFFFFFFFFFFFFF AND PUSH20 0xFFFFFFFFFFFFFFFFFFFFFFFFFFFFFFFFFFFFFFFF AND DUP2 MSTORE PUSH1 0x20 ADD SWAP1 DUP2 MSTORE PUSH1 0x20 ADD PUSH0 KECCAK256 PUSH0 PUSH2 0x100 EXP DUP2 SLOAD DUP2 PUSH1 0xFF MUL NOT AND SWAP1 DUP4 ISZERO ISZERO MUL OR SWAP1 SSTORE POP PUSH2 0x114B PUSH2 0x10C8 JUMP JUMPDEST PUSH20 0xFFFFFFFFFFFFFFFFFFFFFFFFFFFFFFFFFFFFFFFF AND DUP3 PUSH20 0xFFFFFFFFFFFFFFFFFFFFFFFFFFFFFFFFFFFFFFFF AND DUP5 PUSH32 0xF6391F5C32D9C69D2A47EA670B442974B53935D1EDC7FD64EB21E047A839171B PUSH1 0x40 MLOAD PUSH1 0x40 MLOAD DUP1 SWAP2 SUB SWAP1 LOG4 PUSH1 0x1 SWAP1 POP PUSH2 0x11B2 JUMP JUMPDEST PUSH0 SWAP1 POP JUMPDEST SWAP3 SWAP2 POP POP JUMP JUMPDEST PUSH2 0x11C2 DUP3 DUP3 PUSH2 0x9CB JUMP JUMPDEST PUSH2 0x1205 JUMPI DUP1 DUP3 PUSH1 0x40 MLOAD PUSH32 0xE2517D3F00000000000000000000000000000000000000000000000000000000 DUP2 MSTORE PUSH1 0x4 ADD PUSH2 0x11FC SWAP3 SWAP2 SWAP1 PUSH2 0x19CE JUMP JUMPDEST PUSH1 0x40 MLOAD DUP1 SWAP2 SUB SWAP1 REVERT JUMPDEST POP POP JUMP JUMPDEST PUSH0 DUP1 PUSH1 0x20 PUSH0 DUP5 MLOAD PUSH1 0x20 DUP7 ADD PUSH0 DUP9 GAS CALL DUP1 PUSH2 0x1228 JUMPI PUSH1 0x40 MLOAD RETURNDATASIZE PUSH0 DUP3 RETURNDATACOPY RETURNDATASIZE DUP2 REVERT JUMPDEST RETURNDATASIZE SWAP3 POP PUSH0 MLOAD SWAP2 POP POP PUSH0 DUP3 EQ PUSH2 0x1241 JUMPI PUSH1 0x1 DUP2 EQ ISZERO PUSH2 0x125C JUMP JUMPDEST PUSH0 DUP5 PUSH20 0xFFFFFFFFFFFFFFFFFFFFFFFFFFFFFFFFFFFFFFFF AND EXTCODESIZE EQ JUMPDEST ISZERO PUSH2 0x129E JUMPI DUP4 PUSH1 0x40 MLOAD PUSH32 0x5274AFE700000000000000000000000000000000000000000000000000000000 DUP2 MSTORE PUSH1 0x4 ADD PUSH2 0x1295 SWAP2 SWAP1 PUSH2 0x19F5 JUMP JUMPDEST PUSH1 0x40 MLOAD DUP1 SWAP2 SUB SWAP1 REVERT JUMPDEST POP POP POP POP JUMP JUMPDEST PUSH0 DUP1 REVERT JUMPDEST PUSH0 DUP2 SWAP1 POP SWAP2 SWAP1 POP JUMP JUMPDEST PUSH2 0x12BA DUP2 PUSH2 0x12A8 JUMP JUMPDEST DUP2 EQ PUSH2 0x12C4 JUMPI PUSH0 DUP1 REVERT JUMPDEST POP JUMP JUMPDEST PUSH0 DUP2 CALLDATALOAD SWAP1 POP PUSH2 0x12D5 DUP2 PUSH2 0x12B1 JUMP JUMPDEST SWAP3 SWAP2 POP POP JUMP JUMPDEST PUSH0 PUSH1 0x20 DUP3 DUP5 SUB SLT ISZERO PUSH2 0x12F0 JUMPI PUSH2 0x12EF PUSH2 0x12A4 JUMP JUMPDEST JUMPDEST PUSH0 PUSH2 0x12FD DUP5 DUP3 DUP6 ADD PUSH2 0x12C7 JUMP JUMPDEST SWAP2 POP POP SWAP3 SWAP2 POP POP JUMP JUMPDEST PUSH2 0x130F DUP2 PUSH2 0x12A8 JUMP JUMPDEST DUP3 MSTORE POP POP JUMP JUMPDEST PUSH0 PUSH20 0xFFFFFFFFFFFFFFFFFFFFFFFFFFFFFFFFFFFFFFFF DUP3 AND SWAP1 POP SWAP2 SWAP1 POP JUMP JUMPDEST PUSH0 PUSH2 0x133E DUP3 PUSH2 0x1315 JUMP JUMPDEST SWAP1 POP SWAP2 SWAP1 POP JUMP JUMPDEST PUSH2 0x134E DUP2 PUSH2 0x1334 JUMP JUMPDEST DUP3 MSTORE POP POP JUMP JUMPDEST PUSH32 0x4E487B7100000000000000000000000000000000000000000000000000000000 PUSH0 MSTORE PUSH1 0x21 PUSH1 0x4 MSTORE PUSH1 0x24 PUSH0 REVERT JUMPDEST PUSH1 0x4 DUP2 LT PUSH2 0x1392 JUMPI PUSH2 0x1391 PUSH2 0x1354 JUMP JUMPDEST JUMPDEST POP JUMP JUMPDEST PUSH0 DUP2 SWAP1 POP PUSH2 0x13A2 DUP3 PUSH2 0x1381 JUMP JUMPDEST SWAP2 SWAP1 POP JUMP JUMPDEST PUSH0 PUSH2 0x13B1 DUP3 PUSH2 0x1395 JUMP JUMPDEST SWAP1 POP SWAP2 SWAP1 POP JUMP JUMPDEST PUSH2 0x13C1 DUP2 PUSH2 0x13A7 JUMP JUMPDEST DUP3 MSTORE POP POP JUMP JUMPDEST PUSH0 PUSH1 0xE0 DUP3 ADD SWAP1 POP PUSH2 0x13DA PUSH0 DUP4 ADD DUP11 PUSH2 0x1306 JUMP JUMPDEST PUSH2 0x13E7 PUSH1 0x20 DUP4 ADD DUP10 PUSH2 0x1345 JUMP JUMPDEST PUSH2 0x13F4 PUSH1 0x40 DUP4 ADD DUP9 PUSH2 0x1306 JUMP JUMPDEST PUSH2 0x1401 PUSH1 0x60 DUP4 ADD DUP8 PUSH2 0x1306 JUMP JUMPDEST PUSH2 0x140E PUSH1 0x80 DUP4 ADD DUP7 PUSH2 0x1345 JUMP JUMPDEST PUSH2 0x141B PUSH1 0xA0 DUP4 ADD DUP6 PUSH2 0x1306 JUMP JUMPDEST PUSH2 0x1428 PUSH1 0xC0 DUP4 ADD DUP5 PUSH2 0x13B8 JUMP JUMPDEST SWAP9 SWAP8 POP POP POP POP POP POP POP POP JUMP JUMPDEST PUSH0 PUSH32 0xFFFFFFFF00000000000000000000000000000000000000000000000000000000 DUP3 AND SWAP1 POP SWAP2 SWAP1 POP JUMP JUMPDEST PUSH2 0x1468 DUP2 PUSH2 0x1434 JUMP JUMPDEST DUP2 EQ PUSH2 0x1472 JUMPI PUSH0 DUP1 REVERT JUMPDEST POP JUMP JUMPDEST PUSH0 DUP2 CALLDATALOAD SWAP1 POP PUSH2 0x1483 DUP2 PUSH2 0x145F JUMP JUMPDEST SWAP3 SWAP2 POP POP JUMP JUMPDEST PUSH0 PUSH1 0x20 DUP3 DUP5 SUB SLT ISZERO PUSH2 0x149E JUMPI PUSH2 0x149D PUSH2 0x12A4 JUMP JUMPDEST JUMPDEST PUSH0 PUSH2 0x14AB DUP5 DUP3 DUP6 ADD PUSH2 0x1475 JUMP JUMPDEST SWAP2 POP POP SWAP3 SWAP2 POP POP JUMP JUMPDEST PUSH0 DUP2 ISZERO ISZERO SWAP1 POP SWAP2 SWAP1 POP JUMP JUMPDEST PUSH2 0x14C8 DUP2 PUSH2 0x14B4 JUMP JUMPDEST DUP3 MSTORE POP POP JUMP JUMPDEST PUSH0 PUSH1 0x20 DUP3 ADD SWAP1 POP PUSH2 0x14E1 PUSH0 DUP4 ADD DUP5 PUSH2 0x14BF JUMP JUMPDEST SWAP3 SWAP2 POP POP JUMP JUMPDEST PUSH0 DUP2 SWAP1 POP SWAP2 SWAP1 POP JUMP JUMPDEST PUSH2 0x14F9 DUP2 PUSH2 0x14E7 JUMP JUMPDEST DUP2 EQ PUSH2 0x1503 JUMPI PUSH0 DUP1 REVERT JUMPDEST POP JUMP JUMPDEST PUSH0 DUP2 CALLDATALOAD SWAP1 POP PUSH2 0x1514 DUP2 PUSH2 0x14F0 JUMP JUMPDEST SWAP3 SWAP2 POP POP JUMP JUMPDEST PUSH0 PUSH1 0x20 DUP3 DUP5 SUB SLT ISZERO PUSH2 0x152F JUMPI PUSH2 0x152E PUSH2 0x12A4 JUMP JUMPDEST JUMPDEST PUSH0 PUSH2 0x153C DUP5 DUP3 DUP6 ADD PUSH2 0x1506 JUMP JUMPDEST SWAP2 POP POP SWAP3 SWAP2 POP POP JUMP JUMPDEST PUSH2 0x154E DUP2 PUSH2 0x14E7 JUMP JUMPDEST DUP3 MSTORE POP POP JUMP JUMPDEST PUSH0 PUSH1 0x20 DUP3 ADD SWAP1 POP PUSH2 0x1567 PUSH0 DUP4 ADD DUP5 PUSH2 0x1545 JUMP JUMPDEST SWAP3 SWAP2 POP POP JUMP JUMPDEST PUSH2 0x1576 DUP2 PUSH2 0x1334 JUMP JUMPDEST DUP2 EQ PUSH2 0x1580 JUMPI PUSH0 DUP1 REVERT JUMPDEST POP JUMP JUMPDEST PUSH0 DUP2 CALLDATALOAD SWAP1 POP PUSH2 0x1591 DUP2 PUSH2 0x156D JUMP JUMPDEST SWAP3 SWAP2 POP POP JUMP JUMPDEST PUSH0 DUP1 PUSH1 0x40 DUP4 DUP6 SUB SLT ISZERO PUSH2 0x15AD JUMPI PUSH2 0x15AC PUSH2 0x12A4 JUMP JUMPDEST JUMPDEST PUSH0 PUSH2 0x15BA DUP6 DUP3 DUP7 ADD PUSH2 0x1506 JUMP JUMPDEST SWAP3 POP POP PUSH1 0x20 PUSH2 0x15CB DUP6 DUP3 DUP7 ADD PUSH2 0x1583 JUMP JUMPDEST SWAP2 POP POP SWAP3 POP SWAP3 SWAP1 POP JUMP JUMPDEST PUSH2 0x15DE DUP2 PUSH2 0x14B4 JUMP JUMPDEST DUP2 EQ PUSH2 0x15E8 JUMPI PUSH0 DUP1 REVERT JUMPDEST POP JUMP JUMPDEST PUSH0 DUP2 CALLDATALOAD SWAP1 POP PUSH2 0x15F9 DUP2 PUSH2 0x15D5 JUMP JUMPDEST SWAP3 SWAP2 POP POP JUMP JUMPDEST PUSH0 DUP1 PUSH1 0x40 DUP4 DUP6 SUB SLT ISZERO PUSH2 0x1615 JUMPI PUSH2 0x1614 PUSH2 0x12A4 JUMP JUMPDEST JUMPDEST PUSH0 PUSH2 0x1622 DUP6 DUP3 DUP7 ADD PUSH2 0x12C7 JUMP JUMPDEST SWAP3 POP POP PUSH1 0x20 PUSH2 0x1633 DUP6 DUP3 DUP7 ADD PUSH2 0x15EB JUMP JUMPDEST SWAP2 POP POP SWAP3 POP SWAP3 SWAP1 POP JUMP JUMPDEST PUSH0 DUP2 SWAP1 POP SWAP2 SWAP1 POP JUMP JUMPDEST PUSH0 PUSH2 0x1660 PUSH2 0x165B PUSH2 0x1656 DUP5 PUSH2 0x1315 JUMP JUMPDEST PUSH2 0x163D JUMP JUMPDEST PUSH2 0x1315 JUMP JUMPDEST SWAP1 POP SWAP2 SWAP1 POP JUMP JUMPDEST PUSH0 PUSH2 0x1671 DUP3 PUSH2 0x1646 JUMP JUMPDEST SWAP1 POP SWAP2 SWAP1 POP JUMP JUMPDEST PUSH0 PUSH2 0x1682 DUP3 PUSH2 0x1667 JUMP JUMPDEST SWAP1 POP SWAP2 SWAP1 POP JUMP JUMPDEST PUSH2 0x1692 DUP2 PUSH2 0x1678 JUMP JUMPDEST DUP3 MSTORE POP POP JUMP JUMPDEST PUSH0 PUSH1 0x20 DUP3 ADD SWAP1 POP PUSH2 0x16AB PUSH0 DUP4 ADD DUP5 PUSH2 0x1689 JUMP JUMPDEST SWAP3 SWAP2 POP POP JUMP JUMPDEST PUSH0 PUSH2 0x16BB DUP3 PUSH2 0x1667 JUMP JUMPDEST SWAP1 POP SWAP2 SWAP1 POP JUMP JUMPDEST PUSH2 0x16CB DUP2 PUSH2 0x16B1 JUMP JUMPDEST DUP3 MSTORE POP POP JUMP JUMPDEST PUSH0 PUSH1 0x20 DUP3 ADD SWAP1 POP PUSH2 0x16E4 PUSH0 DUP4 ADD DUP5 PUSH2 0x16C2 JUMP JUMPDEST SWAP3 SWAP2 POP POP JUMP JUMPDEST PUSH0 DUP1 PUSH0 DUP1 PUSH1 0x80 DUP6 DUP8 SUB SLT ISZERO PUSH2 0x1702 JUMPI PUSH2 0x1701 PUSH2 0x12A4 JUMP JUMPDEST JUMPDEST PUSH0 PUSH2 0x170F DUP8 DUP3 DUP9 ADD PUSH2 0x12C7 JUMP JUMPDEST SWAP5 POP POP PUSH1 0x20 PUSH2 0x1720 DUP8 DUP3 DUP9 ADD PUSH2 0x1583 JUMP JUMPDEST SWAP4 POP POP PUSH1 0x40 PUSH2 0x1731 DUP8 DUP3 DUP9 ADD PUSH2 0x12C7 JUMP JUMPDEST SWAP3 POP POP PUSH1 0x60 PUSH2 0x1742 DUP8 DUP3 DUP9 ADD PUSH2 0x1583 JUMP JUMPDEST SWAP2 POP POP SWAP3 SWAP6 SWAP2 SWAP5 POP SWAP3 POP JUMP JUMPDEST PUSH0 PUSH1 0x20 DUP3 ADD SWAP1 POP PUSH2 0x1761 PUSH0 DUP4 ADD DUP5 PUSH2 0x1306 JUMP JUMPDEST SWAP3 SWAP2 POP POP JUMP JUMPDEST PUSH32 0x4E487B7100000000000000000000000000000000000000000000000000000000 PUSH0 MSTORE PUSH1 0x11 PUSH1 0x4 MSTORE PUSH1 0x24 PUSH0 REVERT JUMPDEST PUSH0 PUSH2 0x179E DUP3 PUSH2 0x12A8 JUMP JUMPDEST SWAP2 POP PUSH32 0xFFFFFFFFFFFFFFFFFFFFFFFFFFFFFFFFFFFFFFFFFFFFFFFFFFFFFFFFFFFFFFFF DUP3 SUB PUSH2 0x17D0 JUMPI PUSH2 0x17CF PUSH2 0x1767 JUMP JUMPDEST JUMPDEST PUSH1 0x1 DUP3 ADD SWAP1 POP SWAP2 SWAP1 POP JUMP JUMPDEST PUSH0 PUSH2 0x17E5 DUP3 PUSH2 0x12A8 JUMP JUMPDEST SWAP2 POP PUSH2 0x17F0 DUP4 PUSH2 0x12A8 JUMP JUMPDEST SWAP3 POP DUP3 DUP3 ADD SWAP1 POP DUP1 DUP3 GT ISZERO PUSH2 0x1808 JUMPI PUSH2 0x1807 PUSH2 0x1767 JUMP JUMPDEST JUMPDEST SWAP3 SWAP2 POP POP JUMP JUMPDEST PUSH0 PUSH1 0x40 DUP3 ADD SWAP1 POP PUSH2 0x1821 PUSH0 DUP4 ADD DUP6 PUSH2 0x1345 JUMP JUMPDEST PUSH2 0x182E PUSH1 0x20 DUP4 ADD DUP5 PUSH2 0x1306 JUMP JUMPDEST SWAP4 SWAP3 POP POP POP JUMP JUMPDEST PUSH0 PUSH2 0xFFFF DUP3 AND SWAP1 POP SWAP2 SWAP1 POP JUMP JUMPDEST PUSH2 0x184B DUP2 PUSH2 0x1835 JUMP JUMPDEST DUP2 EQ PUSH2 0x1855 JUMPI PUSH0 DUP1 REVERT JUMPDEST POP JUMP JUMPDEST PUSH0 DUP2 MLOAD SWAP1 POP PUSH2 0x1866 DUP2 PUSH2 0x1842 JUMP JUMPDEST SWAP3 SWAP2 POP POP JUMP JUMPDEST PUSH0 PUSH1 0x20 DUP3 DUP5 SUB SLT ISZERO PUSH2 0x1881 JUMPI PUSH2 0x1880 PUSH2 0x12A4 JUMP JUMPDEST JUMPDEST PUSH0 PUSH2 0x188E DUP5 DUP3 DUP6 ADD PUSH2 0x1858 JUMP JUMPDEST SWAP2 POP POP SWAP3 SWAP2 POP POP JUMP JUMPDEST PUSH0 DUP2 MLOAD SWAP1 POP PUSH2 0x18A5 DUP2 PUSH2 0x156D JUMP JUMPDEST SWAP3 SWAP2 POP POP JUMP JUMPDEST PUSH0 PUSH1 0x20 DUP3 DUP5 SUB SLT ISZERO PUSH2 0x18C0 JUMPI PUSH2 0x18BF PUSH2 0x12A4 JUMP JUMPDEST JUMPDEST PUSH0 PUSH2 0x18CD DUP5 DUP3 DUP6 ADD PUSH2 0x1897 JUMP JUMPDEST SWAP2 POP POP SWAP3 SWAP2 POP POP JUMP JUMPDEST PUSH0 PUSH2 0x18E0 DUP3 PUSH2 0x12A8 JUMP JUMPDEST SWAP2 POP PUSH2 0x18EB DUP4 PUSH2 0x12A8 JUMP JUMPDEST SWAP3 POP DUP3 DUP3 MUL PUSH2 0x18F9 DUP2 PUSH2 0x12A8 JUMP JUMPDEST SWAP2 POP DUP3 DUP3 DIV DUP5 EQ DUP4 ISZERO OR PUSH2 0x1910 JUMPI PUSH2 0x190F PUSH2 0x1767 JUMP JUMPDEST JUMPDEST POP SWAP3 SWAP2 POP POP JUMP JUMPDEST PUSH32 0x4E487B7100000000000000000000000000000000000000000000000000000000 PUSH0 MSTORE PUSH1 0x12 PUSH1 0x4 MSTORE PUSH1 0x24 PUSH0 REVERT JUMPDEST PUSH0 PUSH2 0x194E DUP3 PUSH2 0x12A8 JUMP JUMPDEST SWAP2 POP PUSH2 0x1959 DUP4 PUSH2 0x12A8 JUMP JUMPDEST SWAP3 POP DUP3 PUSH2 0x1969 JUMPI PUSH2 0x1968 PUSH2 0x1917 JUMP JUMPDEST JUMPDEST DUP3 DUP3 DIV SWAP1 POP SWAP3 SWAP2 POP POP JUMP JUMPDEST PUSH0 PUSH2 0x197E DUP3 PUSH2 0x12A8 JUMP JUMPDEST SWAP2 POP PUSH2 0x1989 DUP4 PUSH2 0x12A8 JUMP JUMPDEST SWAP3 POP DUP3 DUP3 SUB SWAP1 POP DUP2 DUP2 GT ISZERO PUSH2 0x19A1 JUMPI PUSH2 0x19A0 PUSH2 0x1767 JUMP JUMPDEST JUMPDEST SWAP3 SWAP2 POP POP JUMP JUMPDEST PUSH0 PUSH1 0x40 DUP3 ADD SWAP1 POP PUSH2 0x19BA PUSH0 DUP4 ADD DUP6 PUSH2 0x1306 JUMP JUMPDEST PUSH2 0x19C7 PUSH1 0x20 DUP4 ADD DUP5 PUSH2 0x1306 JUMP JUMPDEST SWAP4 SWAP3 POP POP POP JUMP JUMPDEST PUSH0 PUSH1 0x40 DUP3 ADD SWAP1 POP PUSH2 0x19E1 PUSH0 DUP4 ADD DUP6 PUSH2 0x1345 JUMP JUMPDEST PUSH2 0x19EE PUSH1 0x20 DUP4 ADD DUP5 PUSH2 0x1545 JUMP JUMPDEST SWAP4 SWAP3 POP POP POP JUMP JUMPDEST PUSH0 PUSH1 0x20 DUP3 ADD SWAP1 POP PUSH2 0x1A08 PUSH0 DUP4 ADD DUP5 PUSH2 0x1345 JUMP JUMPDEST SWAP3 SWAP2 POP POP JUMP INVALID LOG2 PUSH5 0x6970667358 0x22 SLT KECCAK256 0xC2 0xCF SWAP13 PC PREVRANDAO DUP15 PUSH25 0x312D05779CB88EA3F9D0A466D5A64312957702DF16B59B6D54 PUSH5 0x736F6C6343 STOP ADDMOD EQ STOP CALLER "
				},
				"gasEstimates": {
					"creation": {
						"codeDepositCost": "1344800",
						"executionCost": "infinite",
						"totalCost": "infinite"
					},
					"external": {
						"ARBITER_ROLE()": "370",
						"DEFAULT_ADMIN_ROLE()": "352",
						"HOLD_PERIOD()": "435",
						"VERIFIER_ROLE()": "413",
						"escrows(uint256)": "infinite",
						"feeTreasury()": "infinite",
						"getRoleAdmin(bytes32)": "infinite",
						"grantRole(bytes32,address)": "infinite",
						"hasRole(bytes32,address)": "3211",
						"holdPayment(uint256,address,uint256,address)": "infinite",
						"openDispute(uint256)": "32547",
						"release(uint256)": "infinite",
						"renounceRole(bytes32,address)": "infinite",
						"resolveDispute(uint256,bool)": "infinite",
						"revokeRole(bytes32,address)": "infinite",
						"supportsInterface(bytes4)": "763",
						"usdc()": "infinite"
					},
					"internal": {
						"_splitAndSend(struct Escrow.EscrowItem storage pointer)": "infinite"
					}
				},
				"methodIdentifiers": {
					"ARBITER_ROLE()": "4d104adf",
					"DEFAULT_ADMIN_ROLE()": "a217fddf",
					"HOLD_PERIOD()": "e86ca065",
					"VERIFIER_ROLE()": "e7705db6",
					"escrows(uint256)": "012f52ee",
					"feeTreasury()": "60dc2340",
					"getRoleAdmin(bytes32)": "248a9ca3",
					"grantRole(bytes32,address)": "2f2ff15d",
					"hasRole(bytes32,address)": "91d14854",
					"holdPayment(uint256,address,uint256,address)": "e317ce7a",
					"openDispute(uint256)": "27d00fb0",
					"release(uint256)": "37bdc99b",
					"renounceRole(bytes32,address)": "36568abe",
					"resolveDispute(uint256,bool)": "34b25ee2",
					"revokeRole(bytes32,address)": "d547741f",
					"supportsInterface(bytes4)": "01ffc9a7",
					"usdc()": "3e413bee"
				}
			},
			"storageLayout": {
				"storage": [
					{
						"astId": 27,
						"contract": "contracts/Escrow.sol:Escrow",
						"label": "_roles",
						"offset": 0,
						"slot": "0",
						"type": "t_mapping(t_bytes32,t_struct(RoleData)22_storage)"
					},
					{
						"astId": 1132,
						"contract": "contracts/Escrow.sol:Escrow",
						"label": "escrows",
						"offset": 0,
						"slot": "1",
						"type": "t_mapping(t_uint256,t_struct(EscrowItem)1111_storage)"
					},
					{
						"astId": 1134,
						"contract": "contracts/Escrow.sol:Escrow",
						"label": "_escrowIdCounter",
						"offset": 0,
						"slot": "2",
						"type": "t_uint256"
					}
				],
				"types": {
					"t_address": {
						"encoding": "inplace",
						"label": "address",
						"numberOfBytes": "20"
					},
					"t_bool": {
						"encoding": "inplace",
						"label": "bool",
						"numberOfBytes": "1"
					},
					"t_bytes32": {
						"encoding": "inplace",
						"label": "bytes32",
						"numberOfBytes": "32"
					},
					"t_enum(Status)1095": {
						"encoding": "inplace",
						"label": "enum Escrow.Status",
						"numberOfBytes": "1"
					},
					"t_mapping(t_address,t_bool)": {
						"encoding": "mapping",
						"key": "t_address",
						"label": "mapping(address => bool)",
						"numberOfBytes": "32",
						"value": "t_bool"
					},
					"t_mapping(t_bytes32,t_struct(RoleData)22_storage)": {
						"encoding": "mapping",
						"key": "t_bytes32",
						"label": "mapping(bytes32 => struct AccessControl.RoleData)",
						"numberOfBytes": "32",
						"value": "t_struct(RoleData)22_storage"
					},
					"t_mapping(t_uint256,t_struct(EscrowItem)1111_storage)": {
						"encoding": "mapping",
						"key": "t_uint256",
						"label": "mapping(uint256 => struct Escrow.EscrowItem)",
						"numberOfBytes": "32",
						"value": "t_struct(EscrowItem)1111_storage"
					},
					"t_struct(EscrowItem)1111_storage": {
						"encoding": "inplace",
						"label": "struct Escrow.EscrowItem",
						"members": [
							{
								"astId": 1097,
								"contract": "contracts/Escrow.sol:Escrow",
								"label": "id",
								"offset": 0,
								"slot": "0",
								"type": "t_uint256"
							},
							{
								"astId": 1099,
								"contract": "contracts/Escrow.sol:Escrow",
								"label": "user",
								"offset": 0,
								"slot": "1",
								"type": "t_address"
							},
							{
								"astId": 1101,
								"contract": "contracts/Escrow.sol:Escrow",
								"label": "assetId",
								"offset": 0,
								"slot": "2",
								"type": "t_uint256"
							},
							{
								"astId": 1103,
								"contract": "contracts/Escrow.sol:Escrow",
								"label": "amount",
								"offset": 0,
								"slot": "3",
								"type": "t_uint256"
							},
							{
								"astId": 1105,
								"contract": "contracts/Escrow.sol:Escrow",
								"label": "paymentSplitter",
								"offset": 0,
								"slot": "4",
								"type": "t_address"
							},
							{
								"astId": 1107,
								"contract": "contracts/Escrow.sol:Escrow",
								"label": "releaseTime",
								"offset": 0,
								"slot": "5",
								"type": "t_uint256"
							},
							{
								"astId": 1110,
								"contract": "contracts/Escrow.sol:Escrow",
								"label": "status",
								"offset": 0,
								"slot": "6",
								"type": "t_enum(Status)1095"
							}
						],
						"numberOfBytes": "224"
					},
					"t_struct(RoleData)22_storage": {
						"encoding": "inplace",
						"label": "struct AccessControl.RoleData",
						"members": [
							{
								"astId": 19,
								"contract": "contracts/Escrow.sol:Escrow",
								"label": "hasRole",
								"offset": 0,
								"slot": "0",
								"type": "t_mapping(t_address,t_bool)"
							},
							{
								"astId": 21,
								"contract": "contracts/Escrow.sol:Escrow",
								"label": "adminRole",
								"offset": 0,
								"slot": "1",
								"type": "t_bytes32"
							}
						],
						"numberOfBytes": "64"
					},
					"t_uint256": {
						"encoding": "inplace",
						"label": "uint256",
						"numberOfBytes": "32"
					}
				}
			},
			"userdoc": {
				"kind": "user",
				"methods": {
					"holdPayment(uint256,address,uint256,address)": {
						"notice": "Holds a payment in escrow."
					},
					"openDispute(uint256)": {
						"notice": "Opens a dispute for a payment held in escrow."
					},
					"release(uint256)": {
						"notice": "Releases a payment after the hold period is over."
					},
					"resolveDispute(uint256,bool)": {
						"notice": "Resolves a dispute."
					}
				},
				"notice": "Holds payments temporarily to allow for disputes. Integrates with FeeTreasury to split protocol fees on successful payments.",
				"version": 1
			}
		}
	}
}