{
	"contracts/RegistryRouter.sol": {
		"RegistryRouter": {
			"abi": [
				{
					"inputs": [
						{
							"internalType": "address",
							"name": "_assetToken",
							"type": "address"
						},
						{
							"internalType": "address",
							"name": "_contributorRegistry",
							"type": "address"
						},
						{
							"internalType": "address",
							"name": "_provenanceGraph",
							"type": "address"
						},
						{
							"internalType": "address",
							"name": "_royaltySplitFactory",
							"type": "address"
						}
					],
					"stateMutability": "nonpayable",
					"type": "constructor"
				},
				{
					"inputs": [],
					"name": "ZeroAddress",
					"type": "error"
				},
				{
					"inputs": [],
					"name": "assetToken",
					"outputs": [
						{
							"internalType": "contract IAssetToken",
							"name": "",
							"type": "address"
						}
					],
					"stateMutability": "view",
					"type": "function"
				},
				{
					"inputs": [],
					"name": "contributorRegistry",
					"outputs": [
						{
							"internalType": "contract IContributorRegistry",
							"name": "",
							"type": "address"
						}
					],
					"stateMutability": "view",
					"type": "function"
				},
				{
					"inputs": [
						{
							"internalType": "uint256",
							"name": "_assetId",
							"type": "uint256"
						}
					],
					"name": "getAssetFullDetails",
					"outputs": [
						{
							"components": [
								{
									"internalType": "address",
									"name": "owner",
									"type": "address"
								},
								{
									"internalType": "string",
									"name": "metadataURI",
									"type": "string"
								},
								{
									"internalType": "uint256",
									"name": "licenseId",
									"type": "uint256"
								},
								{
									"internalType": "bool",
									"name": "isFinalized",
									"type": "bool"
								},
								{
									"internalType": "address",
									"name": "paymentSplitter",
									"type": "address"
								},
								{
									"components": [
										{
											"internalType": "address",
											"name": "target",
											"type": "address"
										},
										{
											"internalType": "uint16",
											"name": "weightBps",
											"type": "uint16"
										}
									],
									"internalType": "struct IProvenanceGraph.Edge[]",
									"name": "contributorEdges",
									"type": "tuple[]"
								},
								{
									"components": [
										{
											"internalType": "address",
											"name": "target",
											"type": "address"
										},
										{
											"internalType": "uint16",
											"name": "weightBps",
											"type": "uint16"
										}
									],
									"internalType": "struct IProvenanceGraph.Edge[]",
									"name": "parentEdges",
									"type": "tuple[]"
								}
							],
							"internalType": "struct RegistryRouter.AssetFullDetails",
							"name": "",
							"type": "tuple"
						}
					],
					"stateMutability": "view",
					"type": "function"
				},
				{
					"inputs": [
						{
							"internalType": "address",
							"name": "_contributor",
							"type": "address"
						}
					],
					"name": "getContributorDetails",
					"outputs": [
						{
							"components": [
								{
									"internalType": "string",
									"name": "profileURI",
									"type": "string"
								}
							],
							"internalType": "struct RegistryRouter.ContributorDetails",
							"name": "",
							"type": "tuple"
						}
					],
					"stateMutability": "view",
					"type": "function"
				},
				{
					"inputs": [],
					"name": "provenanceGraph",
					"outputs": [
						{
							"internalType": "contract IProvenanceGraph",
							"name": "",
							"type": "address"
						}
					],
					"stateMutability": "view",
					"type": "function"
				},
				{
					"inputs": [],
					"name": "royaltySplitFactory",
					"outputs": [
						{
							"internalType": "contract IRoyaltySplitFactory",
							"name": "",
							"type": "address"
						}
					],
					"stateMutability": "view",
					"type": "function"
				}
			],
			"devdoc": {
				"author": "Your Name",
				"details": "This contract simplifies off-chain data fetching by bundling multiple on-chain calls into single, convenient view functions. It is stateless.",
				"kind": "dev",
				"methods": {
					"getAssetFullDetails(uint256)": {
						"params": {
							"_assetId": "The ID of the asset to query."
						},
						"returns": {
							"_0": "A populated AssetFullDetails struct."
						}
					},
					"getContributorDetails(address)": {
						"params": {
							"_contributor": "The address of the contributor."
						},
						"returns": {
							"_0": "A populated ContributorDetails struct."
						}
					}
				},
				"title": "RegistryRouter",
				"version": 1
			},
			"evm": {
				"assembly": "    /* \"contracts/RegistryRouter.sol\":543:4356  contract RegistryRouter {... */\n  mstore(0x40, 0x0100)\n    /* \"contracts/RegistryRouter.sol\":2372:3003  constructor(... */\n  callvalue\n  dup1\n  iszero\n  tag_1\n  jumpi\n  0x00\n  dup1\n  revert\ntag_1:\n  pop\n  mload(0x40)\n  sub(codesize, bytecodeSize)\n  dup1\n  bytecodeSize\n  dup4\n  codecopy\n  dup2\n  dup2\n  add\n  0x40\n  mstore\n  dup2\n  add\n  swap1\n  tag_2\n  swap2\n  swap1\n  tag_3\n  jump\t// in\ntag_2:\n    /* \"contracts/RegistryRouter.sol\":2572:2573  0 */\n  0x00\n    /* \"contracts/RegistryRouter.sol\":2549:2574  _assetToken == address(0) */\n  0xffffffffffffffffffffffffffffffffffffffff\n  and\n    /* \"contracts/RegistryRouter.sol\":2549:2560  _assetToken */\n  dup5\n    /* \"contracts/RegistryRouter.sol\":2549:2574  _assetToken == address(0) */\n  0xffffffffffffffffffffffffffffffffffffffff\n  and\n  eq\n    /* \"contracts/RegistryRouter.sol\":2549:2612  _assetToken == address(0) || _contributorRegistry == address(0) */\n  dup1\n  tag_6\n  jumpi\n  pop\n    /* \"contracts/RegistryRouter.sol\":2610:2611  0 */\n  0x00\n    /* \"contracts/RegistryRouter.sol\":2578:2612  _contributorRegistry == address(0) */\n  0xffffffffffffffffffffffffffffffffffffffff\n  and\n    /* \"contracts/RegistryRouter.sol\":2578:2598  _contributorRegistry */\n  dup4\n    /* \"contracts/RegistryRouter.sol\":2578:2612  _contributorRegistry == address(0) */\n  0xffffffffffffffffffffffffffffffffffffffff\n  and\n  eq\n    /* \"contracts/RegistryRouter.sol\":2549:2612  _assetToken == address(0) || _contributorRegistry == address(0) */\ntag_6:\n    /* \"contracts/RegistryRouter.sol\":2549:2646  _assetToken == address(0) || _contributorRegistry == address(0) || _provenanceGraph == address(0) */\n  dup1\n  tag_7\n  jumpi\n  pop\n    /* \"contracts/RegistryRouter.sol\":2644:2645  0 */\n  0x00\n    /* \"contracts/RegistryRouter.sol\":2616:2646  _provenanceGraph == address(0) */\n  0xffffffffffffffffffffffffffffffffffffffff\n  and\n    /* \"contracts/RegistryRouter.sol\":2616:2632  _provenanceGraph */\n  dup3\n    /* \"contracts/RegistryRouter.sol\":2616:2646  _provenanceGraph == address(0) */\n  0xffffffffffffffffffffffffffffffffffffffff\n  and\n  eq\n    /* \"contracts/RegistryRouter.sol\":2549:2646  _assetToken == address(0) || _contributorRegistry == address(0) || _provenanceGraph == address(0) */\ntag_7:\n    /* \"contracts/RegistryRouter.sol\":2549:2684  _assetToken == address(0) || _contributorRegistry == address(0) || _provenanceGraph == address(0) || _royaltySplitFactory == address(0) */\n  dup1\n  tag_8\n  jumpi\n  pop\n    /* \"contracts/RegistryRouter.sol\":2682:2683  0 */\n  0x00\n    /* \"contracts/RegistryRouter.sol\":2650:2684  _royaltySplitFactory == address(0) */\n  0xffffffffffffffffffffffffffffffffffffffff\n  and\n    /* \"contracts/RegistryRouter.sol\":2650:2670  _royaltySplitFactory */\n  dup2\n    /* \"contracts/RegistryRouter.sol\":2650:2684  _royaltySplitFactory == address(0) */\n  0xffffffffffffffffffffffffffffffffffffffff\n  and\n  eq\n    /* \"contracts/RegistryRouter.sol\":2549:2684  _assetToken == address(0) || _contributorRegistry == address(0) || _provenanceGraph == address(0) || _royaltySplitFactory == address(0) */\ntag_8:\n    /* \"contracts/RegistryRouter.sol\":2545:2733  if (_assetToken == address(0) || _contributorRegistry == address(0) || _provenanceGraph == address(0) || _royaltySplitFactory == address(0)) {... */\n  iszero\n  tag_9\n  jumpi\n    /* \"contracts/RegistryRouter.sol\":2708:2721  ZeroAddress() */\n  mload(0x40)\n  0xd92e233d00000000000000000000000000000000000000000000000000000000\n  dup2\n  mstore\n  0x04\n  add\n  mload(0x40)\n  dup1\n  swap2\n  sub\n  swap1\n  revert\n    /* \"contracts/RegistryRouter.sol\":2545:2733  if (_assetToken == address(0) || _contributorRegistry == address(0) || _provenanceGraph == address(0) || _royaltySplitFactory == address(0)) {... */\ntag_9:\n    /* \"contracts/RegistryRouter.sol\":2770:2781  _assetToken */\n  dup4\n    /* \"contracts/RegistryRouter.sol\":2745:2782  assetToken = IAssetToken(_assetToken) */\n  0xffffffffffffffffffffffffffffffffffffffff\n  and\n  0x80\n  dup2\n  0xffffffffffffffffffffffffffffffffffffffff\n  and\n  dup2\n  mstore\n  pop\n  pop\n    /* \"contracts/RegistryRouter.sol\":2836:2856  _contributorRegistry */\n  dup3\n    /* \"contracts/RegistryRouter.sol\":2793:2857  contributorRegistry = IContributorRegistry(_contributorRegistry) */\n  0xffffffffffffffffffffffffffffffffffffffff\n  and\n  0xa0\n  dup2\n  0xffffffffffffffffffffffffffffffffffffffff\n  and\n  dup2\n  mstore\n  pop\n  pop\n    /* \"contracts/RegistryRouter.sol\":2903:2919  _provenanceGraph */\n  dup2\n    /* \"contracts/RegistryRouter.sol\":2868:2920  provenanceGraph = IProvenanceGraph(_provenanceGraph) */\n  0xffffffffffffffffffffffffffffffffffffffff\n  and\n  0xc0\n  dup2\n  0xffffffffffffffffffffffffffffffffffffffff\n  and\n  dup2\n  mstore\n  pop\n  pop\n    /* \"contracts/RegistryRouter.sol\":2974:2994  _royaltySplitFactory */\n  dup1\n    /* \"contracts/RegistryRouter.sol\":2931:2995  royaltySplitFactory = IRoyaltySplitFactory(_royaltySplitFactory) */\n  0xffffffffffffffffffffffffffffffffffffffff\n  and\n  0xe0\n  dup2\n  0xffffffffffffffffffffffffffffffffffffffff\n  and\n  dup2\n  mstore\n  pop\n  pop\n    /* \"contracts/RegistryRouter.sol\":2372:3003  constructor(... */\n  pop\n  pop\n  pop\n  pop\n    /* \"contracts/RegistryRouter.sol\":543:4356  contract RegistryRouter {... */\n  jump(tag_10)\n    /* \"#utility.yul\":88:205   */\ntag_12:\n    /* \"#utility.yul\":197:198   */\n  0x00\n    /* \"#utility.yul\":194:195   */\n  dup1\n    /* \"#utility.yul\":187:199   */\n  revert\n    /* \"#utility.yul\":334:460   */\ntag_14:\n    /* \"#utility.yul\":371:378   */\n  0x00\n    /* \"#utility.yul\":411:453   */\n  0xffffffffffffffffffffffffffffffffffffffff\n    /* \"#utility.yul\":404:409   */\n  dup3\n    /* \"#utility.yul\":400:454   */\n  and\n    /* \"#utility.yul\":389:454   */\n  swap1\n  pop\n    /* \"#utility.yul\":334:460   */\n  swap2\n  swap1\n  pop\n  jump\t// out\n    /* \"#utility.yul\":466:562   */\ntag_15:\n    /* \"#utility.yul\":503:510   */\n  0x00\n    /* \"#utility.yul\":532:556   */\n  tag_24\n    /* \"#utility.yul\":550:555   */\n  dup3\n    /* \"#utility.yul\":532:556   */\n  tag_14\n  jump\t// in\ntag_24:\n    /* \"#utility.yul\":521:556   */\n  swap1\n  pop\n    /* \"#utility.yul\":466:562   */\n  swap2\n  swap1\n  pop\n  jump\t// out\n    /* \"#utility.yul\":568:690   */\ntag_16:\n    /* \"#utility.yul\":641:665   */\n  tag_26\n    /* \"#utility.yul\":659:664   */\n  dup2\n    /* \"#utility.yul\":641:665   */\n  tag_15\n  jump\t// in\ntag_26:\n    /* \"#utility.yul\":634:639   */\n  dup2\n    /* \"#utility.yul\":631:666   */\n  eq\n    /* \"#utility.yul\":621:684   */\n  tag_27\n  jumpi\n    /* \"#utility.yul\":680:681   */\n  0x00\n    /* \"#utility.yul\":677:678   */\n  dup1\n    /* \"#utility.yul\":670:682   */\n  revert\n    /* \"#utility.yul\":621:684   */\ntag_27:\n    /* \"#utility.yul\":568:690   */\n  pop\n  jump\t// out\n    /* \"#utility.yul\":696:839   */\ntag_17:\n    /* \"#utility.yul\":753:758   */\n  0x00\n    /* \"#utility.yul\":784:790   */\n  dup2\n    /* \"#utility.yul\":778:791   */\n  mload\n    /* \"#utility.yul\":769:791   */\n  swap1\n  pop\n    /* \"#utility.yul\":800:833   */\n  tag_29\n    /* \"#utility.yul\":827:832   */\n  dup2\n    /* \"#utility.yul\":800:833   */\n  tag_16\n  jump\t// in\ntag_29:\n    /* \"#utility.yul\":696:839   */\n  swap3\n  swap2\n  pop\n  pop\n  jump\t// out\n    /* \"#utility.yul\":845:1665   */\ntag_3:\n    /* \"#utility.yul\":942:948   */\n  0x00\n    /* \"#utility.yul\":950:956   */\n  dup1\n    /* \"#utility.yul\":958:964   */\n  0x00\n    /* \"#utility.yul\":966:972   */\n  dup1\n    /* \"#utility.yul\":1015:1018   */\n  0x80\n    /* \"#utility.yul\":1003:1012   */\n  dup6\n    /* \"#utility.yul\":994:1001   */\n  dup8\n    /* \"#utility.yul\":990:1013   */\n  sub\n    /* \"#utility.yul\":986:1019   */\n  slt\n    /* \"#utility.yul\":983:1103   */\n  iszero\n  tag_31\n  jumpi\n    /* \"#utility.yul\":1022:1101   */\n  tag_32\n  tag_12\n  jump\t// in\ntag_32:\n    /* \"#utility.yul\":983:1103   */\ntag_31:\n    /* \"#utility.yul\":1142:1143   */\n  0x00\n    /* \"#utility.yul\":1167:1231   */\n  tag_33\n    /* \"#utility.yul\":1223:1230   */\n  dup8\n    /* \"#utility.yul\":1214:1220   */\n  dup3\n    /* \"#utility.yul\":1203:1212   */\n  dup9\n    /* \"#utility.yul\":1199:1221   */\n  add\n    /* \"#utility.yul\":1167:1231   */\n  tag_17\n  jump\t// in\ntag_33:\n    /* \"#utility.yul\":1157:1231   */\n  swap5\n  pop\n    /* \"#utility.yul\":1113:1241   */\n  pop\n    /* \"#utility.yul\":1280:1282   */\n  0x20\n    /* \"#utility.yul\":1306:1370   */\n  tag_34\n    /* \"#utility.yul\":1362:1369   */\n  dup8\n    /* \"#utility.yul\":1353:1359   */\n  dup3\n    /* \"#utility.yul\":1342:1351   */\n  dup9\n    /* \"#utility.yul\":1338:1360   */\n  add\n    /* \"#utility.yul\":1306:1370   */\n  tag_17\n  jump\t// in\ntag_34:\n    /* \"#utility.yul\":1296:1370   */\n  swap4\n  pop\n    /* \"#utility.yul\":1251:1380   */\n  pop\n    /* \"#utility.yul\":1419:1421   */\n  0x40\n    /* \"#utility.yul\":1445:1509   */\n  tag_35\n    /* \"#utility.yul\":1501:1508   */\n  dup8\n    /* \"#utility.yul\":1492:1498   */\n  dup3\n    /* \"#utility.yul\":1481:1490   */\n  dup9\n    /* \"#utility.yul\":1477:1499   */\n  add\n    /* \"#utility.yul\":1445:1509   */\n  tag_17\n  jump\t// in\ntag_35:\n    /* \"#utility.yul\":1435:1509   */\n  swap3\n  pop\n    /* \"#utility.yul\":1390:1519   */\n  pop\n    /* \"#utility.yul\":1558:1560   */\n  0x60\n    /* \"#utility.yul\":1584:1648   */\n  tag_36\n    /* \"#utility.yul\":1640:1647   */\n  dup8\n    /* \"#utility.yul\":1631:1637   */\n  dup3\n    /* \"#utility.yul\":1620:1629   */\n  dup9\n    /* \"#utility.yul\":1616:1638   */\n  add\n    /* \"#utility.yul\":1584:1648   */\n  tag_17\n  jump\t// in\ntag_36:\n    /* \"#utility.yul\":1574:1648   */\n  swap2\n  pop\n    /* \"#utility.yul\":1529:1658   */\n  pop\n    /* \"#utility.yul\":845:1665   */\n  swap3\n  swap6\n  swap2\n  swap5\n  pop\n  swap3\n  pop\n  jump\t// out\n    /* \"contracts/RegistryRouter.sol\":543:4356  contract RegistryRouter {... */\ntag_10:\n  mload(0x80)\n  mload(0xa0)\n  mload(0xc0)\n  mload(0xe0)\n  codecopy(0x00, dataOffset(sub_0), dataSize(sub_0))\n  0x00\n  assignImmutable(\"0x8fef2229291b68be841adf029e58b87f39ba144b2d3b0af1760243d0a9bc6a1c\")\n  0x00\n  assignImmutable(\"0x1d3be50b2bb17407dd170f1d5da128d1def30c6b1598d6a629e79b4775265526\")\n  0x00\n  assignImmutable(\"0x7f8b6b088b6d74c2852fc86c796dca07b44eed6fb3daf5e6b59f7c364db14528\")\n  0x00\n  assignImmutable(\"0xd2f8f61201b2b11a78d6e866abc9c3db2ae8631fa656bfe5cb53668255367afb\")\n  return(0x00, dataSize(sub_0))\nstop\n\nsub_0: assembly {\n        /* \"contracts/RegistryRouter.sol\":543:4356  contract RegistryRouter {... */\n      mstore(0x40, 0x80)\n      callvalue\n      dup1\n      iszero\n      tag_1\n      jumpi\n      0x00\n      dup1\n      revert\n    tag_1:\n      pop\n      jumpi(tag_2, lt(calldatasize, 0x04))\n      shr(0xe0, calldataload(0x00))\n      dup1\n      0x1083f761\n      eq\n      tag_3\n      jumpi\n      dup1\n      0x19beb49b\n      eq\n      tag_4\n      jumpi\n      dup1\n      0x318536bd\n      eq\n      tag_5\n      jumpi\n      dup1\n      0x7978c001\n      eq\n      tag_6\n      jumpi\n      dup1\n      0x8dcd0676\n      eq\n      tag_7\n      jumpi\n      dup1\n      0x9a3bbed3\n      eq\n      tag_8\n      jumpi\n    tag_2:\n      0x00\n      dup1\n      revert\n        /* \"contracts/RegistryRouter.sol\":619:658  IAssetToken public immutable assetToken */\n    tag_3:\n      tag_9\n      tag_10\n      jump\t// in\n    tag_9:\n      mload(0x40)\n      tag_11\n      swap2\n      swap1\n      tag_12\n      jump\t// in\n    tag_11:\n      mload(0x40)\n      dup1\n      swap2\n      sub\n      swap1\n      return\n        /* \"contracts/RegistryRouter.sol\":785:842  IRoyaltySplitFactory public immutable royaltySplitFactory */\n    tag_4:\n      tag_13\n      tag_14\n      jump\t// in\n    tag_13:\n      mload(0x40)\n      tag_15\n      swap2\n      swap1\n      tag_16\n      jump\t// in\n    tag_15:\n      mload(0x40)\n      dup1\n      swap2\n      sub\n      swap1\n      return\n        /* \"contracts/RegistryRouter.sol\":665:722  IContributorRegistry public immutable contributorRegistry */\n    tag_5:\n      tag_17\n      tag_18\n      jump\t// in\n    tag_17:\n      mload(0x40)\n      tag_19\n      swap2\n      swap1\n      tag_20\n      jump\t// in\n    tag_19:\n      mload(0x40)\n      dup1\n      swap2\n      sub\n      swap1\n      return\n        /* \"contracts/RegistryRouter.sol\":3253:3883  function getAssetFullDetails(uint256 _assetId)... */\n    tag_6:\n      tag_21\n      0x04\n      dup1\n      calldatasize\n      sub\n      dup2\n      add\n      swap1\n      tag_22\n      swap2\n      swap1\n      tag_23\n      jump\t// in\n    tag_22:\n      tag_24\n      jump\t// in\n    tag_21:\n      mload(0x40)\n      tag_25\n      swap2\n      swap1\n      tag_26\n      jump\t// in\n    tag_25:\n      mload(0x40)\n      dup1\n      swap2\n      sub\n      swap1\n      return\n        /* \"contracts/RegistryRouter.sol\":4089:4353  function getContributorDetails(address _contributor)... */\n    tag_7:\n      tag_27\n      0x04\n      dup1\n      calldatasize\n      sub\n      dup2\n      add\n      swap1\n      tag_28\n      swap2\n      swap1\n      tag_29\n      jump\t// in\n    tag_28:\n      tag_30\n      jump\t// in\n    tag_27:\n      mload(0x40)\n      tag_31\n      swap2\n      swap1\n      tag_32\n      jump\t// in\n    tag_31:\n      mload(0x40)\n      dup1\n      swap2\n      sub\n      swap1\n      return\n        /* \"contracts/RegistryRouter.sol\":729:778  IProvenanceGraph public immutable provenanceGraph */\n    tag_8:\n      tag_33\n      tag_34\n      jump\t// in\n    tag_33:\n      mload(0x40)\n      tag_35\n      swap2\n      swap1\n      tag_36\n      jump\t// in\n    tag_35:\n      mload(0x40)\n      dup1\n      swap2\n      sub\n      swap1\n      return\n        /* \"contracts/RegistryRouter.sol\":619:658  IAssetToken public immutable assetToken */\n    tag_10:\n      immutable(\"0xd2f8f61201b2b11a78d6e866abc9c3db2ae8631fa656bfe5cb53668255367afb\")\n      dup2\n      jump\t// out\n        /* \"contracts/RegistryRouter.sol\":785:842  IRoyaltySplitFactory public immutable royaltySplitFactory */\n    tag_14:\n      immutable(\"0x8fef2229291b68be841adf029e58b87f39ba144b2d3b0af1760243d0a9bc6a1c\")\n      dup2\n      jump\t// out\n        /* \"contracts/RegistryRouter.sol\":665:722  IContributorRegistry public immutable contributorRegistry */\n    tag_18:\n      immutable(\"0x7f8b6b088b6d74c2852fc86c796dca07b44eed6fb3daf5e6b59f7c364db14528\")\n      dup2\n      jump\t// out\n        /* \"contracts/RegistryRouter.sol\":3253:3883  function getAssetFullDetails(uint256 _assetId)... */\n    tag_24:\n        /* \"contracts/RegistryRouter.sol\":3350:3373  AssetFullDetails memory */\n      tag_37\n      tag_38\n      jump\t// in\n    tag_37:\n        /* \"contracts/RegistryRouter.sol\":3398:3875  AssetFullDetails({... */\n      mload(0x40)\n      dup1\n      0xe0\n      add\n      0x40\n      mstore\n      dup1\n        /* \"contracts/RegistryRouter.sol\":3437:3447  assetToken */\n      immutable(\"0xd2f8f61201b2b11a78d6e866abc9c3db2ae8631fa656bfe5cb53668255367afb\")\n        /* \"contracts/RegistryRouter.sol\":3437:3455  assetToken.ownerOf */\n      0xffffffffffffffffffffffffffffffffffffffff\n      and\n      0x6352211e\n        /* \"contracts/RegistryRouter.sol\":3456:3464  _assetId */\n      dup6\n        /* \"contracts/RegistryRouter.sol\":3437:3465  assetToken.ownerOf(_assetId) */\n      mload(0x40)\n      dup3\n      0xffffffff\n      and\n      0xe0\n      shl\n      dup2\n      mstore\n      0x04\n      add\n      tag_40\n      swap2\n      swap1\n      tag_41\n      jump\t// in\n    tag_40:\n      0x20\n      mload(0x40)\n      dup1\n      dup4\n      sub\n      dup2\n      dup7\n      gas\n      staticcall\n      iszero\n      dup1\n      iszero\n      tag_43\n      jumpi\n      returndatasize\n      0x00\n      dup1\n      returndatacopy\n      revert(0x00, returndatasize)\n    tag_43:\n      pop\n      pop\n      pop\n      pop\n      mload(0x40)\n      returndatasize\n      not(0x1f)\n      0x1f\n      dup3\n      add\n      and\n      dup3\n      add\n      dup1\n      0x40\n      mstore\n      pop\n      dup2\n      add\n      swap1\n      tag_44\n      swap2\n      swap1\n      tag_45\n      jump\t// in\n    tag_44:\n        /* \"contracts/RegistryRouter.sol\":3398:3875  AssetFullDetails({... */\n      0xffffffffffffffffffffffffffffffffffffffff\n      and\n      dup2\n      mstore\n      0x20\n      add\n        /* \"contracts/RegistryRouter.sol\":3493:3503  assetToken */\n      immutable(\"0xd2f8f61201b2b11a78d6e866abc9c3db2ae8631fa656bfe5cb53668255367afb\")\n        /* \"contracts/RegistryRouter.sol\":3493:3507  assetToken.uri */\n      0xffffffffffffffffffffffffffffffffffffffff\n      and\n      0x0e89341c\n        /* \"contracts/RegistryRouter.sol\":3508:3516  _assetId */\n      dup6\n        /* \"contracts/RegistryRouter.sol\":3493:3517  assetToken.uri(_assetId) */\n      mload(0x40)\n      dup3\n      0xffffffff\n      and\n      0xe0\n      shl\n      dup2\n      mstore\n      0x04\n      add\n      tag_46\n      swap2\n      swap1\n      tag_41\n      jump\t// in\n    tag_46:\n      0x00\n      mload(0x40)\n      dup1\n      dup4\n      sub\n      dup2\n      dup7\n      gas\n      staticcall\n      iszero\n      dup1\n      iszero\n      tag_48\n      jumpi\n      returndatasize\n      0x00\n      dup1\n      returndatacopy\n      revert(0x00, returndatasize)\n    tag_48:\n      pop\n      pop\n      pop\n      pop\n      mload(0x40)\n      returndatasize\n      0x00\n      dup3\n      returndatacopy\n      returndatasize\n      not(0x1f)\n      0x1f\n      dup3\n      add\n      and\n      dup3\n      add\n      dup1\n      0x40\n      mstore\n      pop\n      dup2\n      add\n      swap1\n      tag_49\n      swap2\n      swap1\n      tag_50\n      jump\t// in\n    tag_49:\n        /* \"contracts/RegistryRouter.sol\":3398:3875  AssetFullDetails({... */\n      dup2\n      mstore\n      0x20\n      add\n        /* \"contracts/RegistryRouter.sol\":3543:3553  assetToken */\n      immutable(\"0xd2f8f61201b2b11a78d6e866abc9c3db2ae8631fa656bfe5cb53668255367afb\")\n        /* \"contracts/RegistryRouter.sol\":3543:3563  assetToken.licenseId */\n      0xffffffffffffffffffffffffffffffffffffffff\n      and\n      0x82a18496\n        /* \"contracts/RegistryRouter.sol\":3564:3572  _assetId */\n      dup6\n        /* \"contracts/RegistryRouter.sol\":3543:3573  assetToken.licenseId(_assetId) */\n      mload(0x40)\n      dup3\n      0xffffffff\n      and\n      0xe0\n      shl\n      dup2\n      mstore\n      0x04\n      add\n      tag_51\n      swap2\n      swap1\n      tag_41\n      jump\t// in\n    tag_51:\n      0x20\n      mload(0x40)\n      dup1\n      dup4\n      sub\n      dup2\n      dup7\n      gas\n      staticcall\n      iszero\n      dup1\n      iszero\n      tag_53\n      jumpi\n      returndatasize\n      0x00\n      dup1\n      returndatacopy\n      revert(0x00, returndatasize)\n    tag_53:\n      pop\n      pop\n      pop\n      pop\n      mload(0x40)\n      returndatasize\n      not(0x1f)\n      0x1f\n      dup3\n      add\n      and\n      dup3\n      add\n      dup1\n      0x40\n      mstore\n      pop\n      dup2\n      add\n      swap1\n      tag_54\n      swap2\n      swap1\n      tag_55\n      jump\t// in\n    tag_54:\n        /* \"contracts/RegistryRouter.sol\":3398:3875  AssetFullDetails({... */\n      dup2\n      mstore\n      0x20\n      add\n        /* \"contracts/RegistryRouter.sol\":3601:3616  provenanceGraph */\n      immutable(\"0x1d3be50b2bb17407dd170f1d5da128d1def30c6b1598d6a629e79b4775265526\")\n        /* \"contracts/RegistryRouter.sol\":3601:3628  provenanceGraph.isFinalized */\n      0xffffffffffffffffffffffffffffffffffffffff\n      and\n      0x33727c4d\n        /* \"contracts/RegistryRouter.sol\":3629:3637  _assetId */\n      dup6\n        /* \"contracts/RegistryRouter.sol\":3601:3638  provenanceGraph.isFinalized(_assetId) */\n      mload(0x40)\n      dup3\n      0xffffffff\n      and\n      0xe0\n      shl\n      dup2\n      mstore\n      0x04\n      add\n      tag_56\n      swap2\n      swap1\n      tag_41\n      jump\t// in\n    tag_56:\n      0x20\n      mload(0x40)\n      dup1\n      dup4\n      sub\n      dup2\n      dup7\n      gas\n      staticcall\n      iszero\n      dup1\n      iszero\n      tag_58\n      jumpi\n      returndatasize\n      0x00\n      dup1\n      returndatacopy\n      revert(0x00, returndatasize)\n    tag_58:\n      pop\n      pop\n      pop\n      pop\n      mload(0x40)\n      returndatasize\n      not(0x1f)\n      0x1f\n      dup3\n      add\n      and\n      dup3\n      add\n      dup1\n      0x40\n      mstore\n      pop\n      dup2\n      add\n      swap1\n      tag_59\n      swap2\n      swap1\n      tag_60\n      jump\t// in\n    tag_59:\n        /* \"contracts/RegistryRouter.sol\":3398:3875  AssetFullDetails({... */\n      iszero\n      iszero\n      dup2\n      mstore\n      0x20\n      add\n        /* \"contracts/RegistryRouter.sol\":3670:3689  royaltySplitFactory */\n      immutable(\"0x8fef2229291b68be841adf029e58b87f39ba144b2d3b0af1760243d0a9bc6a1c\")\n        /* \"contracts/RegistryRouter.sol\":3670:3707  royaltySplitFactory.assetIdToSplitter */\n      0xffffffffffffffffffffffffffffffffffffffff\n      and\n      0x0abc9786\n        /* \"contracts/RegistryRouter.sol\":3708:3716  _assetId */\n      dup6\n        /* \"contracts/RegistryRouter.sol\":3670:3717  royaltySplitFactory.assetIdToSplitter(_assetId) */\n      mload(0x40)\n      dup3\n      0xffffffff\n      and\n      0xe0\n      shl\n      dup2\n      mstore\n      0x04\n      add\n      tag_61\n      swap2\n      swap1\n      tag_41\n      jump\t// in\n    tag_61:\n      0x20\n      mload(0x40)\n      dup1\n      dup4\n      sub\n      dup2\n      dup7\n      gas\n      staticcall\n      iszero\n      dup1\n      iszero\n      tag_63\n      jumpi\n      returndatasize\n      0x00\n      dup1\n      returndatacopy\n      revert(0x00, returndatasize)\n    tag_63:\n      pop\n      pop\n      pop\n      pop\n      mload(0x40)\n      returndatasize\n      not(0x1f)\n      0x1f\n      dup3\n      add\n      and\n      dup3\n      add\n      dup1\n      0x40\n      mstore\n      pop\n      dup2\n      add\n      swap1\n      tag_64\n      swap2\n      swap1\n      tag_45\n      jump\t// in\n    tag_64:\n        /* \"contracts/RegistryRouter.sol\":3398:3875  AssetFullDetails({... */\n      0xffffffffffffffffffffffffffffffffffffffff\n      and\n      dup2\n      mstore\n      0x20\n      add\n        /* \"contracts/RegistryRouter.sol\":3750:3765  provenanceGraph */\n      immutable(\"0x1d3be50b2bb17407dd170f1d5da128d1def30c6b1598d6a629e79b4775265526\")\n        /* \"contracts/RegistryRouter.sol\":3750:3785  provenanceGraph.getContributorEdges */\n      0xffffffffffffffffffffffffffffffffffffffff\n      and\n      0x5ee7c0f8\n        /* \"contracts/RegistryRouter.sol\":3786:3794  _assetId */\n      dup6\n        /* \"contracts/RegistryRouter.sol\":3750:3795  provenanceGraph.getContributorEdges(_assetId) */\n      mload(0x40)\n      dup3\n      0xffffffff\n      and\n      0xe0\n      shl\n      dup2\n      mstore\n      0x04\n      add\n      tag_65\n      swap2\n      swap1\n      tag_41\n      jump\t// in\n    tag_65:\n      0x00\n      mload(0x40)\n      dup1\n      dup4\n      sub\n      dup2\n      dup7\n      gas\n      staticcall\n      iszero\n      dup1\n      iszero\n      tag_67\n      jumpi\n      returndatasize\n      0x00\n      dup1\n      returndatacopy\n      revert(0x00, returndatasize)\n    tag_67:\n      pop\n      pop\n      pop\n      pop\n      mload(0x40)\n      returndatasize\n      0x00\n      dup3\n      returndatacopy\n      returndatasize\n      not(0x1f)\n      0x1f\n      dup3\n      add\n      and\n      dup3\n      add\n      dup1\n      0x40\n      mstore\n      pop\n      dup2\n      add\n      swap1\n      tag_68\n      swap2\n      swap1\n      tag_69\n      jump\t// in\n    tag_68:\n        /* \"contracts/RegistryRouter.sol\":3398:3875  AssetFullDetails({... */\n      dup2\n      mstore\n      0x20\n      add\n        /* \"contracts/RegistryRouter.sol\":3823:3838  provenanceGraph */\n      immutable(\"0x1d3be50b2bb17407dd170f1d5da128d1def30c6b1598d6a629e79b4775265526\")\n        /* \"contracts/RegistryRouter.sol\":3823:3853  provenanceGraph.getParentEdges */\n      0xffffffffffffffffffffffffffffffffffffffff\n      and\n      0x1e315d9d\n        /* \"contracts/RegistryRouter.sol\":3854:3862  _assetId */\n      dup6\n        /* \"contracts/RegistryRouter.sol\":3823:3863  provenanceGraph.getParentEdges(_assetId) */\n      mload(0x40)\n      dup3\n      0xffffffff\n      and\n      0xe0\n      shl\n      dup2\n      mstore\n      0x04\n      add\n      tag_70\n      swap2\n      swap1\n      tag_41\n      jump\t// in\n    tag_70:\n      0x00\n      mload(0x40)\n      dup1\n      dup4\n      sub\n      dup2\n      dup7\n      gas\n      staticcall\n      iszero\n      dup1\n      iszero\n      tag_72\n      jumpi\n      returndatasize\n      0x00\n      dup1\n      returndatacopy\n      revert(0x00, returndatasize)\n    tag_72:\n      pop\n      pop\n      pop\n      pop\n      mload(0x40)\n      returndatasize\n      0x00\n      dup3\n      returndatacopy\n      returndatasize\n      not(0x1f)\n      0x1f\n      dup3\n      add\n      and\n      dup3\n      add\n      dup1\n      0x40\n      mstore\n      pop\n      dup2\n      add\n      swap1\n      tag_73\n      swap2\n      swap1\n      tag_69\n      jump\t// in\n    tag_73:\n        /* \"contracts/RegistryRouter.sol\":3398:3875  AssetFullDetails({... */\n      dup2\n      mstore\n      pop\n        /* \"contracts/RegistryRouter.sol\":3391:3875  return AssetFullDetails({... */\n      swap1\n      pop\n        /* \"contracts/RegistryRouter.sol\":3253:3883  function getAssetFullDetails(uint256 _assetId)... */\n      swap2\n      swap1\n      pop\n      jump\t// out\n        /* \"contracts/RegistryRouter.sol\":4089:4353  function getContributorDetails(address _contributor)... */\n    tag_30:\n        /* \"contracts/RegistryRouter.sol\":4192:4217  ContributorDetails memory */\n      tag_74\n      tag_75\n      jump\t// in\n    tag_74:\n        /* \"contracts/RegistryRouter.sol\":4242:4345  ContributorDetails({... */\n      mload(0x40)\n      dup1\n      0x20\n      add\n      0x40\n      mstore\n      dup1\n        /* \"contracts/RegistryRouter.sol\":4288:4307  contributorRegistry */\n      immutable(\"0x7f8b6b088b6d74c2852fc86c796dca07b44eed6fb3daf5e6b59f7c364db14528\")\n        /* \"contracts/RegistryRouter.sol\":4288:4319  contributorRegistry.profileURIs */\n      0xffffffffffffffffffffffffffffffffffffffff\n      and\n      0x041eee5c\n        /* \"contracts/RegistryRouter.sol\":4320:4332  _contributor */\n      dup6\n        /* \"contracts/RegistryRouter.sol\":4288:4333  contributorRegistry.profileURIs(_contributor) */\n      mload(0x40)\n      dup3\n      0xffffffff\n      and\n      0xe0\n      shl\n      dup2\n      mstore\n      0x04\n      add\n      tag_77\n      swap2\n      swap1\n      tag_78\n      jump\t// in\n    tag_77:\n      0x00\n      mload(0x40)\n      dup1\n      dup4\n      sub\n      dup2\n      dup7\n      gas\n      staticcall\n      iszero\n      dup1\n      iszero\n      tag_80\n      jumpi\n      returndatasize\n      0x00\n      dup1\n      returndatacopy\n      revert(0x00, returndatasize)\n    tag_80:\n      pop\n      pop\n      pop\n      pop\n      mload(0x40)\n      returndatasize\n      0x00\n      dup3\n      returndatacopy\n      returndatasize\n      not(0x1f)\n      0x1f\n      dup3\n      add\n      and\n      dup3\n      add\n      dup1\n      0x40\n      mstore\n      pop\n      dup2\n      add\n      swap1\n      tag_81\n      swap2\n      swap1\n      tag_50\n      jump\t// in\n    tag_81:\n        /* \"contracts/RegistryRouter.sol\":4242:4345  ContributorDetails({... */\n      dup2\n      mstore\n      pop\n        /* \"contracts/RegistryRouter.sol\":4235:4345  return ContributorDetails({... */\n      swap1\n      pop\n        /* \"contracts/RegistryRouter.sol\":4089:4353  function getContributorDetails(address _contributor)... */\n      swap2\n      swap1\n      pop\n      jump\t// out\n        /* \"contracts/RegistryRouter.sol\":729:778  IProvenanceGraph public immutable provenanceGraph */\n    tag_34:\n      immutable(\"0x1d3be50b2bb17407dd170f1d5da128d1def30c6b1598d6a629e79b4775265526\")\n      dup2\n      jump\t// out\n    tag_38:\n      mload(0x40)\n      dup1\n      0xe0\n      add\n      0x40\n      mstore\n      dup1\n      and(0xffffffffffffffffffffffffffffffffffffffff, 0x00)\n      dup2\n      mstore\n      0x20\n      add\n      0x60\n      dup2\n      mstore\n      0x20\n      add\n      0x00\n      dup2\n      mstore\n      0x20\n      add\n      iszero(iszero(0x00))\n      dup2\n      mstore\n      0x20\n      add\n      and(0xffffffffffffffffffffffffffffffffffffffff, 0x00)\n      dup2\n      mstore\n      0x20\n      add\n      0x60\n      dup2\n      mstore\n      0x20\n      add\n      0x60\n      dup2\n      mstore\n      pop\n      swap1\n      jump\t// out\n    tag_75:\n      mload(0x40)\n      dup1\n      0x20\n      add\n      0x40\n      mstore\n      dup1\n      0x60\n      dup2\n      mstore\n      pop\n      swap1\n      jump\t// out\n        /* \"#utility.yul\":7:133   */\n    tag_82:\n        /* \"#utility.yul\":44:51   */\n      0x00\n        /* \"#utility.yul\":84:126   */\n      0xffffffffffffffffffffffffffffffffffffffff\n        /* \"#utility.yul\":77:82   */\n      dup3\n        /* \"#utility.yul\":73:127   */\n      and\n        /* \"#utility.yul\":62:127   */\n      swap1\n      pop\n        /* \"#utility.yul\":7:133   */\n      swap2\n      swap1\n      pop\n      jump\t// out\n        /* \"#utility.yul\":139:199   */\n    tag_83:\n        /* \"#utility.yul\":167:170   */\n      0x00\n        /* \"#utility.yul\":188:193   */\n      dup2\n        /* \"#utility.yul\":181:193   */\n      swap1\n      pop\n        /* \"#utility.yul\":139:199   */\n      swap2\n      swap1\n      pop\n      jump\t// out\n        /* \"#utility.yul\":205:347   */\n    tag_84:\n        /* \"#utility.yul\":255:264   */\n      0x00\n        /* \"#utility.yul\":288:341   */\n      tag_150\n        /* \"#utility.yul\":306:340   */\n      tag_151\n        /* \"#utility.yul\":315:339   */\n      tag_152\n        /* \"#utility.yul\":333:338   */\n      dup5\n        /* \"#utility.yul\":315:339   */\n      tag_82\n      jump\t// in\n    tag_152:\n        /* \"#utility.yul\":306:340   */\n      tag_83\n      jump\t// in\n    tag_151:\n        /* \"#utility.yul\":288:341   */\n      tag_82\n      jump\t// in\n    tag_150:\n        /* \"#utility.yul\":275:341   */\n      swap1\n      pop\n        /* \"#utility.yul\":205:347   */\n      swap2\n      swap1\n      pop\n      jump\t// out\n        /* \"#utility.yul\":353:479   */\n    tag_85:\n        /* \"#utility.yul\":403:412   */\n      0x00\n        /* \"#utility.yul\":436:473   */\n      tag_154\n        /* \"#utility.yul\":467:472   */\n      dup3\n        /* \"#utility.yul\":436:473   */\n      tag_84\n      jump\t// in\n    tag_154:\n        /* \"#utility.yul\":423:473   */\n      swap1\n      pop\n        /* \"#utility.yul\":353:479   */\n      swap2\n      swap1\n      pop\n      jump\t// out\n        /* \"#utility.yul\":485:630   */\n    tag_86:\n        /* \"#utility.yul\":554:563   */\n      0x00\n        /* \"#utility.yul\":587:624   */\n      tag_156\n        /* \"#utility.yul\":618:623   */\n      dup3\n        /* \"#utility.yul\":587:624   */\n      tag_85\n      jump\t// in\n    tag_156:\n        /* \"#utility.yul\":574:624   */\n      swap1\n      pop\n        /* \"#utility.yul\":485:630   */\n      swap2\n      swap1\n      pop\n      jump\t// out\n        /* \"#utility.yul\":636:805   */\n    tag_87:\n        /* \"#utility.yul\":742:798   */\n      tag_158\n        /* \"#utility.yul\":792:797   */\n      dup2\n        /* \"#utility.yul\":742:798   */\n      tag_86\n      jump\t// in\n    tag_158:\n        /* \"#utility.yul\":737:740   */\n      dup3\n        /* \"#utility.yul\":730:799   */\n      mstore\n        /* \"#utility.yul\":636:805   */\n      pop\n      pop\n      jump\t// out\n        /* \"#utility.yul\":811:1071   */\n    tag_12:\n        /* \"#utility.yul\":923:927   */\n      0x00\n        /* \"#utility.yul\":961:963   */\n      0x20\n        /* \"#utility.yul\":950:959   */\n      dup3\n        /* \"#utility.yul\":946:964   */\n      add\n        /* \"#utility.yul\":938:964   */\n      swap1\n      pop\n        /* \"#utility.yul\":974:1064   */\n      tag_160\n        /* \"#utility.yul\":1061:1062   */\n      0x00\n        /* \"#utility.yul\":1050:1059   */\n      dup4\n        /* \"#utility.yul\":1046:1063   */\n      add\n        /* \"#utility.yul\":1037:1043   */\n      dup5\n        /* \"#utility.yul\":974:1064   */\n      tag_87\n      jump\t// in\n    tag_160:\n        /* \"#utility.yul\":811:1071   */\n      swap3\n      swap2\n      pop\n      pop\n      jump\t// out\n        /* \"#utility.yul\":1077:1231   */\n    tag_88:\n        /* \"#utility.yul\":1155:1164   */\n      0x00\n        /* \"#utility.yul\":1188:1225   */\n      tag_162\n        /* \"#utility.yul\":1219:1224   */\n      dup3\n        /* \"#utility.yul\":1188:1225   */\n      tag_85\n      jump\t// in\n    tag_162:\n        /* \"#utility.yul\":1175:1225   */\n      swap1\n      pop\n        /* \"#utility.yul\":1077:1231   */\n      swap2\n      swap1\n      pop\n      jump\t// out\n        /* \"#utility.yul\":1237:1424   */\n    tag_89:\n        /* \"#utility.yul\":1352:1417   */\n      tag_164\n        /* \"#utility.yul\":1411:1416   */\n      dup2\n        /* \"#utility.yul\":1352:1417   */\n      tag_88\n      jump\t// in\n    tag_164:\n        /* \"#utility.yul\":1347:1350   */\n      dup3\n        /* \"#utility.yul\":1340:1418   */\n      mstore\n        /* \"#utility.yul\":1237:1424   */\n      pop\n      pop\n      jump\t// out\n        /* \"#utility.yul\":1430:1708   */\n    tag_16:\n        /* \"#utility.yul\":1551:1555   */\n      0x00\n        /* \"#utility.yul\":1589:1591   */\n      0x20\n        /* \"#utility.yul\":1578:1587   */\n      dup3\n        /* \"#utility.yul\":1574:1592   */\n      add\n        /* \"#utility.yul\":1566:1592   */\n      swap1\n      pop\n        /* \"#utility.yul\":1602:1701   */\n      tag_166\n        /* \"#utility.yul\":1698:1699   */\n      0x00\n        /* \"#utility.yul\":1687:1696   */\n      dup4\n        /* \"#utility.yul\":1683:1700   */\n      add\n        /* \"#utility.yul\":1674:1680   */\n      dup5\n        /* \"#utility.yul\":1602:1701   */\n      tag_89\n      jump\t// in\n    tag_166:\n        /* \"#utility.yul\":1430:1708   */\n      swap3\n      swap2\n      pop\n      pop\n      jump\t// out\n        /* \"#utility.yul\":1714:1868   */\n    tag_90:\n        /* \"#utility.yul\":1792:1801   */\n      0x00\n        /* \"#utility.yul\":1825:1862   */\n      tag_168\n        /* \"#utility.yul\":1856:1861   */\n      dup3\n        /* \"#utility.yul\":1825:1862   */\n      tag_85\n      jump\t// in\n    tag_168:\n        /* \"#utility.yul\":1812:1862   */\n      swap1\n      pop\n        /* \"#utility.yul\":1714:1868   */\n      swap2\n      swap1\n      pop\n      jump\t// out\n        /* \"#utility.yul\":1874:2061   */\n    tag_91:\n        /* \"#utility.yul\":1989:2054   */\n      tag_170\n        /* \"#utility.yul\":2048:2053   */\n      dup2\n        /* \"#utility.yul\":1989:2054   */\n      tag_90\n      jump\t// in\n    tag_170:\n        /* \"#utility.yul\":1984:1987   */\n      dup3\n        /* \"#utility.yul\":1977:2055   */\n      mstore\n        /* \"#utility.yul\":1874:2061   */\n      pop\n      pop\n      jump\t// out\n        /* \"#utility.yul\":2067:2345   */\n    tag_20:\n        /* \"#utility.yul\":2188:2192   */\n      0x00\n        /* \"#utility.yul\":2226:2228   */\n      0x20\n        /* \"#utility.yul\":2215:2224   */\n      dup3\n        /* \"#utility.yul\":2211:2229   */\n      add\n        /* \"#utility.yul\":2203:2229   */\n      swap1\n      pop\n        /* \"#utility.yul\":2239:2338   */\n      tag_172\n        /* \"#utility.yul\":2335:2336   */\n      0x00\n        /* \"#utility.yul\":2324:2333   */\n      dup4\n        /* \"#utility.yul\":2320:2337   */\n      add\n        /* \"#utility.yul\":2311:2317   */\n      dup5\n        /* \"#utility.yul\":2239:2338   */\n      tag_91\n      jump\t// in\n    tag_172:\n        /* \"#utility.yul\":2067:2345   */\n      swap3\n      swap2\n      pop\n      pop\n      jump\t// out\n        /* \"#utility.yul\":2351:2426   */\n    tag_92:\n        /* \"#utility.yul\":2384:2390   */\n      0x00\n        /* \"#utility.yul\":2417:2419   */\n      0x40\n        /* \"#utility.yul\":2411:2420   */\n      mload\n        /* \"#utility.yul\":2401:2420   */\n      swap1\n      pop\n        /* \"#utility.yul\":2351:2426   */\n      swap1\n      jump\t// out\n        /* \"#utility.yul\":2432:2549   */\n    tag_93:\n        /* \"#utility.yul\":2541:2542   */\n      0x00\n        /* \"#utility.yul\":2538:2539   */\n      dup1\n        /* \"#utility.yul\":2531:2543   */\n      revert\n        /* \"#utility.yul\":2555:2672   */\n    tag_94:\n        /* \"#utility.yul\":2664:2665   */\n      0x00\n        /* \"#utility.yul\":2661:2662   */\n      dup1\n        /* \"#utility.yul\":2654:2666   */\n      revert\n        /* \"#utility.yul\":2678:2755   */\n    tag_95:\n        /* \"#utility.yul\":2715:2722   */\n      0x00\n        /* \"#utility.yul\":2744:2749   */\n      dup2\n        /* \"#utility.yul\":2733:2749   */\n      swap1\n      pop\n        /* \"#utility.yul\":2678:2755   */\n      swap2\n      swap1\n      pop\n      jump\t// out\n        /* \"#utility.yul\":2761:2883   */\n    tag_96:\n        /* \"#utility.yul\":2834:2858   */\n      tag_178\n        /* \"#utility.yul\":2852:2857   */\n      dup2\n        /* \"#utility.yul\":2834:2858   */\n      tag_95\n      jump\t// in\n    tag_178:\n        /* \"#utility.yul\":2827:2832   */\n      dup2\n        /* \"#utility.yul\":2824:2859   */\n      eq\n        /* \"#utility.yul\":2814:2877   */\n      tag_179\n      jumpi\n        /* \"#utility.yul\":2873:2874   */\n      0x00\n        /* \"#utility.yul\":2870:2871   */\n      dup1\n        /* \"#utility.yul\":2863:2875   */\n      revert\n        /* \"#utility.yul\":2814:2877   */\n    tag_179:\n        /* \"#utility.yul\":2761:2883   */\n      pop\n      jump\t// out\n        /* \"#utility.yul\":2889:3028   */\n    tag_97:\n        /* \"#utility.yul\":2935:2940   */\n      0x00\n        /* \"#utility.yul\":2973:2979   */\n      dup2\n        /* \"#utility.yul\":2960:2980   */\n      calldataload\n        /* \"#utility.yul\":2951:2980   */\n      swap1\n      pop\n        /* \"#utility.yul\":2989:3022   */\n      tag_181\n        /* \"#utility.yul\":3016:3021   */\n      dup2\n        /* \"#utility.yul\":2989:3022   */\n      tag_96\n      jump\t// in\n    tag_181:\n        /* \"#utility.yul\":2889:3028   */\n      swap3\n      swap2\n      pop\n      pop\n      jump\t// out\n        /* \"#utility.yul\":3034:3363   */\n    tag_23:\n        /* \"#utility.yul\":3093:3099   */\n      0x00\n        /* \"#utility.yul\":3142:3144   */\n      0x20\n        /* \"#utility.yul\":3130:3139   */\n      dup3\n        /* \"#utility.yul\":3121:3128   */\n      dup5\n        /* \"#utility.yul\":3117:3140   */\n      sub\n        /* \"#utility.yul\":3113:3145   */\n      slt\n        /* \"#utility.yul\":3110:3229   */\n      iszero\n      tag_183\n      jumpi\n        /* \"#utility.yul\":3148:3227   */\n      tag_184\n      tag_93\n      jump\t// in\n    tag_184:\n        /* \"#utility.yul\":3110:3229   */\n    tag_183:\n        /* \"#utility.yul\":3268:3269   */\n      0x00\n        /* \"#utility.yul\":3293:3346   */\n      tag_185\n        /* \"#utility.yul\":3338:3345   */\n      dup5\n        /* \"#utility.yul\":3329:3335   */\n      dup3\n        /* \"#utility.yul\":3318:3327   */\n      dup6\n        /* \"#utility.yul\":3314:3336   */\n      add\n        /* \"#utility.yul\":3293:3346   */\n      tag_97\n      jump\t// in\n    tag_185:\n        /* \"#utility.yul\":3283:3346   */\n      swap2\n      pop\n        /* \"#utility.yul\":3239:3356   */\n      pop\n        /* \"#utility.yul\":3034:3363   */\n      swap3\n      swap2\n      pop\n      pop\n      jump\t// out\n        /* \"#utility.yul\":3369:3465   */\n    tag_98:\n        /* \"#utility.yul\":3406:3413   */\n      0x00\n        /* \"#utility.yul\":3435:3459   */\n      tag_187\n        /* \"#utility.yul\":3453:3458   */\n      dup3\n        /* \"#utility.yul\":3435:3459   */\n      tag_82\n      jump\t// in\n    tag_187:\n        /* \"#utility.yul\":3424:3459   */\n      swap1\n      pop\n        /* \"#utility.yul\":3369:3465   */\n      swap2\n      swap1\n      pop\n      jump\t// out\n        /* \"#utility.yul\":3471:3579   */\n    tag_99:\n        /* \"#utility.yul\":3548:3572   */\n      tag_189\n        /* \"#utility.yul\":3566:3571   */\n      dup2\n        /* \"#utility.yul\":3548:3572   */\n      tag_98\n      jump\t// in\n    tag_189:\n        /* \"#utility.yul\":3543:3546   */\n      dup3\n        /* \"#utility.yul\":3536:3573   */\n      mstore\n        /* \"#utility.yul\":3471:3579   */\n      pop\n      pop\n      jump\t// out\n        /* \"#utility.yul\":3585:3684   */\n    tag_100:\n        /* \"#utility.yul\":3637:3643   */\n      0x00\n        /* \"#utility.yul\":3671:3676   */\n      dup2\n        /* \"#utility.yul\":3665:3677   */\n      mload\n        /* \"#utility.yul\":3655:3677   */\n      swap1\n      pop\n        /* \"#utility.yul\":3585:3684   */\n      swap2\n      swap1\n      pop\n      jump\t// out\n        /* \"#utility.yul\":3690:3849   */\n    tag_101:\n        /* \"#utility.yul\":3764:3775   */\n      0x00\n        /* \"#utility.yul\":3798:3804   */\n      dup3\n        /* \"#utility.yul\":3793:3796   */\n      dup3\n        /* \"#utility.yul\":3786:3805   */\n      mstore\n        /* \"#utility.yul\":3838:3842   */\n      0x20\n        /* \"#utility.yul\":3833:3836   */\n      dup3\n        /* \"#utility.yul\":3829:3843   */\n      add\n        /* \"#utility.yul\":3814:3843   */\n      swap1\n      pop\n        /* \"#utility.yul\":3690:3849   */\n      swap3\n      swap2\n      pop\n      pop\n      jump\t// out\n        /* \"#utility.yul\":3855:4101   */\n    tag_102:\n        /* \"#utility.yul\":3936:3937   */\n      0x00\n        /* \"#utility.yul\":3946:4059   */\n    tag_193:\n        /* \"#utility.yul\":3960:3966   */\n      dup4\n        /* \"#utility.yul\":3957:3958   */\n      dup2\n        /* \"#utility.yul\":3954:3967   */\n      lt\n        /* \"#utility.yul\":3946:4059   */\n      iszero\n      tag_195\n      jumpi\n        /* \"#utility.yul\":4045:4046   */\n      dup1\n        /* \"#utility.yul\":4040:4043   */\n      dup3\n        /* \"#utility.yul\":4036:4047   */\n      add\n        /* \"#utility.yul\":4030:4048   */\n      mload\n        /* \"#utility.yul\":4026:4027   */\n      dup2\n        /* \"#utility.yul\":4021:4024   */\n      dup5\n        /* \"#utility.yul\":4017:4028   */\n      add\n        /* \"#utility.yul\":4010:4049   */\n      mstore\n        /* \"#utility.yul\":3982:3984   */\n      0x20\n        /* \"#utility.yul\":3979:3980   */\n      dup2\n        /* \"#utility.yul\":3975:3985   */\n      add\n        /* \"#utility.yul\":3970:3985   */\n      swap1\n      pop\n        /* \"#utility.yul\":3946:4059   */\n      jump(tag_193)\n    tag_195:\n        /* \"#utility.yul\":4093:4094   */\n      0x00\n        /* \"#utility.yul\":4084:4090   */\n      dup5\n        /* \"#utility.yul\":4079:4082   */\n      dup5\n        /* \"#utility.yul\":4075:4091   */\n      add\n        /* \"#utility.yul\":4068:4095   */\n      mstore\n        /* \"#utility.yul\":3917:4101   */\n      pop\n        /* \"#utility.yul\":3855:4101   */\n      pop\n      pop\n      pop\n      jump\t// out\n        /* \"#utility.yul\":4107:4209   */\n    tag_103:\n        /* \"#utility.yul\":4148:4154   */\n      0x00\n        /* \"#utility.yul\":4199:4201   */\n      0x1f\n        /* \"#utility.yul\":4195:4202   */\n      not\n        /* \"#utility.yul\":4190:4192   */\n      0x1f\n        /* \"#utility.yul\":4183:4188   */\n      dup4\n        /* \"#utility.yul\":4179:4193   */\n      add\n        /* \"#utility.yul\":4175:4203   */\n      and\n        /* \"#utility.yul\":4165:4203   */\n      swap1\n      pop\n        /* \"#utility.yul\":4107:4209   */\n      swap2\n      swap1\n      pop\n      jump\t// out\n        /* \"#utility.yul\":4215:4572   */\n    tag_104:\n        /* \"#utility.yul\":4293:4296   */\n      0x00\n        /* \"#utility.yul\":4321:4360   */\n      tag_198\n        /* \"#utility.yul\":4354:4359   */\n      dup3\n        /* \"#utility.yul\":4321:4360   */\n      tag_100\n      jump\t// in\n    tag_198:\n        /* \"#utility.yul\":4376:4437   */\n      tag_199\n        /* \"#utility.yul\":4430:4436   */\n      dup2\n        /* \"#utility.yul\":4425:4428   */\n      dup6\n        /* \"#utility.yul\":4376:4437   */\n      tag_101\n      jump\t// in\n    tag_199:\n        /* \"#utility.yul\":4369:4437   */\n      swap4\n      pop\n        /* \"#utility.yul\":4446:4511   */\n      tag_200\n        /* \"#utility.yul\":4504:4510   */\n      dup2\n        /* \"#utility.yul\":4499:4502   */\n      dup6\n        /* \"#utility.yul\":4492:4496   */\n      0x20\n        /* \"#utility.yul\":4485:4490   */\n      dup7\n        /* \"#utility.yul\":4481:4497   */\n      add\n        /* \"#utility.yul\":4446:4511   */\n      tag_102\n      jump\t// in\n    tag_200:\n        /* \"#utility.yul\":4536:4565   */\n      tag_201\n        /* \"#utility.yul\":4558:4564   */\n      dup2\n        /* \"#utility.yul\":4536:4565   */\n      tag_103\n      jump\t// in\n    tag_201:\n        /* \"#utility.yul\":4531:4534   */\n      dup5\n        /* \"#utility.yul\":4527:4566   */\n      add\n        /* \"#utility.yul\":4520:4566   */\n      swap2\n      pop\n        /* \"#utility.yul\":4297:4572   */\n      pop\n        /* \"#utility.yul\":4215:4572   */\n      swap3\n      swap2\n      pop\n      pop\n      jump\t// out\n        /* \"#utility.yul\":4578:4686   */\n    tag_105:\n        /* \"#utility.yul\":4655:4679   */\n      tag_203\n        /* \"#utility.yul\":4673:4678   */\n      dup2\n        /* \"#utility.yul\":4655:4679   */\n      tag_95\n      jump\t// in\n    tag_203:\n        /* \"#utility.yul\":4650:4653   */\n      dup3\n        /* \"#utility.yul\":4643:4680   */\n      mstore\n        /* \"#utility.yul\":4578:4686   */\n      pop\n      pop\n      jump\t// out\n        /* \"#utility.yul\":4692:4782   */\n    tag_106:\n        /* \"#utility.yul\":4726:4733   */\n      0x00\n        /* \"#utility.yul\":4769:4774   */\n      dup2\n        /* \"#utility.yul\":4762:4775   */\n      iszero\n        /* \"#utility.yul\":4755:4776   */\n      iszero\n        /* \"#utility.yul\":4744:4776   */\n      swap1\n      pop\n        /* \"#utility.yul\":4692:4782   */\n      swap2\n      swap1\n      pop\n      jump\t// out\n        /* \"#utility.yul\":4788:4887   */\n    tag_107:\n        /* \"#utility.yul\":4859:4880   */\n      tag_206\n        /* \"#utility.yul\":4874:4879   */\n      dup2\n        /* \"#utility.yul\":4859:4880   */\n      tag_106\n      jump\t// in\n    tag_206:\n        /* \"#utility.yul\":4854:4857   */\n      dup3\n        /* \"#utility.yul\":4847:4881   */\n      mstore\n        /* \"#utility.yul\":4788:4887   */\n      pop\n      pop\n      jump\t// out\n        /* \"#utility.yul\":4893:5028   */\n    tag_108:\n        /* \"#utility.yul\":4981:4987   */\n      0x00\n        /* \"#utility.yul\":5015:5020   */\n      dup2\n        /* \"#utility.yul\":5009:5021   */\n      mload\n        /* \"#utility.yul\":4999:5021   */\n      swap1\n      pop\n        /* \"#utility.yul\":4893:5028   */\n      swap2\n      swap1\n      pop\n      jump\t// out\n        /* \"#utility.yul\":5034:5229   */\n    tag_109:\n        /* \"#utility.yul\":5144:5155   */\n      0x00\n        /* \"#utility.yul\":5178:5184   */\n      dup3\n        /* \"#utility.yul\":5173:5176   */\n      dup3\n        /* \"#utility.yul\":5166:5185   */\n      mstore\n        /* \"#utility.yul\":5218:5222   */\n      0x20\n        /* \"#utility.yul\":5213:5216   */\n      dup3\n        /* \"#utility.yul\":5209:5223   */\n      add\n        /* \"#utility.yul\":5194:5223   */\n      swap1\n      pop\n        /* \"#utility.yul\":5034:5229   */\n      swap3\n      swap2\n      pop\n      pop\n      jump\t// out\n        /* \"#utility.yul\":5235:5388   */\n    tag_110:\n        /* \"#utility.yul\":5323:5327   */\n      0x00\n        /* \"#utility.yul\":5346:5349   */\n      dup2\n        /* \"#utility.yul\":5338:5349   */\n      swap1\n      pop\n        /* \"#utility.yul\":5376:5380   */\n      0x20\n        /* \"#utility.yul\":5371:5374   */\n      dup3\n        /* \"#utility.yul\":5367:5381   */\n      add\n        /* \"#utility.yul\":5359:5381   */\n      swap1\n      pop\n        /* \"#utility.yul\":5235:5388   */\n      swap2\n      swap1\n      pop\n      jump\t// out\n        /* \"#utility.yul\":5394:5483   */\n    tag_111:\n        /* \"#utility.yul\":5430:5437   */\n      0x00\n        /* \"#utility.yul\":5470:5476   */\n      0xffff\n        /* \"#utility.yul\":5463:5468   */\n      dup3\n        /* \"#utility.yul\":5459:5477   */\n      and\n        /* \"#utility.yul\":5448:5477   */\n      swap1\n      pop\n        /* \"#utility.yul\":5394:5483   */\n      swap2\n      swap1\n      pop\n      jump\t// out\n        /* \"#utility.yul\":5489:5594   */\n    tag_112:\n        /* \"#utility.yul\":5564:5587   */\n      tag_212\n        /* \"#utility.yul\":5581:5586   */\n      dup2\n        /* \"#utility.yul\":5564:5587   */\n      tag_111\n      jump\t// in\n    tag_212:\n        /* \"#utility.yul\":5559:5562   */\n      dup3\n        /* \"#utility.yul\":5552:5588   */\n      mstore\n        /* \"#utility.yul\":5489:5594   */\n      pop\n      pop\n      jump\t// out\n        /* \"#utility.yul\":5668:6162   */\n    tag_113:\n        /* \"#utility.yul\":5797:5801   */\n      0x40\n        /* \"#utility.yul\":5792:5795   */\n      dup3\n        /* \"#utility.yul\":5788:5802   */\n      add\n        /* \"#utility.yul\":5886:5890   */\n      0x00\n        /* \"#utility.yul\":5879:5884   */\n      dup3\n        /* \"#utility.yul\":5875:5891   */\n      add\n        /* \"#utility.yul\":5869:5892   */\n      mload\n        /* \"#utility.yul\":5905:5968   */\n      tag_214\n        /* \"#utility.yul\":5962:5966   */\n      0x00\n        /* \"#utility.yul\":5957:5960   */\n      dup6\n        /* \"#utility.yul\":5953:5967   */\n      add\n        /* \"#utility.yul\":5939:5951   */\n      dup3\n        /* \"#utility.yul\":5905:5968   */\n      tag_99\n      jump\t// in\n    tag_214:\n        /* \"#utility.yul\":5812:5978   */\n      pop\n        /* \"#utility.yul\":6065:6069   */\n      0x20\n        /* \"#utility.yul\":6058:6063   */\n      dup3\n        /* \"#utility.yul\":6054:6070   */\n      add\n        /* \"#utility.yul\":6048:6071   */\n      mload\n        /* \"#utility.yul\":6084:6145   */\n      tag_215\n        /* \"#utility.yul\":6139:6143   */\n      0x20\n        /* \"#utility.yul\":6134:6137   */\n      dup6\n        /* \"#utility.yul\":6130:6144   */\n      add\n        /* \"#utility.yul\":6116:6128   */\n      dup3\n        /* \"#utility.yul\":6084:6145   */\n      tag_112\n      jump\t// in\n    tag_215:\n        /* \"#utility.yul\":5988:6155   */\n      pop\n        /* \"#utility.yul\":5766:6162   */\n      pop\n        /* \"#utility.yul\":5668:6162   */\n      pop\n      pop\n      jump\t// out\n        /* \"#utility.yul\":6168:6431   */\n    tag_114:\n        /* \"#utility.yul\":6279:6289   */\n      0x00\n        /* \"#utility.yul\":6300:6388   */\n      tag_217\n        /* \"#utility.yul\":6384:6387   */\n      dup4\n        /* \"#utility.yul\":6376:6382   */\n      dup4\n        /* \"#utility.yul\":6300:6388   */\n      tag_113\n      jump\t// in\n    tag_217:\n        /* \"#utility.yul\":6420:6424   */\n      0x40\n        /* \"#utility.yul\":6415:6418   */\n      dup4\n        /* \"#utility.yul\":6411:6425   */\n      add\n        /* \"#utility.yul\":6397:6425   */\n      swap1\n      pop\n        /* \"#utility.yul\":6168:6431   */\n      swap3\n      swap2\n      pop\n      pop\n      jump\t// out\n        /* \"#utility.yul\":6437:6571   */\n    tag_115:\n        /* \"#utility.yul\":6528:6532   */\n      0x00\n        /* \"#utility.yul\":6560:6564   */\n      0x20\n        /* \"#utility.yul\":6555:6558   */\n      dup3\n        /* \"#utility.yul\":6551:6565   */\n      add\n        /* \"#utility.yul\":6543:6565   */\n      swap1\n      pop\n        /* \"#utility.yul\":6437:6571   */\n      swap2\n      swap1\n      pop\n      jump\t// out\n        /* \"#utility.yul\":6649:7529   */\n    tag_116:\n        /* \"#utility.yul\":6800:6803   */\n      0x00\n        /* \"#utility.yul\":6829:6904   */\n      tag_220\n        /* \"#utility.yul\":6898:6903   */\n      dup3\n        /* \"#utility.yul\":6829:6904   */\n      tag_108\n      jump\t// in\n    tag_220:\n        /* \"#utility.yul\":6920:7017   */\n      tag_221\n        /* \"#utility.yul\":7010:7016   */\n      dup2\n        /* \"#utility.yul\":7005:7008   */\n      dup6\n        /* \"#utility.yul\":6920:7017   */\n      tag_109\n      jump\t// in\n    tag_221:\n        /* \"#utility.yul\":6913:7017   */\n      swap4\n      pop\n        /* \"#utility.yul\":7041:7118   */\n      tag_222\n        /* \"#utility.yul\":7112:7117   */\n      dup4\n        /* \"#utility.yul\":7041:7118   */\n      tag_110\n      jump\t// in\n    tag_222:\n        /* \"#utility.yul\":7141:7148   */\n      dup1\n        /* \"#utility.yul\":7172:7173   */\n      0x00\n        /* \"#utility.yul\":7157:7504   */\n    tag_223:\n        /* \"#utility.yul\":7182:7188   */\n      dup4\n        /* \"#utility.yul\":7179:7180   */\n      dup2\n        /* \"#utility.yul\":7176:7189   */\n      lt\n        /* \"#utility.yul\":7157:7504   */\n      iszero\n      tag_225\n      jumpi\n        /* \"#utility.yul\":7258:7264   */\n      dup2\n        /* \"#utility.yul\":7252:7265   */\n      mload\n        /* \"#utility.yul\":7285:7390   */\n      tag_226\n        /* \"#utility.yul\":7386:7389   */\n      dup9\n        /* \"#utility.yul\":7371:7384   */\n      dup3\n        /* \"#utility.yul\":7285:7390   */\n      tag_114\n      jump\t// in\n    tag_226:\n        /* \"#utility.yul\":7278:7390   */\n      swap8\n      pop\n        /* \"#utility.yul\":7413:7494   */\n      tag_227\n        /* \"#utility.yul\":7487:7493   */\n      dup4\n        /* \"#utility.yul\":7413:7494   */\n      tag_115\n      jump\t// in\n    tag_227:\n        /* \"#utility.yul\":7403:7494   */\n      swap3\n      pop\n        /* \"#utility.yul\":7217:7504   */\n      pop\n        /* \"#utility.yul\":7204:7205   */\n      0x01\n        /* \"#utility.yul\":7201:7202   */\n      dup2\n        /* \"#utility.yul\":7197:7206   */\n      add\n        /* \"#utility.yul\":7192:7206   */\n      swap1\n      pop\n        /* \"#utility.yul\":7157:7504   */\n      jump(tag_223)\n    tag_225:\n        /* \"#utility.yul\":7161:7175   */\n      pop\n        /* \"#utility.yul\":7520:7523   */\n      dup6\n        /* \"#utility.yul\":7513:7523   */\n      swap4\n      pop\n        /* \"#utility.yul\":6805:7529   */\n      pop\n      pop\n      pop\n        /* \"#utility.yul\":6649:7529   */\n      swap3\n      swap2\n      pop\n      pop\n      jump\t// out\n        /* \"#utility.yul\":7623:9443   */\n    tag_117:\n        /* \"#utility.yul\":7756:7759   */\n      0x00\n        /* \"#utility.yul\":7792:7796   */\n      0xe0\n        /* \"#utility.yul\":7787:7790   */\n      dup4\n        /* \"#utility.yul\":7783:7797   */\n      add\n        /* \"#utility.yul\":7880:7884   */\n      0x00\n        /* \"#utility.yul\":7873:7878   */\n      dup4\n        /* \"#utility.yul\":7869:7885   */\n      add\n        /* \"#utility.yul\":7863:7886   */\n      mload\n        /* \"#utility.yul\":7899:7962   */\n      tag_229\n        /* \"#utility.yul\":7956:7960   */\n      0x00\n        /* \"#utility.yul\":7951:7954   */\n      dup7\n        /* \"#utility.yul\":7947:7961   */\n      add\n        /* \"#utility.yul\":7933:7945   */\n      dup3\n        /* \"#utility.yul\":7899:7962   */\n      tag_99\n      jump\t// in\n    tag_229:\n        /* \"#utility.yul\":7807:7972   */\n      pop\n        /* \"#utility.yul\":8061:8065   */\n      0x20\n        /* \"#utility.yul\":8054:8059   */\n      dup4\n        /* \"#utility.yul\":8050:8066   */\n      add\n        /* \"#utility.yul\":8044:8067   */\n      mload\n        /* \"#utility.yul\":8114:8117   */\n      dup5\n        /* \"#utility.yul\":8108:8112   */\n      dup3\n        /* \"#utility.yul\":8104:8118   */\n      sub\n        /* \"#utility.yul\":8097:8101   */\n      0x20\n        /* \"#utility.yul\":8092:8095   */\n      dup7\n        /* \"#utility.yul\":8088:8102   */\n      add\n        /* \"#utility.yul\":8081:8119   */\n      mstore\n        /* \"#utility.yul\":8140:8213   */\n      tag_230\n        /* \"#utility.yul\":8208:8212   */\n      dup3\n        /* \"#utility.yul\":8194:8206   */\n      dup3\n        /* \"#utility.yul\":8140:8213   */\n      tag_104\n      jump\t// in\n    tag_230:\n        /* \"#utility.yul\":8132:8213   */\n      swap2\n      pop\n        /* \"#utility.yul\":7982:8224   */\n      pop\n        /* \"#utility.yul\":8311:8315   */\n      0x40\n        /* \"#utility.yul\":8304:8309   */\n      dup4\n        /* \"#utility.yul\":8300:8316   */\n      add\n        /* \"#utility.yul\":8294:8317   */\n      mload\n        /* \"#utility.yul\":8330:8393   */\n      tag_231\n        /* \"#utility.yul\":8387:8391   */\n      0x40\n        /* \"#utility.yul\":8382:8385   */\n      dup7\n        /* \"#utility.yul\":8378:8392   */\n      add\n        /* \"#utility.yul\":8364:8376   */\n      dup3\n        /* \"#utility.yul\":8330:8393   */\n      tag_105\n      jump\t// in\n    tag_231:\n        /* \"#utility.yul\":8234:8403   */\n      pop\n        /* \"#utility.yul\":8492:8496   */\n      0x60\n        /* \"#utility.yul\":8485:8490   */\n      dup4\n        /* \"#utility.yul\":8481:8497   */\n      add\n        /* \"#utility.yul\":8475:8498   */\n      mload\n        /* \"#utility.yul\":8511:8568   */\n      tag_232\n        /* \"#utility.yul\":8562:8566   */\n      0x60\n        /* \"#utility.yul\":8557:8560   */\n      dup7\n        /* \"#utility.yul\":8553:8567   */\n      add\n        /* \"#utility.yul\":8539:8551   */\n      dup3\n        /* \"#utility.yul\":8511:8568   */\n      tag_107\n      jump\t// in\n    tag_232:\n        /* \"#utility.yul\":8413:8578   */\n      pop\n        /* \"#utility.yul\":8671:8675   */\n      0x80\n        /* \"#utility.yul\":8664:8669   */\n      dup4\n        /* \"#utility.yul\":8660:8676   */\n      add\n        /* \"#utility.yul\":8654:8677   */\n      mload\n        /* \"#utility.yul\":8690:8753   */\n      tag_233\n        /* \"#utility.yul\":8747:8751   */\n      0x80\n        /* \"#utility.yul\":8742:8745   */\n      dup7\n        /* \"#utility.yul\":8738:8752   */\n      add\n        /* \"#utility.yul\":8724:8736   */\n      dup3\n        /* \"#utility.yul\":8690:8753   */\n      tag_99\n      jump\t// in\n    tag_233:\n        /* \"#utility.yul\":8588:8763   */\n      pop\n        /* \"#utility.yul\":8857:8861   */\n      0xa0\n        /* \"#utility.yul\":8850:8855   */\n      dup4\n        /* \"#utility.yul\":8846:8862   */\n      add\n        /* \"#utility.yul\":8840:8863   */\n      mload\n        /* \"#utility.yul\":8910:8913   */\n      dup5\n        /* \"#utility.yul\":8904:8908   */\n      dup3\n        /* \"#utility.yul\":8900:8914   */\n      sub\n        /* \"#utility.yul\":8893:8897   */\n      0xa0\n        /* \"#utility.yul\":8888:8891   */\n      dup7\n        /* \"#utility.yul\":8884:8898   */\n      add\n        /* \"#utility.yul\":8877:8915   */\n      mstore\n        /* \"#utility.yul\":8936:9081   */\n      tag_234\n        /* \"#utility.yul\":9076:9080   */\n      dup3\n        /* \"#utility.yul\":9062:9074   */\n      dup3\n        /* \"#utility.yul\":8936:9081   */\n      tag_116\n      jump\t// in\n    tag_234:\n        /* \"#utility.yul\":8928:9081   */\n      swap2\n      pop\n        /* \"#utility.yul\":8773:9092   */\n      pop\n        /* \"#utility.yul\":9181:9185   */\n      0xc0\n        /* \"#utility.yul\":9174:9179   */\n      dup4\n        /* \"#utility.yul\":9170:9186   */\n      add\n        /* \"#utility.yul\":9164:9187   */\n      mload\n        /* \"#utility.yul\":9234:9237   */\n      dup5\n        /* \"#utility.yul\":9228:9232   */\n      dup3\n        /* \"#utility.yul\":9224:9238   */\n      sub\n        /* \"#utility.yul\":9217:9221   */\n      0xc0\n        /* \"#utility.yul\":9212:9215   */\n      dup7\n        /* \"#utility.yul\":9208:9222   */\n      add\n        /* \"#utility.yul\":9201:9239   */\n      mstore\n        /* \"#utility.yul\":9260:9405   */\n      tag_235\n        /* \"#utility.yul\":9400:9404   */\n      dup3\n        /* \"#utility.yul\":9386:9398   */\n      dup3\n        /* \"#utility.yul\":9260:9405   */\n      tag_116\n      jump\t// in\n    tag_235:\n        /* \"#utility.yul\":9252:9405   */\n      swap2\n      pop\n        /* \"#utility.yul\":9102:9416   */\n      pop\n        /* \"#utility.yul\":9433:9437   */\n      dup1\n        /* \"#utility.yul\":9426:9437   */\n      swap2\n      pop\n        /* \"#utility.yul\":7761:9443   */\n      pop\n        /* \"#utility.yul\":7623:9443   */\n      swap3\n      swap2\n      pop\n      pop\n      jump\t// out\n        /* \"#utility.yul\":9449:9850   */\n    tag_26:\n        /* \"#utility.yul\":9606:9610   */\n      0x00\n        /* \"#utility.yul\":9644:9646   */\n      0x20\n        /* \"#utility.yul\":9633:9642   */\n      dup3\n        /* \"#utility.yul\":9629:9647   */\n      add\n        /* \"#utility.yul\":9621:9647   */\n      swap1\n      pop\n        /* \"#utility.yul\":9693:9702   */\n      dup2\n        /* \"#utility.yul\":9687:9691   */\n      dup2\n        /* \"#utility.yul\":9683:9703   */\n      sub\n        /* \"#utility.yul\":9679:9680   */\n      0x00\n        /* \"#utility.yul\":9668:9677   */\n      dup4\n        /* \"#utility.yul\":9664:9681   */\n      add\n        /* \"#utility.yul\":9657:9704   */\n      mstore\n        /* \"#utility.yul\":9721:9843   */\n      tag_237\n        /* \"#utility.yul\":9838:9842   */\n      dup2\n        /* \"#utility.yul\":9829:9835   */\n      dup5\n        /* \"#utility.yul\":9721:9843   */\n      tag_117\n      jump\t// in\n    tag_237:\n        /* \"#utility.yul\":9713:9843   */\n      swap1\n      pop\n        /* \"#utility.yul\":9449:9850   */\n      swap3\n      swap2\n      pop\n      pop\n      jump\t// out\n        /* \"#utility.yul\":9856:9978   */\n    tag_118:\n        /* \"#utility.yul\":9929:9953   */\n      tag_239\n        /* \"#utility.yul\":9947:9952   */\n      dup2\n        /* \"#utility.yul\":9929:9953   */\n      tag_98\n      jump\t// in\n    tag_239:\n        /* \"#utility.yul\":9922:9927   */\n      dup2\n        /* \"#utility.yul\":9919:9954   */\n      eq\n        /* \"#utility.yul\":9909:9972   */\n      tag_240\n      jumpi\n        /* \"#utility.yul\":9968:9969   */\n      0x00\n        /* \"#utility.yul\":9965:9966   */\n      dup1\n        /* \"#utility.yul\":9958:9970   */\n      revert\n        /* \"#utility.yul\":9909:9972   */\n    tag_240:\n        /* \"#utility.yul\":9856:9978   */\n      pop\n      jump\t// out\n        /* \"#utility.yul\":9984:10123   */\n    tag_119:\n        /* \"#utility.yul\":10030:10035   */\n      0x00\n        /* \"#utility.yul\":10068:10074   */\n      dup2\n        /* \"#utility.yul\":10055:10075   */\n      calldataload\n        /* \"#utility.yul\":10046:10075   */\n      swap1\n      pop\n        /* \"#utility.yul\":10084:10117   */\n      tag_242\n        /* \"#utility.yul\":10111:10116   */\n      dup2\n        /* \"#utility.yul\":10084:10117   */\n      tag_118\n      jump\t// in\n    tag_242:\n        /* \"#utility.yul\":9984:10123   */\n      swap3\n      swap2\n      pop\n      pop\n      jump\t// out\n        /* \"#utility.yul\":10129:10458   */\n    tag_29:\n        /* \"#utility.yul\":10188:10194   */\n      0x00\n        /* \"#utility.yul\":10237:10239   */\n      0x20\n        /* \"#utility.yul\":10225:10234   */\n      dup3\n        /* \"#utility.yul\":10216:10223   */\n      dup5\n        /* \"#utility.yul\":10212:10235   */\n      sub\n        /* \"#utility.yul\":10208:10240   */\n      slt\n        /* \"#utility.yul\":10205:10324   */\n      iszero\n      tag_244\n      jumpi\n        /* \"#utility.yul\":10243:10322   */\n      tag_245\n      tag_93\n      jump\t// in\n    tag_245:\n        /* \"#utility.yul\":10205:10324   */\n    tag_244:\n        /* \"#utility.yul\":10363:10364   */\n      0x00\n        /* \"#utility.yul\":10388:10441   */\n      tag_246\n        /* \"#utility.yul\":10433:10440   */\n      dup5\n        /* \"#utility.yul\":10424:10430   */\n      dup3\n        /* \"#utility.yul\":10413:10422   */\n      dup6\n        /* \"#utility.yul\":10409:10431   */\n      add\n        /* \"#utility.yul\":10388:10441   */\n      tag_119\n      jump\t// in\n    tag_246:\n        /* \"#utility.yul\":10378:10441   */\n      swap2\n      pop\n        /* \"#utility.yul\":10334:10451   */\n      pop\n        /* \"#utility.yul\":10129:10458   */\n      swap3\n      swap2\n      pop\n      pop\n      jump\t// out\n        /* \"#utility.yul\":10556:11012   */\n    tag_120:\n        /* \"#utility.yul\":10693:10696   */\n      0x00\n        /* \"#utility.yul\":10729:10733   */\n      0x20\n        /* \"#utility.yul\":10724:10727   */\n      dup4\n        /* \"#utility.yul\":10720:10734   */\n      add\n        /* \"#utility.yul\":10822:10826   */\n      0x00\n        /* \"#utility.yul\":10815:10820   */\n      dup4\n        /* \"#utility.yul\":10811:10827   */\n      add\n        /* \"#utility.yul\":10805:10828   */\n      mload\n        /* \"#utility.yul\":10875:10878   */\n      dup5\n        /* \"#utility.yul\":10869:10873   */\n      dup3\n        /* \"#utility.yul\":10865:10879   */\n      sub\n        /* \"#utility.yul\":10858:10862   */\n      0x00\n        /* \"#utility.yul\":10853:10856   */\n      dup7\n        /* \"#utility.yul\":10849:10863   */\n      add\n        /* \"#utility.yul\":10842:10880   */\n      mstore\n        /* \"#utility.yul\":10901:10974   */\n      tag_248\n        /* \"#utility.yul\":10969:10973   */\n      dup3\n        /* \"#utility.yul\":10955:10967   */\n      dup3\n        /* \"#utility.yul\":10901:10974   */\n      tag_104\n      jump\t// in\n    tag_248:\n        /* \"#utility.yul\":10893:10974   */\n      swap2\n      pop\n        /* \"#utility.yul\":10744:10985   */\n      pop\n        /* \"#utility.yul\":11002:11006   */\n      dup1\n        /* \"#utility.yul\":10995:11006   */\n      swap2\n      pop\n        /* \"#utility.yul\":10698:11012   */\n      pop\n        /* \"#utility.yul\":10556:11012   */\n      swap3\n      swap2\n      pop\n      pop\n      jump\t// out\n        /* \"#utility.yul\":11018:11427   */\n    tag_32:\n        /* \"#utility.yul\":11179:11183   */\n      0x00\n        /* \"#utility.yul\":11217:11219   */\n      0x20\n        /* \"#utility.yul\":11206:11215   */\n      dup3\n        /* \"#utility.yul\":11202:11220   */\n      add\n        /* \"#utility.yul\":11194:11220   */\n      swap1\n      pop\n        /* \"#utility.yul\":11266:11275   */\n      dup2\n        /* \"#utility.yul\":11260:11264   */\n      dup2\n        /* \"#utility.yul\":11256:11276   */\n      sub\n        /* \"#utility.yul\":11252:11253   */\n      0x00\n        /* \"#utility.yul\":11241:11250   */\n      dup4\n        /* \"#utility.yul\":11237:11254   */\n      add\n        /* \"#utility.yul\":11230:11277   */\n      mstore\n        /* \"#utility.yul\":11294:11420   */\n      tag_250\n        /* \"#utility.yul\":11415:11419   */\n      dup2\n        /* \"#utility.yul\":11406:11412   */\n      dup5\n        /* \"#utility.yul\":11294:11420   */\n      tag_120\n      jump\t// in\n    tag_250:\n        /* \"#utility.yul\":11286:11420   */\n      swap1\n      pop\n        /* \"#utility.yul\":11018:11427   */\n      swap3\n      swap2\n      pop\n      pop\n      jump\t// out\n        /* \"#utility.yul\":11433:11583   */\n    tag_121:\n        /* \"#utility.yul\":11507:11516   */\n      0x00\n        /* \"#utility.yul\":11540:11577   */\n      tag_252\n        /* \"#utility.yul\":11571:11576   */\n      dup3\n        /* \"#utility.yul\":11540:11577   */\n      tag_85\n      jump\t// in\n    tag_252:\n        /* \"#utility.yul\":11527:11577   */\n      swap1\n      pop\n        /* \"#utility.yul\":11433:11583   */\n      swap2\n      swap1\n      pop\n      jump\t// out\n        /* \"#utility.yul\":11589:11768   */\n    tag_122:\n        /* \"#utility.yul\":11700:11761   */\n      tag_254\n        /* \"#utility.yul\":11755:11760   */\n      dup2\n        /* \"#utility.yul\":11700:11761   */\n      tag_121\n      jump\t// in\n    tag_254:\n        /* \"#utility.yul\":11695:11698   */\n      dup3\n        /* \"#utility.yul\":11688:11762   */\n      mstore\n        /* \"#utility.yul\":11589:11768   */\n      pop\n      pop\n      jump\t// out\n        /* \"#utility.yul\":11774:12044   */\n    tag_36:\n        /* \"#utility.yul\":11891:11895   */\n      0x00\n        /* \"#utility.yul\":11929:11931   */\n      0x20\n        /* \"#utility.yul\":11918:11927   */\n      dup3\n        /* \"#utility.yul\":11914:11932   */\n      add\n        /* \"#utility.yul\":11906:11932   */\n      swap1\n      pop\n        /* \"#utility.yul\":11942:12037   */\n      tag_256\n        /* \"#utility.yul\":12034:12035   */\n      0x00\n        /* \"#utility.yul\":12023:12032   */\n      dup4\n        /* \"#utility.yul\":12019:12036   */\n      add\n        /* \"#utility.yul\":12010:12016   */\n      dup5\n        /* \"#utility.yul\":11942:12037   */\n      tag_122\n      jump\t// in\n    tag_256:\n        /* \"#utility.yul\":11774:12044   */\n      swap3\n      swap2\n      pop\n      pop\n      jump\t// out\n        /* \"#utility.yul\":12050:12168   */\n    tag_123:\n        /* \"#utility.yul\":12137:12161   */\n      tag_258\n        /* \"#utility.yul\":12155:12160   */\n      dup2\n        /* \"#utility.yul\":12137:12161   */\n      tag_95\n      jump\t// in\n    tag_258:\n        /* \"#utility.yul\":12132:12135   */\n      dup3\n        /* \"#utility.yul\":12125:12162   */\n      mstore\n        /* \"#utility.yul\":12050:12168   */\n      pop\n      pop\n      jump\t// out\n        /* \"#utility.yul\":12174:12396   */\n    tag_41:\n        /* \"#utility.yul\":12267:12271   */\n      0x00\n        /* \"#utility.yul\":12305:12307   */\n      0x20\n        /* \"#utility.yul\":12294:12303   */\n      dup3\n        /* \"#utility.yul\":12290:12308   */\n      add\n        /* \"#utility.yul\":12282:12308   */\n      swap1\n      pop\n        /* \"#utility.yul\":12318:12389   */\n      tag_260\n        /* \"#utility.yul\":12386:12387   */\n      0x00\n        /* \"#utility.yul\":12375:12384   */\n      dup4\n        /* \"#utility.yul\":12371:12388   */\n      add\n        /* \"#utility.yul\":12362:12368   */\n      dup5\n        /* \"#utility.yul\":12318:12389   */\n      tag_123\n      jump\t// in\n    tag_260:\n        /* \"#utility.yul\":12174:12396   */\n      swap3\n      swap2\n      pop\n      pop\n      jump\t// out\n        /* \"#utility.yul\":12402:12545   */\n    tag_124:\n        /* \"#utility.yul\":12459:12464   */\n      0x00\n        /* \"#utility.yul\":12490:12496   */\n      dup2\n        /* \"#utility.yul\":12484:12497   */\n      mload\n        /* \"#utility.yul\":12475:12497   */\n      swap1\n      pop\n        /* \"#utility.yul\":12506:12539   */\n      tag_262\n        /* \"#utility.yul\":12533:12538   */\n      dup2\n        /* \"#utility.yul\":12506:12539   */\n      tag_118\n      jump\t// in\n    tag_262:\n        /* \"#utility.yul\":12402:12545   */\n      swap3\n      swap2\n      pop\n      pop\n      jump\t// out\n        /* \"#utility.yul\":12551:12902   */\n    tag_45:\n        /* \"#utility.yul\":12621:12627   */\n      0x00\n        /* \"#utility.yul\":12670:12672   */\n      0x20\n        /* \"#utility.yul\":12658:12667   */\n      dup3\n        /* \"#utility.yul\":12649:12656   */\n      dup5\n        /* \"#utility.yul\":12645:12668   */\n      sub\n        /* \"#utility.yul\":12641:12673   */\n      slt\n        /* \"#utility.yul\":12638:12757   */\n      iszero\n      tag_264\n      jumpi\n        /* \"#utility.yul\":12676:12755   */\n      tag_265\n      tag_93\n      jump\t// in\n    tag_265:\n        /* \"#utility.yul\":12638:12757   */\n    tag_264:\n        /* \"#utility.yul\":12796:12797   */\n      0x00\n        /* \"#utility.yul\":12821:12885   */\n      tag_266\n        /* \"#utility.yul\":12877:12884   */\n      dup5\n        /* \"#utility.yul\":12868:12874   */\n      dup3\n        /* \"#utility.yul\":12857:12866   */\n      dup6\n        /* \"#utility.yul\":12853:12875   */\n      add\n        /* \"#utility.yul\":12821:12885   */\n      tag_124\n      jump\t// in\n    tag_266:\n        /* \"#utility.yul\":12811:12885   */\n      swap2\n      pop\n        /* \"#utility.yul\":12767:12895   */\n      pop\n        /* \"#utility.yul\":12551:12902   */\n      swap3\n      swap2\n      pop\n      pop\n      jump\t// out\n        /* \"#utility.yul\":12908:13025   */\n    tag_125:\n        /* \"#utility.yul\":13017:13018   */\n      0x00\n        /* \"#utility.yul\":13014:13015   */\n      dup1\n        /* \"#utility.yul\":13007:13019   */\n      revert\n        /* \"#utility.yul\":13031:13148   */\n    tag_126:\n        /* \"#utility.yul\":13140:13141   */\n      0x00\n        /* \"#utility.yul\":13137:13138   */\n      dup1\n        /* \"#utility.yul\":13130:13142   */\n      revert\n        /* \"#utility.yul\":13154:13334   */\n    tag_127:\n        /* \"#utility.yul\":13202:13279   */\n      0x4e487b7100000000000000000000000000000000000000000000000000000000\n        /* \"#utility.yul\":13199:13200   */\n      0x00\n        /* \"#utility.yul\":13192:13280   */\n      mstore\n        /* \"#utility.yul\":13299:13303   */\n      0x41\n        /* \"#utility.yul\":13296:13297   */\n      0x04\n        /* \"#utility.yul\":13289:13304   */\n      mstore\n        /* \"#utility.yul\":13323:13327   */\n      0x24\n        /* \"#utility.yul\":13320:13321   */\n      0x00\n        /* \"#utility.yul\":13313:13328   */\n      revert\n        /* \"#utility.yul\":13340:13621   */\n    tag_128:\n        /* \"#utility.yul\":13423:13450   */\n      tag_271\n        /* \"#utility.yul\":13445:13449   */\n      dup3\n        /* \"#utility.yul\":13423:13450   */\n      tag_103\n      jump\t// in\n    tag_271:\n        /* \"#utility.yul\":13415:13421   */\n      dup2\n        /* \"#utility.yul\":13411:13451   */\n      add\n        /* \"#utility.yul\":13553:13559   */\n      dup2\n        /* \"#utility.yul\":13541:13551   */\n      dup2\n        /* \"#utility.yul\":13538:13560   */\n      lt\n        /* \"#utility.yul\":13517:13535   */\n      0xffffffffffffffff\n        /* \"#utility.yul\":13505:13515   */\n      dup3\n        /* \"#utility.yul\":13502:13536   */\n      gt\n        /* \"#utility.yul\":13499:13561   */\n      or\n        /* \"#utility.yul\":13496:13584   */\n      iszero\n      tag_272\n      jumpi\n        /* \"#utility.yul\":13564:13582   */\n      tag_273\n      tag_127\n      jump\t// in\n    tag_273:\n        /* \"#utility.yul\":13496:13584   */\n    tag_272:\n        /* \"#utility.yul\":13604:13614   */\n      dup1\n        /* \"#utility.yul\":13600:13602   */\n      0x40\n        /* \"#utility.yul\":13593:13615   */\n      mstore\n        /* \"#utility.yul\":13383:13621   */\n      pop\n        /* \"#utility.yul\":13340:13621   */\n      pop\n      pop\n      jump\t// out\n        /* \"#utility.yul\":13627:13756   */\n    tag_129:\n        /* \"#utility.yul\":13661:13667   */\n      0x00\n        /* \"#utility.yul\":13688:13708   */\n      tag_275\n      tag_92\n      jump\t// in\n    tag_275:\n        /* \"#utility.yul\":13678:13708   */\n      swap1\n      pop\n        /* \"#utility.yul\":13717:13750   */\n      tag_276\n        /* \"#utility.yul\":13745:13749   */\n      dup3\n        /* \"#utility.yul\":13737:13743   */\n      dup3\n        /* \"#utility.yul\":13717:13750   */\n      tag_128\n      jump\t// in\n    tag_276:\n        /* \"#utility.yul\":13627:13756   */\n      swap2\n      swap1\n      pop\n      jump\t// out\n        /* \"#utility.yul\":13762:14070   */\n    tag_130:\n        /* \"#utility.yul\":13824:13828   */\n      0x00\n        /* \"#utility.yul\":13914:13932   */\n      0xffffffffffffffff\n        /* \"#utility.yul\":13906:13912   */\n      dup3\n        /* \"#utility.yul\":13903:13933   */\n      gt\n        /* \"#utility.yul\":13900:13956   */\n      iszero\n      tag_278\n      jumpi\n        /* \"#utility.yul\":13936:13954   */\n      tag_279\n      tag_127\n      jump\t// in\n    tag_279:\n        /* \"#utility.yul\":13900:13956   */\n    tag_278:\n        /* \"#utility.yul\":13974:14003   */\n      tag_280\n        /* \"#utility.yul\":13996:14002   */\n      dup3\n        /* \"#utility.yul\":13974:14003   */\n      tag_103\n      jump\t// in\n    tag_280:\n        /* \"#utility.yul\":13966:14003   */\n      swap1\n      pop\n        /* \"#utility.yul\":14058:14062   */\n      0x20\n        /* \"#utility.yul\":14052:14056   */\n      dup2\n        /* \"#utility.yul\":14048:14063   */\n      add\n        /* \"#utility.yul\":14040:14063   */\n      swap1\n      pop\n        /* \"#utility.yul\":13762:14070   */\n      swap2\n      swap1\n      pop\n      jump\t// out\n        /* \"#utility.yul\":14076:14510   */\n    tag_131:\n        /* \"#utility.yul\":14165:14170   */\n      0x00\n        /* \"#utility.yul\":14190:14256   */\n      tag_282\n        /* \"#utility.yul\":14206:14255   */\n      tag_283\n        /* \"#utility.yul\":14248:14254   */\n      dup5\n        /* \"#utility.yul\":14206:14255   */\n      tag_130\n      jump\t// in\n    tag_283:\n        /* \"#utility.yul\":14190:14256   */\n      tag_129\n      jump\t// in\n    tag_282:\n        /* \"#utility.yul\":14181:14256   */\n      swap1\n      pop\n        /* \"#utility.yul\":14279:14285   */\n      dup3\n        /* \"#utility.yul\":14272:14277   */\n      dup2\n        /* \"#utility.yul\":14265:14286   */\n      mstore\n        /* \"#utility.yul\":14317:14321   */\n      0x20\n        /* \"#utility.yul\":14310:14315   */\n      dup2\n        /* \"#utility.yul\":14306:14322   */\n      add\n        /* \"#utility.yul\":14355:14358   */\n      dup5\n        /* \"#utility.yul\":14346:14352   */\n      dup5\n        /* \"#utility.yul\":14341:14344   */\n      dup5\n        /* \"#utility.yul\":14337:14353   */\n      add\n        /* \"#utility.yul\":14334:14359   */\n      gt\n        /* \"#utility.yul\":14331:14443   */\n      iszero\n      tag_284\n      jumpi\n        /* \"#utility.yul\":14362:14441   */\n      tag_285\n      tag_126\n      jump\t// in\n    tag_285:\n        /* \"#utility.yul\":14331:14443   */\n    tag_284:\n        /* \"#utility.yul\":14452:14504   */\n      tag_286\n        /* \"#utility.yul\":14497:14503   */\n      dup5\n        /* \"#utility.yul\":14492:14495   */\n      dup3\n        /* \"#utility.yul\":14487:14490   */\n      dup6\n        /* \"#utility.yul\":14452:14504   */\n      tag_102\n      jump\t// in\n    tag_286:\n        /* \"#utility.yul\":14171:14510   */\n      pop\n        /* \"#utility.yul\":14076:14510   */\n      swap4\n      swap3\n      pop\n      pop\n      pop\n      jump\t// out\n        /* \"#utility.yul\":14530:14885   */\n    tag_132:\n        /* \"#utility.yul\":14597:14602   */\n      0x00\n        /* \"#utility.yul\":14646:14649   */\n      dup3\n        /* \"#utility.yul\":14639:14643   */\n      0x1f\n        /* \"#utility.yul\":14631:14637   */\n      dup4\n        /* \"#utility.yul\":14627:14644   */\n      add\n        /* \"#utility.yul\":14623:14650   */\n      slt\n        /* \"#utility.yul\":14613:14735   */\n      tag_288\n      jumpi\n        /* \"#utility.yul\":14654:14733   */\n      tag_289\n      tag_125\n      jump\t// in\n    tag_289:\n        /* \"#utility.yul\":14613:14735   */\n    tag_288:\n        /* \"#utility.yul\":14764:14770   */\n      dup2\n        /* \"#utility.yul\":14758:14771   */\n      mload\n        /* \"#utility.yul\":14789:14879   */\n      tag_290\n        /* \"#utility.yul\":14875:14878   */\n      dup5\n        /* \"#utility.yul\":14867:14873   */\n      dup3\n        /* \"#utility.yul\":14860:14864   */\n      0x20\n        /* \"#utility.yul\":14852:14858   */\n      dup7\n        /* \"#utility.yul\":14848:14865   */\n      add\n        /* \"#utility.yul\":14789:14879   */\n      tag_131\n      jump\t// in\n    tag_290:\n        /* \"#utility.yul\":14780:14879   */\n      swap2\n      pop\n        /* \"#utility.yul\":14603:14885   */\n      pop\n        /* \"#utility.yul\":14530:14885   */\n      swap3\n      swap2\n      pop\n      pop\n      jump\t// out\n        /* \"#utility.yul\":14891:15415   */\n    tag_50:\n        /* \"#utility.yul\":14971:14977   */\n      0x00\n        /* \"#utility.yul\":15020:15022   */\n      0x20\n        /* \"#utility.yul\":15008:15017   */\n      dup3\n        /* \"#utility.yul\":14999:15006   */\n      dup5\n        /* \"#utility.yul\":14995:15018   */\n      sub\n        /* \"#utility.yul\":14991:15023   */\n      slt\n        /* \"#utility.yul\":14988:15107   */\n      iszero\n      tag_292\n      jumpi\n        /* \"#utility.yul\":15026:15105   */\n      tag_293\n      tag_93\n      jump\t// in\n    tag_293:\n        /* \"#utility.yul\":14988:15107   */\n    tag_292:\n        /* \"#utility.yul\":15167:15168   */\n      0x00\n        /* \"#utility.yul\":15156:15165   */\n      dup3\n        /* \"#utility.yul\":15152:15169   */\n      add\n        /* \"#utility.yul\":15146:15170   */\n      mload\n        /* \"#utility.yul\":15197:15215   */\n      0xffffffffffffffff\n        /* \"#utility.yul\":15189:15195   */\n      dup2\n        /* \"#utility.yul\":15186:15216   */\n      gt\n        /* \"#utility.yul\":15183:15300   */\n      iszero\n      tag_294\n      jumpi\n        /* \"#utility.yul\":15219:15298   */\n      tag_295\n      tag_94\n      jump\t// in\n    tag_295:\n        /* \"#utility.yul\":15183:15300   */\n    tag_294:\n        /* \"#utility.yul\":15324:15398   */\n      tag_296\n        /* \"#utility.yul\":15390:15397   */\n      dup5\n        /* \"#utility.yul\":15381:15387   */\n      dup3\n        /* \"#utility.yul\":15370:15379   */\n      dup6\n        /* \"#utility.yul\":15366:15388   */\n      add\n        /* \"#utility.yul\":15324:15398   */\n      tag_132\n      jump\t// in\n    tag_296:\n        /* \"#utility.yul\":15314:15398   */\n      swap2\n      pop\n        /* \"#utility.yul\":15117:15408   */\n      pop\n        /* \"#utility.yul\":14891:15415   */\n      swap3\n      swap2\n      pop\n      pop\n      jump\t// out\n        /* \"#utility.yul\":15421:15564   */\n    tag_133:\n        /* \"#utility.yul\":15478:15483   */\n      0x00\n        /* \"#utility.yul\":15509:15515   */\n      dup2\n        /* \"#utility.yul\":15503:15516   */\n      mload\n        /* \"#utility.yul\":15494:15516   */\n      swap1\n      pop\n        /* \"#utility.yul\":15525:15558   */\n      tag_298\n        /* \"#utility.yul\":15552:15557   */\n      dup2\n        /* \"#utility.yul\":15525:15558   */\n      tag_96\n      jump\t// in\n    tag_298:\n        /* \"#utility.yul\":15421:15564   */\n      swap3\n      swap2\n      pop\n      pop\n      jump\t// out\n        /* \"#utility.yul\":15570:15921   */\n    tag_55:\n        /* \"#utility.yul\":15640:15646   */\n      0x00\n        /* \"#utility.yul\":15689:15691   */\n      0x20\n        /* \"#utility.yul\":15677:15686   */\n      dup3\n        /* \"#utility.yul\":15668:15675   */\n      dup5\n        /* \"#utility.yul\":15664:15687   */\n      sub\n        /* \"#utility.yul\":15660:15692   */\n      slt\n        /* \"#utility.yul\":15657:15776   */\n      iszero\n      tag_300\n      jumpi\n        /* \"#utility.yul\":15695:15774   */\n      tag_301\n      tag_93\n      jump\t// in\n    tag_301:\n        /* \"#utility.yul\":15657:15776   */\n    tag_300:\n        /* \"#utility.yul\":15815:15816   */\n      0x00\n        /* \"#utility.yul\":15840:15904   */\n      tag_302\n        /* \"#utility.yul\":15896:15903   */\n      dup5\n        /* \"#utility.yul\":15887:15893   */\n      dup3\n        /* \"#utility.yul\":15876:15885   */\n      dup6\n        /* \"#utility.yul\":15872:15894   */\n      add\n        /* \"#utility.yul\":15840:15904   */\n      tag_133\n      jump\t// in\n    tag_302:\n        /* \"#utility.yul\":15830:15904   */\n      swap2\n      pop\n        /* \"#utility.yul\":15786:15914   */\n      pop\n        /* \"#utility.yul\":15570:15921   */\n      swap3\n      swap2\n      pop\n      pop\n      jump\t// out\n        /* \"#utility.yul\":15927:16043   */\n    tag_134:\n        /* \"#utility.yul\":15997:16018   */\n      tag_304\n        /* \"#utility.yul\":16012:16017   */\n      dup2\n        /* \"#utility.yul\":15997:16018   */\n      tag_106\n      jump\t// in\n    tag_304:\n        /* \"#utility.yul\":15990:15995   */\n      dup2\n        /* \"#utility.yul\":15987:16019   */\n      eq\n        /* \"#utility.yul\":15977:16037   */\n      tag_305\n      jumpi\n        /* \"#utility.yul\":16033:16034   */\n      0x00\n        /* \"#utility.yul\":16030:16031   */\n      dup1\n        /* \"#utility.yul\":16023:16035   */\n      revert\n        /* \"#utility.yul\":15977:16037   */\n    tag_305:\n        /* \"#utility.yul\":15927:16043   */\n      pop\n      jump\t// out\n        /* \"#utility.yul\":16049:16186   */\n    tag_135:\n        /* \"#utility.yul\":16103:16108   */\n      0x00\n        /* \"#utility.yul\":16134:16140   */\n      dup2\n        /* \"#utility.yul\":16128:16141   */\n      mload\n        /* \"#utility.yul\":16119:16141   */\n      swap1\n      pop\n        /* \"#utility.yul\":16150:16180   */\n      tag_307\n        /* \"#utility.yul\":16174:16179   */\n      dup2\n        /* \"#utility.yul\":16150:16180   */\n      tag_134\n      jump\t// in\n    tag_307:\n        /* \"#utility.yul\":16049:16186   */\n      swap3\n      swap2\n      pop\n      pop\n      jump\t// out\n        /* \"#utility.yul\":16192:16537   */\n    tag_60:\n        /* \"#utility.yul\":16259:16265   */\n      0x00\n        /* \"#utility.yul\":16308:16310   */\n      0x20\n        /* \"#utility.yul\":16296:16305   */\n      dup3\n        /* \"#utility.yul\":16287:16294   */\n      dup5\n        /* \"#utility.yul\":16283:16306   */\n      sub\n        /* \"#utility.yul\":16279:16311   */\n      slt\n        /* \"#utility.yul\":16276:16395   */\n      iszero\n      tag_309\n      jumpi\n        /* \"#utility.yul\":16314:16393   */\n      tag_310\n      tag_93\n      jump\t// in\n    tag_310:\n        /* \"#utility.yul\":16276:16395   */\n    tag_309:\n        /* \"#utility.yul\":16434:16435   */\n      0x00\n        /* \"#utility.yul\":16459:16520   */\n      tag_311\n        /* \"#utility.yul\":16512:16519   */\n      dup5\n        /* \"#utility.yul\":16503:16509   */\n      dup3\n        /* \"#utility.yul\":16492:16501   */\n      dup6\n        /* \"#utility.yul\":16488:16510   */\n      add\n        /* \"#utility.yul\":16459:16520   */\n      tag_135\n      jump\t// in\n    tag_311:\n        /* \"#utility.yul\":16449:16520   */\n      swap2\n      pop\n        /* \"#utility.yul\":16405:16530   */\n      pop\n        /* \"#utility.yul\":16192:16537   */\n      swap3\n      swap2\n      pop\n      pop\n      jump\t// out\n        /* \"#utility.yul\":16543:16875   */\n    tag_136:\n        /* \"#utility.yul\":16641:16645   */\n      0x00\n        /* \"#utility.yul\":16731:16749   */\n      0xffffffffffffffff\n        /* \"#utility.yul\":16723:16729   */\n      dup3\n        /* \"#utility.yul\":16720:16750   */\n      gt\n        /* \"#utility.yul\":16717:16773   */\n      iszero\n      tag_313\n      jumpi\n        /* \"#utility.yul\":16753:16771   */\n      tag_314\n      tag_127\n      jump\t// in\n    tag_314:\n        /* \"#utility.yul\":16717:16773   */\n    tag_313:\n        /* \"#utility.yul\":16803:16807   */\n      0x20\n        /* \"#utility.yul\":16795:16801   */\n      dup3\n        /* \"#utility.yul\":16791:16808   */\n      mul\n        /* \"#utility.yul\":16783:16808   */\n      swap1\n      pop\n        /* \"#utility.yul\":16863:16867   */\n      0x20\n        /* \"#utility.yul\":16857:16861   */\n      dup2\n        /* \"#utility.yul\":16853:16868   */\n      add\n        /* \"#utility.yul\":16845:16868   */\n      swap1\n      pop\n        /* \"#utility.yul\":16543:16875   */\n      swap2\n      swap1\n      pop\n      jump\t// out\n        /* \"#utility.yul\":16881:16998   */\n    tag_137:\n        /* \"#utility.yul\":16990:16991   */\n      0x00\n        /* \"#utility.yul\":16987:16988   */\n      dup1\n        /* \"#utility.yul\":16980:16992   */\n      revert\n        /* \"#utility.yul\":17004:17121   */\n    tag_138:\n        /* \"#utility.yul\":17113:17114   */\n      0x00\n        /* \"#utility.yul\":17110:17111   */\n      dup1\n        /* \"#utility.yul\":17103:17115   */\n      revert\n        /* \"#utility.yul\":17250:17370   */\n    tag_140:\n        /* \"#utility.yul\":17322:17345   */\n      tag_319\n        /* \"#utility.yul\":17339:17344   */\n      dup2\n        /* \"#utility.yul\":17322:17345   */\n      tag_111\n      jump\t// in\n    tag_319:\n        /* \"#utility.yul\":17315:17320   */\n      dup2\n        /* \"#utility.yul\":17312:17346   */\n      eq\n        /* \"#utility.yul\":17302:17364   */\n      tag_320\n      jumpi\n        /* \"#utility.yul\":17360:17361   */\n      0x00\n        /* \"#utility.yul\":17357:17358   */\n      dup1\n        /* \"#utility.yul\":17350:17362   */\n      revert\n        /* \"#utility.yul\":17302:17364   */\n    tag_320:\n        /* \"#utility.yul\":17250:17370   */\n      pop\n      jump\t// out\n        /* \"#utility.yul\":17376:17517   */\n    tag_141:\n        /* \"#utility.yul\":17432:17437   */\n      0x00\n        /* \"#utility.yul\":17463:17469   */\n      dup2\n        /* \"#utility.yul\":17457:17470   */\n      mload\n        /* \"#utility.yul\":17448:17470   */\n      swap1\n      pop\n        /* \"#utility.yul\":17479:17511   */\n      tag_322\n        /* \"#utility.yul\":17505:17510   */\n      dup2\n        /* \"#utility.yul\":17479:17511   */\n      tag_140\n      jump\t// in\n    tag_322:\n        /* \"#utility.yul\":17376:17517   */\n      swap3\n      swap2\n      pop\n      pop\n      jump\t// out\n        /* \"#utility.yul\":17559:18168   */\n    tag_142:\n        /* \"#utility.yul\":17640:17645   */\n      0x00\n        /* \"#utility.yul\":17684:17688   */\n      0x40\n        /* \"#utility.yul\":17672:17681   */\n      dup3\n        /* \"#utility.yul\":17667:17670   */\n      dup5\n        /* \"#utility.yul\":17663:17682   */\n      sub\n        /* \"#utility.yul\":17659:17689   */\n      slt\n        /* \"#utility.yul\":17656:17773   */\n      iszero\n      tag_324\n      jumpi\n        /* \"#utility.yul\":17692:17771   */\n      tag_325\n      tag_138\n      jump\t// in\n    tag_325:\n        /* \"#utility.yul\":17656:17773   */\n    tag_324:\n        /* \"#utility.yul\":17791:17812   */\n      tag_326\n        /* \"#utility.yul\":17807:17811   */\n      0x40\n        /* \"#utility.yul\":17791:17812   */\n      tag_129\n      jump\t// in\n    tag_326:\n        /* \"#utility.yul\":17782:17812   */\n      swap1\n      pop\n        /* \"#utility.yul\":17873:17874   */\n      0x00\n        /* \"#utility.yul\":17913:17973   */\n      tag_327\n        /* \"#utility.yul\":17969:17972   */\n      dup5\n        /* \"#utility.yul\":17960:17966   */\n      dup3\n        /* \"#utility.yul\":17949:17958   */\n      dup6\n        /* \"#utility.yul\":17945:17967   */\n      add\n        /* \"#utility.yul\":17913:17973   */\n      tag_124\n      jump\t// in\n    tag_327:\n        /* \"#utility.yul\":17906:17910   */\n      0x00\n        /* \"#utility.yul\":17899:17904   */\n      dup4\n        /* \"#utility.yul\":17895:17911   */\n      add\n        /* \"#utility.yul\":17888:17974   */\n      mstore\n        /* \"#utility.yul\":17822:17985   */\n      pop\n        /* \"#utility.yul\":18049:18051   */\n      0x20\n        /* \"#utility.yul\":18090:18149   */\n      tag_328\n        /* \"#utility.yul\":18145:18148   */\n      dup5\n        /* \"#utility.yul\":18136:18142   */\n      dup3\n        /* \"#utility.yul\":18125:18134   */\n      dup6\n        /* \"#utility.yul\":18121:18143   */\n      add\n        /* \"#utility.yul\":18090:18149   */\n      tag_141\n      jump\t// in\n    tag_328:\n        /* \"#utility.yul\":18083:18087   */\n      0x20\n        /* \"#utility.yul\":18076:18081   */\n      dup4\n        /* \"#utility.yul\":18072:18088   */\n      add\n        /* \"#utility.yul\":18065:18150   */\n      mstore\n        /* \"#utility.yul\":17995:18161   */\n      pop\n        /* \"#utility.yul\":17559:18168   */\n      swap3\n      swap2\n      pop\n      pop\n      jump\t// out\n        /* \"#utility.yul\":18212:19007   */\n    tag_143:\n        /* \"#utility.yul\":18340:18345   */\n      0x00\n        /* \"#utility.yul\":18365:18467   */\n      tag_330\n        /* \"#utility.yul\":18381:18466   */\n      tag_331\n        /* \"#utility.yul\":18459:18465   */\n      dup5\n        /* \"#utility.yul\":18381:18466   */\n      tag_136\n      jump\t// in\n    tag_331:\n        /* \"#utility.yul\":18365:18467   */\n      tag_129\n      jump\t// in\n    tag_330:\n        /* \"#utility.yul\":18356:18467   */\n      swap1\n      pop\n        /* \"#utility.yul\":18487:18492   */\n      dup1\n        /* \"#utility.yul\":18516:18522   */\n      dup4\n        /* \"#utility.yul\":18509:18514   */\n      dup3\n        /* \"#utility.yul\":18502:18523   */\n      mstore\n        /* \"#utility.yul\":18550:18554   */\n      0x20\n        /* \"#utility.yul\":18543:18548   */\n      dup3\n        /* \"#utility.yul\":18539:18555   */\n      add\n        /* \"#utility.yul\":18532:18555   */\n      swap1\n      pop\n        /* \"#utility.yul\":18603:18607   */\n      0x40\n        /* \"#utility.yul\":18595:18601   */\n      dup5\n        /* \"#utility.yul\":18591:18608   */\n      mul\n        /* \"#utility.yul\":18583:18589   */\n      dup4\n        /* \"#utility.yul\":18579:18609   */\n      add\n        /* \"#utility.yul\":18632:18635   */\n      dup6\n        /* \"#utility.yul\":18624:18630   */\n      dup2\n        /* \"#utility.yul\":18621:18636   */\n      gt\n        /* \"#utility.yul\":18618:18740   */\n      iszero\n      tag_332\n      jumpi\n        /* \"#utility.yul\":18651:18730   */\n      tag_333\n      tag_137\n      jump\t// in\n    tag_333:\n        /* \"#utility.yul\":18618:18740   */\n    tag_332:\n        /* \"#utility.yul\":18766:18772   */\n      dup4\n        /* \"#utility.yul\":18749:19001   */\n    tag_334:\n        /* \"#utility.yul\":18783:18789   */\n      dup2\n        /* \"#utility.yul\":18778:18781   */\n      dup2\n        /* \"#utility.yul\":18775:18790   */\n      lt\n        /* \"#utility.yul\":18749:19001   */\n      iszero\n      tag_336\n      jumpi\n        /* \"#utility.yul\":18858:18861   */\n      dup1\n        /* \"#utility.yul\":18887:18956   */\n      tag_337\n        /* \"#utility.yul\":18952:18955   */\n      dup9\n        /* \"#utility.yul\":18940:18950   */\n      dup3\n        /* \"#utility.yul\":18887:18956   */\n      tag_142\n      jump\t// in\n    tag_337:\n        /* \"#utility.yul\":18882:18885   */\n      dup5\n        /* \"#utility.yul\":18875:18957   */\n      mstore\n        /* \"#utility.yul\":18986:18990   */\n      0x20\n        /* \"#utility.yul\":18981:18984   */\n      dup5\n        /* \"#utility.yul\":18977:18991   */\n      add\n        /* \"#utility.yul\":18970:18991   */\n      swap4\n      pop\n        /* \"#utility.yul\":18825:19001   */\n      pop\n        /* \"#utility.yul\":18809:18813   */\n      0x40\n        /* \"#utility.yul\":18804:18807   */\n      dup2\n        /* \"#utility.yul\":18800:18814   */\n      add\n        /* \"#utility.yul\":18793:18814   */\n      swap1\n      pop\n        /* \"#utility.yul\":18749:19001   */\n      jump(tag_334)\n    tag_336:\n        /* \"#utility.yul\":18753:18774   */\n      pop\n        /* \"#utility.yul\":18346:19007   */\n      pop\n      pop\n        /* \"#utility.yul\":18212:19007   */\n      swap4\n      swap3\n      pop\n      pop\n      pop\n      jump\t// out\n        /* \"#utility.yul\":19051:19478   */\n    tag_144:\n        /* \"#utility.yul\":19154:19159   */\n      0x00\n        /* \"#utility.yul\":19203:19206   */\n      dup3\n        /* \"#utility.yul\":19196:19200   */\n      0x1f\n        /* \"#utility.yul\":19188:19194   */\n      dup4\n        /* \"#utility.yul\":19184:19201   */\n      add\n        /* \"#utility.yul\":19180:19207   */\n      slt\n        /* \"#utility.yul\":19170:19292   */\n      tag_339\n      jumpi\n        /* \"#utility.yul\":19211:19290   */\n      tag_340\n      tag_125\n      jump\t// in\n    tag_340:\n        /* \"#utility.yul\":19170:19292   */\n    tag_339:\n        /* \"#utility.yul\":19321:19327   */\n      dup2\n        /* \"#utility.yul\":19315:19328   */\n      mload\n        /* \"#utility.yul\":19346:19472   */\n      tag_341\n        /* \"#utility.yul\":19468:19471   */\n      dup5\n        /* \"#utility.yul\":19460:19466   */\n      dup3\n        /* \"#utility.yul\":19453:19457   */\n      0x20\n        /* \"#utility.yul\":19445:19451   */\n      dup7\n        /* \"#utility.yul\":19441:19458   */\n      add\n        /* \"#utility.yul\":19346:19472   */\n      tag_143\n      jump\t// in\n    tag_341:\n        /* \"#utility.yul\":19337:19472   */\n      swap2\n      pop\n        /* \"#utility.yul\":19160:19478   */\n      pop\n        /* \"#utility.yul\":19051:19478   */\n      swap3\n      swap2\n      pop\n      pop\n      jump\t// out\n        /* \"#utility.yul\":19484:20080   */\n    tag_69:\n        /* \"#utility.yul\":19600:19606   */\n      0x00\n        /* \"#utility.yul\":19649:19651   */\n      0x20\n        /* \"#utility.yul\":19637:19646   */\n      dup3\n        /* \"#utility.yul\":19628:19635   */\n      dup5\n        /* \"#utility.yul\":19624:19647   */\n      sub\n        /* \"#utility.yul\":19620:19652   */\n      slt\n        /* \"#utility.yul\":19617:19736   */\n      iszero\n      tag_343\n      jumpi\n        /* \"#utility.yul\":19655:19734   */\n      tag_344\n      tag_93\n      jump\t// in\n    tag_344:\n        /* \"#utility.yul\":19617:19736   */\n    tag_343:\n        /* \"#utility.yul\":19796:19797   */\n      0x00\n        /* \"#utility.yul\":19785:19794   */\n      dup3\n        /* \"#utility.yul\":19781:19798   */\n      add\n        /* \"#utility.yul\":19775:19799   */\n      mload\n        /* \"#utility.yul\":19826:19844   */\n      0xffffffffffffffff\n        /* \"#utility.yul\":19818:19824   */\n      dup2\n        /* \"#utility.yul\":19815:19845   */\n      gt\n        /* \"#utility.yul\":19812:19929   */\n      iszero\n      tag_345\n      jumpi\n        /* \"#utility.yul\":19848:19927   */\n      tag_346\n      tag_94\n      jump\t// in\n    tag_346:\n        /* \"#utility.yul\":19812:19929   */\n    tag_345:\n        /* \"#utility.yul\":19953:20063   */\n      tag_347\n        /* \"#utility.yul\":20055:20062   */\n      dup5\n        /* \"#utility.yul\":20046:20052   */\n      dup3\n        /* \"#utility.yul\":20035:20044   */\n      dup6\n        /* \"#utility.yul\":20031:20053   */\n      add\n        /* \"#utility.yul\":19953:20063   */\n      tag_144\n      jump\t// in\n    tag_347:\n        /* \"#utility.yul\":19943:20063   */\n      swap2\n      pop\n        /* \"#utility.yul\":19746:20073   */\n      pop\n        /* \"#utility.yul\":19484:20080   */\n      swap3\n      swap2\n      pop\n      pop\n      jump\t// out\n        /* \"#utility.yul\":20086:20204   */\n    tag_145:\n        /* \"#utility.yul\":20173:20197   */\n      tag_349\n        /* \"#utility.yul\":20191:20196   */\n      dup2\n        /* \"#utility.yul\":20173:20197   */\n      tag_98\n      jump\t// in\n    tag_349:\n        /* \"#utility.yul\":20168:20171   */\n      dup3\n        /* \"#utility.yul\":20161:20198   */\n      mstore\n        /* \"#utility.yul\":20086:20204   */\n      pop\n      pop\n      jump\t// out\n        /* \"#utility.yul\":20210:20432   */\n    tag_78:\n        /* \"#utility.yul\":20303:20307   */\n      0x00\n        /* \"#utility.yul\":20341:20343   */\n      0x20\n        /* \"#utility.yul\":20330:20339   */\n      dup3\n        /* \"#utility.yul\":20326:20344   */\n      add\n        /* \"#utility.yul\":20318:20344   */\n      swap1\n      pop\n        /* \"#utility.yul\":20354:20425   */\n      tag_351\n        /* \"#utility.yul\":20422:20423   */\n      0x00\n        /* \"#utility.yul\":20411:20420   */\n      dup4\n        /* \"#utility.yul\":20407:20424   */\n      add\n        /* \"#utility.yul\":20398:20404   */\n      dup5\n        /* \"#utility.yul\":20354:20425   */\n      tag_145\n      jump\t// in\n    tag_351:\n        /* \"#utility.yul\":20210:20432   */\n      swap3\n      swap2\n      pop\n      pop\n      jump\t// out\n\n    auxdata: 0xa2646970667358221220fa57910ec3db5b9e8fcd8788d36dbef3c56fb75110aac21f7a82639a9fdddf4d64736f6c63430008140033\n}\n",
				"bytecode": {
					"linkReferences": {},
					"object": "61010060405234801562000011575f80fd5b506040516200140d3803806200140d833981810160405281019062000037919062000282565b5f73ffffffffffffffffffffffffffffffffffffffff168473ffffffffffffffffffffffffffffffffffffffff1614806200009d57505f73ffffffffffffffffffffffffffffffffffffffff168373ffffffffffffffffffffffffffffffffffffffff16145b80620000d457505f73ffffffffffffffffffffffffffffffffffffffff168273ffffffffffffffffffffffffffffffffffffffff16145b806200010b57505f73ffffffffffffffffffffffffffffffffffffffff168173ffffffffffffffffffffffffffffffffffffffff16145b1562000143576040517fd92e233d00000000000000000000000000000000000000000000000000000000815260040160405180910390fd5b8373ffffffffffffffffffffffffffffffffffffffff1660808173ffffffffffffffffffffffffffffffffffffffff16815250508273ffffffffffffffffffffffffffffffffffffffff1660a08173ffffffffffffffffffffffffffffffffffffffff16815250508173ffffffffffffffffffffffffffffffffffffffff1660c08173ffffffffffffffffffffffffffffffffffffffff16815250508073ffffffffffffffffffffffffffffffffffffffff1660e08173ffffffffffffffffffffffffffffffffffffffff168152505050505050620002f1565b5f80fd5b5f73ffffffffffffffffffffffffffffffffffffffff82169050919050565b5f6200024c8262000221565b9050919050565b6200025e8162000240565b811462000269575f80fd5b50565b5f815190506200027c8162000253565b92915050565b5f805f80608085870312156200029d576200029c6200021d565b5b5f620002ac878288016200026c565b9450506020620002bf878288016200026c565b9350506040620002d2878288016200026c565b9250506060620002e5878288016200026c565b91505092959194509250565b60805160a05160c05160e0516110b06200035d5f395f8181610162015261044c01525f81816103ad015281816104ff0152818161059f01526106fc01525f8181610186015261065701525f818161013e015281816101bd01528181610270015261031001526110b05ff3fe608060405234801561000f575f80fd5b5060043610610060575f3560e01c80631083f7611461006457806319beb49b14610082578063318536bd146100a05780637978c001146100be5780638dcd0676146100ee5780639a3bbed31461011e575b5f80fd5b61006c61013c565b6040516100799190610812565b60405180910390f35b61008a610160565b604051610097919061084b565b60405180910390f35b6100a8610184565b6040516100b59190610884565b60405180910390f35b6100d860048036038101906100d391906108e1565b6101a8565b6040516100e59190610b77565b60405180910390f35b61010860048036038101906101039190610bc1565b610642565b6040516101159190610c13565b60405180910390f35b6101266106fa565b6040516101339190610c53565b60405180910390f35b7f000000000000000000000000000000000000000000000000000000000000000081565b7f000000000000000000000000000000000000000000000000000000000000000081565b7f000000000000000000000000000000000000000000000000000000000000000081565b6101b061071e565b6040518060e001604052807f000000000000000000000000000000000000000000000000000000000000000073ffffffffffffffffffffffffffffffffffffffff16636352211e856040518263ffffffff1660e01b81526004016102149190610c7b565b602060405180830381865afa15801561022f573d5f803e3d5ffd5b505050506040513d601f19601f820116820180604052508101906102539190610ca8565b73ffffffffffffffffffffffffffffffffffffffff1681526020017f000000000000000000000000000000000000000000000000000000000000000073ffffffffffffffffffffffffffffffffffffffff16630e89341c856040518263ffffffff1660e01b81526004016102c79190610c7b565b5f60405180830381865afa1580156102e1573d5f803e3d5ffd5b505050506040513d5f823e3d601f19601f820116820180604052508101906103099190610df1565b81526020017f000000000000000000000000000000000000000000000000000000000000000073ffffffffffffffffffffffffffffffffffffffff166382a18496856040518263ffffffff1660e01b81526004016103679190610c7b565b602060405180830381865afa158015610382573d5f803e3d5ffd5b505050506040513d601f19601f820116820180604052508101906103a69190610e4c565b81526020017f000000000000000000000000000000000000000000000000000000000000000073ffffffffffffffffffffffffffffffffffffffff166333727c4d856040518263ffffffff1660e01b81526004016104049190610c7b565b602060405180830381865afa15801561041f573d5f803e3d5ffd5b505050506040513d601f19601f820116820180604052508101906104439190610ea1565b151581526020017f000000000000000000000000000000000000000000000000000000000000000073ffffffffffffffffffffffffffffffffffffffff16630abc9786856040518263ffffffff1660e01b81526004016104a39190610c7b565b602060405180830381865afa1580156104be573d5f803e3d5ffd5b505050506040513d601f19601f820116820180604052508101906104e29190610ca8565b73ffffffffffffffffffffffffffffffffffffffff1681526020017f000000000000000000000000000000000000000000000000000000000000000073ffffffffffffffffffffffffffffffffffffffff16635ee7c0f8856040518263ffffffff1660e01b81526004016105569190610c7b565b5f60405180830381865afa158015610570573d5f803e3d5ffd5b505050506040513d5f823e3d601f19601f82011682018060405250810190610598919061100b565b81526020017f000000000000000000000000000000000000000000000000000000000000000073ffffffffffffffffffffffffffffffffffffffff16631e315d9d856040518263ffffffff1660e01b81526004016105f69190610c7b565b5f60405180830381865afa158015610610573d5f803e3d5ffd5b505050506040513d5f823e3d601f19601f82011682018060405250810190610638919061100b565b8152509050919050565b61064a610785565b60405180602001604052807f000000000000000000000000000000000000000000000000000000000000000073ffffffffffffffffffffffffffffffffffffffff1663041eee5c856040518263ffffffff1660e01b81526004016106ae9190611061565b5f60405180830381865afa1580156106c8573d5f803e3d5ffd5b505050506040513d5f823e3d601f19601f820116820180604052508101906106f09190610df1565b8152509050919050565b7f000000000000000000000000000000000000000000000000000000000000000081565b6040518060e001604052805f73ffffffffffffffffffffffffffffffffffffffff168152602001606081526020015f81526020015f151581526020015f73ffffffffffffffffffffffffffffffffffffffff16815260200160608152602001606081525090565b6040518060200160405280606081525090565b5f73ffffffffffffffffffffffffffffffffffffffff82169050919050565b5f819050919050565b5f6107da6107d56107d084610798565b6107b7565b610798565b9050919050565b5f6107eb826107c0565b9050919050565b5f6107fc826107e1565b9050919050565b61080c816107f2565b82525050565b5f6020820190506108255f830184610803565b92915050565b5f610835826107e1565b9050919050565b6108458161082b565b82525050565b5f60208201905061085e5f83018461083c565b92915050565b5f61086e826107e1565b9050919050565b61087e81610864565b82525050565b5f6020820190506108975f830184610875565b92915050565b5f604051905090565b5f80fd5b5f80fd5b5f819050919050565b6108c0816108ae565b81146108ca575f80fd5b50565b5f813590506108db816108b7565b92915050565b5f602082840312156108f6576108f56108a6565b5b5f610903848285016108cd565b91505092915050565b5f61091682610798565b9050919050565b6109268161090c565b82525050565b5f81519050919050565b5f82825260208201905092915050565b5f5b83811015610963578082015181840152602081019050610948565b5f8484015250505050565b5f601f19601f8301169050919050565b5f6109888261092c565b6109928185610936565b93506109a2818560208601610946565b6109ab8161096e565b840191505092915050565b6109bf816108ae565b82525050565b5f8115159050919050565b6109d9816109c5565b82525050565b5f81519050919050565b5f82825260208201905092915050565b5f819050602082019050919050565b5f61ffff82169050919050565b610a1e81610a08565b82525050565b604082015f820151610a385f85018261091d565b506020820151610a4b6020850182610a15565b50505050565b5f610a5c8383610a24565b60408301905092915050565b5f602082019050919050565b5f610a7e826109df565b610a8881856109e9565b9350610a93836109f9565b805f5b83811015610ac3578151610aaa8882610a51565b9750610ab583610a68565b925050600181019050610a96565b5085935050505092915050565b5f60e083015f830151610ae55f86018261091d565b5060208301518482036020860152610afd828261097e565b9150506040830151610b1260408601826109b6565b506060830151610b2560608601826109d0565b506080830151610b38608086018261091d565b5060a083015184820360a0860152610b508282610a74565b91505060c083015184820360c0860152610b6a8282610a74565b9150508091505092915050565b5f6020820190508181035f830152610b8f8184610ad0565b905092915050565b610ba08161090c565b8114610baa575f80fd5b50565b5f81359050610bbb81610b97565b92915050565b5f60208284031215610bd657610bd56108a6565b5b5f610be384828501610bad565b91505092915050565b5f602083015f8301518482035f860152610c06828261097e565b9150508091505092915050565b5f6020820190508181035f830152610c2b8184610bec565b905092915050565b5f610c3d826107e1565b9050919050565b610c4d81610c33565b82525050565b5f602082019050610c665f830184610c44565b92915050565b610c75816108ae565b82525050565b5f602082019050610c8e5f830184610c6c565b92915050565b5f81519050610ca281610b97565b92915050565b5f60208284031215610cbd57610cbc6108a6565b5b5f610cca84828501610c94565b91505092915050565b5f80fd5b5f80fd5b7f4e487b71000000000000000000000000000000000000000000000000000000005f52604160045260245ffd5b610d118261096e565b810181811067ffffffffffffffff82111715610d3057610d2f610cdb565b5b80604052505050565b5f610d4261089d565b9050610d4e8282610d08565b919050565b5f67ffffffffffffffff821115610d6d57610d6c610cdb565b5b610d768261096e565b9050602081019050919050565b5f610d95610d9084610d53565b610d39565b905082815260208101848484011115610db157610db0610cd7565b5b610dbc848285610946565b509392505050565b5f82601f830112610dd857610dd7610cd3565b5b8151610de8848260208601610d83565b91505092915050565b5f60208284031215610e0657610e056108a6565b5b5f82015167ffffffffffffffff811115610e2357610e226108aa565b5b610e2f84828501610dc4565b91505092915050565b5f81519050610e46816108b7565b92915050565b5f60208284031215610e6157610e606108a6565b5b5f610e6e84828501610e38565b91505092915050565b610e80816109c5565b8114610e8a575f80fd5b50565b5f81519050610e9b81610e77565b92915050565b5f60208284031215610eb657610eb56108a6565b5b5f610ec384828501610e8d565b91505092915050565b5f67ffffffffffffffff821115610ee657610ee5610cdb565b5b602082029050602081019050919050565b5f80fd5b5f80fd5b610f0881610a08565b8114610f12575f80fd5b50565b5f81519050610f2381610eff565b92915050565b5f60408284031215610f3e57610f3d610efb565b5b610f486040610d39565b90505f610f5784828501610c94565b5f830152506020610f6a84828501610f15565b60208301525092915050565b5f610f88610f8384610ecc565b610d39565b90508083825260208201905060408402830185811115610fab57610faa610ef7565b5b835b81811015610fd45780610fc08882610f29565b845260208401935050604081019050610fad565b5050509392505050565b5f82601f830112610ff257610ff1610cd3565b5b8151611002848260208601610f76565b91505092915050565b5f602082840312156110205761101f6108a6565b5b5f82015167ffffffffffffffff81111561103d5761103c6108aa565b5b61104984828501610fde565b91505092915050565b61105b8161090c565b82525050565b5f6020820190506110745f830184611052565b9291505056fea2646970667358221220fa57910ec3db5b9e8fcd8788d36dbef3c56fb75110aac21f7a82639a9fdddf4d64736f6c63430008140033",
					"opcodes": "PUSH2 0x100 PUSH1 0x40 MSTORE CALLVALUE DUP1 ISZERO PUSH3 0x11 JUMPI PUSH0 DUP1 REVERT JUMPDEST POP PUSH1 0x40 MLOAD PUSH3 0x140D CODESIZE SUB DUP1 PUSH3 0x140D DUP4 CODECOPY DUP2 DUP2 ADD PUSH1 0x40 MSTORE DUP2 ADD SWAP1 PUSH3 0x37 SWAP2 SWAP1 PUSH3 0x282 JUMP JUMPDEST PUSH0 PUSH20 0xFFFFFFFFFFFFFFFFFFFFFFFFFFFFFFFFFFFFFFFF AND DUP5 PUSH20 0xFFFFFFFFFFFFFFFFFFFFFFFFFFFFFFFFFFFFFFFF AND EQ DUP1 PUSH3 0x9D JUMPI POP PUSH0 PUSH20 0xFFFFFFFFFFFFFFFFFFFFFFFFFFFFFFFFFFFFFFFF AND DUP4 PUSH20 0xFFFFFFFFFFFFFFFFFFFFFFFFFFFFFFFFFFFFFFFF AND EQ JUMPDEST DUP1 PUSH3 0xD4 JUMPI POP PUSH0 PUSH20 0xFFFFFFFFFFFFFFFFFFFFFFFFFFFFFFFFFFFFFFFF AND DUP3 PUSH20 0xFFFFFFFFFFFFFFFFFFFFFFFFFFFFFFFFFFFFFFFF AND EQ JUMPDEST DUP1 PUSH3 0x10B JUMPI POP PUSH0 PUSH20 0xFFFFFFFFFFFFFFFFFFFFFFFFFFFFFFFFFFFFFFFF AND DUP2 PUSH20 0xFFFFFFFFFFFFFFFFFFFFFFFFFFFFFFFFFFFFFFFF AND EQ JUMPDEST ISZERO PUSH3 0x143 JUMPI PUSH1 0x40 MLOAD PUSH32 0xD92E233D00000000000000000000000000000000000000000000000000000000 DUP2 MSTORE PUSH1 0x4 ADD PUSH1 0x40 MLOAD DUP1 SWAP2 SUB SWAP1 REVERT JUMPDEST DUP4 PUSH20 0xFFFFFFFFFFFFFFFFFFFFFFFFFFFFFFFFFFFFFFFF AND PUSH1 0x80 DUP2 PUSH20 0xFFFFFFFFFFFFFFFFFFFFFFFFFFFFFFFFFFFFFFFF AND DUP2 MSTORE POP POP DUP3 PUSH20 0xFFFFFFFFFFFFFFFFFFFFFFFFFFFFFFFFFFFFFFFF AND PUSH1 0xA0 DUP2 PUSH20 0xFFFFFFFFFFFFFFFFFFFFFFFFFFFFFFFFFFFFFFFF AND DUP2 MSTORE POP POP DUP2 PUSH20 0xFFFFFFFFFFFFFFFFFFFFFFFFFFFFFFFFFFFFFFFF AND PUSH1 0xC0 DUP2 PUSH20 0xFFFFFFFFFFFFFFFFFFFFFFFFFFFFFFFFFFFFFFFF AND DUP2 MSTORE POP POP DUP1 PUSH20 0xFFFFFFFFFFFFFFFFFFFFFFFFFFFFFFFFFFFFFFFF AND PUSH1 0xE0 DUP2 PUSH20 0xFFFFFFFFFFFFFFFFFFFFFFFFFFFFFFFFFFFFFFFF AND DUP2 MSTORE POP POP POP POP POP POP PUSH3 0x2F1 JUMP JUMPDEST PUSH0 DUP1 REVERT JUMPDEST PUSH0 PUSH20 0xFFFFFFFFFFFFFFFFFFFFFFFFFFFFFFFFFFFFFFFF DUP3 AND SWAP1 POP SWAP2 SWAP1 POP JUMP JUMPDEST PUSH0 PUSH3 0x24C DUP3 PUSH3 0x221 JUMP JUMPDEST SWAP1 POP SWAP2 SWAP1 POP JUMP JUMPDEST PUSH3 0x25E DUP2 PUSH3 0x240 JUMP JUMPDEST DUP2 EQ PUSH3 0x269 JUMPI PUSH0 DUP1 REVERT JUMPDEST POP JUMP JUMPDEST PUSH0 DUP2 MLOAD SWAP1 POP PUSH3 0x27C DUP2 PUSH3 0x253 JUMP JUMPDEST SWAP3 SWAP2 POP POP JUMP JUMPDEST PUSH0 DUP1 PUSH0 DUP1 PUSH1 0x80 DUP6 DUP8 SUB SLT ISZERO PUSH3 0x29D JUMPI PUSH3 0x29C PUSH3 0x21D JUMP JUMPDEST JUMPDEST PUSH0 PUSH3 0x2AC DUP8 DUP3 DUP9 ADD PUSH3 0x26C JUMP JUMPDEST SWAP5 POP POP PUSH1 0x20 PUSH3 0x2BF DUP8 DUP3 DUP9 ADD PUSH3 0x26C JUMP JUMPDEST SWAP4 POP POP PUSH1 0x40 PUSH3 0x2D2 DUP8 DUP3 DUP9 ADD PUSH3 0x26C JUMP JUMPDEST SWAP3 POP POP PUSH1 0x60 PUSH3 0x2E5 DUP8 DUP3 DUP9 ADD PUSH3 0x26C JUMP JUMPDEST SWAP2 POP POP SWAP3 SWAP6 SWAP2 SWAP5 POP SWAP3 POP JUMP JUMPDEST PUSH1 0x80 MLOAD PUSH1 0xA0 MLOAD PUSH1 0xC0 MLOAD PUSH1 0xE0 MLOAD PUSH2 0x10B0 PUSH3 0x35D PUSH0 CODECOPY PUSH0 DUP2 DUP2 PUSH2 0x162 ADD MSTORE PUSH2 0x44C ADD MSTORE PUSH0 DUP2 DUP2 PUSH2 0x3AD ADD MSTORE DUP2 DUP2 PUSH2 0x4FF ADD MSTORE DUP2 DUP2 PUSH2 0x59F ADD MSTORE PUSH2 0x6FC ADD MSTORE PUSH0 DUP2 DUP2 PUSH2 0x186 ADD MSTORE PUSH2 0x657 ADD MSTORE PUSH0 DUP2 DUP2 PUSH2 0x13E ADD MSTORE DUP2 DUP2 PUSH2 0x1BD ADD MSTORE DUP2 DUP2 PUSH2 0x270 ADD MSTORE PUSH2 0x310 ADD MSTORE PUSH2 0x10B0 PUSH0 RETURN INVALID PUSH1 0x80 PUSH1 0x40 MSTORE CALLVALUE DUP1 ISZERO PUSH2 0xF JUMPI PUSH0 DUP1 REVERT JUMPDEST POP PUSH1 0x4 CALLDATASIZE LT PUSH2 0x60 JUMPI PUSH0 CALLDATALOAD PUSH1 0xE0 SHR DUP1 PUSH4 0x1083F761 EQ PUSH2 0x64 JUMPI DUP1 PUSH4 0x19BEB49B EQ PUSH2 0x82 JUMPI DUP1 PUSH4 0x318536BD EQ PUSH2 0xA0 JUMPI DUP1 PUSH4 0x7978C001 EQ PUSH2 0xBE JUMPI DUP1 PUSH4 0x8DCD0676 EQ PUSH2 0xEE JUMPI DUP1 PUSH4 0x9A3BBED3 EQ PUSH2 0x11E JUMPI JUMPDEST PUSH0 DUP1 REVERT JUMPDEST PUSH2 0x6C PUSH2 0x13C JUMP JUMPDEST PUSH1 0x40 MLOAD PUSH2 0x79 SWAP2 SWAP1 PUSH2 0x812 JUMP JUMPDEST PUSH1 0x40 MLOAD DUP1 SWAP2 SUB SWAP1 RETURN JUMPDEST PUSH2 0x8A PUSH2 0x160 JUMP JUMPDEST PUSH1 0x40 MLOAD PUSH2 0x97 SWAP2 SWAP1 PUSH2 0x84B JUMP JUMPDEST PUSH1 0x40 MLOAD DUP1 SWAP2 SUB SWAP1 RETURN JUMPDEST PUSH2 0xA8 PUSH2 0x184 JUMP JUMPDEST PUSH1 0x40 MLOAD PUSH2 0xB5 SWAP2 SWAP1 PUSH2 0x884 JUMP JUMPDEST PUSH1 0x40 MLOAD DUP1 SWAP2 SUB SWAP1 RETURN JUMPDEST PUSH2 0xD8 PUSH1 0x4 DUP1 CALLDATASIZE SUB DUP2 ADD SWAP1 PUSH2 0xD3 SWAP2 SWAP1 PUSH2 0x8E1 JUMP JUMPDEST PUSH2 0x1A8 JUMP JUMPDEST PUSH1 0x40 MLOAD PUSH2 0xE5 SWAP2 SWAP1 PUSH2 0xB77 JUMP JUMPDEST PUSH1 0x40 MLOAD DUP1 SWAP2 SUB SWAP1 RETURN JUMPDEST PUSH2 0x108 PUSH1 0x4 DUP1 CALLDATASIZE SUB DUP2 ADD SWAP1 PUSH2 0x103 SWAP2 SWAP1 PUSH2 0xBC1 JUMP JUMPDEST PUSH2 0x642 JUMP JUMPDEST PUSH1 0x40 MLOAD PUSH2 0x115 SWAP2 SWAP1 PUSH2 0xC13 JUMP JUMPDEST PUSH1 0x40 MLOAD DUP1 SWAP2 SUB SWAP1 RETURN JUMPDEST PUSH2 0x126 PUSH2 0x6FA JUMP JUMPDEST PUSH1 0x40 MLOAD PUSH2 0x133 SWAP2 SWAP1 PUSH2 0xC53 JUMP JUMPDEST PUSH1 0x40 MLOAD DUP1 SWAP2 SUB SWAP1 RETURN JUMPDEST PUSH32 0x0 DUP2 JUMP JUMPDEST PUSH32 0x0 DUP2 JUMP JUMPDEST PUSH32 0x0 DUP2 JUMP JUMPDEST PUSH2 0x1B0 PUSH2 0x71E JUMP JUMPDEST PUSH1 0x40 MLOAD DUP1 PUSH1 0xE0 ADD PUSH1 0x40 MSTORE DUP1 PUSH32 0x0 PUSH20 0xFFFFFFFFFFFFFFFFFFFFFFFFFFFFFFFFFFFFFFFF AND PUSH4 0x6352211E DUP6 PUSH1 0x40 MLOAD DUP3 PUSH4 0xFFFFFFFF AND PUSH1 0xE0 SHL DUP2 MSTORE PUSH1 0x4 ADD PUSH2 0x214 SWAP2 SWAP1 PUSH2 0xC7B JUMP JUMPDEST PUSH1 0x20 PUSH1 0x40 MLOAD DUP1 DUP4 SUB DUP2 DUP7 GAS STATICCALL ISZERO DUP1 ISZERO PUSH2 0x22F JUMPI RETURNDATASIZE PUSH0 DUP1 RETURNDATACOPY RETURNDATASIZE PUSH0 REVERT JUMPDEST POP POP POP POP PUSH1 0x40 MLOAD RETURNDATASIZE PUSH1 0x1F NOT PUSH1 0x1F DUP3 ADD AND DUP3 ADD DUP1 PUSH1 0x40 MSTORE POP DUP2 ADD SWAP1 PUSH2 0x253 SWAP2 SWAP1 PUSH2 0xCA8 JUMP JUMPDEST PUSH20 0xFFFFFFFFFFFFFFFFFFFFFFFFFFFFFFFFFFFFFFFF AND DUP2 MSTORE PUSH1 0x20 ADD PUSH32 0x0 PUSH20 0xFFFFFFFFFFFFFFFFFFFFFFFFFFFFFFFFFFFFFFFF AND PUSH4 0xE89341C DUP6 PUSH1 0x40 MLOAD DUP3 PUSH4 0xFFFFFFFF AND PUSH1 0xE0 SHL DUP2 MSTORE PUSH1 0x4 ADD PUSH2 0x2C7 SWAP2 SWAP1 PUSH2 0xC7B JUMP JUMPDEST PUSH0 PUSH1 0x40 MLOAD DUP1 DUP4 SUB DUP2 DUP7 GAS STATICCALL ISZERO DUP1 ISZERO PUSH2 0x2E1 JUMPI RETURNDATASIZE PUSH0 DUP1 RETURNDATACOPY RETURNDATASIZE PUSH0 REVERT JUMPDEST POP POP POP POP PUSH1 0x40 MLOAD RETURNDATASIZE PUSH0 DUP3 RETURNDATACOPY RETURNDATASIZE PUSH1 0x1F NOT PUSH1 0x1F DUP3 ADD AND DUP3 ADD DUP1 PUSH1 0x40 MSTORE POP DUP2 ADD SWAP1 PUSH2 0x309 SWAP2 SWAP1 PUSH2 0xDF1 JUMP JUMPDEST DUP2 MSTORE PUSH1 0x20 ADD PUSH32 0x0 PUSH20 0xFFFFFFFFFFFFFFFFFFFFFFFFFFFFFFFFFFFFFFFF AND PUSH4 0x82A18496 DUP6 PUSH1 0x40 MLOAD DUP3 PUSH4 0xFFFFFFFF AND PUSH1 0xE0 SHL DUP2 MSTORE PUSH1 0x4 ADD PUSH2 0x367 SWAP2 SWAP1 PUSH2 0xC7B JUMP JUMPDEST PUSH1 0x20 PUSH1 0x40 MLOAD DUP1 DUP4 SUB DUP2 DUP7 GAS STATICCALL ISZERO DUP1 ISZERO PUSH2 0x382 JUMPI RETURNDATASIZE PUSH0 DUP1 RETURNDATACOPY RETURNDATASIZE PUSH0 REVERT JUMPDEST POP POP POP POP PUSH1 0x40 MLOAD RETURNDATASIZE PUSH1 0x1F NOT PUSH1 0x1F DUP3 ADD AND DUP3 ADD DUP1 PUSH1 0x40 MSTORE POP DUP2 ADD SWAP1 PUSH2 0x3A6 SWAP2 SWAP1 PUSH2 0xE4C JUMP JUMPDEST DUP2 MSTORE PUSH1 0x20 ADD PUSH32 0x0 PUSH20 0xFFFFFFFFFFFFFFFFFFFFFFFFFFFFFFFFFFFFFFFF AND PUSH4 0x33727C4D DUP6 PUSH1 0x40 MLOAD DUP3 PUSH4 0xFFFFFFFF AND PUSH1 0xE0 SHL DUP2 MSTORE PUSH1 0x4 ADD PUSH2 0x404 SWAP2 SWAP1 PUSH2 0xC7B JUMP JUMPDEST PUSH1 0x20 PUSH1 0x40 MLOAD DUP1 DUP4 SUB DUP2 DUP7 GAS STATICCALL ISZERO DUP1 ISZERO PUSH2 0x41F JUMPI RETURNDATASIZE PUSH0 DUP1 RETURNDATACOPY RETURNDATASIZE PUSH0 REVERT JUMPDEST POP POP POP POP PUSH1 0x40 MLOAD RETURNDATASIZE PUSH1 0x1F NOT PUSH1 0x1F DUP3 ADD AND DUP3 ADD DUP1 PUSH1 0x40 MSTORE POP DUP2 ADD SWAP1 PUSH2 0x443 SWAP2 SWAP1 PUSH2 0xEA1 JUMP JUMPDEST ISZERO ISZERO DUP2 MSTORE PUSH1 0x20 ADD PUSH32 0x0 PUSH20 0xFFFFFFFFFFFFFFFFFFFFFFFFFFFFFFFFFFFFFFFF AND PUSH4 0xABC9786 DUP6 PUSH1 0x40 MLOAD DUP3 PUSH4 0xFFFFFFFF AND PUSH1 0xE0 SHL DUP2 MSTORE PUSH1 0x4 ADD PUSH2 0x4A3 SWAP2 SWAP1 PUSH2 0xC7B JUMP JUMPDEST PUSH1 0x20 PUSH1 0x40 MLOAD DUP1 DUP4 SUB DUP2 DUP7 GAS STATICCALL ISZERO DUP1 ISZERO PUSH2 0x4BE JUMPI RETURNDATASIZE PUSH0 DUP1 RETURNDATACOPY RETURNDATASIZE PUSH0 REVERT JUMPDEST POP POP POP POP PUSH1 0x40 MLOAD RETURNDATASIZE PUSH1 0x1F NOT PUSH1 0x1F DUP3 ADD AND DUP3 ADD DUP1 PUSH1 0x40 MSTORE POP DUP2 ADD SWAP1 PUSH2 0x4E2 SWAP2 SWAP1 PUSH2 0xCA8 JUMP JUMPDEST PUSH20 0xFFFFFFFFFFFFFFFFFFFFFFFFFFFFFFFFFFFFFFFF AND DUP2 MSTORE PUSH1 0x20 ADD PUSH32 0x0 PUSH20 0xFFFFFFFFFFFFFFFFFFFFFFFFFFFFFFFFFFFFFFFF AND PUSH4 0x5EE7C0F8 DUP6 PUSH1 0x40 MLOAD DUP3 PUSH4 0xFFFFFFFF AND PUSH1 0xE0 SHL DUP2 MSTORE PUSH1 0x4 ADD PUSH2 0x556 SWAP2 SWAP1 PUSH2 0xC7B JUMP JUMPDEST PUSH0 PUSH1 0x40 MLOAD DUP1 DUP4 SUB DUP2 DUP7 GAS STATICCALL ISZERO DUP1 ISZERO PUSH2 0x570 JUMPI RETURNDATASIZE PUSH0 DUP1 RETURNDATACOPY RETURNDATASIZE PUSH0 REVERT JUMPDEST POP POP POP POP PUSH1 0x40 MLOAD RETURNDATASIZE PUSH0 DUP3 RETURNDATACOPY RETURNDATASIZE PUSH1 0x1F NOT PUSH1 0x1F DUP3 ADD AND DUP3 ADD DUP1 PUSH1 0x40 MSTORE POP DUP2 ADD SWAP1 PUSH2 0x598 SWAP2 SWAP1 PUSH2 0x100B JUMP JUMPDEST DUP2 MSTORE PUSH1 0x20 ADD PUSH32 0x0 PUSH20 0xFFFFFFFFFFFFFFFFFFFFFFFFFFFFFFFFFFFFFFFF AND PUSH4 0x1E315D9D DUP6 PUSH1 0x40 MLOAD DUP3 PUSH4 0xFFFFFFFF AND PUSH1 0xE0 SHL DUP2 MSTORE PUSH1 0x4 ADD PUSH2 0x5F6 SWAP2 SWAP1 PUSH2 0xC7B JUMP JUMPDEST PUSH0 PUSH1 0x40 MLOAD DUP1 DUP4 SUB DUP2 DUP7 GAS STATICCALL ISZERO DUP1 ISZERO PUSH2 0x610 JUMPI RETURNDATASIZE PUSH0 DUP1 RETURNDATACOPY RETURNDATASIZE PUSH0 REVERT JUMPDEST POP POP POP POP PUSH1 0x40 MLOAD RETURNDATASIZE PUSH0 DUP3 RETURNDATACOPY RETURNDATASIZE PUSH1 0x1F NOT PUSH1 0x1F DUP3 ADD AND DUP3 ADD DUP1 PUSH1 0x40 MSTORE POP DUP2 ADD SWAP1 PUSH2 0x638 SWAP2 SWAP1 PUSH2 0x100B JUMP JUMPDEST DUP2 MSTORE POP SWAP1 POP SWAP2 SWAP1 POP JUMP JUMPDEST PUSH2 0x64A PUSH2 0x785 JUMP JUMPDEST PUSH1 0x40 MLOAD DUP1 PUSH1 0x20 ADD PUSH1 0x40 MSTORE DUP1 PUSH32 0x0 PUSH20 0xFFFFFFFFFFFFFFFFFFFFFFFFFFFFFFFFFFFFFFFF AND PUSH4 0x41EEE5C DUP6 PUSH1 0x40 MLOAD DUP3 PUSH4 0xFFFFFFFF AND PUSH1 0xE0 SHL DUP2 MSTORE PUSH1 0x4 ADD PUSH2 0x6AE SWAP2 SWAP1 PUSH2 0x1061 JUMP JUMPDEST PUSH0 PUSH1 0x40 MLOAD DUP1 DUP4 SUB DUP2 DUP7 GAS STATICCALL ISZERO DUP1 ISZERO PUSH2 0x6C8 JUMPI RETURNDATASIZE PUSH0 DUP1 RETURNDATACOPY RETURNDATASIZE PUSH0 REVERT JUMPDEST POP POP POP POP PUSH1 0x40 MLOAD RETURNDATASIZE PUSH0 DUP3 RETURNDATACOPY RETURNDATASIZE PUSH1 0x1F NOT PUSH1 0x1F DUP3 ADD AND DUP3 ADD DUP1 PUSH1 0x40 MSTORE POP DUP2 ADD SWAP1 PUSH2 0x6F0 SWAP2 SWAP1 PUSH2 0xDF1 JUMP JUMPDEST DUP2 MSTORE POP SWAP1 POP SWAP2 SWAP1 POP JUMP JUMPDEST PUSH32 0x0 DUP2 JUMP JUMPDEST PUSH1 0x40 MLOAD DUP1 PUSH1 0xE0 ADD PUSH1 0x40 MSTORE DUP1 PUSH0 PUSH20 0xFFFFFFFFFFFFFFFFFFFFFFFFFFFFFFFFFFFFFFFF AND DUP2 MSTORE PUSH1 0x20 ADD PUSH1 0x60 DUP2 MSTORE PUSH1 0x20 ADD PUSH0 DUP2 MSTORE PUSH1 0x20 ADD PUSH0 ISZERO ISZERO DUP2 MSTORE PUSH1 0x20 ADD PUSH0 PUSH20 0xFFFFFFFFFFFFFFFFFFFFFFFFFFFFFFFFFFFFFFFF AND DUP2 MSTORE PUSH1 0x20 ADD PUSH1 0x60 DUP2 MSTORE PUSH1 0x20 ADD PUSH1 0x60 DUP2 MSTORE POP SWAP1 JUMP JUMPDEST PUSH1 0x40 MLOAD DUP1 PUSH1 0x20 ADD PUSH1 0x40 MSTORE DUP1 PUSH1 0x60 DUP2 MSTORE POP SWAP1 JUMP JUMPDEST PUSH0 PUSH20 0xFFFFFFFFFFFFFFFFFFFFFFFFFFFFFFFFFFFFFFFF DUP3 AND SWAP1 POP SWAP2 SWAP1 POP JUMP JUMPDEST PUSH0 DUP2 SWAP1 POP SWAP2 SWAP1 POP JUMP JUMPDEST PUSH0 PUSH2 0x7DA PUSH2 0x7D5 PUSH2 0x7D0 DUP5 PUSH2 0x798 JUMP JUMPDEST PUSH2 0x7B7 JUMP JUMPDEST PUSH2 0x798 JUMP JUMPDEST SWAP1 POP SWAP2 SWAP1 POP JUMP JUMPDEST PUSH0 PUSH2 0x7EB DUP3 PUSH2 0x7C0 JUMP JUMPDEST SWAP1 POP SWAP2 SWAP1 POP JUMP JUMPDEST PUSH0 PUSH2 0x7FC DUP3 PUSH2 0x7E1 JUMP JUMPDEST SWAP1 POP SWAP2 SWAP1 POP JUMP JUMPDEST PUSH2 0x80C DUP2 PUSH2 0x7F2 JUMP JUMPDEST DUP3 MSTORE POP POP JUMP JUMPDEST PUSH0 PUSH1 0x20 DUP3 ADD SWAP1 POP PUSH2 0x825 PUSH0 DUP4 ADD DUP5 PUSH2 0x803 JUMP JUMPDEST SWAP3 SWAP2 POP POP JUMP JUMPDEST PUSH0 PUSH2 0x835 DUP3 PUSH2 0x7E1 JUMP JUMPDEST SWAP1 POP SWAP2 SWAP1 POP JUMP JUMPDEST PUSH2 0x845 DUP2 PUSH2 0x82B JUMP JUMPDEST DUP3 MSTORE POP POP JUMP JUMPDEST PUSH0 PUSH1 0x20 DUP3 ADD SWAP1 POP PUSH2 0x85E PUSH0 DUP4 ADD DUP5 PUSH2 0x83C JUMP JUMPDEST SWAP3 SWAP2 POP POP JUMP JUMPDEST PUSH0 PUSH2 0x86E DUP3 PUSH2 0x7E1 JUMP JUMPDEST SWAP1 POP SWAP2 SWAP1 POP JUMP JUMPDEST PUSH2 0x87E DUP2 PUSH2 0x864 JUMP JUMPDEST DUP3 MSTORE POP POP JUMP JUMPDEST PUSH0 PUSH1 0x20 DUP3 ADD SWAP1 POP PUSH2 0x897 PUSH0 DUP4 ADD DUP5 PUSH2 0x875 JUMP JUMPDEST SWAP3 SWAP2 POP POP JUMP JUMPDEST PUSH0 PUSH1 0x40 MLOAD SWAP1 POP SWAP1 JUMP JUMPDEST PUSH0 DUP1 REVERT JUMPDEST PUSH0 DUP1 REVERT JUMPDEST PUSH0 DUP2 SWAP1 POP SWAP2 SWAP1 POP JUMP JUMPDEST PUSH2 0x8C0 DUP2 PUSH2 0x8AE JUMP JUMPDEST DUP2 EQ PUSH2 0x8CA JUMPI PUSH0 DUP1 REVERT JUMPDEST POP JUMP JUMPDEST PUSH0 DUP2 CALLDATALOAD SWAP1 POP PUSH2 0x8DB DUP2 PUSH2 0x8B7 JUMP JUMPDEST SWAP3 SWAP2 POP POP JUMP JUMPDEST PUSH0 PUSH1 0x20 DUP3 DUP5 SUB SLT ISZERO PUSH2 0x8F6 JUMPI PUSH2 0x8F5 PUSH2 0x8A6 JUMP JUMPDEST JUMPDEST PUSH0 PUSH2 0x903 DUP5 DUP3 DUP6 ADD PUSH2 0x8CD JUMP JUMPDEST SWAP2 POP POP SWAP3 SWAP2 POP POP JUMP JUMPDEST PUSH0 PUSH2 0x916 DUP3 PUSH2 0x798 JUMP JUMPDEST SWAP1 POP SWAP2 SWAP1 POP JUMP JUMPDEST PUSH2 0x926 DUP2 PUSH2 0x90C JUMP JUMPDEST DUP3 MSTORE POP POP JUMP JUMPDEST PUSH0 DUP2 MLOAD SWAP1 POP SWAP2 SWAP1 POP JUMP JUMPDEST PUSH0 DUP3 DUP3 MSTORE PUSH1 0x20 DUP3 ADD SWAP1 POP SWAP3 SWAP2 POP POP JUMP JUMPDEST PUSH0 JUMPDEST DUP4 DUP2 LT ISZERO PUSH2 0x963 JUMPI DUP1 DUP3 ADD MLOAD DUP2 DUP5 ADD MSTORE PUSH1 0x20 DUP2 ADD SWAP1 POP PUSH2 0x948 JUMP JUMPDEST PUSH0 DUP5 DUP5 ADD MSTORE POP POP POP POP JUMP JUMPDEST PUSH0 PUSH1 0x1F NOT PUSH1 0x1F DUP4 ADD AND SWAP1 POP SWAP2 SWAP1 POP JUMP JUMPDEST PUSH0 PUSH2 0x988 DUP3 PUSH2 0x92C JUMP JUMPDEST PUSH2 0x992 DUP2 DUP6 PUSH2 0x936 JUMP JUMPDEST SWAP4 POP PUSH2 0x9A2 DUP2 DUP6 PUSH1 0x20 DUP7 ADD PUSH2 0x946 JUMP JUMPDEST PUSH2 0x9AB DUP2 PUSH2 0x96E JUMP JUMPDEST DUP5 ADD SWAP2 POP POP SWAP3 SWAP2 POP POP JUMP JUMPDEST PUSH2 0x9BF DUP2 PUSH2 0x8AE JUMP JUMPDEST DUP3 MSTORE POP POP JUMP JUMPDEST PUSH0 DUP2 ISZERO ISZERO SWAP1 POP SWAP2 SWAP1 POP JUMP JUMPDEST PUSH2 0x9D9 DUP2 PUSH2 0x9C5 JUMP JUMPDEST DUP3 MSTORE POP POP JUMP JUMPDEST PUSH0 DUP2 MLOAD SWAP1 POP SWAP2 SWAP1 POP JUMP JUMPDEST PUSH0 DUP3 DUP3 MSTORE PUSH1 0x20 DUP3 ADD SWAP1 POP SWAP3 SWAP2 POP POP JUMP JUMPDEST PUSH0 DUP2 SWAP1 POP PUSH1 0x20 DUP3 ADD SWAP1 POP SWAP2 SWAP1 POP JUMP JUMPDEST PUSH0 PUSH2 0xFFFF DUP3 AND SWAP1 POP SWAP2 SWAP1 POP JUMP JUMPDEST PUSH2 0xA1E DUP2 PUSH2 0xA08 JUMP JUMPDEST DUP3 MSTORE POP POP JUMP JUMPDEST PUSH1 0x40 DUP3 ADD PUSH0 DUP3 ADD MLOAD PUSH2 0xA38 PUSH0 DUP6 ADD DUP3 PUSH2 0x91D JUMP JUMPDEST POP PUSH1 0x20 DUP3 ADD MLOAD PUSH2 0xA4B PUSH1 0x20 DUP6 ADD DUP3 PUSH2 0xA15 JUMP JUMPDEST POP POP POP POP JUMP JUMPDEST PUSH0 PUSH2 0xA5C DUP4 DUP4 PUSH2 0xA24 JUMP JUMPDEST PUSH1 0x40 DUP4 ADD SWAP1 POP SWAP3 SWAP2 POP POP JUMP JUMPDEST PUSH0 PUSH1 0x20 DUP3 ADD SWAP1 POP SWAP2 SWAP1 POP JUMP JUMPDEST PUSH0 PUSH2 0xA7E DUP3 PUSH2 0x9DF JUMP JUMPDEST PUSH2 0xA88 DUP2 DUP6 PUSH2 0x9E9 JUMP JUMPDEST SWAP4 POP PUSH2 0xA93 DUP4 PUSH2 0x9F9 JUMP JUMPDEST DUP1 PUSH0 JUMPDEST DUP4 DUP2 LT ISZERO PUSH2 0xAC3 JUMPI DUP2 MLOAD PUSH2 0xAAA DUP9 DUP3 PUSH2 0xA51 JUMP JUMPDEST SWAP8 POP PUSH2 0xAB5 DUP4 PUSH2 0xA68 JUMP JUMPDEST SWAP3 POP POP PUSH1 0x1 DUP2 ADD SWAP1 POP PUSH2 0xA96 JUMP JUMPDEST POP DUP6 SWAP4 POP POP POP POP SWAP3 SWAP2 POP POP JUMP JUMPDEST PUSH0 PUSH1 0xE0 DUP4 ADD PUSH0 DUP4 ADD MLOAD PUSH2 0xAE5 PUSH0 DUP7 ADD DUP3 PUSH2 0x91D JUMP JUMPDEST POP PUSH1 0x20 DUP4 ADD MLOAD DUP5 DUP3 SUB PUSH1 0x20 DUP7 ADD MSTORE PUSH2 0xAFD DUP3 DUP3 PUSH2 0x97E JUMP JUMPDEST SWAP2 POP POP PUSH1 0x40 DUP4 ADD MLOAD PUSH2 0xB12 PUSH1 0x40 DUP7 ADD DUP3 PUSH2 0x9B6 JUMP JUMPDEST POP PUSH1 0x60 DUP4 ADD MLOAD PUSH2 0xB25 PUSH1 0x60 DUP7 ADD DUP3 PUSH2 0x9D0 JUMP JUMPDEST POP PUSH1 0x80 DUP4 ADD MLOAD PUSH2 0xB38 PUSH1 0x80 DUP7 ADD DUP3 PUSH2 0x91D JUMP JUMPDEST POP PUSH1 0xA0 DUP4 ADD MLOAD DUP5 DUP3 SUB PUSH1 0xA0 DUP7 ADD MSTORE PUSH2 0xB50 DUP3 DUP3 PUSH2 0xA74 JUMP JUMPDEST SWAP2 POP POP PUSH1 0xC0 DUP4 ADD MLOAD DUP5 DUP3 SUB PUSH1 0xC0 DUP7 ADD MSTORE PUSH2 0xB6A DUP3 DUP3 PUSH2 0xA74 JUMP JUMPDEST SWAP2 POP POP DUP1 SWAP2 POP POP SWAP3 SWAP2 POP POP JUMP JUMPDEST PUSH0 PUSH1 0x20 DUP3 ADD SWAP1 POP DUP2 DUP2 SUB PUSH0 DUP4 ADD MSTORE PUSH2 0xB8F DUP2 DUP5 PUSH2 0xAD0 JUMP JUMPDEST SWAP1 POP SWAP3 SWAP2 POP POP JUMP JUMPDEST PUSH2 0xBA0 DUP2 PUSH2 0x90C JUMP JUMPDEST DUP2 EQ PUSH2 0xBAA JUMPI PUSH0 DUP1 REVERT JUMPDEST POP JUMP JUMPDEST PUSH0 DUP2 CALLDATALOAD SWAP1 POP PUSH2 0xBBB DUP2 PUSH2 0xB97 JUMP JUMPDEST SWAP3 SWAP2 POP POP JUMP JUMPDEST PUSH0 PUSH1 0x20 DUP3 DUP5 SUB SLT ISZERO PUSH2 0xBD6 JUMPI PUSH2 0xBD5 PUSH2 0x8A6 JUMP JUMPDEST JUMPDEST PUSH0 PUSH2 0xBE3 DUP5 DUP3 DUP6 ADD PUSH2 0xBAD JUMP JUMPDEST SWAP2 POP POP SWAP3 SWAP2 POP POP JUMP JUMPDEST PUSH0 PUSH1 0x20 DUP4 ADD PUSH0 DUP4 ADD MLOAD DUP5 DUP3 SUB PUSH0 DUP7 ADD MSTORE PUSH2 0xC06 DUP3 DUP3 PUSH2 0x97E JUMP JUMPDEST SWAP2 POP POP DUP1 SWAP2 POP POP SWAP3 SWAP2 POP POP JUMP JUMPDEST PUSH0 PUSH1 0x20 DUP3 ADD SWAP1 POP DUP2 DUP2 SUB PUSH0 DUP4 ADD MSTORE PUSH2 0xC2B DUP2 DUP5 PUSH2 0xBEC JUMP JUMPDEST SWAP1 POP SWAP3 SWAP2 POP POP JUMP JUMPDEST PUSH0 PUSH2 0xC3D DUP3 PUSH2 0x7E1 JUMP JUMPDEST SWAP1 POP SWAP2 SWAP1 POP JUMP JUMPDEST PUSH2 0xC4D DUP2 PUSH2 0xC33 JUMP JUMPDEST DUP3 MSTORE POP POP JUMP JUMPDEST PUSH0 PUSH1 0x20 DUP3 ADD SWAP1 POP PUSH2 0xC66 PUSH0 DUP4 ADD DUP5 PUSH2 0xC44 JUMP JUMPDEST SWAP3 SWAP2 POP POP JUMP JUMPDEST PUSH2 0xC75 DUP2 PUSH2 0x8AE JUMP JUMPDEST DUP3 MSTORE POP POP JUMP JUMPDEST PUSH0 PUSH1 0x20 DUP3 ADD SWAP1 POP PUSH2 0xC8E PUSH0 DUP4 ADD DUP5 PUSH2 0xC6C JUMP JUMPDEST SWAP3 SWAP2 POP POP JUMP JUMPDEST PUSH0 DUP2 MLOAD SWAP1 POP PUSH2 0xCA2 DUP2 PUSH2 0xB97 JUMP JUMPDEST SWAP3 SWAP2 POP POP JUMP JUMPDEST PUSH0 PUSH1 0x20 DUP3 DUP5 SUB SLT ISZERO PUSH2 0xCBD JUMPI PUSH2 0xCBC PUSH2 0x8A6 JUMP JUMPDEST JUMPDEST PUSH0 PUSH2 0xCCA DUP5 DUP3 DUP6 ADD PUSH2 0xC94 JUMP JUMPDEST SWAP2 POP POP SWAP3 SWAP2 POP POP JUMP JUMPDEST PUSH0 DUP1 REVERT JUMPDEST PUSH0 DUP1 REVERT JUMPDEST PUSH32 0x4E487B7100000000000000000000000000000000000000000000000000000000 PUSH0 MSTORE PUSH1 0x41 PUSH1 0x4 MSTORE PUSH1 0x24 PUSH0 REVERT JUMPDEST PUSH2 0xD11 DUP3 PUSH2 0x96E JUMP JUMPDEST DUP2 ADD DUP2 DUP2 LT PUSH8 0xFFFFFFFFFFFFFFFF DUP3 GT OR ISZERO PUSH2 0xD30 JUMPI PUSH2 0xD2F PUSH2 0xCDB JUMP JUMPDEST JUMPDEST DUP1 PUSH1 0x40 MSTORE POP POP POP JUMP JUMPDEST PUSH0 PUSH2 0xD42 PUSH2 0x89D JUMP JUMPDEST SWAP1 POP PUSH2 0xD4E DUP3 DUP3 PUSH2 0xD08 JUMP JUMPDEST SWAP2 SWAP1 POP JUMP JUMPDEST PUSH0 PUSH8 0xFFFFFFFFFFFFFFFF DUP3 GT ISZERO PUSH2 0xD6D JUMPI PUSH2 0xD6C PUSH2 0xCDB JUMP JUMPDEST JUMPDEST PUSH2 0xD76 DUP3 PUSH2 0x96E JUMP JUMPDEST SWAP1 POP PUSH1 0x20 DUP2 ADD SWAP1 POP SWAP2 SWAP1 POP JUMP JUMPDEST PUSH0 PUSH2 0xD95 PUSH2 0xD90 DUP5 PUSH2 0xD53 JUMP JUMPDEST PUSH2 0xD39 JUMP JUMPDEST SWAP1 POP DUP3 DUP2 MSTORE PUSH1 0x20 DUP2 ADD DUP5 DUP5 DUP5 ADD GT ISZERO PUSH2 0xDB1 JUMPI PUSH2 0xDB0 PUSH2 0xCD7 JUMP JUMPDEST JUMPDEST PUSH2 0xDBC DUP5 DUP3 DUP6 PUSH2 0x946 JUMP JUMPDEST POP SWAP4 SWAP3 POP POP POP JUMP JUMPDEST PUSH0 DUP3 PUSH1 0x1F DUP4 ADD SLT PUSH2 0xDD8 JUMPI PUSH2 0xDD7 PUSH2 0xCD3 JUMP JUMPDEST JUMPDEST DUP2 MLOAD PUSH2 0xDE8 DUP5 DUP3 PUSH1 0x20 DUP7 ADD PUSH2 0xD83 JUMP JUMPDEST SWAP2 POP POP SWAP3 SWAP2 POP POP JUMP JUMPDEST PUSH0 PUSH1 0x20 DUP3 DUP5 SUB SLT ISZERO PUSH2 0xE06 JUMPI PUSH2 0xE05 PUSH2 0x8A6 JUMP JUMPDEST JUMPDEST PUSH0 DUP3 ADD MLOAD PUSH8 0xFFFFFFFFFFFFFFFF DUP2 GT ISZERO PUSH2 0xE23 JUMPI PUSH2 0xE22 PUSH2 0x8AA JUMP JUMPDEST JUMPDEST PUSH2 0xE2F DUP5 DUP3 DUP6 ADD PUSH2 0xDC4 JUMP JUMPDEST SWAP2 POP POP SWAP3 SWAP2 POP POP JUMP JUMPDEST PUSH0 DUP2 MLOAD SWAP1 POP PUSH2 0xE46 DUP2 PUSH2 0x8B7 JUMP JUMPDEST SWAP3 SWAP2 POP POP JUMP JUMPDEST PUSH0 PUSH1 0x20 DUP3 DUP5 SUB SLT ISZERO PUSH2 0xE61 JUMPI PUSH2 0xE60 PUSH2 0x8A6 JUMP JUMPDEST JUMPDEST PUSH0 PUSH2 0xE6E DUP5 DUP3 DUP6 ADD PUSH2 0xE38 JUMP JUMPDEST SWAP2 POP POP SWAP3 SWAP2 POP POP JUMP JUMPDEST PUSH2 0xE80 DUP2 PUSH2 0x9C5 JUMP JUMPDEST DUP2 EQ PUSH2 0xE8A JUMPI PUSH0 DUP1 REVERT JUMPDEST POP JUMP JUMPDEST PUSH0 DUP2 MLOAD SWAP1 POP PUSH2 0xE9B DUP2 PUSH2 0xE77 JUMP JUMPDEST SWAP3 SWAP2 POP POP JUMP JUMPDEST PUSH0 PUSH1 0x20 DUP3 DUP5 SUB SLT ISZERO PUSH2 0xEB6 JUMPI PUSH2 0xEB5 PUSH2 0x8A6 JUMP JUMPDEST JUMPDEST PUSH0 PUSH2 0xEC3 DUP5 DUP3 DUP6 ADD PUSH2 0xE8D JUMP JUMPDEST SWAP2 POP POP SWAP3 SWAP2 POP POP JUMP JUMPDEST PUSH0 PUSH8 0xFFFFFFFFFFFFFFFF DUP3 GT ISZERO PUSH2 0xEE6 JUMPI PUSH2 0xEE5 PUSH2 0xCDB JUMP JUMPDEST JUMPDEST PUSH1 0x20 DUP3 MUL SWAP1 POP PUSH1 0x20 DUP2 ADD SWAP1 POP SWAP2 SWAP1 POP JUMP JUMPDEST PUSH0 DUP1 REVERT JUMPDEST PUSH0 DUP1 REVERT JUMPDEST PUSH2 0xF08 DUP2 PUSH2 0xA08 JUMP JUMPDEST DUP2 EQ PUSH2 0xF12 JUMPI PUSH0 DUP1 REVERT JUMPDEST POP JUMP JUMPDEST PUSH0 DUP2 MLOAD SWAP1 POP PUSH2 0xF23 DUP2 PUSH2 0xEFF JUMP JUMPDEST SWAP3 SWAP2 POP POP JUMP JUMPDEST PUSH0 PUSH1 0x40 DUP3 DUP5 SUB SLT ISZERO PUSH2 0xF3E JUMPI PUSH2 0xF3D PUSH2 0xEFB JUMP JUMPDEST JUMPDEST PUSH2 0xF48 PUSH1 0x40 PUSH2 0xD39 JUMP JUMPDEST SWAP1 POP PUSH0 PUSH2 0xF57 DUP5 DUP3 DUP6 ADD PUSH2 0xC94 JUMP JUMPDEST PUSH0 DUP4 ADD MSTORE POP PUSH1 0x20 PUSH2 0xF6A DUP5 DUP3 DUP6 ADD PUSH2 0xF15 JUMP JUMPDEST PUSH1 0x20 DUP4 ADD MSTORE POP SWAP3 SWAP2 POP POP JUMP JUMPDEST PUSH0 PUSH2 0xF88 PUSH2 0xF83 DUP5 PUSH2 0xECC JUMP JUMPDEST PUSH2 0xD39 JUMP JUMPDEST SWAP1 POP DUP1 DUP4 DUP3 MSTORE PUSH1 0x20 DUP3 ADD SWAP1 POP PUSH1 0x40 DUP5 MUL DUP4 ADD DUP6 DUP2 GT ISZERO PUSH2 0xFAB JUMPI PUSH2 0xFAA PUSH2 0xEF7 JUMP JUMPDEST JUMPDEST DUP4 JUMPDEST DUP2 DUP2 LT ISZERO PUSH2 0xFD4 JUMPI DUP1 PUSH2 0xFC0 DUP9 DUP3 PUSH2 0xF29 JUMP JUMPDEST DUP5 MSTORE PUSH1 0x20 DUP5 ADD SWAP4 POP POP PUSH1 0x40 DUP2 ADD SWAP1 POP PUSH2 0xFAD JUMP JUMPDEST POP POP POP SWAP4 SWAP3 POP POP POP JUMP JUMPDEST PUSH0 DUP3 PUSH1 0x1F DUP4 ADD SLT PUSH2 0xFF2 JUMPI PUSH2 0xFF1 PUSH2 0xCD3 JUMP JUMPDEST JUMPDEST DUP2 MLOAD PUSH2 0x1002 DUP5 DUP3 PUSH1 0x20 DUP7 ADD PUSH2 0xF76 JUMP JUMPDEST SWAP2 POP POP SWAP3 SWAP2 POP POP JUMP JUMPDEST PUSH0 PUSH1 0x20 DUP3 DUP5 SUB SLT ISZERO PUSH2 0x1020 JUMPI PUSH2 0x101F PUSH2 0x8A6 JUMP JUMPDEST JUMPDEST PUSH0 DUP3 ADD MLOAD PUSH8 0xFFFFFFFFFFFFFFFF DUP2 GT ISZERO PUSH2 0x103D JUMPI PUSH2 0x103C PUSH2 0x8AA JUMP JUMPDEST JUMPDEST PUSH2 0x1049 DUP5 DUP3 DUP6 ADD PUSH2 0xFDE JUMP JUMPDEST SWAP2 POP POP SWAP3 SWAP2 POP POP JUMP JUMPDEST PUSH2 0x105B DUP2 PUSH2 0x90C JUMP JUMPDEST DUP3 MSTORE POP POP JUMP JUMPDEST PUSH0 PUSH1 0x20 DUP3 ADD SWAP1 POP PUSH2 0x1074 PUSH0 DUP4 ADD DUP5 PUSH2 0x1052 JUMP JUMPDEST SWAP3 SWAP2 POP POP JUMP INVALID LOG2 PUSH5 0x6970667358 0x22 SLT KECCAK256 STATICCALL JUMPI SWAP2 0xE 0xC3 0xDB JUMPDEST SWAP15 DUP16 0xCD DUP8 DUP9 0xD3 PUSH14 0xBEF3C56FB75110AAC21F7A82639A SWAP16 0xDD 0xDF 0x4D PUSH5 0x736F6C6343 STOP ADDMOD EQ STOP CALLER "
				},
				"gasEstimates": {
					"creation": {
						"codeDepositCost": "854400",
						"executionCost": "infinite",
						"totalCost": "infinite"
					},
					"external": {
						"assetToken()": "infinite",
						"contributorRegistry()": "infinite",
						"getAssetFullDetails(uint256)": "infinite",
						"getContributorDetails(address)": "infinite",
						"provenanceGraph()": "infinite",
						"royaltySplitFactory()": "infinite"
					}
				},
				"methodIdentifiers": {
					"assetToken()": "1083f761",
					"contributorRegistry()": "318536bd",
					"getAssetFullDetails(uint256)": "7978c001",
					"getContributorDetails(address)": "8dcd0676",
					"provenanceGraph()": "9a3bbed3",
					"royaltySplitFactory()": "19beb49b"
				}
			},
			"storageLayout": {
				"storage": [],
				"types": null
			},
			"userdoc": {
				"kind": "user",
				"methods": {
					"getAssetFullDetails(uint256)": {
						"notice": "Fetches all on-chain details for a given asset ID in a single call."
					},
					"getContributorDetails(address)": {
						"notice": "Fetches details for a given contributor address."
					}
				},
				"notice": "A read-only contract that aggregates data from multiple core contracts.",
				"version": 1
			}
		}
	}
}