{
	"data": {
		"bytecode": {
			"linkReferences": {},
			"object": "60c060405234801562000010575f80fd5b506040516200172b3803806200172b83398181016040528101906200003691906200010b565b8173ffffffffffffffffffffffffffffffffffffffff1660808173ffffffffffffffffffffffffffffffffffffffff16815250508073ffffffffffffffffffffffffffffffffffffffff1660a08173ffffffffffffffffffffffffffffffffffffffff1681525050505062000150565b5f80fd5b5f73ffffffffffffffffffffffffffffffffffffffff82169050919050565b5f620000d582620000aa565b9050919050565b620000e781620000c9565b8114620000f2575f80fd5b50565b5f815190506200010581620000dc565b92915050565b5f8060408385031215620001245762000123620000a6565b5b5f6200013385828601620000f5565b92505060206200014685828601620000f5565b9150509250929050565b60805160a051611596620001955f395f818161048b015261079901525f8181610227015281816103d2015281816105ee01528181610a8e0152610c3901526115965ff3fe608060405234801561000f575f80fd5b506004361061009c575f3560e01c80635ee7c0f8116100645780635ee7c0f814610158578063662f850214610188578063cf1a5935146101b8578063dc28c34f146101d4578063eafb79e2146101f05761009c565b806305261aea146100a05780631083f761146100bc5780631e315d9d146100da578063318536bd1461010a57806333727c4d14610128575b5f80fd5b6100ba60048036038101906100b59190610eeb565b61020e565b005b6100c46103d0565b6040516100d19190610f90565b60405180910390f35b6100f460048036038101906100ef9190610eeb565b6103f4565b60405161010191906110a9565b60405180910390f35b610112610489565b60405161011f91906110e9565b60405180910390f35b610142600480360381019061013d9190610eeb565b6104ad565b60405161014f919061111c565b60405180910390f35b610172600480360381019061016d9190610eeb565b6104d3565b60405161017f919061122a565b60405180910390f35b6101a2600480360381019061019d9190610eeb565b6105ae565b6040516101af9190611259565b60405180910390f35b6101d260048036038101906101cd91906112c6565b6105d5565b005b6101ee60048036038101906101e99190611316565b610a75565b005b6101f8610e90565b604051610205919061137e565b60405180910390f35b3373ffffffffffffffffffffffffffffffffffffffff167f000000000000000000000000000000000000000000000000000000000000000073ffffffffffffffffffffffffffffffffffffffff16636352211e836040518263ffffffff1660e01b815260040161027e91906113a6565b602060405180830381865afa158015610299573d5f803e3d5ffd5b505050506040513d601f19601f820116820180604052508101906102bd91906113d3565b73ffffffffffffffffffffffffffffffffffffffff16146103175733816040517fd10b1c5900000000000000000000000000000000000000000000000000000000815260040161030e92919061140d565b60405180910390fd5b60035f8281526020019081526020015f205f9054906101000a900460ff161561037757806040517f5a48209b00000000000000000000000000000000000000000000000000000000815260040161036e91906113a6565b60405180910390fd5b600160035f8381526020019081526020015f205f6101000a81548160ff021916908315150217905550807f5243abcaa321aa3b18556b53aec82c9c559b3a8595b22b17c992e15098e82ab360405160405180910390a250565b7f000000000000000000000000000000000000000000000000000000000000000081565b606060015f8381526020019081526020015f20805480602002602001604051908101604052809291908181526020015f905b8282101561047e578382905f5260205f2090600202016040518060400160405290815f8201548152602001600182015f9054906101000a900461ffff1661ffff1661ffff168152505081526020019060010190610426565b505050509050919050565b7f000000000000000000000000000000000000000000000000000000000000000081565b5f60035f8381526020019081526020015f205f9054906101000a900460ff169050919050565b60605f808381526020019081526020015f20805480602002602001604051908101604052809291908181526020015f905b828210156105a3578382905f5260205f20016040518060400160405290815f82015f9054906101000a900473ffffffffffffffffffffffffffffffffffffffff1673ffffffffffffffffffffffffffffffffffffffff1673ffffffffffffffffffffffffffffffffffffffff1681526020015f820160149054906101000a900461ffff1661ffff1661ffff168152505081526020019060010190610504565b505050509050919050565b5f60025f8381526020019081526020015f205f9054906101000a900461ffff169050919050565b3373ffffffffffffffffffffffffffffffffffffffff167f000000000000000000000000000000000000000000000000000000000000000073ffffffffffffffffffffffffffffffffffffffff16636352211e856040518263ffffffff1660e01b815260040161064591906113a6565b602060405180830381865afa158015610660573d5f803e3d5ffd5b505050506040513d601f19601f8201168201806040525081019061068491906113d3565b73ffffffffffffffffffffffffffffffffffffffff16146106de5733836040517fd10b1c590000000000000000000000000000000000000000000000000000000081526004016106d592919061140d565b60405180910390fd5b60035f8481526020019081526020015f205f9054906101000a900460ff161561073e57826040517f5a48209b00000000000000000000000000000000000000000000000000000000815260040161073591906113a6565b60405180910390fd5b5f8161ffff16148061075557506127108161ffff16115b1561079757806040517f8ee8942100000000000000000000000000000000000000000000000000000000815260040161078e9190611259565b60405180910390fd5b7f000000000000000000000000000000000000000000000000000000000000000073ffffffffffffffffffffffffffffffffffffffff166391d148547fe2889e7308860b3fe8df0daa86fccfea4d71e43776719a57be28cf90b6db81e9846040518363ffffffff1660e01b8152600401610812929190611434565b602060405180830381865afa15801561082d573d5f803e3d5ffd5b505050506040513d601f19601f820116820180604052508101906108519190611485565b61089257816040517f4872cb9b00000000000000000000000000000000000000000000000000000000815260040161088991906114b0565b60405180910390fd5b5f8160025f8681526020019081526020015f205f9054906101000a900461ffff166108bd91906114f6565b90506127108161ffff16111561092c578360025f8681526020019081526020015f205f9054906101000a900461ffff16836040517f2f8be8d90000000000000000000000000000000000000000000000000000000081526004016109239392919061152b565b60405180910390fd5b8060025f8681526020019081526020015f205f6101000a81548161ffff021916908361ffff1602179055505f808581526020019081526020015f2060405180604001604052808573ffffffffffffffffffffffffffffffffffffffff1681526020018461ffff16815250908060018154018082558091505060019003905f5260205f20015f909190919091505f820151815f015f6101000a81548173ffffffffffffffffffffffffffffffffffffffff021916908373ffffffffffffffffffffffffffffffffffffffff1602179055506020820151815f0160146101000a81548161ffff021916908361ffff16021790555050508273ffffffffffffffffffffffffffffffffffffffff16847f850fc0dc2fb73f8321e121abefd50bb59e0d270d6f7e450f9179e1ad3856daec84604051610a679190611259565b60405180910390a350505050565b3373ffffffffffffffffffffffffffffffffffffffff167f000000000000000000000000000000000000000000000000000000000000000073ffffffffffffffffffffffffffffffffffffffff16636352211e856040518263ffffffff1660e01b8152600401610ae591906113a6565b602060405180830381865afa158015610b00573d5f803e3d5ffd5b505050506040513d601f19601f82011682018060405250810190610b2491906113d3565b73ffffffffffffffffffffffffffffffffffffffff1614610b7e5733836040517fd10b1c59000000000000000000000000000000000000000000000000000000008152600401610b7592919061140d565b60405180910390fd5b60035f8481526020019081526020015f205f9054906101000a900460ff1615610bde57826040517f5a48209b000000000000000000000000000000000000000000000000000000008152600401610bd591906113a6565b60405180910390fd5b5f8161ffff161480610bf557506127108161ffff16115b15610c3757806040517f8ee89421000000000000000000000000000000000000000000000000000000008152600401610c2e9190611259565b60405180910390fd5b7f000000000000000000000000000000000000000000000000000000000000000073ffffffffffffffffffffffffffffffffffffffff16634f558e79836040518263ffffffff1660e01b8152600401610c9091906113a6565b602060405180830381865afa158015610cab573d5f803e3d5ffd5b505050506040513d601f19601f82011682018060405250810190610ccf9190611485565b610d1057816040517f6f9bab55000000000000000000000000000000000000000000000000000000008152600401610d0791906113a6565b60405180910390fd5b5f8160025f8681526020019081526020015f205f9054906101000a900461ffff16610d3b91906114f6565b90506127108161ffff161115610daa578360025f8681526020019081526020015f205f9054906101000a900461ffff16836040517f2f8be8d9000000000000000000000000000000000000000000000000000000008152600401610da19392919061152b565b60405180910390fd5b8060025f8681526020019081526020015f205f6101000a81548161ffff021916908361ffff16021790555060015f8581526020019081526020015f2060405180604001604052808581526020018461ffff16815250908060018154018082558091505060019003905f5260205f2090600202015f909190919091505f820151815f01556020820151816001015f6101000a81548161ffff021916908361ffff160217905550505082847ffec898c5d3912b351b65f61d0ff9a86555f8531846f3a878bfcd355f0442902884604051610e829190611259565b60405180910390a350505050565b7fe2889e7308860b3fe8df0daa86fccfea4d71e43776719a57be28cf90b6db81e981565b5f80fd5b5f819050919050565b610eca81610eb8565b8114610ed4575f80fd5b50565b5f81359050610ee581610ec1565b92915050565b5f60208284031215610f0057610eff610eb4565b5b5f610f0d84828501610ed7565b91505092915050565b5f73ffffffffffffffffffffffffffffffffffffffff82169050919050565b5f819050919050565b5f610f58610f53610f4e84610f16565b610f35565b610f16565b9050919050565b5f610f6982610f3e565b9050919050565b5f610f7a82610f5f565b9050919050565b610f8a81610f70565b82525050565b5f602082019050610fa35f830184610f81565b92915050565b5f81519050919050565b5f82825260208201905092915050565b5f819050602082019050919050565b610fdb81610eb8565b82525050565b5f61ffff82169050919050565b610ff781610fe1565b82525050565b604082015f8201516110115f850182610fd2565b5060208201516110246020850182610fee565b50505050565b5f6110358383610ffd565b60408301905092915050565b5f602082019050919050565b5f61105782610fa9565b6110618185610fb3565b935061106c83610fc3565b805f5b8381101561109c578151611083888261102a565b975061108e83611041565b92505060018101905061106f565b5085935050505092915050565b5f6020820190508181035f8301526110c1818461104d565b905092915050565b5f6110d382610f5f565b9050919050565b6110e3816110c9565b82525050565b5f6020820190506110fc5f8301846110da565b92915050565b5f8115159050919050565b61111681611102565b82525050565b5f60208201905061112f5f83018461110d565b92915050565b5f81519050919050565b5f82825260208201905092915050565b5f819050602082019050919050565b5f61116882610f16565b9050919050565b6111788161115e565b82525050565b604082015f8201516111925f85018261116f565b5060208201516111a56020850182610fee565b50505050565b5f6111b6838361117e565b60408301905092915050565b5f602082019050919050565b5f6111d882611135565b6111e2818561113f565b93506111ed8361114f565b805f5b8381101561121d57815161120488826111ab565b975061120f836111c2565b9250506001810190506111f0565b5085935050505092915050565b5f6020820190508181035f83015261124281846111ce565b905092915050565b61125381610fe1565b82525050565b5f60208201905061126c5f83018461124a565b92915050565b61127b8161115e565b8114611285575f80fd5b50565b5f8135905061129681611272565b92915050565b6112a581610fe1565b81146112af575f80fd5b50565b5f813590506112c08161129c565b92915050565b5f805f606084860312156112dd576112dc610eb4565b5b5f6112ea86828701610ed7565b93505060206112fb86828701611288565b925050604061130c868287016112b2565b9150509250925092565b5f805f6060848603121561132d5761132c610eb4565b5b5f61133a86828701610ed7565b935050602061134b86828701610ed7565b925050604061135c868287016112b2565b9150509250925092565b5f819050919050565b61137881611366565b82525050565b5f6020820190506113915f83018461136f565b92915050565b6113a081610eb8565b82525050565b5f6020820190506113b95f830184611397565b92915050565b5f815190506113cd81611272565b92915050565b5f602082840312156113e8576113e7610eb4565b5b5f6113f5848285016113bf565b91505092915050565b6114078161115e565b82525050565b5f6040820190506114205f8301856113fe565b61142d6020830184611397565b9392505050565b5f6040820190506114475f83018561136f565b61145460208301846113fe565b9392505050565b61146481611102565b811461146e575f80fd5b50565b5f8151905061147f8161145b565b92915050565b5f6020828403121561149a57611499610eb4565b5b5f6114a784828501611471565b91505092915050565b5f6020820190506114c35f8301846113fe565b92915050565b7f4e487b71000000000000000000000000000000000000000000000000000000005f52601160045260245ffd5b5f61150082610fe1565b915061150b83610fe1565b9250828201905061ffff811115611525576115246114c9565b5b92915050565b5f60608201905061153e5f830186611397565b61154b602083018561124a565b611558604083018461124a565b94935050505056fea2646970667358221220e23f893c239ff4b5167c846930fc1b5ce97e2961bf9cda9c8c05430865ed077864736f6c63430008140033",
			"opcodes": "PUSH1 0xC0 PUSH1 0x40 MSTORE CALLVALUE DUP1 ISZERO PUSH3 0x10 JUMPI PUSH0 DUP1 REVERT JUMPDEST POP PUSH1 0x40 MLOAD PUSH3 0x172B CODESIZE SUB DUP1 PUSH3 0x172B DUP4 CODECOPY DUP2 DUP2 ADD PUSH1 0x40 MSTORE DUP2 ADD SWAP1 PUSH3 0x36 SWAP2 SWAP1 PUSH3 0x10B JUMP JUMPDEST DUP2 PUSH20 0xFFFFFFFFFFFFFFFFFFFFFFFFFFFFFFFFFFFFFFFF AND PUSH1 0x80 DUP2 PUSH20 0xFFFFFFFFFFFFFFFFFFFFFFFFFFFFFFFFFFFFFFFF AND DUP2 MSTORE POP POP DUP1 PUSH20 0xFFFFFFFFFFFFFFFFFFFFFFFFFFFFFFFFFFFFFFFF AND PUSH1 0xA0 DUP2 PUSH20 0xFFFFFFFFFFFFFFFFFFFFFFFFFFFFFFFFFFFFFFFF AND DUP2 MSTORE POP POP POP POP PUSH3 0x150 JUMP JUMPDEST PUSH0 DUP1 REVERT JUMPDEST PUSH0 PUSH20 0xFFFFFFFFFFFFFFFFFFFFFFFFFFFFFFFFFFFFFFFF DUP3 AND SWAP1 POP SWAP2 SWAP1 POP JUMP JUMPDEST PUSH0 PUSH3 0xD5 DUP3 PUSH3 0xAA JUMP JUMPDEST SWAP1 POP SWAP2 SWAP1 POP JUMP JUMPDEST PUSH3 0xE7 DUP2 PUSH3 0xC9 JUMP JUMPDEST DUP2 EQ PUSH3 0xF2 JUMPI PUSH0 DUP1 REVERT JUMPDEST POP JUMP JUMPDEST PUSH0 DUP2 MLOAD SWAP1 POP PUSH3 0x105 DUP2 PUSH3 0xDC JUMP JUMPDEST SWAP3 SWAP2 POP POP JUMP JUMPDEST PUSH0 DUP1 PUSH1 0x40 DUP4 DUP6 SUB SLT ISZERO PUSH3 0x124 JUMPI PUSH3 0x123 PUSH3 0xA6 JUMP JUMPDEST JUMPDEST PUSH0 PUSH3 0x133 DUP6 DUP3 DUP7 ADD PUSH3 0xF5 JUMP JUMPDEST SWAP3 POP POP PUSH1 0x20 PUSH3 0x146 DUP6 DUP3 DUP7 ADD PUSH3 0xF5 JUMP JUMPDEST SWAP2 POP POP SWAP3 POP SWAP3 SWAP1 POP JUMP JUMPDEST PUSH1 0x80 MLOAD PUSH1 0xA0 MLOAD PUSH2 0x1596 PUSH3 0x195 PUSH0 CODECOPY PUSH0 DUP2 DUP2 PUSH2 0x48B ADD MSTORE PUSH2 0x799 ADD MSTORE PUSH0 DUP2 DUP2 PUSH2 0x227 ADD MSTORE DUP2 DUP2 PUSH2 0x3D2 ADD MSTORE DUP2 DUP2 PUSH2 0x5EE ADD MSTORE DUP2 DUP2 PUSH2 0xA8E ADD MSTORE PUSH2 0xC39 ADD MSTORE PUSH2 0x1596 PUSH0 RETURN INVALID PUSH1 0x80 PUSH1 0x40 MSTORE CALLVALUE DUP1 ISZERO PUSH2 0xF JUMPI PUSH0 DUP1 REVERT JUMPDEST POP PUSH1 0x4 CALLDATASIZE LT PUSH2 0x9C JUMPI PUSH0 CALLDATALOAD PUSH1 0xE0 SHR DUP1 PUSH4 0x5EE7C0F8 GT PUSH2 0x64 JUMPI DUP1 PUSH4 0x5EE7C0F8 EQ PUSH2 0x158 JUMPI DUP1 PUSH4 0x662F8502 EQ PUSH2 0x188 JUMPI DUP1 PUSH4 0xCF1A5935 EQ PUSH2 0x1B8 JUMPI DUP1 PUSH4 0xDC28C34F EQ PUSH2 0x1D4 JUMPI DUP1 PUSH4 0xEAFB79E2 EQ PUSH2 0x1F0 JUMPI PUSH2 0x9C JUMP JUMPDEST DUP1 PUSH4 0x5261AEA EQ PUSH2 0xA0 JUMPI DUP1 PUSH4 0x1083F761 EQ PUSH2 0xBC JUMPI DUP1 PUSH4 0x1E315D9D EQ PUSH2 0xDA JUMPI DUP1 PUSH4 0x318536BD EQ PUSH2 0x10A JUMPI DUP1 PUSH4 0x33727C4D EQ PUSH2 0x128 JUMPI JUMPDEST PUSH0 DUP1 REVERT JUMPDEST PUSH2 0xBA PUSH1 0x4 DUP1 CALLDATASIZE SUB DUP2 ADD SWAP1 PUSH2 0xB5 SWAP2 SWAP1 PUSH2 0xEEB JUMP JUMPDEST PUSH2 0x20E JUMP JUMPDEST STOP JUMPDEST PUSH2 0xC4 PUSH2 0x3D0 JUMP JUMPDEST PUSH1 0x40 MLOAD PUSH2 0xD1 SWAP2 SWAP1 PUSH2 0xF90 JUMP JUMPDEST PUSH1 0x40 MLOAD DUP1 SWAP2 SUB SWAP1 RETURN JUMPDEST PUSH2 0xF4 PUSH1 0x4 DUP1 CALLDATASIZE SUB DUP2 ADD SWAP1 PUSH2 0xEF SWAP2 SWAP1 PUSH2 0xEEB JUMP JUMPDEST PUSH2 0x3F4 JUMP JUMPDEST PUSH1 0x40 MLOAD PUSH2 0x101 SWAP2 SWAP1 PUSH2 0x10A9 JUMP JUMPDEST PUSH1 0x40 MLOAD DUP1 SWAP2 SUB SWAP1 RETURN JUMPDEST PUSH2 0x112 PUSH2 0x489 JUMP JUMPDEST PUSH1 0x40 MLOAD PUSH2 0x11F SWAP2 SWAP1 PUSH2 0x10E9 JUMP JUMPDEST PUSH1 0x40 MLOAD DUP1 SWAP2 SUB SWAP1 RETURN JUMPDEST PUSH2 0x142 PUSH1 0x4 DUP1 CALLDATASIZE SUB DUP2 ADD SWAP1 PUSH2 0x13D SWAP2 SWAP1 PUSH2 0xEEB JUMP JUMPDEST PUSH2 0x4AD JUMP JUMPDEST PUSH1 0x40 MLOAD PUSH2 0x14F SWAP2 SWAP1 PUSH2 0x111C JUMP JUMPDEST PUSH1 0x40 MLOAD DUP1 SWAP2 SUB SWAP1 RETURN JUMPDEST PUSH2 0x172 PUSH1 0x4 DUP1 CALLDATASIZE SUB DUP2 ADD SWAP1 PUSH2 0x16D SWAP2 SWAP1 PUSH2 0xEEB JUMP JUMPDEST PUSH2 0x4D3 JUMP JUMPDEST PUSH1 0x40 MLOAD PUSH2 0x17F SWAP2 SWAP1 PUSH2 0x122A JUMP JUMPDEST PUSH1 0x40 MLOAD DUP1 SWAP2 SUB SWAP1 RETURN JUMPDEST PUSH2 0x1A2 PUSH1 0x4 DUP1 CALLDATASIZE SUB DUP2 ADD SWAP1 PUSH2 0x19D SWAP2 SWAP1 PUSH2 0xEEB JUMP JUMPDEST PUSH2 0x5AE JUMP JUMPDEST PUSH1 0x40 MLOAD PUSH2 0x1AF SWAP2 SWAP1 PUSH2 0x1259 JUMP JUMPDEST PUSH1 0x40 MLOAD DUP1 SWAP2 SUB SWAP1 RETURN JUMPDEST PUSH2 0x1D2 PUSH1 0x4 DUP1 CALLDATASIZE SUB DUP2 ADD SWAP1 PUSH2 0x1CD SWAP2 SWAP1 PUSH2 0x12C6 JUMP JUMPDEST PUSH2 0x5D5 JUMP JUMPDEST STOP JUMPDEST PUSH2 0x1EE PUSH1 0x4 DUP1 CALLDATASIZE SUB DUP2 ADD SWAP1 PUSH2 0x1E9 SWAP2 SWAP1 PUSH2 0x1316 JUMP JUMPDEST PUSH2 0xA75 JUMP JUMPDEST STOP JUMPDEST PUSH2 0x1F8 PUSH2 0xE90 JUMP JUMPDEST PUSH1 0x40 MLOAD PUSH2 0x205 SWAP2 SWAP1 PUSH2 0x137E JUMP JUMPDEST PUSH1 0x40 MLOAD DUP1 SWAP2 SUB SWAP1 RETURN JUMPDEST CALLER PUSH20 0xFFFFFFFFFFFFFFFFFFFFFFFFFFFFFFFFFFFFFFFF AND PUSH32 0x0 PUSH20 0xFFFFFFFFFFFFFFFFFFFFFFFFFFFFFFFFFFFFFFFF AND PUSH4 0x6352211E DUP4 PUSH1 0x40 MLOAD DUP3 PUSH4 0xFFFFFFFF AND PUSH1 0xE0 SHL DUP2 MSTORE PUSH1 0x4 ADD PUSH2 0x27E SWAP2 SWAP1 PUSH2 0x13A6 JUMP JUMPDEST PUSH1 0x20 PUSH1 0x40 MLOAD DUP1 DUP4 SUB DUP2 DUP7 GAS STATICCALL ISZERO DUP1 ISZERO PUSH2 0x299 JUMPI RETURNDATASIZE PUSH0 DUP1 RETURNDATACOPY RETURNDATASIZE PUSH0 REVERT JUMPDEST POP POP POP POP PUSH1 0x40 MLOAD RETURNDATASIZE PUSH1 0x1F NOT PUSH1 0x1F DUP3 ADD AND DUP3 ADD DUP1 PUSH1 0x40 MSTORE POP DUP2 ADD SWAP1 PUSH2 0x2BD SWAP2 SWAP1 PUSH2 0x13D3 JUMP JUMPDEST PUSH20 0xFFFFFFFFFFFFFFFFFFFFFFFFFFFFFFFFFFFFFFFF AND EQ PUSH2 0x317 JUMPI CALLER DUP2 PUSH1 0x40 MLOAD PUSH32 0xD10B1C5900000000000000000000000000000000000000000000000000000000 DUP2 MSTORE PUSH1 0x4 ADD PUSH2 0x30E SWAP3 SWAP2 SWAP1 PUSH2 0x140D JUMP JUMPDEST PUSH1 0x40 MLOAD DUP1 SWAP2 SUB SWAP1 REVERT JUMPDEST PUSH1 0x3 PUSH0 DUP3 DUP2 MSTORE PUSH1 0x20 ADD SWAP1 DUP2 MSTORE PUSH1 0x20 ADD PUSH0 KECCAK256 PUSH0 SWAP1 SLOAD SWAP1 PUSH2 0x100 EXP SWAP1 DIV PUSH1 0xFF AND ISZERO PUSH2 0x377 JUMPI DUP1 PUSH1 0x40 MLOAD PUSH32 0x5A48209B00000000000000000000000000000000000000000000000000000000 DUP2 MSTORE PUSH1 0x4 ADD PUSH2 0x36E SWAP2 SWAP1 PUSH2 0x13A6 JUMP JUMPDEST PUSH1 0x40 MLOAD DUP1 SWAP2 SUB SWAP1 REVERT JUMPDEST PUSH1 0x1 PUSH1 0x3 PUSH0 DUP4 DUP2 MSTORE PUSH1 0x20 ADD SWAP1 DUP2 MSTORE PUSH1 0x20 ADD PUSH0 KECCAK256 PUSH0 PUSH2 0x100 EXP DUP2 SLOAD DUP2 PUSH1 0xFF MUL NOT AND SWAP1 DUP4 ISZERO ISZERO MUL OR SWAP1 SSTORE POP DUP1 PUSH32 0x5243ABCAA321AA3B18556B53AEC82C9C559B3A8595B22B17C992E15098E82AB3 PUSH1 0x40 MLOAD PUSH1 0x40 MLOAD DUP1 SWAP2 SUB SWAP1 LOG2 POP JUMP JUMPDEST PUSH32 0x0 DUP2 JUMP JUMPDEST PUSH1 0x60 PUSH1 0x1 PUSH0 DUP4 DUP2 MSTORE PUSH1 0x20 ADD SWAP1 DUP2 MSTORE PUSH1 0x20 ADD PUSH0 KECCAK256 DUP1 SLOAD DUP1 PUSH1 0x20 MUL PUSH1 0x20 ADD PUSH1 0x40 MLOAD SWAP1 DUP2 ADD PUSH1 0x40 MSTORE DUP1 SWAP3 SWAP2 SWAP1 DUP2 DUP2 MSTORE PUSH1 0x20 ADD PUSH0 SWAP1 JUMPDEST DUP3 DUP3 LT ISZERO PUSH2 0x47E JUMPI DUP4 DUP3 SWAP1 PUSH0 MSTORE PUSH1 0x20 PUSH0 KECCAK256 SWAP1 PUSH1 0x2 MUL ADD PUSH1 0x40 MLOAD DUP1 PUSH1 0x40 ADD PUSH1 0x40 MSTORE SWAP1 DUP2 PUSH0 DUP3 ADD SLOAD DUP2 MSTORE PUSH1 0x20 ADD PUSH1 0x1 DUP3 ADD PUSH0 SWAP1 SLOAD SWAP1 PUSH2 0x100 EXP SWAP1 DIV PUSH2 0xFFFF AND PUSH2 0xFFFF AND PUSH2 0xFFFF AND DUP2 MSTORE POP POP DUP2 MSTORE PUSH1 0x20 ADD SWAP1 PUSH1 0x1 ADD SWAP1 PUSH2 0x426 JUMP JUMPDEST POP POP POP POP SWAP1 POP SWAP2 SWAP1 POP JUMP JUMPDEST PUSH32 0x0 DUP2 JUMP JUMPDEST PUSH0 PUSH1 0x3 PUSH0 DUP4 DUP2 MSTORE PUSH1 0x20 ADD SWAP1 DUP2 MSTORE PUSH1 0x20 ADD PUSH0 KECCAK256 PUSH0 SWAP1 SLOAD SWAP1 PUSH2 0x100 EXP SWAP1 DIV PUSH1 0xFF AND SWAP1 POP SWAP2 SWAP1 POP JUMP JUMPDEST PUSH1 0x60 PUSH0 DUP1 DUP4 DUP2 MSTORE PUSH1 0x20 ADD SWAP1 DUP2 MSTORE PUSH1 0x20 ADD PUSH0 KECCAK256 DUP1 SLOAD DUP1 PUSH1 0x20 MUL PUSH1 0x20 ADD PUSH1 0x40 MLOAD SWAP1 DUP2 ADD PUSH1 0x40 MSTORE DUP1 SWAP3 SWAP2 SWAP1 DUP2 DUP2 MSTORE PUSH1 0x20 ADD PUSH0 SWAP1 JUMPDEST DUP3 DUP3 LT ISZERO PUSH2 0x5A3 JUMPI DUP4 DUP3 SWAP1 PUSH0 MSTORE PUSH1 0x20 PUSH0 KECCAK256 ADD PUSH1 0x40 MLOAD DUP1 PUSH1 0x40 ADD PUSH1 0x40 MSTORE SWAP1 DUP2 PUSH0 DUP3 ADD PUSH0 SWAP1 SLOAD SWAP1 PUSH2 0x100 EXP SWAP1 DIV PUSH20 0xFFFFFFFFFFFFFFFFFFFFFFFFFFFFFFFFFFFFFFFF AND PUSH20 0xFFFFFFFFFFFFFFFFFFFFFFFFFFFFFFFFFFFFFFFF AND PUSH20 0xFFFFFFFFFFFFFFFFFFFFFFFFFFFFFFFFFFFFFFFF AND DUP2 MSTORE PUSH1 0x20 ADD PUSH0 DUP3 ADD PUSH1 0x14 SWAP1 SLOAD SWAP1 PUSH2 0x100 EXP SWAP1 DIV PUSH2 0xFFFF AND PUSH2 0xFFFF AND PUSH2 0xFFFF AND DUP2 MSTORE POP POP DUP2 MSTORE PUSH1 0x20 ADD SWAP1 PUSH1 0x1 ADD SWAP1 PUSH2 0x504 JUMP JUMPDEST POP POP POP POP SWAP1 POP SWAP2 SWAP1 POP JUMP JUMPDEST PUSH0 PUSH1 0x2 PUSH0 DUP4 DUP2 MSTORE PUSH1 0x20 ADD SWAP1 DUP2 MSTORE PUSH1 0x20 ADD PUSH0 KECCAK256 PUSH0 SWAP1 SLOAD SWAP1 PUSH2 0x100 EXP SWAP1 DIV PUSH2 0xFFFF AND SWAP1 POP SWAP2 SWAP1 POP JUMP JUMPDEST CALLER PUSH20 0xFFFFFFFFFFFFFFFFFFFFFFFFFFFFFFFFFFFFFFFF AND PUSH32 0x0 PUSH20 0xFFFFFFFFFFFFFFFFFFFFFFFFFFFFFFFFFFFFFFFF AND PUSH4 0x6352211E DUP6 PUSH1 0x40 MLOAD DUP3 PUSH4 0xFFFFFFFF AND PUSH1 0xE0 SHL DUP2 MSTORE PUSH1 0x4 ADD PUSH2 0x645 SWAP2 SWAP1 PUSH2 0x13A6 JUMP JUMPDEST PUSH1 0x20 PUSH1 0x40 MLOAD DUP1 DUP4 SUB DUP2 DUP7 GAS STATICCALL ISZERO DUP1 ISZERO PUSH2 0x660 JUMPI RETURNDATASIZE PUSH0 DUP1 RETURNDATACOPY RETURNDATASIZE PUSH0 REVERT JUMPDEST POP POP POP POP PUSH1 0x40 MLOAD RETURNDATASIZE PUSH1 0x1F NOT PUSH1 0x1F DUP3 ADD AND DUP3 ADD DUP1 PUSH1 0x40 MSTORE POP DUP2 ADD SWAP1 PUSH2 0x684 SWAP2 SWAP1 PUSH2 0x13D3 JUMP JUMPDEST PUSH20 0xFFFFFFFFFFFFFFFFFFFFFFFFFFFFFFFFFFFFFFFF AND EQ PUSH2 0x6DE JUMPI CALLER DUP4 PUSH1 0x40 MLOAD PUSH32 0xD10B1C5900000000000000000000000000000000000000000000000000000000 DUP2 MSTORE PUSH1 0x4 ADD PUSH2 0x6D5 SWAP3 SWAP2 SWAP1 PUSH2 0x140D JUMP JUMPDEST PUSH1 0x40 MLOAD DUP1 SWAP2 SUB SWAP1 REVERT JUMPDEST PUSH1 0x3 PUSH0 DUP5 DUP2 MSTORE PUSH1 0x20 ADD SWAP1 DUP2 MSTORE PUSH1 0x20 ADD PUSH0 KECCAK256 PUSH0 SWAP1 SLOAD SWAP1 PUSH2 0x100 EXP SWAP1 DIV PUSH1 0xFF AND ISZERO PUSH2 0x73E JUMPI DUP3 PUSH1 0x40 MLOAD PUSH32 0x5A48209B00000000000000000000000000000000000000000000000000000000 DUP2 MSTORE PUSH1 0x4 ADD PUSH2 0x735 SWAP2 SWAP1 PUSH2 0x13A6 JUMP JUMPDEST PUSH1 0x40 MLOAD DUP1 SWAP2 SUB SWAP1 REVERT JUMPDEST PUSH0 DUP2 PUSH2 0xFFFF AND EQ DUP1 PUSH2 0x755 JUMPI POP PUSH2 0x2710 DUP2 PUSH2 0xFFFF AND GT JUMPDEST ISZERO PUSH2 0x797 JUMPI DUP1 PUSH1 0x40 MLOAD PUSH32 0x8EE8942100000000000000000000000000000000000000000000000000000000 DUP2 MSTORE PUSH1 0x4 ADD PUSH2 0x78E SWAP2 SWAP1 PUSH2 0x1259 JUMP JUMPDEST PUSH1 0x40 MLOAD DUP1 SWAP2 SUB SWAP1 REVERT JUMPDEST PUSH32 0x0 PUSH20 0xFFFFFFFFFFFFFFFFFFFFFFFFFFFFFFFFFFFFFFFF AND PUSH4 0x91D14854 PUSH32 0xE2889E7308860B3FE8DF0DAA86FCCFEA4D71E43776719A57BE28CF90B6DB81E9 DUP5 PUSH1 0x40 MLOAD DUP4 PUSH4 0xFFFFFFFF AND PUSH1 0xE0 SHL DUP2 MSTORE PUSH1 0x4 ADD PUSH2 0x812 SWAP3 SWAP2 SWAP1 PUSH2 0x1434 JUMP JUMPDEST PUSH1 0x20 PUSH1 0x40 MLOAD DUP1 DUP4 SUB DUP2 DUP7 GAS STATICCALL ISZERO DUP1 ISZERO PUSH2 0x82D JUMPI RETURNDATASIZE PUSH0 DUP1 RETURNDATACOPY RETURNDATASIZE PUSH0 REVERT JUMPDEST POP POP POP POP PUSH1 0x40 MLOAD RETURNDATASIZE PUSH1 0x1F NOT PUSH1 0x1F DUP3 ADD AND DUP3 ADD DUP1 PUSH1 0x40 MSTORE POP DUP2 ADD SWAP1 PUSH2 0x851 SWAP2 SWAP1 PUSH2 0x1485 JUMP JUMPDEST PUSH2 0x892 JUMPI DUP2 PUSH1 0x40 MLOAD PUSH32 0x4872CB9B00000000000000000000000000000000000000000000000000000000 DUP2 MSTORE PUSH1 0x4 ADD PUSH2 0x889 SWAP2 SWAP1 PUSH2 0x14B0 JUMP JUMPDEST PUSH1 0x40 MLOAD DUP1 SWAP2 SUB SWAP1 REVERT JUMPDEST PUSH0 DUP2 PUSH1 0x2 PUSH0 DUP7 DUP2 MSTORE PUSH1 0x20 ADD SWAP1 DUP2 MSTORE PUSH1 0x20 ADD PUSH0 KECCAK256 PUSH0 SWAP1 SLOAD SWAP1 PUSH2 0x100 EXP SWAP1 DIV PUSH2 0xFFFF AND PUSH2 0x8BD SWAP2 SWAP1 PUSH2 0x14F6 JUMP JUMPDEST SWAP1 POP PUSH2 0x2710 DUP2 PUSH2 0xFFFF AND GT ISZERO PUSH2 0x92C JUMPI DUP4 PUSH1 0x2 PUSH0 DUP7 DUP2 MSTORE PUSH1 0x20 ADD SWAP1 DUP2 MSTORE PUSH1 0x20 ADD PUSH0 KECCAK256 PUSH0 SWAP1 SLOAD SWAP1 PUSH2 0x100 EXP SWAP1 DIV PUSH2 0xFFFF AND DUP4 PUSH1 0x40 MLOAD PUSH32 0x2F8BE8D900000000000000000000000000000000000000000000000000000000 DUP2 MSTORE PUSH1 0x4 ADD PUSH2 0x923 SWAP4 SWAP3 SWAP2 SWAP1 PUSH2 0x152B JUMP JUMPDEST PUSH1 0x40 MLOAD DUP1 SWAP2 SUB SWAP1 REVERT JUMPDEST DUP1 PUSH1 0x2 PUSH0 DUP7 DUP2 MSTORE PUSH1 0x20 ADD SWAP1 DUP2 MSTORE PUSH1 0x20 ADD PUSH0 KECCAK256 PUSH0 PUSH2 0x100 EXP DUP2 SLOAD DUP2 PUSH2 0xFFFF MUL NOT AND SWAP1 DUP4 PUSH2 0xFFFF AND MUL OR SWAP1 SSTORE POP PUSH0 DUP1 DUP6 DUP2 MSTORE PUSH1 0x20 ADD SWAP1 DUP2 MSTORE PUSH1 0x20 ADD PUSH0 KECCAK256 PUSH1 0x40 MLOAD DUP1 PUSH1 0x40 ADD PUSH1 0x40 MSTORE DUP1 DUP6 PUSH20 0xFFFFFFFFFFFFFFFFFFFFFFFFFFFFFFFFFFFFFFFF AND DUP2 MSTORE PUSH1 0x20 ADD DUP5 PUSH2 0xFFFF AND DUP2 MSTORE POP SWAP1 DUP1 PUSH1 0x1 DUP2 SLOAD ADD DUP1 DUP3 SSTORE DUP1 SWAP2 POP POP PUSH1 0x1 SWAP1 SUB SWAP1 PUSH0 MSTORE PUSH1 0x20 PUSH0 KECCAK256 ADD PUSH0 SWAP1 SWAP2 SWAP1 SWAP2 SWAP1 SWAP2 POP PUSH0 DUP3 ADD MLOAD DUP2 PUSH0 ADD PUSH0 PUSH2 0x100 EXP DUP2 SLOAD DUP2 PUSH20 0xFFFFFFFFFFFFFFFFFFFFFFFFFFFFFFFFFFFFFFFF MUL NOT AND SWAP1 DUP4 PUSH20 0xFFFFFFFFFFFFFFFFFFFFFFFFFFFFFFFFFFFFFFFF AND MUL OR SWAP1 SSTORE POP PUSH1 0x20 DUP3 ADD MLOAD DUP2 PUSH0 ADD PUSH1 0x14 PUSH2 0x100 EXP DUP2 SLOAD DUP2 PUSH2 0xFFFF MUL NOT AND SWAP1 DUP4 PUSH2 0xFFFF AND MUL OR SWAP1 SSTORE POP POP POP DUP3 PUSH20 0xFFFFFFFFFFFFFFFFFFFFFFFFFFFFFFFFFFFFFFFF AND DUP5 PUSH32 0x850FC0DC2FB73F8321E121ABEFD50BB59E0D270D6F7E450F9179E1AD3856DAEC DUP5 PUSH1 0x40 MLOAD PUSH2 0xA67 SWAP2 SWAP1 PUSH2 0x1259 JUMP JUMPDEST PUSH1 0x40 MLOAD DUP1 SWAP2 SUB SWAP1 LOG3 POP POP POP POP JUMP JUMPDEST CALLER PUSH20 0xFFFFFFFFFFFFFFFFFFFFFFFFFFFFFFFFFFFFFFFF AND PUSH32 0x0 PUSH20 0xFFFFFFFFFFFFFFFFFFFFFFFFFFFFFFFFFFFFFFFF AND PUSH4 0x6352211E DUP6 PUSH1 0x40 MLOAD DUP3 PUSH4 0xFFFFFFFF AND PUSH1 0xE0 SHL DUP2 MSTORE PUSH1 0x4 ADD PUSH2 0xAE5 SWAP2 SWAP1 PUSH2 0x13A6 JUMP JUMPDEST PUSH1 0x20 PUSH1 0x40 MLOAD DUP1 DUP4 SUB DUP2 DUP7 GAS STATICCALL ISZERO DUP1 ISZERO PUSH2 0xB00 JUMPI RETURNDATASIZE PUSH0 DUP1 RETURNDATACOPY RETURNDATASIZE PUSH0 REVERT JUMPDEST POP POP POP POP PUSH1 0x40 MLOAD RETURNDATASIZE PUSH1 0x1F NOT PUSH1 0x1F DUP3 ADD AND DUP3 ADD DUP1 PUSH1 0x40 MSTORE POP DUP2 ADD SWAP1 PUSH2 0xB24 SWAP2 SWAP1 PUSH2 0x13D3 JUMP JUMPDEST PUSH20 0xFFFFFFFFFFFFFFFFFFFFFFFFFFFFFFFFFFFFFFFF AND EQ PUSH2 0xB7E JUMPI CALLER DUP4 PUSH1 0x40 MLOAD PUSH32 0xD10B1C5900000000000000000000000000000000000000000000000000000000 DUP2 MSTORE PUSH1 0x4 ADD PUSH2 0xB75 SWAP3 SWAP2 SWAP1 PUSH2 0x140D JUMP JUMPDEST PUSH1 0x40 MLOAD DUP1 SWAP2 SUB SWAP1 REVERT JUMPDEST PUSH1 0x3 PUSH0 DUP5 DUP2 MSTORE PUSH1 0x20 ADD SWAP1 DUP2 MSTORE PUSH1 0x20 ADD PUSH0 KECCAK256 PUSH0 SWAP1 SLOAD SWAP1 PUSH2 0x100 EXP SWAP1 DIV PUSH1 0xFF AND ISZERO PUSH2 0xBDE JUMPI DUP3 PUSH1 0x40 MLOAD PUSH32 0x5A48209B00000000000000000000000000000000000000000000000000000000 DUP2 MSTORE PUSH1 0x4 ADD PUSH2 0xBD5 SWAP2 SWAP1 PUSH2 0x13A6 JUMP JUMPDEST PUSH1 0x40 MLOAD DUP1 SWAP2 SUB SWAP1 REVERT JUMPDEST PUSH0 DUP2 PUSH2 0xFFFF AND EQ DUP1 PUSH2 0xBF5 JUMPI POP PUSH2 0x2710 DUP2 PUSH2 0xFFFF AND GT JUMPDEST ISZERO PUSH2 0xC37 JUMPI DUP1 PUSH1 0x40 MLOAD PUSH32 0x8EE8942100000000000000000000000000000000000000000000000000000000 DUP2 MSTORE PUSH1 0x4 ADD PUSH2 0xC2E SWAP2 SWAP1 PUSH2 0x1259 JUMP JUMPDEST PUSH1 0x40 MLOAD DUP1 SWAP2 SUB SWAP1 REVERT JUMPDEST PUSH32 0x0 PUSH20 0xFFFFFFFFFFFFFFFFFFFFFFFFFFFFFFFFFFFFFFFF AND PUSH4 0x4F558E79 DUP4 PUSH1 0x40 MLOAD DUP3 PUSH4 0xFFFFFFFF AND PUSH1 0xE0 SHL DUP2 MSTORE PUSH1 0x4 ADD PUSH2 0xC90 SWAP2 SWAP1 PUSH2 0x13A6 JUMP JUMPDEST PUSH1 0x20 PUSH1 0x40 MLOAD DUP1 DUP4 SUB DUP2 DUP7 GAS STATICCALL ISZERO DUP1 ISZERO PUSH2 0xCAB JUMPI RETURNDATASIZE PUSH0 DUP1 RETURNDATACOPY RETURNDATASIZE PUSH0 REVERT JUMPDEST POP POP POP POP PUSH1 0x40 MLOAD RETURNDATASIZE PUSH1 0x1F NOT PUSH1 0x1F DUP3 ADD AND DUP3 ADD DUP1 PUSH1 0x40 MSTORE POP DUP2 ADD SWAP1 PUSH2 0xCCF SWAP2 SWAP1 PUSH2 0x1485 JUMP JUMPDEST PUSH2 0xD10 JUMPI DUP2 PUSH1 0x40 MLOAD PUSH32 0x6F9BAB5500000000000000000000000000000000000000000000000000000000 DUP2 MSTORE PUSH1 0x4 ADD PUSH2 0xD07 SWAP2 SWAP1 PUSH2 0x13A6 JUMP JUMPDEST PUSH1 0x40 MLOAD DUP1 SWAP2 SUB SWAP1 REVERT JUMPDEST PUSH0 DUP2 PUSH1 0x2 PUSH0 DUP7 DUP2 MSTORE PUSH1 0x20 ADD SWAP1 DUP2 MSTORE PUSH1 0x20 ADD PUSH0 KECCAK256 PUSH0 SWAP1 SLOAD SWAP1 PUSH2 0x100 EXP SWAP1 DIV PUSH2 0xFFFF AND PUSH2 0xD3B SWAP2 SWAP1 PUSH2 0x14F6 JUMP JUMPDEST SWAP1 POP PUSH2 0x2710 DUP2 PUSH2 0xFFFF AND GT ISZERO PUSH2 0xDAA JUMPI DUP4 PUSH1 0x2 PUSH0 DUP7 DUP2 MSTORE PUSH1 0x20 ADD SWAP1 DUP2 MSTORE PUSH1 0x20 ADD PUSH0 KECCAK256 PUSH0 SWAP1 SLOAD SWAP1 PUSH2 0x100 EXP SWAP1 DIV PUSH2 0xFFFF AND DUP4 PUSH1 0x40 MLOAD PUSH32 0x2F8BE8D900000000000000000000000000000000000000000000000000000000 DUP2 MSTORE PUSH1 0x4 ADD PUSH2 0xDA1 SWAP4 SWAP3 SWAP2 SWAP1 PUSH2 0x152B JUMP JUMPDEST PUSH1 0x40 MLOAD DUP1 SWAP2 SUB SWAP1 REVERT JUMPDEST DUP1 PUSH1 0x2 PUSH0 DUP7 DUP2 MSTORE PUSH1 0x20 ADD SWAP1 DUP2 MSTORE PUSH1 0x20 ADD PUSH0 KECCAK256 PUSH0 PUSH2 0x100 EXP DUP2 SLOAD DUP2 PUSH2 0xFFFF MUL NOT AND SWAP1 DUP4 PUSH2 0xFFFF AND MUL OR SWAP1 SSTORE POP PUSH1 0x1 PUSH0 DUP6 DUP2 MSTORE PUSH1 0x20 ADD SWAP1 DUP2 MSTORE PUSH1 0x20 ADD PUSH0 KECCAK256 PUSH1 0x40 MLOAD DUP1 PUSH1 0x40 ADD PUSH1 0x40 MSTORE DUP1 DUP6 DUP2 MSTORE PUSH1 0x20 ADD DUP5 PUSH2 0xFFFF AND DUP2 MSTORE POP SWAP1 DUP1 PUSH1 0x1 DUP2 SLOAD ADD DUP1 DUP3 SSTORE DUP1 SWAP2 POP POP PUSH1 0x1 SWAP1 SUB SWAP1 PUSH0 MSTORE PUSH1 0x20 PUSH0 KECCAK256 SWAP1 PUSH1 0x2 MUL ADD PUSH0 SWAP1 SWAP2 SWAP1 SWAP2 SWAP1 SWAP2 POP PUSH0 DUP3 ADD MLOAD DUP2 PUSH0 ADD SSTORE PUSH1 0x20 DUP3 ADD MLOAD DUP2 PUSH1 0x1 ADD PUSH0 PUSH2 0x100 EXP DUP2 SLOAD DUP2 PUSH2 0xFFFF MUL NOT AND SWAP1 DUP4 PUSH2 0xFFFF AND MUL OR SWAP1 SSTORE POP POP POP DUP3 DUP5 PUSH32 0xFEC898C5D3912B351B65F61D0FF9A86555F8531846F3A878BFCD355F04429028 DUP5 PUSH1 0x40 MLOAD PUSH2 0xE82 SWAP2 SWAP1 PUSH2 0x1259 JUMP JUMPDEST PUSH1 0x40 MLOAD DUP1 SWAP2 SUB SWAP1 LOG3 POP POP POP POP JUMP JUMPDEST PUSH32 0xE2889E7308860B3FE8DF0DAA86FCCFEA4D71E43776719A57BE28CF90B6DB81E9 DUP2 JUMP JUMPDEST PUSH0 DUP1 REVERT JUMPDEST PUSH0 DUP2 SWAP1 POP SWAP2 SWAP1 POP JUMP JUMPDEST PUSH2 0xECA DUP2 PUSH2 0xEB8 JUMP JUMPDEST DUP2 EQ PUSH2 0xED4 JUMPI PUSH0 DUP1 REVERT JUMPDEST POP JUMP JUMPDEST PUSH0 DUP2 CALLDATALOAD SWAP1 POP PUSH2 0xEE5 DUP2 PUSH2 0xEC1 JUMP JUMPDEST SWAP3 SWAP2 POP POP JUMP JUMPDEST PUSH0 PUSH1 0x20 DUP3 DUP5 SUB SLT ISZERO PUSH2 0xF00 JUMPI PUSH2 0xEFF PUSH2 0xEB4 JUMP JUMPDEST JUMPDEST PUSH0 PUSH2 0xF0D DUP5 DUP3 DUP6 ADD PUSH2 0xED7 JUMP JUMPDEST SWAP2 POP POP SWAP3 SWAP2 POP POP JUMP JUMPDEST PUSH0 PUSH20 0xFFFFFFFFFFFFFFFFFFFFFFFFFFFFFFFFFFFFFFFF DUP3 AND SWAP1 POP SWAP2 SWAP1 POP JUMP JUMPDEST PUSH0 DUP2 SWAP1 POP SWAP2 SWAP1 POP JUMP JUMPDEST PUSH0 PUSH2 0xF58 PUSH2 0xF53 PUSH2 0xF4E DUP5 PUSH2 0xF16 JUMP JUMPDEST PUSH2 0xF35 JUMP JUMPDEST PUSH2 0xF16 JUMP JUMPDEST SWAP1 POP SWAP2 SWAP1 POP JUMP JUMPDEST PUSH0 PUSH2 0xF69 DUP3 PUSH2 0xF3E JUMP JUMPDEST SWAP1 POP SWAP2 SWAP1 POP JUMP JUMPDEST PUSH0 PUSH2 0xF7A DUP3 PUSH2 0xF5F JUMP JUMPDEST SWAP1 POP SWAP2 SWAP1 POP JUMP JUMPDEST PUSH2 0xF8A DUP2 PUSH2 0xF70 JUMP JUMPDEST DUP3 MSTORE POP POP JUMP JUMPDEST PUSH0 PUSH1 0x20 DUP3 ADD SWAP1 POP PUSH2 0xFA3 PUSH0 DUP4 ADD DUP5 PUSH2 0xF81 JUMP JUMPDEST SWAP3 SWAP2 POP POP JUMP JUMPDEST PUSH0 DUP2 MLOAD SWAP1 POP SWAP2 SWAP1 POP JUMP JUMPDEST PUSH0 DUP3 DUP3 MSTORE PUSH1 0x20 DUP3 ADD SWAP1 POP SWAP3 SWAP2 POP POP JUMP JUMPDEST PUSH0 DUP2 SWAP1 POP PUSH1 0x20 DUP3 ADD SWAP1 POP SWAP2 SWAP1 POP JUMP JUMPDEST PUSH2 0xFDB DUP2 PUSH2 0xEB8 JUMP JUMPDEST DUP3 MSTORE POP POP JUMP JUMPDEST PUSH0 PUSH2 0xFFFF DUP3 AND SWAP1 POP SWAP2 SWAP1 POP JUMP JUMPDEST PUSH2 0xFF7 DUP2 PUSH2 0xFE1 JUMP JUMPDEST DUP3 MSTORE POP POP JUMP JUMPDEST PUSH1 0x40 DUP3 ADD PUSH0 DUP3 ADD MLOAD PUSH2 0x1011 PUSH0 DUP6 ADD DUP3 PUSH2 0xFD2 JUMP JUMPDEST POP PUSH1 0x20 DUP3 ADD MLOAD PUSH2 0x1024 PUSH1 0x20 DUP6 ADD DUP3 PUSH2 0xFEE JUMP JUMPDEST POP POP POP POP JUMP JUMPDEST PUSH0 PUSH2 0x1035 DUP4 DUP4 PUSH2 0xFFD JUMP JUMPDEST PUSH1 0x40 DUP4 ADD SWAP1 POP SWAP3 SWAP2 POP POP JUMP JUMPDEST PUSH0 PUSH1 0x20 DUP3 ADD SWAP1 POP SWAP2 SWAP1 POP JUMP JUMPDEST PUSH0 PUSH2 0x1057 DUP3 PUSH2 0xFA9 JUMP JUMPDEST PUSH2 0x1061 DUP2 DUP6 PUSH2 0xFB3 JUMP JUMPDEST SWAP4 POP PUSH2 0x106C DUP4 PUSH2 0xFC3 JUMP JUMPDEST DUP1 PUSH0 JUMPDEST DUP4 DUP2 LT ISZERO PUSH2 0x109C JUMPI DUP2 MLOAD PUSH2 0x1083 DUP9 DUP3 PUSH2 0x102A JUMP JUMPDEST SWAP8 POP PUSH2 0x108E DUP4 PUSH2 0x1041 JUMP JUMPDEST SWAP3 POP POP PUSH1 0x1 DUP2 ADD SWAP1 POP PUSH2 0x106F JUMP JUMPDEST POP DUP6 SWAP4 POP POP POP POP SWAP3 SWAP2 POP POP JUMP JUMPDEST PUSH0 PUSH1 0x20 DUP3 ADD SWAP1 POP DUP2 DUP2 SUB PUSH0 DUP4 ADD MSTORE PUSH2 0x10C1 DUP2 DUP5 PUSH2 0x104D JUMP JUMPDEST SWAP1 POP SWAP3 SWAP2 POP POP JUMP JUMPDEST PUSH0 PUSH2 0x10D3 DUP3 PUSH2 0xF5F JUMP JUMPDEST SWAP1 POP SWAP2 SWAP1 POP JUMP JUMPDEST PUSH2 0x10E3 DUP2 PUSH2 0x10C9 JUMP JUMPDEST DUP3 MSTORE POP POP JUMP JUMPDEST PUSH0 PUSH1 0x20 DUP3 ADD SWAP1 POP PUSH2 0x10FC PUSH0 DUP4 ADD DUP5 PUSH2 0x10DA JUMP JUMPDEST SWAP3 SWAP2 POP POP JUMP JUMPDEST PUSH0 DUP2 ISZERO ISZERO SWAP1 POP SWAP2 SWAP1 POP JUMP JUMPDEST PUSH2 0x1116 DUP2 PUSH2 0x1102 JUMP JUMPDEST DUP3 MSTORE POP POP JUMP JUMPDEST PUSH0 PUSH1 0x20 DUP3 ADD SWAP1 POP PUSH2 0x112F PUSH0 DUP4 ADD DUP5 PUSH2 0x110D JUMP JUMPDEST SWAP3 SWAP2 POP POP JUMP JUMPDEST PUSH0 DUP2 MLOAD SWAP1 POP SWAP2 SWAP1 POP JUMP JUMPDEST PUSH0 DUP3 DUP3 MSTORE PUSH1 0x20 DUP3 ADD SWAP1 POP SWAP3 SWAP2 POP POP JUMP JUMPDEST PUSH0 DUP2 SWAP1 POP PUSH1 0x20 DUP3 ADD SWAP1 POP SWAP2 SWAP1 POP JUMP JUMPDEST PUSH0 PUSH2 0x1168 DUP3 PUSH2 0xF16 JUMP JUMPDEST SWAP1 POP SWAP2 SWAP1 POP JUMP JUMPDEST PUSH2 0x1178 DUP2 PUSH2 0x115E JUMP JUMPDEST DUP3 MSTORE POP POP JUMP JUMPDEST PUSH1 0x40 DUP3 ADD PUSH0 DUP3 ADD MLOAD PUSH2 0x1192 PUSH0 DUP6 ADD DUP3 PUSH2 0x116F JUMP JUMPDEST POP PUSH1 0x20 DUP3 ADD MLOAD PUSH2 0x11A5 PUSH1 0x20 DUP6 ADD DUP3 PUSH2 0xFEE JUMP JUMPDEST POP POP POP POP JUMP JUMPDEST PUSH0 PUSH2 0x11B6 DUP4 DUP4 PUSH2 0x117E JUMP JUMPDEST PUSH1 0x40 DUP4 ADD SWAP1 POP SWAP3 SWAP2 POP POP JUMP JUMPDEST PUSH0 PUSH1 0x20 DUP3 ADD SWAP1 POP SWAP2 SWAP1 POP JUMP JUMPDEST PUSH0 PUSH2 0x11D8 DUP3 PUSH2 0x1135 JUMP JUMPDEST PUSH2 0x11E2 DUP2 DUP6 PUSH2 0x113F JUMP JUMPDEST SWAP4 POP PUSH2 0x11ED DUP4 PUSH2 0x114F JUMP JUMPDEST DUP1 PUSH0 JUMPDEST DUP4 DUP2 LT ISZERO PUSH2 0x121D JUMPI DUP2 MLOAD PUSH2 0x1204 DUP9 DUP3 PUSH2 0x11AB JUMP JUMPDEST SWAP8 POP PUSH2 0x120F DUP4 PUSH2 0x11C2 JUMP JUMPDEST SWAP3 POP POP PUSH1 0x1 DUP2 ADD SWAP1 POP PUSH2 0x11F0 JUMP JUMPDEST POP DUP6 SWAP4 POP POP POP POP SWAP3 SWAP2 POP POP JUMP JUMPDEST PUSH0 PUSH1 0x20 DUP3 ADD SWAP1 POP DUP2 DUP2 SUB PUSH0 DUP4 ADD MSTORE PUSH2 0x1242 DUP2 DUP5 PUSH2 0x11CE JUMP JUMPDEST SWAP1 POP SWAP3 SWAP2 POP POP JUMP JUMPDEST PUSH2 0x1253 DUP2 PUSH2 0xFE1 JUMP JUMPDEST DUP3 MSTORE POP POP JUMP JUMPDEST PUSH0 PUSH1 0x20 DUP3 ADD SWAP1 POP PUSH2 0x126C PUSH0 DUP4 ADD DUP5 PUSH2 0x124A JUMP JUMPDEST SWAP3 SWAP2 POP POP JUMP JUMPDEST PUSH2 0x127B DUP2 PUSH2 0x115E JUMP JUMPDEST DUP2 EQ PUSH2 0x1285 JUMPI PUSH0 DUP1 REVERT JUMPDEST POP JUMP JUMPDEST PUSH0 DUP2 CALLDATALOAD SWAP1 POP PUSH2 0x1296 DUP2 PUSH2 0x1272 JUMP JUMPDEST SWAP3 SWAP2 POP POP JUMP JUMPDEST PUSH2 0x12A5 DUP2 PUSH2 0xFE1 JUMP JUMPDEST DUP2 EQ PUSH2 0x12AF JUMPI PUSH0 DUP1 REVERT JUMPDEST POP JUMP JUMPDEST PUSH0 DUP2 CALLDATALOAD SWAP1 POP PUSH2 0x12C0 DUP2 PUSH2 0x129C JUMP JUMPDEST SWAP3 SWAP2 POP POP JUMP JUMPDEST PUSH0 DUP1 PUSH0 PUSH1 0x60 DUP5 DUP7 SUB SLT ISZERO PUSH2 0x12DD JUMPI PUSH2 0x12DC PUSH2 0xEB4 JUMP JUMPDEST JUMPDEST PUSH0 PUSH2 0x12EA DUP7 DUP3 DUP8 ADD PUSH2 0xED7 JUMP JUMPDEST SWAP4 POP POP PUSH1 0x20 PUSH2 0x12FB DUP7 DUP3 DUP8 ADD PUSH2 0x1288 JUMP JUMPDEST SWAP3 POP POP PUSH1 0x40 PUSH2 0x130C DUP7 DUP3 DUP8 ADD PUSH2 0x12B2 JUMP JUMPDEST SWAP2 POP POP SWAP3 POP SWAP3 POP SWAP3 JUMP JUMPDEST PUSH0 DUP1 PUSH0 PUSH1 0x60 DUP5 DUP7 SUB SLT ISZERO PUSH2 0x132D JUMPI PUSH2 0x132C PUSH2 0xEB4 JUMP JUMPDEST JUMPDEST PUSH0 PUSH2 0x133A DUP7 DUP3 DUP8 ADD PUSH2 0xED7 JUMP JUMPDEST SWAP4 POP POP PUSH1 0x20 PUSH2 0x134B DUP7 DUP3 DUP8 ADD PUSH2 0xED7 JUMP JUMPDEST SWAP3 POP POP PUSH1 0x40 PUSH2 0x135C DUP7 DUP3 DUP8 ADD PUSH2 0x12B2 JUMP JUMPDEST SWAP2 POP POP SWAP3 POP SWAP3 POP SWAP3 JUMP JUMPDEST PUSH0 DUP2 SWAP1 POP SWAP2 SWAP1 POP JUMP JUMPDEST PUSH2 0x1378 DUP2 PUSH2 0x1366 JUMP JUMPDEST DUP3 MSTORE POP POP JUMP JUMPDEST PUSH0 PUSH1 0x20 DUP3 ADD SWAP1 POP PUSH2 0x1391 PUSH0 DUP4 ADD DUP5 PUSH2 0x136F JUMP JUMPDEST SWAP3 SWAP2 POP POP JUMP JUMPDEST PUSH2 0x13A0 DUP2 PUSH2 0xEB8 JUMP JUMPDEST DUP3 MSTORE POP POP JUMP JUMPDEST PUSH0 PUSH1 0x20 DUP3 ADD SWAP1 POP PUSH2 0x13B9 PUSH0 DUP4 ADD DUP5 PUSH2 0x1397 JUMP JUMPDEST SWAP3 SWAP2 POP POP JUMP JUMPDEST PUSH0 DUP2 MLOAD SWAP1 POP PUSH2 0x13CD DUP2 PUSH2 0x1272 JUMP JUMPDEST SWAP3 SWAP2 POP POP JUMP JUMPDEST PUSH0 PUSH1 0x20 DUP3 DUP5 SUB SLT ISZERO PUSH2 0x13E8 JUMPI PUSH2 0x13E7 PUSH2 0xEB4 JUMP JUMPDEST JUMPDEST PUSH0 PUSH2 0x13F5 DUP5 DUP3 DUP6 ADD PUSH2 0x13BF JUMP JUMPDEST SWAP2 POP POP SWAP3 SWAP2 POP POP JUMP JUMPDEST PUSH2 0x1407 DUP2 PUSH2 0x115E JUMP JUMPDEST DUP3 MSTORE POP POP JUMP JUMPDEST PUSH0 PUSH1 0x40 DUP3 ADD SWAP1 POP PUSH2 0x1420 PUSH0 DUP4 ADD DUP6 PUSH2 0x13FE JUMP JUMPDEST PUSH2 0x142D PUSH1 0x20 DUP4 ADD DUP5 PUSH2 0x1397 JUMP JUMPDEST SWAP4 SWAP3 POP POP POP JUMP JUMPDEST PUSH0 PUSH1 0x40 DUP3 ADD SWAP1 POP PUSH2 0x1447 PUSH0 DUP4 ADD DUP6 PUSH2 0x136F JUMP JUMPDEST PUSH2 0x1454 PUSH1 0x20 DUP4 ADD DUP5 PUSH2 0x13FE JUMP JUMPDEST SWAP4 SWAP3 POP POP POP JUMP JUMPDEST PUSH2 0x1464 DUP2 PUSH2 0x1102 JUMP JUMPDEST DUP2 EQ PUSH2 0x146E JUMPI PUSH0 DUP1 REVERT JUMPDEST POP JUMP JUMPDEST PUSH0 DUP2 MLOAD SWAP1 POP PUSH2 0x147F DUP2 PUSH2 0x145B JUMP JUMPDEST SWAP3 SWAP2 POP POP JUMP JUMPDEST PUSH0 PUSH1 0x20 DUP3 DUP5 SUB SLT ISZERO PUSH2 0x149A JUMPI PUSH2 0x1499 PUSH2 0xEB4 JUMP JUMPDEST JUMPDEST PUSH0 PUSH2 0x14A7 DUP5 DUP3 DUP6 ADD PUSH2 0x1471 JUMP JUMPDEST SWAP2 POP POP SWAP3 SWAP2 POP POP JUMP JUMPDEST PUSH0 PUSH1 0x20 DUP3 ADD SWAP1 POP PUSH2 0x14C3 PUSH0 DUP4 ADD DUP5 PUSH2 0x13FE JUMP JUMPDEST SWAP3 SWAP2 POP POP JUMP JUMPDEST PUSH32 0x4E487B7100000000000000000000000000000000000000000000000000000000 PUSH0 MSTORE PUSH1 0x11 PUSH1 0x4 MSTORE PUSH1 0x24 PUSH0 REVERT JUMPDEST PUSH0 PUSH2 0x1500 DUP3 PUSH2 0xFE1 JUMP JUMPDEST SWAP2 POP PUSH2 0x150B DUP4 PUSH2 0xFE1 JUMP JUMPDEST SWAP3 POP DUP3 DUP3 ADD SWAP1 POP PUSH2 0xFFFF DUP2 GT ISZERO PUSH2 0x1525 JUMPI PUSH2 0x1524 PUSH2 0x14C9 JUMP JUMPDEST JUMPDEST SWAP3 SWAP2 POP POP JUMP JUMPDEST PUSH0 PUSH1 0x60 DUP3 ADD SWAP1 POP PUSH2 0x153E PUSH0 DUP4 ADD DUP7 PUSH2 0x1397 JUMP JUMPDEST PUSH2 0x154B PUSH1 0x20 DUP4 ADD DUP6 PUSH2 0x124A JUMP JUMPDEST PUSH2 0x1558 PUSH1 0x40 DUP4 ADD DUP5 PUSH2 0x124A JUMP JUMPDEST SWAP5 SWAP4 POP POP POP POP JUMP INVALID LOG2 PUSH5 0x6970667358 0x22 SLT KECCAK256 0xE2 EXTCODEHASH DUP10 EXTCODECOPY 0x23 SWAP16 DELEGATECALL 0xB5 AND PUSH29 0x846930FC1B5CE97E2961BF9CDA9C8C05430865ED077864736F6C634300 ADDMOD EQ STOP CALLER "
		},
		"gasEstimates": {
			"creation": {
				"codeDepositCost": "1105200",
				"executionCost": "infinite",
				"totalCost": "infinite"
			},
			"external": {
				"CONTRIBUTOR_ROLE()": "413",
				"addContributorEdge(uint256,address,uint16)": "infinite",
				"addParentEdge(uint256,uint256,uint16)": "infinite",
				"assetToken()": "infinite",
				"contributorRegistry()": "infinite",
				"finalize(uint256)": "infinite",
				"getContributorEdges(uint256)": "infinite",
				"getParentEdges(uint256)": "infinite",
				"getTotalBpsAllocated(uint256)": "2832",
				"isFinalized(uint256)": "2899"
			}
		},
		"methodIdentifiers": {
			"CONTRIBUTOR_ROLE()": "eafb79e2",
			"addContributorEdge(uint256,address,uint16)": "cf1a5935",
			"addParentEdge(uint256,uint256,uint16)": "dc28c34f",
			"assetToken()": "1083f761",
			"contributorRegistry()": "318536bd",
			"finalize(uint256)": "05261aea",
			"getContributorEdges(uint256)": "5ee7c0f8",
			"getParentEdges(uint256)": "1e315d9d",
			"getTotalBpsAllocated(uint256)": "662f8502",
			"isFinalized(uint256)": "33727c4d"
		}
	},
	"abi": [
		{
			"inputs": [
				{
					"internalType": "address",
					"name": "_assetTokenAddress",
					"type": "address"
				},
				{
					"internalType": "address",
					"name": "_contributorRegistryAddress",
					"type": "address"
				}
			],
			"stateMutability": "nonpayable",
			"type": "constructor"
		},
		{
			"inputs": [
				{
					"internalType": "uint256",
					"name": "assetId",
					"type": "uint256"
				}
			],
			"name": "AssetDoesNotExist",
			"type": "error"
		},
		{
			"inputs": [
				{
					"internalType": "uint256",
					"name": "assetId",
					"type": "uint256"
				}
			],
			"name": "GraphIsFinalized",
			"type": "error"
		},
		{
			"inputs": [
				{
					"internalType": "uint16",
					"name": "weightBps",
					"type": "uint16"
				}
			],
			"name": "InvalidWeight",
			"type": "error"
		},
		{
			"inputs": [
				{
					"internalType": "address",
					"name": "potentialContributor",
					"type": "address"
				}
			],
			"name": "NotAContributor",
			"type": "error"
		},
		{
			"inputs": [
				{
					"internalType": "address",
					"name": "caller",
					"type": "address"
				},
				{
					"internalType": "uint256",
					"name": "assetId",
					"type": "uint256"
				}
			],
			"name": "NotAssetOwner",
			"type": "error"
		},
		{
			"inputs": [
				{
					"internalType": "uint256",
					"name": "assetId",
					"type": "uint256"
				},
				{
					"internalType": "uint16",
					"name": "currentWeight",
					"type": "uint16"
				},
				{
					"internalType": "uint16",
					"name": "newWeight",
					"type": "uint16"
				}
			],
			"name": "TotalWeightExceeded",
			"type": "error"
		},
		{
			"anonymous": false,
			"inputs": [
				{
					"indexed": true,
					"internalType": "uint256",
					"name": "assetId",
					"type": "uint256"
				},
				{
					"indexed": true,
					"internalType": "address",
					"name": "contributor",
					"type": "address"
				},
				{
					"indexed": false,
					"internalType": "uint16",
					"name": "weightBps",
					"type": "uint16"
				}
			],
			"name": "ContributorEdgeAdded",
			"type": "event"
		},
		{
			"anonymous": false,
			"inputs": [
				{
					"indexed": true,
					"internalType": "uint256",
					"name": "assetId",
					"type": "uint256"
				}
			],
			"name": "GraphFinalized",
			"type": "event"
		},
		{
			"anonymous": false,
			"inputs": [
				{
					"indexed": true,
					"internalType": "uint256",
					"name": "childAssetId",
					"type": "uint256"
				},
				{
					"indexed": true,
					"internalType": "uint256",
					"name": "parentAssetId",
					"type": "uint256"
				},
				{
					"indexed": false,
					"internalType": "uint16",
					"name": "weightBps",
					"type": "uint16"
				}
			],
			"name": "ParentEdgeAdded",
			"type": "event"
		},
		{
			"inputs": [],
			"name": "CONTRIBUTOR_ROLE",
			"outputs": [
				{
					"internalType": "bytes32",
					"name": "",
					"type": "bytes32"
				}
			],
			"stateMutability": "view",
			"type": "function"
		},
		{
			"inputs": [
				{
					"internalType": "uint256",
					"name": "_assetId",
					"type": "uint256"
				},
				{
					"internalType": "address",
					"name": "_contributor",
					"type": "address"
				},
				{
					"internalType": "uint16",
					"name": "_weightBps",
					"type": "uint16"
				}
			],
			"name": "addContributorEdge",
			"outputs": [],
			"stateMutability": "nonpayable",
			"type": "function"
		},
		{
			"inputs": [
				{
					"internalType": "uint256",
					"name": "_childAssetId",
					"type": "uint256"
				},
				{
					"internalType": "uint256",
					"name": "_parentAssetId",
					"type": "uint256"
				},
				{
					"internalType": "uint16",
					"name": "_weightBps",
					"type": "uint16"
				}
			],
			"name": "addParentEdge",
			"outputs": [],
			"stateMutability": "nonpayable",
			"type": "function"
		},
		{
			"inputs": [],
			"name": "assetToken",
			"outputs": [
				{
					"internalType": "contract IAssetToken",
					"name": "",
					"type": "address"
				}
			],
			"stateMutability": "view",
			"type": "function"
		},
		{
			"inputs": [],
			"name": "contributorRegistry",
			"outputs": [
				{
					"internalType": "contract IContributorRegistry",
					"name": "",
					"type": "address"
				}
			],
			"stateMutability": "view",
			"type": "function"
		},
		{
			"inputs": [
				{
					"internalType": "uint256",
					"name": "_assetId",
					"type": "uint256"
				}
			],
			"name": "finalize",
			"outputs": [],
			"stateMutability": "nonpayable",
			"type": "function"
		},
		{
			"inputs": [
				{
					"internalType": "uint256",
					"name": "_assetId",
					"type": "uint256"
				}
			],
			"name": "getContributorEdges",
			"outputs": [
				{
					"components": [
						{
							"internalType": "address",
							"name": "contributor",
							"type": "address"
						},
						{
							"internalType": "uint16",
							"name": "weightBps",
							"type": "uint16"
						}
					],
					"internalType": "struct ProvenanceGraph.ContributorEdge[]",
					"name": "",
					"type": "tuple[]"
				}
			],
			"stateMutability": "view",
			"type": "function"
		},
		{
			"inputs": [
				{
					"internalType": "uint256",
					"name": "_assetId",
					"type": "uint256"
				}
			],
			"name": "getParentEdges",
			"outputs": [
				{
					"components": [
						{
							"internalType": "uint256",
							"name": "parentAssetId",
							"type": "uint256"
						},
						{
							"internalType": "uint16",
							"name": "weightBps",
							"type": "uint16"
						}
					],
					"internalType": "struct ProvenanceGraph.ParentEdge[]",
					"name": "",
					"type": "tuple[]"
				}
			],
			"stateMutability": "view",
			"type": "function"
		},
		{
			"inputs": [
				{
					"internalType": "uint256",
					"name": "_assetId",
					"type": "uint256"
				}
			],
			"name": "getTotalBpsAllocated",
			"outputs": [
				{
					"internalType": "uint16",
					"name": "",
					"type": "uint16"
				}
			],
			"stateMutability": "view",
			"type": "function"
		},
		{
			"inputs": [
				{
					"internalType": "uint256",
					"name": "_assetId",
					"type": "uint256"
				}
			],
			"name": "isFinalized",
			"outputs": [
				{
					"internalType": "bool",
					"name": "",
					"type": "bool"
				}
			],
			"stateMutability": "view",
			"type": "function"
		}
	]
}